:100000000C94D3010C94930F0C946C0F0C94450F2B
:100010000C941E0F0C94FB010C94FB010C94F70E36
:100020000C94FB010C9452140C94BA0F0C942910EC
:100030000C94FB010C94FB010C94FB010C94FB0150
:100040000C94FB010C94FB010C94FB010C94FB0140
:100050000C94FB010C94FB010C94FB010C94AD0E71
:100060000C94FB010C94FB010C94FB010C94FB0120
:100070000C94FB010C94FB010C94FB010C94FB0110
:100080000C94FB010C94FB010C94FB010C94FB0100
:100090000C949D140C94FB010C94FB010C94FB013B
:1000A0000C94FB010C945B120C94FB01000000000B
:1000B0000000004F00000007000700147F147F14A9
:1000C000242A7F2A122313086462364955225000DD
:1000D00000070000001C2241000041221C001408FF
:1000E0003E081408083E08080050300000080808C0
:1000F0000808006060000020100804023E514945D5
:100100003E00427F400042615149462141454B310A
:100110001814127F1027454545393C4A4949300398
:10012000017109073649494936064949291E0036F1
:100130003600000056360000081422410014141442
:100140001414004122140802015109063249794170
:100150003E7E1111117E7F494949363E414141227F
:100160007F4141413E7F494949417F090909013E9B
:100170004149497A7F0808087F00417F41002040BB
:10018000413F017F081422417F404040407F020CE4
:10019000027F7F0408107F3E4141413E7F090909EB
:1001A000063E4151215E7F09192946464949493198
:1001B00001017F01013F4040403F1F2040201F3F81
:1001C0004038403F63140814630708700807615102
:1001D000494543007F41410002040810200041418D
:1001E0007F0004020102044040404040000102043C
:1001F0000020545454787F484444383844444420C0
:10020000384444487F3854545418087E0901020C7D
:100210005252523E7F0804047800447D4000204042
:10022000443D007F1028440000417F40007C0418BA
:1002300004787C0804047838444444387C1414144A
:1002400008081414187C7C080404084854545420EA
:10025000043F4440203C4040207C1C2040201C3C6B
:100260004038403C44281028440C5050503C4464D2
:10027000544C44000836410000007F000000413625
:1002800008000C02040806081C2A080800030C0FCA
:1002900030333C3FC0C3CCCFF0F3FCFF0000000084
:1002A0002300260029002C002F000000000024005D
:1002B00027002A002D003000080B00020202000077
:1002C00009040000010202000005240010010524B9
:1002D000010101042402060524060001070581032B
:1002E00010004009040100020A0000000705020294
:1002F00040000007058302400000040309041201C6
:100300000002EF020140FB1F002300010102030174
:10031000506F6C6F6C7520436F72706F726174698F
:100320006F6E00506F6C6F6C7520412D537461724D
:1003300020333255340000000000250028002B0037
:100340002E00310004040404040304050202020226
:10035000040302020202060606060606040402025E
:100360000204040408020110408040102040804034
:1003700080080204018040201002011080102040FB
:1003800040200000000200090F0000030401000CDF
:10039000000000000000000000000000000000005D
:1003A0000000EF15C21811241FBECFEFDAE0DEBF48
:1003B000CDBF11E0A0E0B1E0E4E4FAE302C00590B3
:1003C0000D92A23DB107D9F724E0A2EDB1E001C042
:1003D0001D92A335B207E1F711E0C2EDD1E004C0F0
:1003E0002197FE010E94BB1BC13DD107C9F70E94A6
:1003F0004E160C94151D0C9400005B9887FD5D9AB9
:1004000087FF5D985B9A5B9886FD5D9A86FF5D9895
:100410005B9A5B9885FD5D9A85FF5D985B9A5B981A
:1004200084FD5D9A84FF5D985B9A5B9883FD5D9A7D
:1004300083FF5D985B9A5B9882FD5D9A82FF5D9871
:100440005B9A5B9881FD5D9A81FF5D985B9A5B98F2
:1004500080FD5D9A80FF5D985B9A0895FC01809114
:10046000F002882311F13FB7F89482E08093E9000D
:100470002091F200822F90E01816190614F481E002
:1004800090E0882339F0289844E64093EF024091A9
:10049000F1004083222339F02091F200211103C0A2
:1004A0002BE62093E8003FBF08958FEF9FEF08955C
:1004B0002FB7F89483E08093E9009091E800892FAA
:1004C000807295FF04C09091F20080E4891B2FBFD9
:1004D00008958091E70281110DC082E08093E302CC
:1004E00084E08093E4021092E6021092E50281E03B
:1004F0008093E70283EE92E0089581508F3008F0F8
:1005000047C0E82FF0E0E957FD4F0C94BB1BA40255
:10051000A80296029C02A002C802C802C802AB024E
:10052000B102B502B902BF02C802C30280918000C5
:100530008F77809380000895809180008F7DF9CF20
:1005400080918000877FF5CF84B58F7784BD089533
:1005500084B58F7DFBCF809190008F778093900042
:100560000895809190008F7DF9CF80919000877FD2
:10057000F5CF8091C0008F778093C000089580915F
:10058000C0008F7DF9CF8091C200877F8093C20029
:1005900008951F93CF93DF93282F30E0F901EE5792
:1005A000FC4F8491F901ED59FC4FD491F901EC5BBA
:1005B000FC4FC491CC23A9F0162F81110E947D021B
:1005C000EC2FF0E0EE0FFF1FEA5CFC4FA591B49119
:1005D0008FB7F894EC91111108C0D095DE23DC930D
:1005E0008FBFDF91CF911F910895DE2BF8CF3FB7DA
:1005F000F8948091DF029091E002A091E102B09125
:10060000E20226B5A89B05C02F3F19F00196A11D57
:10061000B11D3FBFBA2FA92F982F8827BC01CD014C
:10062000620F711D811D911D42E0660F771F881FAB
:10063000991F4A95D1F70895CF92DF92EF92FF92DA
:100640000E94F7026B017C010E94F7026C197D0980
:100650008E099F09683E734081059105A8F3FF90BC
:10066000EF90DF90CF900895E091BE02F091BF022D
:10067000309729F01092BB021092BA0209940895A3
:10068000CF93DF93AC01E091C002F091C1023097AB
:10069000F1F09091BD028091BC029817C0F090E0FB
:1006A000292F30E02617370754F4D901A15FBD4F39
:1006B000240F351FE90128812C939F5FF1CF109201
:1006C000BD026093BC02CB01DF91CF910994DF9111
:1006D000CF91089508954091B0025091B1022091B8
:1006E000AE023091AF0242175307B4F49091E80084
:1006F0009570E1F39091E80092FD19C08093F100AC
:100700008091B0029091B10201968F739927892B45
:1007100019F48EEF8093E8008091B0029091B102BD
:1007200001969093B1028093B00281E0089580E039
:100730000895DF92EF92FF920F931F93CF93DF9371
:10074000D82E8A01EB017B01E40EF51ECE15DF05E4
:1007500059F0D7FE12C0FE0184910E946B032196CE
:100760008111F4CF0FEF1FEFC801DF91CF911F91DF
:100770000F91FF90EF90DF9008958881EECF0F9357
:100780001F93CF93DF931F92CDB7DEB782E08983AB
:1007900042E450E068EB72E080E80E9499030E9416
:1007A0006902DC0112960D911C910115110589F069
:1007B000D801ED91FC910280F381E02DBE016F5FC5
:1007C0007F4FC801099597FD04C0F8010085118588
:1007D000ECCF89810F90DF91CF911F910F910895F8
:1007E000615030F02091F100FC0120830196F8CF98
:1007F000289884E68093EF0208958F929F92AF929B
:10080000BF92CF92DF92EF92FF920F931F93CF93FD
:10081000DF936C017B018A0180911601882309F422
:1008200058C08091F002882309F453C08091B4022B
:1008300080FF05C08091E00082608093E000E801C5
:10084000B12C8AEFA82E93E0892E2AE3922E2097CE
:1008500011F4BB20B9F10E945802811106C0AA947C
:10086000AA20B9F10E941C03F2CF8C171D0611F0CB
:100870000CF08C2F9FB7F8948092E9002091E8004B
:1008800025FD02C09FBFE3CF282F30E0C21BD30B52
:10089000F701815020F041914093F100FACFE20E30
:1008A000F31EBB2021F09092E800B12CEBCF809199
:1008B000E80085FDE7CF9092E800BB24B394209731
:1008C00009F3F3CF5D9884E68093B3021016110606
:1008D0003CF081E090E0F6019383828310E000E039
:1008E000C801DF91CF911F910F91FF90EF90DF90A2
:1008F000CF90BF90AF909F908F900895CF93DF934C
:100900001F92CDB7DEB76983DC01ED91FC910280C7
:10091000F381E02D41E050E0BE016F5F7F4F09950C
:100920000F90DF91CF91089583E08093E90080914B
:10093000F200882319F08AE38093E80008950E946A
:10094000580290E00895CF93DF931F92CDB7DEB7A2
:10095000FC018485958597FD08C02FEF3FEF358713
:1009600024870F90DF91CF910895CE0101960E94C8
:100970002E02019719F4898190E0F3CF8FEF9FEF5A
:10098000F0CF0F931F93CF93DF931F92CDB7DEB7B6
:100990008C01FC018485958597FF0BC0CE010196E3
:1009A0000E942E02019771F4898190E0F8019587E9
:1009B0008487F801848595850F90DF91CF911F91F1
:1009C0000F9108958FEF9FEFF1CFFC0184859585FE
:1009D00097FD0BC09FB7F89482E08093E900809167
:1009E000F2009FBF90E0019608959FB7F89482E0CF
:1009F0008093E9008091F2009FBF90E0089580917C
:100A0000AB02E091AC02F091AD02882339F0849101
:100A10009FEB980F9A3120F4805E08958081F8CF83
:100A2000803269F42091AC023091AD02A9014F5F90
:100A30005F4F5093AD024093AC02232B01F7089512
:100A40001F93CF93DF930E94FF04D0E0C0E01AE031
:100A500090ED980F9A30B8F41C9F90011D9F300DB7
:100A60001124E901C80FD11D87FDDA95E097809127
:100A7000AC029091AD0201969093AD028093AC02CE
:100A80000E94FF04E5CFCE01DF91CF911F91089521
:100A90003F924F925F926F927F928F929F92AF920E
:100AA000BF92CF92DF92EF92FF920F931F93CF935B
:100AB000DF937B01D42E2091A80221111BC021E0DD
:100AC0002093A802109272001092C00034E030937C
:100AD000C10039E03093C2002093C30023E020938B
:100AE000BF0028EE2093D1001092BF001092D200D8
:100AF000579A789410920A01CC24C39497FF03C0AC
:100B00009F77AAE0CA2EC8E2CC9EC02D1124D0E067
:100B10008C179D0750F021E0EC01C21206C0C131D4
:100B200087E2D80710F0C0E1D7E24E01B12CA12C2A
:100B30004C2C512C712C612C9E01AFEFB7E00E9420
:100B4000C11B640D751D861D971D9695879577951C
:100B50006795A30192010E947A1B60E072E18AE727
:100B600090E0312C3394621773078407950728F0BF
:100B70009695879577956795F5CFA30192010E9489
:100B80004A1B9E0136952795620F731F811D911D8B
:100B9000A50194010E947A1B722E022F132F2AE0C6
:100BA000C21207C0CE0105966AE070E00E94661B83
:100BB000EB01C83E83E0D80759F09701DE010E949F
:100BC000C11B28EE33E040E050E00E949C1B7901FD
:100BD000109272008091C100807F83298093C100B0
:100BE0001093BF007092D1004D2D403108F04FE0BE
:100BF00080E190E0841B910902C0169507958A95C3
:100C0000E2F71093BF000093D200F092AA02E092A4
:100C1000A90289B38FEF89BB84E080937200DF91D2
:100C2000CF911F910F91FF90EF90DF90CF90BF90E9
:100C3000AF909F908F907F906F905F904F903F907C
:100C400008952E98269A2D98259A2A98229A2998BE
:100C5000219A80EA8093800081E18093810080E97D
:100C600091E0909387008093860010928900109203
:100C7000880010928B0010928A0008959FB19170A5
:100C80008CB186FB882780F989272091A1023091B9
:100C9000A0024091C6025091C70228273927231B82
:100CA000330B240F351F3093C7022093C6023091B7
:100CB000A0022091A102381729F0291719F021E08C
:100CC00020939F028093A0029093A10208952498FC
:100CD0002C9A6A98729A6E98769A8098889A81E08F
:100CE0008093680090E190936B008BBB8EE396E05D
:100CF0009093200180931F01EAE6F0E080818F7CD1
:100D000080618083EE9A8CB182FB882780F9809382
:100D1000A40293B18091A402929591708927809347
:100D2000A3021092C4021092C3021092A2028FB1C9
:100D300081708093A1029CB18091A10296FB9927BA
:100D400090F989278093A0021092C7021092C602E0
:100D500010929F0208955F926F927F928F929F925E
:100D6000AF92BF92CF92DF92EF92FF920F931F93B9
:100D7000CF93DF93DC011A962D913C91232B09F43C
:100D8000D2C06B01EC0110E08C85181708F039C057
:100D9000E12EF12C8E859F85F701EE0FFF1FEC0DE4
:100DA000FD1D91838083EA85FB85EE0DFF1D61E0CB
:100DB00080810E94C9028A859B85E80EF91EF70191
:100DC000808190E0FC01ED59FC4F24918C5B9C4F9D
:100DD000FC018491882399F090E0880F991FFC0111
:100DE000E655FD4FA591B491FC01EA5CFC4F85915D
:100DF00094918FB7F894EC91E22BEC938FBF1F5F27
:100E0000C3CF83E290E00197F1F710E08C851817CB
:100E100008F036C0212F30E0EA85FB85E20FF31F92
:100E2000808190E0FC01ED59FC4F44918C5B9C4F1C
:100E3000FC0184918823C9F090E0880F991FFC0180
:100E4000E655FD4FA591B491FC01EA5CFC4F65911C
:100E500074919FB7F8948C91E42FE0958E238C9336
:100E6000DB018C91E823EC939FBF8A859B85280F3B
:100E7000391F60E0F90180810E94C9021F5FC6CF5F
:100E80000E94F7024B015C010E94F702AB01BC011A
:100E9000481959096A097B098E859F85B0E0A0E051
:100EA000481759076A077B0708F03DC00E94F70200
:100EB0007B01E818F908612C8C85681628F7062D47
:100EC00010E0EA85FB85E00FF11F208130E0F90199
:100ED000EE57FC4F8491F901ED59FC4F7490F901E4
:100EE000EC5BFC4F549051100CC0000F111FF60129
:100EF000E00FF11F80819181E816F90688F0639474
:100F0000DBCF81110E947D02E52DF0E0EE0FFF1F87
:100F1000E456FD4FA591B491EC917E2231F3EFCFD1
:100F2000F182E082ECCFDF91CF911F910F91FF9082
:100F3000EF90DF90CF90BF90AF909F908F907F9079
:100F40006F905F90089520915502260F3327331F2D
:100F500021323105ECF420917902FC0190E080E02F
:100F6000243069F082E00895A09155022191AC01EE
:100F70004B5C5D4FA40FB52FB11D2C9301968617C6
:100F800098F380915502680F6093550280E00895B0
:100F900081E008951092790281E080937B021092A3
:100FA0007A0261E082E00E94C90261E083E00E946F
:100FB000C902E9EBF0E080818E7F808380818D7FA4
:100FC000808388E48093B80085E48093BC00089512
:100FD0000895E091BD028091BC02E81730F4F0E082
:100FE000E15FFD4F808190E008958FEF9FEF0895BE
:100FF0009091BD028091BC022FEF3FEF981748F40B
:10100000E92FF0E0E15FFD4F208130E09F5F90939A
:10101000BD02C90108958091BC029091BD02891B57
:10102000990B0895CF93DF93CB01EA01642F0E94BF
:10103000A307CE01DF91CF910895CF93DF931F9245
:10104000CDB7DEB7698361E0CE0101960E94A307A8
:1010500081E090E00F90DF91CF910895289A209A37
:1010600008952898209A08955F926F927F928F92A8
:101070009F92AF92BF92CF92DF92EF92FF920F9327
:101080001F93CF93DF935C01D62FC42FF22E132F23
:101090000E9431088D2F806B0E94FD018C2F82955C
:1010A0008F7080610E94FD018C2F8F700E94FD0166
:1010B0000E942E08CF2DD12F0C0F1D2F111D95E052
:1010C000692EC017D10709F444C07990872D80524A
:1010D000990B9C01629EC001639E900D1124769C29
:1010E00040011124F12CE12C9C0124553F4F690152
:1010F0003FE1371508F5F601EE0DFF1DE491F0E034
:1011000084E0F595E7958A95E1F7E457FD4F549013
:10111000852D0E94FD01852D0E94FD019FEFE91A9A
:10112000F90A25E0E216F10419F780E00E94FD01BA
:1011300080E00E94FD01C5CF87E0E0E08715F8F26E
:10114000F401EE0DFF1DE254FF4FEA0DFB1DE0819F
:10115000D6CFDF91CF911F910F91FF90EF90DF904D
:10116000CF90BF90AF909F908F907F906F905F9047
:1011700008955F926F927F928F929F92AF92BF92EB
:10118000CF92DF92EF92FF920F931F93CF93DF9353
:101190005C01D62FC42FF22E132F0E9431088D2F01
:1011A000806B0E94FD018C2F82958F7080610E9460
:1011B000FD018C2F8F700E94FD010E942E08CF2D03
:1011C000D12F0C0F1D2F111D85E0682EC017D107E0
:1011D00009F440C07990872D8052990B9C01629E42
:1011E000C001639E900D1124769C40011124F12CC6
:1011F000E12C9C0124553F4F69013FE13715E8F48C
:10120000F601EE0DFF1DE491EF70F0E0E457FD4FA5
:101210005490852D0E94FD01852D0E94FD019FEFB8
:10122000E91AF90A25E0E216F10439F780E00E9494
:10123000FD0180E00E94FD01C9CF87E0E0E0871555
:1012400018F3F401EE0DFF1DE254FF4FEA0DFB1DF4
:10125000E081DACFDF91CF911F910F91FF90EF9056
:10126000DF90CF90BF90AF909F908F907F906F90C6
:101270005F9008956F927F928F929F92AF92BF92EC
:10128000CF92DF92EF92FF920F931F93CF93DF9352
:101290005C01D62FC42FF22E132F0E9431088D2F00
:1012A000806B0E94FD018C2F82958F7080610E945F
:1012B000FD018C2F8F700E94FD010E942E08CF2D02
:1012C000D12F0C0F1D2F111D85E0682EC017D107DF
:1012D000A9F17990872D8052990B9C01629EC001E3
:1012E000639E900D1124769C40011124F12CE12C79
:1012F0009C0124553F4F69013FE1371588F4F60101
:10130000EE0DFF1D84910E94FD019FEFE91AF90A7D
:1013100025E0E216F10481F780E00E94FD01D6CFBE
:1013200087E0871548F0F701E80DF91DE254FF4FFB
:10133000EA0DFB1D8081E7CF80E0E5CFDF91CF9103
:101340001F910F91FF90EF90DF90CF90BF90AF90E3
:101350009F908F907F906F900895282F21FB0EF023
:10136000209820FB0EF028980EF4289A21FB0EF40A
:10137000209A08958091BC029091BD02891B990B1F
:1013800018161906DCF481E493E00E94F8079091A6
:101390000E02E92FF0E0EE0FFF1FEE52FE4F482F36
:1013A0004053550B518340839F5F90930E02809171
:1013B00000018823F9F210920001DCCF0895CF9349
:1013C000DF93EC01288121FB0EF0559820FB0EF0F5
:1013D0005D980EF45D9A21FB0EF4559A89810E9466
:1013E000AD09E9EEF0E010828C818093F0008B81F2
:1013F00080838A818093E200DF91CF910895FC0180
:10140000A2EEB0E08C9182831C92A9EEB0E08C91A8
:1014100083831C92A0EFB0E08C9184831C9220E027
:101420005D99216055992260208320E028992160F0
:101430002099226021835D98559A0895CF92DF927A
:10144000EF92FF920F93CF93DF93EC017C0184E046
:10145000E80EF11CC7010E94FF096E0184E1C80E6D
:10146000D11C08E0960143E162E0CE010E94B90878
:10147000960143E163E0CE010E9434086E0189E2E7
:10148000C80ED11C960143E165E0CE010E94B90867
:10149000960143E166E0CE010E943408C701DF9166
:1014A000CF910F91FF90EF90DF90CF900C94DF09D8
:1014B000EF92FF920F93CF93DF93EC017C0184E0D6
:1014C000E80EF11CC7010E94FF099E012C5E3F4FF0
:1014D00005E142E060E0CE010E943A099E01275DED
:1014E0003F4F42E061E0CE010E943A099E01225C3A
:1014F0003F4F42E062E0CE010E943A099E012D5A20
:101500003F4F42E063E0CE010E943A099E01285914
:101510003F4F42E064E0CE010E943A099E01235809
:101520003F4F42E065E0CE010E943A099E012E56EF
:101530003F4F42E066E0CE010E943A099E012955E4
:101540003F4F42E067E0CE010E943A09C701DF91B8
:10155000CF910F91FF90EF900C94DF09EF92FF92E3
:101560000F931F93CF93DF938C017C0184E0E80EEF
:10157000F11CC7010E94FF090E94310882E00E940D
:10158000FD01C0E00E9431088C2F806B0E94FD019C
:1015900080E10E94FD010E942E08D0E080E00E94C0
:1015A000FD01DF5FD038D1F7CF5FC83059F7C701F1
:1015B0000E94DF09F8011286DF91CF911F910F91F0
:1015C000FF90EF900895AF92BF92CF92DF92EF928B
:1015D000FF920F931F93CF93DF937C01122F6830FC
:1015E00008F043C0423008F040C088E0861B8217F4
:1015F000D0F12223D1F1C42FCC0FC40FDCE06D9FBA
:10160000D02D1124DD5E670124E1C20ED11C862F8E
:1016100090E025E1429F800D911D1124C80ED91E36
:10162000570184E0A80EB11CC5010E94FF0962E0C9
:101630006C0F012F96014D2FC7010E94B90863E07E
:101640006C0F96014D2FC7010E943408C501DF9130
:10165000CF911F910F91FF90EF90DF90CF90BF90AF
:10166000AF900C94DF09182FC6CFDF91CF911F9157
:101670000F91FF90EF90DF90CF90BF90AF900895C3
:10168000BF92CF92DF92EF92FF920F931F93CF936F
:10169000DF93EC01162FB42E022F653198F527E069
:1016A000241780F185E1861B801750F1002351F14A
:1016B000CE014496E12EF12C25E1B29EE00CF11C06
:1016C0001124E80EF91E6E0184E0C80ED11CC6017B
:1016D0000E94FF09412F440F410F440F4E5F9701B5
:1016E0006B2DCE010E943A09C601DF91CF911F9167
:1016F0000F91FF90EF90DF90CF90BF900C94DF0997
:10170000082FD6CFDF91CF911F910F91FF90EF90CF
:10171000DF90CF90BF900895089590E080E0089505
:101720000E94001DFB0101900020E9F73197AF01F5
:10173000461B570BDC01ED91FC910280F381E02DFB
:1017400009948F929F92AF92BF92EF92FF920F9364
:101750001F93CF93DF93CDB7DEB7A1970FB6F89461
:10176000DEBF0FBECDBF7C01FA01CB0119A2223032
:1017700008F42AE08E010F5D1F4F822E912CB12CB0
:10178000A12CBF01A50194010E947A1BF901CA0195
:101790006A300CF5605DD8016E938D01232B242BEC
:1017A000252B79F790E080E0109721F0BD01C7016B
:1017B0000E94920BA1960FB6F894DEBF0FBECDBF6C
:1017C000DF91CF911F910F91FF90EF90BF90AF905D
:1017D0009F908F900895695CDECF2F923F924F9239
:1017E0005F926F927F928F929F92AF92BF92CF92B1
:1017F000DF92EF92FF921F93CF93DF93EC016A0188
:101800007B01722EAB019601CB01B6010E94451BF4
:1018100068E871E0811126C046015701E894B7F8E5
:101820002FEF3FEF4FE75FE7C501B4010E94451B73
:1018300081110CC02FEF3FEF4FE75FE7C501B40107
:101840000E9474196CE871E0181664F02FEF3FEFF6
:101850004FE75FE4C701B6010E94D31A1816B4F42B
:1018600060E971E0CE01DF91CF911F91FF90EF9081
:10187000DF90CF90BF90AF909F908F907F906F90B0
:101880005F904F903F902F900C94920B2FEF3FEF73
:101890004FE75FECC701B6010E94741987FDE0CFE6
:1018A00020E030E0A901C701B6010E947419312C73
:1018B000212C87FF0DC0E881F9810190F081E02D96
:1018C0006DE2CE0109951C01F7FAF094F7F8F09457
:1018D00010E060E070E080E09FE3711641F020E0EE
:1018E00030E040E251E40E9479191F5FF6CFA70172
:1018F00096010E9408192B013C010E94F2194B012C
:101900005C012AE0BC01A401CE010E94A10B7C0174
:10191000E20CF31C1123E1F1C501B4010E94211A6C
:101920009B01AC01C301B2010E9407194B015C018C
:10193000E881F9810190F081E02D6EE2CE010995F8
:10194000E80EF91E115020F120E030E040E251E4B1
:10195000C501B4010E94D81A2B013C010E94F21962
:101960004B01B12CA12C2AE0B501A401CE010E94AB
:10197000A10BE80EF91EC501B4010E94211A9B01BA
:10198000AC01C301B2010E9407194B015C01DACF1F
:10199000C701DF91CF911F91FF90EF90DF90CF9023
:1019A000BF90AF909F908F907F906F905F904F907F
:1019B0003F902F9008958F929F92AF92BF92CF92B7
:1019C000DF92EF92FF928091C902882309F44DC003
:1019D0006091CA027091CB028091CC029091CD02AD
:1019E0000E94EB194B016B01770FEE08FF082AE00C
:1019F000B701A601F7FE0DC06DE281EF92E00E94F3
:101A00007E0444275527BA014C195D096E097F09E8
:101A10002AE081EF92E00E94A10B682D81E493E01F
:101A20000E941D081092CA021092CB021092CC02A2
:101A30001092CD0264E971E081EF92E00E94920B76
:101A40004091CA025091CB026091CC027091CD02BC
:101A500022E081EF92E00E94ED0B66EA71E081EFF7
:101A600092E00E94920B1092C902FF90EF90DF90DB
:101A7000CF90BF90AF909F908F900895CF93DF93BA
:101A800085ED8093BC008091310290913202A0914B
:101A90003302B09134020796A11DB11D23E0B69523
:101AA000A795979587952A95D1F72091BC0024FD9D
:101AB00003C01092790236C0409131025091320237
:101AC0006091330270913402452B462B472B69F30A
:101AD0000097A105B10541F02AE22A95F1F700C06F
:101AE0000197A109B109E1CF8091300291E0909373
:101AF0002F028823B9F0C091B800D091BA0080912C
:101B0000BC008A7B8093BC0060E082E00E94C90236
:101B100060E083E00E94C9020E94CA07D093BA0025
:101B2000C093B800DF91CF910895DF92EF92FF92BA
:101B30000F931F93CF93DF93EC01F62EE42ED22E5A
:101B4000898581112DC05B98539A5A98529A85E3E2
:101B50008A95F1F700005A9A529AA5E3AA95F1F7EF
:101B60000000CE010E94AE0A8E010C5F1F4FC8011B
:101B70000E94FF090E94310881EA0E94FD0188EC61
:101B80000E94FD0181E80E94FD018FEF0E94FD018E
:101B90008FEA0E94FD01C8010E94DF0981E0898768
:101BA0008A85882319F0CE010E94AE0A2A893B89D2
:101BB000C901959587958C0F9D1FE889F98920FFAC
:101BC00008C0DC012D913C91E20FF31F0190F081E0
:101BD000E02D2D2D4E2D6F2DDF91CF911F910F9167
:101BE000FF90EF90DF900994CF93DF93DC01A35433
:101BF000BF4F2C91283008F5EC01C454DF4FE88129
:101C0000E531D8F4AC0175E1279F400D511D112439
:101C1000E40FF52FF11D648BFC012385211105C014
:101C200021E04C9168810E94950D88818F5F8883A7
:101C300081E090E0DF91CF91089590E080E0FACFCD
:101C4000AF92BF92CF92DF92EF92FF920F931F93CA
:101C5000CF93DF9382EEE82EF12CF7010081108202
:101C6000C9EED0E0B880188290EFC92ED12CF601D1
:101C7000A080108220E02899216020992260822F84
:101C80002098289A90E19A95F1F713B10E94AD0936
:101C90001882F601A082B882F7010083812F809517
:101CA0008170DF91CF911F910F91FF90EF90DF90A6
:101CB000CF90BF90AF900895BF92CF92DF92EF92F6
:101CC000FF920F931F93CF93DF938C01EA016C0176
:101CD0002DEBC20ED11CF60130813830D8F57C01D5
:101CE000FCEBEF0EF11CF7018081853198F525E1C1
:101CF000281B90E02417150620F4C5E1D0E0C81B8E
:101D0000D90BF5E13F9F800D911D1124AE01980183
:101D10002C5E3F4F820F931F0E94051DBC2EF801C1
:101D20008385811108C02C2FF6014081F701608165
:101D3000C8010E94950DF70180818B0D8083CE0133
:101D4000DF91CF911F910F91FF90EF90DF90CF9097
:101D5000BF900895D0E0C0E0F2CF1F920F920FB66F
:101D60000F9211242F933F938F939F93AF93BF9321
:101D70008091DB029091DC02A091DD02B091DE0245
:101D80003091DA0223E0230F2D3758F50196A11D7B
:101D9000B11D2093DA028093DB029093DC02A093C2
:101DA000DD02B093DE028091DF029091E002A0910B
:101DB000E102B091E2020196A11DB11D8093DF0204
:101DC0009093E002A093E102B093E202BF91AF9141
:101DD0009F918F913F912F910F900FBE0F901F9069
:101DE000189526E8230F0296A11DB11DD2CF1F9290
:101DF0000F920FB60F9211242F933F934F935F933F
:101E00006F937F938F939F93AF93BF93EF93FF93C2
:101E1000E0911F01F09120010995FF91EF91BF9191
:101E2000AF919F918F917F916F915F914F913F9172
:101E30002F910F900FBE0F901F9018951F920F9229
:101E40000FB60F9211242F933F934F935F936F938D
:101E50007F938F939F93AF93BF93EF93FF93E09103
:101E60001D01F0911E010995FF91EF91BF91AF9176
:101E70009F918F917F916F915F914F913F912F91A2
:101E80000F900FBE0F901F9018951F920F920FB6D4
:101E90000F9211242F933F934F935F936F937F93F0
:101EA0008F939F93AF93BF93EF93FF93E0911B01A9
:101EB000F0911C010995FF91EF91BF91AF919F9116
:101EC0008F917F916F915F914F913F912F910F90E3
:101ED0000FBE0F901F9018951F920F920FB60F9282
:101EE00011242F933F934F935F936F937F938F931F
:101EF0009F93AF93BF93EF93FF93E0911901F091FC
:101F00001A010995FF91EF91BF91AF919F918F9128
:101F10007F916F915F914F913F912F910F900FBEE5
:101F20000F901F9018951F920F920FB60F921124C9
:101F30002F933F934F935F936F937F938F939F93D1
:101F4000AF93BF93EF93FF93E0911701F0911801C6
:101F50000995FF91EF91BF91AF919F918F917F91E3
:101F60006F915F914F913F912F910F900FBE0F9006
:101F70001F9018951F920F920FB60F9211248F93F6
:101F80009F938091E1009091E100937F9093E10015
:101F900083FF0FC01092E90091E09093EB00109244
:101FA000EC0092E39093ED001092F00298E0909391
:101FB000F00082FF22C093E09093E9009091F2003C
:101FC000992319F09AE39093E8009091B302992332
:101FD00041F09091B30291509093B302911101C0DE
:101FE0005D9A9091EF02992341F09091EF02915008
:101FF0009093EF02911101C0289A84FF18C080913C
:10200000E2008E7E81608093E2008091E1008F7E0D
:102010008093E1008091B4028E7E80618093B4024F
:102020009F918F910F900FBE0F901F90189580FF7A
:10203000F7CF8091E2008E7E80618093E2008091F4
:10204000E1008E7E8093E1008091B4028E7E8160FB
:10205000E5CF1F920F920FB60F921124CF92DF920D
:10206000EF92FF920F931F932F933F934F935F93A2
:102070006F937F938F939F93AF93BF93EF93FF9350
:10208000CF93DF93CDB7DEB76C97DEBFCDBF109295
:10209000E9008091E80083FF25C068E0CE01459605
:1020A0000E94F00382EF8093E8008D8987FF39C09A
:1020B0009091E80090FFFCCF982F907609F034C102
:1020C0009E894F89588D2F89F88C911131C08038A5
:1020D00061F58091B5028093F1001092F1008EEFCE
:1020E0008093E8006C960FB6F894DEBF0FBECDBFAC
:1020F000DF91CF91FF91EF91BF91AF919F918F9120
:102100007F916F915F914F913F912F911F910F910F
:10211000FF90EF90DF90CF900F900FBE0F901F9029
:1021200018959EEF9093E800C7CF1092F100D5CF9D
:10213000913059F48111D3CF4130510581F680910E
:10214000B5028D7F8093B502CACF933049F48111D7
:10215000C6CF4130510519F68091B5028260F2CFA9
:10216000953041F48091E80080FFFCCF20682093F7
:10217000E300B5CF963009F0A9C00B8D1C8D22E08D
:102180001092E9001092B1021092B002F2122EC029
:102190001092AF021092AE020E94BF031F8299E01C
:1021A0009983FA8291E09E8390EA98879AEF9987C3
:1021B0002091B0023091B102275F3F4F3C832B83C7
:1021C0008D831092E9001092B1021092B002109328
:1021D000AF020093AE0249E050E0BE016F5F7F4F57
:1021E00080E00E9499030E94BF0379CF1093AF0251
:1021F0000093AE020E946902DC0112960D911C91BF
:102200000115110509F451C1D801ED91FC9104802B
:10221000F581E02DBE016B5E7F4FC80109950097E7
:1022200009F03EC1F80100851185EACFF3E0FF1205
:102230000EC08F89882309F440C0823061F440E8E1
:1022400062E183E293E00E94BC15811148CF81E2F4
:102250008093EB0047CF813029F440E862E180E1D0
:1022600093E0F1CF833099F70E946902DC01129666
:10227000ED90FC908E010F5F1F4F6801E114F10497
:1022800079F0D701ED91FC910680F781E02DB8013E
:10229000C7010995080F111DF701E084F184EECF05
:1022A000D8011C92F60101900020E9F73197BF0197
:1022B0006C197D0940E0C601C6CF6AEF72E0FB01F0
:1022C000449150E080E80E94990309CF973009F4C7
:1022D000BECF983021F481E08093F10000CF993097
:1022E00009F0FDCE837009F0B2CFE0E4F1E081E0C7
:1022F00031E096E32191222371F08093E90030933D
:10230000EB00DF0111972C912093EC009093ED00EE
:102310008F5F873079F78EE78093EA001092EA00AA
:102320008F898093F002DBCE8B8D9C8D1092E9001B
:102330001092B1021092B0029093AF028093AE025D
:10234000898D811192C08E899D89913A49F481329B
:1023500009F07DCF47E050E06FE071E080E0B3CF5F
:10236000913209F074CF833269F48F89988DB0E08F
:10237000A0E080930B0190930C01A0930D01B0930A
:102380000E01ADCE803269F48091E80082FFFCCF6F
:1023900067E08FE091E00E94F0038BEF8093E8000C
:1023A0009ECE823209F09BCE8F8980931601EEEF8C
:1023B000FFE7859194918B3F9C4D51F1E0E0F8E06F
:1023C00080910F0190911001A0911101B091120123
:1023D000803B9440A105B105F1F48091160180FD88
:1023E0001AC0EE3F8AE0F80789F587E797E79183FF
:1023F0008083809160008093B20288E19BE00FB6F9
:10240000F894A895809360000FBE9093600067CE0B
:10241000EEEFFAE0D5CF808191818737974709F0B9
:102420005ECEA89580916000886180936000809165
:10243000B20280936000EE3F2AE0F20789F08091BB
:10244000FE0A9091FF0A9183808349CE8081918119
:102450008737980751F29093FF0A8093FE0AC5CF01
:102460001092FF0A1092FE0A3ACE0E946902DC0125
:1024700012960D911C910115110509F4E8CED801B1
:10248000ED91FC910190F081E02DBE016B5E7F4FDC
:10249000C8010995811123CEF80100851185EBCF84
:1024A000181619060CF41BCED2CEF1E0FF12BECEE8
:1024B0006EEF72E004CF1F920F920FB60F921124AD
:1024C0004F925F926F927F928F929F92AF92BF9244
:1024D000CF92DF92EF92FF920F931F932F933F9330
:1024E0004F935F936F937F938F939F93AF93BF931C
:1024F000CF93DF93EF93FF93C091A902D091AA02EB
:10250000CE0101979093AA028093A9022097A1F58A
:102510001092720078948091C100807F84608093D3
:10252000C10083E08093BF0088EE8093D1001092B9
:10253000BF001092D20081E080930A018091AC022A
:102540009091AD02892BC1F08091A702811114C036
:10255000709009018091A602882379F18091A502EB
:10256000882359F16091A50270E040E088EE93E085
:102570000E9448051092A502FF91EF91DF91CF9143
:10258000BF91AF919F918F917F916F915F914F918B
:102590003F912F911F910F91FF90EF90DF90CF907F
:1025A000BF90AF909F908F907F906F905F904F9073
:1025B0000F900FBE0F901F9018955524539470ECF8
:1025C000A72E7DE5B72EEAE04E2EF4E06F2EA0EDAB
:1025D000CA2EA7E0DA2EB4E0EB2EF12C04EF11E0C6
:1025E0008FE0882E912C0E94FF042091AC02309144
:1025F000AD022F5F3F4F3093AD022093AC02853682
:1026000009F473C00CF047C0813609F4B4C024F556
:102610008C3309F468C08E3309F463C0813209F049
:1026200043C060920901D0920601C0920501F09268
:102630000801E092070110930401009303019092B6
:102640000201809201011092A6027090090180910E
:10265000030190910401C7CF833609F48FC010E0C5
:102660000BE0843614F010E002E04CE0749E000DA4
:1026700011240E94FF04982F977F933209F080C0A5
:102680008091AC029091AD0201969093AD0280933F
:10269000AC020F5FEECF8D3609F445C054F4873697
:1026A00051F134F18C3651F11092AD021092AC021E
:1026B00063CF823709F44CC044F48F36A9F70E94E7
:1026C0002005782E809309018ECF843709F443C00A
:1026D000863751F70E9420059093020180930101F3
:1026E00082CF739480CF7A947ECF10E004E0BDCF88
:1026F00010E005E0BACF10E007E0B7CF0E94200558
:102700009093080180930701809105019091060143
:1027100060910701709108010E94661B709304018B
:102720006093030160CF0E94FF048C3661F4109225
:10273000A6028091AC029091AD0201969093AD02F9
:102740008093AC0250CF5092A6021092A502F1CF16
:1027500011E000E08ACF0E942005BC01C5010E9463
:10276000661B469EC001479E900D11249093060162
:1027700080930501C9CF10E009E077CF10E0E9CFE1
:102780008D3269F48091AC029091AD0201969093E4
:10279000AD028093AC0201500E94FF04F1CFE090A3
:1027A0000301F09004018153883058F4E090050152
:1027B000F09006010E942005BC01C7010E94661B23
:1027C0007B016701D694C7940E94FF048E3261F4A6
:1027D0008091AC029091AD0201969093AD028093EE
:1027E000AC02EC0CFD1CEECF8091A602882349F0D0
:1027F000C701969587958093A5028091A502E81A56
:10280000F108C0900101D0900201111104C00F3FE6
:1028100011F0C11007C040E0B70188EE93E00E94BC
:102820004805AACE013128F010EF100F103608F03D
:102830001FE5812F6CE00E945A1B582F44EF45037F
:1028400090011124210F311D2C30310538F4220F55
:10285000331FF901E95DFE4FC081D1818730C1F09E
:10286000082E02C0CC0FDD1F0A94E2F7823040F040
:10287000CE0105966AE070E00E94661BCB0102C0A3
:10288000CE0190584C2D403108F04FE0B701C7CF32
:10289000CE0126E0880F991F2A95E1F7029665E0A0
:1028A00070E0EACF1F920F920FB60F9211242F9370
:1028B0003F934F936F937F938F939F938CB1282F68
:1028C00030E03595279535952795422F417083B196
:1028D00090E064E0959587956A95E1F7822781708D
:1028E0002091A4029091A3026091C3027091C4024E
:1028F00028279427291B330B260F371F3093C40238
:102900002093C3022091A3029091A402281729F0DA
:10291000941719F091E09093A2028093A302409340
:10292000A4029F918F917F916F914F913F912F9131
:102930000F900FBE0F901F9018951F920F920FB619
:102940000F9211242F933F934F935F936F937F9335
:102950008F939F93AF93BF93EF93FF938091B900B1
:10296000887F803609F44AC0F0F5883209F4A7C0A0
:1029700018F5803109F49BC0B8F4882309F4F9C034
:10298000883009F494C0FF91EF91BF91AF919F916E
:102990008F917F916F915F914F913F912F910F9008
:1029A0000FBE0F901F901895883109F488C08032AF
:1029B00051F78093780214C0803409F49DC040F42C
:1029C0008033B9F38833F9F68093780285ECB0C090
:1029D000803509F485C0883509F496C0883499F6A5
:1029E0000E943E0DD0CF883909F48CC038F5883765
:1029F00029F050F4883611F0803729F683E080936F
:102A000079021092770257C0883809F47BC0803968
:102A100019F0803809F0B7CF80917702803208F042
:102A200071C0E091770281E08E0F809377028091F0
:102A3000BB00F0E0E95AFD4F80833DC0803B39F098
:102A4000E0F4803A09F479C0883A09F09CCF84E038
:102A5000809379021092560210925502E091B802CA
:102A6000F091B90209958091550281110FC081E062
:102A7000809355021092350209C0803C09F4A6CF1C
:102A8000883C09F4A3CF883B09F07DCFE091560242
:102A900081E08E0F80935602F0E0EB5CFD4F808169
:102AA0008093BB00909156028091550229C080917D
:102AB0009E028093BB0085EC8093BC0064CF909114
:102AC0009D0280919C02981758F5E0919D0281E04B
:102AD0008E0F80939D02F0E0E458FD4F8081E9CF96
:102AE000E0919D0281E08E0F80939D028091BB005A
:102AF000F0E0E458FD4F808390919D0280919C020C
:102B00009817C8F285E8D8CFE0919D0281E08E0F3A
:102B100080939D028091BB00F0E0E458FD4F8083DC
:102B200080917B0281115CCF81E080937A0284EAFC
:102B30008093BC001092790226CF85EC8093BC0074
:102B40001092790280917702803230F4E09177021E
:102B5000F0E0E95AFD4F10826091770270E0E09159
:102B6000B602F091B70287E592E0099510927702DC
:102B70000ACF1092780234CFEF92FF920F931F93F7
:102B8000CF93DF93F82E192FE62E042F81E0860FC6
:102B9000880F0E946B0383E00E946B03CF2DD12F1F
:102BA000EC0EFD2EF11CCE15DF05B9F007FF13C0AA
:102BB000FE0184910E946B03182F80E00E946B033A
:102BC000812321968111EFCFDF91CF911F910F913A
:102BD000FF90EF9008958881EDCF81E0F5CFCF93FE
:102BE000DF93E1EFF2E01382128288EE93E0A0E03F
:102BF000B0E084839583A683B7832AE431E03183F0
:102C000020832FEF3FEF35872487E1E4F3E0138241
:102C1000128284839583A683B7838CE591E09183A8
:102C20008083E7E4F4E01282158286E891E09183E4
:102C30008083E5E3F4E01382128215821482178206
:102C4000168211861086138612868AE791E0918398
:102C50008083CDE4D3E01B821A8248EA50E060E230
:102C600070E081E693E00E940E1D109234041092F1
:102C700033048EE19AE09D878C871F861E8683EE43
:102C80009AE0998B888B1B8A1A8A81E08A878EE664
:102C900091E099838883DF91CF910895789484B5EA
:102CA000826084BD84B5816084BD85B5826085BD48
:102CB00085B5816085BD80916E00816080936E00D6
:102CC00010928100809181008260809381008091C8
:102CD0008100816080938100809180008160809379
:102CE000800080919100826080939100809191009A
:102CF000816080939100809190008160809390002A
:102D00008091C10084608093C1008091C100826085
:102D10008093C1008091C10081608093C100809147
:102D2000C30081608093C3008091C0008260809363
:102D3000C0008091C20081608093C20080917A00BF
:102D4000846080937A0080917A00826080937A0018
:102D500080917A00816080937A0080917A00806807
:102D600080937A001092F0021092B5021092B40291
:102D70008091D70081608093D70080EA8093D8004B
:102D800089B5806189BD89B5826089BD09B400FEBD
:102D9000FDCF0E941C038091D8008F7C80618093BE
:102DA000D8008091E000807F8093E0008091E10076
:102DB0008E7E8093E1008DE08093E200559A209A08
:102DC0001092BD021092BC021092BB021092BA0285
:102DD0000E94CA0784E393E09093B9028093B802FB
:102DE00080E493E09093B7028093B60282E08093F0
:102DF000BA008FEF9FEF9093FE028093FD028BED60
:102E00009CE09093BF028093BE028AEB99E090937E
:102E1000C1028093C002109234041092330488E5FA
:102E20009AE090935A038093590310925C03109296
:102E30005B0380E49BE090935E0380935D031092BC
:102E4000600310925F0381E08093570360E590E098
:102E500080E00E94F91860E081E090E00E94F9189B
:102E600090E080E00E94F1188093C80281E090E039
:102E70000E94F118682F70E090E080E00E94211A13
:102E80006093CA027093CB028093CC029093CD02E0
:102E900084E6C82ED12C93E0392E24E0E22EFF24C4
:102EA000F3948091D202811115C02FB7F8948091CC
:102EB000DB029091DC02A091DD02B091DE022FBF17
:102EC0008093CE029093CF02A093D002B093D10210
:102ED000F092D2028091C202811104C0F092C2022B
:102EE0000E942106D0928B00C0928A002A98229AD2
:102EF0008091C202811104C0F092C2020E94210698
:102F0000D0928900C09288002998219A2FB7F8940E
:102F10008091DB029091DC02A091DD02B091DE0293
:102F20002FBF4091CE025091CF026091D00270919C
:102F3000D102841B950BA60BB70B88389341A105D2
:102F4000B10570F169EA71E081EF92E00E94920BA5
:102F50004091CA025091CB026091CC027091CD0297
:102F600022E081EF92E00E94ED0B66EA71E081EFD2
:102F700092E00E94920BF092C9022FB7F8948091D0
:102F8000DB029091DC02A091DD02B091DE022FBF46
:102F90008093CE029093CF02A093D002B093D1023F
:102FA0008091C502811104C0F092C5020E9467069B
:102FB000F8940091C3021091C4021092C4021092BE
:102FC000C30278948091C502811104C0F092C502B9
:102FD0000E946706F894C091C602D091C702109271
:102FE000C7021092C60278944090CA025090CB0259
:102FF0006090CC027090CD02B80117FF03C07195AC
:1030000061957109072E000C880B990B0E94231AF9
:1030100026E53EE049E450E40E94D81A27E73EEB5B
:103020004FE15DE30E94D81A20E030E843E654E423
:103030000E9479194B015C01BE01D7FF03C0719555
:1030400061957109072E000C880B990B0E94231AB9
:1030500026E53EE049E450E40E94D81A27E73EEB1B
:103060004FE15DE30E94D81A20E030E843E654E4E3
:103070000E9479199B01AC01C501B4010E94081995
:1030800020E030E040E251E40E94D81A20E030E035
:1030900040E05FE30E94D81AA30192010E94081940
:1030A0004B015C01C301B2010E94F21981E090E082
:1030B0000E94F9188092CA029092CB02A092CC0290
:1030C000B092CD0220E030E040EA50E4C501B40106
:1030D0000E9479199B01AC0160E070E080EA92E403
:1030E0000E9407190E94F219C62F90E080E00E940A
:1030F000F918C093C8021092090410920A0464EBF4
:1031000071E08DE493E00E94920B10920904F0921A
:103110000A044091C80250E070E060E02AE08DE4CB
:1031200093E00E94A10B1092090430920A046DEB07
:1031300071E08DE493E00E94920B66EA71E08DE409
:1031400093E00E94920B10920904E0920A044091CD
:10315000CA025091CB026091CC027091CD0222E064
:103160008DE493E00E94ED0B6EEC71E08DE493E052
:103170000E94920B80E090E0892B09F492CE0E948D
:1031800000008FCE80E891E0909336048093350460
:1031900080913F0490914004009711F00E94771CA9
:1031A0008091390490913A04009711F00E94771CA5
:1031B00080913D0490913E04009711F00E94771C8D
:1031C0008091370490913804009711F00E94771C89
:1031D00080913B0490913C04009711F00C94771C73
:1031E0000895F999FECF92BD81BDF89A992780B5CF
:1031F0000895262FF999FECF1FBA92BD81BD20BD3B
:103200000FB6F894FA9AF99A0FBE0196089550589D
:10321000BB27AA270E941F190C94991A0E948B1A87
:1032200038F00E94921A20F039F49F3F19F426F4E6
:103230000C94881A0EF4E095E7FB0C94821AE92F9F
:103240000E94AA1A58F3BA176207730784079507F2
:1032500020F079F4A6F50C94CC1A0EF4E0950B2E20
:10326000BA2FA02D0B01B90190010C01CA01A001D8
:103270001124FF27591B99F0593F50F4503E68F133
:103280001A16F040A22F232F342F4427585FF3CF74
:10329000469537952795A795F0405395C9F77EF445
:1032A0001F16BA0B620B730B840BBAF09150A1F08E
:1032B000FF0FBB1F661F771F881FC2F70EC0BA0F14
:1032C000621F731F841F48F4879577956795B7959C
:1032D000F7959E3F08F0B0CF9395880F08F0992797
:1032E000EE0F9795879508950E945E1A08F481E085
:1032F00008950E948D190C94991A0E94921A58F000
:103300000E948B1A40F029F45F3F29F00C94821A36
:1033100051110C94CD1A0C94881A0E94AA1A68F3C1
:103320009923B1F3552391F3951B550BBB27AA277E
:1033300062177307840738F09F5F5F4F220F331FB8
:10334000441FAA1FA9F335D00E2E3AF0E0E832D080
:1033500091505040E695001CCAF72BD0FE2F29D083
:10336000660F771F881FBB1F261737074807AB0755
:10337000B0E809F0BB0B802DBF01FF2793585F4FCA
:103380003AF09E3F510578F00C94821A0C94CD1AB5
:103390005F3FE4F3983ED4F3869577956795B795AC
:1033A000F7959F5FC9F7880F911D9695879597F9B7
:1033B0000895E1E0660F771F881FBB1F6217730730
:1033C0008407BA0720F0621B730B840BBA0BEE1F45
:1033D00088F7E09508950E94F2196894B1110C9451
:1033E000CD1A08950E94B21A88F09F5798F0B92F0D
:1033F0009927B751B0F0E1F0660F771F881F991F2A
:103400001AF0BA95C9F714C0B13091F00E94CC1AE5
:10341000B1E008950C94CC1A672F782F8827B85FF5
:1034200039F0B93FCCF3869577956795B395D9F781
:103430003EF490958095709561957F4F8F4F9F4F8B
:103440000895E89409C097FB3EF490958095709597
:1034500061957F4F8F4F9F4F9923A9F0F92F96E9E0
:10346000BB279395F695879577956795B795F11155
:10347000F8CFFAF4BB0F11F460FF1BC06F5F7F4FF2
:103480008F4F9F4F16C0882311F096E911C0772304
:1034900021F09EE8872F762F05C0662371F096E80D
:1034A000862F70E060E02AF09A95660F771F881FDC
:1034B000DAF7880F9695879597F90895990F000880
:1034C000550FAA0BE0E8FEEF16161706E807F907F6
:1034D000C0F012161306E407F50798F0621B730B91
:1034E000840B950B39F40A2661F0232B242B252B12
:1034F00021F408950A2609F4A140A6958FEF811DB5
:10350000811D089597F99F6780E870E060E0089555
:103510009FEF80EC089500240A94161617061806EB
:103520000906089500240A941216130614060506C7
:103530000895092E0394000C11F4882352F0BB0F58
:1035400040F4BF2B11F460FF04C06F5F7F4F8F4FBB
:103550009F4F089557FD9058440F551F59F05F3FF6
:1035600071F04795880F97FB991F61F09F3F79F0A5
:1035700087950895121613061406551FF2CF469527
:10358000F1DF08C0161617061806991FF1CF8695A9
:103590007105610508940895E894BB27662777278D
:1035A000CB0197F908950E945E1A08F48FEF0895F1
:1035B0000E94EB1A0C94991A0E948B1A38F00E9400
:1035C000921A20F0952311F00C94821A0C94881A08
:1035D00011240C94CD1A0E94AA1A70F3959FC1F37E
:1035E000950F50E0551F629FF001729FBB27F00DB1
:1035F000B11D639FAA27F00DB11DAA1F649F662706
:10360000B00DA11D661F829F2227B00DA11D621F54
:10361000739FB00DA11D621F839FA00D611D221F0E
:10362000749F3327A00D611D231F849F600D211DF2
:10363000822F762F6A2F11249F5750409AF0F1F075
:1036400088234AF0EE0FFF1FBB1F661F771F881FDE
:1036500091505040A9F79E3F510580F00C94821A7A
:103660000C94CD1A5F3FE4F3983ED4F3869577959A
:103670006795B795F795E7959F5FC1F7FE2B880F84
:10368000911D9695879597F908950E945E1A880B6B
:10369000990B0895DB018F939F930E94D01BBF91DC
:1036A000AF91A29F800D911DA39F900DB29F900D91
:1036B00011240895991B79E004C0991F961708F00A
:1036C000961B881F7A95C9F780950895AA1BBB1B86
:1036D00051E107C0AA1FBB1FA617B70710F0A61B12
:1036E000B70B881F991F5A95A9F780959095BC0133
:1036F000CD010895A1E21A2EAA1BBB1BFD010DC02E
:10370000AA1FBB1FEE1FFF1FA217B307E407F50791
:1037100020F0A21BB30BE40BF50B661F771F881F6D
:10372000991F1A9469F760957095809590959B0103
:10373000AC01BD01CF010895052E97FB1EF4009446
:103740000E94B31B57FD07D00E947A1B07FC03D0D1
:103750004EF40C94B31B50954095309521953F4FF6
:103760004F4F5F4F089590958095709561957F4F6D
:103770008F4F9F4F0895EE0FFF1F0590F491E02D9E
:103780000994A29FB001B39FC001A39F700D811D3A
:103790001124911DB29F700D811D1124911D08955A
:1037A0000E94C11BA59F900DB49F900DA49F800DFA
:1037B000911D112408950F931F93CF93DF938230AF
:1037C000910510F482E090E0E0915104F0915204F0
:1037D00030E020E0B0E0A0E0309799F42115310509
:1037E00009F44AC0281B390B24303105D8F58A81E9
:1037F0009B816115710589F1FB0193838283FE0131
:1038000011C0408151810281138148175907E0F0AE
:103810004817590799F4109761F012960C93129774
:1038200013961C933296CF01DF91CF911F910F9188
:1038300008950093510410935204F4CF21153105DB
:1038400051F04217530738F0A901DB019A01BD017D
:10385000DF01F801C1CFEF01F9CF909352048093BB
:103860005104CDCFFE01E20FF31F819391932250BB
:10387000310939832883D7CF20914F0430915004E8
:10388000232B41F4209123013091240130935004E3
:1038900020934F04209121013091220121153105FF
:1038A00041F42DB73EB74091250150912601241BCC
:1038B000350BE0914F04F0915004E217F307A0F4A8
:1038C0002E1B3F0B2817390778F0AC014E5F5F4F76
:1038D0002417350748F04E0F5F1F50935004409354
:1038E0004F04819391939FCFF0E0E0E09CCFCF9382
:1038F000DF930097E9F0FC01329713821282A091C6
:103900005104B0915204ED0130E020E01097A1F491
:1039100020813181820F931F20914F0430915004F8
:103920002817390709F061C0F0935004E0934F0461
:10393000DF91CF910895EA01CE17DF07E8F54A81BC
:103940005B819E0141155105B1F7E901FB83EA83D3
:1039500049915991C40FD51FEC17FD0761F480817F
:1039600091810296840F951FE90199838883828152
:1039700093819B838A83F0E0E0E012968D919C9185
:1039800013970097B9F52D913C911197CD010296AF
:10399000820F931F20914F0430915004281739074C
:1039A00039F6309751F51092520410925104B093A9
:1039B0005004A0934F04BCCFD383C2834081518174
:1039C000840F951FC817D90761F44E5F5F4F888138
:1039D0009981480F591F518340838A819B8193832A
:1039E00082832115310509F0B0CFF0935204E093A2
:1039F00051049ECFFD01DC01C0CF13821282D7CFCC
:103A000081E090E0F8940C94151DFB01DC0102C0EC
:103A100001900D9241505040D8F70895DC0101C04B
:103A20006D9341505040E0F7089511E0C2EDD1E0B0
:103A300004C0FE010E94BB1B2196C33DD107C9F7FC
:043A4000F894FFCF28
:103A4400010F00F401D00704000401FFFFFFFF0091
:103A5400E10000000000006A036A036A036A036A63
:103A6400030000530480009C01B501CF01EA010763
:103A7400022602470269028E02B502DE020A030030
:103A8400C18081000000000000007E04FD039F044B
:103A94009404E504A304C104000000001D081208F6
:103AA4008D0BE8070B08F807E90700000000F40D88
:103AB4005C0E8D0B8C0B00000000AB0600000000B8
:103AC400900B00000000200E6E616E00696E6600AF
:103AD4006F76660053656E646572206D656C64690B
:103AE4006E67202020000D0A0044697374616E73B0
:103AF40065202000506F7765723A20200044697376
:103B040074616E63652064726F76653B20006B6D33
:023B140020008F
:00000001FF
