:100000000C94D3010C94E2130C94BB130C94941332
:100010000C946D130C94FB010C94FB010C9446138F
:100020000C94FB010C9400160C945B100C94CA10F9
:100030000C94FB010C94FB010C94FB010C94FB0150
:100040000C94FB010C94FB010C94FB010C94FB0140
:100050000C94FB010C94FB010C94FB010C94FC121E
:100060000C94FB010C94FB010C94FB010C94FB0120
:100070000C94FB010C94FB010C94FB010C94FB0110
:100080000C94FB010C94FB010C94FB010C94FB0100
:100090000C944B160C94FB010C94FB010C94FB018B
:1000A0000C94FB010C9409140C94FB01000000005B
:1000B0000000004F00000007000700147F147F14A9
:1000C000242A7F2A122313086462364955225000DD
:1000D00000070000001C2241000041221C001408FF
:1000E0003E081408083E08080050300000080808C0
:1000F0000808006060000020100804023E514945D5
:100100003E00427F400042615149462141454B310A
:100110001814127F1027454545393C4A4949300398
:10012000017109073649494936064949291E0036F1
:100130003600000056360000081422410014141442
:100140001414004122140802015109063249794170
:100150003E7E1111117E7F494949363E414141227F
:100160007F4141413E7F494949417F090909013E9B
:100170004149497A7F0808087F00417F41002040BB
:10018000413F017F081422417F404040407F020CE4
:10019000027F7F0408107F3E4141413E7F090909EB
:1001A000063E4151215E7F09192946464949493198
:1001B00001017F01013F4040403F1F2040201F3F81
:1001C0004038403F63140814630708700807615102
:1001D000494543007F41410002040810200041418D
:1001E0007F0004020102044040404040000102043C
:1001F0000020545454787F484444383844444420C0
:10020000384444487F3854545418087E0901020C7D
:100210005252523E7F0804047800447D4000204042
:10022000443D007F1028440000417F40007C0418BA
:1002300004787C0804047838444444387C1414144A
:1002400008081414187C7C080404084854545420EA
:10025000043F4440203C4040207C1C2040201C3C6B
:100260004038403C44281028440C5050503C4464D2
:10027000544C44000836410000007F000000413625
:1002800008000C02040806081C2A080800030C0FCA
:1002900030333C3FC0C3CCCFF0F3FCFF0000000084
:1002A0002300260029002C002F000000000024005D
:1002B00027002A002D003000000000002500280043
:1002C0002B002E0031000404040404030405020280
:1002D00002020403020202020606060606060404DF
:1002E0000202020404040802011040804010204071
:1002F000804080080204018040201002011080101C
:10030000204040200000000200090F00000304010B
:10031000000C0000000000000000000000000000D1
:10032000000000080B0002020200000904000001A6
:10033000020200000524001001052401010104242B
:100340000206052406000107058103100040090488
:100350000100020A00000007050202400000070534
:1003600083024000000403090412010002EF0201AD
:1003700040FB1F0023000101020301506F6C6F6CF2
:100380007520436F72706F726174696F6E00506F89
:100390006C6F6C7520412D5374617220333255346B
:1003A00000009D17171D11241FBECFEFDAE0DEBF3E
:1003B000CDBF11E0A0E0B1E0E4E3F3E402C00590BA
:1003C0000D92A83CB107D9F724E0A8ECB1E001C038
:1003D0001D92AF38B207E1F711E0C2EDD1E004C0E1
:1003E0002197FE010E942420C13DD107C9F70E9438
:1003F000FC170C948D210C9400005B9887FD5D9A8E
:1004000087FF5D985B9A5B9886FD5D9A86FF5D9895
:100410005B9A5B9885FD5D9A85FF5D985B9A5B981A
:1004200084FD5D9A84FF5D985B9A5B9883FD5D9A7D
:1004300083FF5D985B9A5B9882FD5D9A82FF5D9871
:100440005B9A5B9881FD5D9A81FF5D985B9A5B98F2
:1004500080FD5D9A80FF5D985B9A0895FC01809114
:100460002C03882311F13FB7F89482E08093E900D0
:100470002091F200822F90E01816190614F481E002
:1004800090E0882339F0289844E640932B0340916C
:10049000F1004083222339F02091F200211103C0A2
:1004A0002BE62093E8003FBF08958FEF9FEF08955C
:1004B0002FB7F89483E08093E9009091E800892FAA
:1004C000807295FF04C09091F20080E4891B2FBFD9
:1004D00008958091230381110DC082E080931F0352
:1004E00084E080932003109222031092210381E084
:1004F000809323038FE193E00895CF93DF931F92BE
:10050000CDB7DEB76983DC01ED91FC910280F38108
:10051000E02D41E050E0BE016F5F7F4F09950F90E5
:10052000DF91CF91089583E08093E9008091F200FC
:10053000882319F08AE38093E80008950E94580206
:1005400090E00895CF93DF931F92CDB7DEB7FC0103
:100550008485958597FD08C02FEF3FEF3587248769
:100560000F90DF91CF910895CE0101960E942E0247
:10057000019719F4898190E0F3CF8FEF9FEFF0CFCF
:100580000F931F93CF93DF931F92CDB7DEB78C01EC
:10059000FC018485958597FF0BC0CE0101960E94D2
:1005A0002E02019771F4898190E0F8019587848784
:1005B000F801848595850F90DF91CF911F910F9160
:1005C00008958FEF9FEFF1CFFC018485958597FD0E
:1005D0000BC09FB7F89482E08093E9008091F2000D
:1005E0009FBF90E0019608959FB7F89482E08093B2
:1005F000E9008091F2009FBF90E0089540911903B7
:1006000050911A0320911703309118034217530792
:10061000B4F49091E8009570E1F39091E80092FDB8
:1006200019C08093F1008091190390911A030196EB
:100630008F739927892B19F48EEF8093E8008091AE
:10064000190390911A03019690931A03809319034A
:1006500081E0089580E00895DF92EF92FF920F937A
:100660001F93CF93DF93D82E8A01EB017B01E40E19
:10067000F51ECE15DF0559F0D7FE12C0FE0184919C
:100680000E94FE0221968111F4CF0FEF1FEFC801E7
:10069000DF91CF911F910F91FF90EF90DF90089520
:1006A0008881EECF0F931F93CF93DF931F92CDB727
:1006B000DEB782E0898342E450E063E273E080E8E1
:1006C0000E942C030E946902DC0112960D911C917C
:1006D0000115110589F0D801ED91FC910280F3819B
:1006E000E02DBE016F5F7F4FC801099597FD04C0E3
:1006F000F80100851185ECCF89810F90DF91CF91B2
:100700001F910F910895615030F02091F100FC018C
:1007100020830196F8CF289884E680932B030895D0
:1007200081508F3008F047C0E82FF0E0E656FC4FCC
:100730000C942420B703BB03A903AF03B303DB036B
:10074000DB03DB03BE03C403C803CC03D203DB0318
:10075000D603809180008F778093800008958091E8
:1007600080008F7DF9CF80918000877FF5CF84B5A1
:100770008F7784BD089584B58F7DFBCF80919000E5
:100780008F77809390000895809190008F7DF9CFAE
:1007900080919000877FF5CF8091C0008F77809304
:1007A000C00008958091C0008F7DF9CF8091C20074
:1007B000877F8093C20008951F93CF93DF93282FE4
:1007C00030E0F901EC5FFC4F8491F901EB51FD4FF2
:1007D000D491F901EA53FD4FC491CC23A9F0162F0F
:1007E00081110E949003EC2FF0E0EE0FFF1FE85400
:1007F000FD4FA591B4918FB7F894EC91111108C0F9
:10080000D095DE23DC938FBFDF91CF911F910895A8
:10081000DE2BF8CFCF93DF9390E0FC01EB51FD4F3F
:1008200024918A539D4FFC0184918823C9F090E064
:10083000880F991FFC01E655FD4FA591B491FC016D
:10084000E854FD4FC591D49161110DC09FB7F89444
:100850008C91209582238C938881282328839FBFA5
:10086000DF91CF910895623051F49FB7F8943C9195
:10087000822F809583238C93E8812E2BEFCF8FB727
:10088000F894EC912E2B2C938FBFEACF80917E04AD
:100890008F3F61F061E00E940A0460E080917E0475
:1008A0000E94DC038BE193E00197F1F708958091BA
:1008B0007E048F3F61F061E00E940A0461E0809154
:1008C0007E040E94DC038BE193E00197F1F7089529
:1008D0003FB7F8948091130390911403A0911503EE
:1008E000B091160326B5A89B05C02F3F19F00196BD
:1008F000A11DB11D3FBFBA2FA92F982F8827BC017A
:10090000CD01620F711D811D911D42E0660F771FA1
:10091000881F991F4A95D1F708958F929F92AF92A1
:10092000BF92CF92DF92EF92FF924B015C010E9447
:1009300068046B017C010E9468046C197D098E09B2
:100940009F09683E734081059105A8F321E0821A52
:100950009108A108B10888EEC80E83E0D81EE11CFA
:10096000F11C81149104A104B10429F7FF90EF90C8
:10097000DF90CF90BF90AF909F908F9008958F920F
:100980009F92AF92BF92CF92DF92EF92FF920F931E
:100990001F93CF93DF936C017B018A018091240127
:1009A000882309F45CC080912C03882309F457C084
:1009B00080911E0380FF05C08091E00082608093DB
:1009C000E000E801B12C8AEFA82E93E0892E2AE3FB
:1009D000922E209711F4BB20D9F10E945802811168
:1009E0000AC0AA94AA20D9F161E070E080E090E00A
:1009F0000E948D04EECF8C171D0611F00CF08C2F89
:100A00009FB7F8948092E9002091E80025FD02C08C
:100A10009FBFDFCF282F30E0C21BD30BF7018150DF
:100A200020F041914093F100FACFE20EF31EBB207B
:100A300021F09092E800B12CEBCF8091E80085FD89
:100A4000E7CF9092E800BB24B394209709F3F3CF4B
:100A50005D9884E680931D03101611063CF081E03A
:100A600090E0F6019383828310E000E0C801DF91FB
:100A7000CF911F910F91FF90EF90DF90CF90BF909B
:100A8000AF909F908F9008952FB7F89460910F03C7
:100A90007091100380911103909112032FBF08955C
:100AA000E0918002F0918102309729F010927D024E
:100AB00010927C0209940895CF93DF93AC01E091EA
:100AC0008202F09183023097F1F090917F02809141
:100AD0007E029817C0F090E0292F30E026173707E4
:100AE00054F4D901A852BE4F240F351FE9012881C3
:100AF0002C939F5FF1CF10927F0260937E02CB0117
:100B0000DF91CF910994DF91CF910895089580915D
:100B10007502E0917602F0917702882339F0849192
:100B20009FEB980F9A3120F4805E08958081F8CF72
:100B3000803269F42091760230917702A9014F5FEB
:100B40005F4F5093770240937602232B01F708956D
:100B50001F93CF93DF930E948705D0E0C0E01AE097
:100B600090ED980F9A30B8F41C9F90011D9F300DA6
:100B70001124E901C80FD11D87FDDA95E097809116
:100B80007602909177020196909377028093760295
:100B90000E948705E5CFCE01DF91CF911F91089587
:100BA0003F924F925F926F927F928F929F92AF92FD
:100BB000BF92CF92DF92EF92FF920F931F93CF934A
:100BC000DF937B01D42E2091720221111BC021E002
:100BD00020937202109272001092C00034E03093A1
:100BE000C10039E03093C2002093C30023E020937A
:100BF000BF0028EE2093D1001092BF001092D200C7
:100C0000579A789410920A01CC24C39497FF03C09A
:100C10009F77AAE0CA2EC8E2CC9EC02D1124D0E056
:100C20008C179D0750F021E0EC01C21206C0C131C3
:100C300087E2D80710F0C0E1D7E24E01B12CA12C19
:100C40004C2C512C712C612C9E01AFEFB7E00E940F
:100C50003220640D751D861D971D96958795779595
:100C60006795A30192010E94E31F60E072E18AE7A9
:100C700090E0312C3394621773078407950728F0AE
:100C80009695879577956795F5CFA30192010E9478
:100C90009F1F9E0136952795620F731F811D911D21
:100CA000A50194010E94E31F722E022F132F2AE048
:100CB000C21207C0CE0105966AE070E00E94BB1F19
:100CC000EB01C83E83E0D80759F09701DE010E948E
:100CD000322028EE33E040E050E00E940520790108
:100CE000109272008091C100807F83298093C1009F
:100CF0001093BF007092D1004D2D403108F04FE0AD
:100D000080E190E0841B910902C0169507958A95B1
:100D1000E2F71093BF000093D200F0927402E092C9
:100D2000730289B38FEF89BB84E080937200DF91F7
:100D3000CF911F910F91FF90EF90DF90CF90BF90D8
:100D4000AF909F908F907F906F905F904F903F906B
:100D500008952E98269A2D98259A2A98229A2998AD
:100D6000219A80EA8093800081E18093810080E96C
:100D700091E09093870080938600109289001092F2
:100D8000880010928B0010928A0008950F931F9391
:100D9000CF93DF938C01EB0180916E02811105C02E
:100DA00081E080936E020E94A90680E017FF04C0D4
:100DB00011950195110981E0013991E0190714F0AD
:100DC00000E911E010938B0000938A00882329F139
:100DD0002A9A229A80916E02811105C081E0809347
:100DE0006E020E94A90680E0D7FF04C0D195C1958C
:100DF000D10981E0C13991E0D90714F0C0E9D1E00F
:100E0000D0938900C0938800882349F0299A219AB9
:100E1000DF91CF911F910F9108952A98DACF2998E9
:100E2000F6CF9FB191708CB186FB882780F9892716
:100E300020916A02309169024091870250918802A4
:100E400028273927231B330B240F351F30938802A3
:100E5000209387023091690220916A02381729F0A5
:100E6000291719F021E0209368028093690290937A
:100E70006A02089524982C9A6A98729A6E98769AC3
:100E80008098889A81E08093680090E190936B004D
:100E90008BBB81E197E09093140180931301EAE604
:100EA000F0E080818F7C80618083EE9A8CB182FB40
:100EB000882780F980936D0293B180916D0292959D
:100EC0009170892780936C0210928502109284029F
:100ED00010926B028FB1817080936A029CB18091F5
:100EE0006A0296FB992790F98927809369021092EC
:100EF0008802109287021092680208955F926F92A2
:100F00007F928F929F92AF92BF92CF92DF92EF9299
:100F1000FF920F931F93CF93DF93FC0122853385BC
:100F2000232B09F492C06B01EC0110E08C8518179B
:100F3000E8F4E12EF12C8E859F85F701EE0FFF1F5F
:100F4000EC0DFD1D91838083EA85FB85EE0DFF1D71
:100F500061E080810E94DC03EA85FB85EE0DFF1DC8
:100F600061E080810E940A041F5FE0CF83E290E08D
:100F70000197F1F710E08C851817A0F4E12EF12C01
:100F8000EA85FB85EE0DFF1D60E080810E940A046A
:100F9000EA85FB85EE0DFF1D60E080810E94DC0389
:100FA0001F5FE9CF0E9468044B015C010E94680446
:100FB000AB01BC01481959096A097B098E859F85D7
:100FC000B0E0A0E0481759076A077B0708F03DC06A
:100FD0000E9468047B01E818F908612C8C8568166A
:100FE00028F7062D10E0EA85FB85E00FF11F208130
:100FF00030E0F901EC5FFC4F8491F901EB51FD4FBA
:101000007490F901EA53FD4F549051100CC0000F39
:10101000111FF601E00FF11F80819181E816F9069A
:1010200088F06394DBCF81110E949003E52DF0E0FE
:10103000EE0FFF1FE456FD4FA591B491EC917E2277
:1010400031F3EFCFF182E082ECCFDF91CF911F91AE
:101050000F91FF90EF90DF90CF90BF90AF909F9057
:101060008F907F906F905F90089520911E02260FC1
:101070003327331F21323105ECF420914202FC0169
:1010800090E080E0243069F082E00895A0911E0293
:101090002191AC0142505E4FA40FB52FB11D2C938E
:1010A0000196861798F380911E02680F60931E02C6
:1010B00080E0089581E008951092420281E08093DB
:1010C00044021092430261E082E00E94DC0361E08E
:1010D00083E00E94DC03E9EBF0E080818E7F808377
:1010E00080818D7F808388E48093B80085E480933D
:1010F000BC0008950895E0917F0280917E02E81778
:1011000030F4F0E0E852FE4F808190E008958FEFD8
:101110009FEF089590917F0280917E022FEF3FEF25
:10112000981748F4E92FF0E0E852FE4F208130E0B4
:101130009F5F90937F02C901089580917E029091F4
:101140007F02891B990B0895CF93DF93CB01EA01AE
:10115000642F0E943508CE01DF91CF910895CF937F
:10116000DF931F92CDB7DEB7698361E0CE010196B0
:101170000E94350881E090E00F90DF91CF910895B3
:10118000289A209A08952898209A08955F926F923D
:101190007F928F929F92AF92BF92CF92DF92EF9207
:1011A000FF920F931F93CF93DF935C01D62FC42F31
:1011B000F22E132F0E94C3088D2F806B0E94FD0119
:1011C0008C2F82958F7080610E94FD018C2F8F7013
:1011D0000E94FD010E94C008CF2DD12F0C0F1D2FA2
:1011E000111D95E0692EC017D10709F444C079900C
:1011F000872D8052990B9C01629EC001639E900DC9
:101200001124769C40011124F12CE12C9C012455E1
:101210003F4F69013FE1371508F5F601EE0DFF1D5F
:10122000E491F0E084E0F595E7958A95E1F7E457DD
:10123000FD4F5490852D0E94FD01852D0E94FD01DA
:101240009FEFE91AF90A25E0E216F10419F780E0A8
:101250000E94FD0180E00E94FD01C5CF87E0E0E033
:101260008715F8F2F401EE0DFF1DE254FF4FEA0D71
:10127000FB1DE081D6CFDF91CF911F910F91FF90A1
:10128000EF90DF90CF90BF90AF909F908F907F9026
:101290006F905F9008955F926F927F928F929F926E
:1012A000AF92BF92CF92DF92EF92FF920F931F9374
:1012B000CF93DF935C01D62FC42FF22E132F0E9401
:1012C000C3088D2F806B0E94FD018C2F82958F703B
:1012D00080610E94FD018C2F8F700E94FD010E9491
:1012E000C008CF2DD12F0C0F1D2F111D85E0682EAA
:1012F000C017D10709F440C07990872D8052990B0F
:101300009C01629EC001639E900D1124769C400159
:101310001124F12CE12C9C0124553F4F69013FE140
:101320003715E8F4F601EE0DFF1DE491EF70F0E0E3
:10133000E457FD4F5490852D0E94FD01852D0E949C
:10134000FD019FEFE91AF90A25E0E216F10439F7E9
:1013500080E00E94FD0180E00E94FD01C9CF87E08E
:10136000E0E0871518F3F401EE0DFF1DE254FF4F86
:10137000EA0DFB1DE081DACFDF91CF911F910F9134
:10138000FF90EF90DF90CF90BF90AF909F908F90A5
:101390007F906F905F9008956F927F928F929F924F
:1013A000AF92BF92CF92DF92EF92FF920F931F9373
:1013B000CF93DF935C01D62FC42FF22E132F0E9400
:1013C000C3088D2F806B0E94FD018C2F82958F703A
:1013D00080610E94FD018C2F8F700E94FD010E9490
:1013E000C008CF2DD12F0C0F1D2F111D85E0682EA9
:1013F000C017D107A9F17990872D8052990B9C01D4
:10140000629EC001639E900D1124769C40011124C0
:10141000F12CE12C9C0124553F4F69013FE1371528
:1014200088F4F601EE0DFF1D84910E94FD019FEFEF
:10143000E91AF90A25E0E216F10481F780E00E943A
:10144000FD01D6CF87E0871548F0F701E80DF91DBB
:10145000E254FF4FEA0DFB1D8081E7CF80E0E5CF2E
:10146000DF91CF911F910F91FF90EF90DF90CF9080
:10147000BF90AF909F908F907F906F900895282F8E
:1014800021FB0EF0209820FB0EF028980EF4289AED
:1014900021FB0EF4209A089580918B028823F1F0AD
:1014A0002DEC3CEC4CE45EE360910A0370910B037D
:1014B00080910C0390910D030E942D1F0E94401EED
:1014C0008DE793E00E94AF0810920A0310920B037D
:1014D00010920C0310920D0310928B0208958091CC
:1014E0007E0290917F02891B990B18161906FCF455
:1014F0008DE793E00E948A0890918A02E92FF0E03C
:10150000EE0FFF1FE856FD4F482F4053550B5183F8
:1015100040839F5F90938A02809100018823F9F2B3
:10152000809198028093080310920001D8CF08950B
:10153000CF93DF93EC01288121FB0EF0559820FB1F
:101540000EF05D980EF45D9A21FB0EF4559A898198
:101550000E943F0AE9EEF0E010828C818093F00057
:101560008B8180838A818093E200DF91CF910895FF
:10157000FC01A2EEB0E08C9182831C92A9EEB0E057
:101580008C9183831C92A0EFB0E08C9184831C9299
:1015900020E05D99216055992260208320E0289900
:1015A00021602099226021835D98559A0895CF92F9
:1015B000DF92EF92FF920F93CF93DF93EC017C01C8
:1015C00084E0E80EF11CC7010E94B80A6E0184E1B4
:1015D000C80ED11C08E0960143E162E0CE010E94F2
:1015E0004B09960143E163E0CE010E94C6086E01FB
:1015F00089E2C80ED11C960143E165E0CE010E944C
:101600004B09960143E166E0CE010E94C608C7017E
:10161000DF91CF910F91FF90EF90DF90CF900C94DE
:10162000980AEF92FF920F93CF93DF93EC017C0126
:1016300084E0E80EF11CC7010E94B80A9E012C5EEE
:101640003F4F05E142E060E0CE010E94CC099E01DF
:10165000275D3F4F42E061E0CE010E94CC099E0130
:10166000225C3F4F42E062E0CE010E94CC099E0125
:101670002D5A3F4F42E063E0CE010E94CC099E010B
:1016800028593F4F42E064E0CE010E94CC099E0100
:1016900023583F4F42E065E0CE010E94CC099E01F5
:1016A0002E563F4F42E066E0CE010E94CC099E01DB
:1016B00029553F4F42E067E0CE010E94CC09C701A7
:1016C000DF91CF910F91FF90EF900C94980AEF92D9
:1016D000FF920F931F93CF93DF938C017C0184E0E3
:1016E000E80EF11CC7010E94B80A0E94C30882E0FC
:1016F0000E94FD01C0E00E94C3088C2F806B0E94F5
:10170000FD0180E10E94FD010E94C008D0E080E060
:101710000E94FD01DF5FD038D1F7CF5FC83059F7A5
:10172000C7010E94980AF8011286DF91CF911F919C
:101730000F91FF90EF900895AF92BF92CF92DF92FA
:10174000EF92FF920F931F93CF93DF937C01122FA1
:10175000683008F043C0423008F040C088E0861B83
:101760008217D0F12223D1F1C42FCC0FC40FDCE0BB
:101770006D9FD02D1124DD5E670124E1C20ED11CC6
:10178000862F90E025E1429F800D911D1124C80E07
:10179000D91E570184E0A80EB11CC5010E94B80AE9
:1017A00062E06C0F012F96014D2FC7010E944B097B
:1017B00063E06C0F96014D2FC7010E94C608C5015A
:1017C000DF91CF911F910F91FF90EF90DF90CF901D
:1017D000BF90AF900C94980A182FC6CFDF91CF918D
:1017E0001F910F91FF90EF90DF90CF90BF90AF903F
:1017F0000895BF92CF92DF92EF92FF920F931F93C3
:10180000CF93DF93EC01162FB42E022F653198F59C
:1018100027E0241780F185E1861B801750F1002313
:1018200051F1CE014496E12EF12C25E1B29EE00C5F
:10183000F11C1124E80EF91E6E0184E0C80ED11CC3
:10184000C6010E94B80A412F440F410F440F4E5F5A
:1018500097016B2DCE010E94CC09C601DF91CF917B
:101860001F910F91FF90EF90DF90CF90BF900C945D
:10187000980A082FD6CFDF91CF911F910F91FF903B
:10188000EF90DF90CF90BF900895089590E080E0B2
:101890000895CF92DF92EF92FF920F931F93CF9311
:1018A000DF932091730430917404232B09F44DC00D
:1018B0002091750430917604232B09F446C08C01E5
:1018C0000E945704B80181E794E00E947E070E94BD
:1018D0004604E801C0907504D0907604E09073044B
:1018E000F090740410E000E080917D0480171106F0
:1018F00061F15CF1D601ED91FD916D01D7018D9102
:101900009D917D01E81BF90BC9F02881398150E0D8
:1019100040E0281B390B41095109A8EEB3E00E94B1
:1019200048209F0150E040E00E940520293EB3E09E
:101930003B0714F028EE33E037FF02C030E020E030
:10194000299339930F5F1F4FCFCFDF91CF911F9115
:101950000F91FF90EF90DF90CF9008954F925F929C
:101960006F927F928F929F92AF92BF92CF92DF92AF
:10197000EF92FF920F931F93CF93DF938091170104
:10198000882309F4DBC08EEC91E00E94490CE091C1
:101990007D040EEC11E0B12CA12C50E040E0C12CF4
:1019A000D12C7601912CF0E0EF17E9F0D801CD9120
:1019B000DD918D01C93CD1059CF4C333D10554F0B0
:1019C0009501DE010E942A20C60ED71EE81EF91ED0
:1019D0004C0F5D1FFF5FB8E1AB1ABCEFBB0AE4CF51
:1019E00099249394EDCF911099C0E150FF0B44EFEF
:1019F00051E0E49FC001E59F900DF49F900D1124EC
:101A00004091810450918204481759070CF493C007
:101A100048EE53E0E49FC001E59F900DF49F900DC8
:101A20001124805D974065E070E00E94CF1FEB01BC
:101A3000072E000C880B990B0E94781E6B017C010D
:101A40002091CA013091CB014091CC015091CD0140
:101A50000E945D1D4B015C018092CA019092CB01F6
:101A6000A092CC01B092CD018091C8019091C901A2
:101A7000BE01681B790B072E000C880B990B0E9486
:101A8000781E2B013C01D093C901C093C80127E106
:101A900037EB41ED58E3C501B4010E942D1FA701AA
:101AA00096010E945D1D6B017C0120E030E040E862
:101AB00050E4C301B2010E942D1F9B01AC01C7017C
:101AC000B6010E945D1D6B017C01AC019B0160E0D1
:101AD00070E088E493E40E945C1D0E94401E4B016C
:101AE00020E030E048E453E4C701B6010E945D1DE8
:101AF0000E94401ECB01B401DF91CF911F910F9145
:101B0000FF90EF90DF90CF90BF90AF909F908F901D
:101B10007F906F905F904F900C94C6069A0150E0B2
:101B200040E0C701B6010E94E31FC901309382045F
:101B30002093810476CF90E080E073CFDF91CF9146
:101B40001F910F91FF90EF90DF90CF90BF90AF90DB
:101B50009F908F907F906F905F904F9008950E941C
:101B60007821CF93DF9385ED8093BC008091FA01BB
:101B70009091FB01A091FC01B091FD010796A11D80
:101B8000B11D23E0B695A795979587952A95D1F72E
:101B90002091BC0024FD03C01092420236C0409147
:101BA000FA015091FB016091FC017091FD01452B00
:101BB000462B472B69F30097A105B10541F02AE2B6
:101BC0002A95F1F700C00197A109B109E1CF8091F1
:101BD000F90191E09093F8018823B9F0C091B80021
:101BE000D091BA008091BC008A7B8093BC0060E0F9
:101BF00082E00E94DC0360E083E00E94DC030E943C
:101C00005C08D093BA00C093B800DF91CF910895DB
:101C10000F931F93CF93DF93EC015B98539A5A98DD
:101C2000529A85E38A95F1F700005A9A529A85E311
:101C30008A95F1F70000CE010E94670B8E010C5FC0
:101C40001F4FC8010E94B80A0E94C30881EA0E947F
:101C5000FD0188EC0E94FD0181E80E94FD018FEFEB
:101C60000E94FD018FEA0E94FD01C8010E94980AAE
:101C700081E08987DF91CF911F910F910895FF92A5
:101C80000F931F93CF93DF93EC01162F042FF22EA7
:101C90008985811103C0CE010E94080E8A858823A0
:101CA00019F0CE010E94670B2A893B89C9019595DD
:101CB00087958C0F9D1FE889F98920FF08C0DC01FA
:101CC0002D913C91E20FF31F0190F081E02D2F2D1B
:101CD000402F612FDF91CF911F910F91FF900994B9
:101CE000CF93DF93DC01A354BF4F2C91283008F52C
:101CF000EC01C454DF4FE881E531D8F4AC0175E163
:101D0000279F400D511D1124E40FF52FF11D648B09
:101D1000FC012385211105C021E04C9168810E94BE
:101D20003F0E88818F5F888381E090E0DF91CF91C3
:101D3000089590E080E0FACFAF92BF92CF92DF9209
:101D4000EF92FF920F931F93CF93DF9382EEE82ED3
:101D5000F12CF70100811082C9EED0E0B880188222
:101D600090EFC92ED12CF601A080108220E0289996
:101D7000216020992260822F2098289A90E19A95DC
:101D8000F1F713B10E943F0A1882F601A082B882CF
:101D9000F7010083812F80958170DF91CF911F9192
:101DA0000F91FF90EF90DF90CF90BF90AF9008958C
:101DB000BF92CF92DF92EF92FF920F931F93CF9338
:101DC000DF938C01EA016C012DEBC20ED11CF601F0
:101DD00030813830D8F57C01FCEBEF0EF11CF701B7
:101DE0008081853198F525E1281B90E024171506A0
:101DF00020F4C5E1D0E0C81BD90BF5E13F9F800D71
:101E0000911D1124AE0198012C5E3F4F820F931F4C
:101E10000E947D21BC2EF8018385811108C02C2FE2
:101E2000F6014081F7016081C8010E943F0EF70171
:101E300080818B0D8083CE01DF91CF911F910F9117
:101E4000FF90EF90DF90CF90BF900895D0E0C0E07A
:101E5000F2CFFC0101900020E9F73197AF01481B58
:101E6000590BBC0189E893E00C94D80E8F929F9295
:101E7000AF92BF920F931F93CF93DF93CDB7DEB78F
:101E8000A1970FB6F894DEBF0FBECDBF19A24230A6
:101E900008F44AE08E010F5D1F4F842E912CB12C67
:101EA000A12CA50194010E94E31FE62FB901CA01EC
:101EB000EA30F4F4E05DD801EE938D01232B242B5E
:101EC000252B79F790E080E0109719F0CD010E9462
:101ED000290FA1960FB6F894DEBF0FBECDBFDF91DC
:101EE000CF911F910F91BF90AF909F908F900895C9
:101EF000E95CE1CF8F929F92AF92BF92CF92DF9237
:101F0000EF92FF92109245041092460481E991E00D
:101F10000E94290F1092450481E08093460460914D
:101F2000090370E090E080E04AE00E94360F1092D2
:101F3000450483E0809346048AE991E00E94290FDA
:101F40008BEA91E00E94290F1092450484E080936F
:101F50004604C0900A03D0900B03E0900C03F0906D
:101F60000D03A7019601C701B6010E949A1F88239D
:101F700081F08EEA91E00E94290F8AEB91E0FF90B8
:101F8000EF90DF90CF90BF90AF909F908F900C9488
:101F9000290F46015701E894B7F82FEF3FEF4FE7BD
:101FA0005FE7C501B4010E949A1F81110DC02FEF98
:101FB0003FEF4FE75FE7C501B4010E94C91D181646
:101FC0001CF482EB91E0D7CF2FEF3FEF4FE75FE4B8
:101FD000C701B6010E94281F18161CF486EB91E079
:101FE000CACF2FEF3FEF4FE75FECC701B6010E946A
:101FF000C91D87FDF3CF20E030E0A901C701B6017C
:102000000E94C91D87FF09C06DE289E893E00E9424
:10201000700EF7FAF094F7F8F0942AE037ED43EAFF
:102020005BE3C701B6010E945D1D4B015C010E948C
:10203000471E6B017C010E94761E9B01AC01C5010D
:10204000B4010E945C1D4B015C014AE0C701B6016E
:102050000E94360F6EE289E893E00E94700E20E045
:1020600030E040E251E4C501B4010E942D1F4B0154
:102070005C010E94471E6B01F12CE12C4AE0C70174
:10208000B6010E94360FC701B6010E94761E9B0161
:10209000AC01C501B4010E945C1D20E030E040E2CB
:1020A00051E40E942D1F0E94471E90E080E04AE00C
:1020B0000E94360F62CF1F920F920FB60F9211241B
:1020C0008F939F938091E1009091E100937F909393
:1020D000E10083FF0FC01092E90091E09093EB00C4
:1020E0001092EC0092E39093ED0010922C0398E094
:1020F0009093F00082FF22C093E09093E9009091CA
:10210000F200992319F09AE39093E80090911D034F
:10211000992341F090911D03915090931D039111CB
:1021200001C05D9A90912B03992341F090912B036C
:10213000915090932B03911101C0289A84FF18C0ED
:102140008091E2008E7E81608093E2008091E100C8
:102150008F7E8093E10080911E038E7E806180934C
:102160001E039F918F910F900FBE0F901F90189597
:1021700080FFF7CF8091E2008E7E80618093E20045
:102180008091E1008E7E8093E10080911E038E7E1F
:102190008160E5CF1F920F920FB60F921124CF925C
:1021A000DF92EF92FF920F931F932F933F934F93E2
:1021B0005F936F937F938F939F93AF93BF93EF93AF
:1021C000FF93CF93DF93CDB7DEB76C97DEBFCDBF64
:1021D0001092E9008091E80083FF25C068E0CE01FD
:1021E00045960E94830382EF8093E8008D8987FFE4
:1021F00039C09091E80090FFFCCF982F907609F0BD
:1022000034C19E894F89588D2F89F88C911131C026
:10221000803861F580911C038093F1001092F100E9
:102220008EEF8093E8006C960FB6F894DEBF0FBE79
:10223000CDBFDF91CF91FF91EF91BF91AF919F9172
:102240008F917F916F915F914F913F912F911F914E
:102250000F91FF90EF90DF90CF900F900FBE0F90F7
:102260001F9018959EEF9093E800C7CF1092F10051
:10227000D5CF913059F48111D3CF4130510581F63A
:1022800080911C038D7F80931C03CACF933049F447
:102290008111C6CF4130510519F680911C0382602F
:1022A000F2CF953041F48091E80080FFFCCF2068A8
:1022B0002093E300B5CF963009F0A9C00B8D1C8D9B
:1022C00022E01092E90010921A0310921903F21200
:1022D0002EC010921803109217030E9452031F82FF
:1022E00099E09983FA8291E09E8390EA98879AEF29
:1022F00099872091190330911A03275F3F4F3C8340
:102300002B838D831092E90010921A031092190307
:10231000109318030093170349E050E0BE016F5F6C
:102320007F4F80E00E942C030E94520379CF1093CC
:102330001803009317030E946902DC0112960D91A5
:102340001C910115110509F451C1D801ED91FC91C1
:102350000480F581E02DBE016B5E7F4FC8010995B9
:10236000009709F03EC1F80100851185EACFF3E03E
:10237000FF120EC08F89882309F440C0823061F4B7
:1023800040E862E18EE893E00E946A17811148CF2D
:1023900081E28093EB0047CF813029F440E862E18D
:1023A0008BE793E0F1CF833099F70E946902DC015B
:1023B0001296ED90FC908E010F5F1F4F6801E114A3
:1023C000F10479F0D701ED91FC910680F781E02DC1
:1023D000B801C7010995080F111DF701E084F184C8
:1023E000EECFD8011C92F60101900020E9F7319759
:1023F000BF016C197D0940E0C601C6CF65E673E0F8
:10240000FB01449150E080E80E942C0309CF9730F3
:1024100009F4BECF983021F481E08093F10000CF21
:10242000993009F0FDCE837009F0B2CFE9E4F1E014
:1024300081E031E096E32191222371F08093E9005D
:102440003093EB00DF0111972C912093EC009093D7
:10245000ED008F5F873079F78EE78093EA00109266
:10246000EA008F8980932C03DBCE8B8D9C8D10929C
:10247000E90010921A0310921903909318038093A5
:102480001703898D811192C08E899D89913A49F4F3
:10249000813209F07DCF47E050E06DE171E080E0EE
:1024A000B3CF913209F074CF833269F48F89988D5C
:1024B000B0E0A0E08093190190931A01A0931B0152
:1024C000B0931C01ADCE803269F48091E80082FFA8
:1024D000FCCF67E08DE191E00E9483038BEF809356
:1024E000E8009ECE823209F09BCE8F898093240132
:1024F000EEEFFFE7859194918B3F9C4D51F1E0E029
:10250000F8E080911D0190911E01A0911F01B091F2
:102510002001803B9440A105B105F1F48091240194
:1025200080FD1AC0EE3F8AE0F80789F587E797E754
:10253000918380838091600080931B0388E19BE0FE
:102540000FB6F894A895809360000FBE909360003A
:1025500067CEEEEFFAE0D5CF80819181873797473C
:1025600009F05ECEA895809160008861809360003C
:1025700080911B0380936000EE3F2AE0F20789F010
:102580008091FE0A9091FF0A9183808349CE8081D9
:1025900091818737980751F29093FF0A8093FE0A42
:1025A000C5CF1092FF0A1092FE0A3ACE0E9469022D
:1025B000DC0112960D911C910115110509F4E8CE6C
:1025C000D801ED91FC910190F081E02DBE016B5E90
:1025D0007F4FC8010995811123CEF801008511852F
:1025E000EBCF181619060CF41BCED2CEF1E0FF1279
:1025F000BECE69E673E004CF1F920F920FB60F9222
:1026000011242F933F938F939F93AF93BF93809108
:102610000F0390911003A0911103B0911203309118
:102620000E0323E0230F2D3758F50196A11DB11D90
:1026300020930E0380930F0390931003A093110334
:10264000B09312038091130390911403A09115038A
:10265000B09116030196A11DB11D809313039093B1
:102660001403A0931503B0931603BF91AF919F91EC
:102670008F913F912F910F900FBE0F901F90189543
:1026800026E8230F0296A11DB11DD2CF1F920F92F3
:102690000FB60F9211242F933F934F935F936F9335
:1026A0007F938F939F93AF93BF93EF93FF93E091AB
:1026B0001301F09114010995FF91EF91BF91AF9132
:1026C0009F918F917F916F915F914F913F912F914A
:1026D0000F900FBE0F901F9018951F920F920FB67C
:1026E0000F9211242F933F934F935F936F937F9398
:1026F0008F939F93AF93BF93EF93FF93E09111015B
:10270000F09112010995FF91EF91BF91AF919F91C7
:102710008F917F916F915F914F913F912F910F908A
:102720000FBE0F901F9018951F920F920FB60F9229
:1027300011242F933F934F935F936F937F938F93C6
:102740009F93AF93BF93EF93FF93E0910F01F091AD
:1027500010010995FF91EF91BF91AF919F918F91DA
:102760007F916F915F914F913F912F910F900FBE8D
:102770000F901F9018951F920F920FB60F92112471
:102780002F933F934F935F936F937F938F939F9379
:10279000AF93BF93EF93FF93E0910D01F0910E0182
:1027A0000995FF91EF91BF91AF919F918F917F918B
:1027B0006F915F914F913F912F910F900FBE0F90AE
:1027C0001F9018951F920F920FB60F9211242F93FE
:1027D0003F934F935F936F937F938F939F93AF93A9
:1027E000BF93EF93FF93E0910B01F0910C010995DA
:1027F000FF91EF91BF91AF919F918F917F916F91D9
:102800005F914F913F912F910F900FBE0F901F90AE
:1028100018951F920F920FB60F9211244F925F924C
:102820006F927F928F929F92AF92BF92CF92DF92E0
:10283000EF92FF920F931F932F933F934F935F93CA
:102840006F937F938F939F93AF93BF93CF93DF93B8
:10285000EF93FF93C0917302D0917402CE01019760
:1028600090937402809373022097A1F510927200E6
:1028700078948091C100807F84608093C10083E060
:102880008093BF0088EE8093D1001092BF00109219
:10289000D20081E080930A018091760290917702C4
:1028A000892BC1F080917102811114C070900901CF
:1028B00080917002882379F180916F02882359F109
:1028C00060916F0270E040E088EE93E00E94D005D6
:1028D00010926F02FF91EF91DF91CF91BF91AF9175
:1028E0009F918F917F916F915F914F913F912F9128
:1028F0001F910F91FF90EF90DF90CF90BF90AF901E
:102900009F908F907F906F905F904F900F900FBE31
:102910000F901F9018955524539470ECA72E7DE5C9
:10292000B72EEAE04E2EF4E06F2EA0EDCA2EA7E0FF
:10293000DA2EB4E0EB2EF12C04EF11E08FE0882EBC
:10294000912C0E94870520917602309177022F5FAB
:102950003F4F3093770220937602853609F473C097
:102960000CF047C0813609F4B4C024F58C3309F467
:1029700068C08E3309F463C0813209F043C06092AD
:102980000901D0920601C0920501F0920801E0927F
:1029900007011093040100930301909202018092B9
:1029A00001011092700270900901809103019091D1
:1029B0000401C7CF833609F48FC010E00BE08436E2
:1029C00014F010E002E04CE0749E000D11240E940F
:1029D0008705982F977F933209F080C08091760207
:1029E00090917702019690937702809376020F5F21
:1029F000EECF8D3609F445C054F4873651F134F1E9
:102A00008C3651F1109277021092760263CF8237A2
:102A100009F44CC044F48F36A9F70E94A805782E1B
:102A2000809309018ECF843709F443C0863751F76C
:102A30000E94A805909302018093010182CF7394B4
:102A400080CF7A947ECF10E004E0BDCF10E005E0A7
:102A5000BACF10E007E0B7CF0E94A8059093080115
:102A60008093070180910501909106016091070113
:102A7000709108010E94BB1F7093040160930301D1
:102A800060CF0E9487058C3661F4109270028091AD
:102A90007602909177020196909377028093760266
:102AA00050CF5092700210926F02F1CF11E000E00F
:102AB0008ACF0E94A805BC01C5010E94BB1F469E8B
:102AC000C001479E900D112490930601809305014B
:102AD000C9CF10E009E077CF10E0E9CF8D3269F47B
:102AE000809176029091770201969093770280937D
:102AF000760201500E948705F1CFE0900301F0902B
:102B000004018153883058F4E0900501F0900601EB
:102B10000E94A805BC01C7010E94BB1F7B01670181
:102B2000D694C7940E9487058E3261F48091760214
:102B30009091770201969093770280937602EC0C45
:102B4000FD1CEECF80917002882349F0C701969555
:102B5000879580936F0280916F02E81AF108C09008
:102B60000101D0900201111104C00F3F11F0C110FA
:102B700007C040E0B70188EE93E00E94D005AACEDE
:102B8000013128F010EF100F103608F01FE5812FEB
:102B90006CE00E94AF1F582F44EF450390011124B1
:102BA000210F311D2C30310538F4220F331FF9016C
:102BB000E05DFE4FC081D1818730C1F0082E02C098
:102BC000CC0FDD1F0A94E2F7823040F0CE0105966B
:102BD0006AE070E00E94BB1FCB0102C0CE0190589A
:102BE0004C2D403108F04FE0B701C7CFCE0126E0B1
:102BF000880F991F2A95E1F7029665E070E0EACF09
:102C00001F920F920FB60F9211242F933F934F9361
:102C10006F937F938F939F938CB1282F30E03595DE
:102C2000279535952795422F417083B190E064E058
:102C3000959587956A95E1F78227817020916D02BD
:102C400090916C02609184027091850228279427EC
:102C5000291B330B260F371F3093850220938402E4
:102C600020916C0290916D02281729F0941719F0A9
:102C700091E090936B0280936C0240936D029F9160
:102C80008F917F916F914F913F912F910F900FBE38
:102C90000F901F9018951F920F920FB60F9211244C
:102CA0002F933F934F935F936F937F938F939F9354
:102CB000AF93BF93EF93FF938091B900887F8036E5
:102CC00009F44AC0F0F5883209F4A7C018F580313C
:102CD00009F49BC0B8F4882309F4F9C0883009F4DA
:102CE00094C0FF91EF91BF91AF919F918F917F9190
:102CF0006F915F914F913F912F910F900FBE0F9069
:102D00001F901895883109F488C0803251F780935C
:102D1000410214C0803409F49DC040F48033B9F3FB
:102D20008833F9F68093410285ECB0C0803509F410
:102D300085C0883509F496C0883499F60E94B10D93
:102D4000D0CF883909F48CC038F5883729F050F491
:102D5000883611F0803729F683E080934202109282
:102D6000400257C0883809F47BC0803919F0803898
:102D700009F0B7CF80914002803208F071C0E09135
:102D8000400281E08E0F809340028091BB00F0E012
:102D9000E05EFD4F80833DC0803B39F0E0F4803A37
:102DA00009F479C0883A09F09CCF84E0809342020C
:102DB00010921F0210921E02E0917A02F0917B02A3
:102DC000099580911E0281110FC081E080931E023F
:102DD0001092FE0109C0803C09F4A6CF883C09F49A
:102DE000A3CF883B09F07DCFE0911F0281E08E0FD9
:102DF00080931F02F0E0E250FE4F80818093BB0081
:102E000090911F0280911E0229C0809167028093D9
:102E1000BB0085EC8093BC0064CF909166028091EA
:102E20006502981758F5E091660281E08E0F809355
:102E30006602F0E0EB5BFD4F8081E9CFE091660236
:102E400081E08E0F809366028091BB00F0E0EB5B27
:102E5000FD4F808390916602809165029817C8F2B9
:102E600085E8D8CFE091660281E08E0F80936602FC
:102E70008091BB00F0E0EB5BFD4F808380914402CA
:102E800081115CCF81E08093430284EA8093BC008F
:102E90001092420226CF85EC8093BC001092420231
:102EA00080914002803230F4E0914002F0E0E05E38
:102EB000FD4F10826091400270E0E0917802F09145
:102EC000790280E292E00995109240020ACF1092B6
:102ED000410234CFEF92FF920F931F93CF93DF9372
:102EE000F82E192FE62E042F81E0860F880F0E94FE
:102EF000FE0283E00E94FE02CF2DD12FEC0EFD2EAC
:102F0000F11CCE15DF05B9F007FF13C0FE01849157
:102F10000E94FE02182F80E00E94FE02812321966B
:102F20008111EFCFDF91CF911F910F91FF90EF9023
:102F300008958881EDCF81E0F5CFCF93DF93EDE267
:102F4000F3E01382128288EE93E0A0E0B0E0848385
:102F50009583A683B78323E531E0318320832FEF68
:102F60003FEF35872487EDE7F3E0138212828483F5
:102F70009583A683B78385E691E091838083E3E818
:102F8000F4E0128215828FE891E091838083E1E77B
:102F9000F4E013821282158214821782168211863F
:102FA00010861386128683E891E091838083C9E8B6
:102FB000D3E01B821A8248EA50E060E270E08DE9BB
:102FC00093E00E9486211092700410926F0487EDA6
:102FD0009AE09D878C871F861E868CE99BE0998BE3
:102FE000888B1B8A1A8A81E08A8787E791E0998318
:102FF0008883DF91CF910895CF93DF93CDB7DEB76C
:10300000C056D1090FB6F894DEBF0FBECDBF78947D
:1030100084B5826084BD84B5816084BD85B58260DD
:1030200085BD85B5816085BD80916E00816080938E
:103030006E001092810080918100826080938100F7
:103040008091810081608093810080918000816007
:1030500080938000809191008260809391008091A4
:1030600091008160809391008091900081608093B5
:1030700090008091C10084608093C1008091C10064
:1030800082608093C1008091C10081608093C10003
:103090008091C30081608093C3008091C0008260F2
:1030A0008093C0008091C20081608093C2008091B3
:1030B0007A00846080937A0080917A0082608093A5
:1030C0007A0080917A00816080937A0080917A0002
:1030D000806880937A0010922C0310921C03109247
:1030E0001E038091D70081608093D70080EA80938F
:1030F000D80089B5806189BD89B5826089BD09B470
:1031000000FEFDCF61E070E080E090E00E948D0461
:103110008091D8008F7C80618093D8008091E000FE
:10312000807F8093E0008091E1008E7E8093E100BB
:103130008DE08093E200559A209A10927F021092BF
:103140007E0210927D0210927C020E945C0880E553
:1031500095E090937B0280937A028CE595E09093C2
:1031600079028093780282E08093BA008CE49AE03E
:1031700090938102809380028FE69AE0909383027D
:10318000809382021092700410926F0481E19BE0A0
:10319000909396038093950310929803109297034F
:1031A00089EF9BE090939A038093990310929C037C
:1031B00010929B0381E08093930381E090E00E9452
:1031C000461D682F70E090E080E00E94761E6093BC
:1031D0000A0370930B0380930C0390930D0385E017
:1031E000EBE2F1E0DE01119601900D928A95E1F794
:1031F0001092740410927304109276041092750465
:10320000109278041092770410927A041092790444
:10321000109282041092810485E080937D04809155
:103220007B0490917C04892BC1F080E090917D0417
:10323000891708F05FC0282F30E0E1E0F0E0EC0FE4
:10324000FD1FE20FF31F9081E0917B04F0917C045D
:10325000E20FF31F90838F5FE9CF85E090E00E943B
:10326000532090937C0480937B04892BF1F680EDAE
:1032700097E09093800480937F0483E894E00E9419
:103280009C0E8823D1F36AE070E080E090E00E9419
:103290008D0483E894E00E949C0E882371F36CE90E
:1032A0007FEF84E690E00E94C6060E9444056B0111
:1032B0007C018091750490917604892BF9F48091BA
:1032C0007D0490E0880F991F0E945320909376040C
:1032D00080937504009709F4AFC0FC0190E080E092
:1032E00020917D042817190649F044F0119211929B
:1032F0000196F6CF8BE080937E04B9CF8091730462
:1033000090917404892BF9F480917D0490E0880FEA
:10331000991F0E9453209093740480937304009724
:1033200009F48AC0FC0190E080E020917D04281718
:10333000190649F044F020917F04309180042193D4
:1033400031930196F2CF10E000E00E945704BE01D5
:103350006F5B7F4F81E794E00E947E070E944604E6
:1033600060907D04712C9E012F5F3F4F4901205ECC
:103370003F4FCE018F5B9F4F5C012901D40150E08C
:1033800040E04615570524F5F501819191915F01C3
:103390000115110599F0F2016081718168177907B3
:1033A00068F06D917C9111978617970768F04F5FD1
:1033B0005F4F1296F2E04F0E511CE3CFF201918362
:1033C00080830115110569F711969C938E93EFCFB9
:1033D0000F5F1F4F0A30110509F0B7CFA09173049A
:1033E000B0917404009175041091760490E080E02F
:1033F00040917D0448171906F9F0F4F0F401419169
:1034000051914F01F801608171816417750710F4C3
:1034100051834083F901419151919F016D917C91BC
:1034200011974617570718F411965C934E9301961F
:1034300012960E5F1F4FDCCF0E9444056C197D0968
:103440008E099F09603A7F408105910508F431CFCC
:1034500070E060E090E080E00E94C60640E0E42E6C
:1034600040E0F42E11E054E0C52E62E0D62E8091AB
:103470008602811104C0109386020E943A07F894D4
:1034800080908402909085021092850210928402AE
:10349000789480918602811104C0109386020E9464
:1034A0003A07F894A0908702B090880210928802A0
:1034B000109287027894B40197FE03C071956195CC
:1034C0007109072E000C880B990B0E94781E26E5C7
:1034D0003EE049E450E40E942D1F27E73EEB4FE118
:1034E0005DE30E942D1F20E030E843E654E40E9493
:1034F000CE1D2B013C01B501B7FE03C0719561954E
:103500007109072E000C880B990B0E94781E26E586
:103510003EE049E450E40E942D1F27E73EEB4FE1D7
:103520005DE30E942D1F20E030E843E654E40E9452
:10353000CE1D9B01AC01C301B2010E945D1D20E0C4
:1035400030E040E251E40E942D1F20E030E040E0F6
:103550005FE30E942D1F20910A0330910B034091DD
:103560000C0350910D030E945D1D60930A0370933C
:103570000B0380930C0390930D030E94471E81E080
:1035800090E00E944E1D20E030E040EA50E460915F
:103590000A0370910B0380910C0390910D030E941C
:1035A000CE1D9B01AC0160E070E080EA92E40E94D5
:1035B0005C1D0E94401E77FD60E06093090300914E
:1035C0000803033009F4C0C0A0F40130B1F10230A7
:1035D00009F489C00E947A0F70E060E090E080E01A
:1035E0000E94C606E091D40280918A02E8136EC15F
:1035F0006EC0053009F473C108F429C1063051F7D3
:1036000082EF92E00E94490C8091F2029091F302C5
:103610008C3B92400CF408C270E060E090E080E0E7
:103620000E94C6068091D40290E0019620918A0201
:103630002817190609F06EC04AC00E947A0F8091BF
:10364000000381110CC00E9444056093FC0270933A
:10365000FD028093FE029093FF020093000382EF2D
:1036600092E00E94490C8091F2029091F3028C3B0F
:10367000924094F00E9444056093FC027093FD0216
:103680008093FE029093FF026CE97FEF86E990E061
:103690000E94C6061093F1020E9444052091F10297
:1036A0008090FC029090FD02A090FE02B090FF027C
:1036B000681979098A099B096E3571408105910560
:1036C00068F0222369F0C09208031092F102E1141D
:1036D000F10409F4CCCE0E940000C9CE2111F7CF2D
:1036E0000E94AE0CF4CF0E94AE0C0E947A0F82EFC3
:1036F00092E00E94490C8091F2029091F3028C3B7F
:1037000092405CF01093F0028091EF028230F8F268
:103710001092EF02C0920803DACF82EF92E00E948B
:10372000490C8091F2029091F3028739910564F778
:103730008091F002882341F38091EF028F5F8093A4
:10374000EF021092F002E0CF8091E70281110CC0ED
:103750000E9444056093E3027093E4028093E502C3
:103760009093E6021093E7020E947A0F0E94AE0C3B
:1037700082EF92E00E94490C8091F2029091F30254
:103780008C3B92400CF44AC01093E20282EF92E02C
:103790000E94490C8091F2029091F3028C3B92407E
:1037A000D4F08091E1028130B1F466E970E08CE9F7
:1037B0009FEF0E94C6060E9444056093E302709347
:1037C000E4028093E5029093E602109218011092B1
:1037D0001701D092E10280911801811117C00E9457
:1037E00044058090E3029090E402A090E502B0903E
:1037F000E602681979098A099B096C3B72408105C8
:10380000910520F010931801109317018091E102A7
:10381000843008F45CCF1092E1027CCF82EF92E01A
:103820000E94490C8091F2029091F3028436910536
:103830000CF0ACCF8091E202882309F4A7CF8091ED
:10384000E1028F5F8093E1021092E2029FCF8091AC
:10385000D90281110CC00E9444056093D502709377
:10386000D6028093D7029093D8021093D9020E9477
:10387000AE0C0E947A0F80911601882361F00E949D
:1038800044056093D5027093D6028093D70290933B
:10389000D802109216010E9444058090D5029090A3
:1038A000D602A090D702B090D802681979098A0987
:1038B0009B096C3271408105910508F408CFE091B5
:1038C000D402EF5FE093D40210931601F0E0EE0F04
:1038D000FF1FE856FD4F808180930803F8CE80914A
:1038E000900281110CC00E94440560938C02709379
:1038F0008D0280938E0290938F021093900282EF3C
:1039000092E00E94490C8091F2029091F3028C3B6C
:1039100092400CF46BC070E060E090E080E00E94A8
:10392000C60648EA50E060E270E08DE993E00E944C
:1039300086211092450410924604809194038111CF
:103940002AC080919203811104C089E893E00E940B
:10395000080E80919303882321F089E893E00E9468
:10396000670B2091970330919803C901959587952E
:1039700087579C4FE0919503F091960320FF08C074
:10398000DC012D913C91E20FF31F0190F081E02DBD
:103990000995109294038EEB91E00E94290F8BEA17
:1039A00091E00E94290F80911501882321F0109346
:1039B0008B02109215018091D40290E00196209123
:1039C0008A022817190609F482CE80918902882379
:1039D00091F00E94440560938C0270938D02809355
:1039E0008E0290938F021092890271CE0E94AE0CCB
:1039F0000E947A0FE0CF0E94440580908C02909044
:103A00008D02A0908E02B0908F02681979098A0900
:103A10009B09683873418105910508F458CE1093CD
:103A200089021093150176CE0E94AE0CFBCD89E879
:103A300091E0909372048093710480917B04909143
:103A40007C04009711F00E94EF2080917504909102
:103A50007604009711F00E94EF20809179049091F4
:103A60007A04009711F00E94EF20809173049091E6
:103A70007404009711F00E94EF20809177049091D8
:103A80007804009711F00C94EF200895F999FECF77
:103A900092BD81BDF89A992780B50895262FF9998E
:103AA000FECF1FBA92BD81BD20BD0FB6F894FA9A21
:103AB000F99A0FBE019608955058BB27AA270E9475
:103AC000741D0C94EE1E0E94E01E38F00E94E71E4A
:103AD00020F039F49F3F19F426F40C94DD1E0EF407
:103AE000E095E7FB0C94D71EE92F0E94FF1E58F3C8
:103AF000BA17620773078407950720F079F4A6F5D3
:103B00000C94211F0EF4E0950B2EBA2FA02D0B0163
:103B1000B90190010C01CA01A0011124FF27591B12
:103B200099F0593F50F4503E68F11A16F040A22F18
:103B3000232F342F4427585FF3CF46953795279589
:103B4000A795F0405395C9F77EF41F16BA0B620B88
:103B5000730B840BBAF09150A1F0FF0FBB1F661FCF
:103B6000771F881FC2F70EC0BA0F621F731F841F12
:103B700048F4879577956795B795F7959E3F08F038
:103B8000B0CF9395880F08F09927EE0F97958795FA
:103B900008950E94B31E08F481E008950E94E21D7A
:103BA0000C94EE1E0E94E71E58F00E94E01E40F0AA
:103BB00029F45F3F29F00C94D71E51110C94221F59
:103BC0000C94DD1E0E94FF1E68F39923B1F3552368
:103BD00091F3951B550BBB27AA2762177307840720
:103BE00038F09F5F5F4F220F331F441FAA1FA9F3B6
:103BF00035D00E2E3AF0E0E832D091505040E695A4
:103C0000001CCAF72BD0FE2F29D0660F771F881F04
:103C1000BB1F261737074807AB07B0E809F0BB0BF7
:103C2000802DBF01FF2793585F4F3AF09E3F51050B
:103C300078F00C94D71E0C94221F5F3FE4F3983E5B
:103C4000D4F3869577956795B795F7959F5FC9F7F4
:103C5000880F911D9695879597F90895E1E0660F75
:103C6000771F881FBB1F621773078407BA0720F0EE
:103C7000621B730B840BBA0BEE1F88F7E095089557
:103C80000E94471E6894B1110C94221F08950E944F
:103C9000071F88F09F5798F0B92F9927B751B0F0B8
:103CA000E1F0660F771F881F991F1AF0BA95C9F7C0
:103CB00014C0B13091F00E94211FB1E008950C941E
:103CC000211F672F782F8827B85F39F0B93FCCF3D1
:103CD000869577956795B395D9F73EF4909580953D
:103CE000709561957F4F8F4F9F4F0895E89409C05D
:103CF00097FB3EF490958095709561957F4F8F4F1F
:103D00009F4F9923A9F0F92F96E9BB279395F69534
:103D1000879577956795B795F111F8CFFAF4BB0FB2
:103D200011F460FF1BC06F5F7F4F8F4F9F4F16C016
:103D3000882311F096E911C0772321F09EE8872FA0
:103D4000762F05C0662371F096E8862F70E060E05C
:103D50002AF09A95660F771F881FDAF7880F9695D5
:103D6000879597F90895990F0008550FAA0BE0E879
:103D7000FEEF16161706E807F907C0F0121613062D
:103D8000E407F50798F0621B730B840B950B39F46D
:103D90000A2661F0232B242B252B21F408950A26D3
:103DA00009F4A140A6958FEF811D811D089597F913
:103DB0009F6780E870E060E008959FEF80EC0895D1
:103DC00000240A94161617061806090608950024FA
:103DD0000A9412161306140605060895092E039474
:103DE000000C11F4882352F0BB0F40F4BF2B11F4E8
:103DF00060FF04C06F5F7F4F8F4F9F4F089557FD47
:103E00009058440F551F59F05F3F71F04795880F48
:103E100097FB991F61F09F3F79F0879508951216DF
:103E200013061406551FF2CF4695F1DF08C016168B
:103E300017061806991FF1CF86957105610508943C
:103E40000895E894BB2766277727CB0197F9089553
:103E50000E94B31E08F48FEF08950E94401F0C9437
:103E6000EE1E0E94E01E38F00E94E71E20F095230F
:103E700011F00C94D71E0C94DD1E11240C94221FFB
:103E80000E94FF1E70F3959FC1F3950F50E0551FE0
:103E9000629FF001729FBB27F00DB11D639FAA279F
:103EA000F00DB11DAA1F649F6627B00DA11D661FEE
:103EB000829F2227B00DA11D621F739FB00DA11D0F
:103EC000621F839FA00D611D221F749F3327A00DC9
:103ED000611D231F849F600D211D822F762F6A2F65
:103EE00011249F5750409AF0F1F088234AF0EE0FCA
:103EF000FF1FBB1F661F771F881F91505040A9F7F7
:103F00009E3F510580F00C94D71E0C94221F5F3FFA
:103F1000E4F3983ED4F3869577956795B795F79532
:103F2000E7959F5FC1F7FE2B880F911D96958795AA
:103F300097F908950E94B31E880B990B0895DB0131
:103F40008F939F930E944820BF91AF91A29F800DB5
:103F5000911DA39F900DB29F900D11240895991B60
:103F600079E004C0991F961708F0961B881F7A9570
:103F7000C9F780950895AA1BBB1B51E107C0AA1F72
:103F8000BB1FA617B70710F0A61BB70B881F991FFA
:103F90005A95A9F780959095BC01CD01089597FB9E
:103FA000072E16F4009407D077FD09D00E94BB1F9E
:103FB00007FC05D03EF4909581959F4F089570952C
:103FC00061957F4F0895A1E21A2EAA1BBB1BFD012C
:103FD0000DC0AA1FBB1FEE1FFF1FA217B307E407E8
:103FE000F50720F0A21BB30BE40BF50B661F771F40
:103FF000881F991F1A9469F7609570958095909520
:104000009B01AC01BD01CF010895052E97FB1EF465
:1040100000940E941C2057FD07D00E94E31F07FC5C
:1040200003D04EF40C941C2050954095309521956A
:104030003F4F4F4F5F4F08959095809570956195D4
:104040007F4F8F4F9F4F0895EE0FFF1F0590F49104
:10405000E02D09940E943220332312F48A1B9B0B1B
:104060000C944320A29FB001B39FC001A39F700D89
:10407000811D1124911DB29F700D811D1124911D70
:1040800008950E943220B7FF0895821B930B089574
:104090000E943220A59F900DB49F900DA49F800D8B
:1040A000911D112408950F931F93CF93DF938230B6
:1040B000910510F482E090E0E0918D04F0918E047F
:1040C00030E020E0B0E0A0E0309799F42115310510
:1040D00009F44AC0281B390B24303105D8F58A81F0
:1040E0009B816115710589F1FB0193838283FE0138
:1040F00011C0408151810281138148175907E0F0B6
:104100004817590799F4109761F012960C9312977B
:1041100013961C933296CF01DF91CF911F910F918F
:10412000089500938D0410938E04F4CF211531056A
:1041300051F04217530738F0A901DB019A01BD0184
:10414000DF01F801C1CFEF01F9CF90938E04809386
:104150008D04CDCFFE01E20FF31F81939193225086
:10416000310939832883D7CF20918B0430918C0477
:10417000232B41F4209127013091280130938C04A6
:1041800020938B04209125013091260121153105C2
:1041900041F42DB73EB74091290150912A01241BCB
:1041A000350BE0918B04F0918C04E217F307A0F437
:1041B0002E1B3F0B2817390778F0AC014E5F5F4F7D
:1041C0002417350748F04E0F5F1F50938C0440931F
:1041D0008B04819391939FCFF0E0E0E09CCFCF934D
:1041E000DF930097E9F0FC01329713821282A091CD
:1041F0008D04B0918E04ED0130E020E01097A1F421
:1042000020813181820F931F20918B0430918C0487
:104210002817390709F061C0F0938C04E0938B04F0
:10422000DF91CF910895EA01CE17DF07E8F54A81C3
:104230005B819E0141155105B1F7E901FB83EA83DA
:1042400049915991C40FD51FEC17FD0761F4808186
:1042500091810296840F951FE90199838883828159
:1042600093819B838A83F0E0E0E012968D919C918C
:1042700013970097B9F52D913C911197CD010296B6
:10428000820F931F20918B0430918C0428173907DB
:1042900039F6309751F510928E0410928D04B09338
:1042A0008C04A0938B04BCCFD383C2834081518103
:1042B000840F951FC817D90761F44E5F5F4F88813F
:1042C0009981480F591F518340838A819B81938331
:1042D00082832115310509F0B0CFF0938E04E0936D
:1042E0008D049ECFFD01DC01C0CF13821282D7CF97
:1042F00081E090E0F8940C948D21FB01DC0102C078
:1043000001900D9241505040D8F70895DC0101C052
:104310006D9341505040E0F7089511E0C2EDD1E0B7
:1043200004C0FE010E9424202196C33DD107C9F795
:04433000F894FFCF2F
:10433400010F00F401D007040004018605860586F8
:10434400058605860501010101FFFFFFFF00E1006D
:10435400000000000000008F048000121415040CFB
:104364009C01B501CF01EA01070226024702690256
:104374008E02B502DE020A0300C180810000000043
:104384000000007D02BF049E029302E402A202C068
:104394000200000000AF08A408460C7A089D088AB1
:1043A400087B0800000000700ED80E460C450C0077
:1043B4000000007E0700000000AF0D000000009C1C
:1043C4000E506F7765723A20200044697374616EF1
:1043D40063652064726F76653B20000D0A006E6190
:1043E4006E00696E66006F7666006B6D2000434850
:0843F400415247494E47000009
:00000001FF
