:100000000C94D7010C947A100C9453100C942C106F
:100010000C9405100C94FF010C94FF010C94DE0F5E
:100020000C94FF010C9439150C94A1100C94101130
:100030000C94FF010C94FF010C94FF010C94FF0140
:100040000C94FF010C94FF010C94FF010C94FF0130
:100050000C94FF010C94FF010C94FF010C94940F7D
:100060000C94FF010C94FF010C94FF010C94FF0110
:100070000C94FF010C94FF010C94FF010C94FF0100
:100080000C94FF010C94FF010C94FF010C94FF01F0
:100090000C9484150C94FF010C94FF010C94FF0147
:1000A0000C94FF010C9442130C94FF01000000001B
:1000B0000000004F00000007000700147F147F14A9
:1000C000242A7F2A122313086462364955225000DD
:1000D00000070000001C2241000041221C001408FF
:1000E0003E081408083E08080050300000080808C0
:1000F0000808006060000020100804023E514945D5
:100100003E00427F400042615149462141454B310A
:100110001814127F1027454545393C4A4949300398
:10012000017109073649494936064949291E0036F1
:100130003600000056360000081422410014141442
:100140001414004122140802015109063249794170
:100150003E7E1111117E7F494949363E414141227F
:100160007F4141413E7F494949417F090909013E9B
:100170004149497A7F0808087F00417F41002040BB
:10018000413F017F081422417F404040407F020CE4
:10019000027F7F0408107F3E4141413E7F090909EB
:1001A000063E4151215E7F09192946464949493198
:1001B00001017F01013F4040403F1F2040201F3F81
:1001C0004038403F63140814630708700807615102
:1001D000494543007F41410002040810200041418D
:1001E0007F0004020102044040404040000102043C
:1001F0000020545454787F484444383844444420C0
:10020000384444487F3854545418087E0901020C7D
:100210005252523E7F0804047800447D4000204042
:10022000443D007F1028440000417F40007C0418BA
:1002300004787C0804047838444444387C1414144A
:1002400008081414187C7C080404084854545420EA
:10025000043F4440203C4040207C1C2040201C3C6B
:100260004038403C44281028440C5050503C4464D2
:10027000544C44000836410000007F000000413625
:1002800008000C02040806081C2A080800030C0FCA
:1002900030333C3FC0C3CCCFF0F3FCFF0000000084
:1002A0002300260029002C002F00080B0002020268
:1002B00000000904000001020200000524001001F2
:1002C0000524010101042402060524060001070596
:1002D000810310004009040100020A000000070524
:1002E00002024000000705830240000004030904E5
:1002F00012010002EF020140FB1F00230001010276
:100300000301506F6C6F6C7520436F72706F726178
:1003100074696F6E00506F6C6F6C7520412D537453
:100320006172203332553400506F7765723A202065
:100330000000000000240027002A002D00300000EB
:10034000000000250028002B002E003100040404CA
:10035000040403040502020202040302020202066C
:10036000060606060604040202020404040802014A
:1003700010408040102040804080080204018040EE
:1003800020100201108010204040200000000200D8
:10039000090F0000030401000C0000000000000031
:1003A00000000000000000000000D6168E1C112482
:1003B0001FBECFEFDAE0DEBFCDBF11E0A0E0B1E0BD
:1003C000EEE0F2E402C005900D92AC3CB107D9F723
:1003D00024E0ACECB1E001C01D92A336B207E1F716
:1003E00011E0C6EDD1E004C02197FE010E94911FEB
:1003F000C53DD107C9F70E9435170C94FA200C941B
:1004000000005B9887FD5D9A87FF5D985B9A5B981B
:1004100086FD5D9A86FF5D985B9A5B9885FD5D9A87
:1004200085FF5D985B9A5B9884FD5D9A84FF5D987B
:100430005B9A5B9883FD5D9A83FF5D985B9A5B98FE
:1004400082FD5D9A82FF5D985B9A5B9881FD5D9A63
:1004500081FF5D985B9A5B9880FD5D9A80FF5D9857
:100460005B9A0895FC0180910003882311F13FB746
:10047000F89482E08093E9002091F200822F90E0CE
:100480001816190614F481E090E0882339F02898B2
:1004900044E64093FF024091F1004083222339F06B
:1004A0002091F200211103C02BE62093E8003FBF0A
:1004B00008958FEF9FEF08952FB7F89483E080930E
:1004C000E9009091E800892F807295FF04C0909117
:1004D000F20080E4891B2FBF08958091F7028111FB
:1004E0000DC082E08093F30284E08093F4021092C6
:1004F000F6021092F50281E08093F70283EF92E01A
:10050000089581508F3008F047C0E82FF0E0E5579C
:10051000FD4F0C94911FA802AC029A02A002A40203
:10052000CC02CC02CC02AF02B502B902BD02C302BA
:10053000CC02C702809180008F778093800008955D
:10054000809180008F7DF9CF80918000877FF5CFEB
:1005500084B58F7784BD089584B58F7DFBCF80915E
:1005600090008F77809390000895809190008F7D08
:10057000F9CF80919000877FF5CF8091C0008F7771
:100580008093C00008958091C0008F7DF9CF809145
:10059000C200877F8093C20008951F93CF93DF939B
:1005A000282F30E0F901E557FC4F8491F901E45917
:1005B000FC4FD491F901E35BFC4FC491CC23A9F02B
:1005C000162F81110E948102EC2FF0E0EE0FFF1F29
:1005D000E15CFC4FA591B4918FB7F894EC911111A7
:1005E00008C0D095DE23DC938FBFDF91CF911F91A0
:1005F0000895DE2BF8CFCF93DF9390E0FC01E45910
:10060000FC4F2491835B9C4FFC0184918823C9F0AB
:1006100090E0880F991FFC01EF5CFC4FA591B4910D
:10062000FC01E15CFC4FC591D49161110DC09FB7F5
:10063000F8948C91209582238C9388812823288399
:100640009FBFDF91CF910895623051F49FB7F89426
:100650003C91822F809583238C93E8812E2BEFCFC2
:100660008FB7F894EC912E2B2C938FBFEACF80910B
:1006700052048F3F61F061E00E94FB0260E08091D4
:1006800052040E94CD028BE193E00197F1F70895A7
:10069000809152048F3F61F061E00E94FB0261E0B3
:1006A000809152040E94CD028BE193E00197F1F713
:1006B00008953FB7F8948091EF029091F002A091D5
:1006C000F102B091F20226B5A89B05C02F3F19F0A8
:1006D0000196A11DB11D3FBFBA2FA92F982F8827C2
:1006E000BC01CD01620F711D811D911D42E0660F9D
:1006F000771F881F991F4A95D1F708958F929F926F
:10070000AF92BF92CF92DF92EF92FF924B015C01CA
:100710000E9459036B017C010E9459036C197D09E9
:100720008E099F09683E734081059105A8F321E079
:10073000821A9108A108B10888EEC80E83E0D81E7D
:10074000E11CF11C81149104A104B10429F7FF906C
:10075000EF90DF90CF90BF90AF909F908F900895D3
:100760002FB7F8946091EB027091EC028091ED024A
:100770009091EE022FBF0895E0918D02F0918E02CC
:10078000309729F010928A021092890209940895F4
:10079000CF93DF93AC01E0918F02F09190023097FC
:1007A000F1F090918C0280918B029817C0F090E04C
:1007B000292F30E02617370754F4D901A352BE4F32
:1007C000240F351FE90128812C939F5FF1CF1092F0
:1007D0008C0260938B02CB01DF91CF910994DF9162
:1007E000CF910895089540917F0250918002209109
:1007F0007D0230917E0242175307B4F49091E800D5
:100800009570E1F39091E80092FD19C08093F1009A
:1008100080917F029091800201968F739927892B96
:1008200019F48EEF8093E80080917F02909180020E
:1008300001969093800280937F0281E0089580E08A
:100840000895DF92EF92FF920F931F93CF93DF9360
:10085000D82E8A01EB017B01E40EF51ECE15DF05D3
:1008600059F0D7FE12C0FE0184910E94F303219635
:100870008111F4CF0FEF1FEFC801DF91CF911F91CE
:100880000F91FF90EF90DF9008958881EECF0F9346
:100890001F93CF93DF931F92CDB7DEB782E089839A
:1008A00042E450E06AEA72E080E80E9421040E947B
:1008B0006D02DC0112960D911C910115110589F054
:1008C000D801ED91FC910280F381E02DBE016F5FB4
:1008D0007F4FC801099597FD04C0F8010085118577
:1008E000ECCF89810F90DF91CF911F910F910895E7
:1008F000615030F02091F100FC0120830196F8CF87
:10090000289884E68093FF0208958F929F92AF9279
:10091000BF92CF92DF92EF92FF920F931F93CF93EC
:10092000DF936C017B018A0180911501882309F412
:100930005CC080910003882309F457C08091830232
:1009400080FF05C08091E00082608093E000E801B4
:10095000B12C8AEFA82E93E0892E2AE3922E2097BD
:1009600011F4BB20D9F10E945C0281110AC0AA9443
:10097000AA20D9F161E070E080E090E00E947E035F
:10098000EECF8C171D0611F00CF08C2F9FB7F8944A
:100990008092E9002091E80025FD02C09FBFDFCFD3
:1009A000282F30E0C21BD30BF701815020F041917A
:1009B0004093F100FACFE20EF31EBB2021F090929B
:1009C000E800B12CEBCF8091E80085FDE7CF909255
:1009D000E800BB24B394209709F3F3CF5D9884E635
:1009E00080938202101611063CF081E090E0F6013F
:1009F0009383828310E000E0C801DF91CF911F91C3
:100A00000F91FF90EF90DF90CF90BF90AF909F90AD
:100A10008F900895CF93DF931F92CDB7DEB7698390
:100A2000DC01ED91FC910280F381E02D41E050E08A
:100A3000BE016F5F7F4F09950F90DF91CF910895B1
:100A400083E08093E9008091F200882319F08AE323
:100A50008093E80008950E945C0290E00895CF938F
:100A6000DF931F92CDB7DEB7FC018485958597FD96
:100A700008C02FEF3FEF358724870F90DF91CF918C
:100A80000895CE0101960E943202019719F48981DE
:100A900090E0F3CF8FEF9FEFF0CF0F931F93CF93A3
:100AA000DF931F92CDB7DEB78C01FC01848595855D
:100AB00097FF0BC0CE0101960E943202019771F49C
:100AC000898190E0F80195878487F8018485958570
:100AD0000F90DF91CF911F910F9108958FEF9FEFAE
:100AE000F1CFFC018485958597FD0BC09FB7F894E5
:100AF00082E08093E9008091F2009FBF90E0019630
:100B000008959FB7F89482E08093E9008091F20005
:100B10009FBF90E0089580917A02E0917B02F0916E
:100B20007C02882339F084919FEB980F9A3120F44E
:100B3000805E08958081F8CF803269F420917B0235
:100B400030917C02A9014F5F5F4F50937C0240932C
:100B50007B02232B01F708951F93CF93DF930E940D
:100B60008B05D0E0C0E01AE090ED980F9A30B8F411
:100B70001C9F90011D9F300D1124E901C80FD11D4C
:100B800087FDDA95E09780917B0290917C02019637
:100B900090937C0280937B020E948B05E5CFCE016F
:100BA000DF91CF911F9108953F924F925F926F9284
:100BB0007F928F929F92AF92BF92CF92DF92EF92ED
:100BC000FF920F931F93CF93DF937B01D42E20913D
:100BD000770221111BC021E020937702109272004E
:100BE0001092C00034E03093C10039E03093C2006D
:100BF0002093C30023E02093BF0028EE2093D10070
:100C00001092BF001092D200579A78941092090166
:100C1000CC24C39497FF03C09F77AAE0CA2EC8E2F2
:100C2000CC9EC02D1124D0E08C179D0750F021E000
:100C3000EC01C21206C0C13187E2D80710F0C0E152
:100C4000D7E24E01B12CA12C4C2C512C712C612CD3
:100C50009E01AFEFB7E00E949F1F640D751D861DBA
:100C6000971D9695879577956795A30192010E94A8
:100C7000501F60E072E18AE790E0312C33946217F4
:100C800073078407950728F096958795779567955C
:100C9000F5CFA30192010E940C1F9E013695279566
:100CA000620F731F811D911DA50194010E94501FA9
:100CB000722E022F132F2AE0C21207C0CE01059612
:100CC0006AE070E00E94281FEB01C83E83E0D8076D
:100CD00059F09701DE010E949F1F28EE33E040E0AB
:100CE00050E00E94721F7901109272008091C10041
:100CF000807F83298093C1001093BF007092D10040
:100D00004D2D403108F04FE080E190E0841B9109C7
:100D100002C0169507958A95E2F71093BF000093DD
:100D2000D200F0927902E092780289B38FEF89BB0A
:100D300084E080937200DF91CF911F910F91FF901B
:100D4000EF90DF90CF90BF90AF909F908F907F906B
:100D50006F905F904F903F9008952E98269A2D980F
:100D6000259A2A98229A2998219A80EA80938000CD
:100D700081E18093810080E991E0909387008093E6
:100D80008600109289001092880010928B001092B9
:100D90008A000895CF93DF93EC0180917302811153
:100DA00005C081E0809373020E94AD0680E0D7FF0A
:100DB00004C0D195C195D10981E0C13991E0D9072D
:100DC00014F0C0E9D1E0D0938900C0938800882353
:100DD00029F0299A219ADF91CF9108952998FACF85
:100DE000CF93DF93EC0180917302811105C081E004
:100DF000809373020E94AD0680E0D7FF04C0D195B6
:100E0000C195D10981E0C13991E0D90714F0C0E959
:100E1000D1E0D0938B00C0938A00882329F02A9ACE
:100E2000229ADF91CF9108952A98FACF9FB19170BD
:100E30008CB186FB882780F9892720916F02309139
:100E40006E02409194025091950228273927231B66
:100E5000330B240F351F3093950220939402309169
:100E60006E0220916F02381729F0291719F021E03E
:100E700020936D0280936E0290936F0208952498E0
:100E80002C9A6A98729A6E98769A8098889A81E0DD
:100E90008093680090E190936B008BBB86E197E0B4
:100EA00090931F0180931E01EAE6F0E080818F7C21
:100EB00080618083EE9A8CB182FB882780F98093D1
:100EC000720293B1809172029295917089278093FA
:100ED00071021092920210929102109270028FB1E0
:100EE000817080936F029CB180916F0296FB99276D
:100EF00090F9892780936E021092950210929402C5
:100F000010926D0208955F926F927F928F929F92DE
:100F1000AF92BF92CF92DF92EF92FF920F931F9307
:100F2000CF93DF93FC0122853385232B09F492C0F4
:100F30006B01EC0110E08C851817E8F4E12EF12C20
:100F40008E859F85F701EE0FFF1FEC0DFD1D918330
:100F50008083EA85FB85EE0DFF1D61E080810E94A4
:100F6000CD02EA85FB85EE0DFF1D61E080810E94C8
:100F7000FB021F5FE0CF83E290E00197F1F710E002
:100F80008C851817A0F4E12EF12CEA85FB85EE0D77
:100F9000FF1D60E080810E94FB02EA85FB85EE0D6B
:100FA000FF1D60E080810E94CD021F5FE9CF0E949B
:100FB00059034B015C010E945903AB01BC01481964
:100FC00059096A097B098E859F85B0E0A0E0481722
:100FD00059076A077B0708F03DC00E9459037B014F
:100FE000E818F908612C8C85681628F7062D10E0A2
:100FF000EA85FB85E00FF11F208130E0F901E5571C
:10100000FC4F8491F901E459FC4F7490F901E35BC2
:10101000FC4F549051100CC0000F111FF601E00F4F
:10102000F11F80819181E816F90688F06394DBCF87
:1010300081110E948102E52DF0E0EE0FFF1FE456C2
:10104000FD4FA591B491EC917E2231F3EFCFF18267
:10105000E082ECCFDF91CF911F910F91FF90EF9045
:10106000DF90CF90BF90AF909F908F907F906F90C8
:101070005F90089520912302260F3327331F2132DA
:101080003105ECF420914702FC0190E080E024302F
:1010900069F082E00895A09123022191AC014D5F97
:1010A0005D4FA40FB52FB11D2C930196861798F3B1
:1010B00080912302680F6093230280E0089581E00D
:1010C00008951092470281E08093490210924802ED
:1010D00061E082E00E94CD0261E083E00E94CD02E7
:1010E000E9EBF0E080818E7F808380818D7F80833B
:1010F00088E48093B80085E48093BC000895089547
:10110000E0918C0280918B02E81730F4F0E0E3521A
:10111000FE4F808190E008958FEF9FEF08959091AA
:101120008C0280918B022FEF3FEF981748F4E92F44
:10113000F0E0E352FE4F208130E09F5F90938C02FD
:10114000C901089580918B0290918C02891B990BA3
:101150000895CF93DF93CB01EA01642F0E943A08F0
:10116000CE01DF91CF910895CF93DF931F92CDB73A
:10117000DEB7698361E0CE0101960E943A0881E002
:1011800090E00F90DF91CF910895289A209A0895CA
:101190002898209A08955F926F927F928F929F92E3
:1011A000AF92BF92CF92DF92EF92FF920F931F9375
:1011B000CF93DF935C01D62FC42FF22E132F0E9402
:1011C000C8088D2F806B0E9401028C2F82958F7032
:1011D00080610E9401028C2F8F700E9401020E9488
:1011E000C508CF2DD12F0C0F1D2F111D95E0692E95
:1011F000C017D10709F444C07990872D8052990B0C
:101200009C01629EC001639E900D1124769C40015A
:101210001124F12CE12C9C0124553F4F69013FE141
:10122000371508F5F601EE0DFF1DE491F0E084E0BE
:10123000F595E7958A95E1F7E457FD4F5490852D94
:101240000E940102852D0E9401029FEFE91AF90A0E
:1012500025E0E216F10419F780E00E94010280E027
:101260000E940102C5CF87E0E0E08715F8F2F401A3
:10127000EE0DFF1DE254FF4FEA0DFB1DE081D6CFBE
:10128000DF91CF911F910F91FF90EF90DF90CF9062
:10129000BF90AF909F908F907F906F905F900895D8
:1012A0005F926F927F928F929F92AF92BF92CF92F6
:1012B000DF92EF92FF920F931F93CF93DF935C0126
:1012C000D62FC42FF22E132F0E94C8088D2F806BAB
:1012D0000E9401028C2F82958F7080610E94010212
:1012E0008C2F8F700E9401020E94C508CF2DD12F34
:1012F0000C0F1D2F111D85E0682EC017D10709F4B2
:1013000040C07990872D8052990B9C01629EC0014C
:10131000639E900D1124769C40011124F12CE12C48
:101320009C0124553F4F69013FE13715E8F4F60170
:10133000EE0DFF1DE491EF70F0E0E457FD4F549087
:10134000852D0E940102852D0E9401029FEFE91A5E
:10135000F90A25E0E216F10439F780E00E94010263
:1013600080E00E940102C9CF87E0E0E0871518F312
:10137000F401EE0DFF1DE254FF4FEA0DFB1DE0816D
:10138000DACFDF91CF911F910F91FF90EF90DF9017
:10139000CF90BF90AF909F908F907F906F905F9015
:1013A00008956F927F928F929F92AF92BF92CF9249
:1013B000DF92EF92FF920F931F93CF93DF935C0125
:1013C000D62FC42FF22E132F0E94C8088D2F806BAA
:1013D0000E9401028C2F82958F7080610E94010211
:1013E0008C2F8F700E9401020E94C508CF2DD12F33
:1013F0000C0F1D2F111D85E0682EC017D107A9F114
:101400007990872D8052990B9C01629EC001639E4A
:10141000900D1124769C40011124F12CE12C9C01AB
:1014200024553F4F69013FE1371588F4F601EE0D71
:10143000FF1D84910E9401029FEFE91AF90A25E03D
:10144000E216F10481F780E00E940102D6CF87E026
:10145000871548F0F701E80DF91DE254FF4FEA0D3A
:10146000FB1D8081E7CF80E0E5CFDF91CF911F9119
:101470000F91FF90EF90DF90CF90BF90AF909F9033
:101480008F907F906F900895282F21FB0EF0209869
:1014900020FB0EF028980EF4289A21FB0EF4209AD7
:1014A000089580919602882301F16091E60270917F
:1014B000E7028091E8029091E9020E94B21D81E565
:1014C00093E00E94B4086091E50281E593E00E94F8
:1014D000B408109296021092E5021092E602109261
:1014E000E7021092E8021092E902089580918B02BF
:1014F00090918C02891B990B18161906CCF481E582
:1015000093E00E948F089091CC01E92FF0E0EE0F5C
:10151000FF1FE956FD4F482F4053550B5183408321
:101520009F5F9093CC01809197028093DF02DECF82
:101530000895CF93DF93EC01288121FB0EF055989D
:1015400020FB0EF05D980EF45D9A21FB0EF4559A87
:1015500089810E94440AE9EEF0E010828C81809338
:10156000F0008B8180838A818093E200DF91CF91AC
:101570000895FC01A2EEB0E08C9182831C92A9EE4A
:10158000B0E08C9183831C92A0EFB0E08C918483B7
:101590001C9220E05D99216055992260208320E013
:1015A000289921602099226021835D98559A089599
:1015B000CF92DF92EF92FF920F93CF93DF93EC01E4
:1015C0007C0184E0E80EF11CC7010E94B90A6E019B
:1015D00084E1C80ED11C08E0960143E162E0CE012F
:1015E0000E945009960143E163E0CE010E94CB08BE
:1015F0006E0189E2C80ED11C960143E165E0CE017F
:101600000E945009960143E166E0CE010E94CB089A
:10161000C701DF91CF910F91FF90EF90DF90CF90B6
:101620000C94990AEF92FF920F93CF93DF93EC0102
:101630007C0184E0E80EF11CC7010E94B90A9E01FA
:101640002C5E3F4F05E142E060E0CE010E94D109EF
:101650009E01275D3F4F42E061E0CE010E94D1092B
:101660009E01225C3F4F42E062E0CE010E94D10920
:101670009E012D5A3F4F42E063E0CE010E94D10906
:101680009E0128593F4F42E064E0CE010E94D109FB
:101690009E0123583F4F42E065E0CE010E94D109F0
:1016A0009E012E563F4F42E066E0CE010E94D109D6
:1016B0009E0129553F4F42E067E0CE010E94D109CB
:1016C000C701DF91CF910F91FF90EF900C94990A91
:1016D000EF92FF920F931F93CF93DF938C017C01C6
:1016E00084E0E80EF11CC7010E94B90A0E94C808F4
:1016F00082E00E940102C0E00E94C8088C2F806B2B
:101700000E94010280E10E9401020E94C508D0E00F
:1017100080E00E940102DF5FD038D1F7CF5FC83090
:1017200059F7C7010E94990AF8011286DF91CF91FB
:101730001F910F91FF90EF900895AF92BF92CF92BB
:10174000DF92EF92FF920F931F93CF93DF937C0171
:10175000122F683008F043C0423008F040C088E0E3
:10176000861B8217D0F12223D1F1C42FCC0FC40FD6
:10177000DCE06D9FD02D1124DD5E670124E1C20EF7
:10178000D11C862F90E025E1429F800D911D1124F0
:10179000C80ED91E570184E0A80EB11CC5010E94D5
:1017A000B90A62E06C0F012F96014D2FC7010E940C
:1017B000500963E06C0F96014D2FC7010E94CB08C2
:1017C000C501DF91CF911F910F91FF90EF90DF90B6
:1017D000CF90BF90AF900C94990A182FC6CFDF918D
:1017E000CF911F910F91FF90EF90DF90CF90BF901E
:1017F000AF900895BF92CF92DF92EF92FF920F9336
:101800001F93CF93DF93EC01162FB42E022F653177
:1018100098F527E0241780F185E1861B801750F1A9
:10182000002351F1CE014496E12EF12C25E1B29E28
:10183000E00CF11C1124E80EF91E6E0184E0C80EC4
:10184000D11CC6010E94B90A412F440F410F440F19
:101850004E5F97016B2DCE010E94D109C601DF9129
:10186000CF911F910F91FF90EF90DF90CF90BF909D
:101870000C94990A082FD6CFDF91CF911F910F9129
:10188000FF90EF90DF90CF90BF900895089590E083
:1018900080E00895CF92DF92EF92FF920F931F9313
:1018A000CF93DF932091470430914804232B09F410
:1018B0004DC02091490430914A04232B09F446C0BD
:1018C0008C010E944803B80185E494E00E948307DC
:1018D0000E943703E801C0904904D0904A04E09088
:1018E0004704F090480410E000E080915104801714
:1018F000110661F15CF1D601ED91FD916D01D70109
:101900008D919D917D01E81BF90BC9F028813981EA
:1019100050E040E0281B390B41095109A8EEB3E023
:101920000E94B51F9F0150E040E00E94721F293EB7
:10193000B3E03B0714F028EE33E037FF02C030E09D
:1019400020E0299339930F5F1F4FCFCFDF91CF91C5
:101950001F910F91FF90EF90DF90CF9008954F92DD
:101960005F926F927F928F929F92AF92BF92CF922F
:10197000DF92EF92FF920F931F93CF93DF938091AB
:101980002101882309F4DAC083ED91E00E944A0C1A
:10199000E091510403ED11E0B12CA12C50E040E0A6
:1019A000C12CD12C7601912CF0E0EF17E9F0D80191
:1019B000CD91DD918D01C93CD1059CF4C333D10596
:1019C00054F09501DE010E94971FC60ED71EE81E37
:1019D000F91E4C0F5D1FFF5FB8E1AB1ABCEFBB0AED
:1019E000E4CF99249394EDCF911098C0E150FF0B70
:1019F00044EF51E0E49FC001E59F900DF49F900DEE
:101A000011244091550450915604481759070CF47D
:101A100092C048EE53E0E49FC001E59F900DF49F13
:101A2000900D1124805D974065E070E00E943C1F9E
:101A3000EB01072E000C880B990B0E94EA1D6B012D
:101A40007C012091CF013091D0014091D101509182
:101A5000D2010E94D41C4B015C018092CF01909274
:101A6000D001A092D101B092D2018091CD0190918C
:101A7000CE01BE01681B790B072E000C880B990B59
:101A80000E94EA1D2B013C01D093CE01C093CD01F1
:101A900027E137EB41ED58E3C501B4010E947B1EFD
:101AA000A70196010E94D41C6B017C0120E030E06C
:101AB00040E850E4C301B2010E947B1E9B01AC01CF
:101AC000C701B6010E94D41C6B017C0120E030E00C
:101AD00048E453E40E94D41C0E94B21DCB010E9432
:101AE000F006A701960160E070E088E493E40E94AC
:101AF000D31C0E94B21DCB01DF91CF911F910F919A
:101B0000FF90EF90DF90CF90BF90AF909F908F901D
:101B10007F906F905F904F900C94CA069A0150E0AE
:101B200040E0C701B6010E94501FC901309356041E
:101B30002093550477CF90E080E074CFDF91CF9170
:101B40001F910F91FF90EF90DF90CF90BF90AF90DB
:101B50009F908F907F906F905F904F9008950E941C
:101B6000E520FB0101900020E9F73197AF01461B0A
:101B7000570BDC01ED91FC910280F381E02D09947B
:101B80008F929F92AF92BF920F931F93CF93DF9349
:101B9000CDB7DEB7A1970FB6F894DEBF0FBECDBFAD
:101BA00019A2423008F44AE08E010F5D1F4F842EC7
:101BB000912CB12CA12CA50194010E94501FE62F5D
:101BC000B901CA01EA3004F5E05DD801EE938D0158
:101BD000232B242B252B79F790E080E0109729F018
:101BE000BD018DE593E00E94B10DA1960FB6F8946A
:101BF000DEBF0FBECDBFDF91CF911F910F91BF9080
:101C0000AF909F908F900895E95CDFCF0F931F9363
:101C1000CF93DF93EC010E94B10D8C016FE871E06E
:101C2000CE010E94B10D800F911FDF91CF911F91C6
:101C30000F910895CF93DF9385ED8093BC00809141
:101C4000FF0190910002A0910102B091020207965B
:101C5000A11DB11D23E0B695A795979587952A9567
:101C6000D1F72091BC0024FD03C01092470236C07A
:101C70004091FF01509100026091010270910202B7
:101C8000452B462B472B69F30097A105B10541F081
:101C90002AE22A95F1F700C00197A109B109E1CF25
:101CA0008091FE0191E09093FD018823B9F0C091ED
:101CB000B800D091BA008091BC008A7B8093BC00B0
:101CC00060E082E00E94CD0260E083E00E94CD02ED
:101CD0000E946108D093BA00C093B800DF91CF9101
:101CE00008950F931F93CF93DF93EC015B98539A62
:101CF0005A98529A85E38A95F1F700005A9A529AB7
:101D000085E38A95F1F70000CE010E94680B8E01F1
:101D10000C5F1F4FC8010E94B90A0E94C80881EADF
:101D20000E94010288EC0E94010281E80E940102E7
:101D30008FEF0E9401028FEA0E940102C8010E94F7
:101D4000990A81E08987DF91CF911F910F910895C2
:101D5000FF920F931F93CF93DF93EC01162F042F65
:101D6000F22E8985811103C0CE010E94710E8A85F1
:101D7000882319F0CE010E94680B2A893B89C9018A
:101D8000959587958C0F9D1FE889F98920FF08C0DC
:101D9000DC012D913C91E20FF31F0190F081E02DC9
:101DA0002F2D402F612FDF91CF911F910F91FF9029
:101DB0000994CF93DF93DC01A354BF4F2C912830BB
:101DC00008F5EC01C454DF4FE881E531D8F4AC01EB
:101DD00075E1279F400D511D1124E40FF52FF11DD2
:101DE000648BFC012385211105C021E04C916881A1
:101DF0000E94A80E88818F5F888381E090E0DF9148
:101E0000CF91089590E080E0FACFAF92BF92CF9249
:101E1000DF92EF92FF920F931F93CF93DF9382EEA7
:101E2000E82EF12CF70100811082C9EED0E0B880D5
:101E3000188290EFC92ED12CF601A080108220E0EC
:101E40002899216020992260822F2098289A90E179
:101E50009A95F1F713B10E94440A1882F601A08204
:101E6000B882F7010083812F80958170DF91CF9137
:101E70001F910F91FF90EF90DF90CF90BF90AF90A8
:101E800008950C94C51CBF92CF92DF92EF92FF92FF
:101E90000F931F93CF93DF938C01EA016C012DEB1D
:101EA000C20ED11CF60130813830D8F57C01FCEB34
:101EB000EF0EF11CF7018081853198F525E1281B93
:101EC00090E02417150620F4C5E1D0E0C81BD90B1B
:101ED000F5E13F9F800D911D1124AE0198012C5E0C
:101EE0003F4F820F931F0E94EA20BC2EF80183858A
:101EF000811108C02C2FF6014081F7016081C801D3
:101F00000E94A80EF70180818B0D8083CE01DF91A6
:101F1000CF911F910F91FF90EF90DF90CF90BF90E6
:101F20000895D0E0C0E0F2CF1F920F920FB60F924B
:101F300011242F933F938F939F93AF93BF938091DF
:101F4000EB029091EC02A091ED02B091EE02309183
:101F5000EA0223E0230F2D3758F50196A11DB11D8C
:101F60002093EA028093EB029093EC02A093ED029F
:101F7000B093EE028091EF029091F002A091F102F5
:101F8000B091F2020196A11DB11D8093EF029093D2
:101F9000F002A093F102B093F202BF91AF919F9132
:101FA0008F913F912F910F900FBE0F901F9018951A
:101FB00026E8230F0296A11DB11DD2CF1F920F92CA
:101FC0000FB60F9211242F933F934F935F936F930C
:101FD0007F938F939F93AF93BF93EF93FF93E09182
:101FE0001E01F0911F010995FF91EF91BF91AF91F3
:101FF0009F918F917F916F915F914F913F912F9121
:102000000F900FBE0F901F9018951F920F920FB652
:102010000F9211242F933F934F935F936F937F936E
:102020008F939F93AF93BF93EF93FF93E0911C0126
:10203000F0911D010995FF91EF91BF91AF919F9193
:102040008F917F916F915F914F913F912F910F9061
:102050000FBE0F901F9018951F920F920FB60F9200
:1020600011242F933F934F935F936F937F938F939D
:102070009F93AF93BF93EF93FF93E0911A01F09179
:102080001B010995FF91EF91BF91AF919F918F91A6
:102090007F916F915F914F913F912F910F900FBE64
:1020A0000F901F9018951F920F920FB60F92112448
:1020B0002F933F934F935F936F937F938F939F9350
:1020C000AF93BF93EF93FF93E0911801F091190143
:1020D0000995FF91EF91BF91AF919F918F917F9162
:1020E0006F915F914F913F912F910F900FBE0F9085
:1020F0001F9018951F920F920FB60F9211242F93D5
:102100003F934F935F936F937F938F939F93AF937F
:10211000BF93EF93FF93E0911601F091170109959A
:10212000FF91EF91BF91AF919F918F917F916F91AF
:102130005F914F913F912F910F900FBE0F901F9085
:1021400018951F920F920FB60F9211248F939F93A1
:102150008091E1009091E100937F9093E10083FFF3
:102160000FC01092E90091E09093EB001092EC0008
:1021700092E39093ED001092000398E09093F000AA
:1021800082FF22C093E09093E9009091F20099239E
:1021900019F09AE39093E80090918202992341F01C
:1021A00090918202915090938202911101C05D9AA8
:1021B0009091FF02992341F09091FF0291509093EA
:1021C000FF02911101C0289A84FF18C08091E2009B
:1021D0008E7E81608093E2008091E1008F7E80930B
:1021E000E100809183028E7E8061809383029F91C3
:1021F0008F910F900FBE0F901F90189580FFF7CF13
:102200008091E2008E7E80618093E2008091E10007
:102210008E7E8093E100809183028E7E8160E5CF87
:102220001F920F920FB60F921124CF92DF92EF926E
:10223000FF920F931F932F933F934F935F936F934F
:102240007F938F939F93AF93BF93EF93FF93CF931E
:10225000DF93CDB7DEB76C97DEBFCDBF1092E9003C
:102260008091E80083FF25C068E0CE0145960E947A
:10227000780482EF8093E8008D8987FF39C09091C0
:10228000E80090FFFCCF982F907609F034C19E892A
:102290004F89588D2F89F88C911131C0803861F5A4
:1022A000809184028093F1001092F1008EEF809370
:1022B000E8006C960FB6F894DEBF0FBECDBFDF917D
:1022C000CF91FF91EF91BF91AF919F918F917F91AE
:1022D0006F915F914F913F912F911F910F91FF90BF
:1022E000EF90DF90CF900F900FBE0F901F9018953A
:1022F0009EEF9093E800C7CF1092F100D5CF9130B8
:1023000059F48111D3CF4130510581F68091840277
:102310008D7F80938402CACF933049F48111C6CF58
:102320004130510519F6809184028260F2CF9530D8
:1023300041F48091E80080FFFCCF20682093E30007
:10234000B5CF963009F0A9C00B8D1C8D22E01092FC
:10235000E9001092800210927F02F2122EC01092B9
:102360007E0210927D020E9447041F8299E09983A9
:10237000FA8291E09E8390EA98879AEF998720915C
:102380007F0230918002275F3F4F3C832B838D83F8
:102390001092E9001092800210927F0210937E0248
:1023A00000937D0249E050E0BE016F5F7F4F80E007
:1023B0000E9421040E94470479CF10937E0200936B
:1023C0007D020E946D02DC0112960D911C91011597
:1023D000110509F451C1D801ED91FC910480F581FA
:1023E000E02DBE016B5E7F4FC8010995009709F093
:1023F0003EC1F80100851185EACFF3E0FF120EC05F
:102400008F89882309F440C0823061F440E862E19A
:1024100085E193E00E94A316811148CF81E2809369
:10242000EB0047CF813029F440E862E182E093E09D
:10243000F1CF833099F70E946D02DC011296ED9086
:10244000FC908E010F5F1F4F6801E114F10479F0D9
:10245000D701ED91FC910680F781E02DB801C7010D
:102460000995080F111DF701E084F184EECFD80122
:102470001C92F60101900020E9F73197BF016C1919
:102480007D0940E0C601C6CF6CEE72E0FB014491CD
:1024900050E080E80E94210409CF973009F4BECFB4
:1024A000983021F481E08093F10000CF993009F059
:1024B000FDCE837009F0B2CFE7E4F1E081E031E0D6
:1024C00096E32191222371F08093E9003093EB0091
:1024D000DF0111972C912093EC009093ED008F5F1A
:1024E000873079F78EE78093EA001092EA008F89AF
:1024F00080930003DBCE8B8D9C8D1092E9001092AF
:10250000800210927F0290937E0280937D02898DDB
:10251000811192C08E899D89913A49F4813209F0E6
:102520007DCF47E050E06EE071E080E0B3CF9132C4
:1025300009F074CF833269F48F89988DB0E0A0E000
:1025400080930A0190930B01A0930C01B0930D01AD
:10255000ADCE803269F48091E80082FFFCCF67E065
:102560008EE091E00E9478048BEF8093E8009ECE8D
:10257000823209F09BCE8F8980931501EEEFFFE741
:10258000859194918B3F9C4D51F1E0E0F8E0809172
:102590000E0190910F01A0911001B0911101803BAB
:1025A0009440A105B105F1F48091150180FD1AC098
:1025B000EE3F8AE0F80789F587E797E79183808304
:1025C000809160008093810288E19BE00FB6F894CF
:1025D000A895809360000FBE9093600067CEEEEFE9
:1025E000FAE0D5CF808191818737974709F05ECE99
:1025F000A89580916000886180936000809181023D
:1026000080936000EE3F2AE0F20789F08091FE0A95
:102610009091FF0A9183808349CE80819181873791
:10262000980751F29093FF0A8093FE0AC5CF10924B
:10263000FF0A1092FE0A3ACE0E946D02DC01129649
:102640000D911C910115110509F4E8CED801ED9109
:10265000FC910190F081E02DBE016B5E7F4FC801BF
:102660000995811123CEF80100851185EBCF18164D
:1026700019060CF41BCED2CEF1E0FF12BECE60EFF5
:1026800072E004CF1F920F920FB60F9211244F9257
:102690005F926F927F928F929F92AF92BF92CF92F2
:1026A000DF92EF92FF920F931F932F933F934F93DD
:1026B0005F936F937F938F939F93AF93BF93CF93CA
:1026C000DF93EF93FF93C0917802D0917902CE010E
:1026D000019790937902809378022097A1F5109248
:1026E000720078948091C100807F84608093C100E3
:1026F00083E08093BF0088EE8093D1001092BF00EA
:102700001092D20081E08093090180917B02909128
:102710007C02892BC1F080917602811114C07090E7
:10272000080180917502882379F1809174028823D1
:1027300059F16091740270E040E088EE93E00E94ED
:10274000D40510927402FF91EF91DF91CF91BF9168
:10275000AF919F918F917F916F915F914F913F9139
:102760002F911F910F91FF90EF90DF90CF90BF902E
:10277000AF909F908F907F906F905F904F900F9051
:102780000FBE0F901F9018955524539470ECA72EF0
:102790007DE5B72EEAE04E2EF4E06F2EA0EDCA2EB6
:1027A000A7E0DA2EB4E0EB2EF12C04EF11E08FE07D
:1027B000882E912C0E948B0520917B0230917C0207
:1027C0002F5F3F4F30937C0220937B02853609F4C4
:1027D00073C00CF047C0813609F4B4C024F58C33C3
:1027E00009F468C08E3309F463C0813209F043C034
:1027F00060920801D0920501C0920401F092070195
:10280000E0920601109303010093020190920101EE
:10281000809200011092750270900801809102016F
:1028200090910301C7CF833609F48FC010E00BE00D
:10283000843614F010E002E04CE0749E000D112488
:102840000E948B05982F977F933209F080C080916A
:102850007B0290917C02019690937C0280937B0294
:102860000F5FEECF8D3609F445C054F4873651F131
:1028700034F18C3651F110927C0210927B0263CFBE
:10288000823709F44CC044F48F36A9F70E94AC0596
:10289000782E809308018ECF843709F443C08637A1
:1028A00051F70E94AC05909301018093000182CF03
:1028B000739480CF7A947ECF10E004E0BDCF10E017
:1028C00005E0BACF10E007E0B7CF0E94AC059093C7
:1028D00007018093060180910401909105016091A8
:1028E0000601709107010E94281F709303016093F5
:1028F000020160CF0E948B058C3661F41092750244
:1029000080917B0290917C02019690937C0280934F
:102910007B0250CF5092750210927402F1CF11E0F9
:1029200000E08ACF0E94AC05BC01C5010E94281FAF
:10293000469EC001479E900D1124909305018093FF
:102940000401C9CF10E009E077CF10E0E9CF8D3264
:1029500069F480917B0290917C02019690937C02B5
:1029600080937B0201500E948B05F1CFE090020121
:10297000F09003018153883058F4E0900401F09006
:1029800005010E94AC05BC01C7010E94281F7B0104
:102990006701D694C7940E948B058E3261F48091B2
:1029A0007B0290917C02019690937C0280937B0243
:1029B000EC0CFD1CEECF80917502882349F0C70115
:1029C000969587958093740280917402E81AF108B5
:1029D000C0900001D0900101111104C00F3F11F00F
:1029E000C11007C040E0B70188EE93E00E94D40513
:1029F000AACE013128F010EF100F103608F01FE5B5
:102A0000812F6CE00E941C1F582F44EF450390015A
:102A10001124210F311D2C30310538F4220F331FC2
:102A2000F901E25DFE4FC081D1818730C1F0082EEF
:102A300002C0CC0FDD1F0A94E2F7823040F0CE01D5
:102A400005966AE070E00E94281FCB0102C0CE010B
:102A500090584C2D403108F04FE0B701C7CFCE0160
:102A600026E0880F991F2A95E1F7029665E070E04D
:102A7000EACF1F920F920FB60F9211242F933F931C
:102A80004F936F937F938F939F938CB1282F30E058
:102A90003595279535952795422F417083B190E064
:102AA00064E0959587956A95E1F78227817020917A
:102AB00072029091710260919102709192022827A6
:102AC0009427291B330B260F371F30939202209334
:102AD00091022091710290917202281729F09417A7
:102AE00019F091E09093700280937102409372020A
:102AF0009F918F917F916F914F913F912F910F9067
:102B00000FBE0F901F9018951F920F920FB60F9245
:102B100011242F933F934F935F936F937F938F93E2
:102B20009F93AF93BF93EF93FF938091B900887FFA
:102B3000803609F44AC0F0F5883209F4A7C018F5C8
:102B4000803109F49BC0B8F4882309F4F9C08830B7
:102B500009F494C0FF91EF91BF91AF919F918F9134
:102B60007F916F915F914F913F912F910F900FBE89
:102B70000F901F901895883109F488C0803251F762
:102B80008093460214C0803409F49DC040F4803321
:102B9000B9F38833F9F68093460285ECB0C08035EE
:102BA00009F485C0883509F496C0883499F60E94E6
:102BB0001A0ED0CF883909F48CC038F5883729F03F
:102BC00050F4883611F0803729F683E0809347026D
:102BD0001092450257C0883809F47BC0803919F03B
:102BE000803809F0B7CF80914502803208F071C07B
:102BF000E091450281E08E0F809345028091BB00F9
:102C0000F0E0EB5DFD4F80833DC0803B39F0E0F4A8
:102C1000803A09F479C0883A09F09CCF84E0809327
:102C200047021092240210922302E0918702F09151
:102C3000880209958091230281110FC081E0809361
:102C400023021092030209C0803C09F4A6CF883CFD
:102C500009F4A3CF883B09F07DCFE091240281E005
:102C60008E0F80932402F0E0ED5FFD4F8081809312
:102C7000BB00909124028091230229C080916C02B4
:102C80008093BB0085EC8093BC0064CF90916B0275
:102C900080916A02981758F5E0916B0281E08E0FDF
:102CA00080936B02F0E0E65BFD4F8081E9CFE0911D
:102CB0006B0281E08E0F80936B028091BB00F0E08D
:102CC000E65BFD4F808390916B0280916A029817BA
:102CD000C8F285E8D8CFE0916B0281E08E0F809337
:102CE0006B028091BB00F0E0E65BFD4F808380913A
:102CF000490281115CCF81E08093480284EA80938D
:102D0000BC001092470226CF85EC8093BC00109245
:102D1000470280914502803230F4E0914502F0E0B4
:102D2000EB5DFD4F10826091450270E0E0918502FD
:102D3000F091860285E292E00995109245020ACF51
:102D40001092460234CFEF92FF920F931F93CF93CE
:102D5000DF93F82E192FE62E042F81E0860F880FBF
:102D60000E94F30383E00E94F303CF2DD12FEC0EDA
:102D7000FD2EF11CCE15DF05B9F007FF13C0FE01D3
:102D800084910E94F303182F80E00E94F3038123B3
:102D900021968111EFCFDF91CF911F910F91FF907D
:102DA000EF9008958881EDCF81E0F5CFCF93DF9349
:102DB000E1E0F3E01382128288EE93E0A0E0B0E05D
:102DC00084839583A683B78321E531E03183208313
:102DD0002FEF3FEF35872487E1E5F3E0138212827E
:102DE00084839583A683B78383E691E09183808370
:102DF000E7E5F4E0128215828DE891E0918380830B
:102E0000E5E4F4E01382128215821482178216829E
:102E1000118610861386128681E891E09183808363
:102E2000CDE5D3E01B821A8248EA50E060E270E010
:102E300081E793E00E94F32010924404109243042F
:102E400088ED9AE09D878C871F861E868DE99BE022
:102E5000998B888B1B8A1A8A81E08A8785E791E0A3
:102E600099838883DF91CF910895CF93DF93CDB776
:102E7000DEB7C056D1090FB6F894DEBF0FBECDBF86
:102E8000789484B5826084BD84B5816084BD85B545
:102E9000826085BD85B5816085BD80916E00816051
:102EA00080936E00109281008091810082608093F7
:102EB00081008091810081608093810080918000F9
:102EC0008160809380008091910082608093910066
:102ED0008091910081608093910080919000816049
:102EE000809390008091C10084608093C1008091A4
:102EF000C10082608093C1008091C1008160809395
:102F0000C1008091C30081608093C3008091C000A4
:102F100082608093C0008091C20081608093C20073
:102F200080917A00846080937A0080917A00826038
:102F300080937A0080917A00816080937A008091FA
:102F40007A00806880937A001092000310928402C5
:102F5000109283028091D70081608093D70080EA2D
:102F60008093D80089B5806189BD89B5826089BDAB
:102F700009B400FEFDCF61E070E080E090E00E94C7
:102F80007E038091D8008F7C80618093D8008091EF
:102F9000E000807F8093E0008091E1008E7E80934E
:102FA000E1008DE08093E200559A209A10928C0205
:102FB00010928B0210928A02109289020E9461087C
:102FC0008CEB93E0909388028093870288EC93E0E7
:102FD000909386028093850282E08093BA008FEFFF
:102FE0009FEF90930E0380930D0381E59AE09093F9
:102FF0008E0280938D0286E79AE0909390028093F0
:103000008F02109244041092430482E19BE090935B
:103010006A038093690310926C0310926B038AEF2A
:103020009BE090936E0380936D0310927003109257
:103030006F0381E08093670360E590E080E00E9489
:10304000410F60E081E090E00E94410F60E082E08B
:1030500090E00E94410F90E080E00E94BD1C8093B0
:10306000E00281E090E00E94BD1C682F70E090E0DB
:1030700080E00E94E81D6093E6027093E70280936F
:10308000E8029093E90282E090E00E94BD1C8093E8
:10309000E50285E0E9E2F1E0DE01119601900D9292
:1030A0008A95E1F7109248041092470410924A045E
:1030B0001092490410924C0410924B0410924E044A
:1030C00010924D04109256041092550485E080939E
:1030D000510480914F0490915004892BC1F080E0FD
:1030E00090915104891708F061C0282F30E0E1E089
:1030F000F0E0EC0FFD1FE20FF31F9081E0914F0411
:10310000F0915004E20FF31F90838F5FE9CF85E0C9
:1031100090E00E94C01F9093500480934F04892B2D
:10312000F1F680ED97E0909354048093530487E583
:1031300094E00E94050F8823D1F36AE070E080E0FC
:1031400090E00E947E0387E594E00E94050F8823AB
:1031500071F384E690E00E94F0068CE99FEF0E94F4
:10316000CA060E94B0036B017C01809149049091D2
:103170004A04892BF9F48091510490E0880F991F3B
:103180000E94C01F90934A0480934904009709F459
:10319000AFC0FC0190E080E020915104281719068F
:1031A00049F044F0119211920196F6CF8BE0809392
:1031B0005204B7CF8091470490914804892BF9F4C9
:1031C0008091510490E0880F991F0E94C01F909336
:1031D000480480934704009709F48AC0FC0190E0FA
:1031E00080E0209151042817190649F044F02091FD
:1031F000530430915404219331930196F2CF10E09F
:1032000000E00E944803BE016F5B7F4F85E494E0BD
:103210000E9483070E94370360905104712CCE01F5
:1032200001964C019E012F5D3F4FDE01AF5BBF4F0A
:103230005D012901DC0150E040E04615570524F509
:10324000F501819191915F010115110599F0F2014C
:10325000608171816817790768F06D917C91119791
:103260008617970768F04F5F5F4F1296F2E04F0E98
:10327000511CE3CFF201918380830115110569F799
:1032800011969C938E93EFCF0F5F1F4F0A3011055D
:1032900009F0B7CFA0914704B091480400914904C8
:1032A00010914A0490E080E04091510448171906BB
:1032B000F9F0F4F0F401419151914F01F80160816E
:1032C00071816417750710F451834083F9014191AE
:1032D00051919F016D917C9111974617570718F4F2
:1032E00011965C934E93019612960E5F1F4FDCCFA2
:1032F0000E94B0036C197D098E099F09603A7F40D6
:103300008105910508F431CF90E080E00E94F0063D
:1033100090E080E00E94CA0675E0472E512C612C97
:10332000712C11E0C090E602D090E702E090E80234
:10333000F090E90220E030E04FE753E4C701B60126
:103340000E94761E87FD15C08091E5028F5F8093F5
:10335000E50220E030E04FE753E4C701B6010E94E8
:10336000D31C6093E6027093E7028093E802909387
:10337000E90280919302811104C0109393020E948C
:103380003F07F894E0909102F0909202109292021E
:1033900010929102789480919302811104C010934D
:1033A00093020E943F07F894209094023090950277
:1033B000109295021092940278948090E602909078
:1033C000E702A090E802B090E902B701F7FE03C05F
:1033D000719561957109072E000C880B990B0E945D
:1033E000EA1D26E53EE049E450E40E947B1E27E703
:1033F0003EEB4FE15DE30E947B1E20E030E843E6B8
:1034000054E40E94401D6B017C01B10137FE03C0F2
:10341000719561957109072E000C880B990B0E941C
:10342000EA1D26E53EE049E450E40E947B1E27E7C2
:103430003EEB4FE15DE30E947B1E20E030E843E677
:1034400054E40E94401D9B01AC01C701B6010E94DB
:10345000D41C20E030E040E251E40E947B1E20E0DA
:1034600030E040E05FE30E947B1EA50194010E94D2
:10347000D41C6B017C01C501B4010E94B91D81E01F
:1034800090E00E94410F6091E50282E090E00E948E
:10349000410FC092E602D092E702E092E802F09279
:1034A000E9026091E5022FEF629FB0011124072E1F
:1034B000000C880B990B0E94EA1DA70196010E943F
:1034C000D41C0E94B91D6093E1027093E2028093C4
:1034D000E3029093E402A30192010E94501F50E581
:1034E000F52EF21A6F2D90E080E00E94410FF092CD
:1034F000E0021092190410921A0468E2E62E63E0CA
:10350000F62EF7016491662349F08DE593E00E9461
:10351000D90EFFEFEF1AFF0A892B99F710921904C1
:1035200010931A046091E00270E090E080E04AE0BD
:103530000E94C00D1092190423E020931A0462E93E
:1035400071E08DE593E00E94060E1092190484E06C
:1035500080931A046091E1027091E2028091E3028B
:103560009091E4024AE00E94C00D63EA71E08DE5AB
:1035700093E00E94B10D0091DF02033009F427C1EE
:1035800078F4013009F45EC0023009F4EEC090E036
:1035900080E00E94F00690E080E00E94CA06C4C06D
:1035A000043009F475C1053091F748EA50E060E253
:1035B00070E081E793E00E94F320109219041092CA
:1035C0001A048091680381112AC0809166038111D9
:1035D00004C08DE593E00E94710E809167038823FB
:1035E00021F08DE593E00E94680B20916B033091F0
:1035F0006C03C90195958795835A9C4FE0916903A7
:10360000F0916A0320FF08C0DC012D913C91E20F8C
:10361000F31F0190F081E02D09951092680363EC8F
:1036200071E08DE593E00E94060E1093960290E003
:1036300080E00E94F00690E080E00E94CA061092AE
:10364000DF0272C08091D70281110CC00E94B003CA
:103650006093D3027093D4028093D5029093D602E4
:103660000093D7020E94AF0C89EC92E00E944A0CB2
:103670008091C9029091CA02843893400CF45CC0D6
:103680001093C80289EC92E00E944A0C8091C90212
:103690009091CA0280329340ECF08091C702813051
:1036A000C9F48CE99FEF0E94F00684E690E00E9446
:1036B000CA060E94B0036093D3027093D402809331
:1036C000D5029093D6021092220110922101E2E0DD
:1036D000E093C7028091220181111DC00E94B003B6
:1036E000C090D302D090D402E090D502F090D602E0
:1036F0006C197D098E099F09643F71408105910510
:1037000050F01093220167EA71E081E093E00E949B
:10371000060E109321018091C702843028F0109288
:10372000C70224E02093DF02E0E0F0E0EF2B09F491
:10373000F9CD0E940000F6CD89EC92E00E944A0C7F
:103740008091C9029091CA02843691050CF09ACFFB
:103750008091C802882309F495CF8091C7028F5FBA
:103760008093C7021092C8028DCFF090C60281E00C
:103770008F1510F00E94AF0C89EC92E00E944A0C69
:103780008091C9029091CA028438934064F01093EA
:10379000C5028091C602823038F21092C602B4E0AF
:1037A000B093DF02C1CF89EC92E00E944A0C809175
:1037B000C9029091CA02892B61F78091C5028823C2
:1037C00041F3F394F092C6021092C502E2CF8091C9
:1037D000BD0281110CC00E94B0036093B9027093C6
:1037E000BA028093BB029093BC021093BD0289EC95
:1037F00092E00E944A0C8091C9029091CA028438DA
:103800009340D4F00E94B0036093B9027093BA025F
:103810008093BB029093BC0286E990E00E94F00680
:103820008CE99FEF0E94CA0665EB71E081E093E0AE
:103830000E94060E1093B8020E94B003C090B90215
:10384000D090BA02E090BB02F090BC026C197D09E6
:103850008E099F09643F71408105910520F0809198
:10386000B80281110FC00E94B0036C197D098E0946
:103870009F09643F71408105910508F455CF0E946E
:10388000AF0C52CF84E08093DF021092B8024CCF8D
:103890008091B00281110CC00E94B0036093AC0211
:1038A0007093AD028093AE029093AF021093B0027A
:1038B0000E94AF0C80912001882361F00E94B00328
:1038C0006093AC027093AD028093AE029093AF020E
:1038D000109220010E94B003C090AC02D090AD02C3
:1038E000E090AE02F090AF026C197D098E099F093D
:1038F000603D77408105910508F416CFE091AB0259
:10390000EF5FE093AB0210932001F0E0EE0FFF1F9A
:10391000E956FD4F80818093DF0206CF87E891E072
:10392000909346048093450480914F0490915004F5
:10393000009711F00E945C208091490490914A0404
:10394000009711F00E945C2080914D0490914E04EC
:10395000009711F00E945C208091470490914804E8
:10396000009711F00E945C2080914B0490914C04D0
:10397000009711F00C945C200895F999FECF92BD48
:1039800081BDF89A992780B50895262FF999FECF21
:103990001FBA92BD81BD20BD0FB6F894FA9AF99A6C
:1039A0000FBE019608955058BB27AA270E94EB1C12
:1039B0000C943C1E0E942E1E38F00E94351E20F0F2
:1039C00039F49F3F19F426F40C942B1E0EF4E09565
:1039D000E7FB0C94251EE92F0E944D1E58F3BA17E1
:1039E000620773078407950720F079F4A6F50C9415
:1039F0006F1E0EF4E0950B2EBA2FA02D0B01B9010E
:103A000090010C01CA01A0011124FF27591B99F054
:103A1000593F50F4503E68F11A16F040A22F232F60
:103A2000342F4427585FF3CF469537952795A795B0
:103A3000F0405395C9F77EF41F16BA0B620B730B57
:103A4000840BBAF09150A1F0FF0FBB1F661F771FC8
:103A5000881FC2F70EC0BA0F621F731F841F48F47D
:103A6000879577956795B795F7959E3F08F0B0CF06
:103A70009395880F08F09927EE0F979587950895ED
:103A80000E94541D0C943C1E0E94351E58F00E944A
:103A90002E1E40F029F45F3F29F00C94251E511191
:103AA0000C94701E0C942B1E0E944D1E68F39923DB
:103AB000B1F3552391F3951B550BBB27AA2762172A
:103AC0007307840738F09F5F5F4F220F331F441F37
:103AD000AA1FA9F335D00E2E3AF0E0E832D091506B
:103AE0005040E695001CCAF72BD0FE2F29D0660F58
:103AF000771F881FBB1F261737074807AB07B0E89B
:103B000009F0BB0B802DBF01FF2793585F4F3AF0A0
:103B10009E3F510578F00C94251E0C94701E5F3F5B
:103B2000E4F3983ED4F3869577956795B795F79526
:103B30009F5FC9F7880F911D9695879597F908950E
:103B4000E1E0660F771F881FBB1F621773078407AA
:103B5000BA0720F0621B730B840BBA0BEE1F88F7B9
:103B6000E09508950E94B91D6894B1110C94701EDF
:103B700008950E94551E88F09F5798F0B92F9927F5
:103B8000B751B0F0E1F0660F771F881F991F1AF048
:103B9000BA95C9F714C0B13091F00E946F1EB1E020
:103BA00008950C946F1E672F782F8827B85F39F01F
:103BB000B93FCCF3869577956795B395D9F73EF4E1
:103BC00090958095709561957F4F8F4F9F4F089589
:103BD000E89409C097FB3EF49095809570956195A7
:103BE0007F4F8F4F9F4F9923A9F0F92F96E9BB275D
:103BF0009395F695879577956795B795F111F8CFD9
:103C0000FAF4BB0F11F460FF1BC06F5F7F4F8F4F43
:103C10009F4F16C0882311F096E911C0772321F039
:103C20009EE8872F762F05C0662371F096E8862FD1
:103C300070E060E02AF09A95660F771F881FDAF728
:103C4000880F9695879597F9089597F99F6780E86B
:103C500070E060E008959FEF80EC089500240A94DE
:103C60001616170618060906089500240A94121657
:103C70001306140605060895092E0394000C11F48A
:103C8000882352F0BB0F40F4BF2B11F460FF04C037
:103C90006F5F7F4F8F4F9F4F089557FD9058440F90
:103CA000551F59F05F3F71F04795880F97FB991F9B
:103CB00061F09F3F79F08795089512161306140658
:103CC000551FF2CF4695F1DF08C0161617061806E5
:103CD000991FF1CF86957105610508940895E894C0
:103CE000BB2766277727CB0197F908950E94E81E26
:103CF00008F48FEF08950E948E1E0C943C1E0E94C3
:103D00002E1E38F00E94351E20F0952311F00C94E1
:103D1000251E0C942B1E11240C94701E0E944D1E07
:103D200070F3959FC1F3950F50E0551F629FF0010E
:103D3000729FBB27F00DB11D639FAA27F00DB11D27
:103D4000AA1F649F6627B00DA11D661F829F2227B0
:103D5000B00DA11D621F739FB00DA11D621F839F37
:103D6000A00D611D221F749F3327A00D611D231F0D
:103D7000849F600D211D822F762F6A2F11249F575B
:103D800050409AF0F1F088234AF0EE0FFF1FBB1F5E
:103D9000661F771F881F91505040A9F79E3F51051D
:103DA00080F00C94251E0C94701E5F3FE4F3983E47
:103DB000D4F3869577956795B795F795E7959F5FC7
:103DC000C1F7FE2B880F911D9695879597F9089559
:103DD000990F0008550FAA0BE0E8FEEF161617061C
:103DE000E807F907C0F012161306E407F50798F084
:103DF000621B730B840B950B39F40A2661F0232B9D
:103E0000242B252B21F408950A2609F4A140A69518
:103E10008FEF811D811D0895DB018F939F930E9479
:103E2000B51FBF91AF91A29F800D911DA39F900DD3
:103E3000B29F900D11240895991B79E004C0991F39
:103E4000961708F0961B881F7A95C9F780950895F4
:103E5000AA1BBB1B51E107C0AA1FBB1FA617B707B0
:103E600010F0A61BB70B881F991F5A95A9F78095CC
:103E70009095BC01CD01089597FB072E16F4009490
:103E800007D077FD09D00E94281F07FC05D03EF41B
:103E9000909581959F4F0895709561957F4F0895F6
:103EA000A1E21A2EAA1BBB1BFD010DC0AA1FBB1F3E
:103EB000EE1FFF1FA217B307E407F50720F0A21BB0
:103EC000B30BE40BF50B661F771F881F991F1A941D
:103ED00069F760957095809590959B01AC01BD0147
:103EE000CF010895052E97FB1EF400940E94891FB0
:103EF00057FD07D00E94501F07FC03D04EF40C94CE
:103F0000891F50954095309521953F4F4F4F5F4FFA
:103F1000089590958095709561957F4F8F4F9F4F35
:103F20000895EE0FFF1F0590F491E02D09940E9473
:103F30009F1F332312F48A1B9B0B0C94B01FA29F6C
:103F4000B001B39FC001A39F700D811D1124911D6D
:103F5000B29F700D811D1124911D08950E949F1F15
:103F6000B7FF0895821B930B08950E949F1FA59F82
:103F7000900DB49F900DA49F800D911D1124089564
:103F80000F931F93CF93DF938230910510F482E05B
:103F900090E0E0916104F091620430E020E0B0E054
:103FA000A0E0309799F42115310509F44AC0281B87
:103FB000390B24303105D8F58A819B816115710553
:103FC00089F1FB0193838283FE0111C040815181FD
:103FD0000281138148175907E0F04817590799F4EF
:103FE000109761F012960C93129713961C933296C9
:103FF000CF01DF91CF911F910F910895009361043C
:1040000010936204F4CF2115310551F04217530784
:1040100038F0A901DB019A01BD01DF01F801C1CF30
:10402000EF01F9CF9093620480936104CDCFFE013C
:10403000E20FF31F81939193225031093983288332
:10404000D7CF20915F0430916004232B41F420915D
:104050002501309126013093600420935F04209164
:104060002301309124012115310541F42DB73EB7CC
:104070004091270150912801241B350BE0915F04EA
:10408000F0916004E217F307A0F42E1B3F0B2817F2
:10409000390778F0AC014E5F5F4F2417350748F0C1
:1040A0004E0F5F1F5093600440935F048193919380
:1040B0009FCFF0E0E0E09CCFCF93DF930097E9F053
:1040C000FC01329713821282A0916104B0916204C4
:1040D000ED0130E020E01097A1F420813181820FC2
:1040E000931F20915F04309160042817390709F06D
:1040F00061C0F0936004E0935F04DF91CF91089575
:10410000EA01CE17DF07E8F54A815B819E01411580
:104110005105B1F7E901FB83EA8349915991C40F35
:10412000D51FEC17FD0761F4808191810296840F01
:10413000951FE90199838883828193819B838A8378
:10414000F0E0E0E012968D919C9113970097B9F5FD
:104150002D913C911197CD010296820F931F2091D2
:104160005F04309160042817390739F6309751F50C
:104170001092620410926104B0936004A0935F04F3
:10418000BCCFD383C28340815181840F951FC81750
:10419000D90761F44E5F5F4F88819981480F591F9D
:1041A000518340838A819B819383828321153105CA
:1041B00009F0B0CFF0936204E09361049ECFFD015B
:1041C000DC01C0CF13821282D7CF81E090E0F89457
:1041D0000C94FA20FB01DC0102C001900D924150C9
:1041E0005040D8F70895DC0101C06D934150504014
:1041F000E0F7089511E0C6EDD1E004C0FE010E9491
:0E420000911F2196C73DD107C9F7F894FFCF53
:10420E000F00F401D00704000401FFFFFFFF00E1DF
:10421E00000000000000F203F203F203F203F203C7
:10422E00010101000063048000121415040C9C01AE
:10423E00B501CF01EA0107022602470269028E028A
:10424E00B502DE020A0300C18081000000000000FA
:10425E00000A0585042B05200571052F054D050067
:10426E00000000B408A908470C7F08A2088F088038
:10427E000800000000D90E430F470C460C0000004A
:10428E0000830700000000AF0D00000000050F0DB9
:10429E000A0044697374616E63652064726F76659B
:1042AE003B20006B6D20007475726E20436F6D7035
:1042BE006C657465007472756E696E6720526967FD
:0C42CE006874004348415247494E4700C5
:00000001FF
