:100000000C94D3010C9489110C9462110C943B1143
:100010000C9414110C94FB010C94FB010C94ED1046
:100020000C94FB010C9448160C94B0110C941F1204
:100030000C94FB010C94FB010C94FB010C94FB0150
:100040000C94FB010C94FB010C94FB010C94FB0140
:100050000C94FB010C94FB010C94FB010C94A31079
:100060000C94FB010C94FB010C94FB010C94FB0120
:100070000C94FB010C94FB010C94FB010C94FB0110
:100080000C94FB010C94FB010C94FB010C94FB0100
:100090000C9493160C94FB010C94FB010C94FB0143
:1000A0000C94FB010C9451140C94FB010000000013
:1000B0000000004F00000007000700147F147F14A9
:1000C000242A7F2A122313086462364955225000DD
:1000D00000070000001C2241000041221C001408FF
:1000E0003E081408083E08080050300000080808C0
:1000F0000808006060000020100804023E514945D5
:100100003E00427F400042615149462141454B310A
:100110001814127F1027454545393C4A4949300398
:10012000017109073649494936064949291E0036F1
:100130003600000056360000081422410014141442
:100140001414004122140802015109063249794170
:100150003E7E1111117E7F494949363E414141227F
:100160007F4141413E7F494949417F090909013E9B
:100170004149497A7F0808087F00417F41002040BB
:10018000413F017F081422417F404040407F020CE4
:10019000027F7F0408107F3E4141413E7F090909EB
:1001A000063E4151215E7F09192946464949493198
:1001B00001017F01013F4040403F1F2040201F3F81
:1001C0004038403F63140814630708700807615102
:1001D000494543007F41410002040810200041418D
:1001E0007F0004020102044040404040000102043C
:1001F0000020545454787F484444383844444420C0
:10020000384444487F3854545418087E0901020C7D
:100210005252523E7F0804047800447D4000204042
:10022000443D007F1028440000417F40007C0418BA
:1002300004787C0804047838444444387C1414144A
:1002400008081414187C7C080404084854545420EA
:10025000043F4440203C4040207C1C2040201C3C6B
:100260004038403C44281028440C5050503C4464D2
:10027000544C44000836410000007F000000413625
:1002800008000C02040806081C2A080800030C0FCA
:1002900030333C3FC0C3CCCFF0F3FCFF0000000084
:1002A0002300260029002C002F00080B0002020268
:1002B00000000904000001020200000524001001F2
:1002C0000524010101042402060524060001070596
:1002D000810310004009040100020A000000070524
:1002E00002024000000705830240000004030904E5
:1002F00012010002EF020140FB1F00230001010276
:100300000301506F6C6F6C7520436F72706F726178
:1003100074696F6E00506F6C6F6C7520412D537453
:1003200061722033325534000000000024002700A1
:100330002A002D00300000000000250028002B00BE
:100340002E00310004040404040304050202020226
:10035000040302020202060606060606040402025E
:100360000204040408020110408040102040804034
:1003700080080204018040201002011080102040FB
:1003800040200000000200090F0000030401000CDF
:10039000000000000000000000000000000000005D
:1003A0000000E5177C1D11241FBECFEFDAE0DEBF91
:1003B000CDBF11E0A0E0B1E0EEEFF3E402C00590A4
:1003C0000D92A83CB107D9F724E0A8ECB1E001C038
:1003D0001D92AF38B207E1F711E0C2EDD1E004C0E1
:1003E0002197FE010E948920C13DD107C9F70E94D3
:1003F00044180C94F2210C9400005B9887FD5D9AE0
:1004000087FF5D985B9A5B9886FD5D9A86FF5D9895
:100410005B9A5B9885FD5D9A85FF5D985B9A5B981A
:1004200084FD5D9A84FF5D985B9A5B9883FD5D9A7D
:1004300083FF5D985B9A5B9882FD5D9A82FF5D9871
:100440005B9A5B9881FD5D9A81FF5D985B9A5B98F2
:1004500080FD5D9A80FF5D985B9A0895FC01809114
:100460002C03882311F13FB7F89482E08093E900D0
:100470002091F200822F90E01816190614F481E002
:1004800090E0882339F0289844E640932B0340916C
:10049000F1004083222339F02091F200211103C0A2
:1004A0002BE62093E8003FBF08958FEF9FEF08955C
:1004B0002FB7F89483E08093E9009091E800892FAA
:1004C000807295FF04C09091F20080E4891B2FBFD9
:1004D00008958091230381110DC082E080931F0352
:1004E00084E080932003109222031092210381E084
:1004F000809323038FE193E0089581508F3008F0BB
:1005000047C0E82FF0E0E957FD4F0C948920A40282
:10051000A80296029C02A002C802C802C802AB024E
:10052000B102B502B902BF02C802C30280918000C5
:100530008F77809380000895809180008F7DF9CF20
:1005400080918000877FF5CF84B58F7784BD089533
:1005500084B58F7DFBCF809190008F778093900042
:100560000895809190008F7DF9CF80919000877FD2
:10057000F5CF8091C0008F778093C000089580915F
:10058000C0008F7DF9CF8091C200877F8093C20029
:1005900008951F93CF93DF93282F30E0F901EE5792
:1005A000FC4F8491F901ED59FC4FD491F901EC5BBA
:1005B000FC4FC491CC23A9F0162F81110E947D021B
:1005C000EC2FF0E0EE0FFF1FEA5CFC4FA591B49119
:1005D0008FB7F894EC91111108C0D095DE23DC930D
:1005E0008FBFDF91CF911F910895DE2BF8CFCF936E
:1005F000DF9390E0FC01ED59FC4F24918C5B9C4F04
:10060000FC0184918823C9F090E0880F991FFC01B8
:10061000E85DFC4FA591B491FC01EA5CFC4FC591EB
:10062000D49161110DC09FB7F8948C9120958223CD
:100630008C938881282328839FBFDF91CF910895D1
:10064000623051F49FB7F8943C91822F80958323B8
:100650008C93E8812E2BEFCF8FB7F894EC912E2B53
:100660002C938FBFEACF80917E048F3F61F061E0D1
:100670000E94F70260E080917E040E94C9028BE133
:1006800093E00197F1F7089580917E048F3F61F028
:1006900061E00E94F70261E080917E040E94C9023D
:1006A0008BE193E00197F1F708953FB7F8948091BB
:1006B0001B0390911C03A0911D03B0911E0326B54E
:1006C000A89B05C02F3F19F00196A11DB11D3FBF8A
:1006D000BA2FA92F982F8827BC01CD01620F711D59
:1006E000811D911D42E0660F771F881F991F4A9553
:1006F000D1F708958F929F92AF92BF92CF92DF92DF
:10070000EF92FF924B015C010E9455036B017C014B
:100710000E9455036C197D098E099F09683E73403C
:1007200081059105A8F321E0821A9108A108B1087A
:1007300088EEC80E83E0D81EE11CF11C81149104E0
:10074000A104B10429F7FF90EF90DF90CF90BF9004
:10075000AF909F908F9008952FB7F89460911703F2
:10076000709118038091190390911A032FBF089577
:10077000E0918802F0918902309729F01092850269
:100780001092840209940895CF93DF93AC01E09115
:100790008A02F0918B023097F1F09091870280915C
:1007A00086029817C0F090E0292F30E0261737070F
:1007B00054F4D901A852BE4F240F351FE9012881F6
:1007C0002C939F5FF1CF1092870260938602CB013A
:1007D000DF91CF910994DF91CF91089508954091D1
:1007E0007A0250917B02209178023091790242176F
:1007F0005307B4F49091E8009570E1F39091E8000C
:1008000092FD19C08093F10080917A0290917B0251
:1008100001968F739927892B19F48EEF8093E80046
:1008200080917A0290917B02019690937B02809353
:100830007A0281E0089580E00895DF92EF92FF92BE
:100840000F931F93CF93DF93D82E8A01EB017B0187
:10085000E40EF51ECE15DF0559F0D7FE12C0FE01DD
:1008600084910E94EF0321968111F4CF0FEF1FEFC7
:10087000C801DF91CF911F910F91FF90EF90DF9012
:1008800008958881EECF0F931F93CF93DF931F922C
:10089000CDB7DEB782E0898342E450E06AEA72E0D5
:1008A00080E80E941D040E946902DC0112960D91ED
:1008B0001C910115110589F0D801ED91FC91028080
:1008C000F381E02DBE016F5F7F4FC801099597FD51
:1008D00004C0F80100851185ECCF89810F90DF916C
:1008E000CF911F910F910895615030F02091F10048
:1008F000FC0120830196F8CF289884E680932B038F
:1009000008958F929F92AF92BF92CF92DF92EF9213
:10091000FF920F931F93CF93DF936C017B018A01AA
:1009200080911601882309F45CC080912C038823F0
:1009300009F457C080917E0280FF05C08091E000DD
:1009400082608093E000E801B12C8AEFA82E93E04A
:10095000892E2AE3922E209711F4BB20D9F10E9410
:10096000580281110AC0AA94AA20D9F161E070E06E
:1009700080E090E00E947A03EECF8C171D0611F004
:100980000CF08C2F9FB7F8948092E9002091E8003A
:1009900025FD02C09FBFDFCF282F30E0C21BD30B45
:1009A000F701815020F041914093F100FACFE20E1F
:1009B000F31EBB2021F09092E800B12CEBCF809188
:1009C000E80085FDE7CF9092E800BB24B394209720
:1009D00009F3F3CF5D9884E680937D02101611062B
:1009E0003CF081E090E0F6019383828310E000E028
:1009F000C801DF91CF911F910F91FF90EF90DF9091
:100A0000CF90BF90AF909F908F900895CF93DF933A
:100A10001F92CDB7DEB76983DC01ED91FC910280B6
:100A2000F381E02D41E050E0BE016F5F7F4F0995FB
:100A30000F90DF91CF91089583E08093E90080913A
:100A4000F200882319F08AE38093E80008950E9459
:100A5000580290E00895CF93DF931F92CDB7DEB791
:100A6000FC018485958597FD08C02FEF3FEF358702
:100A700024870F90DF91CF910895CE0101960E94B7
:100A80002E02019719F4898190E0F3CF8FEF9FEF49
:100A9000F0CF0F931F93CF93DF931F92CDB7DEB7A5
:100AA0008C01FC018485958597FF0BC0CE010196D2
:100AB0000E942E02019771F4898190E0F8019587D8
:100AC0008487F801848595850F90DF91CF911F91E0
:100AD0000F9108958FEF9FEFF1CFFC0184859585ED
:100AE00097FD0BC09FB7F89482E08093E900809156
:100AF000F2009FBF90E0019608959FB7F89482E0BE
:100B00008093E9008091F2009FBF90E0089580916A
:100B10007502E0917602F0917702882339F0849192
:100B20009FEB980F9A3120F4805E08958081F8CF72
:100B3000803269F42091760230917702A9014F5FEB
:100B40005F4F5093770240937602232B01F708956D
:100B50001F93CF93DF930E948705D0E0C0E01AE097
:100B600090ED980F9A30B8F41C9F90011D9F300DA6
:100B70001124E901C80FD11D87FDDA95E097809116
:100B80007602909177020196909377028093760295
:100B90000E948705E5CFCE01DF91CF911F91089587
:100BA0003F924F925F926F927F928F929F92AF92FD
:100BB000BF92CF92DF92EF92FF920F931F93CF934A
:100BC000DF937B01D42E2091720221111BC021E002
:100BD00020937202109272001092C00034E03093A1
:100BE000C10039E03093C2002093C30023E020937A
:100BF000BF0028EE2093D1001092BF001092D200C7
:100C0000579A789410920A01CC24C39497FF03C09A
:100C10009F77AAE0CA2EC8E2CC9EC02D1124D0E056
:100C20008C179D0750F021E0EC01C21206C0C131C3
:100C300087E2D80710F0C0E1D7E24E01B12CA12C19
:100C40004C2C512C712C612C9E01AFEFB7E00E940F
:100C50009720640D751D861D971D96958795779530
:100C60006795A30192010E94482060E072E18AE743
:100C700090E0312C3394621773078407950728F0AE
:100C80009695879577956795F5CFA30192010E9478
:100C900004209E0136952795620F731F811D911DBB
:100CA000A50194010E944820722E022F132F2AE0E2
:100CB000C21207C0CE0105966AE070E00E942020B3
:100CC000EB01C83E83E0D80759F09701DE010E948E
:100CD000972028EE33E040E050E00E946A2079013E
:100CE000109272008091C100807F83298093C1009F
:100CF0001093BF007092D1004D2D403108F04FE0AD
:100D000080E190E0841B910902C0169507958A95B1
:100D1000E2F71093BF000093D200F0927402E092C9
:100D2000730289B38FEF89BB84E080937200DF91F7
:100D3000CF911F910F91FF90EF90DF90CF90BF90D8
:100D4000AF909F908F907F906F905F904F903F906B
:100D500008952E98269A2D98259A2A98229A2998AD
:100D6000219A80EA8093800081E18093810080E96C
:100D700091E09093870080938600109289001092F2
:100D8000880010928B0010928A0008950F931F9391
:100D9000CF93DF938C01EB0180916E02811105C02E
:100DA00081E080936E020E94A90680E017FF04C0D4
:100DB00011950195110981E0013991E0190714F0AD
:100DC00000E911E010938B0000938A00882329F139
:100DD0002A9A229A80916E02811105C081E0809347
:100DE0006E020E94A90680E0D7FF04C0D195C1958C
:100DF000D10981E0C13991E0D90714F0C0E9D1E00F
:100E0000D0938900C0938800882349F0299A219AB9
:100E1000DF91CF911F910F9108952A98DACF2998E9
:100E2000F6CF9FB191708CB186FB882780F9892716
:100E300020916A023091690240918F025091900294
:100E400028273927231B330B240F351F309390029B
:100E500020938F023091690220916A02381729F09D
:100E6000291719F021E0209368028093690290937A
:100E70006A02089524982C9A6A98729A6E98769AC3
:100E80008098889A81E08093680090E190936B004D
:100E90008BBB81E197E09093200180931F01EAE6EC
:100EA000F0E080818F7C80618083EE9A8CB182FB40
:100EB000882780F980936D0293B180916D0292959D
:100EC0009170892780936C0210928D0210928C028F
:100ED00010926B028FB1817080936A029CB18091F5
:100EE0006A0296FB992790F98927809369021092EC
:100EF000900210928F021092680208955F926F9292
:100F00007F928F929F92AF92BF92CF92DF92EF9299
:100F1000FF920F931F93CF93DF93FC0122853385BC
:100F2000232B09F492C06B01EC0110E08C8518179B
:100F3000E8F4E12EF12C8E859F85F701EE0FFF1F5F
:100F4000EC0DFD1D91838083EA85FB85EE0DFF1D71
:100F500061E080810E94C902EA85FB85EE0DFF1DDC
:100F600061E080810E94F7021F5FE0CF83E290E0A2
:100F70000197F1F710E08C851817A0F4E12EF12C01
:100F8000EA85FB85EE0DFF1D60E080810E94F7027F
:100F9000EA85FB85EE0DFF1D60E080810E94C9029D
:100FA0001F5FE9CF0E9455034B015C010E9455036E
:100FB000AB01BC01481959096A097B098E859F85D7
:100FC000B0E0A0E0481759076A077B0708F03DC06A
:100FD0000E9455037B01E818F908612C8C8568167E
:100FE00028F7062D10E0EA85FB85E00FF11F208130
:100FF00030E0F901EE57FC4F8491F901ED59FC4FB7
:101000007490F901EC5BFC4F549051100CC0000F30
:10101000111FF601E00FF11F80819181E816F9069A
:1010200088F06394DBCF81110E947D02E52DF0E012
:10103000EE0FFF1FE456FD4FA591B491EC917E2277
:1010400031F3EFCFF182E082ECCFDF91CF911F91AE
:101050000F91FF90EF90DF90CF90BF90AF909F9057
:101060008F907F906F905F90089520911E02260FC1
:101070003327331F21323105ECF420914202FC0169
:1010800090E080E0243069F082E00895A0911E0293
:101090002191AC0142505E4FA40FB52FB11D2C938E
:1010A0000196861798F380911E02680F60931E02C6
:1010B00080E0089581E008951092420281E08093DB
:1010C00044021092430261E082E00E94C90261E0A2
:1010D00083E00E94C902E9EBF0E080818E7F80838B
:1010E00080818D7F808388E48093B80085E480933D
:1010F000BC0008950895E091870280918602E81768
:1011000030F4F0E0E852FE4F808190E008958FEFD8
:101110009FEF089590918702809186022FEF3FEF15
:10112000981748F4E92FF0E0E852FE4F208130E0B4
:101130009F5F90938702C9010895809186029091E4
:101140008702891B990B0895CF93DF93CB01EA01A6
:10115000642F0E943508CE01DF91CF910895CF937F
:10116000DF931F92CDB7DEB7698361E0CE010196B0
:101170000E94350881E090E00F90DF91CF910895B3
:10118000289A209A08952898209A08955F926F923D
:101190007F928F929F92AF92BF92CF92DF92EF9207
:1011A000FF920F931F93CF93DF935C01D62FC42F31
:1011B000F22E132F0E94C3088D2F806B0E94FD0119
:1011C0008C2F82958F7080610E94FD018C2F8F7013
:1011D0000E94FD010E94C008CF2DD12F0C0F1D2FA2
:1011E000111D95E0692EC017D10709F444C079900C
:1011F000872D8052990B9C01629EC001639E900DC9
:101200001124769C40011124F12CE12C9C012455E1
:101210003F4F69013FE1371508F5F601EE0DFF1D5F
:10122000E491F0E084E0F595E7958A95E1F7E457DD
:10123000FD4F5490852D0E94FD01852D0E94FD01DA
:101240009FEFE91AF90A25E0E216F10419F780E0A8
:101250000E94FD0180E00E94FD01C5CF87E0E0E033
:101260008715F8F2F401EE0DFF1DE254FF4FEA0D71
:10127000FB1DE081D6CFDF91CF911F910F91FF90A1
:10128000EF90DF90CF90BF90AF909F908F907F9026
:101290006F905F9008955F926F927F928F929F926E
:1012A000AF92BF92CF92DF92EF92FF920F931F9374
:1012B000CF93DF935C01D62FC42FF22E132F0E9401
:1012C000C3088D2F806B0E94FD018C2F82958F703B
:1012D00080610E94FD018C2F8F700E94FD010E9491
:1012E000C008CF2DD12F0C0F1D2F111D85E0682EAA
:1012F000C017D10709F440C07990872D8052990B0F
:101300009C01629EC001639E900D1124769C400159
:101310001124F12CE12C9C0124553F4F69013FE140
:101320003715E8F4F601EE0DFF1DE491EF70F0E0E3
:10133000E457FD4F5490852D0E94FD01852D0E949C
:10134000FD019FEFE91AF90A25E0E216F10439F7E9
:1013500080E00E94FD0180E00E94FD01C9CF87E08E
:10136000E0E0871518F3F401EE0DFF1DE254FF4F86
:10137000EA0DFB1DE081DACFDF91CF911F910F9134
:10138000FF90EF90DF90CF90BF90AF909F908F90A5
:101390007F906F905F9008956F927F928F929F924F
:1013A000AF92BF92CF92DF92EF92FF920F931F9373
:1013B000CF93DF935C01D62FC42FF22E132F0E9400
:1013C000C3088D2F806B0E94FD018C2F82958F703A
:1013D00080610E94FD018C2F8F700E94FD010E9490
:1013E000C008CF2DD12F0C0F1D2F111D85E0682EA9
:1013F000C017D107A9F17990872D8052990B9C01D4
:10140000629EC001639E900D1124769C40011124C0
:10141000F12CE12C9C0124553F4F69013FE1371528
:1014200088F4F601EE0DFF1D84910E94FD019FEFEF
:10143000E91AF90A25E0E216F10481F780E00E943A
:10144000FD01D6CF87E0871548F0F701E80DF91DBB
:10145000E254FF4FEA0DFB1D8081E7CF80E0E5CF2E
:10146000DF91CF911F910F91FF90EF90DF90CF9080
:10147000BF90AF909F908F907F906F900895282F8E
:1014800021FB0EF0209820FB0EF028980EF4289AED
:1014900021FB0EF4209A0895809186029091870294
:1014A000891B990B18161906FCF48DE793E00E942E
:1014B0008A0890919202E92FF0E0EE0FFF1FE056AC
:1014C000FD4F482F4053550B518340839F5F9093AE
:1014D0009202809100018823F9F28091A00280930A
:1014E000100310920001D8CF0895CF93DF93EC0141
:1014F000288121FB0EF0559820FB0EF05D980EF42C
:101500005D9A21FB0EF4559A89810E943F0AE9EE0B
:10151000F0E010828C818093F0008B8180838A813F
:101520008093E200DF91CF910895FC01A2EEB0E03C
:101530008C9182831C92A9EEB0E08C9183831C92E3
:10154000A0EFB0E08C9184831C9220E05D99216033
:1015500055992260208320E02899216020992260FB
:1015600021835D98559A0895CF92DF92EF92FF9272
:101570000F93CF93DF93EC017C0184E0E80EF11C24
:10158000C7010E94950A6E0184E1C80ED11C08E0D3
:10159000960143E162E0CE010E944B09960143E1CE
:1015A00063E0CE010E94C6086E0189E2C80ED11C1C
:1015B000960143E165E0CE010E944B09960143E1AB
:1015C00066E0CE010E94C608C701DF91CF910F915E
:1015D000FF90EF90DF90CF900C94750AEF92FF92FE
:1015E0000F93CF93DF93EC017C0184E0E80EF11CB4
:1015F000C7010E94950A9E012C5E3F4F05E142E023
:1016000060E0CE010E94CC099E01275D3F4F42E081
:1016100061E0CE010E94CC099E01225C3F4F42E076
:1016200062E0CE010E94CC099E012D5A3F4F42E05C
:1016300063E0CE010E94CC099E0128593F4F42E051
:1016400064E0CE010E94CC099E0123583F4F42E046
:1016500065E0CE010E94CC099E012E563F4F42E02C
:1016600066E0CE010E94CC099E0129553F4F42E021
:1016700067E0CE010E94CC09C701DF91CF910F91A5
:10168000FF90EF900C94750AEF92FF920F931F93C7
:10169000CF93DF938C017C0184E0E80EF11CC7013D
:1016A0000E94950A0E94C30882E00E94FD01C0E0EA
:1016B0000E94C3088C2F806B0E94FD0180E10E9474
:1016C000FD010E94C008D0E080E00E94FD01DF5FC4
:1016D000D038D1F7CF5FC83059F7C7010E94750ADB
:1016E000F8011286DF91CF911F910F91FF90EF903B
:1016F0000895AF92BF92CF92DF92EF92FF920F9335
:101700001F93CF93DF937C01122F683008F043C002
:10171000423008F040C088E0861B8217D0F12223B7
:10172000D1F1C42FCC0FC40FDCE06D9FD02D11245C
:10173000DD5E670124E1C20ED11C862F90E025E119
:10174000429F800D911D1124C80ED91E570184E0BF
:10175000A80EB11CC5010E94950A62E06C0F012F12
:1017600096014D2FC7010E944B0963E06C0F960153
:101770004D2FC7010E94C608C501DF91CF911F916F
:101780000F91FF90EF90DF90CF90BF90AF900C94AF
:10179000750A182FC6CFDF91CF911F910F91FF903F
:1017A000EF90DF90CF90BF90AF900895BF92CF920F
:1017B000DF92EF92FF920F931F93CF93DF93EC0191
:1017C000162FB42E022F653198F527E0241780F1EB
:1017D00085E1861B801750F1002351F1CE0144961C
:1017E000E12EF12C25E1B29EE00CF11C1124E80E53
:1017F000F91E6E0184E0C80ED11CC6010E94950A34
:10180000412F440F410F440F4E5F97016B2DCE01C6
:101810000E94CC09C601DF91CF911F910F91FF90DB
:10182000EF90DF90CF90BF900C94750A082FD6CF21
:10183000DF91CF911F910F91FF90EF90DF90CF90AC
:10184000BF900895089590E080E00895CF92DF92D0
:10185000EF92FF920F931F93CF93DF932091730426
:1018600030917404232B09F44DC0209175043091FC
:101870007604232B09F446C08C010E944403B8016E
:1018800081E794E00E947E070E943303E801C09044
:101890007504D0907604E0907304F090740410E026
:1018A00000E080917D048017110661F15CF1D601A2
:1018B000ED91FD916D01D7018D919D917D01E81B09
:1018C000F90BC9F02881398150E040E0281B390B21
:1018D00041095109A8EEB3E00E94AD209F0150E0FC
:1018E00040E00E946A20293EB3E03B0714F028EE56
:1018F00033E037FF02C030E020E0299339930F5FD7
:101900001F4FCFCFDF91CF911F910F91FF90EF909D
:10191000DF90CF9008954F925F926F927F928F9257
:101920009F92AF92BF92CF92DF92EF92FF920F936E
:101930001F93CF93DF9380912301882309F4DBC0A9
:101940008EEC91E00E94260CE0917D040EEC11E0FB
:10195000B12CA12C50E040E0C12CD12C7601912C6F
:10196000F0E0EF17E9F0D801CD91DD918D01C93C90
:10197000D1059CF4C333D10554F09501DE010E94DA
:101980008F20C60ED71EE81EF91E4C0F5D1FFF5F8D
:10199000B8E1AB1ABCEFBB0AE4CF99249394EDCF26
:1019A000911099C0E150FF0B44EF51E0E49FC0015A
:1019B000E59F900DF49F900D11244091810450916A
:1019C0008204481759070CF493C048EE53E0E49F93
:1019D000C001E59F900DF49F900D1124805D97400C
:1019E00065E070E00E943420EB01072E000C880BAC
:1019F000990B0E94DD1E6B017C012091CA01309180
:101A0000CB014091CC015091CD010E94C21D4B01F0
:101A10005C018092CA019092CB01A092CC01B0925D
:101A2000CD018091C8019091C901BE01681B790B5D
:101A3000072E000C880B990B0E94DD1E2B013C0128
:101A4000D093C901C093C80127E137EB41ED58E3BA
:101A5000C501B4010E94921FA70196010E94C21DF8
:101A60006B017C0120E030E040E850E4C301B201AA
:101A70000E94921F9B01AC01C701B6010E94C21DCA
:101A80006B017C01AC019B0160E070E088E493E4B1
:101A90000E94C11D0E94A51E4B0120E030E048E4D9
:101AA00053E4C701B6010E94C21D0E94A51ECB01CE
:101AB000B401DF91CF911F910F91FF90EF90DF90D4
:101AC000CF90BF90AF909F908F907F906F905F90DE
:101AD0004F900C94C6069A0150E040E0C701B60151
:101AE0000E944820C901309382042093810476CF5C
:101AF00090E080E073CFDF91CF911F910F91FF9025
:101B0000EF90DF90CF90BF90AF909F908F907F909D
:101B10006F905F904F9008950E94DD21FB0101902E
:101B20000020E9F73197AF01461B570BDC01ED911F
:101B3000FC910280F381E02D09948F929F92AF92E5
:101B4000BF92EF92FF920F931F93CF93DF93CDB786
:101B5000DEB7A1970FB6F894DEBF0FBECDBF7C01F4
:101B6000FA01CB0119A2223008F42AE08E010F5DA0
:101B70001F4F822E912CB12CA12CBF01A5019401E5
:101B80000E944820F901CA016A300CF5605DD80155
:101B90006E938D01232B242B252B79F790E080E089
:101BA000109721F0BD01C7010E948E0DA1960FB6BE
:101BB000F894DEBF0FBECDBFDF91CF911F910F9183
:101BC000FF90EF90BF90AF909F908F900895695CC9
:101BD000DECF8F929F92AF92BF92CF92DF92EF9221
:101BE000FF92809193028823D1F12DEC3CEC4CE4E0
:101BF0005EE360911203709113038091140390913E
:101C000015030E94921F0E94A51E4B016B01770FC6
:101C1000EE08FF082AE0B701A601F7FE0DC06DE24D
:101C20008DE293E00E94060544275527BA014C191E
:101C30005D096E097F092AE08DE293E00E949D0D07
:101C4000682D8DE793E00E94AF0810921203109266
:101C50001303109214031092150310929302FF9035
:101C6000EF90DF90CF90BF90AF909F908F900895AE
:101C7000CF93DF9385ED8093BC008091FA01909122
:101C8000FB01A091FC01B091FD010796A11DB11DC2
:101C900023E0B695A795979587952A95D1F720913A
:101CA000BC0024FD03C01092420236C04091FA01EC
:101CB0005091FB016091FC017091FD01452B462B79
:101CC000472B69F30097A105B10541F02AE22A9557
:101CD000F1F700C00197A109B109E1CF8091F901A5
:101CE00091E09093F8018823B9F0C091B800D091A9
:101CF000BA008091BC008A7B8093BC0060E082E0E7
:101D00000E94C90260E083E00E94C9020E945C0850
:101D1000D093BA00C093B800DF91CF9108950F938C
:101D20001F93CF93DF93EC015B98539A5A98529A82
:101D300085E38A95F1F700005A9A529A85E38A95CD
:101D4000F1F70000CE010E94440B8E010C5F1F4F83
:101D5000C8010E94950A0E94C30881EA0E94FD0101
:101D600088EC0E94FD0181E80E94FD018FEF0E9436
:101D7000FD018FEA0E94FD01C8010E94750A81E001
:101D80008987DF91CF911F910F910895FF920F9353
:101D90001F93CF93DF93EC01162F042FF22E89852A
:101DA000811103C0CE010E948F0E8A85882319F00D
:101DB000CE010E94440B2A893B89C90195958795DC
:101DC0008C0F9D1FE889F98920FF08C0DC012D9147
:101DD0003C91E20FF31F0190F081E02D2F2D402F59
:101DE000612FDF91CF911F910F91FF900994CF93B5
:101DF000DF93DC01A354BF4F2C91283008F5EC0190
:101E0000C454DF4FE881E531D8F4AC0175E1279F78
:101E1000400D511D1124E40FF52FF11D648BFC01C1
:101E20002385211105C021E04C9168810E94C60ED6
:101E300088818F5F888381E090E0DF91CF91089562
:101E400090E080E0FACF8F929F92AF92BF92CF92B4
:101E5000DF92EF92FF92109245041092460461E9DE
:101E600071E089E893E00E948E0D1092450481E0B4
:101E7000809346044091110350E070E060E02AE056
:101E800089E893E00E949D0D1092450483E08093C1
:101E900046046AE971E089E893E00E948E0D6BEADE
:101EA00071E089E893E00E948E0D1092450484E071
:101EB00080934604C0901203D0901303E090140363
:101EC000F0901503A7019601C701B6010E94FF1FFC
:101ED0006EEA71E081111AC046015701E894B7F823
:101EE0002FEF3FEF4FE75FE7C501B4010E94FF1FEF
:101EF00081111EC02FEF3FEF4FE75FE7C501B4012F
:101F00000E942E1E1816A4F462EB71E089E893E09B
:101F10000E948E0D6AEB71E089E893E0FF90EF90EC
:101F2000DF90CF90BF90AF909F908F900C948E0DCC
:101F30002FEF3FEF4FE75FE4C701B6010E948D1F0F
:101F400018161CF466EB71E0E1CF2FEF3FEF4FE77F
:101F50005FECC701B6010E942E1E87FDF3CF20E083
:101F600030E0A901C701B6010E942E1E87FF09C0FB
:101F70006DE289E893E00E94F70EF7FAF094F7F823
:101F8000F0942AE037ED43EA5BE3C701B6010E9413
:101F9000C21D4B015C010E94AC1E6B017C010E94C2
:101FA000DB1E9B01AC01C501B4010E94C11D4B01A8
:101FB0005C012AE0B701A60189E893E00E949D0D2B
:101FC0006EE289E893E00E94F70E20E030E040E204
:101FD00051E4C501B4010E94921F4B015C010E94B3
:101FE000AC1E6B01F12CE12C2AE0B701A60189E8B7
:101FF00093E00E949D0DC701B6010E94DB1E9B016C
:10200000AC01C501B4010E94C11D20E030E040E2F6
:1020100051E40E94921F0E94AC1EAB0170E060E090
:102020002AE089E893E00E949D0D74CFAF92BF92A1
:10203000CF92DF92EF92FF920F931F93CF93DF9394
:1020400082EEE82EF12CF70100811082C9EED0E07B
:10205000B880188290EFC92ED12CF601A080108292
:1020600020E02899216020992260822F2098289AC8
:1020700090E19A95F1F713B10E943F0A1882F60198
:10208000A082B882F7010083812F80958170DF9153
:10209000CF911F910F91FF90EF90DF90CF90BF9065
:1020A000AF900895BF92CF92DF92EF92FF920F937D
:1020B0001F93CF93DF938C01EA016C012DEBC20ECD
:1020C000D11CF60130813830D8F57C01FCEBEF0EE5
:1020D000F11CF7018081853198F525E1281B90E0FE
:1020E0002417150620F4C5E1D0E0C81BD90BF5E193
:1020F0003F9F800D911D1124AE0198012C5E3F4F32
:10210000820F931F0E94E221BC2EF801838581116A
:1021100008C02C2FF6014081F7016081C8010E94A0
:10212000C60EF70180818B0D8083CE01DF91CF91A8
:102130001F910F91FF90EF90DF90CF90BF90089587
:10214000D0E0C0E0F2CF1F920F920FB60F92112491
:102150002F933F938F939F93AF93BF9380911703D8
:1021600090911803A0911903B0911A0330911603AE
:1021700023E0230F2D3758F50196A11DB11D2093A3
:1021800016038093170390931803A0931903B09339
:102190001A0380911B0390911C03A0911D03B09121
:1021A0001E030196A11DB11D80931B0390931C0378
:1021B000A0931D03B0931E03BF91AF919F918F9188
:1021C0003F912F910F900FBE0F901F90189526E80A
:1021D000230F0296A11DB11DD2CF1F920F920FB6F1
:1021E0000F9211242F933F934F935F936F937F939D
:1021F0008F939F93AF93BF93EF93FF93E0911F0152
:10220000F09120010995FF91EF91BF91AF919F91BE
:102210008F917F916F915F914F913F912F910F908F
:102220000FBE0F901F9018951F920F920FB60F922E
:1022300011242F933F934F935F936F937F938F93CB
:102240009F93AF93BF93EF93FF93E0911D01F091A4
:102250001E010995FF91EF91BF91AF919F918F91D1
:102260007F916F915F914F913F912F910F900FBE92
:102270000F901F9018951F920F920FB60F92112476
:102280002F933F934F935F936F937F938F939F937E
:10229000AF93BF93EF93FF93E0911B01F0911C016B
:1022A0000995FF91EF91BF91AF919F918F917F9190
:1022B0006F915F914F913F912F910F900FBE0F90B3
:1022C0001F9018951F920F920FB60F9211242F9303
:1022D0003F934F935F936F937F938F939F93AF93AE
:1022E000BF93EF93FF93E0911901F0911A010995C3
:1022F000FF91EF91BF91AF919F918F917F916F91DE
:102300005F914F913F912F910F900FBE0F901F90B3
:1023100018951F920F920FB60F9211242F933F938F
:102320004F935F936F937F938F939F93AF93BF93DD
:10233000EF93FF93E0911701F09118010995FF9138
:10234000EF91BF91AF919F918F917F916F915F912D
:102350004F913F912F910F900FBE0F901F901895A6
:102360001F920F920FB60F9211248F939F9380911B
:10237000E1009091E100937F9093E10083FF0FC013
:102380001092E90091E09093EB001092EC0092E340
:102390009093ED0010922C0398E09093F00082FF50
:1023A00022C093E09093E9009091F200992319F0F4
:1023B0009AE39093E80090917D02992341F09091E7
:1023C0007D02915090937D02911101C05D9A909190
:1023D0002B03992341F090912B03915090932B0361
:1023E000911101C0289A84FF18C08091E2008E7E6E
:1023F00081608093E2008091E1008F7E8093E10014
:1024000080917E028E7E806180937E029F918F916B
:102410000F900FBE0F901F90189580FFF7CF8091FF
:10242000E2008E7E80618093E2008091E1008E7EEA
:102430008093E10080917E028E7E8160E5CF1F92C5
:102440000F920FB60F921124CF92DF92EF92FF926C
:102450000F931F932F933F934F935F936F937F93AC
:102460008F939F93AF93BF93EF93FF93CF93DF939C
:10247000CDB7DEB76C97DEBFCDBF1092E90080917B
:10248000E80083FF25C068E0CE0145960E947404F1
:1024900082EF8093E8008D8987FF39C09091E80032
:1024A00090FFFCCF982F907609F034C19E894F8918
:1024B000588D2F89F88C911131C0803861F5809149
:1024C0007F028093F1001092F1008EEF8093E8007C
:1024D0006C960FB6F894DEBF0FBECDBFDF91CF91E3
:1024E000FF91EF91BF91AF919F918F917F916F91EC
:1024F0005F914F913F912F911F910F91FF90EF901E
:10250000DF90CF900F900FBE0F901F9018959EEF09
:102510009093E800C7CF1092F100D5CF913059F4D5
:102520008111D3CF4130510581F680917F028D7F9B
:1025300080937F02CACF933049F48111C6CF4130D6
:10254000510519F680917F028260F2CF953041F4F7
:102550008091E80080FFFCCF20682093E300B5CF96
:10256000963009F0A9C00B8D1C8D22E01092E90075
:1025700010927B0210927A02F2122EC0109279020F
:10258000109278020E9443041F8299E09983FA8294
:1025900091E09E8390EA98879AEF998720917A023A
:1025A00030917B02275F3F4F3C832B838D831092BA
:1025B000E90010927B0210927A0210937902009344
:1025C000780249E050E0BE016F5F7F4F80E00E94DB
:1025D0001D040E94430479CF10937902009378027E
:1025E0000E946902DC0112960D911C9101151105E2
:1025F00009F451C1D801ED91FC910480F581E02DE1
:10260000BE016B5E7F4FC8010995009709F03EC17E
:10261000F80100851185EACFF3E0FF120EC08F8923
:10262000882309F440C0823061F440E862E185E12A
:1026300093E00E94B217811148CF81E28093EB00B2
:1026400047CF813029F440E862E182E093E0F1CFA6
:10265000833099F70E946902DC011296ED90FC909C
:102660008E010F5F1F4F6801E114F10479F0D7016B
:10267000ED91FC910680F781E02DB801C701099525
:10268000080F111DF701E084F184EECFD8011C92F0
:10269000F60101900020E9F73197BF016C197D091F
:1026A00040E0C601C6CF6CEE72E0FB01449150E001
:1026B00080E80E941D0409CF973009F4BECF9830FE
:1026C00021F481E08093F10000CF993009F0FDCE34
:1026D000837009F0B2CFE9E4F1E081E031E096E304
:1026E0002191222371F08093E9003093EB00DF0108
:1026F00011972C912093EC009093ED008F5F873021
:1027000079F78EE78093EA001092EA008F89809330
:102710002C03DBCE8B8D9C8D1092E90010927B02F6
:1027200010927A029093790280937802898D8111B8
:1027300092C08E899D89913A49F4813209F07DCF0A
:1027400047E050E06FE071E080E0B3CF913209F0F4
:1027500074CF833269F48F89988DB0E0A0E08093C4
:102760000B0190930C01A0930D01B0930E01ADCE1F
:10277000803269F48091E80082FFFCCF67E08FE04F
:1027800091E00E9474048BEF8093E8009ECE823229
:1027900009F09BCE8F8980931601EEEFFFE78591BC
:1027A00094918B3F9C4D51F1E0E0F8E080910F0156
:1027B00090911001A0911101B0911201803B9440C1
:1027C000A105B105F1F48091160180FD1AC0EE3F1C
:1027D0008AE0F80789F587E797E7918380838091FE
:1027E000600080937C0288E19BE00FB6F894A89586
:1027F000809360000FBE9093600067CEEEEFFAE02A
:10280000D5CF808191818737974709F05ECEA89513
:102810008091600088618093600080917C02809349
:102820006000EE3F2AE0F20789F08091FE0A909165
:10283000FF0A9183808349CE8081918187379807F1
:1028400051F29093FF0A8093FE0AC5CF1092FF0ABF
:102850001092FE0A3ACE0E946902DC0112960D9196
:102860001C910115110509F4E8CED801ED91FC91F8
:102870000190F081E02DBE016B5E7F4FC80109958C
:10288000811123CEF80100851185EBCF18161906AA
:102890000CF41BCED2CEF1E0FF12BECE60EF72E0A0
:1028A00004CF1F920F920FB60F9211244F925F9296
:1028B0006F927F928F929F92AF92BF92CF92DF9250
:1028C000EF92FF920F931F932F933F934F935F933A
:1028D0006F937F938F939F93AF93BF93CF93DF9328
:1028E000EF93FF93C0917302D0917402CE010197D0
:1028F00090937402809373022097A1F51092720056
:1029000078948091C100807F84608093C10083E0CF
:102910008093BF0088EE8093D1001092BF00109288
:10292000D20081E080930A01809176029091770233
:10293000892BC1F080917102811114C0709009013E
:1029400080917002882379F180916F02882359F178
:1029500060916F0270E040E088EE93E00E94D00545
:1029600010926F02FF91EF91DF91CF91BF91AF91E4
:102970009F918F917F916F915F914F913F912F9197
:102980001F910F91FF90EF90DF90CF90BF90AF908D
:102990009F908F907F906F905F904F900F900FBEA1
:1029A0000F901F9018955524539470ECA72E7DE539
:1029B000B72EEAE04E2EF4E06F2EA0EDCA2EA7E06F
:1029C000DA2EB4E0EB2EF12C04EF11E08FE0882E2C
:1029D000912C0E94870520917602309177022F5F1B
:1029E0003F4F3093770220937602853609F473C007
:1029F0000CF047C0813609F4B4C024F58C3309F4D7
:102A000068C08E3309F463C0813209F043C060921C
:102A10000901D0920601C0920501F0920801E092EE
:102A20000701109304010093030190920201809228
:102A30000101109270027090090180910301909140
:102A40000401C7CF833609F48FC010E00BE0843651
:102A500014F010E002E04CE0749E000D11240E947E
:102A60008705982F977F933209F080C08091760276
:102A700090917702019690937702809376020F5F90
:102A8000EECF8D3609F445C054F4873651F134F158
:102A90008C3651F1109277021092760263CF823712
:102AA00009F44CC044F48F36A9F70E94A805782E8B
:102AB000809309018ECF843709F443C0863751F7DC
:102AC0000E94A805909302018093010182CF739424
:102AD00080CF7A947ECF10E004E0BDCF10E005E017
:102AE000BACF10E007E0B7CF0E94A8059093080185
:102AF0008093070180910501909106016091070183
:102B0000709108010E9420207093040160930301DA
:102B100060CF0E9487058C3661F41092700280911C
:102B200076029091770201969093770280937602D5
:102B300050CF5092700210926F02F1CF11E000E07E
:102B40008ACF0E94A805BC01C5010E942020469E94
:102B5000C001479E900D11249093060180930501BA
:102B6000C9CF10E009E077CF10E0E9CF8D3269F4EA
:102B700080917602909177020196909377028093EC
:102B8000760201500E948705F1CFE0900301F0909A
:102B900004018153883058F4E0900501F09006015B
:102BA0000E94A805BC01C7010E9420207B0167018B
:102BB000D694C7940E9487058E3261F48091760284
:102BC0009091770201969093770280937602EC0CB5
:102BD000FD1CEECF80917002882349F0C7019695C5
:102BE000879580936F0280916F02E81AF108C09078
:102BF0000101D0900201111104C00F3F11F0C1106A
:102C000007C040E0B70188EE93E00E94D005AACE4D
:102C1000013128F010EF100F103608F01FE5812F5A
:102C20006CE00E941420582F44EF450390011124BA
:102C3000210F311D2C30310538F4220F331FF901DB
:102C4000E05DFE4FC081D1818730C1F0082E02C007
:102C5000CC0FDD1F0A94E2F7823040F0CE010596DA
:102C60006AE070E00E942020CB0102C0CE019058A3
:102C70004C2D403108F04FE0B701C7CFCE0126E020
:102C8000880F991F2A95E1F7029665E070E0EACF78
:102C90001F920F920FB60F9211242F933F934F93D1
:102CA0006F937F938F939F938CB1282F30E035954E
:102CB000279535952795422F417083B190E064E0C8
:102CC000959587956A95E1F78227817020916D022D
:102CD00090916C0260918C0270918D02282794274C
:102CE000291B330B260F371F30938D0220938C0244
:102CF00020916C0290916D02281729F0941719F019
:102D000091E090936B0280936C0240936D029F91CF
:102D10008F917F916F914F913F912F910F900FBEA7
:102D20000F901F9018951F920F920FB60F921124BB
:102D30002F933F934F935F936F937F938F939F93C3
:102D4000AF93BF93EF93FF938091B900887F803654
:102D500009F44AC0F0F5883209F4A7C018F58031AB
:102D600009F49BC0B8F4882309F4F9C0883009F449
:102D700094C0FF91EF91BF91AF919F918F917F91FF
:102D80006F915F914F913F912F910F900FBE0F90D8
:102D90001F901895883109F488C0803251F78093CC
:102DA000410214C0803409F49DC040F48033B9F36B
:102DB0008833F9F68093410285ECB0C0803509F480
:102DC00085C0883509F496C0883499F60E94380E7B
:102DD000D0CF883909F48CC038F5883729F050F401
:102DE000883611F0803729F683E0809342021092F2
:102DF000400257C0883809F47BC0803919F0803808
:102E000009F0B7CF80914002803208F071C0E091A4
:102E1000400281E08E0F809340028091BB00F0E081
:102E2000E05EFD4F80833DC0803B39F0E0F4803AA6
:102E300009F479C0883A09F09CCF84E0809342027B
:102E400010921F0210921E02E0918202F091830202
:102E5000099580911E0281110FC081E080931E02AE
:102E60001092FE0109C0803C09F4A6CF883C09F409
:102E7000A3CF883B09F07DCFE0911F0281E08E0F48
:102E800080931F02F0E0E250FE4F80818093BB00F0
:102E900090911F0280911E0229C080916702809349
:102EA000BB0085EC8093BC0064CF9091660280915A
:102EB0006502981758F5E091660281E08E0F8093C5
:102EC0006602F0E0EB5BFD4F8081E9CFE0916602A6
:102ED00081E08E0F809366028091BB00F0E0EB5B97
:102EE000FD4F808390916602809165029817C8F229
:102EF00085E8D8CFE091660281E08E0F809366026C
:102F00008091BB00F0E0EB5BFD4F80838091440239
:102F100081115CCF81E08093430284EA8093BC00FE
:102F20001092420226CF85EC8093BC0010924202A0
:102F300080914002803230F4E0914002F0E0E05EA7
:102F4000FD4F10826091400270E0E0918002F091AC
:102F5000810280E292E00995109240020ACF10921D
:102F6000410234CFEF92FF920F931F93CF93DF93E1
:102F7000F82E192FE62E042F81E0860F880F0E946D
:102F8000EF0383E00E94EF03CF2DD12FEC0EFD2E37
:102F9000F11CCE15DF05B9F007FF13C0FE018491C7
:102FA0000E94EF03182F80E00E94EF0381232196F7
:102FB0008111EFCFDF91CF911F910F91FF90EF9093
:102FC00008958881EDCF81E0F5CFCF93DF93EDE2D7
:102FD000F3E01382128288EE93E0A0E0B0E08483F5
:102FE0009583A683B78323E531E0318320832FEFD8
:102FF0003FEF35872487EDE7F3E013821282848365
:103000009583A683B78385E691E091838083E3E887
:10301000F4E0128215828FE891E091838083E1E7EA
:10302000F4E01382128215821482178216821186AE
:1030300010861386128683E891E091838083C9E825
:10304000D3E01B821A8248EA50E060E270E08DE92A
:1030500093E00E94EB211092700410926F0484EBB5
:103060009AE09D878C871F861E8689E79BE0998B57
:10307000888B1B8A1A8A81E08A8787E791E0998387
:103080008883DF91CF910895CF93DF93CDB7DEB7DB
:10309000C056D1090FB6F894DEBF0FBECDBF7894ED
:1030A00084B5826084BD84B5816084BD85B582604D
:1030B00085BD85B5816085BD80916E0081608093FE
:1030C0006E00109281008091810082608093810067
:1030D0008091810081608093810080918000816077
:1030E0008093800080919100826080939100809114
:1030F0009100816080939100809190008160809325
:1031000090008091C10084608093C1008091C100D3
:1031100082608093C1008091C10081608093C10072
:103120008091C30081608093C3008091C000826061
:103130008093C0008091C20081608093C200809122
:103140007A00846080937A0080917A008260809314
:103150007A0080917A00816080937A0080917A0071
:10316000806880937A0010922C0310927F02109254
:103170007E028091D70081608093D70080EA80939F
:10318000D80089B5806189BD89B5826089BD09B4DF
:1031900000FEFDCF61E070E080E090E00E947A03E5
:1031A0008091D8008F7C80618093D8008091E0006E
:1031B000807F8093E0008091E1008E7E8093E1002B
:1031C0008DE08093E200559A209A10928702109227
:1031D000860210928502109284020E945C0888EB9D
:1031E00093E0909383028093820284EC93E0909327
:1031F00081028093800282E08093BA008FEF9FEF7C
:1032000090933A038093390389EE9DE0909389026D
:10321000809388028CE49AE090938B0280938A02D8
:103220001092700410926F048EEE9AE090939603C1
:1032300080939503109298031092970386ED9BE07C
:1032400090939A038093990310929C0310929B038E
:1032500081E08093930360E590E080E00E94B31DDD
:1032600060E081E090E00E94B31D90E080E00E9469
:10327000AB1D8093110381E090E00E94AB1D682F8D
:1032800070E090E080E00E94DB1E60931203709378
:103290001303809314039093150385E0EBE2F1E0B0
:1032A000DE01119601900D928A95E1F71092740457
:1032B00010927304109276041092750410927804A0
:1032C0001092770410927A0410927904109282047A
:1032D0001092810485E080937D0480917B0490911D
:1032E0007C04892BC1F080E090917D04891708F05F
:1032F0005FC0282F30E0E1E0F0E0EC0FFD1FE20FAF
:10330000F31F9081E0917B04F0917C04E20FF31FA6
:1033100090838F5FE9CF85E090E00E94B820909382
:103320007C0480937B04892BF1F680ED97E09093E9
:10333000800480937F0483E894E00E941610882321
:10334000D1F36AE070E080E090E00E947A0383E8C5
:1033500094E00E941610882371F36CE97FEF84E6F5
:1033600090E00E94C6060E94AC036B017C01809134
:10337000750490917604892BF9F480917D0490E096
:10338000880F991F0E94B82090937604809375044B
:10339000009709F4AFC0FC0190E080E020917D042B
:1033A0002817190649F044F0119211920196F6CFB0
:1033B0008BE080937E04B9CF809173049091740464
:1033C000892BF9F480917D0490E0880F991F0E9469
:1033D000B8209093740480937304009709F48AC012
:1033E000FC0190E080E020917D042817190649F047
:1033F00044F020917F043091800421933193019611
:10340000F2CF10E000E00E944403BE016F5B7F4FEB
:1034100081E794E00E947E070E94330360907D0460
:10342000712C9E012F5F3F4F4901205E3F4FCE011F
:103430008F5B9F4F5C012901D40150E040E04615AD
:10344000570524F5F501819191915F010115110551
:1034500099F0F201608171816817790768F06D91C8
:103460007C9111978617970768F04F5F5F4F129610
:10347000F2E04F0E511CE3CFF201918380830115DE
:10348000110569F711969C938E93EFCF0F5F1F4F35
:103490000A30110509F0B7CFA0917304B0917404FC
:1034A000009175041091760490E080E040917D04D5
:1034B00048171906F9F0F4F0F401419151914F01C8
:1034C000F801608171816417750710F4518340839E
:1034D000F901419151919F016D917C91119746178E
:1034E000570718F411965C934E93019612960E5F4F
:1034F0001F4FDCCF0E94AC036C197D098E099F0918
:10350000603A7F408105910508F431CF70E060E0BA
:1035100090E080E00E94C60640E0E42E40E0F42EF9
:1035200011E054E0352E62E0D62E80918E0281119A
:1035300004C010938E020E943A07F89480908C0287
:1035400090908D0210928D0210928C02789480914E
:103550008E02811104C010938E020E943A07F894E3
:10356000A0908F02B09090021092900210928F0261
:103570007894B40197FE03C0719561957109072E87
:10358000000C880B990B0E94DD1E26E53EE049E405
:1035900050E40E94921F27E73EEB4FE15DE30E945B
:1035A000921F20E030E843E654E40E94331E2B01D2
:1035B0003C01B501B7FE03C0719561957109072EF5
:1035C000000C880B990B0E94DD1E26E53EE049E4C5
:1035D00050E40E94921F27E73EEB4FE15DE30E941B
:1035E000921F20E030E843E654E40E94331E9B0122
:1035F000AC01C301B2010E94C21D20E030E040E2F4
:1036000051E40E94921F20E030E040E05FE30E941E
:10361000921F209112033091130340911403509193
:1036200015030E94C21D60931203709313038093CD
:103630001403909315030E94AC1E81E090E00E9459
:10364000B31D20E030E040EA50E460911203709135
:10365000130380911403909115030E94331E9B0164
:10366000AC0160E070E080EA92E40E94C11D0E941B
:10367000AC1EC62E90E080E00E94B31DC0921103E4
:1036800000911003033009F4C0C0A0F40130B1F17F
:10369000023009F489C00E94230F70E060E090E0DE
:1036A00080E00E94C606E091DC0280919202E8135D
:1036B0006EC16EC0053009F473C108F429C106302B
:1036C00051F78AEF92E00E94260C8091FA029091C5
:1036D000FB028C3B92400CF40CC270E060E090E086
:1036E00080E00E94C6068091DC0290E00196209165
:1036F00092022817190609F06EC04AC00E94230FD3
:103700008091080381110CC00E94AC0360930403F4
:1037100070930503809306039093070300930803B7
:103720008AEF92E00E94260C8091FA029091FB02AF
:103730008C3B924094F00E94AC036093040370931E
:10374000050380930603909307036CE97FEF86E9F6
:1037500090E00E94C6061093F9020E94AC032091EB
:10376000F9028090040390900503A0900603B090A6
:103770000703681979098A099B096E35714081052B
:10378000910568F0222369F0309210031092F9023B
:10379000E114F10409F4C9CE0E940000C6CE211143
:1037A000F7CF0E948B0CF4CF0E948B0C0E94230F4A
:1037B0008AEF92E00E94260C8091FA029091FB021F
:1037C0008C3B92405CF01093F8028091F7028230BB
:1037D000F8F21092F70230921003DACF8AEF92E0FB
:1037E0000E94260C8091FA029091FB028739910584
:1037F00064F78091F802882341F38091F7028F5F8C
:103800008093F7021092F802E0CF8091EF028111CD
:103810000CC00E94AC036093EB027093EC028093A7
:10382000ED029093EE021093EF020E94230F0E948C
:103830008B0C8AEF92E00E94260C8091FA02909104
:10384000FB028C3B92400CF44AC01093EA028AEFD0
:1038500092E00E94260C8091FA029091FB028C3B30
:103860009240D4F08091E9028130B1F466E970E0D1
:103870008CE99FEF0E94C6060E94AC036093EB02A6
:103880007093EC028093ED029093EE02109224016B
:1038900010922301D092E90280912401811117C076
:1038A0000E94AC038090EB029090EC02A090ED029D
:1038B000B090EE02681979098A099B096C3B724045
:1038C0008105910520F0109324011093230180912C
:1038D000E902843008F45CCF1092E9027CCF8AEFD1
:1038E00092E00E94260C8091FA029091FB028436AD
:1038F00091050CF0ACCF8091EA02882309F4A7CFA0
:103900008091E9028F5F8093E9021092EA029FCFD3
:103910008091E10281110CC00E94AC036093DD0232
:103920007093DE028093DF029093E0021093E10235
:103930000E948B0C0E94230F80912201882361F04A
:103940000E94AC036093DD027093DE028093DF027D
:103950009093E002109222010E94AC038090DD025D
:103960009090DE02A090DF02B090E0026819790921
:103970008A099B096C3271408105910508F408CFD2
:10398000E091DC02EF5FE093DC0210932201F0E0B3
:10399000EE0FFF1FE056FD4F808180931003F8CE9D
:1039A0008091980281110CC00E94AC036093940234
:1039B00070939502809396029093970210939802C9
:1039C0008AEF92E00E94260C8091FA029091FB020D
:1039D0008C3B92400CF46FC070E060E090E080E0BF
:1039E0000E94C60648EA50E060E270E08DE993E08C
:1039F0000E94EB211092450410924604809194039A
:103A000081112AC080919203811104C089E893E05A
:103A10000E948F0E80919303882321F089E893E020
:103A20000E94440B2091970330919803C90195950A
:103A3000879587579C4FE0919503F091960320FF5F
:103A400008C0DC012D913C91E20FF31F0190F08141
:103A5000E02D0995109294036EEB71E089E893E0F4
:103A60000E948E0D6BEA71E089E893E00E948E0D52
:103A700080912101882321F010939302109221015B
:103A80008091DC0290E0019620919202281719069D
:103A900009F47ECE80919102882391F00E94AC03BC
:103AA000609394027093950280939602909397028C
:103AB000109291026DCE0E948B0C0E94230FE0CFDA
:103AC0000E94AC038090940290909502A090960280
:103AD000B0909702681979098A099B09683873417F
:103AE0008105910508F454CE1093910210932101A1
:103AF00072CE0E948B0CF7CD89E891E0909372040E
:103B00008093710480917B0490917C04009711F064
:103B10000E9454218091750490917604009711F0D1
:103B20000E9454218091790490917A04009711F0B9
:103B30000E9454218091730490917404009711F0B5
:103B40000E9454218091770490917804009711F09D
:103B50000C9454210895F999FECF92BD81BDF89A35
:103B6000992780B50895262FF999FECF1FBA92BDE7
:103B700081BD20BD0FB6F894FA9AF99A0FBE01964E
:103B800008955058BB27AA270E94D91D0C94531F93
:103B90000E94451F38F00E944C1F20F039F49F3FCF
:103BA00019F426F40C94421F0EF4E095E7FB0C94F4
:103BB0003C1FE92F0E94641F58F3BA17620773076E
:103BC0008407950720F079F4A6F50C94861F0EF46F
:103BD000E0950B2EBA2FA02D0B01B90190010C011D
:103BE000CA01A0011124FF27591B99F0593F50F435
:103BF000503E68F11A16F040A22F232F342F44278D
:103C0000585FF3CF469537952795A795F040539584
:103C1000C9F77EF41F16BA0B620B730B840BBAF054
:103C20009150A1F0FF0FBB1F661F771F881FC2F7BF
:103C30000EC0BA0F621F731F841F48F487957795D3
:103C40006795B795F7959E3F08F0B0CF9395880F8D
:103C500008F09927EE0F9795879508950E94181FF1
:103C600008F481E008950E94471E0C94531F0E949F
:103C70004C1F58F00E94451F40F029F45F3F29F087
:103C80000C943C1F51110C94871F0C94421F0E94EE
:103C9000641F68F39923B1F3552391F3951B550BDA
:103CA000BB27AA2762177307840738F09F5F5F4F0F
:103CB000220F331F441FAA1FA9F335D00E2E3AF04E
:103CC000E0E832D091505040E695001CCAF72BD066
:103CD000FE2F29D0660F771F881FBB1F26173707B7
:103CE0004807AB07B0E809F0BB0B802DBF01FF27E9
:103CF00093585F4F3AF09E3F510578F00C943C1F6B
:103D00000C94871F5F3FE4F3983ED4F38695779534
:103D10006795B795F7959F5FC9F7880F911D9695A1
:103D2000879597F90895E1E0660F771F881FBB1FFD
:103D3000621773078407BA0720F0621B730B840BAA
:103D4000BA0BEE1F88F7E09508950E94AC1E6894A8
:103D5000B1110C94871F08950E946C1F88F09F5723
:103D600098F0B92F9927B751B0F0E1F0660F771F9F
:103D7000881F991F1AF0BA95C9F714C0B13091F095
:103D80000E94861FB1E008950C94861F672F782F3C
:103D90008827B85F39F0B93FCCF38695779567955A
:103DA000B395D9F73EF490958095709561957F4FC6
:103DB0008F4F9F4F0895E89409C097FB3EF490956C
:103DC0008095709561957F4F8F4F9F4F9923A9F0F4
:103DD000F92F96E9BB279395F69587957795679583
:103DE000B795F111F8CFFAF4BB0F11F460FF1BC0C7
:103DF0006F5F7F4F8F4F9F4F16C0882311F096E95A
:103E000011C0772321F09EE8872F762F05C0662307
:103E100071F096E8862F70E060E02AF09A95660FC0
:103E2000771F881FDAF7880F9695879597F9089579
:103E3000990F0008550FAA0BE0E8FEEF16161706BB
:103E4000E807F907C0F012161306E407F50798F023
:103E5000621B730B840B950B39F40A2661F0232B3C
:103E6000242B252B21F408950A2609F4A140A695B8
:103E70008FEF811D811D089597F99F6780E870E09D
:103E800060E008959FEF80EC089500240A941616D0
:103E9000170618060906089500240A941216130638
:103EA000140605060895092E0394000C11F48823C6
:103EB00052F0BB0F40F4BF2B11F460FF04C06F5FE2
:103EC0007F4F8F4F9F4F089557FD9058440F551FB8
:103ED00059F05F3F71F04795880F97FB991F61F08C
:103EE0009F3F79F087950895121613061406551F03
:103EF000F2CF4695F1DF08C0161617061806991F6F
:103F0000F1CF86957105610508940895E894BB2763
:103F100066277727CB0197F908950E94181F08F4A8
:103F20008FEF08950E94A51F0C94531F0E94451FF8
:103F300038F00E944C1F20F0952311F00C943C1F88
:103F40000C94421F11240C94871F0E94641F70F36D
:103F5000959FC1F3950F50E0551F629FF001729F2E
:103F6000BB27F00DB11D639FAA27F00DB11DAA1F3D
:103F7000649F6627B00DA11D661F829F2227B00D8A
:103F8000A11D621F739FB00DA11D621F839FA00D15
:103F9000611D221F749F3327A00D611D231F849F65
:103FA000600D211D822F762F6A2F11249F575040BC
:103FB0009AF0F1F088234AF0EE0FFF1FBB1F661F37
:103FC000771F881F91505040A9F79E3F510580F000
:103FD0000C943C1F0C94871F5F3FE4F3983ED4F38E
:103FE000869577956795B795F795E7959F5FC1F7A4
:103FF000FE2B880F911D9695879597F908950E943D
:10400000181F880B990B0895DB018F939F930E94D3
:10401000AD20BF91AF91A29F800D911DA39F900DE8
:10402000B29F900D11240895991B79E004C0991F47
:10403000961708F0961B881F7A95C9F78095089502
:10404000AA1BBB1B51E107C0AA1FBB1FA617B707BE
:1040500010F0A61BB70B881F991F5A95A9F78095DA
:104060009095BC01CD01089597FB072E16F400949E
:1040700007D077FD09D00E94202007FC05D03EF430
:10408000909581959F4F0895709561957F4F089504
:10409000A1E21A2EAA1BBB1BFD010DC0AA1FBB1F4C
:1040A000EE1FFF1FA217B307E407F50720F0A21BBE
:1040B000B30BE40BF50B661F771F881F991F1A942B
:1040C00069F760957095809590959B01AC01BD0155
:1040D000CF010895052E97FB1EF400940E948120C5
:1040E00057FD07D00E94482007FC03D04EF40C94E3
:1040F000812050954095309521953F4F4F4F5F4F10
:10410000089590958095709561957F4F8F4F9F4F43
:104110000895EE0FFF1F0590F491E02D09940E9481
:104120009720332312F48A1B9B0B0C94A820A29F88
:10413000B001B39FC001A39F700D811D1124911D7B
:10414000B29F700D811D1124911D08950E9497202A
:10415000B7FF0895821B930B08950E949720A59F97
:10416000900DB49F900DA49F800D911D1124089572
:104170000F931F93CF93DF938230910510F482E069
:1041800090E0E0918D04F0918E0430E020E0B0E00A
:10419000A0E0309799F42115310509F44AC0281B95
:1041A000390B24303105D8F58A819B816115710561
:1041B00089F1FB0193838283FE0111C0408151810B
:1041C0000281138148175907E0F04817590799F4FD
:1041D000109761F012960C93129713961C933296D7
:1041E000CF01DF91CF911F910F91089500938D041E
:1041F00010938E04F4CF2115310551F04217530767
:1042000038F0A901DB019A01BD01DF01F801C1CF3E
:10421000EF01F9CF90938E0480938D04CDCFFE01F2
:10422000E20FF31F81939193225031093983288340
:10423000D7CF20918B0430918C04232B41F4209113
:1042400027013091280130938C0420938B04209116
:104250002501309126012115310541F42DB73EB7D6
:104260004091290150912A01241B350BE0918B04C8
:10427000F0918C04E217F307A0F42E1B3F0B2817D4
:10428000390778F0AC014E5F5F4F2417350748F0CF
:104290004E0F5F1F50938C0440938B048193919336
:1042A0009FCFF0E0E0E09CCFCF93DF930097E9F061
:1042B000FC01329713821282A0918D04B0918E047A
:1042C000ED0130E020E01097A1F420813181820FD0
:1042D000931F20918B0430918C042817390709F023
:1042E00061C0F0938C04E0938B04DF91CF9108952B
:1042F000EA01CE17DF07E8F54A815B819E0141158F
:104300005105B1F7E901FB83EA8349915991C40F43
:10431000D51FEC17FD0761F4808191810296840F0F
:10432000951FE90199838883828193819B838A8386
:10433000F0E0E0E012968D919C9113970097B9F50B
:104340002D913C911197CD010296820F931F2091E0
:104350008B0430918C042817390739F6309751F5C2
:1043600010928E0410928D04B0938C04A0938B0451
:10437000BCCFD383C28340815181840F951FC8175E
:10438000D90761F44E5F5F4F88819981480F591FAB
:10439000518340838A819B819383828321153105D8
:1043A00009F0B0CFF0938E04E0938D049ECFFD0111
:1043B000DC01C0CF13821282D7CF81E090E0F89465
:1043C0000C94F221FB01DC0102C001900D924150DE
:1043D0005040D8F70895DC0101C06D934150504022
:1043E000E0F7089511E0C2EDD1E004C0FE010E94A3
:0E43F00089202196C33DD107C9F7F894FFCF6D
:1043FE00010F00F401D00704000401FFFFFFFF00CE
:10440E00E1000000000000EE03EE03EE03EE03EE0B
:10441E00030101010100008F048000121415040C29
:10442E009C01B501CF01EA0107022602470269028B
:10443E008E02B502DE020A0300C180810000000078
:10444E000000000605810427051C056D052B054996
:10445E000500000000AF08A408230C7A089D088A06
:10446E00087B0800000000F70E5210230C220C00EF
:10447E000000007E07000000008C0D0000000016FA
:10448E0010506F7765723A20200044697374616E24
:10449E0063652064726F76653B20000D0A006E61C5
:1044AE006E00696E66006F7666006B6D2000434885
:0844BE00415247494E4700003E
:00000001FF
