:100000000C94D7010C94D80E0C94B10E0C948A0E5B
:100010000C94630E0C94FF010C94FF010C943C0EA5
:100020000C94FF010C9497130C94FF0E0C946E0F1C
:100030000C94FF010C94FF010C94FF010C94FF0140
:100040000C94FF010C94FF010C94FF010C94FF0130
:100050000C94FF010C94FF010C94FF010C94F20D21
:100060000C94FF010C94FF010C94FF010C94FF0110
:100070000C94FF010C94FF010C94FF010C94FF0100
:100080000C94FF010C94FF010C94FF010C94FF01F0
:100090000C94E2130C94FF010C94FF010C94FF01EB
:1000A0000C94FF010C94A0110C94FF0100000000BF
:1000B0000000004F00000007000700147F147F14A9
:1000C000242A7F2A122313086462364955225000DD
:1000D00000070000001C2241000041221C001408FF
:1000E0003E081408083E08080050300000080808C0
:1000F0000808006060000020100804023E514945D5
:100100003E00427F400042615149462141454B310A
:100110001814127F1027454545393C4A4949300398
:10012000017109073649494936064949291E0036F1
:100130003600000056360000081422410014141442
:100140001414004122140802015109063249794170
:100150003E7E1111117E7F494949363E414141227F
:100160007F4141413E7F494949417F090909013E9B
:100170004149497A7F0808087F00417F41002040BB
:10018000413F017F081422417F404040407F020CE4
:10019000027F7F0408107F3E4141413E7F090909EB
:1001A000063E4151215E7F09192946464949493198
:1001B00001017F01013F4040403F1F2040201F3F81
:1001C0004038403F63140814630708700807615102
:1001D000494543007F41410002040810200041418D
:1001E0007F0004020102044040404040000102043C
:1001F0000020545454787F484444383844444420C0
:10020000384444487F3854545418087E0901020C7D
:100210005252523E7F0804047800447D4000204042
:10022000443D007F1028440000417F40007C0418BA
:1002300004787C0804047838444444387C1414144A
:1002400008081414187C7C080404084854545420EA
:10025000043F4440203C4040207C1C2040201C3C6B
:100260004038403C44281028440C5050503C4464D2
:10027000544C44000836410000007F000000413625
:1002800008000C02040806081C2A080800030C0FCA
:1002900030333C3FC0C3CCCFF0F3FCFF0000000084
:1002A0002300260029002C002F000000000024005D
:1002B00027002A002D003000080B00020202000077
:1002C00009040000010202000005240010010524B9
:1002D000010101042402060524060001070581032B
:1002E00010004009040100020A0000000705020294
:1002F00040000007058302400000040309041201C6
:100300000002EF020140FB1F002300010102030174
:10031000506F6C6F6C7520436F72706F726174698F
:100320006F6E00506F6C6F6C7520412D537461724D
:10033000203332553400506F7765723A2020000028
:10034000000000250028002B002E003100040404CA
:10035000040403040502020202040302020202066C
:10036000060606060604040202020404040802014A
:1003700010408040102040804080080204018040EE
:1003800020100201108010204040200000000200D8
:10039000090F0000030401000C0000000000000031
:1003A0000000000000000000000034156C1811244B
:1003B0001FBECFEFDAE0DEBFCDBF11E0A0E0B1E0BD
:1003C000E6E7F9E302C005900D92A83AB107D9F724
:1003D00023E0A8EAB1E001C01D92A93EB207E1F70F
:1003E00011E0C6EDD1E004C02197FE010E946E1B12
:1003F000C53DD107C9F70E9493150C94AE1C0C940F
:1004000000005B9887FD5D9A87FF5D985B9A5B981B
:1004100086FD5D9A86FF5D985B9A5B9885FD5D9A87
:1004200085FF5D985B9A5B9884FD5D9A84FF5D987B
:100430005B9A5B9883FD5D9A83FF5D985B9A5B98FE
:1004400082FD5D9A82FF5D985B9A5B9881FD5D9A63
:1004500081FF5D985B9A5B9880FD5D9A80FF5D9857
:100460005B9A0895FC0180918602882311F13FB7C1
:10047000F89482E08093E9002091F200822F90E0CE
:100480001816190614F481E090E0882339F02898B2
:1004900044E6409385024091F1004083222339F0E5
:1004A0002091F200211103C02BE62093E8003FBF0A
:1004B00008958FEF9FEF08952FB7F89483E080930E
:1004C000E9009091E800892F807295FF04C0909117
:1004D000F20080E4891B2FBF089580917D02811175
:1004E0000DC082E08093790284E080937A021092BA
:1004F0007C0210927B0281E080937D0289E792E08A
:10050000089581508F3008F047C0E82FF0E0E5579C
:10051000FD4F0C946E1BA802AC029A02A002A4022A
:10052000CC02CC02CC02AF02B502B902BD02C302BA
:10053000CC02C702809180008F778093800008955D
:10054000809180008F7DF9CF80918000877FF5CFEB
:1005500084B58F7784BD089584B58F7DFBCF80915E
:1005600090008F77809390000895809190008F7D08
:10057000F9CF80919000877FF5CF8091C0008F7771
:100580008093C00008958091C0008F7DF9CF809145
:10059000C200877F8093C20008951F93CF93DF939B
:1005A000282F30E0F901E557FC4F8491F901E45917
:1005B000FC4FD491F901E35BFC4FC491CC23A9F02B
:1005C000162F81110E948102EC2FF0E0EE0FFF1F29
:1005D000E15CFC4FA591B4918FB7F894EC911111A7
:1005E00008C0D095DE23DC938FBFDF91CF911F91A0
:1005F0000895DE2BF8CF3FB7F89480917502909163
:100600007602A0917702B091780226B5A89B05C02A
:100610002F3F19F00196A11DB11D3FBFBA2FA92F81
:10062000982F8827BC01CD01620F711D811D911D7E
:1006300042E0660F771F881F991F4A95D1F70895EA
:100640008F929F92AF92BF92CF92DF92EF92FF92E2
:100650004B015C010E94FB026B017C010E94FB02CA
:100660006C197D098E099F09683E734081059105CB
:10067000A8F321E0821A9108A108B10888EEC80EFB
:1006800083E0D81EE11CF11C81149104A104B10483
:1006900029F7FF90EF90DF90CF90BF90AF909F90A1
:1006A0008F900895E0915802F0915902309729F007
:1006B000109255021092540209940895CF93DF933B
:1006C000AC01E0915A02F0915B023097F1F0909109
:1006D0005702809156029817C0F090E0292F30E021
:1006E0002617370754F4D901A855BE4F240F351FDC
:1006F000E90128812C939F5FF1CF109257026093FC
:100700005602CB01DF91CF910994DF91CF910895EB
:10071000089540914A0250914B0220914802309135
:10072000490242175307B4F49091E8009570E1F341
:100730009091E80092FD19C08093F10080914A02E7
:1007400090914B0201968F739927892B19F48EEFA4
:100750008093E80080914A0290914B020196909319
:100760004B0280934A0281E0089580E00895DF9271
:10077000EF92FF920F931F93CF93DF93D82E8A01AE
:10078000EB017B01E40EF51ECE15DF0559F0D7FE17
:1007900012C0FE0184910E94890321968111F4CF39
:1007A0000FEF1FEFC801DF91CF911F910F91FF90C5
:1007B000EF90DF9008958881EECF0F931F93CF9332
:1007C000DF931F92CDB7DEB782E0898342E450E029
:1007D00068EB72E080E80E94B7030E946D02DC01C2
:1007E00012960D911C910115110589F0D801ED911A
:1007F000FC910280F381E02DBE016F5F7F4FC80145
:10080000099597FD04C0F80100851185ECCF898119
:100810000F90DF91CF911F910F910895615030F0AB
:100820002091F100FC0120830196F8CF289884E6FE
:100830008093850208958F929F92AF92BF92CF923C
:10084000DF92EF92FF920F931F93CF93DF936C0190
:100850007B018A0180911501882309F45CC0809195
:100860008602882309F457C080914E0280FF05C09C
:100870008091E00082608093E000E801B12C8AEF73
:10088000A82E93E0892E2AE3922E209711F4BB2004
:10089000D9F10E945C0281110AC0AA94AA20D9F160
:1008A00061E070E080E090E00E942003EECF8C17C2
:1008B0001D0611F00CF08C2F9FB7F8948092E90080
:1008C0002091E80025FD02C09FBFDFCF282F30E038
:1008D000C21BD30BF701815020F041914093F100EE
:1008E000FACFE20EF31EBB2021F09092E800B12C6B
:1008F000EBCF8091E80085FDE7CF9092E800BB2424
:10090000B394209709F3F3CF5D9884E680934D026A
:10091000101611063CF081E090E0F601938382838B
:1009200010E000E0C801DF91CF911F910F91FF907F
:10093000EF90DF90CF90BF90AF909F908F900895F1
:10094000CF93DF931F92CDB7DEB76983DC01ED91C2
:10095000FC910280F381E02D41E050E0BE016F5F29
:100960007F4F09950F90DF91CF91089583E0809399
:10097000E9008091F200882319F08AE38093E8006F
:1009800008950E945C0290E00895CF93DF931F9238
:10099000CDB7DEB7FC018485958597FD08C02FEFA4
:1009A0003FEF358724870F90DF91CF910895CE01D7
:1009B00001960E943202019719F4898190E0F3CFE9
:1009C0008FEF9FEFF0CF0F931F93CF93DF931F9283
:1009D000CDB7DEB78C01FC018485958597FF0BC0F0
:1009E000CE0101960E943202019771F4898190E054
:1009F000F80195878487F801848595850F90DF91AC
:100A0000CF911F910F9108958FEF9FEFF1CFFC01D0
:100A10008485958597FD0BC09FB7F89482E08093FD
:100A2000E9008091F2009FBF90E0019608959FB782
:100A3000F89482E08093E9008091F2009FBF90E0FB
:100A4000089580914502E0914602F0914702882383
:100A500039F084919FEB980F9A3120F4805E0895CD
:100A60008081F8CF803269F42091460230914702AC
:100A7000A9014F5F5F4F5093470240934602232BDB
:100A800001F708951F93CF93DF930E942105D0E0D3
:100A9000C0E01AE090ED980F9A30B8F41C9F9001D6
:100AA0001D9F300D1124E901C80FD11D87FDDA9576
:100AB000E0978091460290914702019690934702F9
:100AC000809346020E942105E5CFCE01DF91CF91B0
:100AD0001F9108953F924F925F926F927F928F92F3
:100AE0009F92AF92BF92CF92DF92EF92FF920F93BD
:100AF0001F93CF93DF937B01D42E209142022111CB
:100B00001BC021E020934202109272001092C0009C
:100B100034E03093C10039E03093C2002093C30029
:100B200023E02093BF0028EE2093D1001092BF0055
:100B30001092D200579A789410920901CC24C39451
:100B400097FF03C09F77AAE0CA2EC8E2CC9EC02DB3
:100B50001124D0E08C179D0750F021E0EC01C21267
:100B600006C0C13187E2D80710F0C0E1D7E24E01DC
:100B7000B12CA12C4C2C512C712C612C9E01AFEF6F
:100B8000B7E00E94FD18640D751D861D971D969592
:100B9000879577956795A30192010E94DB1860E025
:100BA00072E18AE790E0312C33946217730784076F
:100BB000950728F09695879577956795F5CFA301CA
:100BC00092010E943E1B9E0136952795620F731F6E
:100BD000811D911DA50194010E94DB18722E022F28
:100BE000132F2AE0C21207C0CE0105966AE070E01A
:100BF0000E945A1BEB01C83E83E0D80759F09701C9
:100C0000DE010E94FD1828EE33E040E050E00E9433
:100C1000B1187901109272008091C100807F832900
:100C20008093C1001093BF007092D1004D2D4031D0
:100C300008F04FE080E190E0841B910902C0169516
:100C400007958A95E2F71093BF000093D200F092C7
:100C50004402E092430289B38FEF89BB84E0809322
:100C60007200DF91CF911F910F91FF90EF90DF9075
:100C7000CF90BF90AF909F908F907F906F905F903C
:100C80004F903F9008952E98269A2D98259A2A984D
:100C9000229A2998219A80EA8093800081E18093AA
:100CA000810080E991E09093870080938600109204
:100CB00089001092880010928B0010928A0008958B
:100CC000CF93DF93EC0180913E02811105C081E05A
:100CD00080933E020E944306D0938900C09388000F
:100CE0002998219ADF91CF910895CF93DF93EC015A
:100CF00080913E02811105C081E080933E020E94F6
:100D00004306D0938B00C0938A002A98229ADF91E1
:100D1000CF9108959FB191708CB186FB882780F99F
:100D2000892720913A023091390240915F02509117
:100D3000600228273927231B330B240F351F3093DC
:100D4000600220935F023091390220913A023817F5
:100D500029F0291719F021E02093380280933902F5
:100D600090933A02089524982C9A6A98729A6E98F1
:100D7000769A8098889A81E08093680090E19093B9
:100D80006B008BBB8AE896E090931F0180931E0155
:100D9000EAE6F0E080818F7C80618083EE9A8CB1FE
:100DA00082FB882780F980933D0293B180913D02B8
:100DB00092959170892780933C0210925D02109267
:100DC0005C0210923B028FB1817080933A029CB119
:100DD00080913A0296FB992790F9892780933902EE
:100DE0001092600210925F021092380208955F9292
:100DF0006F927F928F929F92AF92BF92CF92DF922B
:100E0000EF92FF920F931F93CF93DF93DC011A961B
:100E10002D913C91232B09F4D2C06B01EC0110E021
:100E20008C85181708F039C0E12EF12C8E859F852E
:100E3000F701EE0FFF1FEC0DFD1D91838083EA8506
:100E4000FB85EE0DFF1D61E080810E94CD028A8549
:100E50009B85E80EF91EF701808190E0FC01E459C2
:100E6000FC4F2491835B9C4FFC018491882399F073
:100E700090E0880F991FFC01E655FD4FA591B491B4
:100E8000FC01E15CFC4F859194918FB7F894EC9153
:100E9000E22BEC938FBF1F5FC3CF83E290E00197FB
:100EA000F1F710E08C85181708F036C0212F30E0DC
:100EB000EA85FB85E20FF31F808190E0FC01E45995
:100EC000FC4F4491835B9C4FFC0184918823C9F0C3
:100ED00090E0880F991FFC01E655FD4FA591B49154
:100EE000FC01E15CFC4F659174919FB7F8948C9183
:100EF000E42FE0958E238C93DB018C91E823EC9317
:100F00009FBF8A859B85280F391F60E0F90180818A
:100F10000E94CD021F5FC6CF0E94FB024B015C0105
:100F20000E94FB02AB01BC01481959096A097B09FF
:100F30008E859F85B0E0A0E0481759076A077B07B8
:100F400008F03DC00E94FB027B01E818F908612C03
:100F50008C85681628F7062D10E0EA85FB85E00FE2
:100F6000F11F208130E0F901E557FC4F8491F90130
:100F7000E459FC4F7490F901E35BFC4F549051101D
:100F80000CC0000F111FF601E00FF11F808191814D
:100F9000E816F90688F06394DBCF81110E94810284
:100FA000E52DF0E0EE0FFF1FE456FD4FA591B49143
:100FB000EC917E2231F3EFCFF182E082ECCFDF9132
:100FC000CF911F910F91FF90EF90DF90CF90BF9046
:100FD000AF909F908F907F906F905F900895209139
:100FE000EE01260F3327331F21323105ECF4209117
:100FF0001202FC0190E080E0243069F082E0089564
:10100000A091EE012191AC0142535E4FA40FB52F88
:10101000B11D2C930196861798F38091EE01680F0D
:101020006093EE0180E0089581E00895109212022D
:1010300081E0809314021092130261E082E00E942A
:10104000CD0261E083E00E94CD02E9EBF0E0808117
:101050008E7F808380818D7F808388E48093B80039
:1010600085E48093BC0008950895E0915702809133
:101070005602E81730F4F0E0E855FE4F808190E02A
:1010800008958FEF9FEF0895909157028091560237
:101090002FEF3FEF981748F4E92FF0E0E855FE4FA7
:1010A000208130E09F5F90935702C901089580919D
:1010B000560290915702891B990B0895CF93DF93A5
:1010C000CB01EA01642F0E94EF07CE01DF91CF919F
:1010D0000895CF93DF931F92CDB7DEB7698361E0A8
:1010E000CE0101960E94EF0781E090E00F90DF9122
:1010F000CF910895289A209A08952898209A0895C3
:101100005F926F927F928F929F92AF92BF92CF9297
:10111000DF92EF92FF920F931F93CF93DF935C01C7
:10112000D62FC42FF22E132F0E947D088D2F806B97
:101130000E9401028C2F82958F7080610E940102B3
:101140008C2F8F700E9401020E947A08CF2DD12F20
:101150000C0F1D2F111D95E0692EC017D10709F442
:1011600044C07990872D8052990B9C01629EC001EA
:10117000639E900D1124769C40011124F12CE12CEA
:101180009C0124553F4F69013FE1371508F5F601F1
:10119000EE0DFF1DE491F0E084E0F595E7958A956A
:1011A000E1F7E457FD4F5490852D0E940102852DF3
:1011B0000E9401029FEFE91AF90A25E0E216F10404
:1011C00019F780E00E94010280E00E940102C5CF71
:1011D00087E0E0E08715F8F2F401EE0DFF1DE25420
:1011E000FF4FEA0DFB1DE081D6CFDF91CF911F911C
:1011F0000F91FF90EF90DF90CF90BF90AF909F90B6
:101200008F907F906F905F9008955F926F927F9222
:101210008F929F92AF92BF92CF92DF92EF92FF9206
:101220000F931F93CF93DF935C01D62FC42FF22E21
:10123000132F0E947D088D2F806B0E9401028C2F3E
:1012400082958F7080610E9401028C2F8F700E94A6
:1012500001020E947A08CF2DD12F0C0F1D2F111DD6
:1012600085E0682EC017D10709F440C07990872D1A
:101270008052990B9C01629EC001639E900D1124C7
:10128000769C40011124F12CE12C9C0124553F4F08
:1012900069013FE13715E8F4F601EE0DFF1DE49119
:1012A000EF70F0E0E457FD4F5490852D0E9401024D
:1012B000852D0E9401029FEFE91AF90A25E0E21646
:1012C000F10439F780E00E94010280E00E940102EF
:1012D000C9CF87E0E0E0871518F3F401EE0DFF1D9C
:1012E000E254FF4FEA0DFB1DE081DACFDF91CF9191
:1012F0001F910F91FF90EF90DF90CF90BF90AF9034
:101300009F908F907F906F905F9008956F927F92E3
:101310008F929F92AF92BF92CF92DF92EF92FF9205
:101320000F931F93CF93DF935C01D62FC42FF22E20
:10133000132F0E947D088D2F806B0E9401028C2F3D
:1013400082958F7080610E9401028C2F8F700E94A5
:1013500001020E947A08CF2DD12F0C0F1D2F111DD5
:1013600085E0682EC017D107A9F17990872D8052AA
:10137000990B9C01629EC001639E900D1124769C86
:1013800040011124F12CE12C9C0124553F4F6901AF
:101390003FE1371588F4F601EE0DFF1D84910E94A0
:1013A00001029FEFE91AF90A25E0E216F10481F73C
:1013B00080E00E940102D6CF87E0871548F0F70150
:1013C000E80DF91DE254FF4FEA0DFB1D8081E7CFC8
:1013D00080E0E5CFDF91CF911F910F91FF90EF90CB
:1013E000DF90CF90BF90AF909F908F907F906F9045
:1013F0000895282F21FB0EF0209820FB0EF028984E
:101400000EF4289A21FB0EF4209A0895CF93DF93CF
:10141000EC01288121FB0EF0559820FB0EF05D9821
:101420000EF45D9A21FB0EF4559A89810E94F90908
:10143000E9EEF0E010828C818093F0008B81808354
:101440008A818093E200DF91CF910895FC01A2EEA2
:10145000B0E08C9182831C92A9EEB0E08C918383E2
:101460001C92A0EFB0E08C9184831C9220E05D99E7
:10147000216055992260208320E0289921602099DD
:10148000226021835D98559A0895CF92DF92EF9262
:10149000FF920F93CF93DF93EC017C0184E0E80E81
:1014A000F11CC7010E94260A6E0184E1C80ED11CFE
:1014B00008E0960143E162E0CE010E940509960131
:1014C00043E163E0CE010E9480086E0189E2C80E0C
:1014D000D11C960143E165E0CE010E940509960109
:1014E00043E166E0CE010E948008C701DF91CF9101
:1014F0000F91FF90EF90DF90CF900C94060AEF923F
:10150000FF920F93CF93DF93EC017C0184E0E80E10
:10151000F11CC7010E94260A9E012C5E3F4F05E187
:1015200042E060E0CE010E9486099E01275D3F4FA8
:1015300042E061E0CE010E9486099E01225C3F4F9D
:1015400042E062E0CE010E9486099E012D5A3F4F83
:1015500042E063E0CE010E9486099E0128593F4F78
:1015600042E064E0CE010E9486099E0123583F4F6D
:1015700042E065E0CE010E9486099E012E563F4F53
:1015800042E066E0CE010E9486099E0129553F4F48
:1015900042E067E0CE010E948609C701DF91CF914A
:1015A0000F91FF90EF900C94060AEF92FF920F9329
:1015B0001F93CF93DF938C017C0184E0E80EF11C34
:1015C000C7010E94260A0E947D0882E00E94010253
:1015D000C0E00E947D088C2F806B0E94010280E198
:1015E0000E9401020E947A08D0E080E00E9401027D
:1015F000DF5FD038D1F7CF5FC83059F7C7010E94FD
:10160000060AF8011286DF91CF911F910F91FF908A
:10161000EF900895AF92BF92CF92DF92EF92FF9238
:101620000F931F93CF93DF937C01122F683008F044
:1016300043C0423008F040C088E0861B8217D0F1DA
:101640002223D1F1C42FCC0FC40FDCE06D9FD02D2D
:101650001124DD5E670124E1C20ED11C862F90E0CB
:1016600025E1429F800D911D1124C80ED91E5701FE
:1016700084E0A80EB11CC5010E94260A62E06C0F2E
:10168000012F96014D2FC7010E94050963E06C0FE1
:1016900096014D2FC7010E948008C501DF91CF91AF
:1016A0001F910F91FF90EF90DF90CF90BF90AF9080
:1016B0000C94060A182FC6CFDF91CF911F910F917E
:1016C000FF90EF90DF90CF90BF90AF900895BF92C2
:1016D000CF92DF92EF92FF920F931F93CF93DF93FE
:1016E000EC01162FB42E022F653198F527E0241750
:1016F00080F185E1861B801750F1002351F1CE0166
:101700004496E12EF12C25E1B29EE00CF11C11244F
:10171000E80EF91E6E0184E0C80ED11CC6010E94BD
:10172000260A412F440F410F440F4E5F97016B2D46
:10173000CE010E948609C601DF91CF911F910F91C2
:10174000FF90EF90DF90CF90BF900C94060A082F87
:10175000D6CFDF91CF911F910F91FF90EF90DF9047
:10176000CF90BF900895089590E080E008950E9482
:10177000991CFB0101900020E9F73197AF01461B4E
:10178000570BDC01ED91FC910280F381E02D09946F
:101790008F929F92AF92BF92EF92FF920F931F93FF
:1017A000CF93DF93CDB7DEB7A1970FB6F894DEBF26
:1017B0000FBECDBF7C01FA01CB0119A2223008F483
:1017C0002AE08E010F5D1F4F822E912CB12CA12C8F
:1017D000BF01A50194010E94DB18F901CA016A301A
:1017E0000CF5605DD8016E938D01232B242B252BE6
:1017F00079F790E080E0109721F0BD01C7010E94C9
:10180000B90BA1960FB6F894DEBF0FBECDBFDF9126
:10181000CF911F910F91FF90EF90BF90AF909F904D
:101820008F900895695CDECF80916102882329F151
:1018300040916702509168026091690270916A025A
:101840002AE087E892E00E94C80B67E871E087E829
:1018500092E00E94B90B6091670287ED92E00E94CE
:1018600069081092610210926B0210926C02109241
:101870006D0210926E0210926F020895CF92DF9265
:10188000EF92FF928091560290915702891B990B1B
:101890001816190644F587ED92E00E94440880531B
:1018A000990B6C01092E000CEE08FF082AE0B70125
:1018B000A60197FF0DC06DE287E892E00E94A004A8
:1018C00044275527BA014C195D096E097F092AE0A2
:1018D00087E892E00E94C80B67E871E087E892E031
:1018E0000E94B90BCFCFFF90EF90DF90CF9008957B
:1018F000CF93DF9385ED8093BC008091CA019091D6
:10190000CB01A091CC01B091CD010796A11DB11DD5
:1019100023E0B695A795979587952A95D1F72091BD
:10192000BC0024FD03C01092120236C04091CA01CF
:101930005091CB016091CC017091CD01452B462B8C
:10194000472B69F30097A105B10541F02AE22A95DA
:10195000F1F700C00197A109B109E1CF8091C90158
:1019600091E09093C8018823B9F0C091B800D0915C
:10197000BA008091BC008A7B8093BC0060E082E06A
:101980000E94CD0260E083E00E94CD020E94160812
:10199000D093BA00C093B800DF91CF9108950F9310
:1019A0001F93CF93DF93EC015B98539A5A98529A06
:1019B00085E38A95F1F700005A9A529A85E38A9551
:1019C000F1F70000CE010E94D50A8E010C5F1F4F77
:1019D000C8010E94260A0E947D0881EA0E94010235
:1019E00088EC0E94010281E80E9401028FEF0E94B0
:1019F00001028FEA0E940102C8010E94060A81E0EA
:101A00008987DF91CF911F910F910895FF920F93D6
:101A10001F93CF93DF93EC01162F042FF22E8985AD
:101A2000811103C0CE010E94CF0C8A85882319F052
:101A3000CE010E94D50A2A893B89C90195958795CF
:101A40008C0F9D1FE889F98920FF08C0DC012D91CA
:101A50003C91E20FF31F0190F081E02D2F2D402FDC
:101A6000612FDF91CF911F910F91FF900994CF9338
:101A7000DF93DC01A354BF4F2C91283008F5EC0113
:101A8000C454DF4FE881E531D8F4AC0175E1279FFC
:101A9000400D511D1124E40FF52FF11D648BFC0145
:101AA0002385211105C021E04C9168810E94060D1B
:101AB00088818F5F888381E090E0DF91CF910895E6
:101AC00090E080E0FACFAF92BF92CF92DF92EF9298
:101AD000FF920F931F93CF93DF9382EEE82EF12CAA
:101AE000F70100811082C9EED0E0B880188290EF33
:101AF000C92ED12CF601A080108220E02899216007
:101B000020992260822F2098289A90E19A95F1F7E7
:101B100013B10E94F9091882F601A082B882F70178
:101B20000083812F80958170DF91CF911F910F915C
:101B3000FF90EF90DF90CF90BF90AF9008950C94FE
:101B4000A318BF92CF92DF92EF92FF920F931F9351
:101B5000CF93DF938C01EA016C012DEBC20ED11CF7
:101B6000F60130813830D8F57C01FCEBEF0EF11C2A
:101B7000F7018081853198F525E1281B90E0241735
:101B8000150620F4C5E1D0E0C81BD90BF5E13F9F55
:101B9000800D911D1124AE0198012C5E3F4F820FE4
:101BA000931F0E949E1CBC2EF8018385811108C0E2
:101BB0002C2FF6014081F7016081C8010E94060DBB
:101BC000F70180818B0D8083CE01DF91CF911F9132
:101BD0000F91FF90EF90DF90CF90BF900895D0E0ED
:101BE000C0E0F2CF1F920F920FB60F9211242F93E5
:101BF0003F938F939F93AF93BF9380917102909186
:101C00007202A0917302B09174023091700223E0CD
:101C1000230F2D3758F50196A11DB11D2093700299
:101C20008093710290937202A0937302B093740236
:101C30008091750290917602A0917702B09178021E
:101C40000196A11DB11D8093750290937602A09319
:101C50007702B0937802BF91AF919F918F913F919E
:101C60002F910F900FBE0F901F90189526E8230F0D
:101C70000296A11DB11DD2CF1F920F920FB60F92E7
:101C800011242F933F934F935F936F937F938F9381
:101C90009F93AF93BF93EF93FF93E0911E01F09159
:101CA0001F010995FF91EF91BF91AF919F918F9186
:101CB0007F916F915F914F913F912F910F900FBE48
:101CC0000F901F9018951F920F920FB60F9211242C
:101CD0002F933F934F935F936F937F938F939F9334
:101CE000AF93BF93EF93FF93E0911C01F0911D011F
:101CF0000995FF91EF91BF91AF919F918F917F9146
:101D00006F915F914F913F912F910F900FBE0F9068
:101D10001F9018951F920F920FB60F9211242F93B8
:101D20003F934F935F936F937F938F939F93AF9363
:101D3000BF93EF93FF93E0911A01F0911B01099576
:101D4000FF91EF91BF91AF919F918F917F916F9193
:101D50005F914F913F912F910F900FBE0F901F9069
:101D600018951F920F920FB60F9211242F933F9345
:101D70004F935F936F937F938F939F93AF93BF9393
:101D8000EF93FF93E0911801F09119010995FF91EC
:101D9000EF91BF91AF919F918F917F916F915F91E3
:101DA0004F913F912F910F900FBE0F901F9018955C
:101DB0001F920F920FB60F9211242F933F934F93C0
:101DC0005F936F937F938F939F93AF93BF93EF93A3
:101DD000FF93E0911601F09117010995FF91EF91A2
:101DE000BF91AF919F918F917F916F915F914F9133
:101DF0003F912F910F900FBE0F901F9018951F923B
:101E00000F920FB60F9211248F939F938091E10050
:101E10009091E100937F9093E10083FF0FC01092B7
:101E2000E90091E09093EB001092EC0092E3909324
:101E3000ED001092860298E09093F00082FF22C09D
:101E400093E09093E9009091F200992319F09AE3BE
:101E50009093E80090914D02992341F090914D02AA
:101E6000915090934D02911101C05D9A909185021D
:101E7000992341F0909185029150909385029111A0
:101E800001C0289A84FF18C08091E2008E7E816094
:101E90008093E2008091E1008F7E8093E100809149
:101EA0004E028E7E806180934E029F918F910F90A3
:101EB0000FBE0F901F90189580FFF7CF8091E20022
:101EC0008E7E80618093E2008091E1008E7E80931F
:101ED000E10080914E028E7E8160E5CF1F920F92CD
:101EE0000FB60F921124CF92DF92EF92FF920F93D1
:101EF0001F932F933F934F935F936F937F938F9392
:101F00009F93AF93BF93EF93FF93CF93DF93CDB79F
:101F1000DEB76C97DEBFCDBF1092E9008091E8007C
:101F200083FF25C068E0CE0145960E940E0482EF33
:101F30008093E8008D8987FF39C09091E80090FF79
:101F4000FCCF982F907609F034C19E894F89588D27
:101F50002F89F88C911131C0803861F580914F0242
:101F60008093F1001092F1008EEF8093E8006C9660
:101F70000FB6F894DEBF0FBECDBFDF91CF91FF91BA
:101F8000EF91BF91AF919F918F917F916F915F91F1
:101F90004F913F912F911F910F91FF90EF90DF9004
:101FA000CF900F900FBE0F901F9018959EEF9093BB
:101FB000E800C7CF1092F100D5CF913059F48111CC
:101FC000D3CF4130510581F680914F028D7F8093B0
:101FD0004F02CACF933049F48111C6CF4130510529
:101FE00019F680914F028260F2CF953041F48091D2
:101FF000E80080FFFCCF20682093E300B5CF963047
:1020000009F0A9C00B8D1C8D22E01092E9001092FE
:102010004B0210924A02F2122EC010924902109204
:1020200048020E94DD031F8299E09983FA8291E0C1
:102030009E8390EA98879AEF998720914A0230917F
:102040004B02275F3F4F3C832B838D831092E90027
:1020500010924B0210924A021093490200934802D8
:1020600049E050E0BE016F5F7F4F80E00E94B70300
:102070000E94DD0379CF10934902009348020E9429
:102080006D02DC0112960D911C910115110509F4E8
:1020900051C1D801ED91FC910480F581E02DBE0184
:1020A0006B5E7F4FC8010995009709F03EC1F801AA
:1020B00000851185EACFF3E0FF120EC08F898823D7
:1020C00009F440C0823061F440E862E183E293E0C9
:1020D0000E940115811148CF81E28093EB0047CF28
:1020E000813029F440E862E180E193E0F1CF833070
:1020F00099F70E946D02DC011296ED90FC908E0122
:102100000F5F1F4F6801E114F10479F0D701ED91E1
:10211000FC910680F781E02DB801C7010995080FF1
:10212000111DF701E084F184EECFD8011C92F60175
:1021300001900020E9F73197BF016C197D0940E05B
:10214000C601C6CF6AEF72E0FB01449150E080E81F
:102150000E94B70309CF973009F4BECF983021F41D
:1021600081E08093F10000CF993009F0FDCE8370BB
:1021700009F0B2CFEFE3F1E081E031E096E32191A5
:10218000222371F08093E9003093EB00DF01119777
:102190002C912093EC009093ED008F5F873079F7BE
:1021A0008EE78093EA001092EA008F89809386027E
:1021B000DBCE8B8D9C8D1092E90010924B02109219
:1021C0004A029093490280934802898D811192C0FE
:1021D0008E899D89913A49F4813209F07DCF47E09B
:1021E00050E06EE071E080E0B3CF913209F074CF3F
:1021F000833269F48F89988DB0E0A0E080930A0162
:1022000090930B01A0930C01B0930D01ADCE8032E1
:1022100069F48091E80082FFFCCF67E08EE091E0F6
:102220000E940E048BEF8093E8009ECE823209F06C
:102230009BCE8F8980931501EEEFFFE785919491F6
:102240008B3F9C4D51F1E0E0F8E080910E019091C0
:102250000F01A0911001B0911101803B9440A105A4
:10226000B105F1F48091150180FD1AC0EE3F8AE0BE
:10227000F80789F587E797E791838083809160006D
:1022800080934C0288E19BE00FB6F894A895809368
:1022900060000FBE9093600067CEEEEFFAE0D5CFFE
:1022A000808191818737974709F05ECEA89580910C
:1022B000600088618093600080914C028093600090
:1022C000EE3F2AE0F20789F08091FE0A9091FF0A22
:1022D0009183808349CE808191818737980751F21D
:1022E0009093FF0A8093FE0AC5CF1092FF0A1092C6
:1022F000FE0A3ACE0E946D02DC0112960D911C91ED
:102300000115110509F4E8CED801ED91FC91019079
:10231000F081E02DBE016B5E7F4FC80109958111F0
:1023200023CEF80100851185EBCF181619060CF4A1
:102330001BCED2CEF1E0FF12BECE6EEF72E004CF24
:102340001F920F920FB60F9211244F925F926F92CD
:102350007F928F929F92AF92BF92CF92DF92EF9235
:10236000FF920F931F932F933F934F935F936F931E
:102370007F938F939F93AF93BF93CF93DF93EF930D
:10238000FF93C0914302D0914402CE0101979093F4
:102390004402809343022097A1F510927200789432
:1023A0008091C100807F84608093C10083E080932E
:1023B000BF0088EE8093D1001092BF001092D2002F
:1023C00081E0809309018091460290914702892B18
:1023D000C1F080914102811114C070900801809178
:1023E0004002882379F180913F02882359F160915E
:1023F0003F0270E040E088EE93E00E946A05109290
:102400003F02FF91EF91DF91CF91BF91AF919F91EB
:102410008F917F916F915F914F913F912F911F917C
:102420000F91FF90EF90DF90CF90BF90AF909F9073
:102430008F907F906F905F904F900F900FBE0F9096
:102440001F9018955524539470ECA72E7DE5B72E58
:10245000EAE04E2EF4E06F2EA0EDCA2EA7E0DA2EB1
:10246000B4E0EB2EF12C04EF11E08FE0882E912CDC
:102470000E94210520914602309147022F5F3F4F75
:102480003093470220934602853609F473C00CF05E
:1024900047C0813609F4B4C024F58C3309F468C010
:1024A0008E3309F463C0813209F043C060920801A1
:1024B000D0920501C0920401F0920701E09206015A
:1024C0001093030100930201909201018092000198
:1024D00010924002709008018091020190910301D6
:1024E000C7CF833609F48FC010E00BE0843614F0B8
:1024F00010E002E04CE0749E000D11240E942105C2
:10250000982F977F933209F080C080914602909176
:102510004702019690934702809346020F5FEECFE9
:102520008D3609F445C054F4873651F134F18C36B8
:1025300051F1109247021092460263CF823709F49C
:102540004CC044F48F36A9F70E944205782E809340
:1025500008018ECF843709F443C0863751F70E94B3
:102560004205909301018093000182CF739480CF44
:102570007A947ECF10E004E0BDCF10E005E0BACF42
:1025800010E007E0B7CF0E944205909307018093C7
:1025900006018091040190910501609106017091FE
:1025A00007010E945A1B709303016093020160CFE0
:1025B0000E9421058C3661F41092400280914602FF
:1025C000909147020196909347028093460250CF24
:1025D0005092400210923F02F1CF11E000E08ACF0A
:1025E0000E944205BC01C5010E945A1B469EC001C3
:1025F000479E900D11249093050180930401C9CF4B
:1026000010E009E077CF10E0E9CF8D3269F48091D6
:1026100046029091470201969093470280934602AA
:1026200001500E942105F1CFE0900201F0900301DA
:102630008153883058F4E0900401F09005010E9425
:102640004205BC01C7010E945A1B7B016701D69459
:10265000C7940E9421058E3261F4809146029091C8
:10266000470201969093470280934602EC0CFD1CB2
:10267000EECF80914002882349F0C7019695879557
:1026800080933F0280913F02E81AF108C090000158
:10269000D0900101111104C00F3F11F0C11007C00B
:1026A00040E0B70188EE93E00E946A05AACE0131AE
:1026B00028F010EF100F103608F01FE5812F6CE0A6
:1026C0000E944E1B582F44EF450390011124210F07
:1026D000311D2C30310538F4220F331FF901EA5D2A
:1026E000FE4FC081D1818730C1F0082E02C0CC0FCF
:1026F000DD1F0A94E2F7823040F0CE0105966AE0D1
:1027000070E00E945A1BCB0102C0CE0190584C2DA4
:10271000403108F04FE0B701C7CFCE0126E0880F67
:10272000991F2A95E1F7029665E070E0EACF1F92C3
:102730000F920FB60F9211242F933F934F936F93E5
:102740007F938F939F938CB1282F30E035952795F9
:1027500035952795422F417083B190E064E09595BF
:1027600087956A95E1F78227817020913D029091CB
:102770003C0260915C0270915D0228279427291B1E
:10278000330B260F371F30935D0220935C0220919C
:102790003C0290913D02281729F0941719F091E01E
:1027A00090933B0280933C0240933D029F918F9116
:1027B0007F916F914F913F912F910F900FBE0F908E
:1027C0001F9018951F920F920FB60F9211242F93FE
:1027D0003F934F935F936F937F938F939F93AF93A9
:1027E000BF93EF93FF938091B900887F803609F4FF
:1027F0004AC0F0F5883209F4A7C018F5803109F411
:102800009BC0B8F4882309F4F9C0883009F494C057
:10281000FF91EF91BF91AF919F918F917F916F91B8
:102820005F914F913F912F910F900FBE0F901F908E
:102830001895883109F488C0803251F780931102CD
:1028400014C0803409F49DC040F48033B9F3883358
:10285000F9F68093110285ECB0C0803509F485C08B
:10286000883509F496C0883499F60E94780CD0CF48
:10287000883909F48CC038F5883729F050F4883647
:1028800011F0803729F683E0809312021092100233
:1028900057C0883809F47BC0803919F0803809F0B6
:1028A000B7CF80911002803208F071C0E091100221
:1028B00081E08E0F809310028091BB00F0E0E05128
:1028C000FE4F80833DC0803B39F0E0F4803A09F44C
:1028D00079C0883A09F09CCF84E08093120210926C
:1028E000EF011092EE01E0915202F091530209952E
:1028F0008091EE0181110FC081E08093EE01109272
:10290000CE0109C0803C09F4A6CF883C09F4A3CFCE
:10291000883B09F07DCFE091EF0181E08E0F80933D
:10292000EF01F0E0E253FE4F80818093BB00909175
:10293000EF018091EE0129C0809137028093BB00A6
:1029400085EC8093BC0064CF909136028091350273
:10295000981758F5E091360281E08E0F8093360289
:10296000F0E0EB5EFD4F8081E9CFE091360281E03F
:102970008E0F809336028091BB00F0E0EB5EFD4F3E
:10298000808390913602809135029817C8F285E8CD
:10299000D8CFE091360281E08E0F8093360280918D
:1029A000BB00F0E0EB5EFD4F80838091140281114B
:1029B0005CCF81E08093130284EA8093BC00109284
:1029C000120226CF85EC8093BC00109212028091F7
:1029D0001002803230F4E0911002F0E0E051FE4F3E
:1029E00010826091100270E0E0915002F09151026B
:1029F00080EF91E00995109210020ACF1092110217
:102A000034CFEF92FF920F931F93CF93DF93F82E63
:102A1000192FE62E042F81E0860F880F0E9489036C
:102A200083E00E948903CF2DD12FEC0EFD2EF11CE7
:102A3000CE15DF05B9F007FF13C0FE0184910E9497
:102A40008903182F80E00E94890381232196811138
:102A5000EFCFDF91CF911F910F91FF90EF900895ED
:102A60008881EDCF81E0F5CFCF93DF93E7E8F2E007
:102A70001382128288EE93E0A0E0B0E08483958315
:102A8000A683B78329E431E0318320832FEF3FEF22
:102A900035872487E7EDF2E01382128284839583E1
:102AA000A683B7838BE591E091838083EDEDF3E01E
:102AB0001282158285E891E091838083EBECF3E04C
:102AC0001382128215821482178216821186108652
:102AD0001386128689E791E091838083C3EED2E06A
:102AE0001B821A8248EA50E060E270E087EF92E0D1
:102AF0000E94A71C1092CA031092C90385E49AE0B1
:102B00009D878C871F861E868AE09BE0998B888B29
:102B10001B8A1A8A81E08A878DE691E099838883EF
:102B2000DF91CF910895789484B5826084BD84B597
:102B3000816084BD85B5826085BD85B5816085BDB8
:102B400080916E00816080936E0010928100809170
:102B500081008260809381008091810081608093F8
:102B6000810080918000816080938000809191003D
:102B700082608093910080919100816080939100A8
:102B8000809190008160809390008091C10084606A
:102B90008093C1008091C10082608093C1008091C8
:102BA000C10081608093C1008091C30081608093E7
:102BB000C3008091C00082608093C0008091C200F9
:102BC00081608093C20080917A00846080937A0053
:102BD00080917A00826080937A0080917A0081608F
:102BE00080937A0080917A00806880937A001092B6
:102BF000860210924F0210924E028091D70081609F
:102C00008093D70080EA8093D80089B5806189BD20
:102C100089B5826089BD09B400FEFDCF61E070E036
:102C200080E090E00E9420038091D8008F7C80613A
:102C30008093D8008091E000807F8093E0008091B5
:102C4000E1008E7E8093E1008DE08093E200559A52
:102C5000209A10925702109256021092550210922A
:102C600054020E94160882E593E0909353028093E9
:102C700052028EE593E0909351028093500282E0DD
:102C80008093BA008FEF9FEF90939402809393020A
:102C900084E19CE090935902809358028EE39CE07B
:102CA00090935B0280935A021092CA031092C90358
:102CB0008FE79AE09093F0028093EF021092F20275
:102CC0001092F10287E69BE09093F4028093F30266
:102CD0001092F6021092F50281E08093ED0260E519
:102CE00090E080E00E949F0D60E081E090E00E9413
:102CF0009F0D60E082E090E00E949F0D90E080E0F8
:102D00000E949B188093660281E090E00E949B18CD
:102D1000682F70E090E080E00E941A1A60936C02C5
:102D200070936D0280936E0290936F0282E090E048
:102D30000E949B1880936B0245E0442E512C612C1D
:102D4000712C50E5252E63E0362E84E690E00E943B
:102D5000750684E690E00E94600680906C02909078
:102D60006D02A0906E02B0906F0220E030E04FE75D
:102D700053E4C501B4010E94A81A87FD15C08091D3
:102D80006B028F5F80936B0220E030E04FE753E4EB
:102D9000C501B4010E940C1960936C0270936D021E
:102DA00080936E0290936F0280915E02811105C044
:102DB00021E020935E020E94B306F89400915C0229
:102DC00010915D0210925D0210925C0278948091E5
:102DD0005E02811105C081E080935E020E94B3060D
:102DE000F894C0915F02D09160021092600210923C
:102DF0005F02789480906C0290906D02A0906E02B9
:102E0000B0906F02B80117FF03C071956195710909
:102E1000072E000C880B990B0E941C1A26E53EE039
:102E200049E450E40E94AD1A27E73EEB4FE15DE331
:102E30000E94AD1A20E030E843E654E40E9479197C
:102E40006B017C01BE01D7FF03C0719561957109CB
:102E5000072E000C880B990B0E941C1A26E53EE0F9
:102E600049E450E40E94AD1A27E73EEB4FE15DE3F1
:102E70000E94AD1A20E030E843E654E40E9479193C
:102E80009B01AC01C701B6010E940D1920E030E0A2
:102E900040E251E40E94AD1A20E030E040E05FE300
:102EA0000E94AD1AA50194010E940D196B017C01CD
:102EB000C501B4010E94EB1981E090E00E949F0DD2
:102EC00060916B0282E090E00E949F0DC0926C02C4
:102ED000D0926D02E0926E02F0926F0260916B02EE
:102EE0009FEF699FB0011124072E000C880B990BEE
:102EF0000E941C1AA70196010E940D190E94EB194D
:102F000060936702709368028093690290936A02EB
:102F1000A30192010E94DB18C22DC21B6C2F90E00E
:102F200080E00E949F0DC093660210929F03109252
:102F3000A003C6E3D3E0FE016491662339F083EE7B
:102F400092E00E94370D2196892BA9F710929F03DA
:102F5000F1E0F093A0034091660250E070E060E081
:102F60002AE083EE92E00E94C80B10929F033092F9
:102F7000A0036AE871E083EE92E00E94B90B67E873
:102F800071E083EE92E00E94B90B10929F0324E05F
:102F90002093A003409167025091680260916902FA
:102FA00070916A022AE083EE92E00E94C80B6BE9FE
:102FB00071E083EE92E00E94B90B2FB7F8948091F4
:102FC000710290917202A0917302B09174022FBFAE
:102FD00040916202509163026091640270916502B7
:102FE000841B950BA60BB70B88389341A105B1053F
:102FF00008F46AC048EA50E060E270E087EF92E0CF
:103000000E94A71C10929F031092A0038091EE02D1
:1030100081112AC08091EC02811104C083EE92E0FC
:103020000E94CF0C8091ED02882321F083EE92E084
:103030000E94D50A2091F1023091F202C9019595C2
:1030400087958D519D4FE091EF02F091F00220FFA6
:1030500008C0DC012D913C91E20FF31F0190F0813B
:10306000E02D09951092EE026FE971E083EE92E097
:103070000E94B90B67E871E083EE92E00E94B90B01
:10308000B1E0B093610290E080E00E94750690E0AC
:1030900080E00E94600668EE73E080E090E00E94AD
:1030A00020032FB7F8948091710290917202A09141
:1030B0007302B09174022FBF8093620290936302F7
:1030C000A0936402B0936502E0E0F0E0EF2B09F416
:1030D0003CCE0E94000039CE8FE791E09093CC0364
:1030E0008093CB038091D5039091D603009711F084
:1030F0000E94101C8091CF039091D003009711F093
:103100000E94101C8091D3039091D403009711F07A
:103110000E94101C8091CD039091CE03009711F076
:103120000E94101C8091D1039091D203009711F05E
:103130000C94101C0895F999FECF92BD81BDF89AA8
:10314000992780B50895262FF999FECF1FBA92BD11
:1031500081BD20BD0FB6F894FA9AF99A0FBE019678
:103160000895052E97FB1EF400940E94C81857FD81
:1031700007D00E94DB1807FC03D04EF40C94C8184B
:1031800050954095309521953F4F4F4F5F4F089593
:1031900090958095709561957F4F8F4F9F4F0895C3
:1031A0000E94FD18A59F900DB49F900DA49F800DC7
:1031B000911D11240895A1E21A2EAA1BBB1BFD012B
:1031C0000DC0AA1FBB1FEE1FFF1FA217B307E40706
:1031D000F50720F0A21BB30BE40BF50B661F771F5E
:1031E000881F991F1A9469F760957095809590953E
:1031F0009B01AC01BD01CF010895A29FB001B39F17
:10320000C001A39F700D811D1124911DB29F700DEF
:10321000811D1124911D08955058BB27AA270E9493
:1032200024190C946E1A0E94601A38F00E94671AD2
:1032300020F039F49F3F19F426F40C945D1A0EF433
:10324000E095E7FB0C94571AE92F0E947F1A58F378
:10325000BA17620773078407950720F079F4A6F57B
:103260000C94A11A0EF4E0950B2EBA2FA02D0B0191
:10327000B90190010C01CA01A0011124FF27591BBB
:1032800099F0593F50F4503E68F11A16F040A22FC1
:10329000232F342F4427585FF3CF46953795279532
:1032A000A795F0405395C9F77EF41F16BA0B620B31
:1032B000730B840BBAF09150A1F0FF0FBB1F661F78
:1032C000771F881FC2F70EC0BA0F621F731F841FBB
:1032D00048F4879577956795B795F7959E3F08F0E1
:1032E000B0CF9395880F08F09927EE0F97958795A3
:1032F00008950E948D190C946E1A0E94671A58F056
:103300000E94601A40F029F45F3F29F00C94571A8C
:1033100051110C94A21A0C945D1A0E947F1A68F342
:103320009923B1F3552391F3951B550BBB27AA277E
:1033300062177307840738F09F5F5F4F220F331FB8
:10334000441FAA1FA9F335D00E2E3AF0E0E832D080
:1033500091505040E695001CCAF72BD0FE2F29D083
:10336000660F771F881FBB1F261737074807AB0755
:10337000B0E809F0BB0B802DBF01FF2793585F4FCA
:103380003AF09E3F510578F00C94571A0C94A21A0B
:103390005F3FE4F3983ED4F3869577956795B795AC
:1033A000F7959F5FC9F7880F911D9695879597F9B7
:1033B0000895E1E0660F771F881FBB1F6217730730
:1033C0008407BA0720F0621B730B840BBA0BEE1F45
:1033D00088F7E09508950E94871A88F09F5798F023
:1033E000B92F9927B751B0F0E1F0660F771F881F0A
:1033F000991F1AF0BA95C9F714C0B13091F00E9424
:10340000A11AB1E008950C94A11A672F782F88278C
:10341000B85F39F0B93FCCF3869577956795B3954A
:10342000D9F73EF490958095709561957F4F8F4FB9
:103430009F4F0895E89409C097FB3EF490958095BE
:10344000709561957F4F8F4F9F4F9923A9F0F92F6A
:1034500096E9BB279395F695879577956795B795E8
:10346000F111F8CFFAF4BB0F11F460FF1BC06F5FCE
:103470007F4F8F4F9F4F16C0882311F096E911C0E0
:10348000772321F09EE8872F762F05C0662371F001
:1034900096E8862F70E060E02AF09A95660F771F15
:1034A000881FDAF7880F9695879597F9089597F909
:1034B0009F6780E870E060E008959FEF80EC0895DA
:1034C00000240A9416161706180609060895002403
:1034D0000A9412161306140605060895092E03947D
:1034E000000C11F4882352F0BB0F40F4BF2B11F4F1
:1034F00060FF04C06F5F7F4F8F4F9F4F089557FD50
:103500009058440F551F59F05F3F71F04795880F51
:1035100097FB991F61F09F3F79F0879508951216E8
:1035200013061406551FF2CF4695F1DF08C0161694
:1035300017061806991FF1CF869571056105089445
:103540000895E894BB2766277727CB0197F908955C
:103550000E941A1B08F48FEF08950E94C01A0C9461
:103560006E1A0E94601A38F00E94671A20F09523A4
:1035700011F00C94571A0C945D1A11240C94A21A91
:103580000E947F1A70F3959FC1F3950F50E0551F6D
:10359000629FF001729FBB27F00DB11D639FAA27A8
:1035A000F00DB11DAA1F649F6627B00DA11D661FF7
:1035B000829F2227B00DA11D621F739FB00DA11D18
:1035C000621F839FA00D611D221F749F3327A00DD2
:1035D000611D231F849F600D211D822F762F6A2F6E
:1035E00011249F5750409AF0F1F088234AF0EE0FD3
:1035F000FF1FBB1F661F771F881F91505040A9F700
:103600009E3F510580F00C94571A0C94A21A5F3F0C
:10361000E4F3983ED4F3869577956795B795F7953B
:10362000E7959F5FC1F7FE2B880F911D96958795B3
:1036300097F90895990F0008550FAA0BE0E8FEEFDF
:1036400016161706E807F907C0F012161306E40766
:10365000F50798F0621B730B840B950B39F40A265F
:1036600061F0232B242B252B21F408950A2609F43D
:10367000A140A6958FEF811D811D0895DB018F93D9
:103680009F930E94D018BF91AF91A29F800D911D72
:10369000A39F900DB29F900D11240895991B79E07E
:1036A00004C0991F961708F0961B881F7A95C9F7D2
:1036B00080950895AA1BBB1B51E107C0AA1FBB1F21
:1036C000A617B70710F0A61BB70B881F991F5A95AE
:1036D000A9F780959095BC01CD010895EE0FFF1FCD
:1036E0000590F491E02D09940F931F93CF93DF93EE
:1036F0008230910510F482E090E0E091E703F091D0
:10370000E80330E020E0B0E0A0E0309799F4211524
:10371000310509F44AC0281B390B24303105D8F58E
:103720008A819B816115710589F1FB0193838283F5
:10373000FE0111C040815181028113814817590750
:10374000E0F04817590799F4109761F012960C931E
:10375000129713961C933296CF01DF91CF911F9150
:103760000F9108950093E7031093E803F4CF211518
:10377000310551F04217530738F0A901DB019A01D6
:10378000BD01DF01F801C1CFEF01F9CF9093E8034C
:103790008093E703CDCFFE01E20FF31F8193919356
:1037A0002250310939832883D7CF2091E503309106
:1037B000E603232B41F42091220130912301309321
:1037C000E6032093E503209120013091210121158A
:1037D000310541F42DB73EB74091240150912501A8
:1037E000241B350BE091E503F091E603E217F307A4
:1037F000A0F42E1B3F0B2817390778F0AC014E5F61
:103800005F4F2417350748F04E0F5F1F5093E603B4
:103810004093E503819391939FCFF0E0E0E09CCF4C
:10382000CF93DF930097E9F0FC0132971382128265
:10383000A091E703B091E803ED0130E020E010979C
:10384000A1F420813181820F931F2091E5033091F3
:10385000E6032817390709F061C0F093E603E09307
:10386000E503DF91CF910895EA01CE17DF07E8F570
:103870004A815B819E0141155105B1F7E901FB8346
:10388000EA8349915991C40FD51FEC17FD0761F4E4
:10389000808191810296840F951FE9019983888325
:1038A000828193819B838A83F0E0E0E012968D9180
:1038B0009C9113970097B9F52D913C911197CD01EB
:1038C0000296820F931F2091E5033091E60328179B
:1038D000390739F6309751F51092E8031092E70353
:1038E000B093E603A093E503BCCFD383C2834081AA
:1038F0005181840F951FC817D90761F44E5F5F4F40
:1039000088819981480F591F518340838A819B8107
:10391000938382832115310509F0B0CFF093E8033A
:10392000E093E7039ECFFD01DC01C0CF138212823A
:10393000D7CF81E090E0F8940C94AE1CFB01DC0141
:1039400002C001900D9241505040D8F70895DC011B
:1039500001C06D9341505040E0F7089511E0C6ED6D
:10396000D1E004C0FE010E946E1B2196C73DD10725
:06397000C9F7F894FFCF37
:103976000F00F401D00704000401FFFFFFFF00E180
:10398600000000000000880388038803880388037A
:103996000000E90380009C01B501CF01EA0107029E
:1039A6002602470269028E02B502DE020A0300C140
:1039B600808100000000000000A0041B04C104B6C2
:1039C600040705C504E3040000000069085E08B4A6
:1039D6000B340857084408350800000000370DA1CD
:1039E6000DB40BB30B00000000F70600000000B793
:1039F6000B00000000630D0D0A0044697374616ECC
:103A060063652064726F76653B20006B6D20004312
:083A160048415247494E4700A8
:00000001FF
