:100000000C94D7010C9486100C945F100C9438104B
:100010000C9411100C94FF010C94FF010C94EA0F46
:100020000C94FF010C9445150C94AD100C941C110C
:100030000C94FF010C94FF010C94FF010C94FF0140
:100040000C94FF010C94FF010C94FF010C94FF0130
:100050000C94FF010C94FF010C94FF010C94A00F71
:100060000C94FF010C94FF010C94FF010C94FF0110
:100070000C94FF010C94FF010C94FF010C94FF0100
:100080000C94FF010C94FF010C94FF010C94FF01F0
:100090000C9490150C94FF010C94FF010C94FF013B
:1000A0000C94FF010C944E130C94FF01000000000F
:1000B0000000004F00000007000700147F147F14A9
:1000C000242A7F2A122313086462364955225000DD
:1000D00000070000001C2241000041221C001408FF
:1000E0003E081408083E08080050300000080808C0
:1000F0000808006060000020100804023E514945D5
:100100003E00427F400042615149462141454B310A
:100110001814127F1027454545393C4A4949300398
:10012000017109073649494936064949291E0036F1
:100130003600000056360000081422410014141442
:100140001414004122140802015109063249794170
:100150003E7E1111117E7F494949363E414141227F
:100160007F4141413E7F494949417F090909013E9B
:100170004149497A7F0808087F00417F41002040BB
:10018000413F017F081422417F404040407F020CE4
:10019000027F7F0408107F3E4141413E7F090909EB
:1001A000063E4151215E7F09192946464949493198
:1001B00001017F01013F4040403F1F2040201F3F81
:1001C0004038403F63140814630708700807615102
:1001D000494543007F41410002040810200041418D
:1001E0007F0004020102044040404040000102043C
:1001F0000020545454787F484444383844444420C0
:10020000384444487F3854545418087E0901020C7D
:100210005252523E7F0804047800447D4000204042
:10022000443D007F1028440000417F40007C0418BA
:1002300004787C0804047838444444387C1414144A
:1002400008081414187C7C080404084854545420EA
:10025000043F4440203C4040207C1C2040201C3C6B
:100260004038403C44281028440C5050503C4464D2
:10027000544C44000836410000007F000000413625
:1002800008000C02040806081C2A080800030C0FCA
:1002900030333C3FC0C3CCCFF0F3FCFF0000000084
:1002A0002300260029002C002F00080B0002020268
:1002B00000000904000001020200000524001001F2
:1002C0000524010101042402060524060001070596
:1002D000810310004009040100020A000000070524
:1002E00002024000000705830240000004030904E5
:1002F00012010002EF020140FB1F00230001010276
:100300000301506F6C6F6C7520436F72706F726178
:1003100074696F6E00506F6C6F6C7520412D537453
:100320006172203332553400506F7765723A202065
:100330000000000000240027002A002D00300000EB
:10034000000000250028002B002E003100040404CA
:10035000040403040502020202040302020202066C
:10036000060606060604040202020404040802014A
:1003700010408040102040804080080204018040EE
:1003800020100201108010204040200000000200D8
:10039000090F0000030401000C0000000000000031
:1003A00000000000000000000000E2161C1D1124E7
:1003B0001FBECFEFDAE0DEBFCDBF11E0A0E0B1E0BD
:1003C000EAE2F3E402C005900D92AC3DB107D9F723
:1003D00024E0ACEDB1E001C01D92A73AB207E1F70D
:1003E00011E0C6EDD1E004C02197FE010E941F205C
:1003F000C53DD107C9F70E9441170C9488210C9480
:1004000000005B9887FD5D9A87FF5D985B9A5B981B
:1004100086FD5D9A86FF5D985B9A5B9885FD5D9A87
:1004200085FF5D985B9A5B9884FD5D9A84FF5D987B
:100430005B9A5B9883FD5D9A83FF5D985B9A5B98FE
:1004400082FD5D9A82FF5D985B9A5B9881FD5D9A63
:1004500081FF5D985B9A5B9880FD5D9A80FF5D9857
:100460005B9A0895FC0180914403882311F13FB702
:10047000F89482E08093E9002091F200822F90E0CE
:100480001816190614F481E090E0882339F02898B2
:1004900044E6409343034091F1004083222339F026
:1004A0002091F200211103C02BE62093E8003FBF0A
:1004B00008958FEF9FEF08952FB7F89483E080930E
:1004C000E9009091E800892F807295FF04C0909117
:1004D000F20080E4891B2FBF089580913B038111B6
:1004E0000DC082E08093370384E08093380310923C
:1004F0003A031092390381E080933B0387E393E052
:10050000089581508F3008F047C0E82FF0E0E5579C
:10051000FD4F0C941F20A802AC029A02A002A40274
:10052000CC02CC02CC02AF02B502B902BD02C302BA
:10053000CC02C702809180008F778093800008955D
:10054000809180008F7DF9CF80918000877FF5CFEB
:1005500084B58F7784BD089584B58F7DFBCF80915E
:1005600090008F77809390000895809190008F7D08
:10057000F9CF80919000877FF5CF8091C0008F7771
:100580008093C00008958091C0008F7DF9CF809145
:10059000C200877F8093C20008951F93CF93DF939B
:1005A000282F30E0F901E557FC4F8491F901E45917
:1005B000FC4FD491F901E35BFC4FC491CC23A9F02B
:1005C000162F81110E948102EC2FF0E0EE0FFF1F29
:1005D000E15CFC4FA591B4918FB7F894EC911111A7
:1005E00008C0D095DE23DC938FBFDF91CF911F91A0
:1005F0000895DE2BF8CFCF93DF9390E0FC01E45910
:10060000FC4F2491835B9C4FFC0184918823C9F0AB
:1006100090E0880F991FFC01EF5CFC4FA591B4910D
:10062000FC01E15CFC4FC591D49161110DC09FB7F5
:10063000F8948C91209582238C9388812823288399
:100640009FBFDF91CF910895623051F49FB7F89426
:100650003C91822F809583238C93E8812E2BEFCFC2
:100660008FB7F894EC912E2B2C938FBFEACF80910B
:1006700096048F3F61F061E00E94FB0260E0809190
:1006800096040E94CD028BE193E00197F1F7089563
:10069000809196048F3F61F061E00E94FB0261E06F
:1006A000809196040E94CD028BE193E00197F1F7CF
:1006B00008953FB7F8948091330390913403A0914B
:1006C0003503B091360326B5A89B05C02F3F19F01E
:1006D0000196A11DB11D3FBFBA2FA92F982F8827C2
:1006E000BC01CD01620F711D811D911D42E0660F9D
:1006F000771F881F991F4A95D1F708958F929F926F
:10070000AF92BF92CF92DF92EF92FF924B015C01CA
:100710000E9459036B017C010E9459036C197D09E9
:100720008E099F09683E734081059105A8F321E079
:10073000821A9108A108B10888EEC80E83E0D81E7D
:10074000E11CF11C81149104A104B10429F7FF906C
:10075000EF90DF90CF90BF90AF909F908F900895D3
:100760002FB7F89460912F0370913003809131037B
:10077000909132032FBF0895E0919C02F0919D0269
:10078000309729F0109299021092980209940895D6
:10079000CF93DF93AC01E0919E02F0919F023097DE
:1007A000F1F090919B0280919A029817C0F090E02E
:1007B000292F30E02617370754F4D901A451BE4F32
:1007C000240F351FE90128812C939F5FF1CF1092F0
:1007D0009B0260939A02CB01DF91CF910994DF9144
:1007E000CF910895089540918E0250918F022091EB
:1007F0008C0230918D0242175307B4F49091E800B7
:100800009570E1F39091E80092FD19C08093F1009A
:1008100080918E0290918F0201968F739927892B78
:1008200019F48EEF8093E80080918E0290918F02F0
:10083000019690938F0280938E0281E0089580E06C
:100840000895DF92EF92FF920F931F93CF93DF9360
:10085000D82E8A01EB017B01E40EF51ECE15DF05D3
:1008600059F0D7FE12C0FE0184910E94F303219635
:100870008111F4CF0FEF1FEFC801DF91CF911F91CE
:100880000F91FF90EF90DF9008958881EECF0F9346
:100890001F93CF93DF931F92CDB7DEB782E089839A
:1008A00042E450E06AEA72E080E80E9421040E947B
:1008B0006D02DC0112960D911C910115110589F054
:1008C000D801ED91FC910280F381E02DBE016F5FB4
:1008D0007F4FC801099597FD04C0F8010085118577
:1008E000ECCF89810F90DF91CF911F910F910895E7
:1008F000615030F02091F100FC0120830196F8CF87
:10090000289884E68093430308958F929F92AF9234
:10091000BF92CF92DF92EF92FF920F931F93CF93EC
:10092000DF936C017B018A0180911601882309F411
:100930005CC080914403882309F457C080919202DF
:1009400080FF05C08091E00082608093E000E801B4
:10095000B12C8AEFA82E93E0892E2AE3922E2097BD
:1009600011F4BB20D9F10E945C0281110AC0AA9443
:10097000AA20D9F161E070E080E090E00E947E035F
:10098000EECF8C171D0611F00CF08C2F9FB7F8944A
:100990008092E9002091E80025FD02C09FBFDFCFD3
:1009A000282F30E0C21BD30BF701815020F041917A
:1009B0004093F100FACFE20EF31EBB2021F090929B
:1009C000E800B12CEBCF8091E80085FDE7CF909255
:1009D000E800BB24B394209709F3F3CF5D9884E635
:1009E00080939102101611063CF081E090E0F60130
:1009F0009383828310E000E0C801DF91CF911F91C3
:100A00000F91FF90EF90DF90CF90BF90AF909F90AD
:100A10008F900895CF93DF931F92CDB7DEB7698390
:100A2000DC01ED91FC910280F381E02D41E050E08A
:100A3000BE016F5F7F4F09950F90DF91CF910895B1
:100A400083E08093E9008091F200882319F08AE323
:100A50008093E80008950E945C0290E00895CF938F
:100A6000DF931F92CDB7DEB7FC018485958597FD96
:100A700008C02FEF3FEF358724870F90DF91CF918C
:100A80000895CE0101960E943202019719F48981DE
:100A900090E0F3CF8FEF9FEFF0CF0F931F93CF93A3
:100AA000DF931F92CDB7DEB78C01FC01848595855D
:100AB00097FF0BC0CE0101960E943202019771F49C
:100AC000898190E0F80195878487F8018485958570
:100AD0000F90DF91CF911F910F9108958FEF9FEFAE
:100AE000F1CFFC018485958597FD0BC09FB7F894E5
:100AF00082E08093E9008091F2009FBF90E0019630
:100B000008959FB7F89482E08093E9008091F20005
:100B10009FBF90E0089580918902E0918A02F09150
:100B20008B02882339F084919FEB980F9A3120F43F
:100B3000805E08958081F8CF803269F420918A0226
:100B400030918B02A9014F5F5F4F50938B0240930E
:100B50008A02232B01F708951F93CF93DF930E94FE
:100B60008B05D0E0C0E01AE090ED980F9A30B8F411
:100B70001C9F90011D9F300D1124E901C80FD11D4C
:100B800087FDDA95E09780918A0290918B02019619
:100B900090938B0280938A020E948B05E5CFCE0151
:100BA000DF91CF911F9108953F924F925F926F9284
:100BB0007F928F929F92AF92BF92CF92DF92EF92ED
:100BC000FF920F931F93CF93DF937B01D42E20913D
:100BD000860221111BC021E0209386021092720030
:100BE0001092C00034E03093C10039E03093C2006D
:100BF0002093C30023E02093BF0028EE2093D10070
:100C00001092BF001092D200579A789410920A0165
:100C1000CC24C39497FF03C09F77AAE0CA2EC8E2F2
:100C2000CC9EC02D1124D0E08C179D0750F021E000
:100C3000EC01C21206C0C13187E2D80710F0C0E152
:100C4000D7E24E01B12CA12C4C2C512C712C612CD3
:100C50009E01AFEFB7E00E942D20640D751D861D2B
:100C6000971D9695879577956795A30192010E94A8
:100C7000DE1F60E072E18AE790E0312C3394621766
:100C800073078407950728F096958795779567955C
:100C9000F5CFA30192010E949A1F9E0136952795D8
:100CA000620F731F811D911DA50194010E94DE1F1B
:100CB000722E022F132F2AE0C21207C0CE01059612
:100CC0006AE070E00E94B61FEB01C83E83E0D807DF
:100CD00059F09701DE010E942D2028EE33E040E01C
:100CE00050E00E9400207901109272008091C100B2
:100CF000807F83298093C1001093BF007092D10040
:100D00004D2D403108F04FE080E190E0841B9109C7
:100D100002C0169507958A95E2F71093BF000093DD
:100D2000D200F0928802E092870289B38FEF89BBEC
:100D300084E080937200DF91CF911F910F91FF901B
:100D4000EF90DF90CF90BF90AF909F908F907F906B
:100D50006F905F904F903F9008952E98269A2D980F
:100D6000259A2A98229A2998219A80EA80938000CD
:100D700081E18093810080E991E0909387008093E6
:100D80008600109289001092880010928B001092B9
:100D90008A000895CF93DF93EC0180918202811144
:100DA00005C081E0809382020E94AD0680E0D7FFFB
:100DB00004C0D195C195D10981E0C13991E0D9072D
:100DC00014F0C0E9D1E0D0938900C0938800882353
:100DD00029F0299A219ADF91CF9108952998FACF85
:100DE000CF93DF93EC0180918202811105C081E0F5
:100DF000809382020E94AD0680E0D7FF04C0D195A7
:100E0000C195D10981E0C13991E0D90714F0C0E959
:100E1000D1E0D0938B00C0938A00882329F02A9ACE
:100E2000229ADF91CF9108952A98FACF9FB19170BD
:100E30008CB186FB882780F9892720917E0230912A
:100E40007D024091A3025091A40228273927231B39
:100E5000330B240F351F3093A4022093A30230914B
:100E60007D0220917E02381729F0291719F021E020
:100E700020937C0280937D0290937E0208952498B3
:100E80002C9A6A98729A6E98769A8098889A81E0DD
:100E90008093680090E190936B008BBB86E197E0B4
:100EA0009093200180931F01EAE6F0E080818F7C1F
:100EB00080618083EE9A8CB182FB882780F98093D1
:100EC000810293B1809181029295917089278093DC
:100ED00080021092A1021092A00210927F028FB1A4
:100EE000817080937E029CB180917E0296FB99274F
:100EF00090F9892780937D021092A4021092A30298
:100F000010927C0208955F926F927F928F929F92CF
:100F1000AF92BF92CF92DF92EF92FF920F931F9307
:100F2000CF93DF93FC0122853385232B09F492C0F4
:100F30006B01EC0110E08C851817E8F4E12EF12C20
:100F40008E859F85F701EE0FFF1FEC0DFD1D918330
:100F50008083EA85FB85EE0DFF1D61E080810E94A4
:100F6000CD02EA85FB85EE0DFF1D61E080810E94C8
:100F7000FB021F5FE0CF83E290E00197F1F710E002
:100F80008C851817A0F4E12EF12CEA85FB85EE0D77
:100F9000FF1D60E080810E94FB02EA85FB85EE0D6B
:100FA000FF1D60E080810E94CD021F5FE9CF0E949B
:100FB00059034B015C010E945903AB01BC01481964
:100FC00059096A097B098E859F85B0E0A0E0481722
:100FD00059076A077B0708F03DC00E9459037B014F
:100FE000E818F908612C8C85681628F7062D10E0A2
:100FF000EA85FB85E00FF11F208130E0F901E5571C
:10100000FC4F8491F901E459FC4F7490F901E35BC2
:10101000FC4F549051100CC0000F111FF601E00F4F
:10102000F11F80819181E816F90688F06394DBCF87
:1010300081110E948102E52DF0E0EE0FFF1FE456C2
:10104000FD4FA591B491EC917E2231F3EFCFF18267
:10105000E082ECCFDF91CF911F910F91FF90EF9045
:10106000DF90CF90BF90AF909F908F907F906F90C8
:101070005F90089520913202260F3327331F2132CB
:101080003105ECF420915602FC0190E080E0243020
:1010900069F082E00895A09132022191AC014E5E88
:1010A0005D4FA40FB52FB11D2C930196861798F3B1
:1010B00080913202680F6093320280E0089581E0EF
:1010C00008951092560281E08093580210925702C0
:1010D00061E082E00E94CD0261E083E00E94CD02E7
:1010E000E9EBF0E080818E7F808380818D7F80833B
:1010F00088E48093B80085E48093BC000895089547
:10110000E0919B0280919A02E81730F4F0E0E451FC
:10111000FE4F808190E008958FEF9FEF08959091AA
:101120009B0280919A022FEF3FEF981748F4E92F26
:10113000F0E0E451FE4F208130E09F5F90939B02EE
:10114000C901089580919A0290919B02891B990B85
:101150000895CF93DF93CB01EA01642F0E943A08F0
:10116000CE01DF91CF910895CF93DF931F92CDB73A
:10117000DEB7698361E0CE0101960E943A0881E002
:1011800090E00F90DF91CF910895289A209A0895CA
:101190002898209A08955F926F927F928F929F92E3
:1011A000AF92BF92CF92DF92EF92FF920F931F9375
:1011B000CF93DF935C01D62FC42FF22E132F0E9402
:1011C000C8088D2F806B0E9401028C2F82958F7032
:1011D00080610E9401028C2F8F700E9401020E9488
:1011E000C508CF2DD12F0C0F1D2F111D95E0692E95
:1011F000C017D10709F444C07990872D8052990B0C
:101200009C01629EC001639E900D1124769C40015A
:101210001124F12CE12C9C0124553F4F69013FE141
:10122000371508F5F601EE0DFF1DE491F0E084E0BE
:10123000F595E7958A95E1F7E457FD4F5490852D94
:101240000E940102852D0E9401029FEFE91AF90A0E
:1012500025E0E216F10419F780E00E94010280E027
:101260000E940102C5CF87E0E0E08715F8F2F401A3
:10127000EE0DFF1DE254FF4FEA0DFB1DE081D6CFBE
:10128000DF91CF911F910F91FF90EF90DF90CF9062
:10129000BF90AF909F908F907F906F905F900895D8
:1012A0005F926F927F928F929F92AF92BF92CF92F6
:1012B000DF92EF92FF920F931F93CF93DF935C0126
:1012C000D62FC42FF22E132F0E94C8088D2F806BAB
:1012D0000E9401028C2F82958F7080610E94010212
:1012E0008C2F8F700E9401020E94C508CF2DD12F34
:1012F0000C0F1D2F111D85E0682EC017D10709F4B2
:1013000040C07990872D8052990B9C01629EC0014C
:10131000639E900D1124769C40011124F12CE12C48
:101320009C0124553F4F69013FE13715E8F4F60170
:10133000EE0DFF1DE491EF70F0E0E457FD4F549087
:10134000852D0E940102852D0E9401029FEFE91A5E
:10135000F90A25E0E216F10439F780E00E94010263
:1013600080E00E940102C9CF87E0E0E0871518F312
:10137000F401EE0DFF1DE254FF4FEA0DFB1DE0816D
:10138000DACFDF91CF911F910F91FF90EF90DF9017
:10139000CF90BF90AF909F908F907F906F905F9015
:1013A00008956F927F928F929F92AF92BF92CF9249
:1013B000DF92EF92FF920F931F93CF93DF935C0125
:1013C000D62FC42FF22E132F0E94C8088D2F806BAA
:1013D0000E9401028C2F82958F7080610E94010211
:1013E0008C2F8F700E9401020E94C508CF2DD12F33
:1013F0000C0F1D2F111D85E0682EC017D107A9F114
:101400007990872D8052990B9C01629EC001639E4A
:10141000900D1124769C40011124F12CE12C9C01AB
:1014200024553F4F69013FE1371588F4F601EE0D71
:10143000FF1D84910E9401029FEFE91AF90A25E03D
:10144000E216F10481F780E00E940102D6CF87E026
:10145000871548F0F701E80DF91DE254FF4FEA0D3A
:10146000FB1D8081E7CF80E0E5CFDF91CF911F9119
:101470000F91FF90EF90DF90CF90BF90AF909F9033
:101480008F907F906F900895282F21FB0EF0209869
:1014900020FB0EF028980EF4289A21FB0EF4209AD7
:1014A00008958091A502882301F160912A0370912B
:1014B0002B0380912C0390912D030E94401E85E9FF
:1014C00093E00E94B4086091290385E993E00E94AB
:1014D000B4081092A5021092290310922A031092C8
:1014E0002B0310922C0310922D03089580919A02E1
:1014F00090919B02891B990B18161906FCF485E93B
:1015000093E00E948F089091A602E92FF0E0EE0F81
:10151000FF1FED54FD4F482F4053550B518340831F
:101520009F5F9093A602809100018823F9F2809139
:10153000B3028093230310920001D8CF0895CF9374
:10154000DF93EC01288121FB0EF0559820FB0EF073
:101550005D980EF45D9A21FB0EF4559A89810E94E4
:10156000440AE9EEF0E010828C818093F0008B81D8
:1015700080838A818093E200DF91CF910895FC01FE
:10158000A2EEB0E08C9182831C92A9EEB0E08C9127
:1015900083831C92A0EFB0E08C9184831C9220E0A6
:1015A0005D99216055992260208320E0289921606F
:1015B0002099226021835D98559A0895CF92DF92F9
:1015C000EF92FF920F93CF93DF93EC017C0184E0C5
:1015D000E80EF11CC7010E94BF0A6E0184E1C80E2B
:1015E000D11C08E0960143E162E0CE010E9450095F
:1015F000960143E163E0CE010E94CB086E0189E2CF
:10160000C80ED11C960143E165E0CE010E9450094D
:10161000960143E166E0CE010E94CB08C701DF914D
:10162000CF910F91FF90EF90DF90CF900C949F0A95
:10163000EF92FF920F93CF93DF93EC017C0184E054
:10164000E80EF11CC7010E94BF0A9E012C5E3F4FAD
:1016500005E142E060E0CE010E94D1099E01275DD4
:101660003F4F42E061E0CE010E94D1099E01225C21
:101670003F4F42E062E0CE010E94D1099E012D5A07
:101680003F4F42E063E0CE010E94D1099E012859FC
:101690003F4F42E064E0CE010E94D1099E012358F1
:1016A0003F4F42E065E0CE010E94D1099E012E56D7
:1016B0003F4F42E066E0CE010E94D1099E012955CC
:1016C0003F4F42E067E0CE010E94D109C701DF91A0
:1016D000CF910F91FF90EF900C949F0AEF92FF92A1
:1016E0000F931F93CF93DF938C017C0184E0E80E6E
:1016F000F11CC7010E94BF0A0E94C80882E00E9434
:101700000102C0E00E94C8088C2F806B0E94010279
:1017100080E10E9401020E94C508D0E080E00E94A2
:101720000102DF5FD038D1F7CF5FC83059F7C7016A
:101730000E949F0AF8011286DF91CF911F910F91AD
:10174000FF90EF900895AF92BF92CF92DF92EF9209
:10175000FF920F931F93CF93DF937C01122F68307A
:1017600008F043C0423008F040C088E0861B821772
:10177000D0F12223D1F1C42FCC0FC40FDCE06D9F38
:10178000D02D1124DD5E670124E1C20ED11C862F0D
:1017900090E025E1429F800D911D1124C80ED91EB5
:1017A000570184E0A80EB11CC5010E94BF0A62E087
:1017B0006C0F012F96014D2FC7010E94500963E065
:1017C0006C0F96014D2FC7010E94CB08C501DF9118
:1017D000CF911F910F91FF90EF90DF90CF90BF902E
:1017E000AF900C949F0A182FC6CFDF91CF911F9115
:1017F0000F91FF90EF90DF90CF90BF90AF90089542
:10180000BF92CF92DF92EF92FF920F931F93CF93ED
:10181000DF93EC01162FB42E022F653198F527E0E7
:10182000241780F185E1861B801750F1002351F1C8
:10183000CE014496E12EF12C25E1B29EE00CF11C84
:101840001124E80EF91E6E0184E0C80ED11CC601F9
:101850000E94BF0A412F440F410F440F4E5F970172
:101860006B2DCE010E94D109C601DF91CF911F914E
:101870000F91FF90EF90DF90CF90BF900C949F0A54
:10188000082FD6CFDF91CF911F910F91FF90EF904E
:10189000DF90CF90BF900895089590E080E0089584
:1018A000CF92DF92EF92FF920F931F93CF93DF932C
:1018B00020918B0430918C04232B09F44DC020918E
:1018C0008D0430918E04232B09F446C08C010E94B4
:1018D0004803B80189E894E00E9483070E94370317
:1018E000E801C0908D04D0908E04E0908B04F090BD
:1018F0008C0410E000E0809195048017110661F1DE
:101900005CF1D601ED91FD916D01D7018D919D9115
:101910007D01E81BF90BC9F02881398150E040E0D6
:10192000281B390B41095109A8EEB3E00E9443205E
:101930009F0150E040E00E940020293EB3E03B07B9
:1019400014F028EE33E037FF02C030E020E02993A6
:1019500039930F5F1F4FCFCFDF91CF911F910F9121
:10196000FF90EF90DF90CF9008954F925F926F922B
:101970007F928F929F92AF92BF92CF92DF92EF921F
:10198000FF920F931F93CF93DF93809123018823BE
:1019900009F4DAC082EE91E00E94500CE0919504C7
:1019A00002EE11E0B12CA12C50E040E0C12CD12C72
:1019B0007601912CF0E0EF17E9F0D801CD91DD919F
:1019C0008D01C93CD1059CF4C333D10554F0950178
:1019D000DE010E942520C60ED71EE81EF91E4C0F00
:1019E0005D1FFF5FB8E1AB1ABCEFBB0AE4CF9924DF
:1019F0009394EDCF911098C0E150FF0B44EF51E06C
:101A0000E49FC001E59F900DF49F900D112440913B
:101A1000990450919A04481759070CF492C048EE63
:101A200053E0E49FC001E59F900DF49F900D1124B9
:101A3000805D974065E070E00E94CA1FEB01072EB1
:101A4000000C880B990B0E94781E6B017C01209181
:101A5000DE013091DF014091E0015091E1010E94EF
:101A6000621D4B015C018092DE019092DF01A09229
:101A7000E001B092E1018091DC019091DD01BE01B5
:101A8000681B790B072E000C880B990B0E94781E9F
:101A90002B013C01D093DD01C093DC0127E137EB42
:101AA00041ED58E3C501B4010E94091FA701960149
:101AB0000E94621D6B017C0120E030E040E850E4B0
:101AC000C301B2010E94091F9B01AC01C701B6010D
:101AD0000E94621D6B017C0120E030E048E453E489
:101AE0000E94621D0E94401ECB010E94F006A701C9
:101AF000960160E070E088E493E40E94611D0E941A
:101B0000401ECB01DF91CF911F910F91FF90EF907D
:101B1000DF90CF90BF90AF909F908F907F906F900D
:101B20005F904F900C94CA069A0150E040E0C701C4
:101B3000B6010E94DE1FC90130939A0420939904D4
:101B400077CF90E080E074CFDF91CF911F910F911C
:101B5000FF90EF90DF90CF90BF90AF909F908F90CD
:101B60007F906F905F904F9008950E947321FB01CA
:101B700001900020E9F73197AF01461B570BDC01BC
:101B8000ED91FC910280F381E02D09948F929F9258
:101B9000AF92BF92EF92FF920F931F93CF93DF9379
:101BA000CDB7DEB7A1970FB6F894DEBF0FBECDBF9D
:101BB0007C01FA01CB0119A2223008F42AE08E013F
:101BC0000F5D1F4F822E912CB12CA12CBF01A501BE
:101BD00094010E94DE1FF901CA016A300CF5605DB4
:101BE000D8016E938D01232B242B252B79F790E0C0
:101BF00080E0109721F0BD01C7010E94B70DA196AA
:101C00000FB6F894DEBF0FBECDBFDF91CF911F910D
:101C10000F91FF90EF90BF90AF909F908F9008959D
:101C2000695CDECF0F931F93CF93DF93EC010E948B
:101C3000B70D8C0161E971E0CE010E94B70D800FF4
:101C4000911FDF91CF911F910F910895CF93DF9353
:101C500085ED8093BC0080910E0290910F02A091BF
:101C60001002B09111020796A11DB11D23E0B69597
:101C7000A795979587952A95D1F72091BC0024FDCB
:101C800003C01092560236C040910E0250910F02CE
:101C90006091100270911102452B462B472B69F37E
:101CA0000097A105B10541F02AE22A95F1F700C09D
:101CB0000197A109B109E1CF80910D0291E09093C4
:101CC0000C028823B9F0C091B800D091BA0080917D
:101CD000BC008A7B8093BC0060E082E00E94CD0261
:101CE00060E083E00E94CD020E946108D093BA00B8
:101CF000C093B800DF91CF9108950F931F93CF93B6
:101D0000DF93EC015B98539A5A98529A85E38A952F
:101D1000F1F700005A9A529A85E38A95F1F700008C
:101D2000CE010E946E0B8E010C5F1F4FC8010E94F6
:101D3000BF0A0E94C80881EA0E94010288EC0E9442
:101D4000010281E80E9401028FEF0E9401028FEAE6
:101D50000E940102C8010E949F0A81E08987DF91E9
:101D6000CF911F910F910895FF920F931F93CF93DF
:101D7000DF93EC01162F042FF22E8985811103C009
:101D8000CE010E947D0E8A85882319F0CE010E9423
:101D90006E0B2A893B89C901959587958C0F9D1FEC
:101DA000E889F98920FF08C0DC012D913C91E20F00
:101DB000F31F0190F081E02D2F2D402F612FDF9137
:101DC000CF911F910F91FF900994CF93DF93DC0186
:101DD000A354BF4F2C91283008F5EC01C454DF4FB9
:101DE000E881E531D8F4AC0175E1279F400D511D24
:101DF0001124E40FF52FF11D648BFC0123852111C3
:101E000005C021E04C9168810E94B40E88818F5FEB
:101E1000888381E090E0DF91CF91089590E080E0A9
:101E2000FACFAF92BF92CF92DF92EF92FF920F93D1
:101E30001F93CF93DF9382EEE82EF12CF701008100
:101E40001082C9EED0E0B880188290EFC92ED12C54
:101E5000F601A080108220E028992160209922605C
:101E6000822F2098289A90E19A95F1F713B10E9459
:101E7000440A1882F601A082B882F7010083812FFC
:101E800080958170DF91CF911F910F91FF90EF901E
:101E9000DF90CF90BF90AF9008950C94531DBF92E8
:101EA000CF92DF92EF92FF920F931F93CF93DF9326
:101EB0008C01EA016C012DEBC20ED11CF6013081C0
:101EC0003830D8F57C01FCEBEF0EF11CF701808176
:101ED000853198F525E1281B90E02417150620F49C
:101EE000C5E1D0E0C81BD90BF5E13F9F800D911DE6
:101EF0001124AE0198012C5E3F4F820F931F0E9468
:101F00007821BC2EF8018385811108C02C2FF601A1
:101F10004081F7016081C8010E94B40EF701808101
:101F20008B0D8083CE01DF91CF911F910F91FF9098
:101F3000EF90DF90CF90BF900895D0E0C0E0F2CF57
:101F40001F920F920FB60F9211242F933F938F93EE
:101F50009F93AF93BF9380912F0390913003A091F3
:101F60003103B091320330912E0323E0230F2D373C
:101F700058F50196A11DB11D20932E0380932F03C8
:101F800090933003A0933103B093320380913303D5
:101F900090913403A0913503B09136030196A11DB1
:101FA000B11D8093330390933403A0933503B09312
:101FB0003603BF91AF919F918F913F912F910F90D9
:101FC0000FBE0F901F90189526E8230F0296A11DB3
:101FD000B11DD2CF1F920F920FB60F9211242F93E3
:101FE0003F934F935F936F937F938F939F93AF93A1
:101FF000BF93EF93FF93E0911F01F09120010995AA
:10200000FF91EF91BF91AF919F918F917F916F91D0
:102010005F914F913F912F910F900FBE0F901F90A6
:1020200018951F920F920FB60F9211242F933F9382
:102030004F935F936F937F938F939F93AF93BF93D0
:10204000EF93FF93E0911D01F0911E010995FF911F
:10205000EF91BF91AF919F918F917F916F915F9120
:102060004F913F912F910F900FBE0F901F90189599
:102070001F920F920FB60F9211242F933F934F93FD
:102080005F936F937F938F939F93AF93BF93EF93E0
:10209000FF93E0911B01F0911C010995FF91EF91D5
:1020A000BF91AF919F918F917F916F915F914F9170
:1020B0003F912F910F900FBE0F901F9018951F9278
:1020C0000F920FB60F9211242F933F934F935F936C
:1020D0006F937F938F939F93AF93BF93EF93FF93F0
:1020E000E0911901F0911A010995FF91EF91BF91CB
:1020F000AF919F918F917F916F915F914F913F91A0
:102100002F910F900FBE0F901F9018951F920F9256
:102110000FB60F9211242F933F934F935F936F93BA
:102120007F938F939F93AF93BF93EF93FF93E09130
:102130001701F09118010995FF91EF91BF91AF91AF
:102140009F918F917F916F915F914F913F912F91CF
:102150000F900FBE0F901F9018951F920F920FB601
:102160000F9211248F939F938091E1009091E10051
:10217000937F9093E10083FF0FC01092E90091E0FC
:102180009093EB001092EC0092E39093ED0010928C
:10219000440398E09093F00082FF22C093E0909374
:1021A000E9009091F200992319F09AE39093E800E6
:1021B00090919102992341F09091910291509093C6
:1021C0009102911101C05D9A90914303992341F0CE
:1021D00090914303915090934303911101C0289A29
:1021E00084FF18C08091E2008E7E81608093E200BF
:1021F0008091E1008F7E8093E100809192028E7E3B
:102200008061809392029F918F910F900FBE0F90EB
:102210001F90189580FFF7CF8091E2008E7E80613D
:102220008093E2008091E1008E7E8093E1008091B6
:1022300092028E7E8160E5CF1F920F920FB60F92B1
:102240001124CF92DF92EF92FF920F931F932F935F
:102250003F934F935F936F937F938F939F93AF932E
:10226000BF93EF93FF93CF93DF93CDB7DEB76C9718
:10227000DEBFCDBF1092E9008091E80083FF25C04A
:1022800068E0CE0145960E94780482EF8093E800D2
:102290008D8987FF39C09091E80090FFFCCF982F7F
:1022A000907609F034C19E894F89588D2F89F88C1A
:1022B000911131C0803861F5809193028093F100D3
:1022C0001092F1008EEF8093E8006C960FB6F894B0
:1022D000DEBF0FBECDBFDF91CF91FF91EF91BF91D8
:1022E000AF919F918F917F916F915F914F913F91AE
:1022F0002F911F910F91FF90EF90DF90CF900F9053
:102300000FBE0F901F9018959EEF9093E800C7CFD7
:102310001092F100D5CF913059F48111D3CF4130D3
:10232000510581F6809193028D7F80939302CACFED
:10233000933049F48111C6CF4130510519F680918F
:1023400093028260F2CF953041F48091E80080FFE3
:10235000FCCF20682093E300B5CF963009F0A9C0E8
:102360000B8D1C8D22E01092E90010928F021092CA
:102370008E02F2122EC010928D0210928C020E94D8
:1023800047041F8299E09983FA8291E09E8390EA44
:1023900098879AEF998720918E0230918F02275F5C
:1023A0003F4F3C832B838D831092E90010928F0264
:1023B00010928E0210938D0200938C0249E050E03F
:1023C000BE016F5F7F4F80E00E9421040E9447049E
:1023D00079CF10938D0200938C020E946D02DC0174
:1023E00012960D911C910115110509F451C1D801E6
:1023F000ED91FC910480F581E02DBE016B5E7F4F75
:10240000C8010995009709F03EC1F80100851185C2
:10241000EACFF3E0FF120EC08F89882309F440C091
:10242000823061F440E862E185E193E00E94AF16FA
:10243000811148CF81E28093EB0047CF813029F4AE
:1024400040E862E182E093E0F1CF833099F70E94A7
:102450006D02DC011296ED90FC908E010F5F1F4F14
:102460006801E114F10479F0D701ED91FC91068047
:10247000F781E02DB801C7010995080F111DF7017B
:10248000E084F184EECFD8011C92F6010190002087
:10249000E9F73197BF016C197D0940E0C601C6CF4D
:1024A0006CEE72E0FB01449150E080E80E94210450
:1024B00009CF973009F4BECF983021F481E08093A2
:1024C000F10000CF993009F0FDCE837009F0B2CF52
:1024D000E9E4F1E081E031E096E32191222371F01B
:1024E0008093E9003093EB00DF0111972C9120934A
:1024F000EC009093ED008F5F873079F78EE7809343
:10250000EA001092EA008F8980934403DBCE8B8D22
:102510009C8D1092E90010928F0210928E0290937F
:102520008D0280938C02898D811192C08E899D8944
:10253000913A49F4813209F07DCF47E050E06FE0F5
:1025400071E080E0B3CF913209F074CF833269F447
:102550008F89988DB0E0A0E080930B0190930C01DF
:10256000A0930D01B0930E01ADCE803269F480913D
:10257000E80082FFFCCF67E08FE091E00E947804E2
:102580008BEF8093E8009ECE823209F09BCE8F893C
:1025900080931601EEEFFFE7859194918B3F9C4D60
:1025A00051F1E0E0F8E080910F0190911001A091CD
:1025B0001101B0911201803B9440A105B105F1F4E5
:1025C0008091160180FD1AC0EE3F8AE0F80789F578
:1025D00087E797E7918380838091600080939002E2
:1025E00088E19BE00FB6F894A895809360000FBE39
:1025F0009093600067CEEEEFFAE0D5CF80819181B5
:102600008737974709F05ECEA89580916000886172
:10261000809360008091900280936000EE3F2AE0FA
:10262000F20789F08091FE0A9091FF0A91838083DE
:1026300049CE808191818737980751F29093FF0AA4
:102640008093FE0AC5CF1092FF0A1092FE0A3ACE7E
:102650000E946D02DC0112960D911C91011511056D
:1026600009F4E8CED801ED91FC910190F081E02DC4
:10267000BE016B5E7F4FC8010995811123CEF80121
:1026800000851185EBCF181619060CF41BCED2CE9F
:10269000F1E0FF12BECE60EF72E004CF1F920F9206
:1026A0000FB60F9211244F925F926F927F928F928A
:1026B0009F92AF92BF92CF92DF92EF92FF920F93D1
:1026C0001F932F933F934F935F936F937F938F93BA
:1026D0009F93AF93BF93CF93DF93EF93FF93C091FB
:1026E0008702D0918802CE0101979093880280934F
:1026F00087022097A1F51092720078948091C10012
:10270000807F84608093C10083E08093BF0088EE67
:102710008093D1001092BF001092D20081E080938C
:102720000A0180918A0290918B02892BC1F08091DD
:102730008502811114C07090090180918402882360
:1027400079F180918302882359F16091830270E0CE
:1027500040E088EE93E00E94D40510928302FF913E
:10276000EF91DF91CF91BF91AF919F918F917F9129
:102770006F915F914F913F912F911F910F91FF901A
:10278000EF90DF90CF90BF90AF909F908F907F9011
:102790006F905F904F900F900FBE0F901F90189505
:1027A0005524539470ECA72E7DE5B72EEAE04E2E0B
:1027B000F4E06F2EA0EDCA2EA7E0DA2EB4E0EB2EE7
:1027C000F12C04EF11E08FE0882E912C0E948B05F4
:1027D00020918A0230918B022F5F3F4F30938B0202
:1027E00020938A02853609F473C00CF047C0813605
:1027F00009F4B4C024F58C3309F468C08E3309F4AD
:1028000063C0813209F043C060920901D092060191
:10281000C0920501F0920801E092070110930401B3
:1028200000930301909202018092010110928402B0
:10283000709009018091030190910401C7CF833604
:1028400009F48FC010E00BE0843614F010E002E0D1
:102850004CE0749E000D11240E948B05982F977FE9
:10286000933209F080C080918A0290918B02019688
:1028700090938B0280938A020F5FEECF8D3609F41E
:1028800045C054F4873651F134F18C3651F1109231
:102890008B0210928A0263CF823709F44CC044F451
:1028A0008F36A9F70E94AC05782E809309018ECF50
:1028B000843709F443C0863751F70E94AC059093E2
:1028C00002018093010182CF739480CF7A947ECFEE
:1028D00010E004E0BDCF10E005E0BACF10E007E063
:1028E000B7CF0E94AC0590930801809307018091B7
:1028F00005019091060160910701709108010E9405
:10290000B61F709304016093030160CF0E948B0592
:102910008C3661F41092840280918A0290918B022D
:10292000019690938B0280938A0250CF509284023A
:1029300010928302F1CF11E000E08ACF0E94AC0533
:10294000BC01C5010E94B61F469EC001479E900D66
:1029500011249093060180930501C9CF10E009E08E
:1029600077CF10E0E9CF8D3269F480918A0290919F
:102970008B02019690938B0280938A0201500E94F1
:102980008B05F1CFE0900301F09004018153883072
:1029900058F4E0900501F09006010E94AC05BC01DE
:1029A000C7010E94B61F7B016701D694C7940E949D
:1029B0008B058E3261F480918A0290918B02019690
:1029C00090938B0280938A02EC0CFD1CEECF8091D9
:1029D0008402882349F0C7019695879580938302E6
:1029E00080918302E81AF108C0900101D0900201A1
:1029F000111104C00F3F11F0C11007C040E0B70132
:102A000088EE93E00E94D405AACE013128F010EFA1
:102A1000100F103608F01FE5812F6CE00E94AA1FEE
:102A2000582F44EF450390011124210F311D2C3004
:102A3000310538F4220F331FF901E05DFE4FC081EC
:102A4000D1818730C1F0082E02C0CC0FDD1F0A945F
:102A5000E2F7823040F0CE0105966AE070E00E9415
:102A6000B61FCB0102C0CE0190584C2D403108F06A
:102A70004FE0B701C7CFCE0126E0880F991F2A95F6
:102A8000E1F7029665E070E0EACF1F920F920FB671
:102A90000F9211242F933F934F936F937F938F93B4
:102AA0009F938CB1282F30E0359527953595279544
:102AB000422F417083B190E064E0959587956A95C7
:102AC000E1F78227817020918102909180026091CC
:102AD000A0027091A10228279427291B330B260FEF
:102AE000371F3093A1022093A00220918002909181
:102AF0008102281729F0941719F091E090937F0232
:102B000080938002409381029F918F917F916F917A
:102B10004F913F912F910F900FBE0F901F901895DE
:102B20001F920F920FB60F9211242F933F934F9342
:102B30005F936F937F938F939F93AF93BF93EF9325
:102B4000FF938091B900887F803609F44AC0F0F580
:102B5000883209F4A7C018F5803109F49BC0B8F495
:102B6000882309F4F9C0883009F494C0FF91EF91EB
:102B7000BF91AF919F918F917F916F915F914F9195
:102B80003F912F910F900FBE0F901F901895883195
:102B900009F488C0803251F78093550214C0803404
:102BA00009F49DC040F48033B9F38833F9F680937B
:102BB000550285ECB0C0803509F485C0883509F42C
:102BC00096C0883499F60E94260ED0CF883909F431
:102BD0008CC038F5883729F050F4883611F08037EA
:102BE00029F683E0809356021092540257C0883829
:102BF00009F47BC0803919F0803809F0B7CF809193
:102C00005402803208F071C0E091540281E08E0FCE
:102C1000809354028091BB00F0E0EC5CFD4F808318
:102C20003DC0803B39F0E0F4803A09F479C0883A3D
:102C300009F09CCF84E080935602109233021092E8
:102C40003202E0919602F09197020995809132024A
:102C500081110FC081E0809332021092120209C0EC
:102C6000803C09F4A6CF883C09F4A3CF883B09F047
:102C70007DCFE091330281E08E0F80933302F0E04C
:102C8000EE5EFD4F80818093BB0090913302809176
:102C9000320229C080917B028093BB0085EC809337
:102CA000BC0064CF90917A0280917902981758F510
:102CB000E0917A0281E08E0F80937A02F0E0E75A89
:102CC000FD4F8081E9CFE0917A0281E08E0F809301
:102CD0007A028091BB00F0E0E75AFD4F808390912B
:102CE0007A02809179029817C8F285E8D8CFE091EE
:102CF0007A0281E08E0F80937A028091BB00F0E02F
:102D0000E75AFD4F80838091580281115CCF81E0AA
:102D10008093570284EA8093BC001092560226CF1B
:102D200085EC8093BC001092560280915402803250
:102D300030F4E0915402F0E0EC5CFD4F10826091C1
:102D4000540270E0E0919402F091950284E392E0E5
:102D50000995109254020ACF1092550234CFEF9287
:102D6000FF920F931F93CF93DF93F82E192FE62E28
:102D7000042F81E0860F880F0E94F30383E00E94F6
:102D8000F303CF2DD12FEC0EFD2EF11CCE15DF0558
:102D9000B9F007FF13C0FE0184910E94F303182FBE
:102DA00080E00E94F303812321968111EFCFDF9110
:102DB000CF911F910F91FF90EF9008958881EDCFF3
:102DC00081E0F5CFCF93DF93E5E4F3E01382128245
:102DD00088EE93E0A0E0B0E084839583A683B78378
:102DE00023E531E0318320832FEF3FEF35872487C0
:102DF000E5E9F3E01382128284839583A683B78387
:102E000085E691E091838083EBE9F4E012821582FC
:102E10008FE891E091838083E9E8F4E013821282E5
:102E200015821482178216821186108613861286E6
:102E300083E891E091838083C1EAD3E01B821A8208
:102E400048EA50E060E270E085EB93E00E94812167
:102E500010928804109287048EED9AE09D878C87EB
:102E60001F861E8683EA9BE0998B888B1B8A1A8AB1
:102E700081E08A8787E791E099838883DF91CF910A
:102E80000895CF93DF93CDB7DEB7C056D1090FB603
:102E9000F894DEBF0FBECDBF789484B5826084BD48
:102EA00084B5816084BD85B5826085BD85B581604E
:102EB00085BD80916E00816080936E0010928100CC
:102EC0008091810082608093810080918100816087
:102ED0008093810080918000816080938000809148
:102EE0009100826080939100809191008160809335
:102EF0009100809190008160809390008091C1004A
:102F000084608093C1008091C10082608093C10081
:102F10008091C10081608093C1008091C300816075
:102F20008093C3008091C00082608093C000809134
:102F3000C20081608093C20080917A008460809397
:102F40007A0080917A00826080937A0080917A0082
:102F5000816080937A0080917A00806880937A0003
:102F60001092440310929302109292028091D70023
:102F700081608093D70080EA8093D80089B5806112
:102F800089BD89B5826089BD09B400FEFDCF61E0CD
:102F900070E080E090E00E947E038091D8008F7CFA
:102FA00080618093D8008091E000807F8093E00072
:102FB0008091E1008E7E8093E1008DE08093E200BD
:102FC000559A209A10929B0210929A02109299029E
:102FD000109298020E9461088CEB93E09093970204
:102FE0008093960288EC93E09093950280939402EC
:102FF00082E08093BA008FEF9FEF9093520380930B
:10300000510381E59AE090939D0280939C0286E7AC
:103010009AE090939F0280939E02109288041092EF
:10302000870488E19BE09093AE038093AD031092F8
:10303000B0031092AF0380E09CE09093B2038093C2
:10304000B1031092B4031092B30381E08093AB03F9
:1030500060E590E080E00E944D0F60E081E090E04C
:103060000E944D0F60E082E090E00E944D0F90E0E2
:1030700080E00E944B1D8093240381E090E00E9439
:103080004B1D682F70E090E080E00E94761E6093F8
:103090002A0370932B0380932C0390932D0382E0DB
:1030A00090E00E944B1D8093290385E0EBE2F1E064
:1030B000DE01119601900D928A95E1F710928C0431
:1030C00010928B0410928E0410928D041092900432
:1030D00010928F04109292041092910410929A040C
:1030E0001092990485E080939504809193049091C7
:1030F0009404892BC1F080E090919504891708F021
:1031000061C0282F30E0E1E0F0E0EC0FFD1FE20F9E
:10311000F31F9081E0919304F0919404E20FF31F68
:1031200090838F5FE9CF85E090E00E944E209093DE
:10313000940480939304892BF1F680ED97E09093AB
:103140009804809397048BE994E00E94110F8823E0
:10315000D1F36AE070E080E090E00E947E038BE9AA
:1031600094E00E94110F882371F384E690E00E949E
:10317000F0068CE99FEF0E94CA060E94B0036B0123
:103180007C0180918D0490918E04892BF9F48091BB
:10319000950490E0880F991F0E944E2090938E0412
:1031A00080938D04009709F4AFC0FC0190E080E0AB
:1031B000209195042817190649F044F011921192B4
:1031C0000196F6CF8BE080939604B7CF80918B0465
:1031D00090918C04892BF9F48091950490E0880FEC
:1031E000991F0E944E2090938C0480938B0400972B
:1031F00009F48AC0FC0190E080E020919504281732
:10320000190649F044F020919704309198042193D5
:1032100031930196F2CF10E000E00E944803BE0116
:103220006F5B7F4F89E894E00E9483070E94370319
:1032300060909504712CCE0101964C019E012F5D8A
:103240003F4FDE01AF5BBF4F5D012901DC0150E064
:1032500040E04615570524F5F501819191915F01F4
:103260000115110599F0F2016081718168177907E4
:1032700068F06D917C9111978617970768F04F5F02
:103280005F4F1296F2E04F0E511CE3CFF201918393
:1032900080830115110569F711969C938E93EFCFEA
:1032A0000F5F1F4F0A30110509F0B7CFA0918B04B3
:1032B000B0918C0400918D0410918E0490E080E018
:1032C0004091950448171906F9F0F4F0F401419182
:1032D00051914F01F801608171816417750710F4F5
:1032E00051834083F901419151919F016D917C91EE
:1032F00011974617570718F411965C934E93019651
:1033000012960E5F1F4FDCCF0E94B0036C197D092F
:103310008E099F09603A7F408105910508F431CFFD
:1033200090E080E00E94F00690E080E00E94CA06F3
:1033300075E0472E512C612C712C04E011E0C090F7
:103340002A03D0902B03E0902C03F0902D0320E073
:1033500030E04FE753E4C701B6010E94041F87FD28
:1033600015C0809129038F5F8093290320E030E00E
:103370004FE753E4C701B6010E94611D60932A0321
:1033800070932B0380932C0390932D038091A202C2
:10339000811104C01093A2020E943F07F894E090AC
:1033A000A002F090A1021092A1021092A0027894C3
:1033B0008091A202811104C01093A2020E943F07D3
:1033C000F8942090A3023090A4021092A4021092CC
:1033D000A302789480902A0390902B03A0902C0352
:1033E000B0902D03B701F7FE03C071956195710987
:1033F000072E000C880B990B0E94781E26E53EE0F4
:1034000049E450E40E94091F27E73EEB4FE15DE3EA
:103410000E94091F20E030E843E654E40E94CE1DDC
:103420006B017C01B10137FE03C071956195710993
:10343000072E000C880B990B0E94781E26E53EE0B3
:1034400049E450E40E94091F27E73EEB4FE15DE3AA
:103450000E94091F20E030E843E654E40E94CE1D9C
:103460009B01AC01C701B6010E94621D20E030E063
:1034700040E251E40E94091F20E030E040E05FE3B9
:103480000E94091FA50194010E94621D6B017C012D
:10349000C501B4010E94471E81E090E00E944D0FDB
:1034A0006091290382E090E00E944D0FC0922A03B0
:1034B000D0922B03E0922C03F0922D03609129030C
:1034C0002FEF629FB0011124072E000C880B990B7F
:1034D0000E94781EA70196010E94621D0E94471E4D
:1034E000609325037093260380932703909328030A
:1034F000A30192010E94DE1F50E5F52EF21A6F2DF6
:1035000090E080E00E944D0FF092240310925D0441
:1035100010925E0468E2E62E63E0F62EF7016491F5
:10352000662349F081EA93E00E94E50EFFEFEF1A6F
:10353000FF0A892B99F710925D0410935E04409165
:10354000240350E070E060E02AE081EA93E00E940A
:10355000C60D10925D0423E020935E0464E971E0DF
:1035600081EA93E00E94120E10925D0400935E04C3
:103570004091250350912603609127037091280301
:103580002AE081EA93E00E94C60D65EA71E081EAD3
:1035900093E00E94B70DF090230383E0F81609F43E
:1035A0008EC18F1588F091E0F91609F4B2C0A2E03F
:1035B000FA1609F43AC190E080E00E94F00690E02B
:1035C00080E00E94CA06D9C1B4E0FB1609F4DDC14F
:1035D000E5E0FE12F0CF8091AB0281110CC00E9499
:1035E000B0036093A7027093A8028093A9029093FE
:1035F000AA021093AB020E94B50C8DE093E00E94EA
:10360000500C80910D0390910E03883592400CF47C
:1036100010C248EA50E060E270E085EB93E00E945F
:10362000812110925D0410925E048091AC0381119F
:103630002AC08091AA03811104C081EA93E00E940C
:103640007D0E8091AB03882321F081EA93E00E94F4
:103650006E0B2091AF033091B003C901959587950A
:103660008F559C4FE091AD03F091AE0320FF08C051
:10367000DC012D913C91E20FF31F0190F081E02DD0
:1036800009951092AC0362ED71E081EA93E00E942B
:10369000120E1093A50290E080E00E94F00690E0E8
:1036A00080E00E94CA068091EF0290E0019620918E
:1036B000A6022817190681F080912101882361F064
:1036C000109221010E94B0036093A7027093A80298
:1036D0008093A9029093AA028091210181114DC18A
:1036E0000E94B50C0E94B003C090A702D090A8021F
:1036F000E090A902F090AA026C197D098E099F0939
:10370000683B7B408105910508F437C11093210186
:1037100070C080911B0381110CC00E94B0036093A4
:103720001703709318038093190390931A03F09270
:103730001B030E94B50C8DE093E00E94500C809119
:103740000D0390910E03883592400CF455C01093F0
:103750000C038DE093E00E94500C80910D0390913A
:103760000E0388359240ECF080910B038130C9F450
:103770008CE99FEF0E94F00684E690E00E94CA0662
:103780000E94B0036093170370931803809319038A
:1037900090931A03109224011092230182E08093E7
:1037A0000B038091240181111DC00E94B003C090C1
:1037B0001703D0901803E0901903F0901A036C19C6
:1037C0007D098E099F09643F71408105910550F084
:1037D0001093240169EA71E085E493E00E94120EDF
:1037E0001093230180910B03843008F4C6C010921B
:1037F0000B0300932303C1C08DE093E00E94500CA3
:1038000080910D0390910E03843691050CF0A1CFA9
:1038100080910C03882309F49CCF80910B038F5F68
:1038200080930B0310920C0394CF0E94B50C8DE093
:1038300093E00E94500C80910D0390910E03883507
:10384000924054F010930A0380910903823008F4E7
:1038500094C010920903CDCFF09009038DE093E05E
:103860000E94500C80910D0390910E0387399105B1
:103870005CF780910A03882339F3F394F0920903EB
:1038800067EB71E085E493E00E94120E6EEB71E04D
:1038900085E493E00E94B70D4091090350E070E089
:1038A00060E02AE085E493E00E94C60D61E971E0E2
:1038B00085E493E00E94B70D10920A03C5CF809172
:1038C000010381110CC00E94B0036093FD0270934C
:1038D000FE028093FF0290930003109301038DE09A
:1038E00093E00E94500C80910D0390910E03883557
:1038F0009240D4F00E94B0036093FD027093FE02E8
:103900008093FF029093000386E990E00E94F00606
:103910008CE99FEF0E94CA0664EC71E085E493E0B5
:103920000E94120E1093FC020E94B003C090FD0290
:10393000D090FE02E090FF02F09000036C197D0928
:103940008E099F096E3571408105910520F08091A7
:10395000FC0281110EC00E94B0036C197D098E0912
:103960009F096E3571408105910538F00E94B50CB4
:1039700004C0009323031092FC02E0E0F0E0EF2B80
:1039800009F4DDCC0E940000DACC8091F4028111B0
:103990000CC00E94B0036093F0027093F102809318
:1039A000F2029093F3021093F4020E94B50C8091FE
:1039B0002201882361F00E94B0036093F0027093AB
:1039C000F1028093F2029093F302109222010E947E
:1039D000B003E091EF02C090F002D090F102E090CD
:1039E000F202F090F3026C197D098E099F096C3286
:1039F00071408105910570F0EF5FE093EF02109345
:103A00002201F0E0EE0FFF1FED54FD4F8081809307
:103A10002303B3CF10935D048AE080935E044E2F9E
:103A200050E070E060E02AE081EA93E00E94C60D79
:103A3000A4CF0E94B50C37CE89E891E090938A0418
:103A4000809389048091930490919404009711F0DD
:103A50000E94EA2080918D0490918E04009711F0CD
:103A60000E94EA208091910490919204009711F0B5
:103A70000E94EA2080918B0490918C04009711F0B1
:103A80000E94EA2080918F0490919004009711F099
:103A90000C94EA200895F999FECF92BD81BDF89A61
:103AA000992780B50895262FF999FECF1FBA92BDA8
:103AB00081BD20BD0FB6F894FA9AF99A0FBE01960F
:103AC00008955058BB27AA270E94791D0C94CA1E3E
:103AD0000E94BC1E38F00E94C31E20F039F49F3FA4
:103AE00019F426F40C94B91E0EF4E095E7FB0C943F
:103AF000B31EE92F0E94DB1E58F3BA176207730743
:103B00008407950720F079F4A6F50C94FD1E0EF4B9
:103B1000E0950B2EBA2FA02D0B01B90190010C01DD
:103B2000CA01A0011124FF27591B99F0593F50F4F5
:103B3000503E68F11A16F040A22F232F342F44274D
:103B4000585FF3CF469537952795A795F040539545
:103B5000C9F77EF41F16BA0B620B730B840BBAF015
:103B60009150A1F0FF0FBB1F661F771F881FC2F780
:103B70000EC0BA0F621F731F841F48F48795779594
:103B80006795B795F7959E3F08F0B0CF9395880F4E
:103B900008F09927EE0F9795879508950E94E21DEA
:103BA0000C94CA1E0E94C31E58F00E94BC1E40F016
:103BB00029F45F3F29F00C94B31E51110C94FE1EA2
:103BC0000C94B91E0E94DB1E68F39923B1F35523B0
:103BD00091F3951B550BBB27AA2762177307840720
:103BE00038F09F5F5F4F220F331F441FAA1FA9F3B6
:103BF00035D00E2E3AF0E0E832D091505040E695A4
:103C0000001CCAF72BD0FE2F29D0660F771F881F04
:103C1000BB1F261737074807AB07B0E809F0BB0BF7
:103C2000802DBF01FF2793585F4F3AF09E3F51050B
:103C300078F00C94B31E0C94FE1E5F3FE4F3983EA4
:103C4000D4F3869577956795B795F7959F5FC9F7F4
:103C5000880F911D9695879597F90895E1E0660F75
:103C6000771F881FBB1F621773078407BA0720F0EE
:103C7000621B730B840BBA0BEE1F88F7E095089557
:103C80000E94471E6894B1110C94FE1E08950E9474
:103C9000E31E88F09F5798F0B92F9927B751B0F0DD
:103CA000E1F0660F771F881F991F1AF0BA95C9F7C0
:103CB00014C0B13091F00E94FD1EB1E008950C9443
:103CC000FD1E672F782F8827B85F39F0B93FCCF3F6
:103CD000869577956795B395D9F73EF4909580953D
:103CE000709561957F4F8F4F9F4F0895E89409C05D
:103CF00097FB3EF490958095709561957F4F8F4F1F
:103D00009F4F9923A9F0F92F96E9BB279395F69534
:103D1000879577956795B795F111F8CFFAF4BB0FB2
:103D200011F460FF1BC06F5F7F4F8F4F9F4F16C016
:103D3000882311F096E911C0772321F09EE8872FA0
:103D4000762F05C0662371F096E8862F70E060E05C
:103D50002AF09A95660F771F881FDAF7880F9695D5
:103D6000879597F9089597F99F6780E870E060E07C
:103D700008959FEF80EC089500240A941616170604
:103D800018060906089500240A941216130614064C
:103D900005060895092E0394000C11F4882352F0AF
:103DA000BB0F40F4BF2B11F460FF04C06F5F7F4F67
:103DB0008F4F9F4F089557FD9058440F551F59F04E
:103DC0005F3F71F04795880F97FB991F61F09F3F08
:103DD00079F087950895121613061406551FF2CF31
:103DE0004695F1DF08C0161617061806991FF1CF81
:103DF00086957105610508940895E894BB276627A8
:103E00007727CB0197F908950E94761F08F48FEF6A
:103E100008950E941C1F0C94CA1E0E94BC1E38F0FC
:103E20000E94C31E20F0952311F00C94B31E0C9435
:103E3000B91E11240C94FE1E0E94DB1E70F3959F88
:103E4000C1F3950F50E0551F629FF001729FBB2791
:103E5000F00DB11D639FAA27F00DB11DAA1F649F2D
:103E60006627B00DA11D661F829F2227B00DA11DE0
:103E7000621F739FB00DA11D621F839FA00D611D66
:103E8000221F749F3327A00D611D231F849F600D87
:103E9000211D822F762F6A2F11249F5750409AF0B0
:103EA000F1F088234AF0EE0FFF1FBB1F661F771F3C
:103EB000881F91505040A9F79E3F510580F00C9407
:103EC000B31E0C94FE1E5F3FE4F3983ED4F3869538
:103ED00077956795B795F795E7959F5FC1F7FE2BA7
:103EE000880F911D9695879597F90895990F000869
:103EF000550FAA0BE0E8FEEF16161706E807F907BC
:103F0000C0F012161306E407F50798F0621B730B56
:103F1000840B950B39F40A2661F0232B242B252BD7
:103F200021F408950A2609F4A140A6958FEF811D7A
:103F3000811D0895DB018F939F930E944320BF91C1
:103F4000AF91A29F800D911DA39F900DB29F900DE8
:103F500011240895991B79E004C0991F961708F061
:103F6000961B881F7A95C9F780950895AA1BBB1BDD
:103F700051E107C0AA1FBB1FA617B70710F0A61B69
:103F8000B70B881F991F5A95A9F780959095BC018A
:103F9000CD01089597FB072E16F4009407D077FD06
:103FA00009D00E94B61F07FC05D03EF4909581957C
:103FB0009F4F0895709561957F4F0895A1E21A2E45
:103FC000AA1BBB1BFD010DC0AA1FBB1FEE1FFF1FBD
:103FD000A217B307E407F50720F0A21BB30BE40B0D
:103FE000F50B661F771F881F991F1A9469F7609554
:103FF0007095809590959B01AC01BD01CF0108950E
:10400000052E97FB1EF400940E94172057FD07D041
:104010000E94DE1F07FC03D04EF40C94172050952D
:104020004095309521953F4F4F4F5F4F08959095A4
:104030008095709561957F4F8F4F9F4F0895EE0F3C
:10404000FF1F0590F491E02D09940E942D20332349
:1040500012F48A1B9B0B0C943E20A29FB001B39FCD
:10406000C001A39F700D811D1124911DB29F700D81
:10407000811D1124911D08950E942D20B7FF0895E0
:10408000821B930B08950E942D20A59F900DB49F35
:10409000900DA49F800D911D112408950F931F93DF
:1040A000CF93DF938230910510F482E090E0E091AD
:1040B000A504F091A60430E020E0B0E0A0E0309745
:1040C00099F42115310509F44AC0281B390B243015
:1040D0003105D8F58A819B816115710589F1FB0154
:1040E00093838283FE0111C040815181028113813B
:1040F00048175907E0F04817590799F4109761F0ED
:1041000012960C93129713961C933296CF01DF915F
:10411000CF911F910F9108950093A5041093A604C9
:10412000F4CF2115310551F04217530738F0A9019A
:10413000DB019A01BD01DF01F801C1CFEF01F9CF29
:104140009093A6048093A504CDCFFE01E20FF31F48
:10415000819391932250310939832883D7CF2091BD
:10416000A3043091A404232B41F420912701309122
:1041700028013093A4042093A304209125013091B9
:1041800026012115310541F42DB73EB74091290193
:1041900050912A01241B350BE091A304F091A40453
:1041A000E217F307A0F42E1B3F0B2817390778F00E
:1041B000AC014E5F5F4F2417350748F04E0F5F1F6D
:1041C0005093A4044093A304819391939FCFF0E074
:1041D000E0E09CCFCF93DF930097E9F0FC013297AA
:1041E00013821282A091A504B091A604ED0130E0E3
:1041F00020E01097A1F420813181820F931F20913C
:10420000A3043091A4042817390709F061C0F09382
:10421000A404E093A304DF91CF910895EA01CE179F
:10422000DF07E8F54A815B819E0141155105B1F731
:10423000E901FB83EA8349915991C40FD51FEC171B
:10424000FD0761F4808191810296840F951FE90139
:1042500099838883828193819B838A83F0E0E0E065
:1042600012968D919C9113970097B9F52D913C91E1
:104270001197CD010296820F931F2091A3043091D4
:10428000A4042817390739F6309751F51092A6047F
:104290001092A504B093A404A093A304BCCFD3832D
:1042A000C28340815181840F951FC817D90761F4DB
:1042B0004E5F5F4F88819981480F591F518340831A
:1042C0008A819B81938382832115310509F0B0CFC8
:1042D000F093A604E093A5049ECFFD01DC01C0CFBE
:1042E00013821282D7CF81E090E0F8940C94882159
:1042F000FB01DC0102C001900D9241505040D8F703
:104300000895DC0101C06D9341505040E0F70895DD
:1043100011E0C6EDD1E004C0FE010E941F202196ED
:0A432000C73DD107C9F7F894FFCF9D
:10432A00010F00F401D00704000401FFFFFFFF00A2
:10433A00E1000000000000F203F203F203F203F2CC
:10434A0003010101010000A7048000121415040CE6
:10435A009C01B501CF01EA01070226024702690260
:10436A008E02B502DE020A0300C18081000000004D
:10437A000000000A0585042B05200571052F054D4F
:10438A000500000000B408A9084D0C7F08A2088F98
:10439A0008800800000000E50E4F0F4D0C4C0C0081
:1043AA00000000830700000000B50D0000000011A6
:1043BA000F0D0A0044697374616E63652064726F3D
:1043CA0076653B20006B6D20007475726E20436F1A
:1043DA006D706C657465006F6E4C696E6500636F15
:1043EA00756E74007472756E696E672052696768BB
:0C43FA0074004348415247494E47000000
:00000001FF
