:100000000C94D3010C94690E0C94420E0C941B0EAC
:100010000C94F40D0C94FB010C94FB010C94CD0D8D
:100020000C94FB010C9428130C94900E0C94FF0E6E
:100030000C94FB010C94FB010C94FB010C94FB0150
:100040000C94FB010C94FB010C94FB010C94FB0140
:100050000C94FB010C94FB010C94FB010C94830D9C
:100060000C94FB010C94FB010C94FB010C94FB0120
:100070000C94FB010C94FB010C94FB010C94FB0110
:100080000C94FB010C94FB010C94FB010C94FB0100
:100090000C9473130C94FB010C94FB010C94FB0166
:1000A0000C94FB010C9431110C94FB010000000036
:1000B0000000004F00000007000700147F147F14A9
:1000C000242A7F2A122313086462364955225000DD
:1000D00000070000001C2241000041221C001408FF
:1000E0003E081408083E08080050300000080808C0
:1000F0000808006060000020100804023E514945D5
:100100003E00427F400042615149462141454B310A
:100110001814127F1027454545393C4A4949300398
:10012000017109073649494936064949291E0036F1
:100130003600000056360000081422410014141442
:100140001414004122140802015109063249794170
:100150003E7E1111117E7F494949363E414141227F
:100160007F4141413E7F494949417F090909013E9B
:100170004149497A7F0808087F00417F41002040BB
:10018000413F017F081422417F404040407F020CE4
:10019000027F7F0408107F3E4141413E7F090909EB
:1001A000063E4151215E7F09192946464949493198
:1001B00001017F01013F4040403F1F2040201F3F81
:1001C0004038403F63140814630708700807615102
:1001D000494543007F41410002040810200041418D
:1001E0007F0004020102044040404040000102043C
:1001F0000020545454787F484444383844444420C0
:10020000384444487F3854545418087E0901020C7D
:100210005252523E7F0804047800447D4000204042
:10022000443D007F1028440000417F40007C0418BA
:1002300004787C0804047838444444387C1414144A
:1002400008081414187C7C080404084854545420EA
:10025000043F4440203C4040207C1C2040201C3C6B
:100260004038403C44281028440C5050503C4464D2
:10027000544C44000836410000007F000000413625
:1002800008000C02040806081C2A080800030C0FCA
:1002900030333C3FC0C3CCCFF0F3FCFF0000000084
:1002A0002300260029002C002F000000000024005D
:1002B00027002A002D003000080B00020202000077
:1002C00009040000010202000005240010010524B9
:1002D000010101042402060524060001070581032B
:1002E00010004009040100020A0000000705020294
:1002F00040000007058302400000040309041201C6
:100300000002EF020140FB1F002300010102030174
:10031000506F6C6F6C7520436F72706F726174698F
:100320006F6E00506F6C6F6C7520412D537461724D
:1003300020333255340000000000250028002B0037
:100340002E00310004040404040304050202020226
:10035000040302020202060606060606040402025E
:100360000204040408020110408040102040804034
:1003700080080204018040201002011080102040FB
:1003800040200000000200090F0000030401000CDF
:10039000000000000000000000000000000000005D
:1003A0000000C514991811241FBECFEFDAE0DEBF9C
:1003B000CDBF11E0A0E0B1E0E2EFF9E302C00590AB
:1003C0000D92A03CB107D9F724E0A0ECB1E001C048
:1003D0001D92A634B207E1F711E0C2EDD1E004C0EE
:1003E0002197FE010E94921BC13DD107C9F70E94CF
:1003F00024150C94EC1C0C9400005B9887FD5D9A0E
:1004000087FF5D985B9A5B9886FD5D9A86FF5D9895
:100410005B9A5B9885FD5D9A85FF5D985B9A5B981A
:1004200084FD5D9A84FF5D985B9A5B9883FD5D9A7D
:1004300083FF5D985B9A5B9882FD5D9A82FF5D9871
:100440005B9A5B9881FD5D9A81FF5D985B9A5B98F2
:1004500080FD5D9A80FF5D985B9A0895FC01809114
:10046000E302882311F13FB7F89482E08093E9001A
:100470002091F200822F90E01816190614F481E002
:1004800090E0882339F0289844E64093E2024091B6
:10049000F1004083222339F02091F200211103C0A2
:1004A0002BE62093E8003FBF08958FEF9FEF08955C
:1004B0002FB7F89483E08093E9009091E800892FAA
:1004C000807295FF04C09091F20080E4891B2FBFD9
:1004D00008958091DA0281110DC082E08093D602E6
:1004E00084E08093D7021092D9021092D80281E062
:1004F0008093DA0286ED92E0089581508F3008F003
:1005000047C0E82FF0E0E957FD4F0C94921BA4027E
:10051000A80296029C02A002C802C802C802AB024E
:10052000B102B502B902BF02C802C30280918000C5
:100530008F77809380000895809180008F7DF9CF20
:1005400080918000877FF5CF84B58F7784BD089533
:1005500084B58F7DFBCF809190008F778093900042
:100560000895809190008F7DF9CF80919000877FD2
:10057000F5CF8091C0008F778093C000089580915F
:10058000C0008F7DF9CF8091C200877F8093C20029
:1005900008951F93CF93DF93282F30E0F901EE5792
:1005A000FC4F8491F901ED59FC4FD491F901EC5BBA
:1005B000FC4FC491CC23A9F0162F81110E947D021B
:1005C000EC2FF0E0EE0FFF1FEA5CFC4FA591B49119
:1005D0008FB7F894EC91111108C0D095DE23DC930D
:1005E0008FBFDF91CF911F910895DE2BF8CF3FB7DA
:1005F000F8948091D2029091D302A091D402B0914C
:10060000D50226B5A89B05C02F3F19F00196A11D64
:10061000B11D3FBFBA2FA92F982F8827BC01CD014C
:10062000620F711D811D911D42E0660F771F881FAB
:10063000991F4A95D1F70895CF92DF92EF92FF92DA
:100640000E94F7026B017C010E94F7026C197D0980
:100650008E099F09683E734081059105A8F3FF90BC
:10066000EF90DF90CF900895E091AC02F091AD0251
:10067000309729F01092A9021092A80209940895C7
:10068000CF93DF93AC01E091AE02F091AF023097CF
:10069000F1F09091AB028091AA029817C0F090E01F
:1006A000292F30E02617370754F4D901A350BE4F45
:1006B000240F351FE90128812C939F5FF1CF109201
:1006C000AB026093AA02CB01DF91CF910994DF9135
:1006D000CF910895089540919E0250919F022091DC
:1006E0009C0230919D0242175307B4F49091E800A8
:1006F0009570E1F39091E80092FD19C08093F100AC
:1007000080919E0290919F0201968F739927892B69
:1007100019F48EEF8093E80080919E0290919F02E1
:10072000019690939F0280939E0281E0089580E05D
:100730000895DF92EF92FF920F931F93CF93DF9371
:10074000D82E8A01EB017B01E40EF51ECE15DF05E4
:1007500059F0D7FE12C0FE0184910E946B032196CE
:100760008111F4CF0FEF1FEFC801DF91CF911F91DF
:100770000F91FF90EF90DF9008958881EECF0F9357
:100780001F93CF93DF931F92CDB7DEB782E08983AB
:1007900042E450E068EB72E080E80E9499030E9416
:1007A0006902DC0112960D911C910115110589F069
:1007B000D801ED91FC910280F381E02DBE016F5FC5
:1007C0007F4FC801099597FD04C0F8010085118588
:1007D000ECCF89810F90DF91CF911F910F910895F8
:1007E000615030F02091F100FC0120830196F8CF98
:1007F000289884E68093E20208958F929F92AF92A8
:10080000BF92CF92DF92EF92FF920F931F93CF93FD
:10081000DF936C017B018A0180911601882309F422
:1008200058C08091E302882309F453C08091A2024A
:1008300080FF05C08091E00082608093E000E801C5
:10084000B12C8AEFA82E93E0892E2AE3922E2097CE
:1008500011F4BB20B9F10E945802811106C0AA947C
:10086000AA20B9F10E941C03F2CF8C171D0611F0CB
:100870000CF08C2F9FB7F8948092E9002091E8004B
:1008800025FD02C09FBFE3CF282F30E0C21BD30B52
:10089000F701815020F041914093F100FACFE20E30
:1008A000F31EBB2021F09092E800B12CEBCF809199
:1008B000E80085FDE7CF9092E800BB24B394209731
:1008C00009F3F3CF5D9884E68093A1021016110618
:1008D0003CF081E090E0F6019383828310E000E039
:1008E000C801DF91CF911F910F91FF90EF90DF90A2
:1008F000CF90BF90AF909F908F900895CF93DF934C
:100900001F92CDB7DEB76983DC01ED91FC910280C7
:10091000F381E02D41E050E0BE016F5F7F4F09950C
:100920000F90DF91CF91089583E08093E90080914B
:10093000F200882319F08AE38093E80008950E946A
:10094000580290E00895CF93DF931F92CDB7DEB7A2
:10095000FC018485958597FD08C02FEF3FEF358713
:1009600024870F90DF91CF910895CE0101960E94C8
:100970002E02019719F4898190E0F3CF8FEF9FEF5A
:10098000F0CF0F931F93CF93DF931F92CDB7DEB7B6
:100990008C01FC018485958597FF0BC0CE010196E3
:1009A0000E942E02019771F4898190E0F8019587E9
:1009B0008487F801848595850F90DF91CF911F91F1
:1009C0000F9108958FEF9FEFF1CFFC0184859585FE
:1009D00097FD0BC09FB7F89482E08093E900809167
:1009E000F2009FBF90E0019608959FB7F89482E0CF
:1009F0008093E9008091F2009FBF90E0089580917C
:100A00009902E0919A02F0919B02882339F0849137
:100A10009FEB980F9A3120F4805E08958081F8CF83
:100A2000803269F420919A0230919B02A9014F5FB4
:100A30005F4F50939B0240939A02232B01F7089536
:100A40001F93CF93DF930E94FF04D0E0C0E01AE031
:100A500090ED980F9A30B8F41C9F90011D9F300DB7
:100A60001124E901C80FD11D87FDDA95E097809127
:100A70009A0290919B02019690939B0280939A0216
:100A80000E94FF04E5CFCE01DF91CF911F91089521
:100A90003F924F925F926F927F928F929F92AF920E
:100AA000BF92CF92DF92EF92FF920F931F93CF935B
:100AB000DF937B01D42E2091960221111BC021E0EF
:100AC00020939602109272001092C00034E030938E
:100AD000C10039E03093C2002093C30023E020938B
:100AE000BF0028EE2093D1001092BF001092D200D8
:100AF000579A789410920A01CC24C39497FF03C0AC
:100B00009F77AAE0CA2EC8E2CC9EC02D1124D0E067
:100B10008C179D0750F021E0EC01C21206C0C131D4
:100B200087E2D80710F0C0E1D7E24E01B12CA12C2A
:100B30004C2C512C712C612C9E01AFEFB7E00E9420
:100B4000981B640D751D861D971D96958795779545
:100B50006795A30192010E94511B60E072E18AE750
:100B600090E0312C3394621773078407950728F0BF
:100B70009695879577956795F5CFA30192010E9489
:100B8000211B9E0136952795620F731F811D911DB4
:100B9000A50194010E94511B722E022F132F2AE0EF
:100BA000C21207C0CE0105966AE070E00E943D1BAC
:100BB000EB01C83E83E0D80759F09701DE010E949F
:100BC000981B28EE33E040E050E00E94731B79014F
:100BD000109272008091C100807F83298093C100B0
:100BE0001093BF007092D1004D2D403108F04FE0BE
:100BF00080E190E0841B910902C0169507958A95C3
:100C0000E2F71093BF000093D200F0929802E092B6
:100C1000970289B38FEF89BB84E080937200DF91E4
:100C2000CF911F910F91FF90EF90DF90CF90BF90E9
:100C3000AF909F908F907F906F905F904F903F907C
:100C400008952E98269A2D98259A2A98229A2998BE
:100C5000219A80EA8093800081E18093810080E97D
:100C600091E0909387008093860010928900109203
:100C7000880010928B0010928A0008959FB19170A5
:100C80008CB186FB882780F9892720918F023091CB
:100C90008E024091B4025091B50228273927231BB8
:100CA000330B240F351F3093B5022093B4023091DB
:100CB0008E0220918F02381729F0291719F021E0B0
:100CC00020938D0280938E0290938F020895249832
:100CD0002C9A6A98729A6E98769A8098889A81E08F
:100CE0008093680090E190936B008BBB8EE396E05D
:100CF0009093200180931F01EAE6F0E080818F7CD1
:100D000080618083EE9A8CB182FB882780F9809382
:100D1000920293B18091920292959170892780936B
:100D200091021092B2021092B102109290028FB111
:100D3000817080938F029CB180918F0296FB9927DE
:100D400090F9892780938E021092B5021092B40216
:100D500010928D0208955F926F927F928F929F9270
:100D6000AF92BF92CF92DF92EF92FF920F931F93B9
:100D7000CF93DF93DC011A962D913C91232B09F43C
:100D8000D2C06B01EC0110E08C85181708F039C057
:100D9000E12EF12C8E859F85F701EE0FFF1FEC0DE4
:100DA000FD1D91838083EA85FB85EE0DFF1D61E0CB
:100DB00080810E94C9028A859B85E80EF91EF70191
:100DC000808190E0FC01ED59FC4F24918C5B9C4F9D
:100DD000FC018491882399F090E0880F991FFC0111
:100DE000E655FD4FA591B491FC01EA5CFC4F85915D
:100DF00094918FB7F894EC91E22BEC938FBF1F5F27
:100E0000C3CF83E290E00197F1F710E08C851817CB
:100E100008F036C0212F30E0EA85FB85E20FF31F92
:100E2000808190E0FC01ED59FC4F44918C5B9C4F1C
:100E3000FC0184918823C9F090E0880F991FFC0180
:100E4000E655FD4FA591B491FC01EA5CFC4F65911C
:100E500074919FB7F8948C91E42FE0958E238C9336
:100E6000DB018C91E823EC939FBF8A859B85280F3B
:100E7000391F60E0F90180810E94C9021F5FC6CF5F
:100E80000E94F7024B015C010E94F702AB01BC011A
:100E9000481959096A097B098E859F85B0E0A0E051
:100EA000481759076A077B0708F03DC00E94F70200
:100EB0007B01E818F908612C8C85681628F7062D47
:100EC00010E0EA85FB85E00FF11F208130E0F90199
:100ED000EE57FC4F8491F901ED59FC4F7490F901E4
:100EE000EC5BFC4F549051100CC0000F111FF60129
:100EF000E00FF11F80819181E816F90688F0639474
:100F0000DBCF81110E947D02E52DF0E0EE0FFF1F87
:100F1000E456FD4FA591B491EC917E2231F3EFCFD1
:100F2000F182E082ECCFDF91CF911F910F91FF9082
:100F3000EF90DF90CF90BF90AF909F908F907F9079
:100F40006F905F90089520914302260F3327331F3F
:100F500021323105ECF420916702FC0190E080E041
:100F6000243069F082E00895A09143022191AC0100
:100F70004D5D5D4FA40FB52FB11D2C9301968617C3
:100F800098F380914302680F6093430280E00895D4
:100F900081E008951092670281E0809369021092C7
:100FA000680261E082E00E94C90261E083E00E9481
:100FB000C902E9EBF0E080818E7F808380818D7FA4
:100FC000808388E48093B80085E48093BC00089512
:100FD0000895E091AB028091AA02E81730F4F0E0A6
:100FE000E350FE4F808190E008958FEF9FEF0895CA
:100FF0009091AB028091AA022FEF3FEF981748F42F
:10100000E92FF0E0E350FE4F208130E09F5F9093A6
:10101000AB02C90108958091AA029091AB02891B8D
:10102000990B0895CF93DF93CB01EA01642F0E94BF
:10103000A307CE01DF91CF910895CF93DF931F9245
:10104000CDB7DEB7698361E0CE0101960E94A307A8
:1010500081E090E00F90DF91CF910895289A209A37
:1010600008952898209A08955F926F927F928F92A8
:101070009F92AF92BF92CF92DF92EF92FF920F9327
:101080001F93CF93DF935C01D62FC42FF22E132F23
:101090000E9431088D2F806B0E94FD018C2F82955C
:1010A0008F7080610E94FD018C2F8F700E94FD0166
:1010B0000E942E08CF2DD12F0C0F1D2F111D95E052
:1010C000692EC017D10709F444C07990872D80524A
:1010D000990B9C01629EC001639E900D1124769C29
:1010E00040011124F12CE12C9C0124553F4F690152
:1010F0003FE1371508F5F601EE0DFF1DE491F0E034
:1011000084E0F595E7958A95E1F7E457FD4F549013
:10111000852D0E94FD01852D0E94FD019FEFE91A9A
:10112000F90A25E0E216F10419F780E00E94FD01BA
:1011300080E00E94FD01C5CF87E0E0E08715F8F26E
:10114000F401EE0DFF1DE254FF4FEA0DFB1DE0819F
:10115000D6CFDF91CF911F910F91FF90EF90DF904D
:10116000CF90BF90AF909F908F907F906F905F9047
:1011700008955F926F927F928F929F92AF92BF92EB
:10118000CF92DF92EF92FF920F931F93CF93DF9353
:101190005C01D62FC42FF22E132F0E9431088D2F01
:1011A000806B0E94FD018C2F82958F7080610E9460
:1011B000FD018C2F8F700E94FD010E942E08CF2D03
:1011C000D12F0C0F1D2F111D85E0682EC017D107E0
:1011D00009F440C07990872D8052990B9C01629E42
:1011E000C001639E900D1124769C40011124F12CC6
:1011F000E12C9C0124553F4F69013FE13715E8F48C
:10120000F601EE0DFF1DE491EF70F0E0E457FD4FA5
:101210005490852D0E94FD01852D0E94FD019FEFB8
:10122000E91AF90A25E0E216F10439F780E00E9494
:10123000FD0180E00E94FD01C9CF87E0E0E0871555
:1012400018F3F401EE0DFF1DE254FF4FEA0DFB1DF4
:10125000E081DACFDF91CF911F910F91FF90EF9056
:10126000DF90CF90BF90AF909F908F907F906F90C6
:101270005F9008956F927F928F929F92AF92BF92EC
:10128000CF92DF92EF92FF920F931F93CF93DF9352
:101290005C01D62FC42FF22E132F0E9431088D2F00
:1012A000806B0E94FD018C2F82958F7080610E945F
:1012B000FD018C2F8F700E94FD010E942E08CF2D02
:1012C000D12F0C0F1D2F111D85E0682EC017D107DF
:1012D000A9F17990872D8052990B9C01629EC001E3
:1012E000639E900D1124769C40011124F12CE12C79
:1012F0009C0124553F4F69013FE1371588F4F60101
:10130000EE0DFF1D84910E94FD019FEFE91AF90A7D
:1013100025E0E216F10481F780E00E94FD01D6CFBE
:1013200087E0871548F0F701E80DF91DE254FF4FFB
:10133000EA0DFB1D8081E7CF80E0E5CFDF91CF9103
:101340001F910F91FF90EF90DF90CF90BF90AF90E3
:101350009F908F907F906F900895282F21FB0EF023
:10136000209820FB0EF028980EF4289A21FB0EF40A
:10137000209A08958091BC02882301F16091B802FF
:101380007091B9028091BA029091BB020E94C21979
:1013900084E393E00E941D086091B70284E393E028
:1013A0000E941D081092B7021092B8021092B90262
:1013B0001092BA021092BB021092BC020895809162
:1013C000AA029091AB02891B990B18161906DCF43E
:1013D00084E393E00E94F8079091FC01E92FF0E08C
:1013E000EE0FFF1FE054FE4F482F4053550B518323
:1013F00040839F5F9093FC01809100018823F9F264
:1014000010920001DCCF0895CF93DF93EC01288187
:1014100021FB0EF0559820FB0EF05D980EF45D9ABE
:1014200021FB0EF4559A89810E94AD09E9EEF0E0A6
:1014300010828C818093F0008B8180838A818093DD
:10144000E200DF91CF910895FC01A2EEB0E08C9113
:1014500082831C92A9EEB0E08C9183831C92A0EF52
:10146000B0E08C9184831C9220E05D9921605599B5
:101470002260208320E02899216020992260218326
:101480005D98559A0895CF92DF92EF92FF920F9355
:10149000CF93DF93EC017C0184E0E80EF11CC701DF
:1014A0000E94240A6E0184E1C80ED11C08E0960156
:1014B00043E162E0CE010E94B908960143E163E096
:1014C000CE010E9434086E0189E2C80ED11C96013B
:1014D00043E165E0CE010E94B908960143E166E070
:1014E000CE010E943408C701DF91CF910F91FF9088
:1014F000EF90DF90CF900C94040AEF92FF920F933D
:10150000CF93DF93EC017C0184E0E80EF11CC7016E
:101510000E94240A9E012C5E3F4F05E142E060E0FC
:10152000CE010E943A099E01275D3F4F42E061E0F3
:10153000CE010E943A099E01225C3F4F42E062E0E8
:10154000CE010E943A099E012D5A3F4F42E063E0CE
:10155000CE010E943A099E0128593F4F42E064E0C3
:10156000CE010E943A099E0123583F4F42E065E0B8
:10157000CE010E943A099E012E563F4F42E066E09E
:10158000CE010E943A099E0129553F4F42E067E093
:10159000CE010E943A09C701DF91CF910F91FF90D0
:1015A000EF900C94040AEF92FF920F931F93CF9346
:1015B000DF938C017C0184E0E80EF11CC7010E94DE
:1015C000240A0E94310882E00E94FD01C0E00E94CE
:1015D00031088C2F806B0E94FD0180E10E94FD018B
:1015E0000E942E08D0E080E00E94FD01DF5FD0382D
:1015F000D1F7CF5FC83059F7C7010E94040AF8013C
:101600001286DF91CF911F910F91FF90EF90089577
:10161000AF92BF92CF92DF92EF92FF920F931F9300
:10162000CF93DF937C01122F683008F043C0423023
:1016300008F040C088E0861B8217D0F12223D1F148
:10164000C42FCC0FC40FDCE06D9FD02D1124DD5EC4
:10165000670124E1C20ED11C862F90E025E1429F54
:10166000800D911D1124C80ED91E570184E0A80ECB
:10167000B11CC5010E94240A62E06C0F012F960183
:101680004D2FC7010E94B90863E06C0F96014D2FE2
:10169000C7010E943408C501DF91CF911F910F91BE
:1016A000FF90EF90DF90CF90BF90AF900C94040A22
:1016B000182FC6CFDF91CF911F910F91FF90EF9020
:1016C000DF90CF90BF90AF900895BF92CF92DF92FE
:1016D000EF92FF920F931F93CF93DF93EC01162F9E
:1016E000B42E022F653198F527E0241780F185E1AB
:1016F000861B801750F1002351F1CE014496E12E54
:10170000F12C25E1B29EE00CF11C1124E80EF91E2B
:101710006E0184E0C80ED11CC6010E94240A412F2C
:10172000440F410F440F4E5F97016B2DCE010E9475
:101730003A09C601DF91CF911F910F91FF90EF9071
:10174000DF90CF90BF900C94040A082FD6CFDF9182
:10175000CF911F910F91FF90EF90DF90CF90BF90AE
:101760000895089590E080E008950E94D71CFB0141
:1017700001900020E9F73197AF01461B570BDC01C0
:10178000ED91FC910280F381E02D09948F929F925C
:10179000AF92BF92EF92FF920F931F93CF93DF937D
:1017A000CDB7DEB7A1970FB6F894DEBF0FBECDBFA1
:1017B0007C01FA01CB0119A2223008F42AE08E0143
:1017C0000F5D1F4F822E912CB12CA12CBF01A501C2
:1017D00094010E94511BF901CA016A300CF5605D49
:1017E000D8016E938D01232B242B252B79F790E0C4
:1017F00080E0109721F0BD01C7010E94B70BA196B0
:101800000FB6F894DEBF0FBECDBFDF91CF911F9111
:101810000F91FF90EF90BF90AF909F908F900895A1
:10182000695CDECFCF93DF9385ED8093BC00809120
:101830001F0290912002A0912102B09122020796EE
:10184000A11DB11D23E0B695A795979587952A957B
:10185000D1F72091BC0024FD03C01092670236C06E
:1018600040911F025091200260912102709122024A
:10187000452B462B472B69F30097A105B10541F095
:101880002AE22A95F1F700C00197A109B109E1CF39
:1018900080911E0291E090931D028823B9F0C091BF
:1018A000B800D091BA008091BC008A7B8093BC00C4
:1018B00060E082E00E94C90260E083E00E94C90209
:1018C0000E94CA07D093BA00C093B800DF91CF91AD
:1018D0000895DF92EF92FF920F931F93CF93DF93C0
:1018E000EC01F62EE42ED22E898581112DC05B9855
:1018F000539A5A98529A85E38A95F1F700005A9ABA
:10190000529AA5E3AA95F1F70000CE010E94D30AEE
:101910008E010C5F1F4FC8010E94240A0E943108EB
:1019200081EA0E94FD0188EC0E94FD0181E80E948D
:10193000FD018FEF0E94FD018FEA0E94FD01C801A9
:101940000E94040A81E089878A85882319F0CE01E4
:101950000E94D30A2A893B89C901959587958C0FE6
:101960009D1FE889F98920FF08C0DC012D913C9179
:10197000E20FF31F0190F081E02D2D2D4E2D6F2DE4
:10198000DF91CF911F910F91FF90EF90DF9009941D
:10199000CF93DF93DC01A354BF4F2C91283008F57F
:1019A000EC01C454DF4FE881E531D8F4AC0175E1B6
:1019B000279F400D511D1124E40FF52FF11D648B5D
:1019C000FC012385211105C021E04C9168810E9412
:1019D000690C88818F5F888381E090E0DF91CF91EF
:1019E000089590E080E0FACFAF92BF92CF92DF925D
:1019F000EF92FF920F931F93CF93DF9382EEE82E27
:101A0000F12CF70100811082C9EED0E0B880188275
:101A100090EFC92ED12CF601A080108220E02899E9
:101A2000216020992260822F2098289A90E19A952F
:101A3000F1F713B10E94AD091882F601A082B882B5
:101A4000F7010083812F80958170DF91CF911F91E5
:101A50000F91FF90EF90DF90CF90BF90AF900895DF
:101A60000C94D018BF92CF92DF92EF92FF920F9317
:101A70001F93CF93DF938C01EA016C012DEBC20E13
:101A8000D11CF60130813830D8F57C01FCEBEF0E2B
:101A9000F11CF7018081853198F525E1281B90E044
:101AA0002417150620F4C5E1D0E0C81BD90BF5E1D9
:101AB0003F9F800D911D1124AE0198012C5E3F4F78
:101AC000820F931F0E94DC1CBC2EF80183858111BC
:101AD00008C02C2FF6014081F7016081C8010E94E7
:101AE000690CF70180818B0D8083CE01DF91CF914E
:101AF0001F910F91FF90EF90DF90CF90BF900895CE
:101B0000D0E0C0E0F2CF1F920F920FB60F921124D7
:101B10002F933F938F939F93AF93BF938091CE0268
:101B20009091CF02A091D002B091D1023091CD021C
:101B300023E0230F2D3758F50196A11DB11D2093E9
:101B4000CD028093CE029093CF02A093D002B093A7
:101B5000D1028091D2029091D302A091D402B0918F
:101B6000D5020196A11DB11D8093D2029093D3029C
:101B7000A093D402B093D502BF91AF919F918F9162
:101B80003F912F910F900FBE0F901F90189526E850
:101B9000230F0296A11DB11DD2CF1F920F920FB637
:101BA0000F9211242F933F934F935F936F937F93E3
:101BB0008F939F93AF93BF93EF93FF93E0911F0198
:101BC000F09120010995FF91EF91BF91AF919F9105
:101BD0008F917F916F915F914F913F912F910F90D6
:101BE0000FBE0F901F9018951F920F920FB60F9275
:101BF00011242F933F934F935F936F937F938F9312
:101C00009F93AF93BF93EF93FF93E0911D01F091EA
:101C10001E010995FF91EF91BF91AF919F918F9117
:101C20007F916F915F914F913F912F910F900FBED8
:101C30000F901F9018951F920F920FB60F921124BC
:101C40002F933F934F935F936F937F938F939F93C4
:101C5000AF93BF93EF93FF93E0911B01F0911C01B1
:101C60000995FF91EF91BF91AF919F918F917F91D6
:101C70006F915F914F913F912F910F900FBE0F90F9
:101C80001F9018951F920F920FB60F9211242F9349
:101C90003F934F935F936F937F938F939F93AF93F4
:101CA000BF93EF93FF93E0911901F0911A01099509
:101CB000FF91EF91BF91AF919F918F917F916F9124
:101CC0005F914F913F912F910F900FBE0F901F90FA
:101CD00018951F920F920FB60F9211242F933F93D6
:101CE0004F935F936F937F938F939F93AF93BF9324
:101CF000EF93FF93E0911701F09118010995FF917F
:101D0000EF91BF91AF919F918F917F916F915F9173
:101D10004F913F912F910F900FBE0F901F901895EC
:101D20001F920F920FB60F9211248F939F93809161
:101D3000E1009091E100937F9093E10083FF0FC059
:101D40001092E90091E09093EB001092EC0092E386
:101D50009093ED001092E30298E09093F00082FFE0
:101D600022C093E09093E9009091F200992319F03A
:101D70009AE39093E8009091A102992341F0909109
:101D8000A10291509093A102911101C05D9A90918E
:101D9000E202992341F09091E20291509093E20285
:101DA000911101C0289A84FF18C08091E2008E7EB4
:101DB00081608093E2008091E1008F7E8093E1005A
:101DC0008091A2028E7E80618093A2029F918F916A
:101DD0000F900FBE0F901F90189580FFF7CF809146
:101DE000E2008E7E80618093E2008091E1008E7E31
:101DF0008093E1008091A2028E7E8160E5CF1F92E8
:101E00000F920FB60F921124CF92DF92EF92FF92B2
:101E10000F931F932F933F934F935F936F937F93F2
:101E20008F939F93AF93BF93EF93FF93CF93DF93E2
:101E3000CDB7DEB76C97DEBFCDBF1092E9008091C1
:101E4000E80083FF25C068E0CE0145960E94F003BC
:101E500082EF8093E8008D8987FF39C09091E80078
:101E600090FFFCCF982F907609F034C19E894F895E
:101E7000588D2F89F88C911131C0803861F580918F
:101E8000A3028093F1001092F1008EEF8093E8009E
:101E90006C960FB6F894DEBF0FBECDBFDF91CF9129
:101EA000FF91EF91BF91AF919F918F917F916F9132
:101EB0005F914F913F912F911F910F91FF90EF9064
:101EC000DF90CF900F900FBE0F901F9018959EEF50
:101ED0009093E800C7CF1092F100D5CF913059F41C
:101EE0008111D3CF4130510581F68091A3028D7FBE
:101EF0008093A302CACF933049F48111C6CF4130F9
:101F0000510519F68091A3028260F2CF953041F419
:101F10008091E80080FFFCCF20682093E300B5CFDC
:101F2000963009F0A9C00B8D1C8D22E01092E900BB
:101F300010929F0210929E02F2122EC010929D02E9
:101F400010929C020E94BF031F8299E09983FA823B
:101F500091E09E8390EA98879AEF998720919E025C
:101F600030919F02275F3F4F3C832B838D831092DC
:101F7000E90010929F0210929E0210939D0200931E
:101F80009C0249E050E0BE016F5F7F4F80E00E94FD
:101F900099030E94BF0379CF10939D0200939C0286
:101FA0000E946902DC0112960D911C910115110528
:101FB00009F451C1D801ED91FC910480F581E02D27
:101FC000BE016B5E7F4FC8010995009709F03EC1C5
:101FD000F80100851185EACFF3E0FF120EC08F896A
:101FE000882309F440C0823061F440E862E183E272
:101FF00093E00E949214811148CF81E28093EB001C
:1020000047CF813029F440E862E180E193E0F1CFED
:10201000833099F70E946902DC011296ED90FC90E2
:102020008E010F5F1F4F6801E114F10479F0D701B1
:10203000ED91FC910680F781E02DB801C70109956B
:10204000080F111DF701E084F184EECFD8011C9236
:10205000F60101900020E9F73197BF016C197D0965
:1020600040E0C601C6CF6AEF72E0FB01449150E048
:1020700080E80E94990309CF973009F4BECF9830C9
:1020800021F481E08093F10000CF993009F0FDCE7A
:10209000837009F0B2CFE0E4F1E081E031E096E353
:1020A0002191222371F08093E9003093EB00DF014E
:1020B00011972C912093EC009093ED008F5F873067
:1020C00079F78EE78093EA001092EA008F89809377
:1020D000E302DBCE8B8D9C8D1092E90010929F0263
:1020E00010929E0290939D0280939C02898D811193
:1020F00092C08E899D89913A49F4813209F07DCF51
:1021000047E050E06FE071E080E0B3CF913209F03A
:1021100074CF833269F48F89988DB0E0A0E080930A
:102120000B0190930C01A0930D01B0930E01ADCE65
:10213000803269F48091E80082FFFCCF67E08FE095
:1021400091E00E94F0038BEF8093E8009ECE8232F4
:1021500009F09BCE8F8980931601EEEFFFE7859102
:1021600094918B3F9C4D51F1E0E0F8E080910F019C
:1021700090911001A0911101B0911201803B944007
:10218000A105B105F1F48091160180FD1AC0EE3F62
:102190008AE0F80789F587E797E791838083809144
:1021A00060008093A00288E19BE00FB6F894A895A8
:1021B000809360000FBE9093600067CEEEEFFAE070
:1021C000D5CF808191818737974709F05ECEA8955A
:1021D000809160008861809360008091A00280936C
:1021E0006000EE3F2AE0F20789F08091FE0A9091AC
:1021F000FF0A9183808349CE808191818737980738
:1022000051F29093FF0A8093FE0AC5CF1092FF0A05
:102210001092FE0A3ACE0E946902DC0112960D91DC
:102220001C910115110509F4E8CED801ED91FC913E
:102230000190F081E02DBE016B5E7F4FC8010995D2
:10224000811123CEF80100851185EBCF18161906F0
:102250000CF41BCED2CEF1E0FF12BECE6EEF72E0D8
:1022600004CF1F920F920FB60F9211244F925F92DC
:102270006F927F928F929F92AF92BF92CF92DF9296
:10228000EF92FF920F931F932F933F934F935F9380
:102290006F937F938F939F93AF93BF93CF93DF936E
:1022A000EF93FF93C0919702D0919802CE010197CE
:1022B00090939802809397022097A1F51092720054
:1022C00078948091C100807F84608093C10083E016
:1022D0008093BF0088EE8093D1001092BF001092CF
:1022E000D20081E080930A0180919A0290919B0232
:1022F000892BC1F080919502811114C07090090161
:1023000080919402882379F180919302882359F176
:102310006091930270E040E088EE93E00E944805EF
:1023200010929302FF91EF91DF91CF91BF91AF9106
:102330009F918F917F916F915F914F913F912F91DD
:102340001F910F91FF90EF90DF90CF90BF90AF90D3
:102350009F908F907F906F905F904F900F900FBEE7
:102360000F901F9018955524539470ECA72E7DE57F
:10237000B72EEAE04E2EF4E06F2EA0EDCA2EA7E0B5
:10238000DA2EB4E0EB2EF12C04EF11E08FE0882E72
:10239000912C0E94FF0420919A0230919B022F5FA2
:1023A0003F4F30939B0220939A02853609F473C005
:1023B0000CF047C0813609F4B4C024F58C3309F41D
:1023C00068C08E3309F463C0813209F043C0609263
:1023D0000901D0920601C0920501F0920801E09235
:1023E000070110930401009303019092020180926F
:1023F0000101109294027090090180910301909163
:102400000401C7CF833609F48FC010E00BE0843697
:1024100014F010E002E04CE0749E000D11240E94C4
:10242000FF04982F977F933209F080C080919A0221
:1024300090919B02019690939B0280939A020F5F6A
:10244000EECF8D3609F445C054F4873651F134F19E
:102450008C3651F110929B0210929A0263CF823710
:1024600009F44CC044F48F36A9F70E942005782E59
:10247000809309018ECF843709F443C0863751F722
:102480000E942005909302018093010182CF7394F2
:1024900080CF7A947ECF10E004E0BDCF10E005E05D
:1024A000BACF10E007E0B7CF0E9420059093080153
:1024B00080930701809105019091060160910701C9
:1024C000709108010E943D1B709304016093030109
:1024D00060CF0E94FF048C3661F4109294028091C8
:1024E0009A0290919B02019690939B0280939A028C
:1024F00050CF5092940210929302F1CF11E000E07D
:102500008ACF0E942005BC01C5010E943D1B469E4A
:10251000C001479E900D1124909306018093050100
:10252000C9CF10E009E077CF10E0E9CF8D3269F430
:1025300080919A0290919B02019690939B028093C6
:102540009A0201500E94FF04F1CFE0900301F09045
:1025500004018153883058F4E0900501F0900601A1
:102560000E942005BC01C7010E943D1B7B01670141
:10257000D694C7940E94FF048E3261F480919A022F
:1025800090919B02019690939B0280939A02EC0C8F
:10259000FD1CEECF80919402882349F0C7019695E7
:1025A00087958093930280919302E81AF108C09076
:1025B0000101D0900201111104C00F3F11F0C110B0
:1025C00007C040E0B70188EE93E00E944805AACE1C
:1025D000013128F010EF100F103608F01FE5812FA1
:1025E0006CE00E94311B582F44EF450390011124E9
:1025F000210F311D2C30310538F4220F331FF90122
:10260000E95DFE4FC081D1818730C1F0082E02C044
:10261000CC0FDD1F0A94E2F7823040F0CE01059620
:102620006AE070E00E943D1BCB0102C0CE019058D1
:102630004C2D403108F04FE0B701C7CFCE0126E066
:10264000880F991F2A95E1F7029665E070E0EACFBE
:102650001F920F920FB60F9211242F933F934F9317
:102660006F937F938F939F938CB1282F30E0359594
:10267000279535952795422F417083B190E064E00E
:10268000959587956A95E1F782278170209192024E
:10269000909191026091B1027091B2022827942723
:1026A000291B330B260F371F3093B2022093B10240
:1026B0002091910290919202281729F0941719F015
:1026C00091E09093900280939102409392029F91A7
:1026D0008F917F916F914F913F912F910F900FBEEE
:1026E0000F901F9018951F920F920FB60F92112402
:1026F0002F933F934F935F936F937F938F939F930A
:10270000AF93BF93EF93FF938091B900887F80369A
:1027100009F44AC0F0F5883209F4A7C018F58031F1
:1027200009F49BC0B8F4882309F4F9C0883009F48F
:1027300094C0FF91EF91BF91AF919F918F917F9145
:102740006F915F914F913F912F910F900FBE0F901E
:102750001F901895883109F488C0803251F7809312
:10276000660214C0803409F49DC040F48033B9F38C
:102770008833F9F68093660285ECB0C0803509F4A1
:1027800085C0883509F496C0883499F60E94120CE9
:10279000D0CF883909F48CC038F5883729F050F447
:1027A000883611F0803729F683E080936702109213
:1027B000650257C0883809F47BC0803919F0803829
:1027C00009F0B7CF80916502803208F071C0E091C6
:1027D000650281E08E0F809365028091BB00F0E07E
:1027E000EB5BFD4F80833DC0803B39F0E0F4803AE5
:1027F00009F479C0883A09F09CCF84E0809367029D
:102800001092440210924302E091A602F091A702B6
:1028100009958091430281110FC081E080934302AA
:102820001092230209C0803C09F4A6CF883C09F429
:10283000A3CF883B09F07DCFE091440281E08E0F69
:1028400080934402F0E0ED5DFD4F80818093BB00FA
:10285000909144028091430229C080918C02809320
:10286000BB0085EC8093BC0064CF90918B0280917B
:102870008A02981758F5E0918B0281E08E0F8093C1
:102880008B02F0E0E659FD4F8081E9CFE0918B02A9
:1028900081E08E0F80938B028091BB00F0E0E659BF
:1028A000FD4F808390918B0280918A029817C8F225
:1028B00085E8D8CFE0918B0281E08E0F80938B0268
:1028C0008091BB00F0E0E659FD4F80838091690262
:1028D00081115CCF81E08093680284EA8093BC0020
:1028E0001092670226CF85EC8093BC00109267029D
:1028F00080916502803230F4E0916502F0E0EB5B9C
:10290000FD4F10826091650270E0E091A402F091A9
:10291000A50285E492E00995109265020ACF109213
:10292000660234CFEF92FF920F931F93CF93DF9302
:10293000F82E192FE62E042F81E0860F880F0E94B3
:102940006B0383E00E946B03CF2DD12FEC0EFD2E85
:10295000F11CCE15DF05B9F007FF13C0FE0184910D
:102960000E946B03182F80E00E946B038123219645
:102970008111EFCFDF91CF911F910F91FF90EF90D9
:1029800008958881EDCF81E0F5CFCF93DF93E4EE1A
:10299000F2E01382128288EE93E0A0E0B0E084833C
:1029A0009583A683B7832AE431E0318320832FEF18
:1029B0003FEF35872487E4E3F3E0138212828483B8
:1029C0009583A683B7838CE591E091838083EAE3C6
:1029D000F4E01282158286E891E091838083E8E238
:1029E000F4E01382128215821482178216821186F5
:1029F0001086138612868AE791E091838083C0E473
:102A0000D3E01B821A8248EA50E060E270E084E57D
:102A100093E00E94E51C109227041092260483E4A0
:102A20009AE09D878C871F861E8688E09BE0998BA5
:102A3000888B1B8A1A8A81E08A878EE691E09983C7
:102A40008883DF91CF910895789484B5826084BDA6
:102A500084B5816084BD85B5826085BD85B58160A2
:102A600085BD80916E00816080936E001092810020
:102A700080918100826080938100809181008160DB
:102A8000809381008091800081608093800080919C
:102A90009100826080939100809191008160809389
:102AA0009100809190008160809390008091C1009E
:102AB00084608093C1008091C10082608093C100D6
:102AC0008091C10081608093C1008091C3008160CA
:102AD0008093C3008091C00082608093C000809189
:102AE000C20081608093C20080917A0084608093EC
:102AF0007A0080917A00826080937A0080917A00D7
:102B0000816080937A0080917A00806880937A0057
:102B10001092E3021092A3021092A2028091D700B9
:102B200081608093D70080EA8093D80089B5806166
:102B300089BD89B5826089BD09B400FEFDCF0E94C0
:102B40001C038091D8008F7C80618093D800809195
:102B5000E000807F8093E0008091E1008E7E809392
:102B6000E1008DE08093E200559A209A1092AB022A
:102B70001092AA021092A9021092A8020E94CA07FB
:102B800084E393E09093A7028093A60280E493E00D
:102B90009093A5028093A40282E08093BA008FEF05
:102BA0009FEF9093F1028093F0028AEB99E090936B
:102BB000AD028093AC028FED99E09093AF028093C9
:102BC000AE0210922704109226048DE79AE09093AB
:102BD0004D0380934C0310924F0310924E0385E6F1
:102BE0009BE09093510380935003109253031092F3
:102BF000520381E080934A0360E590E080E00E9408
:102C0000300D60E081E090E00E94300D60E082E0F5
:102C100090E00E94300D90E080E00E94C818809300
:102C2000B60281E090E00E94C818682F70E090E042
:102C300080E00E94F8196093B8027093B902809303
:102C4000BA029093BB0282E090E00E94C818809381
:102C5000B70204E610E0D4E090E0292E90E0392E8F
:102C6000C1E08091C502811115C02FB7F894809101
:102C7000CE029091CF02A091D002B091D1022FBF8D
:102C80008093C1029093C202A093C302B093C40286
:102C9000C093C5028091B002811104C0C093B002FC
:102CA0000E94210610938B0000938A002A98229A92
:102CB0008091B002811104C0C093B0020E9421062D
:102CC00010938900009388002998219A2FB7F894CF
:102CD0008091CE029091CF02A091D002B091D1020A
:102CE0002FBF4091C1025091C2026091C302709106
:102CF000C402841B950BA60BB70B88389341A10522
:102D0000B10570F168E871E084EE92E00E94B70BC3
:102D10004091BD025091BE026091BF027091C0020D
:102D20002AE084EE92E00E94C60B63E971E084EE33
:102D300092E00E94B70BC093BC022FB7F894809129
:102D4000CE029091CF02A091D002B091D1022FBFBC
:102D50008093C1029093C202A093C302B093C402B5
:102D6000C090B802D090B902E090BA02F090BB02D5
:102D700020E030E04FE753E4C701B6010E94AA1AF1
:102D800087FD15C08091B7028F5F8093B70220E066
:102D900030E04FE753E4C701B6010E94DE186093AC
:102DA000B8027093B9028093BA029093BB028091EB
:102DB000B302811104C0C093B3020E946706F89465
:102DC000C090B102D090B2021092B2021092B10241
:102DD00078948091B302811104C0C093B3020E9421
:102DE0006706F894E090B402F090B5021092B50234
:102DF0001092B40278948090B8029090B902A0909A
:102E0000BA02B090BB02B601D7FE03C071956195BE
:102E10007109072E000C880B990B0E94FA1926E500
:102E20003EE049E450E40E94AF1A27E73EEB4FE151
:102E30005DE30E94AF1A20E030E843E654E40E94CC
:102E400050192B013C01B701F7FE03C07195619544
:102E50007109072E000C880B990B0E94FA1926E5C0
:102E60003EE049E450E40E94AF1A27E73EEB4FE111
:102E70005DE30E94AF1A20E030E843E654E40E948C
:102E800050199B01AC01C301B2010E94DF1820E080
:102E900030E040E251E40E94AF1A20E030E040E030
:102EA0005FE30E94AF1AA50194010E94DF186B0135
:102EB0007C012B013C01C501B4010E94C91981E0CC
:102EC00090E00E94300D6091B70282E090E00E9495
:102ED000300DC092B802D092B902E092BA02F092DC
:102EE000BB026091B7028FEF689FB0011124072EDB
:102EF000000C880B990B0E94FA19A70196010E94F9
:102F0000DF180E94C9196093BD027093BE028093BE
:102F1000BF029093C002A7019601C701B6010E94AB
:102F20001C1B66E971E081111BC046015701E89442
:102F3000B7F82FEF3FEF4FE75FE7C501B4010E94FD
:102F40001C1B811176C02FEF3FEF4FE75FE7C501F4
:102F5000B4010E944B1918160CF06BC06AE971E0BD
:102F600084EE92E00E94B70B63E971E084EE92E098
:102F70000E94B70B6091BD027091BE028091BF02AA
:102F80009091C00225E030E040E050E00E94511BEB
:102F900080E5F82EF21A6F2D90E080E00E94300D4F
:102FA000F092B6021092FC031092FD0362EA71E007
:102FB00080E493E00E94B70B1092FC03C093FD03E2
:102FC0004091B60250E070E060E02AE080E493E0D7
:102FD0000E94C60B1092FC0323E02093FD036BEAD2
:102FE00071E080E493E00E94B70B63E971E080E454
:102FF00093E00E94B70B1092FC03D093FD03409125
:10300000BD025091BE026091BF027091C0022AE0E1
:1030100080E493E00E94C60B6CEB71E080E493E0E7
:103020000E94B70B2114310409F41BCE0E9400004A
:1030300018CE2FEF3FEF4FE75FE4C701B6010E94C4
:10304000AA1A18161CF46EE971E08ACF2FEF3FEF31
:103050004FE75FECC701B6010E944B1987FDF3CF24
:1030600020E030E0A901C701B6010E944B1987FF9B
:103070000BC06DE284EE92E00E947E0426013701CF
:1030800077FA709477F870942AE037ED43EA5BE3BF
:10309000C301B2010E94DF184B015C010E94C919F3
:1030A0006B017C010E94F8199B01AC01C501B401C0
:1030B0000E94DE184B015C012AE0B701A60184EEF4
:1030C00092E00E94C60B6EE284EE92E00E947E04C3
:1030D00020E030E040E251E4C501B4010E94AF1AA3
:1030E0004B015C010E94C9196B01F12CE12C2AE013
:1030F000B701A60184EE92E00E94C60BC701B6019B
:103100000E94F8199B01AC01C501B4010E94DE18B0
:1031100020E030E040E251E40E94AF1A0E94C91959
:10312000AB0170E060E02AE084EE92E00E94C60B02
:103130001BCF80E891E0909329048093280480912C
:10314000320490913304009711F00E944E1C80913C
:103150002C0490912D04009711F00E944E1C809138
:10316000300490913104009711F00E944E1C809120
:103170002A0490912B04009711F00E944E1C80911C
:103180002E0490912F04009711F00C944E1C08957A
:10319000F999FECF92BD81BDF89A992780B508951F
:1031A000262FF999FECF1FBA92BD81BD20BD0FB663
:1031B000F894FA9AF99A0FBE019608955058BB27D1
:1031C000AA270E94F6180C94701A0E94621A38F00E
:1031D0000E94691A20F039F49F3F19F426F40C94E8
:1031E0005F1A0EF4E095E7FB0C94591AE92F0E9440
:1031F000811A58F3BA17620773078407950720F0FE
:1032000079F4A6F50C94A31A0EF4E0950B2EBA2FC0
:10321000A02D0B01B90190010C01CA01A0011124DC
:10322000FF27591B99F0593F50F4503E68F11A1688
:10323000F040A22F232F342F4427585FF3CF469519
:1032400037952795A795F0405395C9F77EF41F163B
:10325000BA0B620B730B840BBAF09150A1F0FF0F05
:10326000BB1F661F771F881FC2F70EC0BA0F621FF1
:10327000731F841F48F4879577956795B795F795E1
:103280009E3F08F0B0CF9395880F08F09927EE0F76
:103290009795879508950E94351A08F481E008955E
:1032A0000E9464190C94701A0E94691A58F00E94C6
:1032B000621A40F029F45F3F29F00C94591A511119
:1032C0000C94A41A0C945F1A0E94811A68F3992333
:1032D000B1F3552391F3951B550BBB27AA27621712
:1032E0007307840738F09F5F5F4F220F331F441F1F
:1032F000AA1FA9F335D00E2E3AF0E0E832D0915053
:103300005040E695001CCAF72BD0FE2F29D0660F3F
:10331000771F881FBB1F261737074807AB07B0E882
:1033200009F0BB0B802DBF01FF2793585F4F3AF088
:103330009E3F510578F00C94591A0C94A41A5F3FE3
:10334000E4F3983ED4F3869577956795B795F7950E
:103350009F5FC9F7880F911D9695879597F90895F6
:10336000E1E0660F771F881FBB1F62177307840792
:10337000BA0720F0621B730B840BBA0BEE1F88F7A1
:10338000E09508950E94C9196894B1110C94A41A8B
:1033900008950E94891A88F09F5798F0B92F9927AD
:1033A000B751B0F0E1F0660F771F881F991F1AF030
:1033B000BA95C9F714C0B13091F00E94A31AB1E0D8
:1033C00008950C94A31A672F782F8827B85F39F0D7
:1033D000B93FCCF3869577956795B395D9F73EF4C9
:1033E00090958095709561957F4F8F4F9F4F089571
:1033F000E89409C097FB3EF490958095709561958F
:103400007F4F8F4F9F4F9923A9F0F92F96E9BB2744
:103410009395F695879577956795B795F111F8CFC0
:10342000FAF4BB0F11F460FF1BC06F5F7F4F8F4F2B
:103430009F4F16C0882311F096E911C0772321F021
:103440009EE8872F762F05C0662371F096E8862FB9
:1034500070E060E02AF09A95660F771F881FDAF710
:10346000880F9695879597F90895990F0008550F3D
:10347000AA0BE0E8FEEF16161706E807F907C0F0FA
:1034800012161306E407F50798F0621B730B840B02
:10349000950B39F40A2661F0232B242B252B21F4DC
:1034A00008950A2609F4A140A6958FEF811D811D7C
:1034B000089597F99F6780E870E060E008959FEFB6
:1034C00080EC089500240A941616170618060906BB
:1034D000089500240A94121613061406050608958A
:1034E000092E0394000C11F4882352F0BB0F40F412
:1034F000BF2B11F460FF04C06F5F7F4F8F4F9F4F52
:10350000089557FD9058440F551F59F05F3F71F0D3
:103510004795880F97FB991F61F09F3F79F087953A
:103520000895121613061406551FF2CF4695F1DFC3
:1035300008C0161617061806991FF1CF8695710553
:10354000610508940895E894BB2766277727CB0187
:1035500097F908950E94351A08F48FEF08950E9494
:10356000C21A0C94701A0E94621A38F00E94691AEA
:1035700020F0952311F00C94591A0C945F1A112421
:103580000C94A41A0E94811A70F3959FC1F3950FB1
:1035900050E0551F629FF001729FBB27F00DB11DD7
:1035A000639FAA27F00DB11DAA1F649F6627B00D67
:1035B000A11D661F829F2227B00DA11D621F739F50
:1035C000B00DA11D621F839FA00D611D221F749F5E
:1035D0003327A00D611D231F849F600D211D822FA5
:1035E000762F6A2F11249F5750409AF0F1F08823CC
:1035F0004AF0EE0FFF1FBB1F661F771F881F9150F9
:103600005040A9F79E3F510580F00C94591A0C9434
:10361000A41A5F3FE4F3983ED4F3869577956795B7
:10362000B795F795E7959F5FC1F7FE2B880F911D22
:103630009695879597F908950E94351A880B990BEE
:103640000895DB018F939F930E94A71BBF91AF91B9
:10365000A29F800D911DA39F900DB29F900D1124EC
:103660000895991B79E004C0991F961708F0961BDE
:10367000881F7A95C9F780950895AA1BBB1B51E155
:1036800007C0AA1FBB1FA617B70710F0A61BB70BD2
:10369000881F991F5A95A9F780959095BC01CD0177
:1036A0000895A1E21A2EAA1BBB1BFD010DC0AA1F83
:1036B000BB1FEE1FFF1FA217B307E407F50720F09B
:1036C000A21BB30BE40BF50B661F771F881F991F16
:1036D0001A9469F760957095809590959B01AC015F
:1036E000BD01CF010895052E97FB1EF400940E94A2
:1036F0008A1B57FD07D00E94511B07FC03D04EF4D4
:103700000C948A1B50954095309521953F4F4F4F13
:103710005F4F089590958095709561957F4F8F4F7D
:103720009F4F0895EE0FFF1F0590F491E02D09942F
:10373000A29FB001B39FC001A39F700D811D1124F2
:10374000911DB29F700D811D1124911D08950E943D
:10375000981BA59F900DB49F900DA49F800D911D67
:10376000112408950F931F93CF93DF938230910517
:1037700010F482E090E0E0914404F091450430E0E0
:1037800020E0B0E0A0E0309799F42115310509F46C
:103790004AC0281B390B24303105D8F58A819B811A
:1037A0006115710589F1FB0193838283FE0111C0CC
:1037B000408151810281138148175907E0F0481771
:1037C000590799F4109761F012960C93129713967B
:1037D0001C933296CF01DF91CF911F910F910895E5
:1037E0000093440410934504F4CF2115310551F0A2
:1037F0004217530738F0A901DB019A01BD01DF012F
:10380000F801C1CFEF01F9CF9093450480934404B0
:10381000CDCFFE01E20FF31F819391932250310926
:1038200039832883D7CF2091420430914304232B3E
:1038300041F42091230130912401309343042093DB
:10384000420420912101309122012115310541F4DA
:103850002DB73EB74091250150912601241B350B11
:10386000E0914204F0914304E217F307A0F42E1B09
:103870003F0B2817390778F0AC014E5F5F4F2417D4
:10388000350748F04E0F5F1F5093430440934204A6
:10389000819391939FCFF0E0E0E09CCFCF93DF93B3
:1038A0000097E9F0FC01329713821282A091440440
:1038B000B0914504ED0130E020E01097A1F42081A3
:1038C0003181820F931F20914204309143042817C5
:1038D000390709F061C0F0934304E0934204DF919B
:1038E000CF910895EA01CE17DF07E8F54A815B81A1
:1038F0009E0141155105B1F7E901FB83EA83499126
:103900005991C40FD51FEC17FD0761F48081918197
:103910000296840F951FE9019983888382819381A0
:103920009B838A83F0E0E0E012968D919C9113973F
:103930000097B9F52D913C911197CD010296820F18
:10394000931F20914204309143042817390739F618
:10395000309751F51092450410924404B0934304FB
:10396000A0934204BCCFD383C28340815181840F92
:10397000951FC817D90761F44E5F5F4F8881998101
:10398000480F591F518340838A819B81938382838F
:103990002115310509F0B0CFF0934504E0934404BC
:1039A0009ECFFD01DC01C0CF13821282D7CF81E010
:1039B00090E0F8940C94EC1CFB01DC0102C0019037
:1039C0000D9241505040D8F70895DC0101C06D932D
:1039D00041505040E0F7089511E0C2EDD1E004C03D
:1039E000FE010E94921B2196C33DD107C9F7F894AE
:0239F000FFCF07
:1039F200010F00F401D00704000401FFFFFFFF00E4
:103A0200E10000000000006A036A036A036A036AB5
:103A1200030000460480009C01B501CF01EA0107C2
:103A2200022602470269028E02B502DE020A030082
:103A3200C18081000000000000007E04FD039F049D
:103A42009404E504A304C104000000001D08120848
:103A5200B20BE8070B08F807E90700000000C80CE2
:103A6200320DB20BB10B00000000AB0600000000EB
:103A7200B50B00000000F40C44697374616E736549
:103A82002020000D0A006E616E00696E66006F767E
:103A92006600506F7765723A202000446973746142
:103AA2006E63652064726F76653B20006B6D20004B
:00000001FF
