:100000000C94D7010C947A100C9453100C942C106F
:100010000C9405100C94FF010C94FF010C94DE0F5E
:100020000C94FF010C9439150C94A1100C94101130
:100030000C94FF010C94FF010C94FF010C94FF0140
:100040000C94FF010C94FF010C94FF010C94FF0130
:100050000C94FF010C94FF010C94FF010C94940F7D
:100060000C94FF010C94FF010C94FF010C94FF0110
:100070000C94FF010C94FF010C94FF010C94FF0100
:100080000C94FF010C94FF010C94FF010C94FF01F0
:100090000C9484150C94FF010C94FF010C94FF0147
:1000A0000C94FF010C9442130C94FF01000000001B
:1000B0000000004F00000007000700147F147F14A9
:1000C000242A7F2A122313086462364955225000DD
:1000D00000070000001C2241000041221C001408FF
:1000E0003E081408083E08080050300000080808C0
:1000F0000808006060000020100804023E514945D5
:100100003E00427F400042615149462141454B310A
:100110001814127F1027454545393C4A4949300398
:10012000017109073649494936064949291E0036F1
:100130003600000056360000081422410014141442
:100140001414004122140802015109063249794170
:100150003E7E1111117E7F494949363E414141227F
:100160007F4141413E7F494949417F090909013E9B
:100170004149497A7F0808087F00417F41002040BB
:10018000413F017F081422417F404040407F020CE4
:10019000027F7F0408107F3E4141413E7F090909EB
:1001A000063E4151215E7F09192946464949493198
:1001B00001017F01013F4040403F1F2040201F3F81
:1001C0004038403F63140814630708700807615102
:1001D000494543007F41410002040810200041418D
:1001E0007F0004020102044040404040000102043C
:1001F0000020545454787F484444383844444420C0
:10020000384444487F3854545418087E0901020C7D
:100210005252523E7F0804047800447D4000204042
:10022000443D007F1028440000417F40007C0418BA
:1002300004787C0804047838444444387C1414144A
:1002400008081414187C7C080404084854545420EA
:10025000043F4440203C4040207C1C2040201C3C6B
:100260004038403C44281028440C5050503C4464D2
:10027000544C44000836410000007F000000413625
:1002800008000C02040806081C2A080800030C0FCA
:1002900030333C3FC0C3CCCFF0F3FCFF0000000084
:1002A0002300260029002C002F00080B0002020268
:1002B00000000904000001020200000524001001F2
:1002C0000524010101042402060524060001070596
:1002D000810310004009040100020A000000070524
:1002E00002024000000705830240000004030904E5
:1002F00012010002EF020140FB1F00230001010276
:100300000301506F6C6F6C7520436F72706F726178
:1003100074696F6E00506F6C6F6C7520412D537453
:100320006172203332553400506F7765723A202065
:100330000000000000240027002A002D00300000EB
:10034000000000250028002B002E003100040404CA
:10035000040403040502020202040302020202066C
:10036000060606060604040202020404040802014A
:1003700010408040102040804080080204018040EE
:1003800020100201108010204040200000000200D8
:10039000090F0000030401000C0000000000000031
:1003A00000000000000000000000D616D91C112437
:1003B0001FBECFEFDAE0DEBFCDBF11E0A0E0B1E0BD
:1003C000E4EAF2E402C005900D92AE3CB107D9F721
:1003D00024E0AEECB1E001C01D92A137B207E1F715
:1003E00011E0C6EDD1E004C02197FE010E94DC1FA0
:1003F000C53DD107C9F70E9435170C9445210C94CF
:1004000000005B9887FD5D9A87FF5D985B9A5B981B
:1004100086FD5D9A86FF5D985B9A5B9885FD5D9A87
:1004200085FF5D985B9A5B9884FD5D9A84FF5D987B
:100430005B9A5B9883FD5D9A83FF5D985B9A5B98FE
:1004400082FD5D9A82FF5D985B9A5B9881FD5D9A63
:1004500081FF5D985B9A5B9880FD5D9A80FF5D9857
:100460005B9A0895FC0180910E03882311F13FB738
:10047000F89482E08093E9002091F200822F90E0CE
:100480001816190614F481E090E0882339F02898B2
:1004900044E640930D034091F1004083222339F05C
:1004A0002091F200211103C02BE62093E8003FBF0A
:1004B00008958FEF9FEF08952FB7F89483E080930E
:1004C000E9009091E800892F807295FF04C0909117
:1004D000F20080E4891B2FBF0895809105038111EC
:1004E0000DC082E08093010384E0809302031092A8
:1004F00004031092030381E08093050381E093E0FD
:10050000089581508F3008F047C0E82FF0E0E5579C
:10051000FD4F0C94DC1FA802AC029A02A002A402B8
:10052000CC02CC02CC02AF02B502B902BD02C302BA
:10053000CC02C702809180008F778093800008955D
:10054000809180008F7DF9CF80918000877FF5CFEB
:1005500084B58F7784BD089584B58F7DFBCF80915E
:1005600090008F77809390000895809190008F7D08
:10057000F9CF80919000877FF5CF8091C0008F7771
:100580008093C00008958091C0008F7DF9CF809145
:10059000C200877F8093C20008951F93CF93DF939B
:1005A000282F30E0F901E557FC4F8491F901E45917
:1005B000FC4FD491F901E35BFC4FC491CC23A9F02B
:1005C000162F81110E948102EC2FF0E0EE0FFF1F29
:1005D000E15CFC4FA591B4918FB7F894EC911111A7
:1005E00008C0D095DE23DC938FBFDF91CF911F91A0
:1005F0000895DE2BF8CFCF93DF9390E0FC01E45910
:10060000FC4F2491835B9C4FFC0184918823C9F0AB
:1006100090E0880F991FFC01EF5CFC4FA591B4910D
:10062000FC01E15CFC4FC591D49161110DC09FB7F5
:10063000F8948C91209582238C9388812823288399
:100640009FBFDF91CF910895623051F49FB7F89426
:100650003C91822F809583238C93E8812E2BEFCFC2
:100660008FB7F894EC912E2B2C938FBFEACF80910B
:1006700060048F3F61F061E00E94FB0260E08091C6
:1006800060040E94CD028BE193E00197F1F7089599
:10069000809160048F3F61F061E00E94FB0261E0A5
:1006A000809160040E94CD028BE193E00197F1F705
:1006B00008953FB7F8948091FD029091FE02A091B9
:1006C000FF02B091000326B5A89B05C02F3F19F08B
:1006D0000196A11DB11D3FBFBA2FA92F982F8827C2
:1006E000BC01CD01620F711D811D911D42E0660F9D
:1006F000771F881F991F4A95D1F708958F929F926F
:10070000AF92BF92CF92DF92EF92FF924B015C01CA
:100710000E9459036B017C010E9459036C197D09E9
:100720008E099F09683E734081059105A8F321E079
:10073000821A9108A108B10888EEC80E83E0D81E7D
:10074000E11CF11C81149104A104B10429F7FF906C
:10075000EF90DF90CF90BF90AF909F908F900895D3
:100760002FB7F8946091F9027091FA028091FB0220
:100770009091FC022FBF0895E0918E02F0918F02BC
:10078000309729F010928B0210928A0209940895F2
:10079000CF93DF93AC01E0919002F09191023097FA
:1007A000F1F090918D0280918C029817C0F090E04A
:1007B000292F30E02617370754F4D901A252BE4F33
:1007C000240F351FE90128812C939F5FF1CF1092F0
:1007D0008D0260938C02CB01DF91CF910994DF9160
:1007E000CF91089508954091800250918102209107
:1007F0007E0230917F0242175307B4F49091E800D3
:100800009570E1F39091E80092FD19C08093F1009A
:10081000809180029091810201968F739927892B94
:1008200019F48EEF8093E80080918002909181020C
:100830000196909381028093800281E0089580E088
:100840000895DF92EF92FF920F931F93CF93DF9360
:10085000D82E8A01EB017B01E40EF51ECE15DF05D3
:1008600059F0D7FE12C0FE0184910E94F303219635
:100870008111F4CF0FEF1FEFC801DF91CF911F91CE
:100880000F91FF90EF90DF9008958881EECF0F9346
:100890001F93CF93DF931F92CDB7DEB782E089839A
:1008A00042E450E06AEA72E080E80E9421040E947B
:1008B0006D02DC0112960D911C910115110589F054
:1008C000D801ED91FC910280F381E02DBE016F5FB4
:1008D0007F4FC801099597FD04C0F8010085118577
:1008E000ECCF89810F90DF91CF911F910F910895E7
:1008F000615030F02091F100FC0120830196F8CF87
:10090000289884E680930D0308958F929F92AF926A
:10091000BF92CF92DF92EF92FF920F931F93CF93EC
:10092000DF936C017B018A0180911501882309F412
:100930005CC080910E03882309F457C08091840223
:1009400080FF05C08091E00082608093E000E801B4
:10095000B12C8AEFA82E93E0892E2AE3922E2097BD
:1009600011F4BB20D9F10E945C0281110AC0AA9443
:10097000AA20D9F161E070E080E090E00E947E035F
:10098000EECF8C171D0611F00CF08C2F9FB7F8944A
:100990008092E9002091E80025FD02C09FBFDFCFD3
:1009A000282F30E0C21BD30BF701815020F041917A
:1009B0004093F100FACFE20EF31EBB2021F090929B
:1009C000E800B12CEBCF8091E80085FDE7CF909255
:1009D000E800BB24B394209709F3F3CF5D9884E635
:1009E00080938302101611063CF081E090E0F6013E
:1009F0009383828310E000E0C801DF91CF911F91C3
:100A00000F91FF90EF90DF90CF90BF90AF909F90AD
:100A10008F900895CF93DF931F92CDB7DEB7698390
:100A2000DC01ED91FC910280F381E02D41E050E08A
:100A3000BE016F5F7F4F09950F90DF91CF910895B1
:100A400083E08093E9008091F200882319F08AE323
:100A50008093E80008950E945C0290E00895CF938F
:100A6000DF931F92CDB7DEB7FC018485958597FD96
:100A700008C02FEF3FEF358724870F90DF91CF918C
:100A80000895CE0101960E943202019719F48981DE
:100A900090E0F3CF8FEF9FEFF0CF0F931F93CF93A3
:100AA000DF931F92CDB7DEB78C01FC01848595855D
:100AB00097FF0BC0CE0101960E943202019771F49C
:100AC000898190E0F80195878487F8018485958570
:100AD0000F90DF91CF911F910F9108958FEF9FEFAE
:100AE000F1CFFC018485958597FD0BC09FB7F894E5
:100AF00082E08093E9008091F2009FBF90E0019630
:100B000008959FB7F89482E08093E9008091F20005
:100B10009FBF90E0089580917B02E0917C02F0916C
:100B20007D02882339F084919FEB980F9A3120F44D
:100B3000805E08958081F8CF803269F420917C0234
:100B400030917D02A9014F5F5F4F50937D0240932A
:100B50007C02232B01F708951F93CF93DF930E940C
:100B60008B05D0E0C0E01AE090ED980F9A30B8F411
:100B70001C9F90011D9F300D1124E901C80FD11D4C
:100B800087FDDA95E09780917C0290917D02019635
:100B900090937D0280937C020E948B05E5CFCE016D
:100BA000DF91CF911F9108953F924F925F926F9284
:100BB0007F928F929F92AF92BF92CF92DF92EF92ED
:100BC000FF920F931F93CF93DF937B01D42E20913D
:100BD000780221111BC021E020937802109272004C
:100BE0001092C00034E03093C10039E03093C2006D
:100BF0002093C30023E02093BF0028EE2093D10070
:100C00001092BF001092D200579A78941092090166
:100C1000CC24C39497FF03C09F77AAE0CA2EC8E2F2
:100C2000CC9EC02D1124D0E08C179D0750F021E000
:100C3000EC01C21206C0C13187E2D80710F0C0E152
:100C4000D7E24E01B12CA12C4C2C512C712C612CD3
:100C50009E01AFEFB7E00E94EA1F640D751D861D6F
:100C6000971D9695879577956795A30192010E94A8
:100C70009B1F60E072E18AE790E0312C33946217A9
:100C800073078407950728F096958795779567955C
:100C9000F5CFA30192010E94571F9E01369527951B
:100CA000620F731F811D911DA50194010E949B1F5E
:100CB000722E022F132F2AE0C21207C0CE01059612
:100CC0006AE070E00E94731FEB01C83E83E0D80722
:100CD00059F09701DE010E94EA1F28EE33E040E060
:100CE00050E00E94BD1F7901109272008091C100F6
:100CF000807F83298093C1001093BF007092D10040
:100D00004D2D403108F04FE080E190E0841B9109C7
:100D100002C0169507958A95E2F71093BF000093DD
:100D2000D200F0927A02E092790289B38FEF89BB08
:100D300084E080937200DF91CF911F910F91FF901B
:100D4000EF90DF90CF90BF90AF909F908F907F906B
:100D50006F905F904F903F9008952E98269A2D980F
:100D6000259A2A98229A2998219A80EA80938000CD
:100D700081E18093810080E991E0909387008093E6
:100D80008600109289001092880010928B001092B9
:100D90008A0008950F931F93CF93DF938C01EB018B
:100DA00080917402811105C081E0809374020E94D9
:100DB000AD0680E017FF04C011950195110981E08F
:100DC000013991E0190714F000E911E010938B004C
:100DD00000938A00882329F12A9A229A809174022A
:100DE000811105C081E0809374020E94AD0680E00D
:100DF000D7FF04C0D195C195D10981E0C13991E0F7
:100E0000D90714F0C0E9D1E0D0938900C0938800DD
:100E1000882349F0299A219ADF91CF911F910F9150
:100E200008952A98DACF2998F6CF9FB191708CB1A6
:100E300086FB882780F989272091700230916F0204
:100E4000409195025091960228273927231B330B96
:100E5000240F351F309396022093950230916F0234
:100E600020917002381729F0291719F021E02093FA
:100E70006E0280936F0290937002089524982C9ACA
:100E80006A98729A6E98769A8098889A81E0809390
:100E9000680090E190936B008BBB85E197E09093A5
:100EA0001F0180931E01EAE6F0E080818F7C806163
:100EB0008083EE9A8CB182FB882780F9809373023D
:100EC00093B18091730292959170892780937202F9
:100ED0001092930210929202109271028FB181705F
:100EE000809370029CB18091700296FB992790F9D3
:100EF000892780936F0210929602109295021092A9
:100F00006E0208955F926F927F928F929F92AF923E
:100F1000BF92CF92DF92EF92FF920F931F93CF93E6
:100F2000DF93FC0122853385232B09F492C06B01EA
:100F3000EC0110E08C851817E8F4E12EF12C8E8579
:100F40009F85F701EE0FFF1FEC0DFD1D9183808340
:100F5000EA85FB85EE0DFF1D61E080810E94CD02D8
:100F6000EA85FB85EE0DFF1D61E080810E94FB029A
:100F70001F5FE0CF83E290E00197F1F710E08C85EE
:100F80001817A0F4E12EF12CEA85FB85EE0DFF1D6C
:100F900060E080810E94FB02EA85FB85EE0DFF1D6B
:100FA00060E080810E94CD021F5FE9CF0E9459035B
:100FB0004B015C010E945903AB01BC01481959095E
:100FC0006A097B098E859F85B0E0A0E04817590724
:100FD0006A077B0708F03DC00E9459037B01E818AF
:100FE000F908612C8C85681628F7062D10E0EA8533
:100FF000FB85E00FF11F208130E0F901E557FC4F40
:101000008491F901E459FC4F7490F901E35BFC4FC2
:10101000549051100CC0000F111FF601E00FF11F8A
:1010200080819181E816F90688F06394DBCF811105
:101030000E948102E52DF0E0EE0FFF1FE456FD4F08
:10104000A591B491EC917E2231F3EFCFF182E08251
:10105000ECCFDF91CF911F910F91FF90EF90DF9038
:10106000CF90BF90AF909F908F907F906F905F9048
:10107000089520912402260F3327331F2132310592
:10108000ECF420914802FC0190E080E0243069F00B
:1010900082E00895A09124022191AC014C5F5D4F44
:1010A000A40FB52FB11D2C930196861798F380914C
:1010B0002402680F6093240280E0089581E008957F
:1010C0001092480281E080934A021092490261E046
:1010D00082E00E94CD0261E083E00E94CD02E9EB54
:1010E000F0E080818E7F808380818D7F808388E4A3
:1010F0008093B80085E48093BC0008950895E09142
:101100008D0280918C02E81730F4F0E0E252FE4F3D
:10111000808190E008958FEF9FEF089590918D0268
:1011200080918C022FEF3FEF981748F4E92FF0E001
:10113000E252FE4F208130E09F5F90938D02C90103
:10114000089580918C0290918D02891B990B0895CE
:10115000CF93DF93CB01EA01642F0E943908CE01BF
:10116000DF91CF910895CF93DF931F92CDB7DEB774
:10117000698361E0CE0101960E94390881E090E028
:101180000F90DF91CF910895289A209A089528987A
:10119000209A08955F926F927F928F929F92AF9262
:1011A000BF92CF92DF92EF92FF920F931F93CF9354
:1011B000DF935C01D62FC42FF22E132F0E94C70895
:1011C0008D2F806B0E9401028C2F82958F70806121
:1011D0000E9401028C2F8F700E9401020E94C4089D
:1011E000CF2DD12F0C0F1D2F111D95E0692EC0178B
:1011F000D10709F444C07990872D8052990B9C0146
:10120000629EC001639E900D1124769C40011124C2
:10121000F12CE12C9C0124553F4F69013FE137152A
:1012200008F5F601EE0DFF1DE491F0E084E0F59580
:10123000E7958A95E1F7E457FD4F5490852D0E947C
:101240000102852D0E9401029FEFE91AF90A25E0AB
:10125000E216F10419F780E00E94010280E00E948A
:101260000102C5CF87E0E0E08715F8F2F401EE0D4A
:10127000FF1DE254FF4FEA0DFB1DE081D6CFDF9149
:10128000CF911F910F91FF90EF90DF90CF90BF9083
:10129000AF909F908F907F906F905F9008955F9236
:1012A0006F927F928F929F92AF92BF92CF92DF9276
:1012B000EF92FF920F931F93CF93DF935C01D62F92
:1012C000C42FF22E132F0E94C7088D2F806B0E940F
:1012D00001028C2F82958F7080610E9401028C2FF9
:1012E0008F700E9401020E94C408CF2DD12F0C0FD5
:1012F0001D2F111D85E0682EC017D10709F440C0CD
:101300007990872D8052990B9C01629EC001639E4B
:10131000900D1124769C40011124F12CE12C9C01AC
:1013200024553F4F69013FE13715E8F4F601EE0D12
:10133000FF1DE491EF70F0E0E457FD4F5490852DD0
:101340000E940102852D0E9401029FEFE91AF90A0D
:1013500025E0E216F10439F780E00E94010280E006
:101360000E940102C9CF87E0E0E0871518F3F4017D
:10137000EE0DFF1DE254FF4FEA0DFB1DE081DACFB9
:10138000DF91CF911F910F91FF90EF90DF90CF9061
:10139000BF90AF909F908F907F906F905F900895D7
:1013A0006F927F928F929F92AF92BF92CF92DF9275
:1013B000EF92FF920F931F93CF93DF935C01D62F91
:1013C000C42FF22E132F0E94C7088D2F806B0E940E
:1013D00001028C2F82958F7080610E9401028C2FF8
:1013E0008F700E9401020E94C408CF2DD12F0C0FD4
:1013F0001D2F111D85E0682EC017D107A9F1799026
:10140000872D8052990B9C01629EC001639E900DB6
:101410001124769C40011124F12CE12C9C012455CF
:101420003F4F69013FE1371588F4F601EE0DFF1DCE
:1014300084910E9401029FEFE91AF90A25E0E21661
:10144000F10481F780E00E940102D6CF87E0871582
:1014500048F0F701E80DF91DE254FF4FEA0DFB1DBE
:101460008081E7CF80E0E5CFDF91CF911F910F9191
:10147000FF90EF90DF90CF90BF90AF909F908F90B4
:101480007F906F900895282F21FB0EF0209820FB6D
:101490000EF028980EF4289A21FB0EF4209A089555
:1014A00080919702882301F16091F4027091F50216
:1014B0008091F6029091F7020E94FD1D8FE593E066
:1014C0000E94B3086091F3028FE593E00E94B30895
:1014D000109297021092F3021092F4021092F50209
:1014E0001092F6021092F702089580918C0290916A
:1014F0008D02891B990B18161906CCF48FE593E021
:101500000E948E0890919802E92FF0E0EE0FFF1FE5
:10151000EB55FD4F482F4053550B518340839F5F40
:10152000909398028091A5028093ED02DECF0895FA
:10153000CF93DF93EC01288121FB0EF0559820FB1F
:101540000EF05D980EF45D9A21FB0EF4559A898198
:101550000E94430AE9EEF0E010828C818093F00053
:101560008B8180838A818093E200DF91CF910895FF
:10157000FC01A2EEB0E08C9182831C92A9EEB0E057
:101580008C9183831C92A0EFB0E08C9184831C9299
:1015900020E05D99216055992260208320E0289900
:1015A00021602099226021835D98559A0895CF92F9
:1015B000DF92EF92FF920F93CF93DF93EC017C01C8
:1015C00084E0E80EF11CC7010E94B80A6E0184E1B4
:1015D000C80ED11C08E0960143E162E0CE010E94F2
:1015E0004F09960143E163E0CE010E94CA086E01F3
:1015F00089E2C80ED11C960143E165E0CE010E944C
:101600004F09960143E166E0CE010E94CA08C70176
:10161000DF91CF910F91FF90EF90DF90CF900C94DE
:10162000980AEF92FF920F93CF93DF93EC017C0126
:1016300084E0E80EF11CC7010E94B80A9E012C5EEE
:101640003F4F05E142E060E0CE010E94D0099E01DB
:10165000275D3F4F42E061E0CE010E94D0099E012C
:10166000225C3F4F42E062E0CE010E94D0099E0121
:101670002D5A3F4F42E063E0CE010E94D0099E0107
:1016800028593F4F42E064E0CE010E94D0099E01FC
:1016900023583F4F42E065E0CE010E94D0099E01F1
:1016A0002E563F4F42E066E0CE010E94D0099E01D7
:1016B00029553F4F42E067E0CE010E94D009C701A3
:1016C000DF91CF910F91FF90EF900C94980AEF92D9
:1016D000FF920F931F93CF93DF938C017C0184E0E3
:1016E000E80EF11CC7010E94B80A0E94C70882E0F8
:1016F0000E940102C0E00E94C7088C2F806B0E94EC
:10170000010280E10E9401020E94C408D0E080E052
:101710000E940102DF5FD038D1F7CF5FC83059F7A0
:10172000C7010E94980AF8011286DF91CF911F919C
:101730000F91FF90EF900895AF92BF92CF92DF92FA
:10174000EF92FF920F931F93CF93DF937C01122FA1
:10175000683008F043C0423008F040C088E0861B83
:101760008217D0F12223D1F1C42FCC0FC40FDCE0BB
:101770006D9FD02D1124DD5E670124E1C20ED11CC6
:10178000862F90E025E1429F800D911D1124C80E07
:10179000D91E570184E0A80EB11CC5010E94B80AE9
:1017A00062E06C0F012F96014D2FC7010E944F0977
:1017B00063E06C0F96014D2FC7010E94CA08C50156
:1017C000DF91CF911F910F91FF90EF90DF90CF901D
:1017D000BF90AF900C94980A182FC6CFDF91CF918D
:1017E0001F910F91FF90EF90DF90CF90BF90AF903F
:1017F0000895BF92CF92DF92EF92FF920F931F93C3
:10180000CF93DF93EC01162FB42E022F653198F59C
:1018100027E0241780F185E1861B801750F1002313
:1018200051F1CE014496E12EF12C25E1B29EE00C5F
:10183000F11C1124E80EF91E6E0184E0C80ED11CC3
:10184000C6010E94B80A412F440F410F440F4E5F5A
:1018500097016B2DCE010E94D009C601DF91CF9177
:101860001F910F91FF90EF90DF90CF90BF900C945D
:10187000980A082FD6CFDF91CF911F910F91FF903B
:10188000EF90DF90CF90BF900895089590E080E0B2
:101890000895CF92DF92EF92FF920F931F93CF9311
:1018A000DF932091550430915604232B09F44DC049
:1018B0002091570430915804232B09F446C08C0121
:1018C0000E944803B80183E594E00E9482070E94C9
:1018D0003703E801C0905704D0905804E0905504B5
:1018E000F090560410E000E080915F04801711062C
:1018F00061F15CF1D601ED91FD916D01D7018D9102
:101900009D917D01E81BF90BC9F02881398150E0D8
:1019100040E0281B390B41095109A8EEB3E00E94B1
:1019200000209F0150E040E00E94BD1F293EB3E02F
:101930003B0714F028EE33E037FF02C030E020E030
:10194000299339930F5F1F4FCFCFDF91CF911F9115
:101950000F91FF90EF90DF90CF9008954F925F929C
:101960006F927F928F929F92AF92BF92CF92DF92AF
:10197000EF92FF920F931F93CF93DF9380912201F9
:10198000882309F4DBC084ED91E00E94490CE091CA
:101990005F0404ED11E0B12CA12C50E040E0C12C1B
:1019A000D12C7601912CF0E0EF17E9F0D801CD9120
:1019B000DD918D01C93CD1059CF4C333D10554F0B0
:1019C0009501DE010E94E21FC60ED71EE81EF91E19
:1019D0004C0F5D1FFF5FB8E1AB1ABCEFBB0AE4CF51
:1019E00099249394EDCF911099C0E150FF0B44EFEF
:1019F00051E0E49FC001E59F900DF49F900D1124EC
:101A00004091630450916404481759070CF493C043
:101A100048EE53E0E49FC001E59F900DF49F900DC8
:101A20001124805D974065E070E00E94871FEB0104
:101A3000072E000C880B990B0E94351E6B017C0150
:101A40002091D0013091D1014091D2015091D30128
:101A50000E941F1D4B015C018092D0019092D10128
:101A6000A092D201B092D3018091CE019091CF018A
:101A7000BE01681B790B072E000C880B990B0E9486
:101A8000351E2B013C01D093CF01C093CE0127E13D
:101A900037EB41ED58E3C501B4010E94C61EA70112
:101AA00096010E941F1D6B017C0120E030E040E8A0
:101AB00050E4C301B2010E94C61E9B01AC01C701E4
:101AC000B6010E941F1D6B017C01AC019B0160E00F
:101AD00070E088E493E40E941E1D0E94FD1D4B01EE
:101AE00020E030E048E453E4C701B6010E941F1D26
:101AF0000E94FD1DCB01B401DF91CF911F910F9189
:101B0000FF90EF90DF90CF90BF90AF909F908F901D
:101B10007F906F905F904F900C94CA069A0150E0AE
:101B200040E0C701B6010E949B1FC90130936404C5
:101B30002093630476CF90E080E073CFDF91CF9164
:101B40001F910F91FF90EF90DF90CF90BF90AF90DB
:101B50009F908F907F906F905F904F9008950E941C
:101B60003021FB0101900020E9F73197AF01461BBE
:101B7000570BDC01ED91FC910280F381E02D09947B
:101B80008F929F92AF92BF920F931F93CF93DF9349
:101B9000CDB7DEB7A1970FB6F894DEBF0FBECDBFAD
:101BA00019A2423008F44AE08E010F5D1F4F842EC7
:101BB000912CB12CA12CA50194010E949B1FE62F12
:101BC000B901CA01EA3004F5E05DD801EE938D0158
:101BD000232B242B252B79F790E080E0109729F018
:101BE000BD018BE693E00E94B10DA1960FB6F8946B
:101BF000DEBF0FBECDBFDF91CF911F910F91BF9080
:101C0000AF909F908F900895E95CDFCF0F931F9363
:101C1000CF93DF93EC010E94B10D8C0160E971E07C
:101C2000CE010E94B10D800F911FDF91CF911F91C6
:101C30000F910895CF93DF9385ED8093BC00809141
:101C4000000290910102A0910202B0910302079656
:101C5000A11DB11D23E0B695A795979587952A9567
:101C6000D1F72091BC0024FD03C01092480236C079
:101C700040910002509101026091020270910302B2
:101C8000452B462B472B69F30097A105B10541F081
:101C90002AE22A95F1F700C00197A109B109E1CF25
:101CA0008091FF0191E09093FE018823B9F0C091EB
:101CB000B800D091BA008091BC008A7B8093BC00B0
:101CC00060E082E00E94CD0260E083E00E94CD02ED
:101CD0000E946008D093BA00C093B800DF91CF9102
:101CE00008950F931F93CF93DF93EC015B98539A62
:101CF0005A98529A85E38A95F1F700005A9A529AB7
:101D000085E38A95F1F70000CE010E94670B8E01F2
:101D10000C5F1F4FC8010E94B80A0E94C70881EAE1
:101D20000E94010288EC0E94010281E80E940102E7
:101D30008FEF0E9401028FEA0E940102C8010E94F7
:101D4000980A81E08987DF91CF911F910F910895C3
:101D5000FF920F931F93CF93DF93EC01162F042F65
:101D6000F22E8985811103C0CE010E94710E8A85F1
:101D7000882319F0CE010E94670B2A893B89C9018B
:101D8000959587958C0F9D1FE889F98920FF08C0DC
:101D9000DC012D913C91E20FF31F0190F081E02DC9
:101DA0002F2D402F612FDF91CF911F910F91FF9029
:101DB0000994CF93DF93DC01A354BF4F2C912830BB
:101DC00008F5EC01C454DF4FE881E531D8F4AC01EB
:101DD00075E1279F400D511D1124E40FF52FF11DD2
:101DE000648BFC012385211105C021E04C916881A1
:101DF0000E94A80E88818F5F888381E090E0DF9148
:101E0000CF91089590E080E0FACFAF92BF92CF9249
:101E1000DF92EF92FF920F931F93CF93DF9382EEA7
:101E2000E82EF12CF70100811082C9EED0E0B880D5
:101E3000188290EFC92ED12CF601A080108220E0EC
:101E40002899216020992260822F2098289A90E179
:101E50009A95F1F713B10E94430A1882F601A08205
:101E6000B882F7010083812F80958170DF91CF9137
:101E70001F910F91FF90EF90DF90CF90BF90AF90A8
:101E800008950C94101DBF92CF92DF92EF92FF92B3
:101E90000F931F93CF93DF938C01EA016C012DEB1D
:101EA000C20ED11CF60130813830D8F57C01FCEB34
:101EB000EF0EF11CF7018081853198F525E1281B93
:101EC00090E02417150620F4C5E1D0E0C81BD90B1B
:101ED000F5E13F9F800D911D1124AE0198012C5E0C
:101EE0003F4F820F931F0E943521BC2EF80183853E
:101EF000811108C02C2FF6014081F7016081C801D3
:101F00000E94A80EF70180818B0D8083CE01DF91A6
:101F1000CF911F910F91FF90EF90DF90CF90BF90E6
:101F20000895D0E0C0E0F2CF1F920F920FB60F924B
:101F300011242F933F938F939F93AF93BF938091DF
:101F4000F9029091FA02A091FB02B091FC0230914B
:101F5000F80223E0230F2D3758F50196A11DB11D7E
:101F60002093F8028093F9029093FA02A093FB0267
:101F7000B093FC028091FD029091FE02A091FF02BD
:101F8000B09100030196A11DB11D8093FD029093B5
:101F9000FE02A093FF02B0930003BF91AF919F9107
:101FA0008F913F912F910F900FBE0F901F9018951A
:101FB00026E8230F0296A11DB11DD2CF1F920F92CA
:101FC0000FB60F9211242F933F934F935F936F930C
:101FD0007F938F939F93AF93BF93EF93FF93E09182
:101FE0001E01F0911F010995FF91EF91BF91AF91F3
:101FF0009F918F917F916F915F914F913F912F9121
:102000000F900FBE0F901F9018951F920F920FB652
:102010000F9211242F933F934F935F936F937F936E
:102020008F939F93AF93BF93EF93FF93E0911C0126
:10203000F0911D010995FF91EF91BF91AF919F9193
:102040008F917F916F915F914F913F912F910F9061
:102050000FBE0F901F9018951F920F920FB60F9200
:1020600011242F933F934F935F936F937F938F939D
:102070009F93AF93BF93EF93FF93E0911A01F09179
:102080001B010995FF91EF91BF91AF919F918F91A6
:102090007F916F915F914F913F912F910F900FBE64
:1020A0000F901F9018951F920F920FB60F92112448
:1020B0002F933F934F935F936F937F938F939F9350
:1020C000AF93BF93EF93FF93E0911801F091190143
:1020D0000995FF91EF91BF91AF919F918F917F9162
:1020E0006F915F914F913F912F910F900FBE0F9085
:1020F0001F9018951F920F920FB60F9211242F93D5
:102100003F934F935F936F937F938F939F93AF937F
:10211000BF93EF93FF93E0911601F091170109959A
:10212000FF91EF91BF91AF919F918F917F916F91AF
:102130005F914F913F912F910F900FBE0F901F9085
:1021400018951F920F920FB60F9211248F939F93A1
:102150008091E1009091E100937F9093E10083FFF3
:102160000FC01092E90091E09093EB001092EC0008
:1021700092E39093ED0010920E0398E09093F0009C
:1021800082FF22C093E09093E9009091F20099239E
:1021900019F09AE39093E80090918302992341F01B
:1021A00090918302915090938302911101C05D9AA6
:1021B00090910D03992341F090910D0391509093CC
:1021C0000D03911101C0289A84FF18C08091E2008C
:1021D0008E7E81608093E2008091E1008F7E80930B
:1021E000E100809184028E7E8061809384029F91C1
:1021F0008F910F900FBE0F901F90189580FFF7CF13
:102200008091E2008E7E80618093E2008091E10007
:102210008E7E8093E100809184028E7E8160E5CF86
:102220001F920F920FB60F921124CF92DF92EF926E
:10223000FF920F931F932F933F934F935F936F934F
:102240007F938F939F93AF93BF93EF93FF93CF931E
:10225000DF93CDB7DEB76C97DEBFCDBF1092E9003C
:102260008091E80083FF25C068E0CE0145960E947A
:10227000780482EF8093E8008D8987FF39C09091C0
:10228000E80090FFFCCF982F907609F034C19E892A
:102290004F89588D2F89F88C911131C0803861F5A4
:1022A000809185028093F1001092F1008EEF80936F
:1022B000E8006C960FB6F894DEBF0FBECDBFDF917D
:1022C000CF91FF91EF91BF91AF919F918F917F91AE
:1022D0006F915F914F913F912F911F910F91FF90BF
:1022E000EF90DF90CF900F900FBE0F901F9018953A
:1022F0009EEF9093E800C7CF1092F100D5CF9130B8
:1023000059F48111D3CF4130510581F68091850276
:102310008D7F80938502CACF933049F48111C6CF57
:102320004130510519F6809185028260F2CF9530D7
:1023300041F48091E80080FFFCCF20682093E30007
:10234000B5CF963009F0A9C00B8D1C8D22E01092FC
:10235000E9001092810210928002F2122EC01092B7
:102360007F0210927E020E9447041F8299E09983A7
:10237000FA8291E09E8390EA98879AEF998720915C
:10238000800230918102275F3F4F3C832B838D83F6
:102390001092E900109281021092800210937F0245
:1023A00000937E0249E050E0BE016F5F7F4F80E006
:1023B0000E9421040E94470479CF10937F0200936A
:1023C0007E020E946D02DC0112960D911C91011596
:1023D000110509F451C1D801ED91FC910480F581FA
:1023E000E02DBE016B5E7F4FC8010995009709F093
:1023F0003EC1F80100851185EACFF3E0FF120EC05F
:102400008F89882309F440C0823061F440E862E19A
:1024100085E193E00E94A316811148CF81E2809369
:10242000EB0047CF813029F440E862E182E093E09D
:10243000F1CF833099F70E946D02DC011296ED9086
:10244000FC908E010F5F1F4F6801E114F10479F0D9
:10245000D701ED91FC910680F781E02DB801C7010D
:102460000995080F111DF701E084F184EECFD80122
:102470001C92F60101900020E9F73197BF016C1919
:102480007D0940E0C601C6CF6CEE72E0FB014491CD
:1024900050E080E80E94210409CF973009F4BECFB4
:1024A000983021F481E08093F10000CF993009F059
:1024B000FDCE837009F0B2CFE8E4F1E081E031E0D5
:1024C00096E32191222371F08093E9003093EB0091
:1024D000DF0111972C912093EC009093ED008F5F1A
:1024E000873079F78EE78093EA001092EA008F89AF
:1024F00080930E03DBCE8B8D9C8D1092E9001092A1
:1025000081021092800290937F0280937E02898DD7
:10251000811192C08E899D89913A49F4813209F0E6
:102520007DCF47E050E06EE071E080E0B3CF9132C4
:1025300009F074CF833269F48F89988DB0E0A0E000
:1025400080930A0190930B01A0930C01B0930D01AD
:10255000ADCE803269F48091E80082FFFCCF67E065
:102560008EE091E00E9478048BEF8093E8009ECE8D
:10257000823209F09BCE8F8980931501EEEFFFE741
:10258000859194918B3F9C4D51F1E0E0F8E0809172
:102590000E0190910F01A0911001B0911101803BAB
:1025A0009440A105B105F1F48091150180FD1AC098
:1025B000EE3F8AE0F80789F587E797E79183808304
:1025C000809160008093820288E19BE00FB6F894CE
:1025D000A895809360000FBE9093600067CEEEEFE9
:1025E000FAE0D5CF808191818737974709F05ECE99
:1025F000A89580916000886180936000809182023C
:1026000080936000EE3F2AE0F20789F08091FE0A95
:102610009091FF0A9183808349CE80819181873791
:10262000980751F29093FF0A8093FE0AC5CF10924B
:10263000FF0A1092FE0A3ACE0E946D02DC01129649
:102640000D911C910115110509F4E8CED801ED9109
:10265000FC910190F081E02DBE016B5E7F4FC801BF
:102660000995811123CEF80100851185EBCF18164D
:1026700019060CF41BCED2CEF1E0FF12BECE60EFF5
:1026800072E004CF1F920F920FB60F9211244F9257
:102690005F926F927F928F929F92AF92BF92CF92F2
:1026A000DF92EF92FF920F931F932F933F934F93DD
:1026B0005F936F937F938F939F93AF93BF93CF93CA
:1026C000DF93EF93FF93C0917902D0917A02CE010C
:1026D000019790937A02809379022097A1F5109246
:1026E000720078948091C100807F84608093C100E3
:1026F00083E08093BF0088EE8093D1001092BF00EA
:102700001092D20081E08093090180917C02909127
:102710007D02892BC1F080917702811114C07090E5
:10272000080180917602882379F1809175028823CF
:1027300059F16091750270E040E088EE93E00E94EC
:10274000D40510927502FF91EF91DF91CF91BF9167
:10275000AF919F918F917F916F915F914F913F9139
:102760002F911F910F91FF90EF90DF90CF90BF902E
:10277000AF909F908F907F906F905F904F900F9051
:102780000FBE0F901F9018955524539470ECA72EF0
:102790007DE5B72EEAE04E2EF4E06F2EA0EDCA2EB6
:1027A000A7E0DA2EB4E0EB2EF12C04EF11E08FE07D
:1027B000882E912C0E948B0520917C0230917D0205
:1027C0002F5F3F4F30937D0220937C02853609F4C2
:1027D00073C00CF047C0813609F4B4C024F58C33C3
:1027E00009F468C08E3309F463C0813209F043C034
:1027F00060920801D0920501C0920401F092070195
:10280000E0920601109303010093020190920101EE
:10281000809200011092760270900801809102016E
:1028200090910301C7CF833609F48FC010E00BE00D
:10283000843614F010E002E04CE0749E000D112488
:102840000E948B05982F977F933209F080C080916A
:102850007C0290917D02019690937D0280937C0290
:102860000F5FEECF8D3609F445C054F4873651F131
:1028700034F18C3651F110927D0210927C0263CFBC
:10288000823709F44CC044F48F36A9F70E94AC0596
:10289000782E809308018ECF843709F443C08637A1
:1028A00051F70E94AC05909301018093000182CF03
:1028B000739480CF7A947ECF10E004E0BDCF10E017
:1028C00005E0BACF10E007E0B7CF0E94AC059093C7
:1028D00007018093060180910401909105016091A8
:1028E0000601709107010E94731F709303016093AA
:1028F000020160CF0E948B058C3661F41092760243
:1029000080917C0290917D02019690937D0280934C
:102910007C0250CF5092760210927502F1CF11E0F6
:1029200000E08ACF0E94AC05BC01C5010E94731F64
:10293000469EC001479E900D1124909305018093FF
:102940000401C9CF10E009E077CF10E0E9CF8D3264
:1029500069F480917C0290917D02019690937D02B2
:1029600080937C0201500E948B05F1CFE090020120
:10297000F09003018153883058F4E0900401F09006
:1029800005010E94AC05BC01C7010E94731F7B01B9
:102990006701D694C7940E948B058E3261F48091B2
:1029A0007C0290917D02019690937D0280937C023F
:1029B000EC0CFD1CEECF80917602882349F0C70114
:1029C000969587958093750280917502E81AF108B3
:1029D000C0900001D0900101111104C00F3F11F00F
:1029E000C11007C040E0B70188EE93E00E94D40513
:1029F000AACE013128F010EF100F103608F01FE5B5
:102A0000812F6CE00E94671F582F44EF450390010F
:102A10001124210F311D2C30310538F4220F331FC2
:102A2000F901E15DFE4FC081D1818730C1F0082EF0
:102A300002C0CC0FDD1F0A94E2F7823040F0CE01D5
:102A400005966AE070E00E94731FCB0102C0CE01C0
:102A500090584C2D403108F04FE0B701C7CFCE0160
:102A600026E0880F991F2A95E1F7029665E070E04D
:102A7000EACF1F920F920FB60F9211242F933F931C
:102A80004F936F937F938F939F938CB1282F30E058
:102A90003595279535952795422F417083B190E064
:102AA00064E0959587956A95E1F78227817020917A
:102AB00073029091720260919202709193022827A2
:102AC0009427291B330B260F371F30939302209333
:102AD00092022091720290917302281729F09417A4
:102AE00019F091E090937102809372024093730207
:102AF0009F918F917F916F914F913F912F910F9067
:102B00000FBE0F901F9018951F920F920FB60F9245
:102B100011242F933F934F935F936F937F938F93E2
:102B20009F93AF93BF93EF93FF938091B900887FFA
:102B3000803609F44AC0F0F5883209F4A7C018F5C8
:102B4000803109F49BC0B8F4882309F4F9C08830B7
:102B500009F494C0FF91EF91BF91AF919F918F9134
:102B60007F916F915F914F913F912F910F900FBE89
:102B70000F901F901895883109F488C0803251F762
:102B80008093470214C0803409F49DC040F4803320
:102B9000B9F38833F9F68093470285ECB0C08035ED
:102BA00009F485C0883509F496C0883499F60E94E6
:102BB0001A0ED0CF883909F48CC038F5883729F03F
:102BC00050F4883611F0803729F683E0809348026C
:102BD0001092460257C0883809F47BC0803919F03A
:102BE000803809F0B7CF80914602803208F071C07A
:102BF000E091460281E08E0F809346028091BB00F7
:102C0000F0E0EA5DFD4F80833DC0803B39F0E0F4A9
:102C1000803A09F479C0883A09F09CCF84E0809327
:102C200048021092250210922402E0918802F0914D
:102C3000890209958091240281110FC081E080935F
:102C400024021092040209C0803C09F4A6CF883CFB
:102C500009F4A3CF883B09F07DCFE091250281E004
:102C60008E0F80932502F0E0EC5FFD4F8081809312
:102C7000BB00909125028091240229C080916D02B1
:102C80008093BB0085EC8093BC0064CF90916C0274
:102C900080916B02981758F5E0916C0281E08E0FDD
:102CA00080936C02F0E0E55BFD4F8081E9CFE0911D
:102CB0006C0281E08E0F80936C028091BB00F0E08B
:102CC000E55BFD4F808390916C0280916B029817B9
:102CD000C8F285E8D8CFE0916C0281E08E0F809336
:102CE0006C028091BB00F0E0E55BFD4F808380913A
:102CF0004A0281115CCF81E08093490284EA80938B
:102D0000BC001092480226CF85EC8093BC00109244
:102D1000480280914602803230F4E0914602F0E0B1
:102D2000EA5DFD4F10826091460270E0E0918602FC
:102D3000F091870286E292E00995109246020ACF4E
:102D40001092470234CFEF92FF920F931F93CF93CD
:102D5000DF93F82E192FE62E042F81E0860F880FBF
:102D60000E94F30383E00E94F303CF2DD12FEC0EDA
:102D7000FD2EF11CCE15DF05B9F007FF13C0FE01D3
:102D800084910E94F303182F80E00E94F3038123B3
:102D900021968111EFCFDF91CF911F910F91FF907D
:102DA000EF9008958881EDCF81E0F5CFCF93DF9349
:102DB000EFE0F3E01382128288EE93E0A0E0B0E04F
:102DC00084839583A683B78322E531E03183208312
:102DD0002FEF3FEF35872487EFE5F3E01382128270
:102DE00084839583A683B78384E691E0918380836F
:102DF000E5E6F4E0128215828EE891E0918380830B
:102E0000E3E5F4E01382128215821482178216829F
:102E1000118610861386128682E891E09183808362
:102E2000CBE6D3E01B821A8248EA50E060E270E011
:102E30008FE793E00E943E211092520410925104B9
:102E400087ED9AE09D878C871F861E868CE99BE024
:102E5000998B888B1B8A1A8A81E08A8786E791E0A2
:102E600099838883DF91CF910895CF93DF93CDB776
:102E7000DEB7C056D1090FB6F894DEBF0FBECDBF86
:102E8000789484B5826084BD84B5816084BD85B545
:102E9000826085BD85B5816085BD80916E00816051
:102EA00080936E00109281008091810082608093F7
:102EB00081008091810081608093810080918000F9
:102EC0008160809380008091910082608093910066
:102ED0008091910081608093910080919000816049
:102EE000809390008091C10084608093C1008091A4
:102EF000C10082608093C1008091C1008160809395
:102F0000C1008091C30081608093C3008091C000A4
:102F100082608093C0008091C20081608093C20073
:102F200080917A00846080937A0080917A00826038
:102F300080937A0080917A00816080937A008091FA
:102F40007A00806880937A0010920E0310928502B6
:102F5000109284028091D70081608093D70080EA2C
:102F60008093D80089B5806189BD89B5826089BDAB
:102F700009B400FEFDCF61E070E080E090E00E94C7
:102F80007E038091D8008F7C80618093D8008091EF
:102F9000E000807F8093E0008091E1008E7E80934E
:102FA000E1008DE08093E200559A209A10928D0204
:102FB00010928C0210928B0210928A020E9460087A
:102FC0008CEB93E0909389028093880288EC93E0E5
:102FD000909387028093860282E08093BA008FEFFD
:102FE0009FEF90931C0380931B0380E59AE09093DE
:102FF0008F0280938E0285E79AE0909391028093EE
:103000009002109252041092510481E19BE090933F
:1030100078038093770310927A031092790389EFF3
:103020009BE090937C0380937B0310927E0310922D
:103030007D0381E08093750360E590E080E00E946D
:10304000410F60E081E090E00E94410F60E082E08B
:1030500090E00E94410F90E080E00E94081D809364
:10306000EE0281E090E00E94081D682F70E090E081
:1030700080E00E94331E6093F4027093F502809307
:10308000F6029093F70282E090E00E94081D809380
:10309000F30285E0EAE2F1E0DE01119601900D9283
:1030A0008A95E1F710925604109255041092580434
:1030B0001092570410925A041092590410925C0412
:1030C00010925B04109264041092630485E0809374
:1030D0005F0480915D0490915E04892BC1F080E0D3
:1030E00090915F04891708F05FC0282F30E0E1E07D
:1030F000F0E0EC0FFD1FE20FF31F9081E0915D0403
:10310000F0915E04E20FF31F90838F5FE9CF85E0BB
:1031100090E00E940B2090935E0480935D04892BC5
:10312000F1F680ED97E0909362048093610485E668
:1031300094E00E94050F8823D1F36AE070E080E0FC
:1031400090E00E947E0385E694E00E94050F8823AC
:1031500071F36CE97FEF84E690E00E94CA060E945A
:10316000B0036B017C018091570490915804892B26
:10317000F9F480915F0490E0880F991F0E940B2062
:103180009093580480935704009709F4AFC0FC0152
:1031900090E080E020915F042817190649F044F080
:1031A000119211920196F6CF8BE080936004B9CF13
:1031B0008091550490915604892BF9F480915F0415
:1031C00090E0880F991F0E940B20909356048093E3
:1031D0005504009709F48AC0FC0190E080E020913A
:1031E0005F042817190649F044F0209161043091DA
:1031F0006204219331930196F2CF10E000E00E9427
:103200004803BE016F5B7F4F83E594E00E94820715
:103210000E94370360905F04712CCE0101964C012F
:103220009E012F5D3F4FDE01AF5BBF4F5D01290166
:10323000DC0150E040E04615570524F5F501819189
:1032400091915F010115110599F0F2016081718181
:103250006817790768F06D917C9111978617970729
:1032600068F04F5F5F4F1296F2E04F0E511CE3CFB4
:10327000F201918380830115110569F711969C93E2
:103280008E93EFCF0F5F1F4F0A30110509F0B7CFB4
:10329000A0915504B0915604009157041091580420
:1032A00090E080E040915F0448171906F9F0F4F0CF
:1032B000F401419151914F01F801608171816417CE
:1032C000750710F451834083F901419151919F0199
:1032D0006D917C9111974617570718F411965C93DE
:1032E0004E93019612960E5F1F4FDCCF0E94B003E3
:1032F0006C197D098E099F09603A7F40810591050F
:1033000008F431CF70E060E090E080E00E94CA06EF
:1033100075E0472E512C612C712C04E011E0C09017
:10332000F402D090F502E090F602F090F70220E06F
:1033300030E04FE753E4C701B6010E94C11E87FD8C
:1033400015C08091F3028F5F8093F30220E030E09C
:103350004FE753E4C701B6010E941E1D6093F402BB
:103360007093F5028093F6029093F7028091940295
:10337000811104C0109394020E943E07F894E090DB
:103380009202F0909302109293021092920278941B
:1033900080919402811104C0109394020E943E0710
:1033A000F894209095023090960210929602109216
:1033B000950278948090F4029090F502A090F60225
:1033C000B090F702B701F7FE03C0719561957109DE
:1033D000072E000C880B990B0E94351E26E53EE057
:1033E00049E450E40E94C61E27E73EEB4FE15DE34F
:1033F0000E94C61E20E030E843E654E40E948B1D84
:103400006B017C01B10137FE03C0719561957109B3
:10341000072E000C880B990B0E94351E26E53EE016
:1034200049E450E40E94C61E27E73EEB4FE15DE30E
:103430000E94C61E20E030E843E654E40E948B1D43
:103440009B01AC01C701B6010E941F1D20E030E0C6
:1034500040E251E40E94C61E20E030E040E05FE31D
:103460000E94C61EA50194010E941F1D6B017C01D4
:10347000C501B4010E94041E81E090E00E94410F4A
:103480006091F30282E090E00E94410FC092F4024A
:10349000D092F502E092F602F092F7026091F30208
:1034A0002FEF629FB0011124072E000C880B990B9F
:1034B0000E94351EA70196010E941F1D0E94041E36
:1034C0006093EF027093F0028093F1029093F20206
:1034D000A30192010E949B1F50E5F52EF21A6F2D59
:1034E00090E080E00E94410FF092EE0210922704DB
:1034F0001092280468E2E62E63E0F62EF70164914C
:10350000662349F08BE693E00E94D90EFFEFEF1A95
:10351000FF0A892B99F710922704109328046091D1
:10352000EE0270E090E080E04AE00E94C00D109250
:10353000270423E02093280463E971E08BE693E0FD
:103540000E94060E10922704009328046091EF0257
:103550007091F0028091F1029091F2024AE00E9493
:10356000C00D64EA71E08BE693E00E94B10DF0902B
:10357000ED0283E0F81609F466C18F1578F091E04A
:10358000F91609F4A6C0A2E0FA1609F42CC170E0FD
:1035900060E090E080E00E94CA06B1C1B4E0FB1692
:1035A00009F4B5C1E5E0FE12F2CF80919D028111D0
:1035B0000CC00E94B0036093990270939A028093AA
:1035C0009B0290939C0210939D0248EA50E060E2B7
:1035D00070E08FE793E00E943E2110922704109242
:1035E00028048091760381112AC08091740381118F
:1035F00004C08BE693E00E94710E809175038823CE
:1036000021F08BE693E00E94670B209179033091C3
:103610007A03C9019595879585599C4FE091770369
:10362000F091780320FF08C0DC012D913C91E20F5E
:10363000F31F0190F081E02D09951092760364EC60
:1036400071E08BE693E00E94060E1093970270E003
:1036500060E090E080E00E94CA0670E060E090E0E8
:1036600080E00E94CA068091B90290E00196209104
:1036700098022817190681F080912001882361F0B3
:10368000109220010E94B0036093990270939A02F5
:1036900080939B0290939C028091200181112FC105
:1036A0000E94AE0C0E94B003C0909902D0909A0282
:1036B000E0909B02F0909C026C197D098E099F0995
:1036C000683B7B408105910508F419C110932001E6
:1036D0006EC08091E50281110CC00E94B00360931E
:1036E000E1027093E2028093E3029093E402F0928D
:1036F000E5020E94AE0C87ED92E00E94490C809199
:10370000D7029091D802883592400CF453C01093A0
:10371000D60287ED92E00E94490C8091D7029091E9
:10372000D80288359240DCF08091D5028130B9F41E
:1037300064E670E08CE99FEF0E94CA060E94B00325
:103740006093E1027093E2028093E3029093E402BB
:10375000109223011092220182E08093D502809181
:10376000230181111DC00E94B003C090E102D090DE
:10377000E202E090E302F090E4026C197D098E0908
:103780009F09643F71408105910550F0109323011A
:1037900068EA71E08FE093E00E94060E1093220128
:1037A0008091D502843008F4AAC01092D50200930B
:1037B000ED02A5C087ED92E00E94490C8091D702EE
:1037C0009091D802843691050CF0A3CF8091D60257
:1037D000882309F49ECF8091D5028F5F8093D50214
:1037E0001092D60296CFF090D402B1E0BF1510F03F
:1037F0000E94AE0C87ED92E00E94490C8091D702A6
:103800009091D8028835924054F01093D302809161
:10381000D402823008F473C01092D402C8CF87ED6E
:1038200092E00E94490C8091D7029091D802892B96
:1038300071F78091D302882351F3F394F092D4026C
:103840001092D302E4CF8091CB0281110CC00E9470
:10385000B0036093C7027093C8028093C90290932B
:10386000CA021093CB0287ED92E00E94490C80912E
:10387000D7029091D80288359240C4F00E94B003DC
:103880006093C7027093C8028093C9029093CA02E2
:103890006CE97FEF86E990E00E94CA0666EB71E072
:1038A0008FE093E00E94060E1093C6020E94B003C0
:1038B000C090C702D090C802E090C902F090CA023E
:1038C0006C197D098E099F096E357140810591053E
:1038D00020F08091C60281110EC00E94B0036C19C5
:1038E0007D098E099F096E3571408105910538F07B
:1038F0000E94AE0C04C00093ED021092C602E0E0FC
:10390000F0E0EF2B09F40BCD0E94000008CD809170
:10391000BE0281110CC00E94B0036093BA02709382
:10392000BB028093BC029093BD021093BE020E9422
:10393000AE0C80912101882361F00E94B003609356
:10394000BA027093BB028093BC029093BD021092A6
:1039500021010E94B003E091B902C090BA02D09058
:10396000BB02E090BC02F090BD026C197D098E098B
:103970009F096C3271408105910570F0EF5FE09313
:10398000B90210932101F0E0EE0FFF1FEB55FD4F40
:1039900080818093ED02B3CF109327048AE0809357
:1039A00028046E2F70E090E080E04AE00E94C00D95
:1039B000A6CF88E891E090935404809353048091BB
:1039C0005D0490915E04009711F00E94A720809101
:1039D000570490915804009711F00E94A7208091FD
:1039E0005B0490915C04009711F00E94A7208091E5
:1039F000550490915604009711F00E94A7208091E1
:103A0000590490915A04009711F00C94A72008953E
:103A1000F999FECF92BD81BDF89A992780B5089596
:103A2000262FF999FECF1FBA92BD81BD20BD0FB6DA
:103A3000F894FA9AF99A0FBE019608955058BB2748
:103A4000AA270E94361D0C94871E0E94791E38F00A
:103A50000E94801E20F039F49F3F19F426F40C9444
:103A6000761E0EF4E095E7FB0C94701EE92F0E9481
:103A7000981E58F3BA17620773078407950720F05A
:103A800079F4A6F50C94BA1E0EF4E0950B2EBA2F1D
:103A9000A02D0B01B90190010C01CA01A001112454
:103AA000FF27591B99F0593F50F4503E68F11A1600
:103AB000F040A22F232F342F4427585FF3CF469591
:103AC00037952795A795F0405395C9F77EF41F16B3
:103AD000BA0B620B730B840BBAF09150A1F0FF0F7D
:103AE000BB1F661F771F881FC2F70EC0BA0F621F69
:103AF000731F841F48F4879577956795B795F79559
:103B00009E3F08F0B0CF9395880F08F09927EE0FED
:103B10009795879508950E949F1D0C94871E0E947B
:103B2000801E58F00E94791E40F029F45F3F29F072
:103B30000C94701E51110C94BB1E0C94761E0E94A6
:103B4000981E68F39923B1F3552391F3951B550BF8
:103B5000BB27AA2762177307840738F09F5F5F4F60
:103B6000220F331F441FAA1FA9F335D00E2E3AF09F
:103B7000E0E832D091505040E695001CCAF72BD0B7
:103B8000FE2F29D0660F771F881FBB1F2617370708
:103B90004807AB07B0E809F0BB0B802DBF01FF273A
:103BA00093585F4F3AF09E3F510578F00C94701E89
:103BB0000C94BB1E5F3FE4F3983ED4F38695779553
:103BC0006795B795F7959F5FC9F7880F911D9695F3
:103BD000879597F90895E1E0660F771F881FBB1F4F
:103BE000621773078407BA0720F0621B730B840BFC
:103BF000BA0BEE1F88F7E09508950E94041E6894A2
:103C0000B1110C94BB1E08950E94A01E88F09F570E
:103C100098F0B92F9927B751B0F0E1F0660F771FF0
:103C2000881F991F1AF0BA95C9F714C0B13091F0E6
:103C30000E94BA1EB1E008950C94BA1E672F782F27
:103C40008827B85F39F0B93FCCF3869577956795AB
:103C5000B395D9F73EF490958095709561957F4F17
:103C60008F4F9F4F0895E89409C097FB3EF49095BD
:103C70008095709561957F4F8F4F9F4F9923A9F045
:103C8000F92F96E9BB279395F695879577956795D4
:103C9000B795F111F8CFFAF4BB0F11F460FF1BC018
:103CA0006F5F7F4F8F4F9F4F16C0882311F096E9AB
:103CB00011C0772321F09EE8872F762F05C0662359
:103CC00071F096E8862F70E060E02AF09A95660F12
:103CD000771F881FDAF7880F9695879597F90895CB
:103CE00097F99F6780E870E060E008959FEF80ECAF
:103CF000089500240A941616170618060906089552
:103D000000240A9412161306140605060895092EB7
:103D10000394000C11F4882352F0BB0F40F4BF2B26
:103D200011F460FF04C06F5F7F4F8F4F9F4F089566
:103D300057FD9058440F551F59F05F3F71F047955C
:103D4000880F97FB991F61F09F3F79F08795089541
:103D5000121613061406551FF2CF4695F1DF08C060
:103D6000161617061806991FF1CF8695710561057D
:103D700008940895E894BB2766277727CB0197F925
:103D800008950E94331F08F48FEF08950E94D91EF2
:103D90000C94871E0E94791E38F00E94801E20F02D
:103DA000952311F00C94701E0C94761E11240C9423
:103DB000BB1E0E94981E70F3959FC1F3950F50E0B3
:103DC000551F629FF001729FBB27F00DB11D639FCD
:103DD000AA27F00DB11DAA1F649F6627B00DA11D73
:103DE000661F829F2227B00DA11D621F739FB00D19
:103DF000A11D621F839FA00D611D221F749F332789
:103E0000A00D611D231F849F600D211D822F762F21
:103E10006A2F11249F5750409AF0F1F088234AF0FE
:103E2000EE0FFF1FBB1F661F771F881F915050406A
:103E3000A9F79E3F510580F00C94701E0C94BB1E98
:103E40005F3FE4F3983ED4F3869577956795B795F1
:103E5000F795E7959F5FC1F7FE2B880F911D96950B
:103E6000879597F90895990F0008550FAA0BE0E878
:103E7000FEEF16161706E807F907C0F0121613062C
:103E8000E407F50798F0621B730B840B950B39F46C
:103E90000A2661F0232B242B252B21F408950A26D2
:103EA00009F4A140A6958FEF811D811D0895DB01C6
:103EB0008F939F930E940020BF91AF91A29F800D8E
:103EC000911DA39F900DB29F900D11240895991BF1
:103ED00079E004C0991F961708F0961B881F7A9501
:103EE000C9F780950895AA1BBB1B51E107C0AA1F03
:103EF000BB1FA617B70710F0A61BB70B881F991F8B
:103F00005A95A9F780959095BC01CD01089597FB2E
:103F1000072E16F4009407D077FD09D00E94731F76
:103F200007FC05D03EF4909581959F4F08957095BC
:103F300061957F4F0895A1E21A2EAA1BBB1BFD01BC
:103F40000DC0AA1FBB1FEE1FFF1FA217B307E40778
:103F5000F50720F0A21BB30BE40BF50B661F771FD0
:103F6000881F991F1A9469F76095709580959095B0
:103F70009B01AC01BD01CF010895052E97FB1EF4F6
:103F800000940E94D41F57FD07D00E949B1F07FC7E
:103F900003D04EF40C94D41F509540953095219544
:103FA0003F4F4F4F5F4F0895909580957095619565
:103FB0007F4F8F4F9F4F0895EE0FFF1F0590F49195
:103FC000E02D09940E94EA1F332312F48A1B9B0BF5
:103FD0000C94FB1FA29FB001B39FC001A39F700D63
:103FE000811D1124911DB29F700D811D1124911D01
:103FF00008950E94EA1FB7FF0895821B930B08954E
:104000000E94EA1FA59F900DB49F900DA49F800D64
:10401000911D112408950F931F93CF93DF93823046
:10402000910510F482E090E0E0916F04F09170044B
:1040300030E020E0B0E0A0E0309799F421153105A0
:1040400009F44AC0281B390B24303105D8F58A8180
:104050009B816115710589F1FB0193838283FE01C8
:1040600011C0408151810281138148175907E0F046
:104070004817590799F4109761F012960C9312970C
:1040800013961C933296CF01DF91CF911F910F9120
:10409000089500936F0410937004F4CF2115310537
:1040A00051F04217530738F0A901DB019A01BD0115
:1040B000DF01F801C1CFEF01F9CF90937004809335
:1040C0006F04CDCFFE01E20FF31F81939193225035
:1040D000310939832883D7CF20916D0430916E0444
:1040E000232B41F4209126013091270130936E0457
:1040F00020936D0420912401309125012115310573
:1041000041F42DB73EB74091280150912901241B5D
:10411000350BE0916D04F0916E04E217F307A0F403
:104120002E1B3F0B2817390778F0AC014E5F5F4F0D
:104130002417350748F04E0F5F1F50936E044093CD
:104140006D04819391939FCFF0E0E0E09CCFCF93FB
:10415000DF930097E9F0FC01329713821282A0915D
:104160006F04B0917004ED0130E020E01097A1F4ED
:1041700020813181820F931F20916D0430916E0454
:104180002817390709F061C0F0936E04E0936D04BD
:10419000DF91CF910895EA01CE17DF07E8F54A8154
:1041A0005B819E0141155105B1F7E901FB83EA836B
:1041B00049915991C40FD51FEC17FD0761F4808117
:1041C00091810296840F951FE901998388838281EA
:1041D00093819B838A83F0E0E0E012968D919C911D
:1041E00013970097B9F52D913C911197CD01029647
:1041F000820F931F20916D0430916E0428173907A8
:1042000039F6309751F51092700410926F04B09304
:104210006E04A0936D04BCCFD383C28340815181CF
:10422000840F951FC817D90761F44E5F5F4F8881CF
:104230009981480F591F518340838A819B819383C1
:1042400082832115310509F0B0CFF0937004E0931B
:104250006F049ECFFD01DC01C0CF13821282D7CF45
:1042600081E090E0F8940C944521FB01DC0102C050
:1042700001900D9241505040D8F70895DC0101C0E3
:104280006D9341505040E0F7089511E0C6EDD1E044
:1042900004C0FE010E94DC1F2196C73DD107C9F76B
:0442A000F894FFCFC0
:1042A4000F00F401D00704000401FFFFFFFF00E149
:1042B400000000000000F203F203F203F203F20331
:1042C40001010101000071048000121415040C9C0A
:1042D40001B501CF01EA0107022602470269028EF5
:1042E40002B502DE020A0300C18081000000000062
:1042F40000000A0585042B05200571052F054D05D1
:1043040000000000B308A808460C7E08A1088E0827
:104314007F0800000000D90E430F460C450C000036
:104324000000820700000000AF0D00000000050F30
:104334000D0A0044697374616E63652064726F765C
:10434400653B20006B6D20007475726E20436F6DA9
:10435400706C657465007472756E696E672052695D
:0E436400676874004348415247494E470000C5
:00000001FF
