:100000000C94D7010C945D0F0C94360F0C940F0FC9
:100010000C94E80E0C94FF010C94FF010C94C10E9B
:100020000C94FF010C941C140C94840F0C94F30F8B
:100030000C94FF010C94FF010C94FF010C94FF0140
:100040000C94FF010C94FF010C94FF010C94FF0130
:100050000C94FF010C94FF010C94FF010C94770E9B
:100060000C94FF010C94FF010C94FF010C94FF0110
:100070000C94FF010C94FF010C94FF010C94FF0100
:100080000C94FF010C94FF010C94FF010C94FF01F0
:100090000C9467140C94FF010C94FF010C94FF0165
:1000A0000C94FF010C9425120C94FF010000000039
:1000B0000000004F00000007000700147F147F14A9
:1000C000242A7F2A122313086462364955225000DD
:1000D00000070000001C2241000041221C001408FF
:1000E0003E081408083E08080050300000080808C0
:1000F0000808006060000020100804023E514945D5
:100100003E00427F400042615149462141454B310A
:100110001814127F1027454545393C4A4949300398
:10012000017109073649494936064949291E0036F1
:100130003600000056360000081422410014141442
:100140001414004122140802015109063249794170
:100150003E7E1111117E7F494949363E414141227F
:100160007F4141413E7F494949417F090909013E9B
:100170004149497A7F0808087F00417F41002040BB
:10018000413F017F081422417F404040407F020CE4
:10019000027F7F0408107F3E4141413E7F090909EB
:1001A000063E4151215E7F09192946464949493198
:1001B00001017F01013F4040403F1F2040201F3F81
:1001C0004038403F63140814630708700807615102
:1001D000494543007F41410002040810200041418D
:1001E0007F0004020102044040404040000102043C
:1001F0000020545454787F484444383844444420C0
:10020000384444487F3854545418087E0901020C7D
:100210005252523E7F0804047800447D4000204042
:10022000443D007F1028440000417F40007C0418BA
:1002300004787C0804047838444444387C1414144A
:1002400008081414187C7C080404084854545420EA
:10025000043F4440203C4040207C1C2040201C3C6B
:100260004038403C44281028440C5050503C4464D2
:10027000544C44000836410000007F000000413625
:1002800008000C02040806081C2A080800030C0FCA
:1002900030333C3FC0C3CCCFF0F3FCFF0000000084
:1002A0002300260029002C002F00080B0002020268
:1002B00000000904000001020200000524001001F2
:1002C0000524010101042402060524060001070596
:1002D000810310004009040100020A000000070524
:1002E00002024000000705830240000004030904E5
:1002F00012010002EF020140FB1F00230001010276
:100300000301506F6C6F6C7520436F72706F726178
:1003100074696F6E00506F6C6F6C7520412D537453
:100320006172203332553400506F7765723A200085
:1003300000000000240027002A002D0030000000EB
:100340000000250028002B002E00310004040404C6
:10035000040304050202020204030202020206066A
:100360000606060604040202020404040802011040
:1003700040804010204080408008020401804020DE
:1003800010020110801020404020000000020009EF
:100390000F0000030401000C00000000000000003A
:1003A00000000000000000000000B915CE1A112462
:1003B0001FBECFEFDAE0DEBFCDBF11E0A0E0B1E0BD
:1003C000E8E5FEE302C005900D92AE3AB107D9F719
:1003D00023E0AEEAB1E001C01D92A63FB207E1F70B
:1003E00011E0C6EDD1E004C02197FE010E94D01DAE
:1003F000C53DD107C9F70E9418160C941F1F0C9415
:1004000000005B9887FD5D9A87FF5D985B9A5B981B
:1004100086FD5D9A86FF5D985B9A5B9885FD5D9A87
:1004200085FF5D985B9A5B9884FD5D9A84FF5D987B
:100430005B9A5B9883FD5D9A83FF5D985B9A5B98FE
:1004400082FD5D9A82FF5D985B9A5B9881FD5D9A63
:1004500081FF5D985B9A5B9880FD5D9A80FF5D9857
:100460005B9A0895FC0180919302882311F13FB7B4
:10047000F89482E08093E9002091F200822F90E0CE
:100480001816190614F481E090E0882339F02898B2
:1004900044E6409392024091F1004083222339F0D8
:1004A0002091F200211103C02BE62093E8003FBF0A
:1004B00008958FEF9FEF08952FB7F89483E080930E
:1004C000E9009091E800892F807295FF04C0909117
:1004D000F20080E4891B2FBF089580918A02811168
:1004E0000DC082E08093860284E0809387021092A0
:1004F00089021092880281E080938A0286E892E065
:10050000089581508F3008F047C0E82FF0E0E5579C
:10051000FD4F0C94D01DA802AC029A02A002A402C6
:10052000CC02CC02CC02AF02B502B902BD02C302BA
:10053000CC02C702809180008F778093800008955D
:10054000809180008F7DF9CF80918000877FF5CFEB
:1005500084B58F7784BD089584B58F7DFBCF80915E
:1005600090008F77809390000895809190008F7D08
:10057000F9CF80919000877FF5CF8091C0008F7771
:100580008093C00008958091C0008F7DF9CF809145
:10059000C200877F8093C20008951F93CF93DF939B
:1005A000282F30E0F901E657FC4F8491F901E55915
:1005B000FC4FD491F901E45BFC4FC491CC23A9F02A
:1005C000162F81110E948102EC2FF0E0EE0FFF1F29
:1005D000E25CFC4FA591B4918FB7F894EC911111A6
:1005E00008C0D095DE23DC938FBFDF91CF911F91A0
:1005F0000895DE2BF8CFCF93DF9390E0FC01E5590F
:10060000FC4F2491845B9C4FFC0184918823C9F0AA
:1006100090E0880F991FFC01E05DFC4FA591B4911B
:10062000FC01E25CFC4FC591D49161110DC09FB7F4
:10063000F8948C91209582238C9388812823288399
:100640009FBFDF91CF910895623051F49FB7F89426
:100650003C91822F809583238C93E8812E2BEFCFC2
:100660008FB7F894EC912E2B2C938FBFEACF80910B
:10067000E5038F3F61F061E00E94FB0260E0809142
:10068000E5030E94CD028BE193E00197F1F7089515
:100690008091E5038F3F61F061E00E94FB0261E021
:1006A0008091E5030E94CD028BE193E00197F1F781
:1006B00008953FB7F8948091820290918302A091AF
:1006C0008402B091850226B5A89B05C02F3F19F082
:1006D0000196A11DB11D3FBFBA2FA92F982F8827C2
:1006E000BC01CD01620F711D811D911D42E0660F9D
:1006F000771F881F991F4A95D1F708958F929F926F
:10070000AF92BF92CF92DF92EF92FF924B015C01CA
:100710000E9459036B017C010E9459036C197D09E9
:100720008E099F09683E734081059105A8F321E079
:10073000821A9108A108B10888EEC80E83E0D81E7D
:10074000E11CF11C81149104A104B10429F7FF906C
:10075000EF90DF90CF90BF90AF909F908F900895D3
:10076000E0915E02F0915F02309729F010925B02F7
:1007700010925A0209940895CF93DF93AC01E0914F
:100780006002F09161023097F1F090915D028091EA
:100790005C029817C0F090E0292F30E02617370749
:1007A00054F4D901A255BE4F240F351FE901288109
:1007B0002C939F5FF1CF10925D0260935C02CB019E
:1007C000DF91CF910994DF91CF91089508954091E1
:1007D00050025091510220914E0230914F02421727
:1007E0005307B4F49091E8009570E1F39091E8001C
:1007F00092FD19C08093F1008091500290915102B6
:1008000001968F739927892B19F48EEF8093E80056
:1008100080915002909151020196909351028093E1
:10082000500281E0089580E00895DF92EF92FF92F8
:100830000F931F93CF93DF93D82E8A01EB017B0197
:10084000E40EF51ECE15DF0559F0D7FE12C0FE01ED
:1008500084910E94E70321968111F4CF0FEF1FEFDF
:10086000C801DF91CF911F910F91FF90EF90DF9022
:1008700008958881EECF0F931F93CF93DF931F923C
:10088000CDB7DEB782E0898342E450E06AEA72E0E5
:1008900080E80E9415040E946D02DC0112960D9101
:1008A0001C910115110589F0D801ED91FC91028090
:1008B000F381E02DBE016F5F7F4FC801099597FD61
:1008C00004C0F80100851185ECCF89810F90DF917C
:1008D000CF911F910F910895615030F02091F10058
:1008E000FC0120830196F8CF289884E68093920239
:1008F00008958F929F92AF92BF92CF92DF92EF9224
:10090000FF920F931F93CF93DF936C017B018A01BA
:1009100080911501882309F45CC08091930288239B
:1009200009F457C08091540280FF05C08091E00017
:1009300082608093E000E801B12C8AEFA82E93E05A
:10094000892E2AE3922E209711F4BB20D9F10E9420
:100950005C0281110AC0AA94AA20D9F161E070E07A
:1009600080E090E00E947E03EECF8C171D0611F010
:100970000CF08C2F9FB7F8948092E9002091E8004A
:1009800025FD02C09FBFDFCF282F30E0C21BD30B55
:10099000F701815020F041914093F100FACFE20E2F
:1009A000F31EBB2021F09092E800B12CEBCF809198
:1009B000E80085FDE7CF9092E800BB24B394209730
:1009C00009F3F3CF5D9884E6809353021016110665
:1009D0003CF081E090E0F6019383828310E000E038
:1009E000C801DF91CF911F910F91FF90EF90DF90A1
:1009F000CF90BF90AF909F908F900895CF93DF934B
:100A00001F92CDB7DEB76983DC01ED91FC910280C6
:100A1000F381E02D41E050E0BE016F5F7F4F09950B
:100A20000F90DF91CF91089583E08093E90080914A
:100A3000F200882319F08AE38093E80008950E9469
:100A40005C0290E00895CF93DF931F92CDB7DEB79D
:100A5000FC018485958597FD08C02FEF3FEF358712
:100A600024870F90DF91CF910895CE0101960E94C7
:100A70003202019719F4898190E0F3CF8FEF9FEF55
:100A8000F0CF0F931F93CF93DF931F92CDB7DEB7B5
:100A90008C01FC018485958597FF0BC0CE010196E2
:100AA0000E943202019771F4898190E0F8019587E4
:100AB0008487F801848595850F90DF91CF911F91F0
:100AC0000F9108958FEF9FEFF1CFFC0184859585FD
:100AD00097FD0BC09FB7F89482E08093E900809166
:100AE000F2009FBF90E0019608959FB7F89482E0CE
:100AF0008093E9008091F2009FBF90E0089580917B
:100B00004B02E0914C02F0914D02882339F0849120
:100B10009FEB980F9A3120F4805E08958081F8CF82
:100B2000803269F420914C0230914D02A9014F5F4F
:100B30005F4F50934D0240934C02232B01F70895D1
:100B40001F93CF93DF930E947F05D0E0C0E01AE0AF
:100B500090ED980F9A30B8F41C9F90011D9F300DB6
:100B60001124E901C80FD11D87FDDA95E097809126
:100B70004C0290914D02019690934D0280934C024D
:100B80000E947F05E5CFCE01DF91CF911F9108959F
:100B90003F924F925F926F927F928F929F92AF920D
:100BA000BF92CF92DF92EF92FF920F931F93CF935A
:100BB000DF937B01D42E2091480221111BC021E03C
:100BC00020934802109272001092C00034E03093DB
:100BD000C10039E03093C2002093C30023E020938A
:100BE000BF0028EE2093D1001092BF001092D200D7
:100BF000579A789410920901CC24C39497FF03C0AC
:100C00009F77AAE0CA2EC8E2CC9EC02D1124D0E066
:100C10008C179D0750F021E0EC01C21206C0C131D3
:100C200087E2D80710F0C0E1D7E24E01B12CA12C29
:100C30004C2C512C712C612C9E01AFEFB7E00E941F
:100C40005F1B640D751D861D971D9695879577957D
:100C50006795A30192010E943D1B60E072E18AE763
:100C600090E0312C3394621773078407950728F0BE
:100C70009695879577956795F5CFA30192010E9488
:100C8000A01D9E0136952795620F731F811D911D32
:100C9000A50194010E943D1B722E022F132F2AE002
:100CA000C21207C0CE0105966AE070E00E94BC1D2A
:100CB000EB01C83E83E0D80759F09701DE010E949E
:100CC0005F1B28EE33E040E050E00E94131B7901E7
:100CD000109272008091C100807F83298093C100AF
:100CE0001093BF007092D1004D2D403108F04FE0BD
:100CF00080E190E0841B910902C0169507958A95C2
:100D0000E2F71093BF000093D200F0924A02E09203
:100D1000490289B38FEF89BB84E080937200DF9131
:100D2000CF911F910F91FF90EF90DF90CF90BF90E8
:100D3000AF909F908F907F906F905F904F903F907B
:100D400008952E98269A2D98259A2A98229A2998BD
:100D5000219A80EA8093800081E18093810080E97C
:100D600091E0909387008093860010928900109202
:100D7000880010928B0010928A000895CF93DF9321
:100D8000EC0180914402811105C081E0809344020E
:100D90000E94A10680E0D7FF04C0D195C195D1097A
:100DA00081E0D0938900C0938800811102C0299806
:100DB00001C0299A219ADF91CF910895CF93DF93B3
:100DC000EC0180914402811105C081E080934402CE
:100DD0000E94A106D0938B00C0938A002A98229A81
:100DE000DF91CF9108959FB191708CB186FB8827D8
:100DF00080F989272091400230913F024091710291
:100E00005091720228273927231B330B240F351FDB
:100E1000309372022093710230913F022091400280
:100E2000381729F0291719F021E020933E0280930A
:100E30003F0290934002089524982C9A6A98729ADF
:100E40006E98769A8098889A81E08093680090E105
:100E500090936B008BBB83EF96E090931F01809380
:100E60001E01EAE6F0E080818F7C80618083EE9A4B
:100E70008CB182FB882780F98093430293B18091E3
:100E800043029295917089278093420210926F02DB
:100E900010926E02109241028FB1817080934002D5
:100EA0009CB18091400296FB992790F98927809305
:100EB0003F02109272021092710210923E02089547
:100EC0005F926F927F928F929F92AF92BF92CF92DA
:100ED000DF92EF92FF920F931F93CF93DF93FC016A
:100EE00022853385232B09F492C06B01EC0110E0BD
:100EF0008C851817E8F4E12EF12C8E859F85F7017B
:100F0000EE0FFF1FEC0DFD1D91838083EA85FB85AD
:100F1000EE0DFF1D61E080810E94CD02EA85FB8518
:100F2000EE0DFF1D61E080810E94FB021F5FE0CF9C
:100F300083E290E00197F1F710E08C851817A0F498
:100F4000E12EF12CEA85FB85EE0DFF1D60E080812E
:100F50000E94FB02EA85FB85EE0DFF1D60E08081AB
:100F60000E94CD021F5FE9CF0E9459034B015C0133
:100F70000E945903AB01BC01481959096A097B0950
:100F80008E859F85B0E0A0E0481759076A077B0768
:100F900008F03DC00E9459037B01E818F908612C54
:100FA0008C85681628F7062D10E0EA85FB85E00F92
:100FB000F11F208130E0F901E657FC4F8491F901DF
:100FC000E559FC4F7490F901E45BFC4F54905110CB
:100FD0000CC0000F111FF601E00FF11F80819181FD
:100FE000E816F90688F06394DBCF81110E94810234
:100FF000E52DF0E0EE0FFF1FE456FD4FA591B491F3
:10100000EC917E2231F3EFCFF182E082ECCFDF91E1
:10101000CF911F910F91FF90EF90DF90CF90BF90F5
:10102000AF909F908F907F906F905F9008952091E8
:10103000F401260F3327331F21323105ECF42091C0
:101040001802FC0190E080E0243069F082E008950D
:10105000A091F4012191AC014C525E4FA40FB52F29
:10106000B11D2C930196861798F38091F401680FB7
:101070006093F40180E0089581E0089510921802D1
:1010800081E080931A021092190261E082E00E94CE
:10109000CD0261E083E00E94CD02E9EBF0E08081C7
:1010A0008E7F808380818D7F808388E48093B800E9
:1010B00085E48093BC0008950895E0915D028091DD
:1010C0005C02E81730F4F0E0E255FE4F808190E0DA
:1010D00008958FEF9FEF089590915D0280915C02DB
:1010E0002FEF3FEF981748F4E92FF0E0E255FE4F5D
:1010F000208130E09F5F90935D02C9010895809147
:101100005C0290915D02891B990B0895CF93DF9348
:10111000CB01EA01642F0E941708CE01DF91CF9125
:101120000895CF93DF931F92CDB7DEB7698361E057
:10113000CE0101960E94170881E090E00F90DF91A8
:10114000CF910895289A209A08952898209A089572
:101150005F926F927F928F929F92AF92BF92CF9247
:10116000DF92EF92FF920F931F93CF93DF935C0177
:10117000D62FC42FF22E132F0E94A5088D2F806B1F
:101180000E9401028C2F82958F7080610E94010263
:101190008C2F8F700E9401020E94A208CF2DD12FA8
:1011A0000C0F1D2F111D95E0692EC017D10709F4F2
:1011B00044C07990872D8052990B9C01629EC0019A
:1011C000639E900D1124769C40011124F12CE12C9A
:1011D0009C0124553F4F69013FE1371508F5F601A1
:1011E000EE0DFF1DE491F0E084E0F595E7958A951A
:1011F000E1F7E457FD4F5490852D0E940102852DA3
:101200000E9401029FEFE91AF90A25E0E216F104B3
:1012100019F780E00E94010280E00E940102C5CF20
:1012200087E0E0E08715F8F2F401EE0DFF1DE254CF
:10123000FF4FEA0DFB1DE081D6CFDF91CF911F91CB
:101240000F91FF90EF90DF90CF90BF90AF909F9065
:101250008F907F906F905F9008955F926F927F92D2
:101260008F929F92AF92BF92CF92DF92EF92FF92B6
:101270000F931F93CF93DF935C01D62FC42FF22ED1
:10128000132F0E94A5088D2F806B0E9401028C2FC6
:1012900082958F7080610E9401028C2F8F700E9456
:1012A00001020E94A208CF2DD12F0C0F1D2F111D5E
:1012B00085E0682EC017D10709F440C07990872DCA
:1012C0008052990B9C01629EC001639E900D112477
:1012D000769C40011124F12CE12C9C0124553F4FB8
:1012E00069013FE13715E8F4F601EE0DFF1DE491C9
:1012F000EF70F0E0E457FD4F5490852D0E940102FD
:10130000852D0E9401029FEFE91AF90A25E0E216F5
:10131000F10439F780E00E94010280E00E9401029E
:10132000C9CF87E0E0E0871518F3F401EE0DFF1D4B
:10133000E254FF4FEA0DFB1DE081DACFDF91CF9140
:101340001F910F91FF90EF90DF90CF90BF90AF90E3
:101350009F908F907F906F905F9008956F927F9293
:101360008F929F92AF92BF92CF92DF92EF92FF92B5
:101370000F931F93CF93DF935C01D62FC42FF22ED0
:10138000132F0E94A5088D2F806B0E9401028C2FC5
:1013900082958F7080610E9401028C2F8F700E9455
:1013A00001020E94A208CF2DD12F0C0F1D2F111D5D
:1013B00085E0682EC017D107A9F17990872D80525A
:1013C000990B9C01629EC001639E900D1124769C36
:1013D00040011124F12CE12C9C0124553F4F69015F
:1013E0003FE1371588F4F601EE0DFF1D84910E9450
:1013F00001029FEFE91AF90A25E0E216F10481F7EC
:1014000080E00E940102D6CF87E0871548F0F701FF
:10141000E80DF91DE254FF4FEA0DFB1D8081E7CF77
:1014200080E0E5CFDF91CF911F910F91FF90EF907A
:10143000DF90CF90BF90AF909F908F907F906F90F4
:101440000895282F21FB0EF0209820FB0EF02898FD
:101450000EF4289A21FB0EF4209A089560917402EC
:1014600084EE92E00C949108CF93DF93EC012881F5
:1014700021FB0EF0559820FB0EF05D980EF45D9A5E
:1014800021FB0EF4559A89810E94210AE9EEF0E0D1
:1014900010828C818093F0008B8180838A8180937D
:1014A000E200DF91CF910895FC01A2EEB0E08C91B3
:1014B00082831C92A9EEB0E08C9183831C92A0EFF2
:1014C000B0E08C9184831C9220E05D992160559955
:1014D0002260208320E028992160209922602183C6
:1014E0005D98559A0895CF92DF92EF92FF920F93F5
:1014F000CF93DF93EC017C0184E0E80EF11CC7017F
:101500000E94540A6E0184E1C80ED11C08E09601C5
:1015100043E162E0CE010E942D09960143E163E0C0
:10152000CE010E94A8086E0189E2C80ED11C960166
:1015300043E165E0CE010E942D09960143E166E09A
:10154000CE010E94A808C701DF91CF910F91FF90B3
:10155000EF90DF90CF900C94340AEF92FF920F93AC
:10156000CF93DF93EC017C0184E0E80EF11CC7010E
:101570000E94540A9E012C5E3F4F05E142E060E06C
:10158000CE010E94AE099E01275D3F4F42E061E01F
:10159000CE010E94AE099E01225C3F4F42E062E014
:1015A000CE010E94AE099E012D5A3F4F42E063E0FA
:1015B000CE010E94AE099E0128593F4F42E064E0EF
:1015C000CE010E94AE099E0123583F4F42E065E0E4
:1015D000CE010E94AE099E012E563F4F42E066E0CA
:1015E000CE010E94AE099E0129553F4F42E067E0BF
:1015F000CE010E94AE09C701DF91CF910F91FF90FC
:10160000EF900C94340AEF92FF920F931F93CF93B5
:10161000DF938C017C0184E0E80EF11CC7010E947D
:10162000540A0E94A50882E00E940102C0E00E94C4
:10163000A5088C2F806B0E94010280E10E940102AC
:101640000E94A208D0E080E00E940102DF5FD03853
:10165000D1F7CF5FC83059F7C7010E94340AF801AB
:101660001286DF91CF911F910F91FF90EF90089517
:10167000AF92BF92CF92DF92EF92FF920F931F93A0
:10168000CF93DF937C01122F683008F043C04230C3
:1016900008F040C088E0861B8217D0F12223D1F1E8
:1016A000C42FCC0FC40FDCE06D9FD02D1124DD5E64
:1016B000670124E1C20ED11C862F90E025E1429FF4
:1016C000800D911D1124C80ED91E570184E0A80E6B
:1016D000B11CC5010E94540A62E06C0F012F9601F3
:1016E0004D2FC7010E942D0963E06C0F96014D2F0D
:1016F000C7010E94A808C501DF91CF911F910F91EA
:10170000FF90EF90DF90CF90BF90AF900C94340A91
:10171000182FC6CFDF91CF911F910F91FF90EF90BF
:10172000DF90CF90BF90AF900895BF92CF92DF929D
:10173000EF92FF920F931F93CF93DF93EC01162F3D
:10174000B42E022F653198F527E0241780F185E14A
:10175000861B801750F1002351F1CE014496E12EF3
:10176000F12C25E1B29EE00CF11C1124E80EF91ECB
:101770006E0184E0C80ED11CC6010E94540A412F9C
:10178000440F410F440F4E5F97016B2DCE010E9415
:10179000AE09C601DF91CF911F910F91FF90EF909D
:1017A000DF90CF90BF900C94340A082FD6CFDF91F2
:1017B000CF911F910F91FF90EF90DF90CF90BF904E
:1017C0000895089590E080E008950E940A1FFB01AB
:1017D00001900020E9F73197AF01461B570BDC0160
:1017E000ED91FC910280F381E02D09948F929F92FC
:1017F000AF92BF92EF92FF920F931F93CF93DF931D
:10180000CDB7DEB7A1970FB6F894DEBF0FBECDBF40
:101810007C01FA01CB0119A2223008F42AE08E01E2
:101820000F5D1F4F822E912CB12CA12CBF01A50161
:1018300094010E943D1BF901CA016A300CF5605DFC
:10184000D8016E938D01232B242B252B79F790E063
:1018500080E0109721F0BD01C7010E94E70BA1961F
:101860000FB6F894DEBF0FBECDBFDF91CF911F91B1
:101870000F91FF90EF90BF90AF909F908F90089541
:10188000695CDECFCF93DF9385ED8093BC008091C0
:10189000D0019091D101A091D201B091D3010796CE
:1018A000A11DB11D23E0B695A795979587952A951B
:1018B000D1F72091BC0024FD03C01092180236C05D
:1018C0004091D0015091D1016091D2017091D3012A
:1018D000452B462B472B69F30097A105B10541F035
:1018E0002AE22A95F1F700C00197A109B109E1CFD9
:1018F0008091CF0191E09093CE018823B9F0C091FF
:10190000B800D091BA008091BC008A7B8093BC0063
:1019100060E082E00E94CD0260E083E00E94CD02A0
:101920000E943E08D093BA00C093B800DF91CF91D7
:1019300008950F931F93CF93DF93EC015B98539A15
:101940005A98529A85E38A95F1F700005A9A529A6A
:1019500085E38A95F1F70000CE010E94030B8E010A
:101960000C5F1F4FC8010E94540A0E94A50881EA1B
:101970000E94010288EC0E94010281E80E9401029B
:101980008FEF0E9401028FEA0E940102C8010E94AB
:10199000340A81E08987DF91CF911F910F910895DB
:1019A000FF920F931F93CF93DF93EC01162F042F19
:1019B000F22E8985811103C0CE010E94990C8A857F
:1019C000882319F0CE010E94030B2A893B89C901A3
:1019D000959587958C0F9D1FE889F98920FF08C090
:1019E000DC012D913C91E20FF31F0190F081E02D7D
:1019F0002F2D402F612FDF91CF911F910F91FF90DD
:101A00000994CF93DF93DC01A354BF4F2C9128306E
:101A100008F5EC01C454DF4FE881E531D8F4AC019E
:101A200075E1279F400D511D1124E40FF52FF11D85
:101A3000648BFC012385211105C021E04C91688154
:101A40000E94D00C88818F5F888381E090E0DF91D5
:101A5000CF91089590E080E0FACF48EA50E060E24C
:101A600070E084E093E00E94181F1092AC03109283
:101A7000AD038091FB0281112AC08091F90281118E
:101A800004C080EF92E00E94990C8091FA028823B2
:101A900021F080EF92E00E94030B2091FE02309132
:101AA000FF02C9019595879580519D4FE091FC02F9
:101AB000F091FD0220FF08C0DC012D913C91E20F66
:101AC000F31F0190F081E02D09951092FB0208951B
:101AD000CF92DF92EF92FF92CF93DF9380915C02DF
:101AE00090915D02891B990B181619060CF069C0BC
:101AF00084EE92E00E946C08EC016C01990FEE08F4
:101B0000FF082AE0B701A601F7FE0DC06DE284E9E7
:101B100092E00E94FE0444275527BA014C195D0942
:101B20006E097F092AE084E992E00E94F60B6CE8D6
:101B300071E084E992E00E94E70B259779F68FB770
:101B4000F89440917E0250917F02609180027091E2
:101B500081028FBF109278021092790210927A025D
:101B600010927B0210927C020E942D0D6FE871E0B2
:101B700080EF92E00E94E70B6CE871E080EF92E06A
:101B80000E94E70B68E873E180E090E00E947E032A
:101B90000E942D0D82E390E00E94DE0682E390E039
:101BA0000E94BE0664EF71E080E090E00E947E0338
:101BB00090E080E00E94DE0690E080E00E94BE0699
:101BC0008DCFDF91CF91FF90EF90DF90CF90089570
:101BD000AF92BF92CF92DF92EF92FF920F931F933B
:101BE000CF93DF9382EEE82EF12CF7010081108273
:101BF000C9EED0E0B880188290EFC92ED12CF60142
:101C0000A080108220E02899216020992260822FF4
:101C10002098289A90E19A95F1F713B10E94210A31
:101C20001882F601A082B882F7010083812F809587
:101C30008170DF91CF911F910F91FF90EF90DF9016
:101C4000CF90BF90AF9008950C94051BBF92CF9298
:101C5000DF92EF92FF920F931F93CF93DF938C014C
:101C6000EA016C012DEBC20ED11CF6013081383037
:101C7000D8F57C01FCEBEF0EF11CF701808185317A
:101C800098F525E1281B90E02417150620F4C5E1FE
:101C9000D0E0C81BD90BF5E13F9F800D911D1124A9
:101CA000AE0198012C5E3F4F820F931F0E940F1FC1
:101CB000BC2EF8018385811108C02C2FF6014081CC
:101CC000F7016081C8010E94D00CF70180818B0D63
:101CD0008083CE01DF91CF911F910F91FF90EF9004
:101CE000DF90CF90BF900895D0E0C0E0F2CF1F9278
:101CF0000F920FB60F9211242F933F938F939F93C0
:101D0000AF93BF9380917E0290917F02A091800259
:101D1000B091810230917D0223E0230F2D3758F5D9
:101D20000196A11DB11D20937D0280937E029093A8
:101D30007F02A0938002B0938102809182029091F1
:101D40008302A0918402B09185020196A11DB11D6C
:101D50008093820290938302A0938402B0938502C1
:101D6000BF91AF919F918F913F912F910F900FBE97
:101D70000F901F90189526E8230F0296A11DB11D04
:101D8000D2CF1F920F920FB60F9211242F933F9331
:101D90004F935F936F937F938F939F93AF93BF9373
:101DA000EF93FF93E0911E01F0911F010995FF91C0
:101DB000EF91BF91AF919F918F917F916F915F91C3
:101DC0004F913F912F910F900FBE0F901F9018953C
:101DD0001F920F920FB60F9211242F933F934F93A0
:101DE0005F936F937F938F939F93AF93BF93EF9383
:101DF000FF93E0911C01F0911D010995FF91EF9176
:101E0000BF91AF919F918F917F916F915F914F9112
:101E10003F912F910F900FBE0F901F9018951F921A
:101E20000F920FB60F9211242F933F934F935F930E
:101E30006F937F938F939F93AF93BF93EF93FF9392
:101E4000E0911A01F0911B010995FF91EF91BF916B
:101E5000AF919F918F917F916F915F914F913F9142
:101E60002F910F900FBE0F901F9018951F920F92F9
:101E70000FB60F9211242F933F934F935F936F935D
:101E80007F938F939F93AF93BF93EF93FF93E091D3
:101E90001801F09119010995FF91EF91BF91AF9150
:101EA0009F918F917F916F915F914F913F912F9172
:101EB0000F900FBE0F901F9018951F920F920FB6A4
:101EC0000F9211242F933F934F935F936F937F93C0
:101ED0008F939F93AF93BF93EF93FF93E09116017E
:101EE000F09117010995FF91EF91BF91AF919F91EB
:101EF0008F917F916F915F914F913F912F910F90B3
:101F00000FBE0F901F9018951F920F920FB60F9251
:101F100011248F939F938091E1009091E100937F32
:101F20009093E10083FF0FC01092E90091E090933D
:101F3000EB001092EC0092E39093ED00109293026C
:101F400098E09093F00082FF22C093E09093E90024
:101F50009091F200992319F09AE39093E800909100
:101F60005302992341F09091530291509093530260
:101F7000911101C05D9A90919202992341F0909144
:101F80009202915090939202911101C0289A84FF7D
:101F900018C08091E2008E7E81608093E200809183
:101FA000E1008F7E8093E100809154028E7E8061FB
:101FB000809354029F918F910F900FBE0F901F90AE
:101FC000189580FFF7CF8091E2008E7E806180932C
:101FD000E2008091E1008E7E8093E10080915402C6
:101FE0008E7E8160E5CF1F920F920FB60F92112463
:101FF000CF92DF92EF92FF920F931F932F933F9315
:102000004F935F936F937F938F939F93AF93BF9300
:10201000EF93FF93CF93DF93CDB7DEB76C97DEBF1F
:10202000CDBF1092E9008091E80083FF25C068E0F1
:10203000CE0145960E946C0482EF8093E8008D8962
:1020400087FF39C09091E80090FFFCCF982F9076E1
:1020500009F034C19E894F89588D2F89F88C9111D0
:1020600031C0803861F5809155028093F100109263
:10207000F1008EEF8093E8006C960FB6F894DEBF07
:102080000FBECDBFDF91CF91FF91EF91BF91AF9187
:102090009F918F917F916F915F914F913F912F9180
:1020A0001F910F91FF90EF90DF90CF900F900FBE98
:1020B0000F901F9018959EEF9093E800C7CF109255
:1020C000F100D5CF913059F48111D3CF4130510572
:1020D00081F6809155028D7F80935502CACF93304F
:1020E00049F48111C6CF4130510519F6809155024E
:1020F0008260F2CF953041F48091E80080FFFCCF00
:1021000020682093E300B5CF963009F0A9C00B8D6D
:102110001C8D22E01092E9001092510210925002A0
:10212000F2122EC010924F0210924E020E943B04F7
:102130001F8299E09983FA8291E09E8390EA9887C2
:102140009AEF99872091500230915102275F3F4FBB
:102150003C832B838D831092E900109251021092E0
:10216000500210934F0200934E0249E050E0BE012E
:102170006F5F7F4F80E00E9415040E943B0479CF7F
:1021800010934F0200934E020E946D02DC011296E2
:102190000D911C910115110509F451C1D801ED9162
:1021A000FC910480F581E02DBE016B5E7F4FC8017C
:1021B0000995009709F03EC1F80100851185EACF25
:1021C000F3E0FF120EC08F89882309F440C08230EB
:1021D00061F440E862E185E193E00E948615811197
:1021E00048CF81E28093EB0047CF813029F440E86B
:1021F00062E182E093E0F1CF833099F70E946D02B3
:10220000DC011296ED90FC908E010F5F1F4F68016C
:10221000E114F10479F0D701ED91FC910680F7818A
:10222000E02DB801C7010995080F111DF701E084E1
:10223000F184EECFD8011C92F60101900020E9F75D
:102240003197BF016C197D0940E0C601C6CF6CEE25
:1022500072E0FB01449150E080E80E94150409CF30
:10226000973009F4BECF983021F481E08093F100DB
:1022700000CF993009F0FDCE837009F0B2CFE4E4CD
:10228000F1E081E031E096E32191222371F0809327
:10229000E9003093EB00DF0111972C912093EC00C3
:1022A0009093ED008F5F873079F78EE78093EA0097
:1022B0001092EA008F8980939302DBCE8B8D9C8DE8
:1022C0001092E900109251021092500290934F0226
:1022D00080934E02898D811192C08E899D89913A99
:1022E00049F4813209F07DCF47E050E06EE071E0C3
:1022F00080E0B3CF913209F074CF833269F48F89D3
:10230000988DB0E0A0E080930A0190930B01A09318
:102310000C01B0930D01ADCE803269F48091E800DC
:1023200082FFFCCF67E08EE091E00E946C048BEFAF
:102330008093E8009ECE823209F09BCE8F898093F5
:102340001501EEEFFFE7859194918B3F9C4D51F184
:10235000E0E0F8E080910E0190910F01A091100152
:10236000B0911101803B9440A105B105F1F4809139
:10237000150180FD1AC0EE3F8AE0F80789F587E76E
:1023800097E791838083809160008093520288E177
:102390009BE00FB6F894A895809360000FBE9093D1
:1023A000600067CEEEEFFAE0D5CF8081918187376C
:1023B000974709F05ECEA895809160008861809370
:1023C00060008091520280936000EE3F2AE0F207A5
:1023D00089F08091FE0A9091FF0A9183808349CE13
:1023E000808191818737980751F29093FF0A8093FB
:1023F000FE0AC5CF1092FF0A1092FE0A3ACE0E9442
:102400006D02DC0112960D911C910115110509F464
:10241000E8CED801ED91FC910190F081E02DBE0154
:102420006B5E7F4FC8010995811123CEF8010085AD
:102430001185EBCF181619060CF41BCED2CEF1E0A5
:10244000FF12BECE60EF72E004CF1F920F920FB664
:102450000F9211244F925F926F927F928F929F9270
:10246000AF92BF92CF92DF92EF92FF920F931F93A2
:102470002F933F934F935F936F937F938F939F938C
:10248000AF93BF93CF93DF93EF93FF93C091490234
:10249000D0914A02CE01019790934A02809349025B
:1024A0002097A1F51092720078948091C100807FEE
:1024B00084608093C10083E08093BF0088EE8093A6
:1024C000D1001092BF001092D20081E080930901E8
:1024D00080914C0290914D02892BC1F0809147026E
:1024E000811114C07090080180914602882379F10F
:1024F00080914502882359F16091450270E040E0E7
:1025000088EE93E00E94C80510924502FF91EF917A
:10251000DF91CF91BF91AF919F918F917F916F91FB
:102520005F914F913F912F911F910F91FF90EF90ED
:10253000DF90CF90BF90AF909F908F907F906F90E3
:102540005F904F900F900FBE0F901F9018955524DD
:10255000539470ECA72E7DE5B72EEAE04E2EF4E002
:102560006F2EA0EDCA2EA7E0DA2EB4E0EB2EF12CF0
:1025700004EF11E08FE0882E912C0E947F052091BE
:102580004C0230914D022F5F3F4F30934D0220930C
:102590004C02853609F473C00CF047C0813609F44B
:1025A000B4C024F58C3309F468C08E3309F463C0D9
:1025B000813209F043C060920801D0920501C092B7
:1025C0000401F0920701E0920601109303010093C9
:1025D00002019092010180920001109246027090D7
:1025E00008018091020190910301C7CF833609F45D
:1025F0008FC010E00BE0843614F010E002E04CE0F5
:10260000749E000D11240E947F05982F977F9332AE
:1026100009F080C080914C0290914D0201969093F8
:102620004D0280934C020F5FEECF8D3609F445C00A
:1026300054F4873651F134F18C3651F110924D0239
:1026400010924C0263CF823709F44CC044F48F36A9
:10265000A9F70E94A005782E809308018ECF8437B9
:1026600009F443C0863751F70E94A00590930101F9
:102670008093000182CF739480CF7A947ECF10E054
:1026800004E0BDCF10E005E0BACF10E007E0B7CF1F
:102690000E94A00590930701809306018091040198
:1026A0009091050160910601709107010E94BC1D87
:1026B000709303016093020160CF0E947F058C3606
:1026C00061F41092460280914C0290914D02019665
:1026D00090934D0280934C0250CF5092460210923C
:1026E0004502F1CF11E000E08ACF0E94A005BC01B5
:1026F000C5010E94BC1D469EC001479E900D11243D
:102700009093050180930401C9CF10E009E077CFD1
:1027100010E0E9CF8D3269F480914C0290914D0226
:10272000019690934D0280934C0201500E947F05C8
:10273000F1CFE0900201F09003018153883058F40A
:10274000E0900401F09005010E94A005BC01C701C2
:102750000E94BC1D7B016701D694C7940E947F052F
:102760008E3261F480914C0290914D0201969093CB
:102770004D0280934C02EC0CFD1CEECF8091460282
:10278000882349F0C70196958795809345028091EB
:102790004502E81AF108C0900001D0900101111122
:1027A00004C00F3F11F0C11007C040E0B70188EE30
:1027B00093E00E94C805AACE013128F010EF100F57
:1027C000103608F01FE5812F6CE00E94B01D582FD5
:1027D00044EF450390011124210F311D2C303105A8
:1027E00038F4220F331FF901E55DFE4FC081D1811E
:1027F0008730C1F0082E02C0CC0FDD1F0A94E2F72B
:10280000823040F0CE0105966AE070E00E94BC1D67
:10281000CB0102C0CE0190584C2D403108F04FE062
:10282000B701C7CFCE0126E0880F991F2A95E1F79F
:10283000029665E070E0EACF1F920F920FB60F92FA
:1028400011242F933F934F936F937F938F939F9375
:102850008CB1282F30E03595279535952795422F57
:10286000417083B190E064E0959587956A95E1F7B2
:1028700082278170209143029091420260916E0202
:1028800070916F0228279427291B330B260F371FBF
:1028900030936F0220936E02209142029091430286
:1028A000281729F0941719F091E090934102809332
:1028B0004202409343029F918F917F916F914F917C
:1028C0003F912F910F900FBE0F901F9018951F9260
:1028D0000F920FB60F9211242F933F934F935F9354
:1028E0006F937F938F939F93AF93BF93EF93FF93D8
:1028F0008091B900887F803609F44AC0F0F58832AB
:1029000009F4A7C018F5803109F49BC0B8F48823F6
:1029100009F4F9C0883009F494C0FF91EF91BF9198
:10292000AF919F918F917F916F915F914F913F9167
:102930002F910F900FBE0F901F901895883109F4BA
:1029400088C0803251F78093170214C0803409F494
:102950009DC040F48033B9F38833F9F680931702B1
:1029600085ECB0C0803509F485C0883509F496C07F
:10297000883499F60E94420CD0CF883909F48CC073
:1029800038F5883729F050F4883611F0803729F669
:1029900083E0809318021092160257C0883809F419
:1029A0007BC0803919F0803809F0B7CF80911602CA
:1029B000803208F071C0E091160281E08E0F8093A2
:1029C00016028091BB00F0E0EA50FE4F80833DC0CC
:1029D000803B39F0E0F4803A09F479C0883A09F094
:1029E0009CCF84E0809318021092F5011092F401BC
:1029F000E0915802F091590209958091F4018111FA
:102A00000FC081E08093F4011092D40109C0803C92
:102A100009F4A6CF883C09F4A3CF883B09F07DCF09
:102A2000E091F50181E08E0F8093F501F0E0EC522A
:102A3000FE4F80818093BB009091F5018091F4015D
:102A400029C080913D028093BB0085EC8093BC003F
:102A500064CF90913C0280913B02981758F5E09129
:102A60003C0281E08E0F80933C02F0E0E55EFD4F7A
:102A70008081E9CFE0913C0281E08E0F80933C029F
:102A80008091BB00F0E0E55EFD4F808390913C02B9
:102A900080913B029817C8F285E8D8CFE0913C02BC
:102AA00081E08E0F80933C028091BB00F0E0E55EF8
:102AB000FD4F808380911A0281115CCF81E0809369
:102AC000190284EA8093BC001092180226CF85EC8C
:102AD0008093BC001092180280911602803230F46C
:102AE000E0911602F0E0EA50FE4F1082609116026B
:102AF00070E0E0915602F091570286EF91E009955F
:102B0000109216020ACF1092170234CFEF92FF9262
:102B10000F931F93CF93DF93F82E192FE62E042FD8
:102B200081E0860F880F0E94E70383E00E94E7039D
:102B3000CF2DD12FEC0EFD2EF11CCE15DF05B9F0F7
:102B400007FF13C0FE0184910E94E703182F80E065
:102B50000E94E703812321968111EFCFDF91CF916E
:102B60001F910F91FF90EF9008958881EDCF81E044
:102B7000F5CFCF93DF93E4E9F2E01382128288EE7F
:102B800093E0A0E0B0E084839583A683B7832EE42E
:102B900031E0318320832FEF3FEF35872487E4EE48
:102BA000F2E01382128284839583A683B78380E642
:102BB00091E091838083EAEEF3E0128215828AE845
:102BC00091E091838083E8EDF3E013821282158215
:102BD00014821782168211861086138612868EE75B
:102BE00091E091838083C0EFD2E01B821A8248EA91
:102BF00050E060E270E084E093E00E94181F1092C1
:102C0000D7031092D60383E79AE09D878C871F86AF
:102C10001E8688E39BE0998B888B1B8A1A8A81E049
:102C20008A8782E791E099838883DF91CF91089525
:102C3000CF93DF93CDB7DEB7C156D1090FB6F89465
:102C4000DEBF0FBECDBF789484B5826084BD84B5ED
:102C5000816084BD85B5826085BD85B5816085BD97
:102C600080916E00816080936E001092810080914F
:102C700081008260809381008091810081608093D7
:102C8000810080918000816080938000809191001C
:102C90008260809391008091910081608093910087
:102CA000809190008160809390008091C100846049
:102CB0008093C1008091C10082608093C1008091A7
:102CC000C10081608093C1008091C30081608093C6
:102CD000C3008091C00082608093C0008091C200D8
:102CE00081608093C20080917A00846080937A0032
:102CF00080917A00826080937A0080917A0081606E
:102D000080937A0080917A00806880937A00109294
:102D1000930210925502109254028091D700816064
:102D20008093D70080EA8093D80089B5806189BDFF
:102D300089B5826089BD89B5282F2170A2962FAFF1
:102D4000A29780FFF8CF61E070E080E090E00E9401
:102D50007E038091D8008F7C80618093D800809121
:102D6000E000807F8093E0008091E1008E7E809380
:102D7000E1008DE08093E200559A209A10925D0266
:102D800010925C0210925B0210925A020E943E085E
:102D900080EB93E090935902809358028CEB93E080
:102DA000909357028093560282E08093BA008FEF8F
:102DB0009FEF9093A1028093A0028EE29AE09093FD
:102DC0005F0280935E0288E69DE0909361028093AB
:102DD00060021092D7031092D6038DEA9AE0909386
:102DE000FD028093FC021092FF021092FE0285E920
:102DF0009BE09093010380930003109203031092D1
:102E0000020381E08093FA0264E670E080E090E0E3
:102E10000E947E0360E590E080E00E94240E60E066
:102E200081E090E00E94240E60E082E090E00E9449
:102E3000240E90E080E00E94FD1A8093730281E0EE
:102E400090E00E94FD1A682F70E090E080E00E9400
:102E50007C1C6093790270937A0280937B0290933A
:102E60007C0282E090E00E94FD1A8093780285E067
:102E7000E6E2F1E0DE01119601900D928A95E1F70C
:102E80001092DB031092DA031092DD031092DC0340
:102E90001092DF031092DE031092E1031092E00320
:102EA0001092E9031092E80385E08093E403809197
:102EB000E2039091E303892BC9F080E09091E40351
:102EC000891708F067C0282F30E0E091E203F09105
:102ED000E303E20FF31F41E050E04C0F5D1F240FAE
:102EE000351FD9019C9190838F5FE8CF85E090E0FA
:102EF0000E94E51D9093E3038093E203892BE9F69A
:102F000080ED97E09093E7038093E6038AEE93E0E9
:102F10000E94E80D8823D1F36AE070E080E090E041
:102F20000E947E038AEE93E00E94E80D882371F3ED
:102F300084E690E00E94DE068CE99FEF0E94BE06C8
:102F40008FB7F894C0907E02D0907F02E09080020C
:102F5000F09081028FBF8091DC039091DD03892B7B
:102F6000E9F40091E40310E0C801880F991F0E9462
:102F7000E51D9093DD038093DC03009709F4AAC05C
:102F8000FC0190E080E08017910744F411921192C7
:102F90000196F9CF8BE08093E503B2CF8091DA03FD
:102FA0009091DB03892BE9F40091E40310E0C80160
:102FB000880F991F0E94E51D9093DB038093DA032D
:102FC000009709F487C02091E6033091E703FC01E4
:102FD00090E080E08017910724F4219331930196CB
:102FE000F9CF10E000E00E944803BE016F5B7F4F05
:102FF00088ED93E00E9460070E9437036090E4032D
:10300000712CFE0131964F019E012F5D3F4FAE01A5
:103010004F5B5F4F5A012901DF0150E040E0461548
:10302000570524F5F501819191915F010115110575
:1030300099F0F201608171816817790768F06D91EC
:103040007C9111978617970768F04F5F5F4F129634
:10305000F2E04F0E511CE3CFF20191838083011502
:10306000110569F711969C938E93EFCF0F5F1F4F59
:103070000A30110509F0B7CFA091DA03B091DB0354
:103080000091DC031091DD0390E080E04091E403C7
:1030900048171906F9F0F4F0F401419151914F01EC
:1030A000F801608171816417750710F451834083C2
:1030B000F901419151919F016D917C9111974617B2
:1030C000570718F411965C934E93019612960E5F73
:1030D0001F4FDCCF2FB7F89480917E0290917F0232
:1030E000A0918002B09181022FBF8C199D09AE0979
:1030F000BF09803A9F40A105B10508F42CCF90E0AC
:1031000080E00E94DE0690E080E00E94BE06F5E0CE
:103110002F2E312C412C512C11E08091DA0390910B
:10312000DB03892B09F454C08091DC039091DD030B
:10313000892B09F44DC00E94480362E672E088EDD5
:1031400093E00E9460070E943703A090E403B12C33
:10315000E2E6CE2EE2E0DE2E6090DC037090DD032E
:103160008090DA039090DB03F12CE12CEA14FB044D
:103170007CF5D301ED91FD913D01D4018D919D919F
:103180004D01E81BF90BD1F0D6012D913C9150E097
:1031900040E0281B390B41095109A8EEB3E00E9419
:1031A000321B9F0150E040E00E94131B293EB3E018
:1031B0003B0714F028EE33E037FF02C030E020E098
:1031C000F601219331936F01FFEFEF1AFF0ACECF83
:1031D0000091E40372E6C72E72E0D72EF12CE12CA9
:1031E00050E040E0812C912C5401612C712C07158A
:1031F000F1F0D601ED91FD916D01E93CF1059CF4F2
:10320000E333F10554F09701DF010E94D61D860ECD
:10321000971EA81EB91E4E0F5F1F7394B8E1EB1ADC
:10322000BCEFFB0AE4CFA2966FACA297ECCF611083
:10323000A5C1E02FE150FF0B44EF51E0E49FC00136
:10324000E59F900DF49F900D11244091E80350915B
:10325000E903481759070CF49EC1A8EEB3E0EA9FB2
:10326000C001EB9F900DFA9F900D1124805D974057
:1032700020916C0230916D02AC01421B530BB6E001
:10328000B49F9001B59F300D1124AC0197FF02C08F
:103290004D5F5F4F5595479555954795240F351FC1
:1032A00090936D0280936C02C90188539F4F00E098
:1032B00097FD06C0893C910514F088EC90E0082F3A
:1032C00088EC90E0821B930BF12C97FD06C0893CA3
:1032D000910514F088EC90E0F82E402F50E070E05B
:1032E00060E02AE084E992E00E94F60B6CE871E06D
:1032F00084E992E00E94E70B802F90E00E94DE06B6
:103300008F2D90E00E94BE06C0907902D0907A0284
:10331000E0907B02F0907C0220E030E04FE753E445
:10332000C701B6010E940A1D87FD15C08091780271
:103330008F5F8093780220E030E04FE753E4C701CD
:10334000B6010E946E1B6093790270937A0280939B
:103350007B0290937C0280917002811104C01093D3
:1033600070020E941C07F894C0906E02D0906F0209
:1033700010926F0210926E02789480917002811107
:1033800004C0109370020E941C07F89460907102B0
:103390007090720210927202109271027894809072
:1033A000790290907A02A0907B02B0907C02B601E4
:1033B000D7FE03C0719561957109072E000C880B2B
:1033C000990B0E947E1C26E53EE049E450E40E94F1
:1033D0000F1D27E73EEB4FE15DE30E940F1D20E04C
:1033E00030E843E654E40E94DB1B6B017C01B3012F
:1033F00077FE03C0719561957109072E000C880B4B
:10340000990B0E947E1C26E53EE049E450E40E94B0
:103410000F1D27E73EEB4FE15DE30E940F1D20E00B
:1034200030E843E654E40E94DB1B9B01AC01C7017A
:10343000B6010E946F1B20E030E040E251E40E94A0
:103440000F1D20E030E040E05FE30E940F1DA5016A
:1034500094010E946F1B6B017C01C501B4010E94A5
:103460004D1C81E090E00E94240E6091780282E081
:1034700090E00E94240EC0927902D0927A02E092EB
:103480007B02F0927C0260917802EFEF6E9FB001B8
:103490001124072E000C880B990B0E947E1CA7019B
:1034A00096010E946F1B0E944D1C609374027093E2
:1034B00075028093760290937702A20191010E9497
:1034C0003D1B00E5021B602F90E080E00E94240E6F
:1034D000009373021092AC031092AD0388E2E82EC1
:1034E00083E0F82EF7016491662349F080EF92E0C3
:1034F0000E94010DFFEFEF1AFF0A892B99F7109236
:10350000AC031093AD034091730250E070E060E0B3
:103510002AE080EF92E00E94F60B1092AC0383E069
:103520008093AD0368E971E080EF92E00E94E70BC1
:103530006CE871E080EF92E00E94E70B1092AC0320
:1035400084E08093AD0340917402509175026091C4
:103550007602709177022AE080EF92E00E94F60BEB
:1035600069EA71E080EF92E00E94E70B40E050E0F2
:10357000452B09F4D2CD0E940000CECD9A0150E037
:1035800040E0C501B4010E943D1BC9013093E9032D
:103590002093E8036BCE90E080E068CE84E891E071
:1035A0009093D9038093D8038091E2039091E30331
:1035B000009711F00E94811E8091DC039091DD0341
:1035C000009711F00E94811E8091E0039091E10329
:1035D000009711F00E94811E8091DA039091DB0325
:1035E000009711F00E94811E8091DE039091DF030D
:1035F000009711F00C94811E0895F999FECF92BDA9
:1036000081BDF89A992780B50895262FF999FECFA4
:103610001FBA92BD81BD20BD0FB6F894FA9AF99AEF
:103620000FBE01960895052E97FB1EF400940E948C
:103630002A1B57FD07D00E943D1B07FC03D04EF408
:103640000C942A1B50954095309521953F4F4F4F34
:103650005F4F089590958095709561957F4F8F4F3E
:103660009F4F08950E945F1BA59F900DB49F900DE2
:10367000A49F800D911D11240895A1E21A2EAA1B6A
:10368000BB1BFD010DC0AA1FBB1FEE1FFF1FA21712
:10369000B307E407F50720F0A21BB30BE40BF50B0F
:1036A000661F771F881F991F1A9469F76095709598
:1036B000809590959B01AC01BD01CF010895A29F1B
:1036C000B001B39FC001A39F700D811D1124911DF6
:1036D000B29F700D811D1124911D08955058BB2774
:1036E000AA270E94861B0C94D01C0E94C21C38F092
:1036F0000E94C91C20F039F49F3F19F426F40C9461
:10370000BF1C0EF4E095E7FB0C94B91CE92F0E9456
:10371000E11C58F3BA17620773078407950720F076
:1037200079F4A6F50C94031D0EF4E0950B2EBA2F38
:10373000A02D0B01B90190010C01CA01A0011124B7
:10374000FF27591B99F0593F50F4503E68F11A1663
:10375000F040A22F232F342F4427585FF3CF4695F4
:1037600037952795A795F0405395C9F77EF41F1616
:10377000BA0B620B730B840BBAF09150A1F0FF0FE0
:10378000BB1F661F771F881FC2F70EC0BA0F621FCC
:10379000731F841F48F4879577956795B795F795BC
:1037A0009E3F08F0B0CF9395880F08F09927EE0F51
:1037B0009795879508950E94EF1B0C94D01C0E944A
:1037C000C91C58F00E94C21C40F029F45F3F29F048
:1037D0000C94B91C51110C94041D0C94BF1C0E9434
:1037E000E11C68F39923B1F3552391F3951B550B15
:1037F000BB27AA2762177307840738F09F5F5F4FC4
:10380000220F331F441FAA1FA9F335D00E2E3AF002
:10381000E0E832D091505040E695001CCAF72BD01A
:10382000FE2F29D0660F771F881FBB1F261737076B
:103830004807AB07B0E809F0BB0B802DBF01FF279D
:1038400093585F4F3AF09E3F510578F00C94B91CA5
:103850000C94041D5F3FE4F3983ED4F3869577956E
:103860006795B795F7959F5FC9F7880F911D969556
:10387000879597F90895E1E0660F771F881FBB1FB2
:10388000621773078407BA0720F0621B730B840B5F
:10389000BA0BEE1F88F7E09508950E94E91C88F0A6
:1038A0009F5798F0B92F9927B751B0F0E1F0660F04
:1038B000771F881F991F1AF0BA95C9F714C0B13045
:1038C00091F00E94031DB1E008950C94031D672F31
:1038D000782F8827B85F39F0B93FCCF38695779574
:1038E0006795B395D9F73EF490958095709561955D
:1038F0007F4F8F4F9F4F0895E89409C097FB3EF488
:1039000090958095709561957F4F8F4F9F4F99232C
:10391000A9F0F92F96E9BB279395F69587957795AA
:103920006795B795F111F8CFFAF4BB0F11F460FF6A
:103930001BC06F5F7F4F8F4F9F4F16C0882311F0C2
:1039400096E911C0772321F09EE8872F762F05C0D6
:10395000662371F096E8862F70E060E02AF09A9571
:10396000660F771F881FDAF7880F9695879597F966
:10397000089597F99F6780E870E060E008959FEFF1
:1039800080EC089500240A941616170618060906F6
:10399000089500240A9412161306140605060895C5
:1039A000092E0394000C11F4882352F0BB0F40F44D
:1039B000BF2B11F460FF04C06F5F7F4F8F4F9F4F8D
:1039C000089557FD9058440F551F59F05F3F71F00F
:1039D0004795880F97FB991F61F09F3F79F0879576
:1039E0000895121613061406551FF2CF4695F1DFFF
:1039F00008C0161617061806991FF1CF869571058F
:103A0000610508940895E894BB2766277727CB01C2
:103A100097F908950E947C1D08F48FEF08950E9485
:103A2000221D0C94D01C0E94C21C38F00E94C91C9C
:103A300020F0952311F00C94B91C0C94BF1C112498
:103A40000C94041D0E94E11C70F3959FC1F3950F27
:103A500050E0551F629FF001729FBB27F00DB11D12
:103A6000639FAA27F00DB11DAA1F649F6627B00DA2
:103A7000A11D661F829F2227B00DA11D621F739F8B
:103A8000B00DA11D621F839FA00D611D221F749F99
:103A90003327A00D611D231F849F600D211D822FE0
:103AA000762F6A2F11249F5750409AF0F1F0882307
:103AB0004AF0EE0FFF1FBB1F661F771F881F915034
:103AC0005040A9F79E3F510580F00C94B91C0C940E
:103AD000041D5F3FE4F3983ED4F386957795679590
:103AE000B795F795E7959F5FC1F7FE2B880F911D5E
:103AF0009695879597F90895990F0008550FAA0B89
:103B0000E0E8FEEF16161706E807F907C0F01216F0
:103B10001306E407F50798F0621B730B840B950BF3
:103B200039F40A2661F0232B242B252B21F4089548
:103B30000A2609F4A140A6958FEF811D811D0895E5
:103B4000DB018F939F930E94321BBF91AF91A29F85
:103B5000800D911DA39F900DB29F900D112408958B
:103B6000991B79E004C0991F961708F0961B881FCF
:103B70007A95C9F780950895AA1BBB1B51E107C030
:103B8000AA1FBB1FA617B70710F0A61BB70B881FED
:103B9000991F5A95A9F780959095BC01CD0108957C
:103BA000EE0FFF1F0590F491E02D09940E945F1B1A
:103BB000332312F48A1B9B0B0C94E01D0E945F1BA5
:103BC000B7FF0895821B930B08950F931F93CF9314
:103BD000DF938230910510F482E090E0E091F403ED
:103BE000F091F50330E020E0B0E0A0E0309799F4E8
:103BF0002115310509F44AC0281B390B2430310541
:103C0000D8F58A819B816115710589F1FB01938348
:103C10008283FE0111C040815181028113814817C6
:103C20005907E0F04817590799F4109761F0129678
:103C30000C93129713961C933296CF01DF91CF917C
:103C40001F910F9108950093F4031093F503F4CF9F
:103C50002115310551F04217530738F0A901DB0156
:103C60009A01BD01DF01F801C1CFEF01F9CF9093B7
:103C7000F5038093F403CDCFFE01E20FF31F819390
:103C800091932250310939832883D7CF2091F203B1
:103C90003091F303232B41F4209122013091230131
:103CA0003093F3032093F2032091200130912101FE
:103CB0002115310541F42DB73EB7409124015091B3
:103CC0002501241B350BE091F203F091F303E21779
:103CD000F307A0F42E1B3F0B2817390778F0AC012F
:103CE0004E5F5F4F2417350748F04E0F5F1F50930C
:103CF000F3034093F203819391939FCFF0E0E0E0D0
:103D00009CCFCF93DF930097E9F0FC0132971382A9
:103D10001282A091F403B091F503ED0130E020E0B0
:103D20001097A1F420813181820F931F2091F2031B
:103D30003091F3032817390709F061C0F093F303BA
:103D4000E093F203DF91CF910895EA01CE17DF07E8
:103D5000E8F54A815B819E0141155105B1F7E90102
:103D6000FB83EA8349915991C40FD51FEC17FD07D6
:103D700061F4808191810296840F951FE9019983F6
:103D80008883828193819B838A83F0E0E0E01296AE
:103D90008D919C9113970097B9F52D913C911197B6
:103DA000CD010296820F931F2091F2033091F3030D
:103DB0002817390739F6309751F51092F50310920C
:103DC000F403B093F303A093F203BCCFD383C28375
:103DD00040815181840F951FC817D90761F44E5F48
:103DE0005F4F88819981480F591F518340838A8191
:103DF0009B81938382832115310509F0B0CFF09325
:103E0000F503E093F4039ECFFD01DC01C0CF1382E4
:103E10001282D7CF81E090E0F8940C941F1FFB0131
:103E2000DC0102C001900D9241505040D8F7089536
:103E3000DC0101C06D9341505040E0F7089511E05E
:103E4000C6EDD1E004C0FE010E94D01D2196C73D01
:083E5000D107C9F7F894FFCF78
:103E58000F00F401D00704000401FFFFFFFF00E199
:103E6800000000000000E603E603E603E603E603BD
:103E78000000F6038000121415040C9C01B501CF54
:103E880001EA0107022602470269028E02B502DE34
:103E9800020A0300C1808100000000000000FE0447
:103EA80079041F0514056505230541050000000078
:103EB80091088608E20B5C087F086C085D08000022
:103EC8000000010D260EE20BE10B00000000600768
:103ED80000000000E50B00000000E80D0D0A00439B
:103EE80048415247494E470044697374616E63659F
:0E3EF8002064726F76653B20006B6D20000029
:00000001FF
