:100000000C94D3010C948D0E0C94660E0C943F0E40
:100010000C94180E0C94FB010C94FB010C94F10D44
:100020000C94FB010C944C130C94B40E0C94230F01
:100030000C94FB010C94FB010C94FB010C94FB0150
:100040000C94FB010C94FB010C94FB010C94FB0140
:100050000C94FB010C94FB010C94FB010C94A70D78
:100060000C94FB010C94FB010C94FB010C94FB0120
:100070000C94FB010C94FB010C94FB010C94FB0110
:100080000C94FB010C94FB010C94FB010C94FB0100
:100090000C9497130C94FB010C94FB010C94FB0142
:1000A0000C94FB010C9455110C94FB010000000012
:1000B0000000004F00000007000700147F147F14A9
:1000C000242A7F2A122313086462364955225000DD
:1000D00000070000001C2241000041221C001408FF
:1000E0003E081408083E08080050300000080808C0
:1000F0000808006060000020100804023E514945D5
:100100003E00427F400042615149462141454B310A
:100110001814127F1027454545393C4A4949300398
:10012000017109073649494936064949291E0036F1
:100130003600000056360000081422410014141442
:100140001414004122140802015109063249794170
:100150003E7E1111117E7F494949363E414141227F
:100160007F4141413E7F494949417F090909013E9B
:100170004149497A7F0808087F00417F41002040BB
:10018000413F017F081422417F404040407F020CE4
:10019000027F7F0408107F3E4141413E7F090909EB
:1001A000063E4151215E7F09192946464949493198
:1001B00001017F01013F4040403F1F2040201F3F81
:1001C0004038403F63140814630708700807615102
:1001D000494543007F41410002040810200041418D
:1001E0007F0004020102044040404040000102043C
:1001F0000020545454787F484444383844444420C0
:10020000384444487F3854545418087E0901020C7D
:100210005252523E7F0804047800447D4000204042
:10022000443D007F1028440000417F40007C0418BA
:1002300004787C0804047838444444387C1414144A
:1002400008081414187C7C080404084854545420EA
:10025000043F4440203C4040207C1C2040201C3C6B
:100260004038403C44281028440C5050503C4464D2
:10027000544C44000836410000007F000000413625
:1002800008000C02040806081C2A080800030C0FCA
:1002900030333C3FC0C3CCCFF0F3FCFF0000000084
:1002A0002300260029002C002F00080B0002020268
:1002B00000000904000001020200000524001001F2
:1002C0000524010101042402060524060001070596
:1002D000810310004009040100020A000000070524
:1002E00002024000000705830240000004030904E5
:1002F00012010002EF020140FB1F00230001010276
:100300000301506F6C6F6C7520436F72706F726178
:1003100074696F6E00506F6C6F6C7520412D537453
:1003200061722033325534000000000024002700A1
:100330002A002D00300000000000250028002B00BE
:100340002E00310004040404040304050202020226
:10035000040302020202060606060606040402025E
:100360000204040408020110408040102040804034
:1003700080080204018040201002011080102040FB
:1003800040200000000200090F0000030401000CDF
:10039000000000000000000000000000000000005D
:1003A0000000B614DC1711241FBECFEFDAE0DEBF69
:1003B000CDBF11E0A0E0B1E0EAE2F5E302C00590B4
:1003C0000D92A039B107D9F723E0A0E9B1E001C04F
:1003D0001D92A83EB207E1F711E0C2EDD1E004C0E2
:1003E0002197FE010E942E19C13DD107C9F70E9435
:1003F00015150C94881A0C9400005B9887FD5D9A83
:1004000087FF5D985B9A5B9886FD5D9A86FF5D9895
:100410005B9A5B9885FD5D9A85FF5D985B9A5B981A
:1004200084FD5D9A84FF5D985B9A5B9883FD5D9A7D
:1004300083FF5D985B9A5B9882FD5D9A82FF5D9871
:100440005B9A5B9881FD5D9A81FF5D985B9A5B98F2
:1004500080FD5D9A80FF5D985B9A0895FC01809114
:100460008502882311F13FB7F89482E08093E90078
:100470002091F200822F90E01816190614F481E002
:1004800090E0882339F0289844E640938402409114
:10049000F1004083222339F02091F200211103C0A2
:1004A0002BE62093E8003FBF08958FEF9FEF08955C
:1004B0002FB7F89483E08093E9009091E800892FAA
:1004C000807295FF04C09091F20080E4891B2FBFD9
:1004D000089580917C0281110DC082E080937802A2
:1004E00084E08093790210927B0210927A0281E07C
:1004F00080937C0288E792E0089581508F3008F065
:1005000047C0E82FF0E0E957FD4F0C942E19A402E4
:10051000A80296029C02A002C802C802C802AB024E
:10052000B102B502B902BF02C802C30280918000C5
:100530008F77809380000895809180008F7DF9CF20
:1005400080918000877FF5CF84B58F7784BD089533
:1005500084B58F7DFBCF809190008F778093900042
:100560000895809190008F7DF9CF80919000877FD2
:10057000F5CF8091C0008F778093C000089580915F
:10058000C0008F7DF9CF8091C200877F8093C20029
:1005900008951F93CF93DF93282F30E0F901EE5792
:1005A000FC4F8491F901ED59FC4FD491F901EC5BBA
:1005B000FC4FC491CC23A9F0162F81110E947D021B
:1005C000EC2FF0E0EE0FFF1FEA5CFC4FA591B49119
:1005D0008FB7F894EC91111108C0D095DE23DC930D
:1005E0008FBFDF91CF911F910895DE2BF8CFCF936E
:1005F000DF9390E0FC01ED59FC4F24918C5B9C4F04
:10060000FC0184918823C9F090E0880F991FFC01B8
:10061000E85DFC4FA591B491FC01EA5CFC4FC591EB
:10062000D49161110DC09FB7F8948C9120958223CD
:100630008C938881282328839FBFDF91CF910895D1
:10064000623051F49FB7F8943C91822F80958323B8
:100650008C93E8812E2BEFCF8FB7F894EC912E2B53
:100660002C938FBFEACF8091D7038F3F61F061E079
:100670000E94F70260E08091D7030E94C9028BE1DB
:1006800093E00197F1F708953FB7F89480917402D1
:1006900090917502A0917602B091770226B5A89B41
:1006A00005C02F3F19F00196A11DB11D3FBFBA2F04
:1006B000A92F982F8827BC01CD01620F711D811DC4
:1006C000911D42E0660F771F881F991F4A95D1F749
:1006D00008958F929F92AF92BF92CF92DF92EF9246
:1006E000FF924B015C010E9444036B017C010E945C
:1006F00044036C197D098E099F09683E734081058A
:100700009105A8F321E0821A9108A108B10888EEAA
:10071000C80E83E0D81EE11CF11C81149104A104D1
:10072000B10429F7FF90EF90DF90CF90BF90AF908A
:100730009F908F9008952FB7F894609170027091F8
:10074000710280917202909173022FBF0895E0911F
:100750004502F0914602309729F010924202109221
:10076000410209940895CF93DF93AC01E0914702D1
:10077000F09148023097F1F0909144028091430249
:100780009817C0F090E0292F30E02617370754F46F
:10079000D901AA56BE4F240F351FE90128812C9399
:1007A0009F5FF1CF1092440260934302CB01DF912F
:1007B000CF910994DF91CF91089508954091370228
:1007C000509138022091350230913602421753077A
:1007D000B4F49091E8009570E1F39091E80092FDF7
:1007E00019C08093F10080913702909138020196F0
:1007F0008F739927892B19F48EEF8093E8008091ED
:100800003702909138020196909338028093370214
:1008100081E0089580E00895EF92FF920F931F9377
:10082000CF93DF93F82E192FE62E042F81E0860F49
:10083000880F0E94DE0383E00E94DE03CF2DD12FBC
:10084000EC0EFD2EF11CCE15DF05B9F007FF13C02D
:10085000FE0184910E94DE03182F80E00E94DE03D7
:10086000812321968111EFCFDF91CF911F910F91BD
:10087000FF90EF9008958881EDCF81E0F5CFDF9272
:10088000EF92FF920F931F93CF93DF93D82E8A019D
:10089000EB017B01E40EF51ECE15DF0559F0D7FE06
:1008A00012C0FE0184910E94DE0321968111F4CFD3
:1008B0000FEF1FEFC801DF91CF911F910F91FF90B4
:1008C000EF90DF9008958881EECF0F931F93CF9321
:1008D000DF931F92CDB7DEB782E0898342E450E018
:1008E0006AEA72E080E80E943F040E946902DC012B
:1008F00012960D911C910115110589F0D801ED9109
:10090000FC910280F381E02DBE016F5F7F4FC80133
:10091000099597FD04C0F80100851185ECCF898108
:100920000F90DF91CF911F910F910895615030F09A
:100930002091F100FC0120830196F8CF289884E6ED
:100940008093840208958F929F92AF92BF92CF922C
:10095000DF92EF92FF920F931F93CF93DF936C017F
:100960007B018A0180911501882309F45CC0809184
:100970008502882309F457C080913B0280FF05C09F
:100980008091E00082608093E000E801B12C8AEF62
:10099000A82E93E0892E2AE3922E209711F4BB20F3
:1009A000D9F10E94580281110AC0AA94AA20D9F153
:1009B00061E070E080E090E00E946903EECF8C1768
:1009C0001D0611F00CF08C2F9FB7F8948092E9006F
:1009D0002091E80025FD02C09FBFDFCF282F30E027
:1009E000C21BD30BF701815020F041914093F100DD
:1009F000FACFE20EF31EBB2021F09092E800B12C5A
:100A0000EBCF8091E80085FDE7CF9092E800BB2412
:100A1000B394209709F3F3CF5D9884E680933A026C
:100A2000101611063CF081E090E0F601938382837A
:100A300010E000E0C801DF91CF911F910F91FF906E
:100A4000EF90DF90CF90BF90AF909F908F900895E0
:100A5000CF93DF931F92CDB7DEB76983DC01ED91B1
:100A6000FC910280F381E02D41E050E0BE016F5F18
:100A70007F4F09950F90DF91CF91089583E0809388
:100A8000E9008091F200882319F08AE38093E8005E
:100A900008950E94580290E00895CF93DF931F922B
:100AA000CDB7DEB7FC018485958597FD08C02FEF93
:100AB0003FEF358724870F90DF91CF910895CE01C6
:100AC00001960E942E02019719F4898190E0F3CFDC
:100AD0008FEF9FEFF0CF0F931F93CF93DF931F9272
:100AE000CDB7DEB78C01FC018485958597FF0BC0DF
:100AF000CE0101960E942E02019771F4898190E047
:100B0000F80195878487F801848595850F90DF919A
:100B1000CF911F910F9108958FEF9FEFF1CFFC01BF
:100B20008485958597FD0BC09FB7F89482E08093EC
:100B3000E9008091F2009FBF90E0019608959FB771
:100B4000F89482E08093E9008091F2009FBF90E0EA
:100B5000089580913202E0913302F09134028823AB
:100B600039F084919FEB980F9A3120F4805E0895BC
:100B70008081F8CF803269F42091330230913402C1
:100B8000A9014F5F5F4F5093340240933302232BF0
:100B900001F708951F93CF93DF930E94A905D0E03A
:100BA000C0E01AE090ED980F9A30B8F41C9F9001C5
:100BB0001D9F300D1124E901C80FD11D87FDDA9565
:100BC000E097809133029091340201969093340221
:100BD000809333020E94A905E5CFCE01DF91CF912A
:100BE0001F9108953F924F925F926F927F928F92E2
:100BF0009F92AF92BF92CF92DF92EF92FF920F93AC
:100C00001F93CF93DF937B01D42E20912F022111CC
:100C10001BC021E020932F02109272001092C0009E
:100C200034E03093C10039E03093C2002093C30018
:100C300023E02093BF0028EE2093D1001092BF0044
:100C40001092D200579A789410920901CC24C39440
:100C500097FF03C09F77AAE0CA2EC8E2CC9EC02DA2
:100C60001124D0E08C179D0750F021E0EC01C21256
:100C700006C0C13187E2D80710F0C0E1D7E24E01CB
:100C8000B12CA12C4C2C512C712C612C9E01AFEF5E
:100C9000B7E00E943419640D751D861D971D969549
:100CA000879577956795A30192010E94ED1860E002
:100CB00072E18AE790E0312C33946217730784075E
:100CC000950728F09695879577956795F5CFA301B9
:100CD00092010E94BD189E0136952795620F731FE1
:100CE000811D911DA50194010E94ED18722E022F05
:100CF000132F2AE0C21207C0CE0105966AE070E009
:100D00000E94D918EB01C83E83E0D80759F097013B
:100D1000DE010E94341928EE33E040E050E00E94EA
:100D20000F197901109272008091C100807F832990
:100D30008093C1001093BF007092D1004D2D4031BF
:100D400008F04FE080E190E0841B910902C0169505
:100D500007958A95E2F71093BF000093D200F092B6
:100D60003102E092300289B38FEF89BB84E0809337
:100D70007200DF91CF911F910F91FF90EF90DF9064
:100D8000CF90BF90AF909F908F907F906F905F902B
:100D90004F903F9008952E98269A2D98259A2A983C
:100DA000229A2998219A80EA8093800081E1809399
:100DB000810080E991E090938700809386001092F3
:100DC00089001092880010928B0010928A0008957A
:100DD000CF93DF93EC0180912B02811105C081E05C
:100DE00080932B020E94CB0680E0209721F0D195C2
:100DF000C195D10981E0D0938900C0938800811109
:100E000002C0299801C0299A219ADF91CF910895B3
:100E1000CF93DF93EC0180912B02811105C081E01B
:100E200080932B020E94CB06D0938B00C0938A0044
:100E30002A98229ADF91CF9108955F926F927F92C4
:100E40008F929F92AF92BF92CF92DF92EF92FF92DA
:100E50000F931F93CF93DF93FC0122853385232BC0
:100E600009F492C06B01EC0110E08C851817E8F4CE
:100E7000E12EF12C8E859F85F701EE0FFF1FEC0D03
:100E8000FD1D91838083EA85FB85EE0DFF1D61E0EA
:100E900080810E94C902EA85FB85EE0DFF1D61E09D
:100EA00080810E94F7021F5FE0CF83E290E001970C
:100EB000F1F710E08C851817A0F4E12EF12CEA85EB
:100EC000FB85EE0DFF1D60E080810E94F702EA8540
:100ED000FB85EE0DFF1D60E080810E94C9021F5F4F
:100EE000E9CF0E9444034B015C010E944403AB0123
:100EF000BC01481959096A097B098E859F85B0E0B4
:100F0000A0E0481759076A077B0708F03DC00E9418
:100F100044037B01E818F908612C8C85681628F7D2
:100F2000062D10E0EA85FB85E00FF11F208130E0FF
:100F3000F901EE57FC4F8491F901ED59FC4F749083
:100F4000F901EC5BFC4F549051100CC0000F111FC5
:100F5000F601E00FF11F80819181E816F90688F013
:100F60006394DBCF81110E947D02E52DF0E0EE0F4E
:100F7000FF1FE456FD4FA591B491EC917E2231F311
:100F8000EFCFF182E082ECCFDF91CF911F910F91F3
:100F9000FF90EF90DF90CF90BF90AF909F908F9099
:100FA0007F906F905F9008952091DC01260F33278A
:100FB000331F21323105ECF420910002FC0190E056
:100FC00080E0243069F082E00895A091DC01219155
:100FD000AC0144545E4FA40FB52FB11D2C93019664
:100FE000861798F38091DC01680F6093DC0180E044
:100FF000089581E008951092000281E0809302023A
:101000001092010261E082E00E94C90261E083E087
:101010000E94C902E9EBF0E080818E7F80838081AD
:101020008D7F808388E48093B80085E48093BC0042
:1010300008950895E091440280914302E81730F446
:10104000F0E0EA56FE4F808190E008958FEF9FEF29
:10105000089590914402809143022FEF3FEF98173B
:1010600048F4E92FF0E0EA56FE4F208130E09F5F20
:1010700090934402C90108958091430290914402E3
:10108000891B990B0895CF93DF93CB01EA01642F5D
:101090000E94D407CE01DF91CF910895CF93DF93C3
:1010A0001F92CDB7DEB7698361E0CE0101960E9441
:1010B000D40781E090E00F90DF91CF910895289AB6
:1010C000209A08952898209A08955F926F927F92AF
:1010D0008F929F92AF92BF92CF92DF92EF92FF9248
:1010E0000F931F93CF93DF935C01D62FC42FF22E63
:1010F000132F0E9462088D2F806B0E94FD018C2FA0
:1011000082958F7080610E94FD018C2F8F700E94EC
:10111000FD010E945F08CF2DD12F0C0F1D2F111D37
:1011200095E0692EC017D10709F444C07990872D46
:101130008052990B9C01629EC001639E900D112408
:10114000769C40011124F12CE12C9C0124553F4F49
:1011500069013FE1371508F5F601EE0DFF1DE49139
:10116000F0E084E0F595E7958A95E1F7E457FD4FC7
:101170005490852D0E94FD01852D0E94FD019FEF59
:10118000E91AF90A25E0E216F10419F780E00E9455
:10119000FD0180E00E94FD01C5CF87E0E0E08715FA
:1011A000F8F2F401EE0DFF1DE254FF4FEA0DFB1DB6
:1011B000E081D6CFDF91CF911F910F91FF90EF90FB
:1011C000DF90CF90BF90AF909F908F907F906F9067
:1011D0005F9008955F926F927F928F929F92AF92ED
:1011E000BF92CF92DF92EF92FF920F931F93CF9314
:1011F000DF935C01D62FC42FF22E132F0E946208BA
:101200008D2F806B0E94FD018C2F82958F708061E5
:101210000E94FD018C2F8F700E94FD010E945F08CB
:10122000CF2DD12F0C0F1D2F111D85E0682EC0175B
:10123000D10709F440C07990872D8052990B9C0109
:10124000629EC001639E900D1124769C4001112482
:10125000F12CE12C9C0124553F4F69013FE13715EA
:10126000E8F4F601EE0DFF1DE491EF70F0E0E457B5
:10127000FD4F5490852D0E94FD01852D0E94FD019A
:101280009FEFE91AF90A25E0E216F10439F780E048
:101290000E94FD0180E00E94FD01C9CF87E0E0E0EF
:1012A000871518F3F401EE0DFF1DE254FF4FEA0D10
:1012B000FB1DE081DACFDF91CF911F910F91FF905D
:1012C000EF90DF90CF90BF90AF909F908F907F90E6
:1012D0006F905F9008956F927F928F929F92AF92DE
:1012E000BF92CF92DF92EF92FF920F931F93CF9313
:1012F000DF935C01D62FC42FF22E132F0E946208B9
:101300008D2F806B0E94FD018C2F82958F708061E4
:101310000E94FD018C2F8F700E94FD010E945F08CA
:10132000CF2DD12F0C0F1D2F111D85E0682EC0175A
:10133000D107A9F17990872D8052990B9C01629E6B
:10134000C001639E900D1124769C40011124F12C64
:10135000E12C9C0124553F4F69013FE1371588F48A
:10136000F601EE0DFF1D84910E94FD019FEFE91A29
:10137000F90A25E0E216F10481F780E00E94FD0100
:10138000D6CF87E0871548F0F701E80DF91DE25444
:10139000FF4FEA0DFB1D8081E7CF80E0E5CFDF91B5
:1013A000CF911F910F91FF90EF90DF90CF90BF9062
:1013B000AF909F908F907F906F900895282F21FB82
:1013C0000EF0209820FB0EF028980EF4289A21FBAE
:1013D0000EF4209A089580919501882301F160917F
:1013E0004A0270914B0280914C0290914D020E94F2
:1013F000211886ED92E00E944E086091490286ED28
:1014000092E00E944E0810929501109249021092AB
:101410004A0210924B0210924C0210924D02089513
:101420008091430290914402891B990B181619066A
:10143000ACF486ED92E00E94290890914E02E92FCB
:10144000F0E0EE0FFF1FE15BFD4F482F4053550BBF
:10145000518340839F5F90934E02E2CF0895CF93D4
:10146000DF93EC01288121FB0EF0559820FB0EF054
:101470005D980EF45D9A21FB0EF4559A89810E94C5
:10148000DE09E9EEF0E010828C818093F0008B8120
:1014900080838A818093E200DF91CF910895FC01DF
:1014A000A2EEB0E08C9182831C92A9EEB0E08C9108
:1014B00083831C92A0EFB0E08C9184831C9220E087
:1014C0005D99216055992260208320E02899216050
:1014D0002099226021835D98559A0895CF92DF92DA
:1014E000EF92FF920F93CF93DF93EC017C0184E0A6
:1014F000E80EF11CC7010E944F0A6E0184E1C80E7C
:10150000D11C08E0960143E162E0CE010E94EA08A6
:10151000960143E163E0CE010E9465086E0189E215
:10152000C80ED11C960143E165E0CE010E94EA0895
:10153000960143E166E0CE010E946508C701DF9194
:10154000CF910F91FF90EF90DF90CF900C942F0AE6
:10155000EF92FF920F93CF93DF93EC017C0184E035
:10156000E80EF11CC7010E944F0A9E012C5E3F4FFE
:1015700005E142E060E0CE010E946B099E01275D1B
:101580003F4F42E061E0CE010E946B099E01225C68
:101590003F4F42E062E0CE010E946B099E012D5A4E
:1015A0003F4F42E063E0CE010E946B099E01285943
:1015B0003F4F42E064E0CE010E946B099E01235838
:1015C0003F4F42E065E0CE010E946B099E012E561E
:1015D0003F4F42E066E0CE010E946B099E01295513
:1015E0003F4F42E067E0CE010E946B09C701DF91E7
:1015F000CF910F91FF90EF900C942F0AEF92FF92F2
:101600000F931F93CF93DF938C017C0184E0E80E4E
:10161000F11CC7010E944F0A0E94620882E00E94EA
:10162000FD01C0E00E9462088C2F806B0E94FD01CA
:1016300080E10E94FD010E945F08D0E080E00E94EE
:10164000FD01DF5FD038D1F7CF5FC83059F7C70150
:101650000E942F0AF8011286DF91CF911F910F91FE
:10166000FF90EF900895AF92BF92CF92DF92EF92EA
:10167000FF920F931F93CF93DF937C01122F68305B
:1016800008F043C0423008F040C088E0861B821753
:10169000D0F12223D1F1C42FCC0FC40FDCE06D9F19
:1016A000D02D1124DD5E670124E1C20ED11C862FEE
:1016B00090E025E1429F800D911D1124C80ED91E96
:1016C000570184E0A80EB11CC5010E944F0A62E0D8
:1016D0006C0F012F96014D2FC7010E94EA0863E0AD
:1016E0006C0F96014D2FC7010E946508C501DF915F
:1016F000CF911F910F91FF90EF90DF90CF90BF900F
:10170000AF900C942F0A182FC6CFDF91CF911F9165
:101710000F91FF90EF90DF90CF90BF90AF90089522
:10172000BF92CF92DF92EF92FF920F931F93CF93CE
:10173000DF93EC01162FB42E022F653198F527E0C8
:10174000241780F185E1861B801750F1002351F1A9
:10175000CE014496E12EF12C25E1B29EE00CF11C65
:101760001124E80EF91E6E0184E0C80ED11CC601DA
:101770000E944F0A412F440F410F440F4E5F9701C3
:101780006B2DCE010E946B09C601DF91CF911F9195
:101790000F91FF90EF90DF90CF90BF900C942F0AA5
:1017A000082FD6CFDF91CF911F910F91FF90EF902F
:1017B000DF90CF90BF900895089590E080E0089565
:1017C0008F929F92AF92BF920F931F93CF93DF930D
:1017D000CDB7DEB7A1970FB6F894DEBF0FBECDBF71
:1017E00019A2423008F44AE08E010F5D1F4F842E8B
:1017F000912CB12CA12CA50194010E94ED18E62F8B
:10180000B901CA01EA3044F5E05DD801EE938D01DB
:10181000232B242B252B79F790E080E0109769F09B
:10182000FD0101900020E9F73197AF014A1B5B0BE6
:10183000BD0186E892E00E94A304A1960FB6F89439
:10184000DEBF0FBECDBFDF91CF911F910F91BF9033
:10185000AF909F908F900895E95CD7CF42E050E021
:101860006CE871E086E892E00C94A3040E94731A7D
:10187000CF93DF9385ED8093BC008091B801909168
:10188000B901A091BA01B091BB010796A11DB11D8C
:1018900023E0B695A795979587952A95D1F720913E
:1018A000BC0024FD03C01092000236C04091B80174
:1018B0005091B9016091BA017091BB01452B462B43
:1018C000472B69F30097A105B10541F02AE22A955B
:1018D000F1F700C00197A109B109E1CF8091B701EB
:1018E00091E09093B6018823B9F0C091B800D091EF
:1018F000BA008091BC008A7B8093BC0060E082E0EB
:101900000E94C90260E083E00E94C9020E94FB07B6
:10191000D093BA00C093B800DF91CF910895DF92C1
:10192000EF92FF920F931F93CF93DF93EC01F62E6C
:10193000E42ED22E898581112DC05B98539A5A9836
:10194000529A85E38A95F1F700005A9A529AA5E3D4
:10195000AA95F1F70000CE010E94FE0A8E010C5FED
:101960001F4FC8010E944F0A0E94620881EA0E942C
:10197000FD0188EC0E94FD0181E80E94FD018FEFCE
:101980000E94FD018FEA0E94FD01C8010E942F0AFA
:1019900081E089878A85882319F0CE010E94FE0A9A
:1019A0002A893B89C901959587958C0F9D1FE889E8
:1019B000F98920FF08C0DC012D913C91E20FF31F53
:1019C0000190F081E02D2D2D4E2D6F2DDF91CF91C7
:1019D0001F910F91FF90EF90DF900994CF93DF93C9
:1019E000DC01A354BF4F2C91283008F5EC01C454FE
:1019F000DF4FE881E531D8F4AC0175E1279F400D58
:101A0000511D1124E40FF52FF11D648BFC0123857A
:101A1000211105C021E04C9168810E948F0C8881C2
:101A20008F5F888381E090E0DF91CF91089590E00F
:101A300080E0FACFAF92BF92CF92DF92EF92FF9207
:101A40000F931F93CF93DF9382EEE82EF12CF701D3
:101A500000811082C9EED0E0B880188290EFC92EC4
:101A6000D12CF601A080108220E0289921602099D5
:101A70002260822F2098289A90E19A95F1F713B16D
:101A80000E94DE091882F601A082B882F701008365
:101A9000812F80958170DF91CF911F910F91FF90E1
:101AA000EF90DF90CF90BF90AF900895BF92CF920C
:101AB000DF92EF92FF920F931F93CF93DF938C01EE
:101AC000EA016C012DEBC20ED11CF60130813830D9
:101AD000D8F57C01FCEBEF0EF11CF701808185311C
:101AE00098F525E1281B90E02417150620F4C5E1A0
:101AF000D0E0C81BD90BF5E13F9F800D911D11244B
:101B0000AE0198012C5E3F4F820F931F0E94781AFE
:101B1000BC2EF8018385811108C02C2FF60140816D
:101B2000F7016081C8010E948F0CF70180818B0D45
:101B30008083CE01DF91CF911F910F91FF90EF90A5
:101B4000DF90CF90BF900895D0E0C0E0F2CF1F9219
:101B50000F920FB60F9211242F933F938F939F9361
:101B6000AF93BF938091700290917102A091720225
:101B7000B091730230916F0223E0230F2D3758F597
:101B80000196A11DB11D20936F0280937002909366
:101B90007102A0937202B0937302809174029091CB
:101BA0007502A0917602B09177020196A11DB11D38
:101BB0008093740290937502A0937602B09377029B
:101BC000BF91AF919F918F913F912F910F900FBE39
:101BD0000F901F90189526E8230F0296A11DB11DA6
:101BE000D2CF1F920F920FB60F9211242F933F93D3
:101BF0004F935F936F937F938F939F93AF93BF9315
:101C0000EF93FF93E0911E01F0911F010995FF9161
:101C1000EF91BF91AF919F918F917F916F915F9164
:101C20004F913F912F910F900FBE0F901F901895DD
:101C30001F920F920FB60F9211242F933F934F9341
:101C40005F936F937F938F939F93AF93BF93EF9324
:101C5000FF93E0911C01F0911D010995FF91EF9117
:101C6000BF91AF919F918F917F916F915F914F91B4
:101C70003F912F910F900FBE0F901F9018951F92BC
:101C80000F920FB60F9211242F933F934F935F93B0
:101C90006F937F938F939F93AF93BF93EF93FF9334
:101CA000E0911A01F0911B010995FF91EF91BF910D
:101CB000AF919F918F917F916F915F914F913F91E4
:101CC0002F910F900FBE0F901F9018951F920F929B
:101CD0000FB60F9211242F933F934F935F936F93FF
:101CE0007F938F939F93AF93BF93EF93FF93E09175
:101CF0001801F09119010995FF91EF91BF91AF91F2
:101D00009F918F917F916F915F914F913F912F9113
:101D10000F900FBE0F901F9018951F920F920FB645
:101D20000F9211242F933F934F935F936F937F9361
:101D30008F939F93AF93BF93EF93FF93E09116011F
:101D4000F09117010995FF91EF91BF91AF919F918C
:101D50008F917F916F915F914F913F912F910F9054
:101D60000FBE0F901F9018951F920F920FB60F92F3
:101D700011248F939F938091E1009091E100937FD4
:101D80009093E10083FF0FC01092E90091E09093DF
:101D9000EB001092EC0092E39093ED00109285021C
:101DA00098E09093F00082FF22C093E09093E900C6
:101DB0009091F200992319F09AE39093E8009091A2
:101DC0003A02992341F090913A02915090933A024D
:101DD000911101C05D9A90918402992341F09091F4
:101DE0008402915090938402911101C0289A84FF3B
:101DF00018C08091E2008E7E81608093E200809125
:101E0000E1008F7E8093E10080913B028E7E8061B5
:101E100080933B029F918F910F900FBE0F901F9068
:101E2000189580FFF7CF8091E2008E7E80618093CD
:101E3000E2008091E1008E7E8093E10080913B0280
:101E40008E7E8160E5CF1F920F920FB60F92112404
:101E5000CF92DF92EF92FF920F931F932F933F93B6
:101E60004F935F936F937F938F939F93AF93BF93A2
:101E7000EF93FF93CF93DF93CDB7DEB76C97DEBFC1
:101E8000CDBF1092E9008091E80083FF25C068E093
:101E9000CE0145960E94960482EF8093E8008D89DA
:101EA00087FF39C09091E80090FFFCCF982F907683
:101EB00009F034C19E894F89588D2F89F88C911172
:101EC00031C0803861F580913C028093F10010921E
:101ED000F1008EEF8093E8006C960FB6F894DEBFA9
:101EE0000FBECDBFDF91CF91FF91EF91BF91AF9129
:101EF0009F918F917F916F915F914F913F912F9122
:101F00001F910F91FF90EF90DF90CF900F900FBE39
:101F10000F901F9018959EEF9093E800C7CF1092F6
:101F2000F100D5CF913059F48111D3CF4130510513
:101F300081F680913C028D7F80933C02CACF933022
:101F400049F48111C6CF4130510519F680913C0208
:101F50008260F2CF953041F48091E80080FFFCCFA1
:101F600020682093E300B5CF963009F0A9C00B8D0F
:101F70001C8D22E01092E900109238021092370274
:101F8000F2122EC010923602109235020E946504A1
:101F90001F8299E09983FA8291E09E8390EA988764
:101FA0009AEF99872091370230913802275F3F4F8F
:101FB0003C832B838D831092E9001092380210929B
:101FC0003702109336020093350249E050E0BE011B
:101FD0006F5F7F4F80E00E943F040E94650479CFCD
:101FE00010933602009335020E946902DC011296BA
:101FF0000D911C910115110509F451C1D801ED9104
:10200000FC910480F581E02DBE016B5E7F4FC8011D
:102010000995009709F03EC1F80100851185EACFC6
:10202000F3E0FF120EC08F89882309F440C082308C
:1020300061F440E862E185E193E00E940C048111C3
:1020400048CF81E28093EB0047CF813029F440E80C
:1020500062E182E093E0F1CF833099F70E94690258
:10206000DC011296ED90FC908E010F5F1F4F68010E
:10207000E114F10479F0D701ED91FC910680F7812C
:10208000E02DB801C7010995080F111DF701E08483
:10209000F184EECFD8011C92F60101900020E9F7FF
:1020A0003197BF016C197D0940E0C601C6CF6CEEC7
:1020B00072E0FB01449150E080E80E943F0409CFA8
:1020C000973009F4BECF983021F481E08093F1007D
:1020D00000CF993009F0FDCE837009F0B2CFE4E46F
:1020E000F1E081E031E096E32191222371F08093C9
:1020F000E9003093EB00DF0111972C912093EC0065
:102100009093ED008F5F873079F78EE78093EA0038
:102110001092EA008F8980938502DBCE8B8D9C8D97
:102120001092E90010923802109237029093360212
:1021300080933502898D811192C08E899D89913A53
:1021400049F4813209F07DCF47E050E06EE071E064
:1021500080E0B3CF913209F074CF833269F48F8974
:10216000988DB0E0A0E080930A0190930B01A093BA
:102170000C01B0930D01ADCE803269F48091E8007E
:1021800082FFFCCF67E08EE091E00E9496048BEF27
:102190008093E8009ECE823209F09BCE8F89809397
:1021A0001501EEEFFFE7859194918B3F9C4D51F126
:1021B000E0E0F8E080910E0190910F01A0911001F4
:1021C000B0911101803B9440A105B105F1F48091DB
:1021D000150180FD1AC0EE3F8AE0F80789F587E710
:1021E00097E791838083809160008093390288E132
:1021F0009BE00FB6F894A895809360000FBE909373
:10220000600067CEEEEFFAE0D5CF8081918187370D
:10221000974709F05ECEA895809160008861809311
:1022200060008091390280936000EE3F2AE0F2075F
:1022300089F08091FE0A9091FF0A9183808349CEB4
:10224000808191818737980751F29093FF0A80939C
:10225000FE0AC5CF1092FF0A1092FE0A3ACE0E94E3
:102260006902DC0112960D911C910115110509F40A
:10227000E8CED801ED91FC910190F081E02DBE01F6
:102280006B5E7F4FC8010995811123CEF80100854F
:102290001185EBCF181619060CF41BCED2CEF1E047
:1022A000FF12BECE60EF72E004CF1F920F920FB606
:1022B0000F9211244F925F926F927F928F929F9212
:1022C000AF92BF92CF92DF92EF92FF920F931F9344
:1022D0002F933F934F935F936F937F938F939F932E
:1022E000AF93BF93CF93DF93EF93FF93C0913002EF
:1022F000D0913102CE010197909331028093300248
:102300002097A1F51092720078948091C100807F8F
:1023100084608093C10083E08093BF0088EE809347
:10232000D1001092BF001092D20081E08093090189
:102330008091330290913402892BC1F080912E025A
:10234000811114C07090080180912D02882379F1C9
:1023500080912C02882359F160912C0270E040E0BA
:1023600088EE93E00E94F20510922C02FF91EF910B
:10237000DF91CF91BF91AF919F918F917F916F919D
:102380005F914F913F912F911F910F91FF90EF908F
:10239000DF90CF90BF90AF909F908F907F906F9085
:1023A0005F904F900F900FBE0F901F90189555247F
:1023B000539470ECA72E7DE5B72EEAE04E2EF4E0A4
:1023C0006F2EA0EDCA2EA7E0DA2EB4E0EB2EF12C92
:1023D00004EF11E08FE0882E912C0E94A905209136
:1023E0003302309134022F5F3F4F309334022093F9
:1023F0003302853609F473C00CF047C0813609F406
:10240000B4C024F58C3309F468C08E3309F463C07A
:10241000813209F043C060920801D0920501C09258
:102420000401F0920701E09206011093030100936A
:102430000201909201018092000110922D02709091
:1024400008018091020190910301C7CF833609F4FE
:102450008FC010E00BE0843614F010E002E04CE096
:10246000749E000D11240E94A905982F977F933226
:1024700009F080C0809133029091340201969093CC
:102480003402809333020F5FEECF8D3609F445C0DE
:1024900054F4873651F134F18C3651F110923402F4
:1024A0001092330263CF823709F44CC044F48F3664
:1024B000A9F70E94CA05782E809308018ECF843731
:1024C00009F443C0863751F70E94CA059093010171
:1024D0008093000182CF739480CF7A947ECF10E0F6
:1024E00004E0BDCF10E005E0BACF10E007E0B7CFC1
:1024F0000E94CA0590930701809306018091040110
:102500009091050160910601709107010E94D91810
:10251000709303016093020160CF0E94A9058C367D
:1025200061F410922D028091330290913402019651
:10253000909334028093330250CF50922D02109228
:102540002C02F1CF11E000E08ACF0E94CA05BC0145
:10255000C5010E94D918469EC001479E900D1124C6
:102560009093050180930401C9CF10E009E077CF73
:1025700010E0E9CF8D3269F48091330290913402FA
:102580000196909334028093330201500E94A90572
:10259000F1CFE0900201F09003018153883058F4AC
:1025A000E0900401F09005010E94CA05BC01C7013A
:1025B0000E94D9187B016701D694C7940E94A9058F
:1025C0008E3261F48091330290913402019690939F
:1025D000340280933302EC0CFD1CEECF80912D026F
:1025E000882349F0C7019695879580932C028091A6
:1025F0002C02E81AF108C0900001D09001011111DD
:1026000004C00F3F11F0C11007C040E0B70188EED1
:1026100093E00E94F205AACE013128F010EF100FCE
:10262000103608F01FE5812F6CE00E94CD18582F5E
:1026300044EF450390011124210F311D2C30310549
:1026400038F4220F331FF901E55DFE4FC081D181BF
:102650008730C1F0082E02C0CC0FDD1F0A94E2F7CC
:10266000823040F0CE0105966AE070E00E94D918F1
:10267000CB0102C0CE0190584C2D403108F04FE004
:10268000B701C7CFCE0126E0880F991F2A95E1F741
:10269000029665E070E0EACF1F920F920FB60F929C
:1026A00011242F933F934F936F937F938F939F9317
:1026B0008CB1282F30E03595279535952795422FF9
:1026C000417083B190E064E0959587956A95E1F754
:1026D0008227817020912A0290912902609127021D
:1026E0007091280228279427291B330B260F371FA8
:1026F00030932802209327022091290290912A02E8
:10270000281729F0941719F091E0909326028093EE
:10271000290240932A029F918F917F916F914F914F
:102720003F912F910F900FBE0F901F9018951F9201
:102730000F920FB60F9211242F933F934F935F93F5
:102740006F937F938F939F93AF93BF93EF93FF9379
:102750008091B900887F803609F44AC0F0F588324C
:1027600009F4A7C018F5803109F49BC0B8F4882398
:1027700009F4F9C0883009F494C0FF91EF91BF913A
:10278000AF919F918F917F916F915F914F913F9109
:102790002F910F900FBE0F901F901895883109F45C
:1027A00088C0803251F78093FF0114C0803409F44F
:1027B0009DC040F48033B9F38833F9F68093FF016C
:1027C00085ECB0C0803509F485C0883509F496C021
:1027D000883499F60E94380CD0CF883909F48CC01F
:1027E00038F5883729F050F4883611F0803729F60B
:1027F00083E0809300021092FE0157C0883809F4EC
:102800007BC0803919F0803809F0B7CF8091FE0184
:10281000803208F071C0E091FE0181E08E0F80935C
:10282000FE018091BB00F0E0E252FE4F80833DC08C
:10283000803B39F0E0F4803A09F479C0883A09F035
:102840009CCF84E0809300021092DD011092DC01A5
:10285000E0913F02F091400209958091DC018111E5
:102860000FC081E08093DC011092BC0109C0803C64
:1028700009F4A6CF883C09F4A3CF883B09F07DCFAB
:10288000E091DD0181E08E0F8093DD01F0E0E45402
:10289000FE4F80818093BB009091DD018091DC012F
:1028A00029C0809125028093BB0085EC8093BC00F9
:1028B00064CF9091240280912302981758F5E091FB
:1028C000240281E08E0F80932402F0E0ED5FFD4F43
:1028D0008081E9CFE091240281E08E0F8093240271
:1028E0008091BB00F0E0ED5FFD4F8083909124026A
:1028F000809123029817C8F285E8D8CFE09124028E
:1029000081E08E0F809324028091BB00F0E0ED5FA8
:10291000FD4F80838091020281115CCF81E0809322
:10292000010284EA8093BC001092000226CF85EC5D
:102930008093BC00109200028091FE01803230F43E
:10294000E091FE01F0E0E252FE4F10826091FE0144
:1029500070E0E0913D02F0913E028EED91E009952C
:102960001092FE010ACF1092FF0134CFCF93DF9374
:10297000E6E8F2E01382128288EE93E0A0E0B0E095
:1029800084839583A683B7832EE431E0318320834B
:102990002FEF3FEF35872487E6EDF2E013821282B6
:1029A00084839583A683B78380E691E091838083B7
:1029B000ECEDF3E0128215828AE891E09183808346
:1029C000EAECF3E0138212821582148217821682D7
:1029D00011861086138612868EE791E0918380839C
:1029E000C2EED2E01B821A8248EA50E060E270E058
:1029F00086EF92E00E94811A1092C9031092C803D8
:102A00008EE69AE09D878C871F861E8683E39BE077
:102A1000998B888B1B8A1A8A81E08A8782E791E0EA
:102A200099838883DF91CF910895CF93DF93CDB7BA
:102A3000DEB7C056D1090FB6F894DEBF0FBECDBFCA
:102A4000789484B5826084BD84B5816084BD85B589
:102A5000826085BD85B5816085BD80916E00816095
:102A600080936E001092810080918100826080933B
:102A7000810080918100816080938100809180003D
:102A800081608093800080919100826080939100AA
:102A9000809191008160809391008091900081608D
:102AA000809390008091C10084608093C1008091E8
:102AB000C10082608093C1008091C10081608093D9
:102AC000C1008091C30081608093C3008091C000E9
:102AD00082608093C0008091C20081608093C200B8
:102AE00080917A00846080937A0080917A0082607D
:102AF00080937A0080917A00816080937A0080913F
:102B00007A00806880937A001092850210923C02CD
:102B100010923B028091D70081608093D70080EAB9
:102B20008093D80089B5806189BD89B5826089BDEF
:102B300009B400FEFDCF61E070E080E090E00E940B
:102B400069038091D8008F7C80618093D800809148
:102B5000E000807F8093E0008091E1008E7E809392
:102B6000E1008DE08093E200559A209A1092440291
:102B70001092430210924202109241020E94FB07FF
:102B800087EA93E09093400280933F0283EB93E0C7
:102B900090933E0280933D0282E08093BA008FEFD3
:102BA0009FEF90939302809392028BEE99E0909323
:102BB00046028093450280E19AE090934802809318
:102BC00047021092C9031092C80388EA9AE09093D2
:102BD000EF028093EE021092F1021092F00280E96F
:102BE0009BE09093F3028093F2021092F502109210
:102BF000F40281E08093EC0260E590E080E00E94C6
:102C0000131860E081E090E00E94131860E082E019
:102C100090E00E94131881E090E00E940B18682F4A
:102C200070E090E080E00E94571860934A02709331
:102C30004B0280934C0290934D0282E090E00E9400
:102C40000B188093490285E0E6E2F1E0DE0111967F
:102C500001900D928A95E1F71092CD031092CC036A
:102C60001092CF031092CE031092D1031092D00392
:102C70001092D3031092D2031092DB031092DA0366
:102C800085E08093D6038091D4039091D503892B5E
:102C9000C9F080E09091D603891708F064C0282F0E
:102CA00030E0E091D403F091D503E20FF31F41E04F
:102CB00050E04C0F5D1F240F351FD9019C9190836C
:102CC0008F5FE8CF85E090E00E944E199093D50386
:102CD0008093D403892BE9F680ED97E09093D90394
:102CE0008093D8038CED93E00E941A0D8823D1F3D2
:102CF0006AE070E080E090E00E9469038CED93E070
:102D00000E941A0D882371F384E690E00E94080760
:102D10008CE99FEF0E94E8060E949B036B017C01F7
:102D20004BE1442E43E0542E8091CE039091CF038B
:102D3000892BE9F40091D60310E0C801880F991F90
:102D40000E944E199093CF038093CE03009709F40D
:102D5000B7C0FC0190E080E08017910744F4119225
:102D600011920196F9CF8BE08093D703B5CF809174
:102D7000CC039091CD03892BE9F40091D60310E0A8
:102D8000C801880F991F0E944E199093CD0380931C
:102D9000CC03009709F494C02091D8033091D90353
:102DA000FC0190E080E08017910724F42193319397
:102DB0000196F9CF10E000E08091D7038F3F59F0E2
:102DC00061E00E94F70261E08091D7030E94C9028E
:102DD000C2010197F1F7BE016F5B7F4F8AEC93E070
:102DE0000E941D070E9433036090D603712CFE01E0
:102DF00031964F019E012F5D3F4FAE014F5B5F4FFC
:102E00005A011901DF0150E040E04615570524F54D
:102E1000F501819191915F010115110599F0F10181
:102E2000608171816817790768F06D917C911197C5
:102E30008617970768F04F5F5F4F1296F2E02F0EEC
:102E4000311CE3CFF101918380830115110569F7EE
:102E500011969C938E93EFCF0F5F1F4F0A30110591
:102E600009F0AACFA091CC03B091CD030091CE037D
:102E70001091CF0390E080E04091D60348171906E7
:102E8000F9F0F4F0F401419151914F01F8016081A2
:102E900071816417750710F451834083F9014191E2
:102EA00051919F016D917C9111974617570718F426
:102EB00011965C934E93019612960E5F1F4FDCCFD6
:102EC0000E949B036C197D098E099F09603A7F401F
:102ED0008105910508F428CF90E080E00E94080762
:102EE00090E080E00E94E80680E0A82E80E0B82E06
:102EF000992493948091670281110CC00E949B03D6
:102F000060936302709364028093650290936602FB
:102F1000909267020E949B030091630210916402E9
:102F20002091650230916602601B710B820B930B3E
:102F3000683B7B4081059105C0F10FE412E0D801A8
:102F4000CD90DD908D010D2C000CEE08FF084AE0BD
:102F5000C701B601F7FE0DC06DE286E892E00E945F
:102F6000280566277727CB016C197D098E099F09F3
:102F70004AE00E94E00BB2E003361B0701F70E9413
:102F80002E0C60914E0270E090E080E04AE00E94DA
:102F9000E00B0E942E0C0E949B03609363027093CF
:102FA00064028093650290936602A114B10409F44F
:102FB000A1CF0E9400009ECF84E891E09093CB03C4
:102FC0008093CA038091D4039091D503009711F0A8
:102FD0000E94EA198091CE039091CF03009711F0DF
:102FE0000E94EA198091D2039091D303009711F0C7
:102FF0000E94EA198091CC039091CD03009711F0C3
:103000000E94EA198091D0039091D103009711F0AA
:103010000C94EA190895F999FECF92BD81BDF89AF2
:10302000992780B50895262FF999FECF1FBA92BD32
:1030300081BD20BD0FB6F894FA9AF99A0FBE019699
:1030400008950E9428186894B1110C94B718089537
:103050000E949C1888F09F5798F0B92F9927B75174
:10306000B0F0E1F0660F771F881F991F1AF0BA952C
:10307000C9F714C0B13091F00E94B618B1E00895BC
:103080000C94B618672F782F8827B85F39F0B93FAE
:10309000CCF3869577956795B395D9F73EF49095DF
:1030A0008095709561957F4F8F4F9F4F0895E8945D
:1030B00009C097FB3EF490958095709561957F4F80
:1030C0008F4F9F4F9923A9F0F92F96E9BB2793952E
:1030D000F695879577956795B795F111F8CFFAF43E
:1030E000BB0F11F460FF1BC06F5F7F4F8F4F9F4F6F
:1030F00016C0882311F096E911C0772321F09EE8CD
:10310000872F762F05C0662371F096E8862F70E032
:1031100060E02AF09A95660F771F881FDAF7880F0C
:103120009695879597F9089557FD9058440F551F28
:1031300059F05F3F71F04795880F97FB991F61F039
:103140009F3F79F087950895121613061406551FB0
:10315000F2CF4695F1DF08C0161617061806991F1C
:10316000F1CF86957105610508940895E894BB2711
:1031700066277727CB0197F90895DB018F939F93FB
:103180000E944319BF91AF91A29F800D911DA39FF3
:10319000900DB29F900D11240895991B79E004C001
:1031A000991F961708F0961B881F7A95C9F7809586
:1031B0000895AA1BBB1B51E107C0AA1FBB1FA6177E
:1031C000B70710F0A61BB70B881F991F5A95A9F7D0
:1031D00080959095BC01CD010895A1E21A2EAA1BFD
:1031E000BB1BFD010DC0AA1FBB1FEE1FFF1FA217B7
:1031F000B307E407F50720F0A21BB30BE40BF50BB4
:10320000661F771F881F991F1A9469F7609570953C
:10321000809590959B01AC01BD01CF010895052ECD
:1032200097FB1EF400940E94261957FD07D00E94B8
:10323000ED1807FC03D04EF40C94261950954095D8
:10324000309521953F4F4F4F5F4F08959095809552
:10325000709561957F4F8F4F9F4F0895EE0FFF1F21
:103260000590F491E02D0994A29FB001B39FC00195
:10327000A39F700D811D1124911DB29F700D811DA2
:103280001124911D08950E943419A59F900DB49F9B
:10329000900DA49F800D911D112408950F931F93ED
:1032A000CF93DF938230910510F482E090E0E091BB
:1032B000E603F091E70330E020E0B0E0A0E03097D3
:1032C00099F42115310509F44AC0281B390B243023
:1032D0003105D8F58A819B816115710589F1FB0162
:1032E00093838283FE0111C0408151810281138149
:1032F00048175907E0F04817590799F4109761F0FB
:1033000012960C93129713961C933296CF01DF916D
:10331000CF911F910F9108950093E6031093E70357
:10332000F4CF2115310551F04217530738F0A901A8
:10333000DB019A01BD01DF01F801C1CFEF01F9CF37
:103340009093E7038093E603CDCFFE01E20FF31FD6
:10335000819391932250310939832883D7CF2091CB
:10336000E4033091E503232B41F4209122013091B5
:1033700023013093E5032093E40320912001309151
:1033800021012115310541F42DB73EB740912401AB
:1033900050912501241B350BE091E403F091E503E6
:1033A000E217F307A0F42E1B3F0B2817390778F01C
:1033B000AC014E5F5F4F2417350748F04E0F5F1F7B
:1033C0005093E5034093E403819391939FCFF0E002
:1033D000E0E09CCFCF93DF930097E9F0FC013297B8
:1033E00013821282A091E603B091E703ED0130E071
:1033F00020E01097A1F420813181820F931F20914A
:10340000E4033091E5032817390709F061C0F09310
:10341000E503E093E403DF91CF910895EA01CE172D
:10342000DF07E8F54A815B819E0141155105B1F73F
:10343000E901FB83EA8349915991C40FD51FEC1729
:10344000FD0761F4808191810296840F951FE90147
:1034500099838883828193819B838A83F0E0E0E073
:1034600012968D919C9113970097B9F52D913C91EF
:103470001197CD010296820F931F2091E4033091A2
:10348000E5032817390739F6309751F51092E7030D
:103490001092E603B093E503A093E403BCCFD3837B
:1034A000C28340815181840F951FC817D90761F4E9
:1034B0004E5F5F4F88819981480F591F5183408328
:1034C0008A819B81938382832115310509F0B0CFD6
:1034D000F093E703E093E6039ECFFD01DC01C0CF4C
:1034E00013821282D7CF81E090E0F8940C94881A6E
:1034F000FB01DC0102C001900D9241505040D8F711
:103500000895DC0101C06D9341505040E0F70895EB
:1035100011E0C2EDD1E004C0FE010E942E192196F7
:0A352000C33DD107C9F7F894FFCFAF
:10352A000F00F401D00704000401FFFFFFFF00E1D0
:10353A00000000000000DD03DD03DD03DD03DD0321
:10354A000000E8038000121415040C9C01B501CF99
:10355A0001EA0107022602470269028E02B502DE6B
:10356A00020A0300C1808100000000000000280553
:10357A00A30449053E058F054D056B0500000000B3
:10358A004E084308DD0B19083C0829081A080000F0
:10359A000000EE0C560DDD0BDC0B000000001D07D1
:1035AA0000000000360C000000001A0D0D0A000091
:00000001FF
