:100000000C94D7010C94FC0E0C94D50E0C94AE0EEF
:100010000C94870E0C94FF010C94FF010C94600E5D
:100020000C94FF010C94BB130C94230F0C94920FAF
:100030000C94FF010C94FF010C94FF010C94FF0140
:100040000C94FF010C94FF010C94FF010C94FF0130
:100050000C94FF010C94FF010C94FF010C94160EFC
:100060000C94FF010C94FF010C94FF010C94FF0110
:100070000C94FF010C94FF010C94FF010C94FF0100
:100080000C94FF010C94FF010C94FF010C94FF01F0
:100090000C9406140C94FF010C94FF010C94FF01C6
:1000A0000C94FF010C94C4110C94FF01000000009B
:1000B0000000004F00000007000700147F147F14A9
:1000C000242A7F2A122313086462364955225000DD
:1000D00000070000001C2241000041221C001408FF
:1000E0003E081408083E08080050300000080808C0
:1000F0000808006060000020100804023E514945D5
:100100003E00427F400042615149462141454B310A
:100110001814127F1027454545393C4A4949300398
:10012000017109073649494936064949291E0036F1
:100130003600000056360000081422410014141442
:100140001414004122140802015109063249794170
:100150003E7E1111117E7F494949363E414141227F
:100160007F4141413E7F494949417F090909013E9B
:100170004149497A7F0808087F00417F41002040BB
:10018000413F017F081422417F404040407F020CE4
:10019000027F7F0408107F3E4141413E7F090909EB
:1001A000063E4151215E7F09192946464949493198
:1001B00001017F01013F4040403F1F2040201F3F81
:1001C0004038403F63140814630708700807615102
:1001D000494543007F41410002040810200041418D
:1001E0007F0004020102044040404040000102043C
:1001F0000020545454787F484444383844444420C0
:10020000384444487F3854545418087E0901020C7D
:100210005252523E7F0804047800447D4000204042
:10022000443D007F1028440000417F40007C0418BA
:1002300004787C0804047838444444387C1414144A
:1002400008081414187C7C080404084854545420EA
:10025000043F4440203C4040207C1C2040201C3C6B
:100260004038403C44281028440C5050503C4464D2
:10027000544C44000836410000007F000000413625
:1002800008000C02040806081C2A080800030C0FCA
:1002900030333C3FC0C3CCCFF0F3FCFF0000000084
:1002A0002300260029002C002F00080B0002020268
:1002B00000000904000001020200000524001001F2
:1002C0000524010101042402060524060001070596
:1002D000810310004009040100020A000000070524
:1002E00002024000000705830240000004030904E5
:1002F00012010002EF020140FB1F00230001010276
:100300000301506F6C6F6C7520436F72706F726178
:1003100074696F6E00506F6C6F6C7520412D537453
:100320006172203332553400506F7765723A200085
:1003300000000000240027002A002D0030000000EB
:100340000000250028002B002E00310004040404C6
:10035000040304050202020204030202020206066A
:100360000606060604040202020404040802011040
:1003700040804010204080408008020401804020DE
:1003800010020110801020404020000000020009EF
:100390000F0000030401000C00000000000000003A
:1003A000000000000000000000005815E5191124AD
:1003B0001FBECFEFDAE0DEBFCDBF11E0A0E0B1E0BD
:1003C000E8E6FCE302C005900D92AC3BB107D9F71B
:1003D00024E0ACEBB1E001C01D92A530B207E1F71B
:1003E00011E0C6EDD1E004C02197FE010E94E71C98
:1003F000C53DD107C9F70E94B7150C94271E0C9470
:1004000000005B9887FD5D9A87FF5D985B9A5B981B
:1004100086FD5D9A86FF5D985B9A5B9885FD5D9A87
:1004200085FF5D985B9A5B9884FD5D9A84FF5D987B
:100430005B9A5B9883FD5D9A83FF5D985B9A5B98FE
:1004400082FD5D9A82FF5D985B9A5B9881FD5D9A63
:1004500081FF5D985B9A5B9880FD5D9A80FF5D9857
:100460005B9A0895FC018091A202882311F13FB7A5
:10047000F89482E08093E9002091F200822F90E0CE
:100480001816190614F481E090E0882339F02898B2
:1004900044E64093A1024091F1004083222339F0C9
:1004A0002091F200211103C02BE62093E8003FBF0A
:1004B00008958FEF9FEF08952FB7F89483E080930E
:1004C000E9009091E800892F807295FF04C0909117
:1004D000F20080E4891B2FBF089580919902811159
:1004E0000DC082E08093950284E080939602109282
:1004F00098021092970281E08093990285E992E038
:10050000089581508F3008F047C0E82FF0E0E5579C
:10051000FD4F0C94E71CA802AC029A02A002A402B0
:10052000CC02CC02CC02AF02B502B902BD02C302BA
:10053000CC02C702809180008F778093800008955D
:10054000809180008F7DF9CF80918000877FF5CFEB
:1005500084B58F7784BD089584B58F7DFBCF80915E
:1005600090008F77809390000895809190008F7D08
:10057000F9CF80919000877FF5CF8091C0008F7771
:100580008093C00008958091C0008F7DF9CF809145
:10059000C200877F8093C20008951F93CF93DF939B
:1005A000282F30E0F901E657FC4F8491F901E55915
:1005B000FC4FD491F901E45BFC4FC491CC23A9F02A
:1005C000162F81110E948102EC2FF0E0EE0FFF1F29
:1005D000E25CFC4FA591B4918FB7F894EC911111A6
:1005E00008C0D095DE23DC938FBFDF91CF911F91A0
:1005F0000895DE2BF8CFCF93DF9390E0FC01E5590F
:10060000FC4F2491845B9C4FFC0184918823C9F0AA
:1006100090E0880F991FFC01E05DFC4FA591B4911B
:10062000FC01E25CFC4FC591D49161110DC09FB7F4
:10063000F8948C91209582238C9388812823288399
:100640009FBFDF91CF910895623051F49FB7F89426
:100650003C91822F809583238C93E8812E2BEFCFC2
:100660008FB7F894EC912E2B2C938FBFEACF80910B
:10067000F4038F3F61F061E00E94FB0260E0809133
:10068000F4030E94CD028BE193E00197F1F7089506
:100690003FB7F8948091910290919202A0919302B9
:1006A000B091940226B5A89B05C02F3F19F0019682
:1006B000A11DB11D3FBFBA2FA92F982F8827BC01BC
:1006C000CD01620F711D811D911D42E0660F771FE4
:1006D000881F991F4A95D1F708958F929F92AF92E4
:1006E000BF92CF92DF92EF92FF924B015C010E948A
:1006F00048036B017C010E9448036C197D098E0937
:100700009F09683E734081059105A8F321E0821A94
:100710009108A108B10888EEC80E83E0D81EE11C3C
:10072000F11C81149104A104B10429F7FF90EF900A
:10073000DF90CF90BF90AF909F908F9008952FB78C
:10074000F89460918D0270918E0280918F02909149
:1007500090022FBF0895E0916C02F0916D023097E6
:1007600029F0109269021092680209940895CF93BB
:10077000DF93AC01E0916E02F0916F023097F1F0DF
:1007800090916B0280916A029817C0F090E0292F37
:1007900030E02617370754F4D901A454BE4F240F74
:1007A000351FE90128812C939F5FF1CF10926B02D6
:1007B00060936A02CB01DF91CF910994DF91CF91D1
:1007C0000895089540915E0250915F0220915C026D
:1007D00030915D0242175307B4F49091E800957090
:1007E000E1F39091E80092FD19C08093F1008091AF
:1007F0005E0290915F0201968F739927892B19F4FD
:100800008EEF8093E80080915E0290915F020196E6
:1008100090935F0280935E0281E0089580E00895E6
:10082000DF92EF92FF920F931F93CF93DF93D82E17
:100830008A01EB017B01E40EF51ECE15DF0559F0B0
:10084000D7FE12C0FE0184910E94E203219681111D
:10085000F4CF0FEF1FEFC801DF91CF911F910F91E0
:10086000FF90EF90DF9008958881EECF0F931F9354
:10087000CF93DF931F92CDB7DEB782E0898342E446
:1008800050E06AEA72E080E80E9410040E946D0263
:10089000DC0112960D911C910115110589F0D8010A
:1008A000ED91FC910280F381E02DBE016F5F7F4FDF
:1008B000C801099597FD04C0F80100851185ECCFAA
:1008C00089810F90DF91CF911F910F910895615011
:1008D00030F02091F100FC0120830196F8CF289898
:1008E00084E68093A10208958F929F92AF92BF9267
:1008F000CF92DF92EF92FF920F931F93CF93DF93EC
:100900006C017B018A0180911501882309F45CC088
:100910008091A202882309F457C08091620280FF6F
:1009200005C08091E00082608093E000E801B12C76
:100930008AEFA82E93E0892E2AE3922E209711F4B5
:10094000BB20D9F10E945C0281110AC0AA94AA209E
:10095000D9F161E070E080E090E00E946D03EECF9D
:100960008C171D0611F00CF08C2F9FB7F894809215
:10097000E9002091E80025FD02C09FBFDFCF282FAE
:1009800030E0C21BD30BF701815020F0419140931E
:10099000F100FACFE20EF31EBB2021F09092E800A6
:1009A000B12CEBCF8091E80085FDE7CF9092E80075
:1009B000BB24B394209709F3F3CF5D9884E680932A
:1009C0006102101611063CF081E090E0F60193837D
:1009D000828310E000E0C801DF91CF911F910F9159
:1009E000FF90EF90DF90CF90BF90AF909F908F904F
:1009F0000895CF93DF931F92CDB7DEB76983DC01F3
:100A0000ED91FC910280F381E02D41E050E0BE01C8
:100A10006F5F7F4F09950F90DF91CF91089583E02D
:100A20008093E9008091F200882319F08AE3809393
:100A3000E80008950E945C0290E00895CF93DF9350
:100A40001F92CDB7DEB7FC018485958597FD08C060
:100A50002FEF3FEF358724870F90DF91CF910895D7
:100A6000CE0101960E943202019719F4898190E02B
:100A7000F3CF8FEF9FEFF0CF0F931F93CF93DF93C1
:100A80001F92CDB7DEB78C01FC018485958597FF59
:100A90000BC0CE0101960E943202019771F4898148
:100AA00090E0F80195878487F801848595850F90FB
:100AB000DF91CF911F910F9108958FEF9FEFF1CFAD
:100AC000FC018485958597FD0BC09FB7F89482E063
:100AD0008093E9008091F2009FBF90E00196089515
:100AE0009FB7F89482E08093E9008091F2009FBF65
:100AF00090E0089580915902E0915A02F0915B02D2
:100B0000882339F084919FEB980F9A3120F4805E0E
:100B100008958081F8CF803269F420915A02309193
:100B20005B02A9014F5F5F4F50935B0240935A02F3
:100B3000232B01F708951F93CF93DF930E947A052B
:100B4000D0E0C0E01AE090ED980F9A30B8F41C9F06
:100B500090011D9F300D1124E901C80FD11D87FDA3
:100B6000DA95E09780915A0290915B0201969093FA
:100B70005B0280935A020E947A05E5CFCE01DF9195
:100B8000CF911F9108953F924F925F926F927F9203
:100B90008F929F92AF92BF92CF92DF92EF92FF928D
:100BA0000F931F93CF93DF937B01D42E2091560296
:100BB00021111BC021E02093560210927200109266
:100BC000C00034E03093C10039E03093C20020937C
:100BD000C30023E02093BF0028EE2093D1001092A1
:100BE000BF001092D200579A789410920901CC2439
:100BF000C39497FF03C09F77AAE0CA2EC8E2CC9E99
:100C0000C02D1124D0E08C179D0750F021E0EC019D
:100C1000C21206C0C13187E2D80710F0C0E1D7E2A6
:100C20004E01B12CA12C4C2C512C712C612C9E010D
:100C3000AFEFB7E00E94761A640D751D861D971DF3
:100C40009695879577956795A30192010E94541A0E
:100C500060E072E18AE790E0312C33946217730709
:100C60008407950728F09695879577956795F5CF32
:100C7000A30192010E94B71C9E0136952795620F31
:100C8000731F811D911DA50194010E94541A722E9B
:100C9000022F132F2AE0C21207C0CE0105966AE088
:100CA00070E00E94D31CEB01C83E83E0D80759F0E6
:100CB0009701DE010E94761A28EE33E040E050E012
:100CC0000E942A1A7901109272008091C100807FDF
:100CD00083298093C1001093BF007092D1004D2DE5
:100CE000403108F04FE080E190E0841B910902C0A0
:100CF000169507958A95E2F71093BF000093D200EE
:100D0000F0925802E092570289B38FEF89BB84E0DA
:100D100080937200DF91CF911F910F91FF90EF9020
:100D2000DF90CF90BF90AF909F908F907F906F900B
:100D30005F904F903F9008952E98269A2D98259A6F
:100D40002A98229A2998219A80EA8093800081E14A
:100D50008093810080E991E09093870080938600E2
:100D6000109289001092880010928B0010928A00D5
:100D70000895CF93DF93EC0180915202811105C059
:100D800081E0809352020E949C0680E0D7FF04C05D
:100D9000D195C195D10981E0D0938900C093880095
:100DA000811102C0299801C0299A219ADF91CF911F
:100DB0000895CF93DF93EC0180915202811105C019
:100DC00081E0809352020E949C06D0938B00C093D6
:100DD0008A002A98229ADF91CF9108959FB191704D
:100DE0008CB186FB882780F9892720914E023091AB
:100DF0004D02409173025091740228273927231B1A
:100E0000330B240F351F30937402209373023091FB
:100E10004D0220914E02381729F0291719F021E0D0
:100E200020934C0280934D0290934E020895249893
:100E30002C9A6A98729A6E98769A8098889A81E02D
:100E40008093680090E190936B008BBB8EEE96E0F0
:100E500090931F0180931E01EAE6F0E080818F7C71
:100E600080618083EE9A8CB182FB882780F9809321
:100E7000510293B18091510292959170892780938C
:100E80005002109271021092700210924F028FB1B4
:100E9000817080934E029CB180914E0296FB9927FF
:100EA00090F9892780934D02109274021092730278
:100EB00010924C0208955F926F927F928F929F9250
:100EC000AF92BF92CF92DF92EF92FF920F931F9358
:100ED000CF93DF93FC0122853385232B09F492C045
:100EE0006B01EC0110E08C851817E8F4E12EF12C71
:100EF0008E859F85F701EE0FFF1FEC0DFD1D918381
:100F00008083EA85FB85EE0DFF1D61E080810E94F4
:100F1000CD02EA85FB85EE0DFF1D61E080810E9418
:100F2000FB021F5FE0CF83E290E00197F1F710E052
:100F30008C851817A0F4E12EF12CEA85FB85EE0DC7
:100F4000FF1D60E080810E94FB02EA85FB85EE0DBB
:100F5000FF1D60E080810E94CD021F5FE9CF0E94EB
:100F600048034B015C010E944803AB01BC014819D6
:100F700059096A097B098E859F85B0E0A0E0481772
:100F800059076A077B0708F03DC00E9448037B01B0
:100F9000E818F908612C8C85681628F7062D10E0F2
:100FA000EA85FB85E00FF11F208130E0F901E6576B
:100FB000FC4F8491F901E559FC4F7490F901E45B11
:100FC000FC4F549051100CC0000F111FF601E00FA0
:100FD000F11F80819181E816F90688F06394DBCFD8
:100FE00081110E948102E52DF0E0EE0FFF1FE45613
:100FF000FD4FA591B491EC917E2231F3EFCFF182B8
:10100000E082ECCFDF91CF911F910F91FF90EF9095
:10101000DF90CF90BF90AF909F908F907F906F9018
:101020005F90089520910202260F3327331F21324B
:101030003105ECF420912602FC0190E080E02430A0
:1010400069F082E00895A09102022191AC014E5115
:101050005E4FA40FB52FB11D2C930196861798F300
:1010600080910202680F6093020280E0089581E09F
:1010700008951092260281E08093280210922702A0
:1010800061E082E00E94CD0261E083E00E94CD0237
:10109000E9EBF0E080818E7F808380818D7F80838B
:1010A00088E48093B80085E48093BC000895089597
:1010B000E0916B0280916A02E81730F4F0E0E454AA
:1010C000FE4F808190E008958FEF9FEF08959091FB
:1010D0006B0280916A022FEF3FEF981748F4E92FD7
:1010E000F0E0E454FE4F208130E09F5F90936B026C
:1010F000C901089580916A0290916B02891B990B36
:101100000895CF93DF93CB01EA01642F0E94120868
:10111000CE01DF91CF910895CF93DF931F92CDB78A
:10112000DEB7698361E0CE0101960E94120881E07A
:1011300090E00F90DF91CF910895289A209A08951A
:101140002898209A08955F926F927F928F929F9233
:10115000AF92BF92CF92DF92EF92FF920F931F93C5
:10116000CF93DF935C01D62FC42FF22E132F0E9452
:10117000A0088D2F806B0E9401028C2F82958F70AA
:1011800080610E9401028C2F8F700E9401020E94D8
:101190009D08CF2DD12F0C0F1D2F111D95E0692E0D
:1011A000C017D10709F444C07990872D8052990B5C
:1011B0009C01629EC001639E900D1124769C4001AB
:1011C0001124F12CE12C9C0124553F4F69013FE192
:1011D000371508F5F601EE0DFF1DE491F0E084E00F
:1011E000F595E7958A95E1F7E457FD4F5490852DE5
:1011F0000E940102852D0E9401029FEFE91AF90A5F
:1012000025E0E216F10419F780E00E94010280E077
:101210000E940102C5CF87E0E0E08715F8F2F401F3
:10122000EE0DFF1DE254FF4FEA0DFB1DE081D6CF0E
:10123000DF91CF911F910F91FF90EF90DF90CF90B2
:10124000BF90AF909F908F907F906F905F90089528
:101250005F926F927F928F929F92AF92BF92CF9246
:10126000DF92EF92FF920F931F93CF93DF935C0176
:10127000D62FC42FF22E132F0E94A0088D2F806B23
:101280000E9401028C2F82958F7080610E94010262
:101290008C2F8F700E9401020E949D08CF2DD12FAC
:1012A0000C0F1D2F111D85E0682EC017D10709F402
:1012B00040C07990872D8052990B9C01629EC0019D
:1012C000639E900D1124769C40011124F12CE12C99
:1012D0009C0124553F4F69013FE13715E8F4F601C1
:1012E000EE0DFF1DE491EF70F0E0E457FD4F5490D8
:1012F000852D0E940102852D0E9401029FEFE91AAF
:10130000F90A25E0E216F10439F780E00E940102B3
:1013100080E00E940102C9CF87E0E0E0871518F362
:10132000F401EE0DFF1DE254FF4FEA0DFB1DE081BD
:10133000DACFDF91CF911F910F91FF90EF90DF9067
:10134000CF90BF90AF909F908F907F906F905F9065
:1013500008956F927F928F929F92AF92BF92CF9299
:10136000DF92EF92FF920F931F93CF93DF935C0175
:10137000D62FC42FF22E132F0E94A0088D2F806B22
:101380000E9401028C2F82958F7080610E94010261
:101390008C2F8F700E9401020E949D08CF2DD12FAB
:1013A0000C0F1D2F111D85E0682EC017D107A9F164
:1013B0007990872D8052990B9C01629EC001639E9B
:1013C000900D1124769C40011124F12CE12C9C01FC
:1013D00024553F4F69013FE1371588F4F601EE0DC2
:1013E000FF1D84910E9401029FEFE91AF90A25E08E
:1013F000E216F10481F780E00E940102D6CF87E077
:10140000871548F0F701E80DF91DE254FF4FEA0D8A
:10141000FB1D8081E7CF80E0E5CFDF91CF911F9169
:101420000F91FF90EF90DF90CF90BF90AF909F9083
:101430008F907F906F900895282F21FB0EF02098B9
:1014400020FB0EF028980EF4289A21FB0EF4209A27
:10145000089580917502882381F06091770283EF6F
:1014600092E00E948C0810927B0210927C021092F3
:101470007D0210927E0210927F020895CF93DF9337
:10148000EC01288121FB0EF0559820FB0EF05D98B1
:101490000EF45D9A21FB0EF4559A89810E941C0A74
:1014A000E9EEF0E010828C818093F0008B818083E4
:1014B0008A818093E200DF91CF910895FC01A2EE32
:1014C000B0E08C9182831C92A9EEB0E08C91838372
:1014D0001C92A0EFB0E08C9184831C9220E05D9977
:1014E000216055992260208320E02899216020996D
:1014F000226021835D98559A0895CF92DF92EF92F2
:10150000FF920F93CF93DF93EC017C0184E0E80E10
:10151000F11CC7010E945E0A6E0184E1C80ED11C55
:1015200008E0960143E162E0CE010E94280996019D
:1015300043E163E0CE010E94A3086E0189E2C80E78
:10154000D11C960143E165E0CE010E942809960175
:1015500043E166E0CE010E94A308C701DF91CF916D
:101560000F91FF90EF90DF90CF900C943E0AEF9296
:10157000FF920F93CF93DF93EC017C0184E0E80EA0
:10158000F11CC7010E945E0A9E012C5E3F4F05E1DF
:1015900042E060E0CE010E94A9099E01275D3F4F15
:1015A00042E061E0CE010E94A9099E01225C3F4F0A
:1015B00042E062E0CE010E94A9099E012D5A3F4FF0
:1015C00042E063E0CE010E94A9099E0128593F4FE5
:1015D00042E064E0CE010E94A9099E0123583F4FDA
:1015E00042E065E0CE010E94A9099E012E563F4FC0
:1015F00042E066E0CE010E94A9099E0129553F4FB5
:1016000042E067E0CE010E94A909C701DF91CF91B6
:101610000F91FF90EF900C943E0AEF92FF920F9380
:101620001F93CF93DF938C017C0184E0E80EF11CC3
:10163000C7010E945E0A0E94A00882E00E94010287
:10164000C0E00E94A0088C2F806B0E94010280E104
:101650000E9401020E949D08D0E080E00E940102E9
:10166000DF5FD038D1F7CF5FC83059F7C7010E948C
:101670003E0AF8011286DF91CF911F910F91FF90E2
:10168000EF900895AF92BF92CF92DF92EF92FF92C8
:101690000F931F93CF93DF937C01122F683008F0D4
:1016A00043C0423008F040C088E0861B8217D0F16A
:1016B0002223D1F1C42FCC0FC40FDCE06D9FD02DBD
:1016C0001124DD5E670124E1C20ED11C862F90E05B
:1016D00025E1429F800D911D1124C80ED91E57018E
:1016E00084E0A80EB11CC5010E945E0A62E06C0F86
:1016F000012F96014D2FC7010E94280963E06C0F4E
:1017000096014D2FC7010E94A308C501DF91CF911B
:101710001F910F91FF90EF90DF90CF90BF90AF900F
:101720000C943E0A182FC6CFDF91CF911F910F91D5
:10173000FF90EF90DF90CF90BF90AF900895BF9251
:10174000CF92DF92EF92FF920F931F93CF93DF938D
:10175000EC01162FB42E022F653198F527E02417DF
:1017600080F185E1861B801750F1002351F1CE01F5
:101770004496E12EF12C25E1B29EE00CF11C1124DF
:10178000E80EF91E6E0184E0C80ED11CC6010E944D
:101790005E0A412F440F410F440F4E5F97016B2D9E
:1017A000CE010E94A909C601DF91CF911F910F912F
:1017B000FF90EF90DF90CF90BF900C943E0A082FDF
:1017C000D6CFDF91CF911F910F91FF90EF90DF90D7
:1017D000CF90BF900895089590E080E008950E9412
:1017E000121EFB0101900020E9F73197AF01461B63
:1017F000570BDC01ED91FC910280F381E02D0994FF
:101800008F929F92AF92BF92EF92FF920F931F938E
:10181000CF93DF93CDB7DEB7A1970FB6F894DEBFB5
:101820000FBECDBF7C01FA01CB0119A2223008F412
:101830002AE08E010F5D1F4F822E912CB12CA12C1E
:10184000BF01A50194010E94541AF901CA016A302E
:101850000CF5605DD8016E938D01232B242B252B75
:1018600079F790E080E0109721F0BD01C7010E9458
:10187000F10BA1960FB6F894DEBF0FBECDBFDF917E
:10188000CF911F910F91FF90EF90BF90AF909F90DD
:101890008F900895695CDECF0F931F93CF93DF93F2
:1018A000EC010E94F10B8C016CE871E0CE010E940A
:1018B000F10B800F911FDF91CF911F910F91089530
:1018C000CF92DF92EF92FF9280916A0290916B0229
:1018D000891B990B18161906FCF483EF92E00E94FD
:1018E00067086C01990FEE08FF082AE0B701A6010E
:1018F000F7FE0DC06DE283EA92E00E94F9044427EE
:101900005527BA014C195D096E097F092AE083EA5F
:1019100092E00E94000CD8CF6CE871E083EA92E07C
:101920000E94F10B6FE871E083EA92E0FF90EF9084
:10193000DF90CF900C944C0CCF93DF9385ED809388
:10194000BC008091DE019091DF01A091E001B09197
:10195000E1010796A11DB11D23E0B695A7959795C6
:1019600087952A95D1F72091BC0024FD03C01092E1
:10197000260236C04091DE015091DF016091E00106
:101980007091E101452B462B472B69F30097A10588
:10199000B10541F02AE22A95F1F700C00197A109AB
:1019A000B109E1CF8091DD0191E09093DC018823C2
:1019B000B9F0C091B800D091BA008091BC008A7B88
:1019C0008093BC0060E082E00E94CD0260E083E092
:1019D0000E94CD020E943908D093BA00C093B8008B
:1019E000DF91CF9108950F931F93CF93DF93EC0175
:1019F0005B98539A5A98529A85E38A95F1F70000BA
:101A00005A9A529A85E38A95F1F70000CE010E9416
:101A10000D0B8E010C5F1F4FC8010E945E0A0E94D1
:101A2000A00881EA0E94010288EC0E94010281E87C
:101A30000E9401028FEF0E9401028FEA0E940102C0
:101A4000C8010E943E0A81E08987DF91CF911F91F2
:101A50000F910895FF920F931F93CF93DF93EC01A3
:101A6000162F042FF22E8985811103C0CE010E940A
:101A7000F30C8A85882319F0CE010E940D0B2A8968
:101A80003B89C901959587958C0F9D1FE889F98938
:101A900020FF08C0DC012D913C91E20FF31F019063
:101AA000F081E02D2F2D402F612FDF91CF911F91DD
:101AB0000F91FF900994CF93DF93DC01A354BF4FA4
:101AC0002C91283008F5EC01C454DF4FE881E53152
:101AD000D8F4AC0175E1279F400D511D1124E40F8E
:101AE000F52FF11D648BFC012385211105C021E038
:101AF0004C9168810E942A0D88818F5F888381E0E4
:101B000090E0DF91CF91089590E080E0FACFAF921E
:101B1000BF92CF92DF92EF92FF920F931F93CF93DA
:101B2000DF9382EEE82EF12CF70100811082C9EEDE
:101B3000D0E0B880188290EFC92ED12CF601A08099
:101B4000108220E02899216020992260822F20981D
:101B5000289A90E19A95F1F713B10E941C0A188215
:101B6000F601A082B882F7010083812F80958170F1
:101B7000DF91CF911F910F91FF90EF90DF90CF9069
:101B8000BF90AF9008950C941C1ABF92CF92DF9231
:101B9000EF92FF920F931F93CF93DF938C01EA0193
:101BA0006C012DEBC20ED11CF60130813830D8F516
:101BB0007C01FCEBEF0EF11CF7018081853198F57B
:101BC00025E1281B90E02417150620F4C5E1D0E09C
:101BD000C81BD90BF5E13F9F800D911D1124AE016B
:101BE00098012C5E3F4F820F931F0E94171EBC2E40
:101BF000F8018385811108C02C2FF6014081F7017F
:101C00006081C8010E942A0DF70180818B0D8083BD
:101C1000CE01DF91CF911F910F91FF90EF90DF9058
:101C2000CF90BF900895D0E0C0E0F2CF1F920F9206
:101C30000FB60F9211242F933F938F939F93AF93DF
:101C4000BF9380918D0290918E02A0918F02B091EE
:101C5000900230918C0223E0230F2D3758F5019626
:101C6000A11DB11D20938C0280938D0290938E0252
:101C7000A0938F02B0939002809191029091920272
:101C8000A0919302B09194020196A11DB11D809381
:101C9000910290939202A0939302B0939402BF9109
:101CA000AF919F918F913F912F910F900FBE0F9009
:101CB0001F90189526E8230F0296A11DB11DD2CFC3
:101CC0001F920F920FB60F9211242F933F934F93B1
:101CD0005F936F937F938F939F93AF93BF93EF9394
:101CE000FF93E0911E01F0911F010995FF91EF9183
:101CF000BF91AF919F918F917F916F915F914F9124
:101D00003F912F910F900FBE0F901F9018951F922B
:101D10000F920FB60F9211242F933F934F935F931F
:101D20006F937F938F939F93AF93BF93EF93FF93A3
:101D3000E0911C01F0911D010995FF91EF91BF9178
:101D4000AF919F918F917F916F915F914F913F9153
:101D50002F910F900FBE0F901F9018951F920F920A
:101D60000FB60F9211242F933F934F935F936F936E
:101D70007F938F939F93AF93BF93EF93FF93E091E4
:101D80001A01F0911B010995FF91EF91BF91AF915D
:101D90009F918F917F916F915F914F913F912F9183
:101DA0000F900FBE0F901F9018951F920F920FB6B5
:101DB0000F9211242F933F934F935F936F937F93D1
:101DC0008F939F93AF93BF93EF93FF93E09118018D
:101DD000F09119010995FF91EF91BF91AF919F91FA
:101DE0008F917F916F915F914F913F912F910F90C4
:101DF0000FBE0F901F9018951F920F920FB60F9263
:101E000011242F933F934F935F936F937F938F93FF
:101E10009F93AF93BF93EF93FF93E0911601F091DF
:101E200017010995FF91EF91BF91AF919F918F910C
:101E30007F916F915F914F913F912F910F900FBEC6
:101E40000F901F9018951F920F920FB60F921124AA
:101E50008F939F938091E1009091E100937F909305
:101E6000E10083FF0FC01092E90091E09093EB0036
:101E70001092EC0092E39093ED001092A20298E091
:101E80009093F00082FF22C093E09093E90090913C
:101E9000F200992319F09AE39093E800909161027F
:101EA000992341F0909161029150909361029111B8
:101EB00001C05D9A9091A102992341F09091A102F5
:101EC00091509093A102911101C0289A84FF18C0EB
:101ED0008091E2008E7E81608093E2008091E1003B
:101EE0008F7E8093E100809162028E7E806180937C
:101EF00062029F918F910F900FBE0F901F901895C7
:101F000080FFF7CF8091E2008E7E80618093E200B7
:101F10008091E1008E7E8093E100809162028E7E4E
:101F20008160E5CF1F920F920FB60F921124CF92CE
:101F3000DF92EF92FF920F931F932F933F934F9354
:101F40005F936F937F938F939F93AF93BF93EF9321
:101F5000FF93CF93DF93CDB7DEB76C97DEBFCDBFD6
:101F60001092E9008091E80083FF25C068E0CE016F
:101F700045960E94670482EF8093E8008D8987FF71
:101F800039C09091E80090FFFCCF982F907609F02F
:101F900034C19E894F89588D2F89F88C911131C099
:101FA000803861F5809163028093F1001092F10016
:101FB0008EEF8093E8006C960FB6F894DEBF0FBEEC
:101FC000CDBFDF91CF91FF91EF91BF91AF919F91E5
:101FD0008F917F916F915F914F913F912F911F91C1
:101FE0000F91FF90EF90DF90CF900F900FBE0F906A
:101FF0001F9018959EEF9093E800C7CF1092F100C4
:10200000D5CF913059F48111D3CF4130510581F6AC
:10201000809163028D7F80936302CACF933049F42D
:102020008111C6CF4130510519F68091630282605B
:10203000F2CF953041F48091E80080FFFCCF20681A
:102040002093E300B5CF963009F0A9C00B8D1C8D0D
:1020500022E01092E90010925F0210925E02F212EA
:102060002EC010925D0210925C020E9436041F8204
:1020700099E09983FA8291E09E8390EA98879AEF9B
:10208000998720915E0230915F02275F3F4F3C832A
:102090002B838D831092E90010925F0210925E02F2
:1020A00010935D0200935C0249E050E0BE016F5F57
:1020B0007F4F80E00E9410040E94360479CF109375
:1020C0005D0200935C020E946D02DC0112960D918C
:1020D0001C910115110509F451C1D801ED91FC9134
:1020E0000480F581E02DBE016B5E7F4FC80109952C
:1020F000009709F03EC1F80100851185EACFF3E0B1
:10210000FF120EC08F89882309F440C0823061F429
:1021100040E862E185E193E00E942515811148CFF6
:1021200081E28093EB0047CF813029F440E862E1FF
:1021300082E093E0F1CF833099F70E946D02DC01D9
:102140001296ED90FC908E010F5F1F4F6801E11415
:10215000F10479F0D701ED91FC910680F781E02D33
:10216000B801C7010995080F111DF701E084F1843A
:10217000EECFD8011C92F60101900020E9F73197CB
:10218000BF016C197D0940E0C601C6CF6CEE72E05C
:10219000FB01449150E080E80E94100409CF973081
:1021A00009F4BECF983021F481E08093F10000CF94
:1021B000993009F0FDCE837009F0B2CFE4E4F1E08C
:1021C00081E031E096E32191222371F08093E900D0
:1021D0003093EB00DF0111972C912093EC0090934A
:1021E000ED008F5F873079F78EE78093EA001092D9
:1021F000EA008F898093A202DBCE8B8D9C8D10929A
:10220000E90010925F0210925E0290935D0280934B
:102210005C02898D811192C08E899D89913A49F421
:10222000813209F07DCF47E050E06EE071E080E060
:10223000B3CF913209F074CF833269F48F89988DCE
:10224000B0E0A0E080930A0190930B01A0930C01F1
:10225000B0930D01ADCE803269F48091E80082FF29
:10226000FCCF67E08EE091E00E9467048BEF8093E3
:10227000E8009ECE823209F09BCE8F8980931501B3
:10228000EEEFFFE7859194918B3F9C4D51F1E0E09B
:10229000F8E080910E0190910F01A0911001B09192
:1022A0001101803B9440A105B105F1F48091150125
:1022B00080FD1AC0EE3F8AE0F80789F587E797E7C7
:1022C00091838083809160008093600288E19BE02D
:1022D0000FB6F894A895809360000FBE90936000AD
:1022E00067CEEEEFFAE0D5CF8081918187379747AF
:1022F00009F05ECEA89580916000886180936000AF
:102300008091600280936000EE3F2AE0F20789F03E
:102310008091FE0A9091FF0A9183808349CE80814B
:1023200091818737980751F29093FF0A8093FE0AB4
:10233000C5CF1092FF0A1092FE0A3ACE0E946D029B
:10234000DC0112960D911C910115110509F4E8CEDE
:10235000D801ED91FC910190F081E02DBE016B5E02
:102360007F4FC8010995811123CEF80100851185A1
:10237000EBCF181619060CF41BCED2CEF1E0FF12EB
:10238000BECE60EF72E004CF1F920F920FB60F9295
:1023900011244F925F926F927F928F929F92AF9291
:1023A000BF92CF92DF92EF92FF920F931F932F93E2
:1023B0003F934F935F936F937F938F939F93AF93CD
:1023C000BF93CF93DF93EF93FF93C0915702D091C8
:1023D0005802CE010197909358028093570220979C
:1023E000A1F51092720078948091C100807F846082
:1023F0008093C10083E08093BF0088EE8093D1007A
:102400001092BF001092D20081E080930901809168
:102410005A0290915B02892BC1F080915502811183
:1024200014C07090080180915402882379F1809142
:102430005302882359F16091530270E040E088EE26
:1024400093E00E94C30510925302FF91EF91DF9138
:10245000CF91BF91AF919F918F917F916F915F913C
:102460004F913F912F911F910F91FF90EF90DF902F
:10247000CF90BF90AF909F908F907F906F905F9024
:102480004F900F900FBE0F901F90189555245394A6
:1024900070ECA72E7DE5B72EEAE04E2EF4E06F2E0D
:1024A000A0EDCA2EA7E0DA2EB4E0EB2EF12C04EF5B
:1024B00011E08FE0882E912C0E947A0520915A021B
:1024C00030915B022F5F3F4F30935B0220935A02A3
:1024D000853609F473C00CF047C0813609F4B4C0E6
:1024E00024F58C3309F468C08E3309F463C081325B
:1024F00009F043C060920801D0920501C092040126
:10250000F0920701E092060110930301009302018B
:102510009092010180920001109254027090080183
:102520008091020190910301C7CF833609F48FC0D7
:1025300010E00BE0843614F010E002E04CE0749EF2
:10254000000D11240E947A05982F977F933209F08D
:1025500080C080915A0290915B02019690935B0239
:1025600080935A020F5FEECF8D3609F445C054F4C4
:10257000873651F134F18C3651F110925B02109292
:102580005A0263CF823709F44CC044F48F36A9F75E
:102590000E949B05782E809308018ECF843709F422
:1025A00043C0863751F70E949B05909301018093A9
:1025B000000182CF739480CF7A947ECF10E004E044
:1025C000BDCF10E005E0BACF10E007E0B7CF0E9422
:1025D0009B059093070180930601809104019091DF
:1025E000050160910601709107010E94D31C709350
:1025F00003016093020160CF0E947A058C3661F47A
:102600001092540280915A0290915B02019690932D
:102610005B0280935A0250CF5092540210925302A0
:10262000F1CF11E000E08ACF0E949B05BC01C501FB
:102630000E94D31C469EC001479E900D112490938A
:10264000050180930401C9CF10E009E077CF10E0C5
:10265000E9CF8D3269F480915A0290915B02019624
:1026600090935B0280935A0201500E947A05F1CF49
:10267000E0900201F09003018153883058F4E0901B
:102680000401F09005010E949B05BC01C7010E9456
:10269000D31C7B016701D694C7940E947A058E32C1
:1026A00061F480915A0290915B02019690935B02D3
:1026B00080935A02EC0CFD1CEECF809154028823CB
:1026C00049F0C701969587958093530280915302F4
:1026D000E81AF108C0900001D0900101111104C066
:1026E0000F3F11F0C11007C040E0B70188EE93E042
:1026F0000E94C305AACE013128F010EF100F10364A
:1027000008F01FE5812F6CE00E94C71C582F44EF92
:10271000450390011124210F311D2C30310538F46F
:10272000220F331FF901E55DFE4FC081D181873053
:10273000C1F0082E02C0CC0FDD1F0A94E2F78230F0
:1027400040F0CE0105966AE070E00E94D31CCB01F8
:1027500002C0CE0190584C2D403108F04FE0B70137
:10276000C7CFCE0126E0880F991F2A95E1F7029680
:1027700065E070E0EACF1F920F920FB60F9211241E
:102780002F933F934F936F937F938F939F938CB12E
:10279000282F30E03595279535952795422F4170A4
:1027A00083B190E064E0959587956A95E1F782277B
:1027B000817020915102909150026091700270914D
:1027C000710228279427291B330B260F371F3093BC
:1027D00071022093700220915002909151022817AB
:1027E00029F0941719F091E090934F0280935002D2
:1027F000409351029F918F917F916F914F913F91A3
:102800002F910F900FBE0F901F9018951F920F924F
:102810000FB60F9211242F933F934F935F936F93B3
:102820007F938F939F93AF93BF93EF93FF93809189
:10283000B900887F803609F44AC0F0F5883209F47F
:10284000A7C018F5803109F49BC0B8F4882309F4B7
:10285000F9C0883009F494C0FF91EF91BF91AF9116
:102860009F918F917F916F915F914F913F912F91A8
:102870000F900FBE0F901F901895883109F488C0F3
:10288000803251F78093250214C0803409F49DC032
:1028900040F48033B9F38833F9F68093250285EC50
:1028A000B0C0803509F485C0883509F496C08834F5
:1028B00099F60E949C0CD0CF883909F48CC038F569
:1028C000883729F050F4883611F0803729F683E0F4
:1028D000809326021092240257C0883809F47BC0E6
:1028E000803919F0803809F0B7CF80912402803206
:1028F00008F071C0E091240281E08E0F80932402E1
:102900008091BB00F0E0EC5FFD4F80833DC0803BD9
:1029100039F0E0F4803A09F479C0883A09F09CCFA4
:1029200084E0809326021092030210920202E0914A
:102930006602F091670209958091020281110FC031
:1029400081E0809302021092E20109C0803C09F408
:10295000A6CF883C09F4A3CF883B09F07DCFE09156
:10296000030281E08E0F80930302F0E0EE51FE4FF0
:1029700080818093BB00909103028091020229C064
:1029800080914B028093BB0085EC8093BC0064CFA8
:1029900090914A0280914902981758F5E0914A02B5
:1029A00081E08E0F80934A02F0E0E75DFD4F808169
:1029B000E9CFE0914A0281E08E0F80934A02809134
:1029C000BB00F0E0E75DFD4F808390914A0280916B
:1029D00049029817C8F285E8D8CFE0914A0281E011
:1029E0008E0F80934A028091BB00F0E0E75DFD4FBF
:1029F00080838091280281115CCF81E0809327023F
:102A000084EA8093BC001092260226CF85EC809346
:102A1000BC001092260280912402803230F4E091B2
:102A20002402F0E0EC5FFD4F10826091240270E020
:102A3000E0916402F091650284E092E009951092C1
:102A400024020ACF1092250234CFEF92FF920F9307
:102A50001F93CF93DF93F82E192FE62E042F81E0DA
:102A6000860F880F0E94E20383E00E94E203CF2DCD
:102A7000D12FEC0EFD2EF11CCE15DF05B9F007FFAE
:102A800013C0FE0184910E94E203182F80E00E948F
:102A9000E203812321968111EFCFDF91CF911F9126
:102AA0000F91FF90EF9008958881EDCF81E0F5CFF1
:102AB000CF93DF93E3EAF2E01382128288EE93E091
:102AC000A0E0B0E084839583A683B7832EE431E051
:102AD000318320832FEF3FEF35872487E3EFF2E048
:102AE0001382128284839583A683B78380E691E064
:102AF00091838083E9EFF3E0128215828AE891E006
:102B000091838083E7EEF3E01382128215821482B0
:102B10001782168211861086138612868EE791E040
:102B200091838083CFEFD2E01B821A8248EA50E083
:102B300060E270E083E193E00E94201E1092E603C1
:102B40001092E5038DE79AE09D878C871F861E868D
:102B500082E49BE0998B888B1B8A1A8A81E08A87A2
:102B600082E791E099838883DF91CF910895CF9395
:102B7000DF93CDB7DEB7C056D1090FB6F894DEBFEC
:102B80000FBECDBF789484B5826084BD84B581606A
:102B900084BD85B5826085BD85B5816085BD809128
:102BA0006E00816080936E001092810080918100A0
:102BB0008260809381008091810081608093810098
:102BC000809180008160809380008091910082607C
:102BD0008093910080919100816080939100809119
:102BE00090008160809390008091C1008460809308
:102BF000C1008091C10082608093C1008091C100BA
:102C000081608093C1008091C30081608093C30084
:102C10008091C00082608093C0008091C20081607A
:102C20008093C20080917A00846080937A008091C2
:102C30007A00826080937A0080917A00816080932C
:102C40007A0080917A00806880937A001092A202C4
:102C500010926302109262028091D700816080938B
:102C6000D70080EA8093D80089B5806189BD89B595
:102C7000826089BD09B400FEFDCF61E070E080E0B4
:102C800090E00E946D038091D8008F7C80618093DA
:102C9000D8008091E000807F8093E0008091E10087
:102CA0008E7E8093E1008DE08093E200559A209A19
:102CB00010926B0210926A021092690210926802DE
:102CC0000E9439088BEA93E0909367028093660232
:102CD00087EB93E0909365028093640282E0809397
:102CE000BA008FEF9FEF9093B0028093AF0289E21A
:102CF0009AE090936D0280936C0280E69CE0909342
:102D00006F0280936E021092E6031092E50387EB48
:102D10009AE090930C0380930B0310920E03109291
:102D20000D038FE99BE09093100380930F031092A3
:102D300012031092110381E08093090364E670E0AE
:102D400080E090E00E946D0360E590E080E00E94EA
:102D5000C30D60E081E090E00E94C30D60E082E07E
:102D600090E00E94C30D90E080E00E94141A8093CE
:102D7000760281E090E00E94141A682F70E090E0E3
:102D800080E00E94931B60937C0270937D0280938D
:102D90007E0290937F0282E090E00E94141A80935A
:102DA0007B0285E0E6E2F1E0DE01119601900D92F2
:102DB0008A95E1F71092EA031092E9031092EC036E
:102DC0001092EB031092EE031092ED031092F003B9
:102DD0001092EF031092F8031092F70385E08093AE
:102DE000F3038091F1039091F203892BC1F080E00D
:102DF0009091F303891708F065C0282F30E0E1E0D7
:102E0000F0E0EC0FFD1FE20FF31F9081E091F10362
:102E1000F091F203E20FF31F90838F5FE9CF85E01B
:102E200090E00E94ED1C9093F2038093F103892BB4
:102E3000F1F680ED97E09093F6038093F50389EF28
:102E400093E00E94870D8823D1F36AE070E080E070
:102E500090E00E946D0389EF93E00E94870D882324
:102E600071F384E690E00E94D9068CE99FEF0E94FE
:102E7000B9060E949F036B017C01EBE14E2EE3E05B
:102E80005E2E8091EB039091EC03892BF9F48091F5
:102E9000F30390E0880F991F0E94ED1C9093EC03C0
:102EA0008093EB03009709F4BCC0FC0190E080E044
:102EB0002091F3032817190649F044F0119211925A
:102EC0000196F6CF8BE08093F403B3CF8091E903B2
:102ED0009091EA03892BF9F48091F30390E0880F35
:102EE000991F0E94ED1C9093EA038093E9030097D9
:102EF00009F497C0FC0190E080E02091F3032817CB
:102F0000190649F044F02091F5033091F60321931E
:102F100031930196F2CF10E000E08091F4038F3FEF
:102F200059F061E00E94FB0261E08091F4030E948D
:102F3000CD02C2010197F1F7BE016F5B7F4F87EEB3
:102F400093E00E945B070E9437036090F303712CAB
:102F5000CE0101964C019E012F5D3F4FDE01AF5B1C
:102F6000BF4F5D011901DC0150E040E046155705F7
:102F700024F5F501819191915F010115110599F0F9
:102F8000F101608171816817790768F06D917C911A
:102F900011978617970768F04F5F5F4F1296F2E020
:102FA0002F0E311CE3CFF1019183808301151105B0
:102FB00069F711969C938E93EFCF0F5F1F4F0A30E6
:102FC000110509F0AACFA091E903B091EA0300919D
:102FD000EB031091EC0390E080E04091F30348177D
:102FE0001906F9F0F4F0F401419151914F01F80103
:102FF000608171816417750710F451834083F90172
:10300000419151919F016D917C91119746175707FE
:1030100018F411965C934E93019612960E5F1F4F13
:10302000DCCF0E949F036C197D098E099F09603ACD
:103030007F408105910508F424CF90E080E00E9454
:10304000D90690E080E00E94B90645E0442E512C5C
:10305000612C712C50E0252E50E0352E84E690E056
:103060000E94D90684E690E00E94B906809184020D
:1030700081110DC00E949F036093800270938102B2
:10308000809382029093830221E0209384028090B7
:103090007C0290907D02A0907E02B0907F0220E0A2
:1030A00030E04FE753E4C501B4010E94211C87FDC5
:1030B00015C080917B028F5F80937B0220E030E01F
:1030C0004FE753E4C501B4010E94851A60937C0266
:1030D00070937D0280937E0290937F0280917202B2
:1030E000811105C081E0809372020E941707F89455
:1030F000E0907002F09071021092710210927002D2
:10310000789480917202811105C091E090937202CF
:103110000E941707F89400917302109174021092A4
:10312000740210927302789480907C0290907D02D9
:10313000A0907E02B0907F02B701F7FE03C07195A8
:1031400061957109072E000C880B990B0E94951B45
:1031500026E53EE049E450E40E94261C27E73EEBCA
:103160004FE15DE30E94261C20E030E843E654E492
:103170000E94F21A6B017C01B80117FF03C0719520
:1031800061957109072E000C880B990B0E94951B05
:1031900026E53EE049E450E40E94261C27E73EEB8A
:1031A0004FE15DE30E94261C20E030E843E654E452
:1031B0000E94F21A9B01AC01C701B6010E94861A57
:1031C00020E030E040E251E40E94261C20E030E0A4
:1031D00040E05FE30E94261CA50194010E94861A2C
:1031E0006B017C01C501B4010E94641B81E090E089
:1031F0000E94C30D60917B0282E090E00E94C30DAB
:10320000C0927C02D0927D02E0927E02F0927F0218
:1032100060917B02AFEF6A9FB0011124072E000C72
:10322000880B990B0E94951BA70196010E94861A94
:103230000E94641B609377027093780280937902F6
:1032400090937A02A30192010E94541A10E5121B76
:10325000612F90E080E00E94C30D109376021092DF
:10326000BB031092BC0308E213E0F80164916623EB
:1032700041F08FEF92E00E945B0D0F5F1F4F892B93
:10328000A1F71092BB03F1E0F093BC0340917602EA
:1032900050E070E060E02AE08FEF92E00E94000CC6
:1032A0001092BB0323E02093BC036DE971E08FEF24
:1032B00092E00E944C0C1092BB0384E08093BC030C
:1032C00040917702509178026091790270917A0270
:1032D0002AE08FEF92E00E94000C6EEA71E08FEF1F
:1032E00092E00E94F10B0E949F03009180021091D6
:1032F00081022091820230918302601B710B820B4C
:10330000930B683873418105910508F457C00E94FA
:103310009F0348EA50E060E270E083E193E00E949E
:10332000201E1092BB031092BC0380910A038111EE
:103330002AC080910803811104C08FEF92E00E949F
:10334000F30C80910903882321F08FEF92E00E9413
:103350000D0B20910D0330910E03C90195958795B2
:1033600081509D4FE0910B03F0910C0320FF08C0AA
:10337000DC012D913C91E20FF31F0190F081E02DD3
:10338000099510920A0362EB71E08FEF92E00E94C0
:103390004C0CB1E0B093750290E080E00E94D90639
:1033A00090E080E00E94B9060E949F036093800233
:1033B00070938102809382029093830221143104DE
:1033C00009F44CCE0E94000049CE84E891E090932D
:1033D000E8038093E7038091F1039091F203009753
:1033E00011F00E94891D8091EB039091EC030097EE
:1033F00011F00E94891D8091EF039091F0030097D6
:1034000011F00E94891D8091E9039091EA030097D1
:1034100011F00E94891D8091ED039091EE030097B9
:1034200011F00C94891D0895F999FECF92BD81BDCC
:10343000F89A992780B50895262FF999FECF1FBADB
:1034400092BD81BD20BD0FB6F894FA9AF99A0FBECD
:1034500001960895052E97FB1EF400940E94411AD0
:1034600057FD07D00E94541A07FC03D04EF40C9469
:10347000411A50954095309521953F4F4F4F5F4FE2
:10348000089590958095709561957F4F8F4F9F4FD0
:1034900008950E94761AA59F900DB49F900DA49F49
:1034A000800D911D11240895A1E21A2EAA1BBB1BA9
:1034B000FD010DC0AA1FBB1FEE1FFF1FA217B30700
:1034C000E407F50720F0A21BB30BE40BF50B661F16
:1034D000771F881F991F1A9469F7609570958095DA
:1034E00090959B01AC01BD01CF010895A29FB00151
:1034F000B39FC001A39F700D811D1124911DB29F28
:10350000700D811D1124911D08955058BB27AA27C5
:103510000E949D1A0C94E71B0E94D91B38F00E9450
:10352000E01B20F039F49F3F19F426F40C94D61BCD
:103530000EF4E095E7FB0C94D01BE92F0E94F81BDA
:1035400058F3BA17620773078407950720F079F4D8
:10355000A6F50C941A1C0EF4E0950B2EBA2FA02D94
:103560000B01B90190010C01CA01A0011124FF2730
:10357000591B99F0593F50F4503E68F11A16F0402B
:10358000A22F232F342F4427585FF3CF469537952A
:103590002795A795F0405395C9F77EF41F16BA0BEF
:1035A000620B730B840BBAF09150A1F0FF0FBB1F9D
:1035B000661F771F881FC2F70EC0BA0F621F731FE6
:1035C000841F48F4879577956795B795F7959E3F43
:1035D00008F0B0CF9395880F08F09927EE0F9795D4
:1035E000879508950E94061B0C94E71B0E94E01B20
:1035F00058F00E94D91B40F029F45F3F29F00C9449
:10360000D01B51110C941B1C0C94D61B0E94F81B50
:1036100068F39923B1F3552391F3951B550BBB2701
:10362000AA2762177307840738F09F5F5F4F220F46
:10363000331F441FAA1FA9F335D00E2E3AF0E0E83D
:1036400032D091505040E695001CCAF72BD0FE2F87
:1036500029D0660F771F881FBB1F2617370748071B
:10366000AB07B0E809F0BB0B802DBF01FF279358D3
:103670005F4F3AF09E3F510578F00C94D01B0C94AC
:103680001B1C5F3FE4F3983ED4F3869577956795CE
:10369000B795F7959F5FC9F7880F911D9695879508
:1036A00097F90895E1E0660F771F881FBB1F621727
:1036B00073078407BA0720F0621B730B840BBA0BE5
:1036C000EE1F88F7E09508950E94001C88F09F5730
:1036D00098F0B92F9927B751B0F0E1F0660F771F36
:1036E000881F991F1AF0BA95C9F714C0B13091F02C
:1036F0000E941A1CB1E008950C941A1C672F782FB1
:103700008827B85F39F0B93FCCF3869577956795F0
:10371000B395D9F73EF490958095709561957F4F5C
:103720008F4F9F4F0895E89409C097FB3EF4909502
:103730008095709561957F4F8F4F9F4F9923A9F08A
:10374000F92F96E9BB279395F69587957795679519
:10375000B795F111F8CFFAF4BB0F11F460FF1BC05D
:103760006F5F7F4F8F4F9F4F16C0882311F096E9F0
:1037700011C0772321F09EE8872F762F05C066239E
:1037800071F096E8862F70E060E02AF09A95660F57
:10379000771F881FDAF7880F9695879597F9089510
:1037A00097F99F6780E870E060E008959FEF80ECF4
:1037B000089500240A941616170618060906089597
:1037C00000240A9412161306140605060895092EFD
:1037D0000394000C11F4882352F0BB0F40F4BF2B6C
:1037E00011F460FF04C06F5F7F4F8F4F9F4F0895AC
:1037F00057FD9058440F551F59F05F3F71F04795A2
:10380000880F97FB991F61F09F3F79F08795089586
:10381000121613061406551FF2CF4695F1DF08C0A5
:10382000161617061806991FF1CF869571056105C2
:1038300008940895E894BB2766277727CB0197F96A
:1038400008950E94931C08F48FEF08950E94391C7C
:103850000C94E71B0E94D91B38F00E94E01B20F05B
:10386000952311F00C94D01B0C94D61B11240C94AE
:103870001B1C0E94F81B70F3959FC1F3950F50E03D
:10388000551F629FF001729FBB27F00DB11D639F12
:10389000AA27F00DB11DAA1F649F6627B00DA11DB8
:1038A000661F829F2227B00DA11D621F739FB00D5E
:1038B000A11D621F839FA00D611D221F749F3327CE
:1038C000A00D611D231F849F600D211D822F762F67
:1038D0006A2F11249F5750409AF0F1F088234AF044
:1038E000EE0FFF1FBB1F661F771F881F91505040B0
:1038F000A9F79E3F510580F00C94D01B0C941B1C23
:103900005F3FE4F3983ED4F3869577956795B79536
:10391000F795E7959F5FC1F7FE2B880F911D969550
:10392000879597F90895990F0008550FAA0BE0E8BD
:10393000FEEF16161706E807F907C0F01216130671
:10394000E407F50798F0621B730B840B950B39F4B1
:103950000A2661F0232B242B252B21F408950A2617
:1039600009F4A140A6958FEF811D811D0895DB010B
:103970008F939F930E94491ABF91AF91A29F800D90
:10398000911DA39F900DB29F900D11240895991B36
:1039900079E004C0991F961708F0961B881F7A9546
:1039A000C9F780950895AA1BBB1B51E107C0AA1F48
:1039B000BB1FA617B70710F0A61BB70B881F991FD0
:1039C0005A95A9F780959095BC01CD010895EE0F09
:1039D000FF1F0590F491E02D09940F931F93CF934F
:1039E000DF938230910510F482E090E0E0910304CF
:1039F000F091040430E020E0B0E0A0E0309799F4CA
:103A00002115310509F44AC0281B390B2430310532
:103A1000D8F58A819B816115710589F1FB0193833A
:103A20008283FE0111C040815181028113814817B8
:103A30005907E0F04817590799F4109761F012966A
:103A40000C93129713961C933296CF01DF91CF916E
:103A50001F910F9108950093030410930404F4CF71
:103A60002115310551F04217530738F0A901DB0148
:103A70009A01BD01DF01F801C1CFEF01F9CF9093A9
:103A8000040480930304CDCFFE01E20FF31F819362
:103A900091932250310939832883D7CF2091010493
:103AA00030910204232B41F4209122013091230113
:103AB00030930204209301042091200130912101D0
:103AC0002115310541F42DB73EB7409124015091A5
:103AD0002501241B350BE0910104F0910204E2174B
:103AE000F307A0F42E1B3F0B2817390778F0AC0121
:103AF0004E5F5F4F2417350748F04E0F5F1F5093FE
:103B0000020440930104819391939FCFF0E0E0E0A1
:103B10009CCFCF93DF930097E9F0FC01329713829B
:103B20001282A0910304B0910404ED0130E020E082
:103B30001097A1F420813181820F931F20910104FD
:103B4000309102042817390709F061C0F09302048C
:103B5000E0930104DF91CF910895EA01CE17DF07CA
:103B6000E8F54A815B819E0141155105B1F7E901F4
:103B7000FB83EA8349915991C40FD51FEC17FD07C8
:103B800061F4808191810296840F951FE9019983E8
:103B90008883828193819B838A83F0E0E0E01296A0
:103BA0008D919C9113970097B9F52D913C911197A8
:103BB000CD010296820F931F2091010430910204DF
:103BC0002817390739F6309751F5109204041092EE
:103BD0000304B0930204A0930104BCCFD383C28337
:103BE00040815181840F951FC817D90761F44E5F3A
:103BF0005F4F88819981480F591F518340838A8183
:103C00009B81938382832115310509F0B0CFF09316
:103C10000404E09303049ECFFD01DC01C0CF1382B6
:103C20001282D7CF81E090E0F8940C94271EFB011C
:103C3000DC0102C001900D9241505040D8F7089528
:103C4000DC0101C06D9341505040E0F7089511E050
:103C5000C6EDD1E004C0FE010E94E71C2196C73DDD
:083C6000D107C9F7F894FFCF6A
:103C68000F00F401D00704000401FFFFFFFF00E18B
:103C7800000000000000E103E103E103E103E103C8
:103C8800000005048000121415040C9C01B501CF36
:103C980001EA0107022602470269028E02B502DE26
:103CA800020A0300C1808100000000000000F9043E
:103CB80074041A050F0560051E053C050000000088
:103CC8008C088108EC0B57087A0867085808000028
:103CD80000005B0DC50DEC0BEB0B000000005B0753
:103CE80000000000EF0B00000000870D0D0A0044E3
:103CF80061746120726563656976656400446973FF
:103D080074616E63652064726F76653B20006B6D2D
:0C3D180020004348415247494E4700003C
:00000001FF
