:100000000C94D7010C948E0F0C94670F0C94400F36
:100010000C94190F0C94FF010C94FF010C94F20E38
:100020000C94FF010C944D140C94B50F0C942410F7
:100030000C94FF010C94FF010C94FF010C94FF0140
:100040000C94FF010C94FF010C94FF010C94FF0130
:100050000C94FF010C94FF010C94FF010C94A80E6A
:100060000C94FF010C94FF010C94FF010C94FF0110
:100070000C94FF010C94FF010C94FF010C94FF0100
:100080000C94FF010C94B7150C94FF010C94FF0124
:100090000C9498140C94FF010C94FF010C94FF0134
:1000A0000C94FF010C9456120C94FF010000000008
:1000B0000000004F00000007000700147F147F14A9
:1000C000242A7F2A122313086462364955225000DD
:1000D00000070000001C2241000041221C001408FF
:1000E0003E081408083E08080050300000080808C0
:1000F0000808006060000020100804023E514945D5
:100100003E00427F400042615149462141454B310A
:100110001814127F1027454545393C4A4949300398
:10012000017109073649494936064949291E0036F1
:100130003600000056360000081422410014141442
:100140001414004122140802015109063249794170
:100150003E7E1111117E7F494949363E414141227F
:100160007F4141413E7F494949417F090909013E9B
:100170004149497A7F0808087F00417F41002040BB
:10018000413F017F081422417F404040407F020CE4
:10019000027F7F0408107F3E4141413E7F090909EB
:1001A000063E4151215E7F09192946464949493198
:1001B00001017F01013F4040403F1F2040201F3F81
:1001C0004038403F63140814630708700807615102
:1001D000494543007F41410002040810200041418D
:1001E0007F0004020102044040404040000102043C
:1001F0000020545454787F484444383844444420C0
:10020000384444487F3854545418087E0901020C7D
:100210005252523E7F0804047800447D4000204042
:10022000443D007F1028440000417F40007C0418BA
:1002300004787C0804047838444444387C1414144A
:1002400008081414187C7C080404084854545420EA
:10025000043F4440203C4040207C1C2040201C3C6B
:100260004038403C44281028440C5050503C4464D2
:10027000544C44000836410000007F000000413625
:1002800008000C02040806081C2A080800030C0FCA
:1002900030333C3FC0C3CCCFF0F3FCFF080B00026F
:1002A000020200000904000001020200000524000F
:1002B00010010524010101042402060524060001A1
:1002C0000705810310004009040100020A00000034
:1002D00007050202400000070583024000000403F6
:1002E000090412010002EF020140FB1F002300017C
:1002F00001020301506F6C6F6C7520436F72706F59
:10030000726174696F6E00506F6C6F6C7520412D57
:1003100053746172203332553400506F7765723AEE
:10032000200000000000240027002A002D003000DB
:1003300000000000250028002B002E0031000000E6
:10034000000200090F0000030401000C000000007F
:10035000000000000000000000000000000000009D
:10036000002300260029002C002F000404040404AC
:100370000304050202020204030202020206060648
:1003800006060604040202020404040802011040E6
:1003900080401020408040800802040180402010EE
:1003A00002011080102040402000B416041A1124CD
:1003B0001FBECFEFDAE0DEBFCDBF25E0A2EBB1E09C
:1003C00001C01D92A834B207E1F711E0A0E0B1E04E
:1003D000E6EAFCE302C005900D92A23BB107D9F713
:1003E00011E0C6EDD1E004C02197FE010E94061D78
:1003F000C53DD107C9F70E946C170C94461E0C949A
:1004000000005B9887FD5D9A87FF5D985B9A5B981B
:1004100086FD5D9A86FF5D985B9A5B9885FD5D9A87
:1004200085FF5D985B9A5B9884FD5D9A84FF5D987B
:100430005B9A5B9883FD5D9A83FF5D985B9A5B98FE
:1004400082FD5D9A82FF5D985B9A5B9881FD5D9A63
:1004500081FF5D985B9A5B9880FD5D9A80FF5D9857
:100460005B9A0895FC0180918D02882311F13FB7BA
:10047000F89482E08093E9002091F200822F90E0CE
:100480001816190614F481E090E0882339F02898B2
:1004900044E640938C024091F1004083222339F0DE
:1004A0002091F200211103C02BE62093E8003FBF0A
:1004B00008958FEF9FEF08952FB7F89483E080930E
:1004C000E9009091E800892F807295FF04C0909117
:1004D000F20080E4891B2FBF08958091840281116E
:1004E0000DC082E08093800284E0809381021092AC
:1004F00083021092820281E08093840280E892E07D
:10050000089581508F3008F047C0E82FF0E0E5579C
:10051000FD4F0C94061DA802AC029A02A002A40290
:10052000CC02CC02CC02AF02B502B902BD02C302BA
:10053000CC02C702809180008F778093800008955D
:10054000809180008F7DF9CF80918000877FF5CFEB
:1005500084B58F7784BD089584B58F7DFBCF80915E
:1005600090008F77809390000895809190008F7D08
:10057000F9CF80919000877FF5CF8091C0008F7771
:100580008093C00008958091C0008F7DF9CF809145
:10059000C200877F8093C2000895CF93DF93282FF6
:1005A00030E0F901E25CFC4F8491F901E657FC4F21
:1005B000D491F901E559FC4FC491CC23A1F08111EC
:1005C0000E948102EC2FF0E0EE0FFF1FE35AFC4F78
:1005D000A591B491EC91ED2381E090E009F480E0E5
:1005E000DF91CF91089580E090E0FACF1F93CF93F1
:1005F000DF93282F30E0F901E25CFC4F8491F90190
:10060000E657FC4FD491F901E559FC4FC491CC2336
:10061000A9F0162F81110E948102EC2FF0E0EE0F5D
:10062000FF1FE05DFC4FA591B4918FB7F894EC915A
:10063000111108C0D095DE23DC938FBFDF91CF91DD
:100640001F910895DE2BF8CFCF93DF9390E0FC014C
:10065000E657FC4F249185599C4FFC0184918823D7
:10066000C9F090E0880F991FFC01EE5DFC4FA59149
:10067000B491FC01E05DFC4FC591D49161110DC0B6
:100680009FB7F8948C91209582238C93888128239E
:1006900028839FBFDF91CF910895623051F49FB7B7
:1006A000F8943C91822F809583238C93E8812E2BA4
:1006B000EFCF8FB7F894EC912E2B2C938FBFEACF0E
:1006C0003FB7F89480917C0290917D02A0917E02C8
:1006D000B0917F0226B5A89B05C02F3F19F0019667
:1006E000A11DB11D3FBFBA2FA92F982F8827BC018C
:1006F000CD01620F711D811D911D42E0660F771FB4
:10070000881F991F4A95D1F708958F929F92AF92B3
:10071000BF92CF92DF92EF92FF924B015C010E9459
:1007200060036B017C010E9460036C197D098E09D6
:100730009F09683E734081059105A8F321E0821A64
:100740009108A108B10888EEC80E83E0D81EE11C0C
:10075000F11C81149104A104B10429F7FF90EF90DA
:10076000DF90CF90BF90AF909F908F900895E091D1
:100770006102F0916202309729F010925E021092AD
:100780005D0209940895CF93DF93AC01E091630279
:10079000F09164023097F1F09091600280915F02D5
:1007A0009817C0F090E0292F30E02617370754F44F
:1007B000D901AE54BE4F240F351FE90128812C9377
:1007C0009F5FF1CF1092600260935F02CB01DF91D7
:1007D000CF910994DF91CF910895089540915302EC
:1007E0005091540220915102309152024217530706
:1007F000B4F49091E8009570E1F39091E80092FDD7
:1008000019C08093F1008091530290915402019697
:100810008F739927892B19F48EEF8093E8008091CC
:100820005302909154020196909354028093530284
:1008300081E0089580E00895DF92EF92FF920F9398
:100840001F93CF93DF93D82E8A01EB017B01E40E37
:10085000F51ECE15DF0559F0D7FE12C0FE018491BA
:100860000E94EE0321968111F4CF0FEF1FEFC80114
:10087000DF91CF911F910F91FF90EF90DF9008953E
:100880008881EECF0F931F93CF93DF931F92CDB745
:10089000DEB782E0898342E450E06CE972E080E8F0
:1008A0000E941C040E946D02DC0112960D911C91A5
:1008B0000115110589F0D801ED91FC910280F381B9
:1008C000E02DBE016F5F7F4FC801099597FD04C001
:1008D000F80100851185ECCF89810F90DF91CF91D0
:1008E0001F910F910895615030F02091F100FC01AB
:1008F00020830196F8CF289884E680938C0208958F
:100900008F929F92AF92BF92CF92DF92EF92FF921F
:100910000F931F93CF93DF936C017B018A0180912A
:100920001501882309F45CC080918D02882309F4A5
:1009300057C08091570280FF05C08091E00082601F
:100940008093E000E801B12C8AEFA82E93E0892E75
:100950002AE3922E209711F4BB20D9F10E945C0269
:1009600081110AC0AA94AA20D9F161E070E080E068
:1009700090E00E948503EECF8C171D0611F00CF05D
:100980008C2F9FB7F8948092E9002091E80025FD14
:1009900002C09FBFDFCF282F30E0C21BD30BF7016F
:1009A000815020F041914093F100FACFE20EF31E06
:1009B000BB2021F09092E800B12CEBCF8091E800B1
:1009C00085FDE7CF9092E800BB24B394209709F30C
:1009D000F3CF5D9884E680935602101611063CF022
:1009E00081E090E0F6019383828310E000E0C8018B
:1009F000DF91CF911F910F91FF90EF90DF90CF90FB
:100A0000BF90AF909F908F900895CF93DF931F92E8
:100A1000CDB7DEB76983DC01ED91FC910280F381F3
:100A2000E02D41E050E0BE016F5F7F4F09950F90D0
:100A3000DF91CF91089583E08093E9008091F200E7
:100A4000882319F08AE38093E80008950E945C02ED
:100A500090E00895CF93DF931F92CDB7DEB7FC01EE
:100A60008485958597FD08C02FEF3FEF3587248754
:100A70000F90DF91CF910895CE0101960E9432022E
:100A8000019719F4898190E0F3CF8FEF9FEFF0CFBA
:100A90000F931F93CF93DF931F92CDB7DEB78C01D7
:100AA000FC018485958597FF0BC0CE0101960E94BD
:100AB0003202019771F4898190E0F801958784876B
:100AC000F801848595850F90DF91CF911F910F914B
:100AD00008958FEF9FEFF1CFFC018485958597FDF9
:100AE0000BC09FB7F89482E08093E9008091F200F8
:100AF0009FBF90E0019608959FB7F89482E080939D
:100B0000E9008091F2009FBF90E0089580914E022D
:100B1000E0914F02F0915002882339F084919FEBCD
:100B2000980F9A3120F4805E08958081F8CF80324A
:100B300069F420914F0230915002A9014F5F5F4F3D
:100B40005093500240934F02232B01F708951F93B7
:100B5000CF93DF930E948605D0E0C0E01AE090EDCD
:100B6000980F9A30B8F41C9F90011D9F300D1124EE
:100B7000E901C80FD11D87FDDA95E09780914F02FA
:100B80009091500201969093500280934F020E94E0
:100B90008605E5CFCE01DF91CF911F9108953F9259
:100BA0004F925F926F927F928F929F92AF92BF927D
:100BB000CF92DF92EF92FF920F931F93CF93DF9329
:100BC0007B01D42E20914B0221111BC021E02093E8
:100BD0004B02109272001092C00034E03093C100BA
:100BE00039E03093C2002093C30023E02093BF007C
:100BF00028EE2093D1001092BF001092D200579A95
:100C0000789410920901CC24C39497FF03C09F7776
:100C1000AAE0CA2EC8E2CC9EC02D1124D0E08C17C9
:100C20009D0750F021E0EC01C21206C0C13187E2FD
:100C3000D80710F0C0E1D7E24E01B12CA12C4C2C0A
:100C4000512C712C612C9E01AFEFB7E00E94A51BC7
:100C5000640D751D861D971D9695879577956795EB
:100C6000A30192010E94781B60E072E18AE790E0A4
:100C7000312C3394621773078407950728F09695F3
:100C8000879577956795F5CFA30192010E94681B20
:100C90009E0136952795620F731F811D911DA50139
:100CA00094010E94781B722E022F132F2AE0C21289
:100CB00007C0CE0105966AE070E00E94D31CEB01EC
:100CC000C83E83E0D80759F09701DE010E94A51BBA
:100CD00028EE33E040E050E00E94E71C79011092DA
:100CE00072008091C100807F83298093C10010939E
:100CF000BF007092D1004D2D403108F04FE080E1EF
:100D000090E0841B910902C0169507958A95E2F739
:100D10001093BF000093D200F0924D02E0924C027B
:100D200089B38FEF89BB84E080937200DF91CF910C
:100D30001F910F91FF90EF90DF90CF90BF90AF90F9
:100D40009F908F907F906F905F904F903F9008950D
:100D5000CF93DF93EC01888581110EC0898591E0E6
:100D600098879A8562E0911101C060E00E94240397
:100D70008FE090E00197F1F789850E94CD023B85D5
:100D800021E03817190609F420E0822FDF91CF9176
:100D900008952E98269A2D98259A2A98229A29986D
:100DA000219A80EA8093800081E18093810080E92C
:100DB00091E09093870080938600109289001092B2
:100DC000880010928B0010928A0008959FB1917054
:100DD0008CB186FB882780F98927209144023091C5
:100DE00043024091690250916A0228273927231B48
:100DF000330B240F351F30936A0220936902309120
:100E0000430220914402381729F0291719F021E0F4
:100E100020934202809343029093440208952498C1
:100E20002C9A6A98729A6E98769A8098889A81E03D
:100E30008093680090E190936B008BBB86EE96E008
:100E400090931F0180931E01EAE6F0E080818F7C81
:100E500080618083EE9A8CB182FB882780F9809331
:100E6000470293B1809147029295917089278093B0
:100E700046021092670210926602109245028FB1EC
:100E80008170809344029CB18091440296FB992723
:100E900090F989278093430210926A0210926902A6
:100EA0001092420208957F928F929F92AF92BF92CA
:100EB000CF92DF92EF92FF920F931F93CF93DF9326
:100EC000FC0122853385232B09F476C06B01EC01EC
:100ED00010E08C851817E8F4E12EF12C8E859F85A3
:100EE000F701EE0FFF1FEC0DFD1D91838083EA8556
:100EF000FB85EE0DFF1D61E080810E94F602EA8510
:100F0000FB85EE0DFF1D61E080810E9424031F5FC1
:100F1000E0CF83E290E00197F1F710E08C8518179D
:100F2000A0F4E12EF12CEA85FB85EE0DFF1D60E0BB
:100F300080810E942403EA85FB85EE0DFF1D60E0A1
:100F400080810E94F6021F5FE9CF0E9460034B017F
:100F50005C010E946003AB01BC01481959096A0990
:100F60007B098E859F85B0E0A0E0481759076A0786
:100F70007B0710F50E9460037B01E818F908712CCB
:100F80008C85781630F7072D10E0EA85FB85E00F99
:100F9000F11F80810E94CD02892B61F4000F111F87
:100FA000F601E00FF11F80819181E816F90610F437
:100FB000F182E0827394E4CFDF91CF911F910F9182
:100FC000FF90EF90DF90CF90BF90AF909F908F9069
:100FD0007F9008952091F801260F3327331F213287
:100FE0003105ECF420911C02FC0190E080E02430FB
:100FF00069F082E00895A091F8012191AC01485276
:101000005E4FA40FB52FB11D2C930196861798F350
:101010008091F801680F6093F80180E0089581E005
:10102000089510921C0281E080931E0210921D020E
:1010300061E082E00E94F60261E083E00E94F60235
:10104000E9EBF0E080818E7F808380818D7F8083DB
:1010500088E48093B80085E48093BC0008950895E7
:10106000E091600280915F02E81730F4F0E0EE5406
:10107000FE4F808190E008958FEF9FEF089590914B
:10108000600280915F022FEF3FEF981748F4E92F3D
:10109000F0E0EE54FE4F208130E09F5F90936002BD
:1010A000C901089580915F0290916002891B990B9C
:1010B0000895CF93DF93CB01EA01642F0E94EA07E2
:1010C000CE01DF91CF910895CF93DF931F92CDB7DB
:1010D000DEB7698361E0CE0101960E94EA0781E0F4
:1010E00090E00F90DF91CF910895289A209A08956B
:1010F0002898209A08955F926F927F928F929F9284
:10110000AF92BF92CF92DF92EF92FF920F931F9315
:10111000CF93DF935C01D62FC42FF22E132F0E94A2
:1011200078088D2F806B0E9401028C2F82958F7022
:1011300080610E9401028C2F8F700E9401020E9428
:101140007508CF2DD12F0C0F1D2F111D95E0692E85
:10115000C017D10709F444C07990872D8052990BAC
:101160009C01629EC001639E900D1124769C4001FB
:101170001124F12CE12C9C0124553F4F69013FE1E2
:10118000371508F5F601EE0DFF1DE491F0E084E05F
:10119000F595E7958A95E1F7E457FD4F5490852D35
:1011A0000E940102852D0E9401029FEFE91AF90AAF
:1011B00025E0E216F10419F780E00E94010280E0C8
:1011C0000E940102C5CF87E0E0E08715F8F2F40144
:1011D000EE0DFF1DE254FF4FEA0DFB1DE081D6CF5F
:1011E000DF91CF911F910F91FF90EF90DF90CF9003
:1011F000BF90AF909F908F907F906F905F90089579
:101200005F926F927F928F929F92AF92BF92CF9296
:10121000DF92EF92FF920F931F93CF93DF935C01C6
:10122000D62FC42FF22E132F0E9478088D2F806B9B
:101230000E9401028C2F82958F7080610E940102B2
:101240008C2F8F700E9401020E947508CF2DD12F24
:101250000C0F1D2F111D85E0682EC017D10709F452
:1012600040C07990872D8052990B9C01629EC001ED
:10127000639E900D1124769C40011124F12CE12CE9
:101280009C0124553F4F69013FE13715E8F4F60111
:10129000EE0DFF1DE491EF70F0E0E457FD4F549028
:1012A000852D0E940102852D0E9401029FEFE91AFF
:1012B000F90A25E0E216F10439F780E00E94010204
:1012C00080E00E940102C9CF87E0E0E0871518F3B3
:1012D000F401EE0DFF1DE254FF4FEA0DFB1DE0810E
:1012E000DACFDF91CF911F910F91FF90EF90DF90B8
:1012F000CF90BF90AF909F908F907F906F905F90B6
:1013000008956F927F928F929F92AF92BF92CF92E9
:10131000DF92EF92FF920F931F93CF93DF935C01C5
:10132000D62FC42FF22E132F0E9478088D2F806B9A
:101330000E9401028C2F82958F7080610E940102B1
:101340008C2F8F700E9401020E947508CF2DD12F23
:101350000C0F1D2F111D85E0682EC017D107A9F1B4
:101360007990872D8052990B9C01629EC001639EEB
:10137000900D1124769C40011124F12CE12C9C014C
:1013800024553F4F69013FE1371588F4F601EE0D12
:10139000FF1D84910E9401029FEFE91AF90A25E0DE
:1013A000E216F10481F780E00E940102D6CF87E0C7
:1013B000871548F0F701E80DF91DE254FF4FEA0DDB
:1013C000FB1D8081E7CF80E0E5CFDF91CF911F91BA
:1013D0000F91FF90EF90DF90CF90BF90AF909F90D4
:1013E0008F907F906F900895282F21FB0EF020980A
:1013F00020FB0EF028980EF4289A21FB0EF4209A78
:101400000895282F21FB0EF0559820FB0EF05D98D3
:101410000EF45D9A21FB0EF4559A089560916D02C9
:101420008CEF92E00C946408CF93DF93EC018881F9
:101430000E94010A89810E94F409E9EEF0E010821D
:101440008C818093F0008B8180838A818093E2007D
:10145000DF91CF910895FC01A2EEB0E08C918283E0
:101460001C92A9EEB0E08C9183831C92A0EFB0E0B7
:101470008C9184831C9220E05D99216055992260B3
:10148000208320E0289921602099226021835D98A3
:10149000559A0895CF92DF92EF92FF920F93CF93D8
:1014A000DF93EC017C0184E0E80EF11CC7010E948F
:1014B0002B0A6E0184E1C80ED11C08E0960143E1BD
:1014C00062E0CE010E940009960143E163E0CE0193
:1014D0000E947B086E0189E2C80ED11C960143E18F
:1014E00065E0CE010E940009960143E166E0CE016D
:1014F0000E947B08C701DF91CF910F91FF90EF9081
:10150000DF90CF900C94140AEF92FF920F93CF9339
:10151000DF93EC017C0184E0E80EF11CC7010E941E
:101520002B0A9E012C5E3F4F05E142E060E0CE01B8
:101530000E9481099E01275D3F4F42E061E0CE019C
:101540000E9481099E01225C3F4F42E062E0CE0191
:101550000E9481099E012D5A3F4F42E063E0CE0177
:101560000E9481099E0128593F4F42E064E0CE016C
:101570000E9481099E0123583F4F42E065E0CE0161
:101580000E9481099E012E563F4F42E066E0CE0147
:101590000E9481099E0129553F4F42E067E0CE013C
:1015A0000E948109C701DF91CF910F91FF90EF90C9
:1015B0000C94140AEF92FF920F931F93CF93DF9333
:1015C0008C017C0184E0E80EF11CC7010E942B0A0B
:1015D0000E94780882E00E940102C0E00E94780820
:1015E0008C2F806B0E94010280E10E9401020E9408
:1015F0007508D0E080E00E940102DF5FD038D1F7AB
:10160000CF5FC83059F7C7010E94140AF80112864B
:10161000DF91CF911F910F91FF90EF900895AF92BE
:10162000BF92CF92DF92EF92FF920F931F93CF93CF
:10163000DF937C01122F683008F043C0423008F07D
:1016400040C088E0861B8217D0F12223D1F1C42F3D
:10165000CC0FC40FDCE06D9FD02D1124DD5E67013F
:1016600024E1C20ED11C862F90E025E1429F800D1F
:10167000911D1124C80ED91E570184E0A80EB11C7B
:10168000C5010E942B0A62E06C0F012F96014D2FBD
:10169000C7010E94000963E06C0F96014D2FC7013E
:1016A0000E947B08C501DF91CF911F910F91FF90A0
:1016B000EF90DF90CF90BF90AF900C94140A182F4A
:1016C000C6CFDF91CF911F910F91FF90EF90DF90E8
:1016D000CF90BF90AF900895BF92CF92DF92EF92DC
:1016E000FF920F931F93CF93DF93EC01162FB42E2D
:1016F000022F653198F527E0241780F185E1861BDC
:10170000801750F1002351F1CE014496E12EF12CC7
:1017100025E1B29EE00CF11C1124E80EF91E6E01C9
:1017200084E0C80ED11CC6010E942B0A412F440F31
:10173000410F440F4E5F97016B2DCE010E9481092E
:10174000C601DF91CF911F910F91FF90EF90DF9035
:10175000CF90BF900C94140A082FD6CFDF91CF9171
:101760001F910F91FF90EF90DF90CF90BF90089561
:10177000089590E080E008950E94311EFB010190E1
:101780000020E9F73197AF01461B570BDC01ED91C3
:10179000FC910280F381E02D09948F929F92AF9289
:1017A000BF92EF92FF920F931F93CF93DF93CDB72A
:1017B000DEB7A1970FB6F894DEBF0FBECDBF7C0198
:1017C000FA01CB0119A2223008F42AE08E010F5D44
:1017D0001F4F822E912CB12CA12CBF01A501940189
:1017E0000E94781BF901CA016A300CF5605DD801CE
:1017F0006E938D01232B242B252B79F790E080E02D
:10180000109721F0BD01C7010E94BE0BA1960FB633
:10181000F894DEBF0FBECDBFDF91CF911F910F9126
:10182000FF90EF90BF90AF909F908F900895695C6C
:10183000DECF8F929F92AF92BF92CF92DF92EF92C4
:10184000FF920F931F93CF93DF937C01EB016C0109
:1018500082E0C80ED11C4701E5E08E0E911C10E01D
:1018600000E0F60141916F0150E070E060E02AE095
:10187000CE010E94CD0B5C01E881F9810190F081DD
:10188000E02D6EE2CE0109958A0D9B1D080F191FF0
:10189000C814D90431F7F701458150E070E060E0E9
:1018A0002AE0CE010E94CD0B800F911FDF91CF91D6
:1018B0001F910F91FF90EF90DF90CF90BF90AF906E
:1018C0009F908F900895CF93DF9385ED8093BC0018
:1018D0008091D4019091D501A091D601B091D7010A
:1018E0000796A11DB11D23E0B695A79597958795FD
:1018F0002A95D1F72091BC0024FD03C010921C0250
:1019000036C04091D4015091D5016091D6017091BB
:10191000D701452B462B472B69F30097A105B1054D
:1019200041F02AE22A95F1F700C00197A109B10917
:10193000E1CF8091D30191E09093D2018823B9F057
:10194000C091B800D091BA008091BC008A7B80938E
:10195000BC0060E082E00E94F60260E083E00E944A
:10196000F6020E941108D093BA00C093B800DF912C
:10197000CF9108950F931F93CF93DF93EC015B9862
:10198000539A5A98529A85E38A95F1F700005A9A29
:10199000529A85E38A95F1F70000CE010E94DA0A97
:1019A0008E010C5F1F4FC8010E942B0A0E9478080D
:1019B00081EA0E94010288EC0E94010281E80E94F3
:1019C00001028FEF0E9401028FEA0E940102C8010A
:1019D0000E94140A81E08987DF91CF911F910F91B6
:1019E0000895FF920F931F93CF93DF93EC01162F6F
:1019F000042FF22E8985811103C0CE010E94BA0CFA
:101A00008A85882319F0CE010E94DA0A2A893B8947
:101A1000C901959587958C0F9D1FE889F98920FF4D
:101A200008C0DC012D913C91E20FF31F0190F08181
:101A3000E02D2F2D402F612FDF91CF911F910F911E
:101A4000FF900994CF93DF93DC01A354BF4F2C91F7
:101A5000283008F5EC01C454DF4FE881E531D8F4B3
:101A6000AC0175E1279F400D511D1124E40FF52FA6
:101A7000F11D648BFC012385211105C021E04C91EF
:101A800068810E94F10C88818F5F888381E090E0FB
:101A9000DF91CF91089590E080E0FACFCF92DF926E
:101AA000EF92FF92CF93DF9380915F02909160025B
:101AB000891B990B181619060CF06EC08CEF92E07A
:101AC0000E943F08EC016C01990FEE08FF082AE024
:101AD000B701A601F7FE0DC06DE28EE892E00E940C
:101AE000050544275527BA014C195D096E097F0980
:101AF0002AE08EE892E00E94CD0B69E971E08EE861
:101B000092E00E94BE0B259779F610927202109215
:101B10007102109273021092740210927502109268
:101B2000760248EA50E060E270E087E094E00E94CC
:101B30003F1E1092AF041092B0048091FE038111F9
:101B4000B3CF8091FC03811104C083EF93E00E9426
:101B5000BA0C8091FD03882321F083EF93E00E946B
:101B6000DA0A2091010430910204C9019595879504
:101B70008D509C4FE091FF03F091000420FF08C0BE
:101B8000DC012D913C91E20FF31F0190F081E02DDB
:101B900009951092FE0388CFDF91CF91FF90EF90CF
:101BA000DF90CF900895AF92BF92CF92DF92EF92E5
:101BB000FF920F931F93CF93DF9382EEE82EF12CC9
:101BC000F70100811082C9EED0E0B880188290EF52
:101BD000C92ED12CF601A080108220E02899216026
:101BE00020992260822F2098289A90E19A95F1F707
:101BF00013B10E94F4091882F601A082B882F7019D
:101C00000083812F80958170DF91CF911F910F917B
:101C1000FF90EF90DF90CF90BF90AF900895AF927C
:101C2000BF92CF92DF92EF92FF920F931F93CF93C9
:101C3000DF9382EEE82EF12CF701D081108209EEBD
:101C400010E0F801B080108290EFC92ED12CF6017F
:101C5000A080108220E05D99216055992260822F3A
:101C600055985D9A90E19A95F1F7C9B10E94010AE1
:101C7000F8011082F601A082F801B082F701D0834A
:101C80008C2F90E025E0959587952A95E1F7809532
:101C900090958170DF91CF911F910F91FF90EF9000
:101CA000DF90CF90BF90AF9008950C945A1BBF92D5
:101CB000CF92DF92EF92FF920F931F93CF93DF9318
:101CC0008C01EA016C012DEBC20ED11CF6013081B2
:101CD0003830D8F57C01FCEBEF0EF11CF701808168
:101CE000853198F525E1281B90E02417150620F48E
:101CF000C5E1D0E0C81BD90BF5E13F9F800D911DD8
:101D00001124AE0198012C5E3F4F820F931F0E9459
:101D1000361EBC2EF8018385811108C02C2FF601D8
:101D20004081F7016081C8010E94F10CF7018081B8
:101D30008B0D8083CE01DF91CF911F910F91FF908A
:101D4000EF90DF90CF90BF900895D0E0C0E0F2CF49
:101D50001F920F920FB60F9211242F933F938F93E0
:101D60009F93AF93BF938091780290917902A09155
:101D70007A02B0917B023091770223E0230F2D3756
:101D800058F50196A11DB11D20937702809378022A
:101D900090937902A0937A02B0937B0280917C02A7
:101DA00090917D02A0917E02B0917F020196A11DCB
:101DB000B11D80937C0290937D02A0937E02B0932C
:101DC0007F02BF91AF919F918F913F912F910F9083
:101DD0000FBE0F901F90189526E8230F0296A11DA5
:101DE000B11DD2CF1F920F920FB60F9211242F93D5
:101DF0003F934F935F936F937F938F939F93AF9393
:101E0000BF93EF93FF93E0911E01F0911F0109959D
:101E1000FF91EF91BF91AF919F918F917F916F91C2
:101E20005F914F913F912F910F900FBE0F901F9098
:101E300018951F920F920FB60F9211242F933F9374
:101E40004F935F936F937F938F939F93AF93BF93C2
:101E5000EF93FF93E0911C01F0911D010995FF9113
:101E6000EF91BF91AF919F918F917F916F915F9112
:101E70004F913F912F910F900FBE0F901F9018958B
:101E80001F920F920FB60F9211242F933F934F93EF
:101E90005F936F937F938F939F93AF93BF93EF93D2
:101EA000FF93E0911A01F0911B010995FF91EF91C9
:101EB000BF91AF919F918F917F916F915F914F9162
:101EC0003F912F910F900FBE0F901F9018951F926A
:101ED0000F920FB60F9211242F933F934F935F935E
:101EE0006F937F938F939F93AF93BF93EF93FF93E2
:101EF000E0911801F09119010995FF91EF91BF91BF
:101F0000AF919F918F917F916F915F914F913F9191
:101F10002F910F900FBE0F901F9018951F920F9248
:101F20000FB60F9211242F933F934F935F936F93AC
:101F30007F938F939F93AF93BF93EF93FF93E09122
:101F40001601F09117010995FF91EF91BF91AF91A3
:101F50009F918F917F916F915F914F913F912F91C1
:101F60000F900FBE0F901F9018951F920F920FB6F3
:101F70000F9211248F939F938091E1009091E10043
:101F8000937F9093E10083FF0FC01092E90091E0EE
:101F90009093EB001092EC0092E39093ED0010927E
:101FA0008D0298E09093F00082FF22C093E090931E
:101FB000E9009091F200992319F09AE39093E800D8
:101FC00090915602992341F090915602915090932E
:101FD0005602911101C05D9A90918C02992341F0B3
:101FE00090918C02915090938C02911101C0289A8B
:101FF00084FF18C08091E2008E7E81608093E200B1
:102000008091E1008F7E8093E100809157028E7E67
:102010008061809357029F918F910F900FBE0F9018
:102020001F90189580FFF7CF8091E2008E7E80612F
:102030008093E2008091E1008E7E8093E1008091A8
:1020400057028E7E8160E5CF1F920F920FB60F92DE
:102050001124CF92DF92EF92FF920F931F932F9351
:102060003F934F935F936F937F938F939F93AF9320
:10207000BF93EF93FF93CF93DF93CDB7DEB76C970A
:10208000DEBFCDBF1092E9008091E80083FF25C03C
:1020900068E0CE0145960E94730482EF8093E800C9
:1020A0008D8987FF39C09091E80090FFFCCF982F71
:1020B000907609F034C19E894F89588D2F89F88C0C
:1020C000911131C0803861F5809158028093F10000
:1020D0001092F1008EEF8093E8006C960FB6F894A2
:1020E000DEBF0FBECDBFDF91CF91FF91EF91BF91CA
:1020F000AF919F918F917F916F915F914F913F91A0
:102100002F911F910F91FF90EF90DF90CF900F9044
:102110000FBE0F901F9018959EEF9093E800C7CFC9
:102120001092F100D5CF913059F48111D3CF4130C5
:10213000510581F6809158028D7F80935802CACF55
:10214000933049F48111C6CF4130510519F6809181
:1021500058028260F2CF953041F48091E80080FF10
:10216000FCCF20682093E300B5CF963009F0A9C0DA
:102170000B8D1C8D22E01092E900109254021092F7
:102180005302F2122EC010925202109251020E947B
:1021900042041F8299E09983FA8291E09E8390EA3B
:1021A00098879AEF99872091530230915402275FC4
:1021B0003F4F3C832B838D831092E9001092540291
:1021C00010925302109352020093510249E050E0E2
:1021D000BE016F5F7F4F80E00E941C040E9442049A
:1021E00079CF10935202009351020E946D02DC01DC
:1021F00012960D911C910115110509F451C1D801D8
:10220000ED91FC910480F581E02DBE016B5E7F4F66
:10221000C8010995009709F03EC1F80100851185B4
:10222000EACFF3E0FF120EC08F89882309F440C083
:10223000823061F440E862E187E093E00E94811619
:10224000811148CF81E28093EB0047CF813029F4A0
:1022500040E862E184EF92E0F1CF833099F70E9489
:102260006D02DC011296ED90FC908E010F5F1F4F06
:102270006801E114F10479F0D701ED91FC91068039
:10228000F781E02DB801C7010995080F111DF7016D
:10229000E084F184EECFD8011C92F6010190002079
:1022A000E9F73197BF016C197D0940E0C601C6CF3F
:1022B0006EED72E0FB01449150E080E80E941C0446
:1022C00009CF973009F4BECF983021F481E0809394
:1022D000F10000CF993009F0FDCE837009F0B2CF44
:1022E000EFE3F1E081E031E096E32191222371F008
:1022F0008093E9003093EB00DF0111972C9120933C
:10230000EC009093ED008F5F873079F78EE7809334
:10231000EA001092EA008F8980938D02DBCE8B8DCC
:102320009C8D1092E90010925402109253029093E7
:10233000520280935102898D811192C08E899D89AC
:10234000913A49F4813209F07DCF47E050E06EE0E8
:1023500071E080E0B3CF913209F074CF833269F439
:102360008F89988DB0E0A0E080930A0190930B01D3
:10237000A0930C01B0930D01ADCE803269F4809131
:10238000E80082FFFCCF67E08EE091E00E947304DA
:102390008BEF8093E8009ECE823209F09BCE8F892E
:1023A00080931501EEEFFFE7859194918B3F9C4D53
:1023B00051F1E0E0F8E080910E0190910F01A091C1
:1023C0001001B0911101803B9440A105B105F1F4D9
:1023D0008091150180FD1AC0EE3F8AE0F80789F56B
:1023E00087E797E79183808380916000809355020F
:1023F00088E19BE00FB6F894A895809360000FBE2B
:102400009093600067CEEEEFFAE0D5CF80819181A6
:102410008737974709F05ECEA89580916000886164
:10242000809360008091550280936000EE3F2AE027
:10243000F20789F08091FE0A9091FF0A91838083D0
:1024400049CE808191818737980751F29093FF0A96
:102450008093FE0AC5CF1092FF0A1092FE0A3ACE70
:102460000E946D02DC0112960D911C91011511055F
:1024700009F4E8CED801ED91FC910190F081E02DB6
:10248000BE016B5E7F4FC8010995811123CEF80113
:1024900000851185EBCF181619060CF41BCED2CE91
:1024A000F1E0FF12BECE62EE72E004CF1F920F92F7
:1024B0000FB60F9211244F925F926F927F928F927C
:1024C0009F92AF92BF92CF92DF92EF92FF920F93C3
:1024D0001F932F933F934F935F936F937F938F93AC
:1024E0009F93AF93BF93CF93DF93EF93FF93C091ED
:1024F0004C02D0914D02CE01019790934D028093F2
:102500004C022097A1F51092720078948091C1003E
:10251000807F84608093C10083E08093BF0088EE59
:102520008093D1001092BF001092D20081E080937E
:10253000090180914F0290915002892BC1F0809146
:102540004A02811114C070900801809149028823C9
:1025500079F180914802882359F16091480270E036
:1025600040E088EE93E00E94CF0510924802FF9170
:10257000EF91DF91CF91BF91AF919F918F917F911B
:102580006F915F914F913F912F911F910F91FF900C
:10259000EF90DF90CF90BF90AF909F908F907F9003
:1025A0006F905F904F900F900FBE0F901F901895F7
:1025B0005524539470ECA72E7DE5B72EEAE04E2EFD
:1025C000F4E06F2EA0EDCA2EA7E0DA2EB4E0EB2ED9
:1025D000F12C04EF11E08FE0882E912C0E948605EB
:1025E00020914F02309150022F5F3F4F30935002A5
:1025F00020934F02853609F473C00CF047C0813632
:1026000009F4B4C024F58C3309F468C08E3309F49E
:1026100063C0813209F043C060920801D092050185
:10262000C0920401F0920701E092060110930301A9
:1026300000930201909201018092000110924902E0
:10264000709008018091020190910301C7CF8336F9
:1026500009F48FC010E00BE0843614F010E002E0C3
:102660004CE0749E000D11240E948605982F977FE0
:10267000933209F080C080914F02909150020196F0
:102680009093500280934F020F5FEECF8D3609F486
:1026900045C054F4873651F134F18C3651F1109223
:1026A000500210924F0263CF823709F44CC044F4B9
:1026B0008F36A9F70E94A705782E809308018ECF48
:1026C000843709F443C0863751F70E94A7059093D9
:1026D00001018093000182CF739480CF7A947ECFE2
:1026E00010E004E0BDCF10E005E0BACF10E007E055
:1026F000B7CF0E94A70590930701809306018091B0
:1027000004019091050160910601709107010E94FA
:10271000D31C709303016093020160CF0E94860571
:102720008C3661F41092490280914F0290915002D0
:1027300001969093500280934F0250CF50924902DD
:1027400010924802F1CF11E000E08ACF0E94A70565
:10275000BC01C5010E94D31C469EC001479E900D3E
:1027600011249093050180930401C9CF10E009E082
:1027700077CF10E0E9CF8D3269F480914F029091CC
:10278000500201969093500280934F0201500E9494
:102790008605F1CFE0900201F0900301815388306B
:1027A00058F4E0900401F09005010E94A705BC01D7
:1027B000C7010E94D31C7B016701D694C7940E9475
:1027C00086058E3261F480914F02909150020196FD
:1027D0009093500280934F02EC0CFD1CEECF809141
:1027E0004902882349F0C70196958795809348024E
:1027F00080914802E81AF108C0900001D0900101D0
:10280000111104C00F3F11F0C11007C040E0B70123
:1028100088EE93E00E94CF05AACE013128F010EF98
:10282000100F103608F01FE5812F6CE00E94C71CC6
:10283000582F44EF450390011124210F311D2C30F6
:10284000310538F4220F331FF901EA5DFE4FC081D4
:10285000D1818730C1F0082E02C0CC0FDD1F0A9451
:10286000E2F7823040F0CE0105966AE070E00E9407
:10287000D31CCB0102C0CE0190584C2D403108F042
:102880004FE0B701C7CFCE0126E0880F991F2A95E8
:10289000E1F7029665E070E0EACF1F920F920FB663
:1028A0000F9211242F933F934F936F937F938F93A6
:1028B0009F938CB1282F30E0359527953595279536
:1028C000422F417083B190E064E0959587956A95B9
:1028D000E1F7822781702091470290914602609132
:1028E00066027091670228279427291B330B260F55
:1028F000371F309367022093660220914602909121
:102900004702281729F0941719F091E09093450297
:1029100080934602409347029F918F917F916F91E0
:102920004F913F912F910F900FBE0F901F901895D0
:102930001F920F920FB60F9211242F933F934F9334
:102940005F936F937F938F939F93AF93BF93EF9317
:10295000FF938091B900887F803609F44AC0F0F572
:10296000883209F4A7C018F5803109F49BC0B8F487
:10297000882309F4F9C0883009F494C0FF91EF91DD
:10298000BF91AF919F918F917F916F915F914F9187
:102990003F912F910F900FBE0F901F901895883187
:1029A00009F488C0803251F780931B0214C0803430
:1029B00009F49DC040F48033B9F38833F9F680936D
:1029C0001B0285ECB0C0803509F485C0883509F458
:1029D00096C0883499F60E94630CD0CF883909F4E8
:1029E0008CC038F5883729F050F4883611F08037DC
:1029F00029F683E080931C0210921A0257C088388F
:102A000009F47BC0803919F0803809F0B7CF809184
:102A10001A02803208F071C0E0911A0281E08E0F34
:102A200080931A028091BB00F0E0E650FE4F808355
:102A30003DC0803B39F0E0F4803A09F479C0883A2F
:102A400009F09CCF84E080931C021092F90110924F
:102A5000F801E0915B02F0915C0209958091F80128
:102A600081110FC081E08093F8011092D80109C054
:102A7000803C09F4A6CF883C09F4A3CF883B09F039
:102A80007DCFE091F90181E08E0F8093F901F0E0B4
:102A9000E852FE4F80818093BB009091F9018091B4
:102AA000F80129C0809141028093BB0085EC80939E
:102AB000BC0064CF9091400280913F02981758F576
:102AC000E091400281E08E0F80934002F0E0E15EF1
:102AD000FD4F8081E9CFE091400281E08E0F80932D
:102AE00040028091BB00F0E0E15EFD4F8083909159
:102AF000400280913F029817C8F285E8D8CFE09154
:102B0000400281E08E0F809340028091BB00F0E094
:102B1000E15EFD4F808380911E0281115CCF81E0D8
:102B200080931D0284EA8093BC0010921C0226CF81
:102B300085EC8093BC0010921C0280911A028032B6
:102B400030F4E0911A02F0E0E650FE4F10826091FE
:102B50001A0270E0E0915902F0915A028AEF91E076
:102B6000099510921A020ACF10921B0234CF1F92BD
:102B70000F920FB60F9211242F933F934F935F93B1
:102B80006F937F938F939F93AF93BF93CF93EF9365
:102B9000FF93E0910A03F0910B03C08180910C0335
:102BA000C82380910D0390910E03019649F0809106
:102BB0000D0390910E03019690930E0380930D03E5
:102BC0008091080381111DC0C1116EC080910D0359
:102BD00090910E03813A910578F010921103809143
:102BE0000D0390910E03909314038093130381E0DF
:102BF000809312038093080310920E0310920D032A
:102C000053C0809108038130A9F4CC2309F44CC04F
:102C1000E09112038E0F8093120380910D03909127
:102C20000E03F0E0EE0FFF1FE85FFC4F94878387F1
:102C300082E0E0CF80910803823009F053C0C111D7
:102C400022C0E091120381E0E03768F08093110325
:102C500083E080930803E0910F03F0911003309715
:102C600059F20995C9CF8E0F8093120380910D03FD
:102C700090910E03F0E0EE0FFF1FE85FFC4F94878A
:102C8000838781E0B7CF80910D0390910E03813A45
:102C9000910550F083E080930803E0910F03F091D9
:102CA0001003309709F0099580911005813041F4A7
:102CB00080910F05C1111DC061E081111DC0479AAF
:102CC000FF91EF91CF91BF91AF919F918F917F91A4
:102CD0006F915F914F913F912F910F900FBE0F9089
:102CE0001F901895809108038330F1F6C111DCCF55
:102CF00083CF882321F060E00E94F602E1CF47985D
:102D0000DFCFEF92FF920F931F93CF93DF93F82EB5
:102D1000192FE62E042F81E0860F880F0E94EE0304
:102D200083E00E94EE03CF2DD12FEC0EFD2EF11C7F
:102D3000CE15DF05B9F007FF13C0FE0184910E9494
:102D4000EE03182F80E00E94EE038123219681116B
:102D5000EFCFDF91CF911F910F91FF90EF900895EA
:102D60008881EDCF81E0F5CF1F93CF93DF93EEE81D
:102D7000F2E01382128248EE53E060E070E0448398
:102D800055836683778389E491E0918380838FEF15
:102D90009FEF95878487EEEDF2E087E991E09183DC
:102DA00080831282138214821582E4EEF2E0918312
:102DB00080831282138214821582EAEEF2E09183FC
:102DC00080831282138214821582E0EFF2E09183F5
:102DD00080831282138214821582E6EFF2E09183DF
:102DE00080831282138214821582ECEFF2E0138248
:102DF000128244835583668377832BE531E03183E8
:102E00002083E8E0F3E0F0933805E0933705118282
:102E100024E0248329E230E0338322835298109205
:102E20000F05E9E0F5E0918380831282138214821A
:102E30001582EDEFF4E01282158210868EE0818714
:102E400011E01287138781E991E091838083E5EF98
:102E5000F4E0128215828BE891E091838083EDEE9D
:102E6000F4E0128215828FE791E091838083EBED8D
:102E7000F4E0138212821582148217821682118660
:102E800010861386128689E791E091838083C3EFD1
:102E9000D3E01B821A8248EA50E060E270E087E0EB
:102EA00094E00E943F1E1092DA041092D9048AE442
:102EB0009AE09D878C871F861E868FE09BE0998B0A
:102EC000888B1B8A1A8A1A878DE691E099838883FA
:102ED000DF91CF911F910895789484B5826084BD6D
:102EE00084B5816084BD85B5826085BD85B581600E
:102EF00085BD80916E00816080936E00109281008C
:102F00008091810082608093810080918100816046
:102F10008093810080918000816080938000809107
:102F200091008260809391008091910081608093F4
:102F30009100809190008160809390008091C10009
:102F400084608093C1008091C10082608093C10041
:102F50008091C10081608093C1008091C300816035
:102F60008093C3008091C00082608093C0008091F4
:102F7000C20081608093C20080917A008460809357
:102F80007A0080917A00826080937A0080917A0042
:102F9000816080937A0080917A00806880937A00C3
:102FA00010928D0210925802109257028091D70011
:102FB00081608093D70080EA8093D80089B58061D2
:102FC00089BD89B5826089BD09B400FEFDCF61E08D
:102FD00070E080E090E00E9485038091D8008F7CB3
:102FE00080618093D8008091E000807F8093E00032
:102FF0008091E1008E7E8093E1008DE08093E2007D
:10300000559A209A1092600210925F0210925E020E
:1030100010925D020E94110887EB93E090935C028E
:1030200080935B0283EC93E090935A028093590261
:1030300082E08093BA008FEF9FEF90939B02809382
:103040009A028EE09AE090936202809361028EE48D
:103050009DE090936402809363021092DA041092D0
:10306000D90484E89AE0909300048093FF031092BF
:103070000204109201048CE69BE090930404809378
:103080000304109206041092050481E08093FD036E
:1030900064E670E080E090E00E94850360E590E0E7
:1030A00080E00E94550E60E081E090E00E94550EA5
:1030B00060E082E090E00E94550E90E080E00E9487
:1030C000521B90E090936C0280936B0281E090E041
:1030D0000E94521B682F70E090E080E00E94331A3B
:1030E00060937302709374028093750290937602DA
:1030F00082E090E00E94521B90E0909372028093D5
:103100007102C4E6D0E025E0422E512C612C712CD6
:1031100004E011E080916502811104C01093650202
:103120000E94C906D0938B00C0938A002A98229AE5
:1031300080916502811104C0109365020E94C90646
:10314000D0938900C09388002998219AC090730277
:10315000D0907402E0907502F090760220E030E0AA
:103160004FE753E4C701B6010E94C21C87FD19C096
:1031700080917102909172020196909372028093F5
:10318000710220E030E04FE753E4C701B6010E942E
:10319000B41B6093730270937402809375029093D2
:1031A000760280916802811104C0109368020E9427
:1031B0000F07F894E0906602F090670210926702A1
:1031C00010926602789480916802811104C0109375
:1031D00068020E940F07F8942090690230906A02FA
:1031E00010926A0210926902789480907302909013
:1031F0007402A0907502B0907602B701F7FE03C08A
:10320000719561957109072E000C880B990B0E942E
:10321000351A26E53EE049E450E40E94941A27E777
:103220003EEB4FE15DE30E94941A20E030E843E674
:1032300054E40E94211C6B017C01B10137FE03C0E4
:10324000719561957109072E000C880B990B0E94EE
:10325000351A26E53EE049E450E40E94941A27E737
:103260003EEB4FE15DE30E94941A20E030E843E634
:1032700054E40E94211C9B01AC01C701B6010E94CD
:10328000B51B20E030E040E251E40E94941A20E0B7
:1032900030E040E05FE30E94941AA50194010E948F
:1032A000B51B6B017C01C501B4010E94931C81E038
:1032B00090E00E94550E6091710282E090E00E94C1
:1032C000550EC0927302D0927402E0927502F09291
:1032D000760280917102909172022FEF289FB001C7
:1032E000299F700D1124072E000C880B990B0E944A
:1032F000351AA70196010E94B51B0E94931C60938A
:103300006D0270936E0280936F0290937002A3011E
:1033100092010E94781B90E5E92EF12CE21AF30A43
:10332000F7FE02C0F12CE12C6E2D90E080E00E94AF
:10333000550EF0926C02E0926B021092AF04109264
:10334000B0048AE1E82E83E0F82EF7016491662349
:1033500049F083EF93E00E94220DFFEFEF1AFF0A7E
:10336000892B99F71092AF041093B004C0906B02B0
:10337000D0906C020D2C000CEE08FF082AE0B7017B
:10338000A601F7FE0DC06DE283EF93E00E94220DCF
:1033900044275527BA014C195D096E097F092AE0B7
:1033A00083EF93E00E94CD0B1092AF0423E02093B3
:1033B000B0046CE971E083EF93E00E94BE0B69E911
:1033C00071E083EF93E00E94BE0B1092AF04009374
:1033D000B00440916D0250916E0260916F02709145
:1033E00070022AE083EF93E00E94CD0B6DEA71E05A
:1033F00083EF93E00E94BE0B80E090E0892B09F4FC
:1034000089CE0E94000086CE85E891E09093DC048E
:103410008093DB048091E5049091E604009711F01D
:103420000E94A81D8091DF049091E004009711F0A4
:103430000E94A81D8091E3049091E404009711F08C
:103440000E94A81D8091DD049091DE04009711F088
:103450000E94A81D8091E1049091E204009711F070
:103460000C94A81D0895E89409C097FB3EF490952C
:103470008095709561957F4F8F4F9F4F9923A9F04D
:10348000F92F96E9BB279395F695879577956795DC
:10349000B795F111F8CFFAF4BB0F11F460FF1BC020
:1034A0006F5F7F4F8F4F9F4F16C0882311F096E9B3
:1034B00011C0772321F09EE8872F762F05C0662361
:1034C00071F096E8862F70E060E02AF09A95660F1A
:1034D000771F881FDAF7880F9695879597F90895D3
:1034E000990F0008550FAA0BE0E8FEEF1616170615
:1034F000E807F907C0F012161306E407F50798F07D
:10350000621B730B840B950B39F40A2661F0232B95
:10351000242B252B21F408950A2609F4A140A69511
:103520008FEF811D811D08950E94A71A0C94181B0E
:103530000E940A1B38F00E94111B20F0952311F005
:103540000C94011B0C94071B11240C944C1B0E941F
:10355000291B70F3959FC1F3950F50E0551F629F93
:10356000F001729FBB27F00DB11D639FAA27F00DDC
:10357000B11DAA1F649F6627B00DA11D661F829F03
:103580002227B00DA11D621F739FB00DA11D621FE8
:10359000839FA00D611D221F749F3327A00D611D05
:1035A000231F849F600D211D822F762F6A2F1124E7
:1035B0009F5750409AF0F1F088234AF0EE0FFF1F1A
:1035C000BB1F661F771F881F91505040A9F79E3F71
:1035D000510580F00C94011B0C944C1B5F3FE4F3ED
:1035E000983ED4F3869577956795B795F795E795C7
:1035F0009F5FC1F7FE2B880F911D9695879597F9D0
:10360000089597F99F6780E870E060E008959FEF64
:1036100080EC089500240A94161617061806090669
:10362000089500240A941216130614060506089538
:10363000092E0394000C11F4882352F0BB0F40F4C0
:10364000BF2B11F460FF04C06F5F7F4F8F4F9F4F00
:10365000089557FD9058440F551F59F05F3F71F082
:103660004795880F97FB991F61F09F3F79F08795E9
:103670000895121613061406551FF2CF4695F1DF72
:1036800008C0161617061806991FF1CF8695710502
:10369000610508940895E894BB2766277727CB0136
:1036A00097F90895F999FECF92BD81BDF89A9927AF
:1036B00080B50895262FF999FECF1FBA92BD81BD1E
:1036C00020BD0FB6F894FA9AF99A0FBE01960895A4
:1036D000DB018F939F930E949A1BBF91AF91A29F92
:1036E000800D911DA39F900DB29F900D1124089500
:1036F000A1E21A2EAA1BBB1BFD010DC0AA1FBB1FF6
:10370000EE1FFF1FA217B307E407F50720F0A21B67
:10371000B30BE40BF50B661F771F881F991F1A94D4
:1037200069F760957095809590959B01AC01BD01FE
:10373000CF0108950E94A51BA59F900DB49F900DE9
:10374000A49F800D911D11240895A29FB001B39FE5
:10375000C001A39F700D811D1124911DB29F700D9A
:10376000811D1124911D08955058BB27AA270E943E
:10377000CC1B0C94181B0E940A1B38F00E94111BD2
:1037800020F039F49F3F19F426F40C94071B0EF433
:10379000E095E7FB0C94011BE92F0E94291B58F3CD
:1037A000BA17620773078407950720F079F4A6F526
:1037B0000C944B1B0EF4E0950B2EBA2FA02D0B0191
:1037C000B90190010C01CA01A0011124FF27591B66
:1037D00099F0593F50F4503E68F11A16F040A22F6C
:1037E000232F342F4427585FF3CF469537952795DD
:1037F000A795F0405395C9F77EF41F16BA0B620BDC
:10380000730B840BBAF09150A1F0FF0FBB1F661F22
:10381000771F881FC2F70EC0BA0F621F731F841F65
:1038200048F4879577956795B795F7959E3F08F08B
:10383000B0CF9395880F08F09927EE0F979587954D
:1038400008950E94351C0C94181B0E94111B58F0FF
:103850000E940A1B40F029F45F3F29F00C94011BE1
:1038600051110C944C1B0C94071B0E94291B68F3EC
:103870009923B1F3552391F3951B550BBB27AA2729
:1038800062177307840738F09F5F5F4F220F331F63
:10389000441FAA1FA9F335D00E2E3AF0E0E832D02B
:1038A00091505040E695001CCAF72BD0FE2F29D02E
:1038B000660F771F881FBB1F261737074807AB0700
:1038C000B0E809F0BB0B802DBF01FF2793585F4F75
:1038D0003AF09E3F510578F00C94011B0C944C1B60
:1038E0005F3FE4F3983ED4F3869577956795B79557
:1038F000F7959F5FC9F7880F911D9695879597F962
:103900000895E1E0660F771F881FBB1F62177307DA
:103910008407BA0720F0621B730B840BBA0BEE1FEF
:1039200088F7E09508950E94311B88F09F5798F022
:10393000B92F9927B751B0F0E1F0660F771F881FB4
:10394000991F1AF0BA95C9F714C0B13091F00E94CE
:103950004B1BB1E008950C944B1B672F782F8827E1
:10396000B85F39F0B93FCCF3869577956795B395F5
:10397000D9F73EF490958095709561957F4F8F4F64
:103980009F4F08950E94701A08F48FEF0895991BB5
:1039900079E004C0991F961708F0961B881F7A9546
:1039A000C9F780950895AA1BBB1B51E107C0AA1F48
:1039B000BB1FA617B70710F0A61BB70B881F991FD0
:1039C0005A95A9F780959095BC01CD010895052ED3
:1039D00097FB1EF400940E94FE1C57FD07D00E9426
:1039E000781B07FC03D04EF40C94FE1C50954095B8
:1039F000309521953F4F4F4F5F4F0895909580959B
:103A0000709561957F4F8F4F9F4F0895EE0FFF1F69
:103A10000590F491E02D09940F931F93CF93DF93BA
:103A20008230910510F482E090E0E0914605F0913B
:103A3000470530E020E0B0E0A0E0309799F4211590
:103A4000310509F44AC0281B390B24303105D8F55B
:103A50008A819B816115710589F1FB0193838283C2
:103A6000FE0111C04081518102811381481759071D
:103A7000E0F04817590799F4109761F012960C93EB
:103A8000129713961C933296CF01DF91CF911F911D
:103A90000F9108950093460510934705F4CF211523
:103AA000310551F04217530738F0A901DB019A01A3
:103AB000BD01DF01F801C1CFEF01F9CF90934705B8
:103AC00080934605CDCFFE01E20FF31F81939193C2
:103AD0002250310939832883D7CF20914405309172
:103AE0004505232B41F4209122013091230130938D
:103AF0004505209344052091200130912101211595
:103B0000310541F42DB73EB7409124015091250174
:103B1000241B350BE0914405F0914505E217F307AE
:103B2000A0F42E1B3F0B2817390778F0AC014E5F2D
:103B30005F4F2417350748F04E0F5F1F5093450520
:103B400040934405819391939FCFF0E0E0E09CCFB8
:103B5000CF93DF930097E9F0FC0132971382128232
:103B6000A0914605B0914705ED0130E020E01097A7
:103B7000A1F420813181820F931F2091440530915F
:103B800045052817390709F061C0F0934505E09312
:103B90004405DF91CF910895EA01CE17DF07E8F5DC
:103BA0004A815B819E0141155105B1F7E901FB8313
:103BB000EA8349915991C40FD51FEC17FD0761F4B1
:103BC000808191810296840F951FE90199838883F2
:103BD000828193819B838A83F0E0E0E012968D914D
:103BE0009C9113970097B9F52D913C911197CD01B8
:103BF0000296820F931F20914405309145052817A6
:103C0000390739F6309751F510924705109246055D
:103C1000B0934505A0934405BCCFD383C2834081B4
:103C20005181840F951FC817D90761F44E5F5F4F0C
:103C300088819981480F591F518340838A819B81D4
:103C4000938382832115310509F0B0CFF0934705A6
:103C5000E09346059ECFFD01DC01C0CF13821282A6
:103C6000D7CF81E090E0F8940C94461EFB01DC0174
:103C700002C001900D9241505040D8F70895DC01E8
:103C800001C06D9341505040E0F7089511E0C6ED3A
:103C9000D1E004C0FE010E94061D2196C73DD10758
:063CA000C9F7F894FFCF04
:103CA6000F00F401D00704000401FFFFFFFF00E14D
:103CB600000000000000ED03ED03ED03ED03ED034E
:103CC6000000480580009C01B501CF01EA0107020A
:103CD6002602470269028E02B502DE020A0300C10D
:103CE6008081000000000000000505800426051BF9
:103CF600056C052A0548050000000064085908B946
:103D06000B2F0852083F08300800000000220D570C
:103D16000EB90BB80B00000000530700000000D3DB
:103D26000D00000000BC0B000000000F0E0000009C
:103D360000A80600000000190C0D0A0044697374FF
:103D4600616E63652064726F76653B20006B6D2043
:023D560000006B
:00000001FF
