:100000000C94D7010C94CD100C94A6100C947F1076
:100010000C9458100C94FF010C94FF010C943110B7
:100020000C94FF010C948C150C94F4100C94631137
:100030000C94FF010C94FF010C94FF010C94FF0140
:100040000C94FF010C94FF010C94FF010C94FF0130
:100050000C94FF010C94FF010C94FF010C94E70F2A
:100060000C94FF010C94FF010C94FF010C94FF0110
:100070000C94FF010C94FF010C94FF010C94FF0100
:100080000C94FF010C94FF010C94FF010C94FF01F0
:100090000C94D7150C94FF010C94FF010C94FF01F4
:1000A0000C94FF010C9495130C94FF01506F77652D
:1000B000723A202000000000000000004F00000005
:1000C00007000700147F147F14242A7F2A122313A9
:1000D00008646236495522500000070000001C22C7
:1000E00041000041221C0014083E081408083E0884
:1000F0000800503000000808080808006060000090
:1001000020100804023E5149453E00427F40004213
:10011000615149462141454B311814127F10274542
:100120004545393C4A494930030171090736494977
:100130004936064949291E00363600000056360069
:10014000000814224100141414141400412214084D
:100150000201510906324979413E7E1111117E7F1B
:10016000494949363E414141227F4141413E7F4913
:100170004949417F090909013E4149497A7F0808F7
:10018000087F00417F41002040413F017F08142249
:10019000417F404040407F020C027F7F0408107F77
:1001A0003E4141413E7F090909063E4151215E7FA2
:1001B00009192946464949493101017F01013F405A
:1001C00040403F1F2040201F3F4038403F631408FD
:1001D000146307087008076151494543007F414196
:1001E0000002040810200041417F000402010204C3
:1001F0004040404040000102040020545454787FA5
:10020000484444383844444420384444487F3854AF
:10021000545418087E0901020C5252523E7F0804C1
:10022000047800447D40002040443D007F10284475
:100230000000417F40007C041804787C08040478A6
:1002400038444444387C14141408081414187C7C72
:10025000080404084854545420043F4440203C40BF
:1002600040207C1C2040201C3C4038403C4428104E
:1002700028440C5050503C4464544C4400083641CF
:100280000000007F000000413608000C0204080650
:10029000081C2A080800030C0F30333C3FC0C3CCB5
:1002A000CFF0F3FCFF000000002300260029002C03
:1002B000002F00080B0002020200000904000001E8
:1002C000020200000524001001052401010104249C
:1002D00002060524060001070581031000400904F9
:1002E0000100020A000000070502024000000705A5
:1002F00083024000000403090412010002EF02011E
:1003000040FB1F0023000101020301506F6C6F6C62
:100310007520436F72706F726174696F6E00506FF9
:100320006C6F6C7520412D537461722033325534DB
:100330000000000000240027002A002D00300000EB
:10034000000000250028002B002E003100040404CA
:10035000040403040502020202040302020202066C
:10036000060606060604040202020404040802014A
:1003700010408040102040804080080204018040EE
:1003800020100201108010204040200000000200D8
:10039000090F0000030401000C0000000000000031
:1003A0000000000000000000000029173A1D112481
:1003B0001FBECFEFDAE0DEBFCDBF11E0A0E0B1E0BD
:1003C000E6E6F3E402C005900D92AC3DB107D9F723
:1003D00024E0ACEDB1E001C01D92A93AB207E1F70B
:1003E00011E0C6EDD1E004C02197FE010E943D203E
:1003F000C53DD107C9F70E9488170C94A6210C941B
:1004000000005B9887FD5D9A87FF5D985B9A5B981B
:1004100086FD5D9A86FF5D985B9A5B9885FD5D9A87
:1004200085FF5D985B9A5B9884FD5D9A84FF5D987B
:100430005B9A5B9883FD5D9A83FF5D985B9A5B98FE
:1004400082FD5D9A82FF5D985B9A5B9881FD5D9A63
:1004500081FF5D985B9A5B9880FD5D9A80FF5D9857
:100460005B9A0895FC0180914603882311F13FB700
:10047000F89482E08093E9002091F200822F90E0CE
:100480001816190614F481E090E0882339F02898B2
:1004900044E6409345034091F1004083222339F024
:1004A0002091F200211103C02BE62093E8003FBF0A
:1004B00008958FEF9FEF08952FB7F89483E080930E
:1004C000E9009091E800892F807295FF04C0909117
:1004D000F20080E4891B2FBF089580913D038111B4
:1004E0000DC082E08093390384E080933A03109238
:1004F0003C0310923B0381E080933D0389E393E04A
:10050000089581508F3008F047C0E82FF0E0E5579C
:10051000FD4F0C943D20A802AC029A02A002A40256
:10052000CC02CC02CC02AF02B502B902BD02C302BA
:10053000CC02C702809180008F778093800008955D
:10054000809180008F7DF9CF80918000877FF5CFEB
:1005500084B58F7784BD089584B58F7DFBCF80915E
:1005600090008F77809390000895809190008F7D08
:10057000F9CF80919000877FF5CF8091C0008F7771
:100580008093C00008958091C0008F7DF9CF809145
:10059000C200877F8093C20008951F93CF93DF939B
:1005A000282F30E0F901E557FC4F8491F901E45917
:1005B000FC4FD491F901E35BFC4FC491CC23A9F02B
:1005C000162F81110E948102EC2FF0E0EE0FFF1F29
:1005D000E15CFC4FA591B4918FB7F894EC911111A7
:1005E00008C0D095DE23DC938FBFDF91CF911F91A0
:1005F0000895DE2BF8CFCF93DF9390E0FC01E45910
:10060000FC4F2491835B9C4FFC0184918823C9F0AB
:1006100090E0880F991FFC01EF5CFC4FA591B4910D
:10062000FC01E15CFC4FC591D49161110DC09FB7F5
:10063000F8948C91209582238C9388812823288399
:100640009FBFDF91CF910895623051F49FB7F89426
:100650003C91822F809583238C93E8812E2BEFCFC2
:100660008FB7F894EC912E2B2C938FBFEACF80910B
:1006700098048F3F61F061E00E94FB0260E080918E
:1006800098040E94CD028BE193E00197F1F7089561
:10069000809198048F3F61F061E00E94FB0261E06D
:1006A000809198040E94CD028BE193E00197F1F7CD
:1006B00008953FB7F8948091350390913603A09147
:1006C0003703B091380326B5A89B05C02F3F19F01A
:1006D0000196A11DB11D3FBFBA2FA92F982F8827C2
:1006E000BC01CD01620F711D811D911D42E0660F9D
:1006F000771F881F991F4A95D1F708958F929F926F
:10070000AF92BF92CF92DF92EF92FF924B015C01CA
:100710000E9459036B017C010E9459036C197D09E9
:100720008E099F09683E734081059105A8F321E079
:10073000821A9108A108B10888EEC80E83E0D81E7D
:10074000E11CF11C81149104A104B10429F7FF906C
:10075000EF90DF90CF90BF90AF909F908F900895D3
:100760002FB7F89460913103709132038091330375
:10077000909134032FBF0895E0919C02F0919D0267
:10078000309729F0109299021092980209940895D6
:10079000CF93DF93AC01E0919E02F0919F023097DE
:1007A000F1F090919B0280919A029817C0F090E02E
:1007B000292F30E02617370754F4D901A451BE4F32
:1007C000240F351FE90128812C939F5FF1CF1092F0
:1007D0009B0260939A02CB01DF91CF910994DF9144
:1007E000CF910895089540918E0250918F022091EB
:1007F0008C0230918D0242175307B4F49091E800B7
:100800009570E1F39091E80092FD19C08093F1009A
:1008100080918E0290918F0201968F739927892B78
:1008200019F48EEF8093E80080918E0290918F02F0
:10083000019690938F0280938E0281E0089580E06C
:100840000895DF92EF92FF920F931F93CF93DF9360
:10085000D82E8A01EB017B01E40EF51ECE15DF05D3
:1008600059F0D7FE12C0FE0184910E94F303219635
:100870008111F4CF0FEF1FEFC801DF91CF911F91CE
:100880000F91FF90EF90DF9008958881EECF0F9346
:100890001F93CF93DF931F92CDB7DEB782E089839A
:1008A00042E450E063EB72E080E80E9421040E9481
:1008B0006D02DC0112960D911C910115110589F054
:1008C000D801ED91FC910280F381E02DBE016F5FB4
:1008D0007F4FC801099597FD04C0F8010085118577
:1008E000ECCF89810F90DF91CF911F910F910895E7
:1008F000615030F02091F100FC0120830196F8CF87
:10090000289884E68093450308958F929F92AF9232
:10091000BF92CF92DF92EF92FF920F931F93CF93EC
:10092000DF936C017B018A0180911601882309F411
:100930005CC080914603882309F457C080919202DD
:1009400080FF05C08091E00082608093E000E801B4
:10095000B12C8AEFA82E93E0892E2AE3922E2097BD
:1009600011F4BB20D9F10E945C0281110AC0AA9443
:10097000AA20D9F161E070E080E090E00E947E035F
:10098000EECF8C171D0611F00CF08C2F9FB7F8944A
:100990008092E9002091E80025FD02C09FBFDFCFD3
:1009A000282F30E0C21BD30BF701815020F041917A
:1009B0004093F100FACFE20EF31EBB2021F090929B
:1009C000E800B12CEBCF8091E80085FDE7CF909255
:1009D000E800BB24B394209709F3F3CF5D9884E635
:1009E00080939102101611063CF081E090E0F60130
:1009F0009383828310E000E0C801DF91CF911F91C3
:100A00000F91FF90EF90DF90CF90BF90AF909F90AD
:100A10008F900895CF93DF931F92CDB7DEB7698390
:100A2000DC01ED91FC910280F381E02D41E050E08A
:100A3000BE016F5F7F4F09950F90DF91CF910895B1
:100A400083E08093E9008091F200882319F08AE323
:100A50008093E80008950E945C0290E00895CF938F
:100A6000DF931F92CDB7DEB7FC018485958597FD96
:100A700008C02FEF3FEF358724870F90DF91CF918C
:100A80000895CE0101960E943202019719F48981DE
:100A900090E0F3CF8FEF9FEFF0CF0F931F93CF93A3
:100AA000DF931F92CDB7DEB78C01FC01848595855D
:100AB00097FF0BC0CE0101960E943202019771F49C
:100AC000898190E0F80195878487F8018485958570
:100AD0000F90DF91CF911F910F9108958FEF9FEFAE
:100AE000F1CFFC018485958597FD0BC09FB7F894E5
:100AF00082E08093E9008091F2009FBF90E0019630
:100B000008959FB7F89482E08093E9008091F20005
:100B10009FBF90E0089580918902E0918A02F09150
:100B20008B02882339F084919FEB980F9A3120F43F
:100B3000805E08958081F8CF803269F420918A0226
:100B400030918B02A9014F5F5F4F50938B0240930E
:100B50008A02232B01F708951F93CF93DF930E94FE
:100B60008B05D0E0C0E01AE090ED980F9A30B8F411
:100B70001C9F90011D9F300D1124E901C80FD11D4C
:100B800087FDDA95E09780918A0290918B02019619
:100B900090938B0280938A020E948B05E5CFCE0151
:100BA000DF91CF911F9108953F924F925F926F9284
:100BB0007F928F929F92AF92BF92CF92DF92EF92ED
:100BC000FF920F931F93CF93DF937B01D42E20913D
:100BD000860221111BC021E0209386021092720030
:100BE0001092C00034E03093C10039E03093C2006D
:100BF0002093C30023E02093BF0028EE2093D10070
:100C00001092BF001092D200579A789410920A0165
:100C1000CC24C39497FF03C09F77AAE0CA2EC8E2F2
:100C2000CC9EC02D1124D0E08C179D0750F021E000
:100C3000EC01C21206C0C13187E2D80710F0C0E152
:100C4000D7E24E01B12CA12C4C2C512C712C612CD3
:100C50009E01AFEFB7E00E944B20640D751D861D0D
:100C6000971D9695879577956795A30192010E94A8
:100C7000FC1F60E072E18AE790E0312C3394621748
:100C800073078407950728F096958795779567955C
:100C9000F5CFA30192010E94B81F9E0136952795BA
:100CA000620F731F811D911DA50194010E94FC1FFD
:100CB000722E022F132F2AE0C21207C0CE01059612
:100CC0006AE070E00E94D41FEB01C83E83E0D807C1
:100CD00059F09701DE010E944B2028EE33E040E0FE
:100CE00050E00E941E207901109272008091C10094
:100CF000807F83298093C1001093BF007092D10040
:100D00004D2D403108F04FE080E190E0841B9109C7
:100D100002C0169507958A95E2F71093BF000093DD
:100D2000D200F0928802E092870289B38FEF89BBEC
:100D300084E080937200DF91CF911F910F91FF901B
:100D4000EF90DF90CF90BF90AF909F908F907F906B
:100D50006F905F904F903F9008952E98269A2D980F
:100D6000259A2A98229A2998219A80EA80938000CD
:100D700081E18093810080E991E0909387008093E6
:100D80008600109289001092880010928B001092B9
:100D90008A000895CF93DF93EC0180918202811144
:100DA00005C081E0809382020E94AD0680E0D7FFFB
:100DB00004C0D195C195D10981E0C13991E0D9072D
:100DC00014F0C0E9D1E0D0938900C0938800882353
:100DD00029F0299A219ADF91CF9108952998FACF85
:100DE000CF93DF93EC0180918202811105C081E0F5
:100DF000809382020E94AD0680E0D7FF04C0D195A7
:100E0000C195D10981E0C13991E0D90714F0C0E959
:100E1000D1E0D0938B00C0938A00882329F02A9ACE
:100E2000229ADF91CF9108952A98FACF9FB19170BD
:100E30008CB186FB882780F9892720917E0230912A
:100E40007D024091A3025091A40228273927231B39
:100E5000330B240F351F3093A4022093A30230914B
:100E60007D0220917E02381729F0291719F021E020
:100E700020937C0280937D0290937E0208952498B3
:100E80002C9A6A98729A6E98769A8098889A81E0DD
:100E90008093680090E190936B008BBB86E197E0B4
:100EA0009093200180931F01EAE6F0E080818F7C1F
:100EB00080618083EE9A8CB182FB882780F98093D1
:100EC000810293B1809181029295917089278093DC
:100ED00080021092A1021092A00210927F028FB1A4
:100EE000817080937E029CB180917E0296FB99274F
:100EF00090F9892780937D021092A4021092A30298
:100F000010927C0208955F926F927F928F929F92CF
:100F1000AF92BF92CF92DF92EF92FF920F931F9307
:100F2000CF93DF93FC0122853385232B09F492C0F4
:100F30006B01EC0110E08C851817E8F4E12EF12C20
:100F40008E859F85F701EE0FFF1FEC0DFD1D918330
:100F50008083EA85FB85EE0DFF1D61E080810E94A4
:100F6000CD02EA85FB85EE0DFF1D61E080810E94C8
:100F7000FB021F5FE0CF83E290E00197F1F710E002
:100F80008C851817A0F4E12EF12CEA85FB85EE0D77
:100F9000FF1D60E080810E94FB02EA85FB85EE0D6B
:100FA000FF1D60E080810E94CD021F5FE9CF0E949B
:100FB00059034B015C010E945903AB01BC01481964
:100FC00059096A097B098E859F85B0E0A0E0481722
:100FD00059076A077B0708F03DC00E9459037B014F
:100FE000E818F908612C8C85681628F7062D10E0A2
:100FF000EA85FB85E00FF11F208130E0F901E5571C
:10100000FC4F8491F901E459FC4F7490F901E35BC2
:10101000FC4F549051100CC0000F111FF601E00F4F
:10102000F11F80819181E816F90688F06394DBCF87
:1010300081110E948102E52DF0E0EE0FFF1FEB55BC
:10104000FD4FA591B491EC917E2231F3EFCFF18267
:10105000E082ECCFDF91CF911F910F91FF90EF9045
:10106000DF90CF90BF90AF909F908F907F906F90C8
:101070005F90089520913202260F3327331F2132CB
:101080003105ECF420915602FC0190E080E0243020
:1010900069F082E00895A09132022191AC014E5E88
:1010A0005D4FA40FB52FB11D2C930196861798F3B1
:1010B00080913202680F6093320280E0089581E0EF
:1010C00008951092560281E08093580210925702C0
:1010D00061E082E00E94CD0261E083E00E94CD02E7
:1010E000E9EBF0E080818E7F808380818D7F80833B
:1010F00088E48093B80085E48093BC000895089547
:10110000E0919B0280919A02E81730F4F0E0E451FC
:10111000FE4F808190E008958FEF9FEF08959091AA
:101120009B0280919A022FEF3FEF981748F4E92F26
:10113000F0E0E451FE4F208130E09F5F90939B02EE
:10114000C901089580919A0290919B02891B990B85
:101150000895CF93DF93CB01EA01642F0E943A08F0
:10116000CE01DF91CF910895CF93DF931F92CDB73A
:10117000DEB7698361E0CE0101960E943A0881E002
:1011800090E00F90DF91CF910895289A209A0895CA
:101190002898209A08955F926F927F928F929F92E3
:1011A000AF92BF92CF92DF92EF92FF920F931F9375
:1011B000CF93DF935C01D62FC42FF22E132F0E9402
:1011C000C8088D2F806B0E9401028C2F82958F7032
:1011D00080610E9401028C2F8F700E9401020E9488
:1011E000C508CF2DD12F0C0F1D2F111D95E0692E95
:1011F000C017D10709F444C07990872D8052990B0C
:101200009C01629EC001639E900D1124769C40015A
:101210001124F12CE12C9C012B543F4F69013FE13B
:10122000371508F5F601EE0DFF1DE491F0E084E0BE
:10123000F595E7958A95E1F7EB56FD4F5490852D8E
:101240000E940102852D0E9401029FEFE91AF90A0E
:1012500025E0E216F10419F780E00E94010280E027
:101260000E940102C5CF87E0E0E08715F8F2F401A3
:10127000EE0DFF1DE254FF4FEA0DFB1DE081D6CFBE
:10128000DF91CF911F910F91FF90EF90DF90CF9062
:10129000BF90AF909F908F907F906F905F900895D8
:1012A0005F926F927F928F929F92AF92BF92CF92F6
:1012B000DF92EF92FF920F931F93CF93DF935C0126
:1012C000D62FC42FF22E132F0E94C8088D2F806BAB
:1012D0000E9401028C2F82958F7080610E94010212
:1012E0008C2F8F700E9401020E94C508CF2DD12F34
:1012F0000C0F1D2F111D85E0682EC017D10709F4B2
:1013000040C07990872D8052990B9C01629EC0014C
:10131000639E900D1124769C40011124F12CE12C48
:101320009C012B543F4F69013FE13715E8F4F6016A
:10133000EE0DFF1DE491EF70F0E0EB56FD4F549081
:10134000852D0E940102852D0E9401029FEFE91A5E
:10135000F90A25E0E216F10439F780E00E94010263
:1013600080E00E940102C9CF87E0E0E0871518F312
:10137000F401EE0DFF1DE254FF4FEA0DFB1DE0816D
:10138000DACFDF91CF911F910F91FF90EF90DF9017
:10139000CF90BF90AF909F908F907F906F905F9015
:1013A00008956F927F928F929F92AF92BF92CF9249
:1013B000DF92EF92FF920F931F93CF93DF935C0125
:1013C000D62FC42FF22E132F0E94C8088D2F806BAA
:1013D0000E9401028C2F82958F7080610E94010211
:1013E0008C2F8F700E9401020E94C508CF2DD12F33
:1013F0000C0F1D2F111D85E0682EC017D107A9F114
:101400007990872D8052990B9C01629EC001639E4A
:10141000900D1124769C40011124F12CE12C9C01AB
:101420002B543F4F69013FE1371588F4F601EE0D6B
:10143000FF1D84910E9401029FEFE91AF90A25E03D
:10144000E216F10481F780E00E940102D6CF87E026
:10145000871548F0F701E80DF91DE254FF4FEA0D3A
:10146000FB1D8081E7CF80E0E5CFDF91CF911F9119
:101470000F91FF90EF90DF90CF90BF90AF909F9033
:101480008F907F906F900895282F21FB0EF0209869
:1014900020FB0EF028980EF4289A21FB0EF4209AD7
:1014A00008958091A502882301F160912C03709129
:1014B0002D0380912E0390912F030E945E1E87E9D9
:1014C00093E00E94B40860912B0387E993E00E94A7
:1014D000B4081092A50210922B0310922C031092C4
:1014E0002D0310922E0310922F03089580919A02DB
:1014F00090919B02891B990B18161906FCF487E939
:1015000093E00E948F089091A602E92FF0E0EE0F81
:10151000FF1FEB54FD4F482F4053550B5183408321
:101520009F5F9093A602809100018823F9F2809139
:10153000B5028093250310920001D8CF0895CF9370
:10154000DF93EC01288121FB0EF0559820FB0EF073
:101550005D980EF45D9A21FB0EF4559A89810E94E4
:10156000440AE9EEF0E010828C818093F0008B81D8
:1015700080838A818093E200DF91CF910895FC01FE
:10158000A2EEB0E08C9182831C92A9EEB0E08C9127
:1015900083831C92A0EFB0E08C9184831C9220E0A6
:1015A0005D99216055992260208320E0289921606F
:1015B0002099226021835D98559A0895CF92DF92F9
:1015C000EF92FF920F93CF93DF93EC017C0184E0C5
:1015D000E80EF11CC7010E94BF0A6E0184E1C80E2B
:1015E000D11C08E0960143E162E0CE010E9450095F
:1015F000960143E163E0CE010E94CB086E0189E2CF
:10160000C80ED11C960143E165E0CE010E9450094D
:10161000960143E166E0CE010E94CB08C701DF914D
:10162000CF910F91FF90EF90DF90CF900C949F0A95
:10163000EF92FF920F93CF93DF93EC017C0184E054
:10164000E80EF11CC7010E94BF0A9E012C5E3F4FAD
:1016500005E142E060E0CE010E94D1099E01275DD4
:101660003F4F42E061E0CE010E94D1099E01225C21
:101670003F4F42E062E0CE010E94D1099E012D5A07
:101680003F4F42E063E0CE010E94D1099E012859FC
:101690003F4F42E064E0CE010E94D1099E012358F1
:1016A0003F4F42E065E0CE010E94D1099E012E56D7
:1016B0003F4F42E066E0CE010E94D1099E012955CC
:1016C0003F4F42E067E0CE010E94D109C701DF91A0
:1016D000CF910F91FF90EF900C949F0AEF92FF92A1
:1016E0000F931F93CF93DF938C017C0184E0E80E6E
:1016F000F11CC7010E94BF0A0E94C80882E00E9434
:101700000102C0E00E94C8088C2F806B0E94010279
:1017100080E10E9401020E94C508D0E080E00E94A2
:101720000102DF5FD038D1F7CF5FC83059F7C7016A
:101730000E949F0AF8011286DF91CF911F910F91AD
:10174000FF90EF900895AF92BF92CF92DF92EF9209
:10175000FF920F931F93CF93DF937C01122F68307A
:1017600008F043C0423008F040C088E0861B821772
:10177000D0F12223D1F1C42FCC0FC40FDCE06D9F38
:10178000D02D1124DD5E670124E1C20ED11C862F0D
:1017900090E025E1429F800D911D1124C80ED91EB5
:1017A000570184E0A80EB11CC5010E94BF0A62E087
:1017B0006C0F012F96014D2FC7010E94500963E065
:1017C0006C0F96014D2FC7010E94CB08C501DF9118
:1017D000CF911F910F91FF90EF90DF90CF90BF902E
:1017E000AF900C949F0A182FC6CFDF91CF911F9115
:1017F0000F91FF90EF90DF90CF90BF90AF90089542
:10180000BF92CF92DF92EF92FF920F931F93CF93ED
:10181000DF93EC01162FB42E022F653198F527E0E7
:10182000241780F185E1861B801750F1002351F1C8
:10183000CE014496E12EF12C25E1B29EE00CF11C84
:101840001124E80EF91E6E0184E0C80ED11CC601F9
:101850000E94BF0A412F440F410F440F4E5F970172
:101860006B2DCE010E94D109C601DF91CF911F914E
:101870000F91FF90EF90DF90CF90BF900C949F0A54
:10188000082FD6CFDF91CF911F910F91FF90EF904E
:10189000DF90CF90BF900895089590E080E0089584
:1018A000CF92DF92EF92FF920F931F93CF93DF932C
:1018B00020918D0430918E04232B09F44DC020918A
:1018C0008F0430919004232B09F446C08C010E94B0
:1018D0004803B8018BE894E00E9483070E94370315
:1018E000E801C0908F04D0909004E0908D04F090B7
:1018F0008E0410E000E0809197048017110661F1DA
:101900005CF1D601ED91FD916D01D7018D919D9115
:101910007D01E81BF90BC9F02881398150E040E0D6
:10192000281B390B41095109A8EEB3E00E94612040
:101930009F0150E040E00E941E20293EB3E03B079B
:1019400014F028EE33E037FF02C030E020E02993A6
:1019500039930F5F1F4FCFCFDF91CF911F910F9121
:10196000FF90EF90DF90CF9008954F925F926F922B
:101970007F928F929F92AF92BF92CF92DF92EF921F
:10198000FF920F931F93CF93DF93809123018823BE
:1019900009F4DAC082EE91E00E94500CE0919704C5
:1019A00002EE11E0B12CA12C50E040E0C12CD12C72
:1019B0007601912CF0E0EF17E9F0D801CD91DD919F
:1019C0008D01C93CD1059CF4C333D10554F0950178
:1019D000DE010E944320C60ED71EE81EF91E4C0FE2
:1019E0005D1FFF5FB8E1AB1ABCEFBB0AE4CF9924DF
:1019F0009394EDCF911098C0E150FF0B44EF51E06C
:101A0000E49FC001E59F900DF49F900D112440913B
:101A10009B0450919C04481759070CF492C048EE5F
:101A200053E0E49FC001E59F900DF49F900D1124B9
:101A3000805D974065E070E00E94E81FEB01072E93
:101A4000000C880B990B0E94961E6B017C01209163
:101A5000DE013091DF014091E0015091E1010E94EF
:101A6000801D4B015C018092DE019092DF01A0920B
:101A7000E001B092E1018091DC019091DD01BE01B5
:101A8000681B790B072E000C880B990B0E94961E81
:101A90002B013C01D093DD01C093DC0127E137EB42
:101AA00041ED58E3C501B4010E94271FA70196012B
:101AB0000E94801D6B017C0120E030E040E850E492
:101AC000C301B2010E94271F9B01AC01C701B601EF
:101AD0000E94801D6B017C0120E030E048E453E46B
:101AE0000E94801D0E945E1ECB010E94F006A7018D
:101AF000960160E070E088E493E40E947F1D0E94FC
:101B00005E1ECB01DF91CF911F910F91FF90EF905F
:101B1000DF90CF90BF90AF909F908F907F906F900D
:101B20005F904F900C94CA069A0150E040E0C701C4
:101B3000B6010E94FC1FC90130939C0420939B04B2
:101B400077CF90E080E074CFDF91CF911F910F911C
:101B5000FF90EF90DF90CF90BF90AF909F908F90CD
:101B60007F906F905F904F9008950E949121FB01AC
:101B700001900020E9F73197AF01461B570BDC01BC
:101B8000ED91FC910280F381E02D09948F929F9258
:101B9000AF92BF92EF92FF920F931F93CF93DF9379
:101BA000CDB7DEB7A1970FB6F894DEBF0FBECDBF9D
:101BB0007C01FA01CB0119A2223008F42AE08E013F
:101BC0000F5D1F4F822E912CB12CA12CBF01A501BE
:101BD00094010E94FC1FF901CA016A300CF5605D96
:101BE000D8016E938D01232B242B252B79F790E0C0
:101BF00080E0109721F0BD01C7010E94B70DA196AA
:101C00000FB6F894DEBF0FBECDBFDF91CF911F910D
:101C10000F91FF90EF90BF90AF909F908F9008959D
:101C2000695CDECF0F931F93CF93DF93EC010E948B
:101C3000B70D8C0161E971E0CE010E94B70D800FF4
:101C4000911FDF91CF911F910F910895CF93DF9353
:101C500085ED8093BC0080910E0290910F02A091BF
:101C60001002B09111020796A11DB11D23E0B69597
:101C7000A795979587952A95D1F72091BC0024FDCB
:101C800003C01092560236C040910E0250910F02CE
:101C90006091100270911102452B462B472B69F37E
:101CA0000097A105B10541F02AE22A95F1F700C09D
:101CB0000197A109B109E1CF80910D0291E09093C4
:101CC0000C028823B9F0C091B800D091BA0080917D
:101CD000BC008A7B8093BC0060E082E00E94CD0261
:101CE00060E083E00E94CD020E946108D093BA00B8
:101CF000C093B800DF91CF9108950F931F93CF93B6
:101D0000DF93EC015B98539A5A98529A85E38A952F
:101D1000F1F700005A9A529A85E38A95F1F700008C
:101D2000CE010E946E0B8E010C5F1F4FC8010E94F6
:101D3000BF0A0E94C80881EA0E94010288EC0E9442
:101D4000010281E80E9401028FEF0E9401028FEAE6
:101D50000E940102C8010E949F0A81E08987DF91E9
:101D6000CF911F910F910895FF920F931F93CF93DF
:101D7000DF93EC01162F042FF22E8985811103C009
:101D8000CE010E947D0E8A85882319F0CE010E9423
:101D90006E0B2A893B89C901959587958C0F9D1FEC
:101DA000E889F98920FF08C0DC012D913C91E20F00
:101DB000F31F0190F081E02D2F2D402F612FDF9137
:101DC000CF911F910F91FF900994CF93DF93DC0186
:101DD000A354BF4F2C91283008F5EC01C454DF4FB9
:101DE000E881E531D8F4AC0175E1279F400D511D24
:101DF0001124E40FF52FF11D648BFC0123852111C3
:101E000005C021E04C9168810E94B40E88818F5FEB
:101E1000888381E090E0DF91CF91089590E080E0A9
:101E2000FACFCF93DF9310925F0410926004CCEA54
:101E3000D0E0FE016491662339F083EA93E00E94CA
:101E4000E50E2196892BA9F710925F0481E080931B
:101E500060044091260350E070E060E02AE083EAED
:101E600093E00E94C60D10925F0483E080936004AB
:101E700064E971E083EA93E00E94120E10925F041D
:101E800084E080936004409127035091280360917F
:101E9000290370912A032AE083EA93E00E94C60D89
:101EA00065EA71E083EA93E0DF91CF910C94B70D7E
:101EB000AF92BF92CF92DF92EF92FF920F931F9358
:101EC000CF93DF9382EEE82EF12CF7010081108290
:101ED000C9EED0E0B880188290EFC92ED12CF6015F
:101EE000A080108220E02899216020992260822F12
:101EF0002098289A90E19A95F1F713B10E94440A2C
:101F00001882F601A082B882F7010083812F8095A4
:101F10008170DF91CF911F910F91FF90EF90DF9033
:101F2000CF90BF90AF9008950C94711DBF92CF9247
:101F3000DF92EF92FF920F931F93CF93DF938C0169
:101F4000EA016C012DEBC20ED11CF6013081383054
:101F5000D8F57C01FCEBEF0EF11CF7018081853197
:101F600098F525E1281B90E02417150620F4C5E11B
:101F7000D0E0C81BD90BF5E13F9F800D911D1124C6
:101F8000AE0198012C5E3F4F820F931F0E94962155
:101F9000BC2EF8018385811108C02C2FF6014081E9
:101FA000F7016081C8010E94B40EF70180818B0D9A
:101FB0008083CE01DF91CF911F910F91FF90EF9021
:101FC000DF90CF90BF900895D0E0C0E0F2CF1F9295
:101FD0000F920FB60F9211242F933F938F939F93DD
:101FE000AF93BF938091310390913203A09133035B
:101FF000B09134033091300323E0230F2D3758F58F
:102000000196A11DB11D209330038093310390935D
:102010003203A0933303B09334038091350390913E
:102020003603A0913703B09138030196A11DB11D6D
:102030008093350390933603A0933703B09338030E
:10204000BF91AF919F918F913F912F910F900FBEB4
:102050000F901F90189526E8230F0296A11DB11D21
:10206000D2CF1F920F920FB60F9211242F933F934E
:102070004F935F936F937F938F939F93AF93BF9390
:10208000EF93FF93E0911F01F09120010995FF91DB
:10209000EF91BF91AF919F918F917F916F915F91E0
:1020A0004F913F912F910F900FBE0F901F90189559
:1020B0001F920F920FB60F9211242F933F934F93BD
:1020C0005F936F937F938F939F93AF93BF93EF93A0
:1020D000FF93E0911D01F0911E010995FF91EF9191
:1020E000BF91AF919F918F917F916F915F914F9130
:1020F0003F912F910F900FBE0F901F9018951F9238
:102100000F920FB60F9211242F933F934F935F932B
:102110006F937F938F939F93AF93BF93EF93FF93AF
:10212000E0911B01F0911C010995FF91EF91BF9186
:10213000AF919F918F917F916F915F914F913F915F
:102140002F910F900FBE0F901F9018951F920F9216
:102150000FB60F9211242F933F934F935F936F937A
:102160007F938F939F93AF93BF93EF93FF93E091F0
:102170001901F0911A010995FF91EF91BF91AF916B
:102180009F918F917F916F915F914F913F912F918F
:102190000F900FBE0F901F9018951F920F920FB6C1
:1021A0000F9211242F933F934F935F936F937F93DD
:1021B0008F939F93AF93BF93EF93FF93E09117019A
:1021C000F09118010995FF91EF91BF91AF919F9107
:1021D0008F917F916F915F914F913F912F910F90D0
:1021E0000FBE0F901F9018951F920F920FB60F926F
:1021F00011248F939F938091E1009091E100937F50
:102200009093E10083FF0FC01092E90091E090935A
:10221000EB001092EC0092E39093ED0010924603D5
:1022200098E09093F00082FF22C093E09093E90041
:102230009091F200992319F09AE39093E80090911D
:102240009102992341F090919102915090939102C3
:10225000911101C05D9A90914503992341F09091AD
:102260004503915090934503911101C0289A84FF32
:1022700018C08091E2008E7E81608093E2008091A0
:10228000E1008F7E8093E100809192028E7E8061DA
:10229000809392029F918F910F900FBE0F901F908D
:1022A000189580FFF7CF8091E2008E7E8061809349
:1022B000E2008091E1008E7E8093E10080919202A5
:1022C0008E7E8160E5CF1F920F920FB60F92112480
:1022D000CF92DF92EF92FF920F931F932F933F9332
:1022E0004F935F936F937F938F939F93AF93BF931E
:1022F000EF93FF93CF93DF93CDB7DEB76C97DEBF3D
:10230000CDBF1092E9008091E80083FF25C068E00E
:10231000CE0145960E94780482EF8093E8008D8973
:1023200087FF39C09091E80090FFFCCF982F9076FE
:1023300009F034C19E894F89588D2F89F88C9111ED
:1023400031C0803861F5809193028093F100109242
:10235000F1008EEF8093E8006C960FB6F894DEBF24
:102360000FBECDBFDF91CF91FF91EF91BF91AF91A4
:102370009F918F917F916F915F914F913F912F919D
:102380001F910F91FF90EF90DF90CF900F900FBEB5
:102390000F901F9018959EEF9093E800C7CF109272
:1023A000F100D5CF913059F48111D3CF413051058F
:1023B00081F6809193028D7F80939302CACF9330F0
:1023C00049F48111C6CF4130510519F6809193022D
:1023D0008260F2CF953041F48091E80080FFFCCF1D
:1023E00020682093E300B5CF963009F0A9C00B8D8B
:1023F0001C8D22E01092E90010928F0210928E0242
:10240000F2122EC010928D0210928C020E9447048C
:102410001F8299E09983FA8291E09E8390EA9887DF
:102420009AEF998720918E0230918F02275F3F4F5C
:102430003C832B838D831092E90010928F021092BF
:102440008E0210938D0200938C0249E050E0BE0191
:102450006F5F7F4F80E00E9421040E94470479CF84
:1024600010938D0200938C020E946D02DC01129683
:102470000D911C910115110509F451C1D801ED917F
:10248000FC910480F581E02DBE016B5E7F4FC80199
:102490000995009709F03EC1F80100851185EACF42
:1024A000F3E0FF120EC08F89882309F440C0823008
:1024B00061F440E862E18EE193E00E94F61681113A
:1024C00048CF81E28093EB0047CF813029F440E888
:1024D00062E18BE093E0F1CF833099F70E946D02C7
:1024E000DC011296ED90FC908E010F5F1F4F68018A
:1024F000E114F10479F0D701ED91FC910680F781A8
:10250000E02DB801C7010995080F111DF701E084FE
:10251000F184EECFD8011C92F60101900020E9F77A
:102520003197BF016C197D0940E0C601C6CF65EF48
:1025300072E0FB01449150E080E80E94210409CF41
:10254000973009F4BECF983021F481E08093F100F8
:1025500000CF993009F0FDCE837009F0B2CFE9E4E5
:10256000F1E081E031E096E32191222371F0809344
:10257000E9003093EB00DF0111972C912093EC00E0
:102580009093ED008F5F873079F78EE78093EA00B4
:102590001092EA008F8980934603DBCE8B8D9C8D51
:1025A0001092E90010928F0210928E0290938D0289
:1025B00080938C02898D811192C08E899D89913A78
:1025C00049F4813209F07DCF47E050E06FE071E0DF
:1025D00080E0B3CF913209F074CF833269F48F89F0
:1025E000988DB0E0A0E080930B0190930C01A09334
:1025F0000D01B0930E01ADCE803269F48091E800F8
:1026000082FFFCCF67E08FE091E00E9478048BEFBF
:102610008093E8009ECE823209F09BCE8F89809312
:102620001601EEEFFFE7859194918B3F9C4D51F1A0
:10263000E0E0F8E080910F0190911001A09111016C
:10264000B0911201803B9440A105B105F1F4809155
:10265000160180FD1AC0EE3F8AE0F80789F587E78A
:1026600097E791838083809160008093900288E156
:102670009BE00FB6F894A895809360000FBE9093EE
:10268000600067CEEEEFFAE0D5CF80819181873789
:10269000974709F05ECEA89580916000886180938D
:1026A00060008091900280936000EE3F2AE0F20784
:1026B00089F08091FE0A9091FF0A9183808349CE30
:1026C000808191818737980751F29093FF0A809318
:1026D000FE0AC5CF1092FF0A1092FE0A3ACE0E945F
:1026E0006D02DC0112960D911C910115110509F482
:1026F000E8CED801ED91FC910190F081E02DBE0172
:102700006B5E7F4FC8010995811123CEF8010085CA
:102710001185EBCF181619060CF41BCED2CEF1E0C2
:10272000FF12BECE69EF72E004CF1F920F920FB678
:102730000F9211244F925F926F927F928F929F928D
:10274000AF92BF92CF92DF92EF92FF920F931F93BF
:102750002F933F934F935F936F937F938F939F93A9
:10276000AF93BF93CF93DF93EF93FF93C091870213
:10277000D0918802CE0101979093880280938702BE
:102780002097A1F51092720078948091C100807F0B
:1027900084608093C10083E08093BF0088EE8093C3
:1027A000D1001092BF001092D20081E080930A0104
:1027B00080918A0290918B02892BC1F080918502D1
:1027C000811114C07090090180918402882379F1ED
:1027D00080918302882359F16091830270E040E088
:1027E00088EE93E00E94D40510928302FF91EF914E
:1027F000DF91CF91BF91AF919F918F917F916F9119
:102800005F914F913F912F911F910F91FF90EF900A
:10281000DF90CF90BF90AF909F908F907F906F9000
:102820005F904F900F900FBE0F901F9018955524FA
:10283000539470ECA72E7DE5B72EEAE04E2EF4E01F
:102840006F2EA0EDCA2EA7E0DA2EB4E0EB2EF12C0D
:1028500004EF11E08FE0882E912C0E948B052091CF
:102860008A0230918B022F5F3F4F30938B0220936F
:102870008A02853609F473C00CF047C0813609F42A
:10288000B4C024F58C3309F468C08E3309F463C0F6
:10289000813209F043C060920901D0920601C092D2
:1028A0000501F0920801E0920701109304010093E2
:1028B00003019092020180920101109284027090B3
:1028C00009018091030190910401C7CF833609F477
:1028D0008FC010E00BE0843614F010E002E04CE012
:1028E000749E000D11240E948B05982F977F9332C0
:1028F00009F080C080918A0290918B02019690939A
:102900008B0280938A020F5FEECF8D3609F445C0AB
:1029100054F4873651F134F18C3651F110928B0218
:1029200010928A0263CF823709F44CC044F48F3688
:10293000A9F70E94AC05782E809309018ECF8437C9
:1029400009F443C0863751F70E94AC059093020109
:102950008093010182CF739480CF7A947ECF10E070
:1029600004E0BDCF10E005E0BACF10E007E0B7CF3C
:102970000E94AC05909308018093070180910501A6
:102980009091060160910701709108010E94D41F87
:10299000709304016093030160CF0E948B058C3615
:1029A00061F41092840280918A0290918B020196C8
:1029B00090938B0280938A0250CF5092840210929F
:1029C0008302F1CF11E000E08ACF0E94AC05BC0188
:1029D000C5010E94D41F469EC001479E900D112440
:1029E0009093060180930501C9CF10E009E077CFED
:1029F00010E0E9CF8D3269F480918A0290918B02C8
:102A0000019690938B0280938A0201500E948B055D
:102A1000F1CFE0900301F09004018153883058F425
:102A2000E0900501F09006010E94AC05BC01C701D1
:102A30000E94D41F7B016701D694C7940E948B0526
:102A40008E3261F480918A0290918B02019690936C
:102A50008B0280938A02EC0CFD1CEECF80918402E5
:102A6000882349F0C70196958795809383028091CA
:102A70008302E81AF108C0900101D09002011111FF
:102A800004C00F3F11F0C11007C040E0B70188EE4D
:102A900093E00E94D405AACE013128F010EF100F68
:102AA000103608F01FE5812F6CE00E94C81F582FD8
:102AB00044EF450390011124210F311D2C303105C5
:102AC00038F4220F331FF901E05DFE4FC081D18140
:102AD0008730C1F0082E02C0CC0FDD1F0A94E2F748
:102AE000823040F0CE0105966AE070E00E94D41F6B
:102AF000CB0102C0CE0190584C2D403108F04FE080
:102B0000B701C7CFCE0126E0880F991F2A95E1F7BC
:102B1000029665E070E0EACF1F920F920FB60F9217
:102B200011242F933F934F936F937F938F939F9392
:102B30008CB1282F30E03595279535952795422F74
:102B4000417083B190E064E0959587956A95E1F7CF
:102B50008227817020918102909180026091A00271
:102B60007091A10228279427291B330B260F371FAA
:102B70003093A1022093A0022091800290918102C3
:102B8000281729F0941719F091E090937F02809311
:102B90008002409381029F918F917F916F914F911D
:102BA0003F912F910F900FBE0F901F9018951F927D
:102BB0000F920FB60F9211242F933F934F935F9371
:102BC0006F937F938F939F93AF93BF93EF93FF93F5
:102BD0008091B900887F803609F44AC0F0F58832C8
:102BE00009F4A7C018F5803109F49BC0B8F4882314
:102BF00009F4F9C0883009F494C0FF91EF91BF91B6
:102C0000AF919F918F917F916F915F914F913F9184
:102C10002F910F900FBE0F901F901895883109F4D7
:102C200088C0803251F78093550214C0803409F473
:102C30009DC040F48033B9F38833F9F68093550290
:102C400085ECB0C0803509F485C0883509F496C09C
:102C5000883499F60E94260ED0CF883909F48CC0AA
:102C600038F5883729F050F4883611F0803729F686
:102C700083E0809356021092540257C0883809F4BA
:102C80007BC0803919F0803809F0B7CF80915402A9
:102C9000803208F071C0E091540281E08E0F809381
:102CA00054028091BB00F0E0EC5CFD4F80833DC09E
:102CB000803B39F0E0F4803A09F479C0883A09F0B1
:102CC0009CCF84E08093560210923302109232021D
:102CD000E0919602F091970209958091320281115C
:102CE0000FC081E0809332021092120209C0803C32
:102CF00009F4A6CF883C09F4A3CF883B09F07DCF27
:102D0000E091330281E08E0F80933302F0E0EE5EBB
:102D1000FD4F80818093BB009091330280913202FD
:102D200029C080917B028093BB0085EC8093BC001E
:102D300064CF90917A0280917902981758F5E091CA
:102D40007A0281E08E0F80937A02F0E0E75AFD4F1D
:102D50008081E9CFE0917A0281E08E0F80937A0240
:102D60008091BB00F0E0E75AFD4F808390917A029A
:102D7000809179029817C8F285E8D8CFE0917A025D
:102D800081E08E0F80937A028091BB00F0E0E75AD9
:102D9000FD4F80838091580281115CCF81E0809348
:102DA000570284EA8093BC001092560226CF85EC2D
:102DB0008093BC001092560280915402803230F40D
:102DC000E0915402F0E0EC5CFD4F108260915402FF
:102DD00070E0E0919402F091950284E392E009950D
:102DE000109254020ACF1092550234CFEF92FF9204
:102DF0000F931F93CF93DF93F82E192FE62E042FF6
:102E000081E0860F880F0E94F30383E00E94F303A2
:102E1000CF2DD12FEC0EFD2EF11CCE15DF05B9F014
:102E200007FF13C0FE0184910E94F303182F80E076
:102E30000E94F303812321968111EFCFDF91CF917F
:102E40001F910F91FF90EF9008958881EDCF81E061
:102E5000F5CFCF93DF93E7E4F3E01382128288EE9D
:102E600093E0A0E0B0E084839583A683B78323E555
:102E700031E0318320832FEF3FEF35872487E7E967
:102E8000F3E01382128284839583A683B78385E659
:102E900091E091838083EDE9F4E0128215828FE85E
:102EA00091E091838083EBE8F4E013821282158233
:102EB000148217821682118610861386128683E882
:102EC00091E091838083C3EAD3E01B821A8248EAAF
:102ED00050E060E270E087EB93E00E949F21109247
:102EE0008A04109289048EED9AE09D878C871F8654
:102EF0001E8683EA9BE0998B888B1B8A1A8A81E065
:102F00008A8787E791E099838883DF91CF9108953D
:102F1000CF93DF93CDB7DEB7C056D1090FB6F89483
:102F2000DEBF0FBECDBF789484B5826084BD84B50A
:102F3000816084BD85B5826085BD85B5816085BDB4
:102F400080916E00816080936E001092810080916C
:102F500081008260809381008091810081608093F4
:102F60008100809180008160809380008091910039
:102F700082608093910080919100816080939100A4
:102F8000809190008160809390008091C100846066
:102F90008093C1008091C10082608093C1008091C4
:102FA000C10081608093C1008091C30081608093E3
:102FB000C3008091C00082608093C0008091C200F5
:102FC00081608093C20080917A00846080937A004F
:102FD00080917A00826080937A0080917A0081608B
:102FE00080937A0080917A00806880937A001092B2
:102FF000460310929302109292028091D700816052
:103000008093D70080EA8093D80089B5806189BD1C
:1030100089B5826089BD09B400FEFDCF61E070E032
:1030200080E090E00E947E038091D8008F7C8061D8
:103030008093D8008091E000807F8093E0008091B1
:10304000E1008E7E8093E1008DE08093E200559A4E
:10305000209A10929B0210929A021092990210925A
:1030600098020E9461088CEB93E090939702809302
:10307000960288EC93E0909395028093940282E00C
:103080008093BA008FEF9FEF909354038093530384
:1030900081E59AE090939D0280939C0286E79AE0F6
:1030A00090939F0280939E0210928A04109289044A
:1030B00088E19BE09093B0038093AF031092B2033A
:1030C0001092B10380E09CE09093B4038093B3032B
:1030D0001092B6031092B50381E08093AD0360E5D2
:1030E00090E080E00E94940F60E081E090E00E9418
:1030F000940F60E082E090E00E94940F90E080E006
:103100000E94691D8093260381E090E00E94691D62
:10311000682F70E090E080E00E94941E60932C0382
:1031200070932D0380932E0390932F0382E090E001
:103130000E94691D80932B0385E0EBE2F1E0DE0144
:10314000119601900D928A95E1F710928E041092DB
:103150008D041092900410928F0410929204109299
:103160009104109294041092930410929C04109273
:103170009B0485E080939704809195049091960438
:10318000892BC1F080E090919704891708F061C005
:10319000282F30E0E1E0F0E0EC0FFD1FE20FF31F1D
:1031A0009081E0919504F0919604E20FF31F9083D3
:1031B0008F5FE9CF85E090E00E946C2090939604A9
:1031C00080939504892BF1F680ED97E090939A0413
:1031D000809399048DE994E00E94580F8823D1F3DD
:1031E0006AE070E080E090E00E947E038DE994E068
:1031F0000E94580F882371F384E690E00E94F00645
:103200008CE99FEF0E94CA060E94B0036B017C010B
:1032100080918F0490919004892BF9F48091970408
:1032200090E0880F991F0E946C20909390048093E7
:103230008F04009709F4AFC0FC0190E080E020917A
:1032400097042817190649F044F01192119201963B
:10325000F6CF8BE080939804B7CF80918D04909146
:103260008E04892BF9F48091970490E0880F991FC0
:103270000E946C2090938E0480938D04009709F433
:103280008AC0FC0190E080E020919704281719067D
:1032900049F044F02091990430919A04219331939C
:1032A0000196F2CF10E000E00E944803BE016F5B80
:1032B0007F4F8BE894E00E9483070E943703609061
:1032C0009704712CCE0101964C019E012F5D3F4F5A
:1032D000DE01AF5BBF4F5D012901DC0150E040E042
:1032E0004615570524F5F501819191915F0101156E
:1032F000110599F0F201608171816817790768F012
:103300006D917C9111978617970768F04F5F5F4F1B
:103310001296F2E04F0E511CE3CFF20191838083AD
:103320000115110569F711969C938E93EFCF0F5FEE
:103330001F4F0A30110509F0B7CFA0918D04B0914D
:103340008E0400918F041091900490E080E04091F1
:10335000970448171906F9F0F4F0F40141915191DE
:103360004F01F801608171816417750710F4518372
:103370004083F901419151919F016D917C91119789
:103380004617570718F411965C934E9301961296C0
:103390000E5F1F4FDCCF0E94B0036C197D098E09B0
:1033A0009F09603A7F408105910508F431CF90E094
:1033B00080E00E94F00690E080E00E94CA0665E08E
:1033C000462E512C612C712C11E0C0902C03D09012
:1033D0002D03E0902E03F0902F0320E030E04FE724
:1033E00053E4C701B6010E94221F87FD15C08091DA
:1033F0002B038F5F80932B0320E030E04FE753E4F3
:10340000C701B6010E947F1D60932C0370932D03AA
:1034100080932E0390932F038091A202811104C008
:103420001093A2020E943F07F894E090A002F0904F
:10343000A1021092A1021092A00278948091A2029F
:10344000811104C01093A2020E943F07F8942090BB
:10345000A3023090A4021092A4021092A3027894C6
:1034600080902C0390902D03A0902E03B0902F03FA
:10347000B701F7FE03C0719561957109072E000C25
:10348000880B990B0E94961E26E53EE049E450E425
:103490000E94271F27E73EEB4FE15DE30E94271FB5
:1034A00020E030E843E654E40E94EC1D6B017C010F
:1034B000B10137FE03C0719561957109072E000CAB
:1034C000880B990B0E94961E26E53EE049E450E4E5
:1034D0000E94271F27E73EEB4FE15DE30E94271F75
:1034E00020E030E843E654E40E94EC1D9B01AC016F
:1034F000C701B6010E94801D20E030E040E251E4A7
:103500000E94271F20E030E040E05FE30E94271F79
:10351000A50194010E94801D6B017C01C501B401CD
:103520000E94651E81E090E00E94940F60912B0341
:1035300082E090E00E94940FC0922C03D0922D0361
:10354000E0922E03F0922F0360912B032FEF629FE6
:10355000B0011124072E000C880B990B0E94961EB7
:10356000A70196010E94801D0E94651E609327039B
:10357000709328038093290390932A03A301920157
:103580000E94FC1F50E5F52EF21A6F2D90E080E0AE
:103590000E94940FF092260300912503033009F452
:1035A000ABC188F4013009F4C4C0023009F456C13B
:1035B0000E94110F90E080E00E94F00690E080E011
:1035C0000E94CA062AC1043009F4F9C1053081F706
:1035D0008091AD0281110CC00E94B0036093A902DA
:1035E0007093AA028093AB029093AC021093AD0249
:1035F0008FE093E00E94500C80910F039091100394
:103600008835924014F01092A8028091A80281118E
:103610002CC28091A702882309F427C248EA50E00F
:1036200060E270E087EB93E00E949F2110925F04BC
:10363000109260048091AE0381112AC08091AC0386
:10364000811104C083EA93E00E947D0E8091AD0356
:10365000882321F083EA93E00E946E0B2091B1034E
:103660003091B203C901959587958D559C4FE09196
:10367000AF03F091B00320FF08C0DC012D913C9115
:10368000E20FF31F0190F081E02D09951092AE0337
:1036900062ED71E083EA93E00E94120E1093A5029E
:1036A00090E080E00E94F00690E080E00E94CA0670
:1036B00080912101882321F00E94510A109221015A
:1036C0008091F10290E001962091A6022817190638
:1036D00081F08091A702882361F01092A7020E94D6
:1036E000B0036093A9027093AA028093AB029093F7
:1036F000AC028091A702811190C00E94B003C090DB
:10370000A902D090AA02E090AB02F090AC026C1932
:103710007D098E099F09683B7B408105910508F46E
:103720007CC01093A702E4E0E093250310932101ED
:1037300074C080911D0381110CC00E94B00360937E
:10374000190370931A0380931B0390931C03009337
:103750001D030E94110F0E94B50C8FE093E00E94A0
:10376000500C80910F0390911003883592400CF417
:103770005CC010930E038FE093E00E94500C809188
:103780000F039091100388359240ECF080910D0367
:103790008130C9F48CE99FEF0E94F00684E690E046
:1037A0000E94CA060E94B0036093190370931A0323
:1037B00080931B0390931C03109224011092230109
:1037C000E2E0E0930D038091240181111DC00E946D
:1037D000B003C0901903D0901A03E0901B03F0903F
:1037E0001C036C197D098E099F09643F7140810596
:1037F000910550F01093240169EA71E087E493E0A9
:103800000E94120E1093230180910D03843028F042
:1038100010920D0324E02093250380E090E0892B93
:1038200009F4D3CD0E940000D0CD8FE093E00E9438
:10383000500C80910F0390911003843691050CF089
:103840009ACF80910E03882309F495CF80910D03C0
:103850008F5F80930D0310920E038DCF0E94B50CE5
:103860000E94110F8FE093E00E94500C80910F0393
:10387000909110038835924064F010930C0380916E
:103880000B03823050F210920B03B4E0B093250387
:10389000C4CF8FE093E00E94500C80910F03909171
:1038A0001003873991055CF780910C03882339F365
:1038B00080910B038F5F80930B0367EB71E087E4CC
:1038C00093E00E94120E6EEB71E087E493E00E9499
:1038D000B70D40910B0350E070E060E02AE087E410
:1038E00093E00E94C60D61E971E087E493E00E94D5
:1038F000B70D10920C03C3CF0E94110F80910303E8
:1039000081110CC00E94B0036093FF02709300030A
:103910008093010390930203109303038FE093E0DD
:103920000E94500C80910F039091100388359240B3
:10393000D4F00E94B0036093FF0270930003809361
:1039400001039093020386E990E00E94F0068CE95F
:103950009FEF0E94CA0664EC71E087E493E00E9446
:10396000120E1093FE020E94B003C090FF02D0908E
:103970000003E0900103F09002036C197D098E09A9
:103980009F096E3571408105910520F08091FE02FE
:1039900081110FC00E94B0036C197D098E099F0927
:1039A0006E3571408105910508F437CF0E94B50C42
:1039B00034CF84E0809325031092FE022ECF8091B5
:1039C000F60281110CC00E94B0036093F202709362
:1039D000F3028093F4029093F5021093F6020E9492
:1039E000B50C0E94110F80912201882361F00E9482
:1039F000B0036093F2027093F3028093F402909309
:103A0000F502109222010E94B003E091F102C090F1
:103A1000F202D090F302E090F402F090F5026C19FB
:103A20007D098E099F096C3271408105910570F006
:103A3000EF5FE093F10210932201F0E0EE0FFF1F21
:103A4000EB54FD4F808180932503E7CE10935F04F4
:103A5000BAE0B09360044E2F50E070E060E02AE0DE
:103A600083EA93E00E94C60DD8CE0E94B50C0E9456
:103A7000110F26CE89E891E090938C0480938B04FB
:103A80008091950490919604009711F00E9408216E
:103A900080918F0490919004009711F00E9408216A
:103AA0008091930490919404009711F00E94082152
:103AB00080918D0490918E04009711F00E9408214E
:103AC0008091910490919204009711F00C94082138
:103AD0000895F999FECF92BD81BDF89A992780B5D6
:103AE0000895262FF999FECF1FBA92BD81BD20BD42
:103AF0000FB6F894FA9AF99A0FBE019608955058A5
:103B0000BB27AA270E94971D0C94E81E0E94DA1E6C
:103B100038F00E94E11E20F039F49F3F19F426F49A
:103B20000C94D71E0EF4E095E7FB0C94D11EE92F00
:103B30000E94F91E58F3BA176207730784079507A6
:103B400020F079F4A6F50C941B1F0EF4E0950B2ED3
:103B5000BA2FA02D0B01B90190010C01CA01A001DF
:103B60001124FF27591B99F0593F50F4503E68F13A
:103B70001A16F040A22F232F342F4427585FF3CF7B
:103B8000469537952795A795F0405395C9F77EF44C
:103B90001F16BA0B620B730B840BBAF09150A1F095
:103BA000FF0FBB1F661F771F881FC2F70EC0BA0F1B
:103BB000621F731F841F48F4879577956795B795A3
:103BC000F7959E3F08F0B0CF9395880F08F099279E
:103BD000EE0F9795879508950E94001E0C94E81E9D
:103BE0000E94E11E58F00E94DA1E40F029F45F3F67
:103BF00029F00C94D11E51110C941C1F0C94D71E4B
:103C00000E94F91E68F39923B1F3552391F3951B94
:103C1000550BBB27AA2762177307840738F09F5FED
:103C20005F4F220F331F441FAA1FA9F335D00E2E5A
:103C30003AF0E0E832D091505040E695001CCAF7C7
:103C40002BD0FE2F29D0660F771F881FBB1F26178A
:103C500037074807AB07B0E809F0BB0B802DBF0161
:103C6000FF2793585F4F3AF09E3F510578F00C9430
:103C7000D11E0C941C1F5F3FE4F3983ED4F386954D
:103C800077956795B795F7959F5FC9F7880F911D51
:103C90009695879597F90895E1E0660F771F881F3D
:103CA000BB1F621773078407BA0720F0621B730BF0
:103CB000840BBA0BEE1F88F7E09508950E94651EED
:103CC0006894B1110C941C1F08950E94011F88F084
:103CD0009F5798F0B92F9927B751B0F0E1F0660FD0
:103CE000771F881F991F1AF0BA95C9F714C0B13011
:103CF00091F00E941B1FB1E008950C941B1F672FC9
:103D0000782F8827B85F39F0B93FCCF3869577953F
:103D10006795B395D9F73EF4909580957095619528
:103D20007F4F8F4F9F4F0895E89409C097FB3EF453
:103D300090958095709561957F4F8F4F9F4F9923F8
:103D4000A9F0F92F96E9BB279395F6958795779576
:103D50006795B795F111F8CFFAF4BB0F11F460FF36
:103D60001BC06F5F7F4F8F4F9F4F16C0882311F08E
:103D700096E911C0772321F09EE8872F762F05C0A2
:103D8000662371F096E8862F70E060E02AF09A953D
:103D9000660F771F881FDAF7880F9695879597F932
:103DA000089597F99F6780E870E060E008959FEFBD
:103DB00080EC089500240A941616170618060906C2
:103DC000089500240A941216130614060506089591
:103DD000092E0394000C11F4882352F0BB0F40F419
:103DE000BF2B11F460FF04C06F5F7F4F8F4F9F4F59
:103DF000089557FD9058440F551F59F05F3F71F0DB
:103E00004795880F97FB991F61F09F3F79F0879541
:103E10000895121613061406551FF2CF4695F1DFCA
:103E200008C0161617061806991FF1CF869571055A
:103E3000610508940895E894BB2766277727CB018E
:103E400097F908950E94941F08F48FEF08950E9437
:103E50003A1F0C94E81E0E94DA1E38F00E94E11E00
:103E600020F0952311F00C94D11E0C94D71E112430
:103E70000C941C1F0E94F91E70F3959FC1F3950FBF
:103E800050E0551F629FF001729FBB27F00DB11DDE
:103E9000639FAA27F00DB11DAA1F649F6627B00D6E
:103EA000A11D661F829F2227B00DA11D621F739F57
:103EB000B00DA11D621F839FA00D611D221F749F65
:103EC0003327A00D611D231F849F600D211D822FAC
:103ED000762F6A2F11249F5750409AF0F1F08823D3
:103EE0004AF0EE0FFF1FBB1F661F771F881F915000
:103EF0005040A9F79E3F510580F00C94D11E0C94C0
:103F00001C1F5F3FE4F3983ED4F386957795679541
:103F1000B795F795E7959F5FC1F7FE2B880F911D29
:103F20009695879597F90895990F0008550FAA0B54
:103F3000E0E8FEEF16161706E807F907C0F01216BC
:103F40001306E407F50798F0621B730B840B950BBF
:103F500039F40A2661F0232B242B252B21F4089514
:103F60000A2609F4A140A6958FEF811D811D0895B1
:103F7000DB018F939F930E946120BF91AF91A29F1D
:103F8000800D911DA39F900DB29F900D1124089557
:103F9000991B79E004C0991F961708F0961B881F9B
:103FA0007A95C9F780950895AA1BBB1B51E107C0FC
:103FB000AA1FBB1FA617B70710F0A61BB70B881FB9
:103FC000991F5A95A9F780959095BC01CD01089548
:103FD00097FB072E16F4009407D077FD09D00E94B6
:103FE000D41F07FC05D03EF4909581959F4F08950E
:103FF000709561957F4F0895A1E21A2EAA1BBB1BF5
:10400000FD010DC0AA1FBB1FEE1FFF1FA217B307A4
:10401000E407F50720F0A21BB30BE40BF50B661FBA
:10402000771F881F991F1A9469F76095709580957E
:1040300090959B01AC01BD01CF010895052E97FB22
:104040001EF400940E94352057FD07D00E94FC1FEB
:1040500007FC03D04EF40C943520509540953095D4
:1040600021953F4F4F4F5F4F0895909580957095E4
:1040700061957F4F8F4F9F4F0895EE0FFF1F059063
:10408000F491E02D09940E944B20332312F48A1BF3
:104090009B0B0C945C20A29FB001B39FC001A39F17
:1040A000700D811D1124911DB29F700D811D112471
:1040B000911D08950E944B20B7FF0895821B930B1A
:1040C00008950E944B20A59F900DB49F900DA49F32
:1040D000800D911D112408950F931F93CF93DF93AB
:1040E0008230910510F482E090E0E091A704F09115
:1040F000A80430E020E0B0E0A0E0309799F421156A
:10410000310509F44AC0281B390B24303105D8F594
:104110008A819B816115710589F1FB0193838283FB
:10412000FE0111C040815181028113814817590756
:10413000E0F04817590799F4109761F012960C9324
:10414000129713961C933296CF01DF91CF911F9156
:104150000F9108950093A7041093A804F4CF21159C
:10416000310551F04217530738F0A901DB019A01DC
:10417000BD01DF01F801C1CFEF01F9CF9093A80491
:104180008093A704CDCFFE01E20FF31F819391939B
:104190002250310939832883D7CF2091A50430914B
:1041A000A604232B41F4209127013091280130935C
:1041B000A6042093A5042091250130912601211504
:1041C000310541F42DB73EB74091290150912A01A4
:1041D000241B350BE091A504F091A604E217F30728
:1041E000A0F42E1B3F0B2817390778F0AC014E5F67
:1041F0005F4F2417350748F04E0F5F1F5093A604FA
:104200004093A504819391939FCFF0E0E0E09CCF91
:10421000CF93DF930097E9F0FC013297138212826B
:10422000A091A704B091A804ED0130E020E0109720
:10423000A1F420813181820F931F2091A504309138
:10424000A6042817390709F061C0F093A604E0938B
:10425000A504DF91CF910895EA01CE17DF07E8F5B5
:104260004A815B819E0141155105B1F7E901FB834C
:10427000EA8349915991C40FD51FEC17FD0761F4EA
:10428000808191810296840F951FE901998388832B
:10429000828193819B838A83F0E0E0E012968D9186
:1042A0009C9113970097B9F52D913C911197CD01F1
:1042B0000296820F931F2091A5043091A60428171F
:1042C000390739F6309751F51092A8041092A704D7
:1042D000B093A604A093A504BCCFD383C28340812E
:1042E0005181840F951FC817D90761F44E5F5F4F46
:1042F00088819981480F591F518340838A819B810E
:10430000938382832115310509F0B0CFF093A8047F
:10431000E093A7049ECFFD01DC01C0CF138212827F
:10432000D7CF81E090E0F8940C94A621FB01DC014A
:1043300002C001900D9241505040D8F70895DC0121
:1043400001C06D9341505040E0F7089511E0C6ED73
:10435000D1E004C0FE010E943D202196C73DD10757
:06436000C9F7F894FFCF3D
:10436600010F00F401D00704000401FFFFFFFF0066
:10437600E1000000000000F203F203F203F203F290
:1043860003010101010000A9048000121415040CA8
:104396009C01B501CF01EA01070226024702690224
:1043A6008E02B502DE020A0300C180810000000011
:1043B6000000000A0585042B05200571052F054D13
:1043C6000500000000B408A9084D0C7F08A2088F5C
:1043D60008800800000000E50E960F4D0C4C0C00FE
:1043E600000000830700000000B50D000000005823
:1043F6000F0D0A0044697374616E63652064726F01
:1044060076653B20006B6D20007475726E20436FDD
:104416006D706C657465006F6E4C696E6500636FD8
:10442600756E74007472756E696E6720526967687E
:0C44360074004348415247494E470000C3
:00000001FF
