:100000000C94DB000C9403010C9403010C94030189
:100010000C9403010C9403010C9403010C94030150
:100020000C9403010C9403010C94FC0F0C946B10C2
:100030000C9403010C9403010C9403010C94030130
:100040000C9403010C9403010C9403010C94030120
:100050000C9403010C9403010C9403010C94B20F53
:100060000C9403010C9403010C9403010C94030100
:100070000C9403010C9403010C9403010C940301F0
:100080000C9403010C9403010C9403010C940301E0
:100090000C949D120C9403010C9403010C94030125
:1000A0000C9403010C9403010C9403010000000064
:1000B0002300260029002C002F00080B000202025A
:1000C00000000904000001020200000524001001E4
:1000D0000524010101042402060524060001070588
:1000E000810310004009040100020A000000070516
:1000F00002024000000705830240000004030904D7
:1001000012010002EF020140FB1F00230001010267
:100110000301506F6C6F6C7520436F72706F72616A
:1001200074696F6E00506F6C6F6C7520412D537445
:100130006172203332553400000000002400270093
:100140002A002D00300000000000250028002B00B0
:100150002E00310004040404040304050202020218
:100160000403020202020606060606060404020250
:100170000204040408020110408040102040804026
:1001800080080204018040201002011080102040ED
:1001900040200000000200090F0000030401000CD1
:1001A000000000000000000000000000000000004F
:1001B0000000EF13761B11241FBECFEFDAE0DEBF85
:1001C000CDBF12E0A0E0B1E0E6E9FAE302C005909D
:1001D0000D92A63BB107D9F724E0A6EBB2E001C02F
:1001E0001D92A536B207E1F710E0CAEDD0E004C0D9
:1001F0002197FE010E94DE1BC93DD107C9F70E946D
:1002000080140C943E1D0C940000CF93DF93EC01FE
:10021000FA013296E60FF71FDC019D012C1B3D0B06
:10022000CF01861B970B4D91442311F04193F5CFDD
:10023000AC01421B530B640F751FFB0132973083D7
:1002400061507109FB012083DF91CF910895809166
:10025000270490912804009711F480E02FC0DC015E
:10026000ED91FC910688F789E02D099520914A04CB
:1002700030914B0481111FC0232B79F78DEF9FEF35
:1002800090934B0480934A04809127049091280412
:10029000DC01ED91FC910680F781E02D09958091BC
:1002A000270490912804DC01ED91FC910488F589E4
:1002B000E02D0995D2CF81E0232B79F60895FC013A
:1002C0008091A203882311F13FB7F89482E08093D4
:1002D000E9002091F200822F90E01816190614F41C
:1002E00081E090E0882339F0289844E64093A10308
:1002F0004091F1004083222339F02091F200211136
:1003000003C02BE62093E8003FBF08958FEF9FEFD7
:1003100008952FB7F89483E08093E9009091E80066
:10032000892F807295FF04C09091F20080E4891BB0
:100330002FBF08958091990381110DC082E08093B1
:10034000950384E08093960310929803109297038C
:1003500081E08093990385E993E0089581508F307F
:1003600008F047C0E82FF0E0E854FE4F0C94DE1B85
:10037000D501D901C701CD01D101F901F901F90177
:10038000DC01E201E601EA01F001F901F4018091EA
:1003900080008F77809380000895809180008F7D0A
:1003A000F9CF80918000877FF5CF84B58F7784BDAA
:1003B000089584B58F7DFBCF809190008F778093D7
:1003C00090000895809190008F7DF9CF80919000EA
:1003D000877FF5CF8091C0008F778093C00008950C
:1003E0008091C0008F7DF9CF8091C200877F80937C
:1003F000C20008951F93CF93DF93282F30E0F901B7
:10040000EE56FE4F8491F901ED58FE4FD491F9015B
:10041000EC5AFE4FC491CC23A9F0162F81110E94F3
:10042000AE01EC2FF0E0EE0FFF1FEA5BFE4FA5914F
:10043000B4918FB7F894EC91111108C0D095DE23D8
:10044000DC938FBFDF91CF911F910895DE2BF8CF02
:10045000CF93DF9390E0FC01ED58FE4F24918C5A2E
:100460009E4FFC0184918823D1F090E0880F991F62
:10047000FC01E85CFE4FA591B491FC01EA5BFE4FE4
:10048000C591D49161110EC09FB7F8948C91E22F61
:10049000E0958E238C932881E223E8839FBFDF9130
:1004A000CF9108958FB7F894EC91E22BEC938FBF26
:1004B000F6CF3FB7F8948091910390919203A09169
:1004C0009303B091940326B5A89B05C02F3F19F064
:1004D0000196A11DB11D3FBFBA2FA92F982F8827C4
:1004E000BC01CD01620F711D811D911D42E0660F9F
:1004F000771F881F991F4A95D1F708958F929F9271
:10050000AF92BF92CF92DF92EF92FF924B015C01CC
:100510000E9459026B017C010E9459026C197D09ED
:100520008E099F09683E734081059105A8F321E07B
:10053000821A9108A108B10888EEC80E83E0D81E7F
:10054000E11CF11C81149104A104B10429F7FF906E
:10055000EF90DF90CF90BF90AF909F908F900895D5
:100560002FB7F89460918D0370918E0380918F0363
:10057000909190032FBF0895EF92FF920F931F93D6
:10058000CF93DF9300D000D0CDB7DEB7FA0120E0E3
:100590008E010F5F1F4F9E2F9F77EE0FEF2FEE1FE5
:1005A000FF0BF195309709F09068D801A20FB11DAB
:1005B0009C932F5F309779F730E0FB01E21BF30B40
:1005C0008483FB01E21BF30B3596D801CD01801B20
:1005D000910B821793071CF48D918193F7CF2F5FB6
:1005E0003F4F80912704909128048901040F151F23
:1005F000621B730B6B5F7F4FDC01ED91FC910280FE
:10060000F381E02DA80109957C010E94B00260935E
:10061000330470933404809335049093360481E05E
:100620000E151F0509F080E00F900F900F900F90AE
:10063000DF91CF911F910F91FF90EF9008958F92CE
:100640009F92AF92BF92CF92DF92EF92FF92CF93A1
:10065000DF93EC010E94B0024B015C018091270402
:1006600090912804DC01ED91FC910084F185E02D4E
:100670000995892BB9F40E94B0026B017C01C8185E
:10068000D908EA08FB0820912F0430913004A8EE25
:10069000B3E00E94E41BC616D706E806F906F0F29E
:1006A00080E00DC08091270490912804DC01ED9139
:1006B000FC910284F385E02D0995888381E0DF9128
:1006C000CF91FF90EF90DF90CF90BF90AF909F9031
:1006D0008F9008952F923F924F925F926F927F92E8
:1006E0008F929F92AF92BF92CF92DF92EF92FF9242
:1006F0000F931F93CF93DF93CDB7DEB72A970FB633
:10070000F894DEBF0FBECDBF1C01809129049091EB
:100710002A040E941F0381111CC060E070E0CB011D
:100720002A960FB6F894DEBF0FBECDBFDF91CF91F2
:100730001F910F91FF90EF90DF90CF90BF90AF90FF
:100740009F908F907F906F905F904F903F902F90F1
:100750000895E0912904F0912A04D0801982EE24B2
:10076000E394F12C812C912C5401412C512C320119
:100770004394CE0101960E941F03882371F28701E2
:100780000F5F1F4F8981E0912904F0912A04EE0D3B
:10079000FF1D8083E981AE2FAF77B0E0A301920106
:1007A0000E94F31B860E971EA81EB91E37E0440C4C
:1007B000551C661C771C3A95D1F7E7FD3FC0BD2D4F
:1007C000B07FBE838FEF800FF1018083B03309F0DB
:1007D0004CC08091290490912A04800F911F0E949F
:1007E0001F03882309F499CF2091290430912A040A
:1007F000C7010296820F931F0E941F03882309F4EA
:100800008CCF0E5F1F4FE0912904F0912A04D10193
:100810008C91DF01A80FB11D11968C91119790E07A
:10082000982F882712962C91820F911D208121FDEF
:100830000296F2E0E0E030E020E01DC078010530F3
:10084000110509F096CF8FEF9FEF90934B048093A3
:100850004A048091270490912804DC01ED91FC91D9
:100860000488F589E02D099558CFF0E0E0E030E00C
:1008700020E090E080E070E060E0CF2EDE2EE32EFE
:10088000F22E28013B014C185D086E087F084A8251
:100890005B826C827D822C01712C612C4F82588688
:1008A00069867A864A805B806C807D804C0C5D1CFA
:1008B0006E1C7F1CC814D904EA04FB0408F046C06F
:1008C000CE0101960E941F03882309F426CF809150
:1008D000480490914904009711F12E812033F9F4D6
:1008E000D1012C914EEF5FEF6FEF7FEF421B51096B
:1008F00061097109440E551E661E771E2F813885C9
:1009000049855A85241535054605570540F4DC010F
:10091000ED91FC910190F081E02D69810995809124
:100920002B0490912C040817190750F48981E09149
:100930002904F0912A04E00FF11F80830F5F1F4FFD
:10094000BFEFCB1ADB0AEB0AFB0AACCF809148045D
:1009500090914904892B69F480912B0490912C0487
:10096000B0E0A0E084159505A605B70510F410E0E9
:1009700000E0B80190E080E0D3CE809186039091B2
:100980008503891B990B0895089508954091FE02EF
:100990005091FF022091FC023091FD024217530753
:1009A000B4F49091E8009570E1F39091E80092FD25
:1009B00019C08093F1008091FE029091FF02019690
:1009C0008F739927892B19F48EEF8093E80080911B
:1009D000FE029091FF0201969093FF028093FE0227
:1009E00081E0089580E00895DF92EF92FF920F93E7
:1009F0001F93CF93DF93D82E8A01EB017B01E40E86
:100A0000F51ECE15DF0559F0D7FE12C0FE01849108
:100A10000E94C60421968111F4CF0FEF1FEFC80189
:100A2000DF91CF911F910F91FF90EF90DF9008958C
:100A30008881EECF0F931F93CF93DF931F92CDB793
:100A4000DEB782E0898342E450E06AEB70E080E840
:100A50000E94F4040E949A01DC0112960D911C91EF
:100A60000115110589F0D801ED91FC910280F38107
:100A7000E02DBE016F5F7F4FC801099597FD04C04F
:100A8000F80100851185ECCF89810F90DF91CF911E
:100A90001F910F910895615030F02091F100FC01F9
:100AA00020830196F8CF289884E68093A1030895C7
:100AB0008F929F92AF92BF92CF92DF92EF92FF926E
:100AC0000F931F93CF93DF936C017B018A01809179
:100AD0001301882309F45CC08091A203882309F4E0
:100AE00057C08091020380FF05C08091E0008260C2
:100AF0008093E000E801B12C8AEFA82E93E0892EC4
:100B00002AE3922E209711F4BB20D9F10E9489018B
:100B100081110AC0AA94AA20D9F161E070E080E0B6
:100B200090E00E947E02EECF8C171D0611F00CF0B3
:100B30008C2F9FB7F8948092E9002091E80025FD62
:100B400002C09FBFDFCF282F30E0C21BD30BF701BD
:100B5000815020F041914093F100FACFE20EF31E54
:100B6000BB2021F09092E800B12CEBCF8091E800FF
:100B700085FDE7CF9092E800BB24B394209709F35A
:100B8000F3CF5D9884E680930103101611063CF0C4
:100B900081E090E0F6019383828310E000E0C801D9
:100BA000DF91CF911F910F91FF90EF90DF90CF9049
:100BB000BF90AF909F908F900895CF93DF931F9237
:100BC000CDB7DEB76983DC01ED91FC910280F38142
:100BD000E02D41E050E0BE016F5F7F4F09950F901F
:100BE000DF91CF91089583E08093E9008091F20036
:100BF000882319F08AE38093E80008950E94890110
:100C000090E00895CF93DF931F92CDB7DEB7FC013C
:100C10008485958597FD08C02FEF3FEF35872487A2
:100C20000F90DF91CF910895CE0101960E945F0150
:100C3000019719F4898190E0F3CF8FEF9FEFF0CF08
:100C40000F931F93CF93DF931F92CDB7DEB78C0125
:100C5000FC018485958597FF0BC0CE0101960E940B
:100C60005F01019771F4898190E0F801958784878D
:100C7000F801848595850F90DF91CF911F910F9199
:100C800008958FEF9FEFF1CFFC018485958597FD47
:100C90000BC09FB7F89482E08093E9008091F20046
:100CA0009FBF90E0019608959FB7F89482E08093EB
:100CB000E9008091F2009FBF90E00895EF92FF92CB
:100CC0000F931F93CF93DF93EC018B017A010E9466
:100CD000B002688B798B8A8B9B8B8C819D81DC0128
:100CE000ED91FC910280F381E02DA701B801DF9125
:100CF000CF911F910F91FF90EF9009941F93CF9385
:100D0000DF93EC01162F0E94B002688B798B8A8BDF
:100D10009B8B8C819D81DC01ED91FC910190F08198
:100D2000E02D612FDF91CF911F910994CF92DF9237
:100D3000EF92FF920F931F93CF93DF93C9E9D1E016
:100D40000AE711E09BE5E92E91E0F92EFE0184917E
:100D5000F801C490F701D490DD2071F081110E9458
:100D6000AE01ED2DF0E0EE0FFF1FE455FF4FA59112
:100D7000B4918C91C82251F7DF91CF911F910F91BF
:100D8000FF90EF90DF90CF900895CF93DF931F9265
:100D9000CDB7DEB7898389818EBD00000DB407FE13
:100DA000FDCF8EB52AE030E0000021503109E1F797
:100DB0000F90DF91CF910895CF93DF93D82FC62F57
:100DC00080EE0E94C50683E290E00197F1F78D2F37
:100DD0000E94C5068C2F0E94C506C11105C08EEE6B
:100DE000DF91CF910C94C506DF91CF910895DF92EA
:100DF000EF92FF920F931F93CF93DF93D82EE92E9C
:100E00008B01F42E812F0E94C506802F0E94C506FB
:100E1000CD2DDE2D0C0F1D1FC017D10721F089919C
:100E20000E94C506F9CF81E0F8120AC08EEEDF916C
:100E3000CF911F910F91FF90EF90DF900C94C5061A
:100E4000DF91CF911F910F91FF90EF90DF90089568
:100E5000DF92EF92FF920F931F93CF93DF937C016A
:100E6000C62FD42E862F0E94C5068701D0E0C80168
:100E70008E199F098C179D0734F4F80181918F0119
:100E80000E94C506F4CFF1E0DF120AC08EEEDF91BA
:100E9000CF911F910F91FF90EF90DF900C94C506BA
:100EA000DF91CF911F910F91FF90EF90DF90089508
:100EB000CF93DF93EC018FEF0E94C50688838AE011
:100EC00090E000000197E9F7DF91CF910895CF936B
:100ED000DF931F92CDB7DEB71982CE0101960E9433
:100EE000580789810F90DF91CF910895CF93DF93B9
:100EF000C9EED3E00E9467078F3E69F0219711F099
:100F0000803EC1F721E090E0803E09F020E0822F92
:100F1000DF91CF9108958FEF9FEFFACFCF92DF92BD
:100F2000EF92FF920F931F93CF93DF931F92CDB752
:100F3000DEB7182F6B017A0119820E947607892B80
:100F400061F490E080E00F90DF91CF911F910F91BD
:100F5000FF90EF90DF90CF900895CE0101960E9410
:100F60005807106889811813ECCFCE0101960E94B2
:100F700058078981813029F78FEF0E94C506F70154
:100F8000808310E000E0F70180818017110649F0AE
:100F900044F0C601800F911F0E9458070F5F1F4F3A
:100FA000F2CFCE0101960E94580781E090E0CBCFAE
:100FB000CF92DF92EF92FF920F931F93CF93DF9325
:100FC0001F92CDB7DEB7182F7B016A0119820E94EC
:100FD0007607892B61F490E080E00F90DF91CF914C
:100FE0001F910F91FF90EF90DF90CF900895CE0169
:100FF00001960E945807106889811813ECCF0E944F
:1010000067078823B1F08FEF0E94C506F601808341
:101010008701F6012081C8018E199F09281719063A
:1010200041F03CF08FEF0E94C506F80181938F01DB
:10103000F0CFCE0101960E94580781E090E0CDCF1D
:1010400061E08AE00C94FA0160E08AE00C94FA0115
:10105000CF93CFB7F8948091FB02811127C0E5E6CA
:10106000F1E08491E4E8F1E09491E82FF0E0EE0FF4
:10107000FF1FE85CFE4FA591B491EC91E92321F4A8
:1010800061E081E10E94FA0161E081E10E942802B1
:101090008CB580618CBD8CB580648CBD61E08FE0C7
:1010A0000E94280261E080E10E9428028091FB02F8
:1010B0008F5F8093FB02CFBF61E08AE00E9428022D
:1010C00060E087E00E94280261E089E00E94280237
:1010D00061E081E10E94FA0161E08AE00E94FA0188
:1010E00060E089E0CF910C94FA01CF93DF9300D0B8
:1010F000CDB7DEB780910803811105C00E94280892
:1011000081E0809308030E9496060E94240860E014
:1011100080E20E94DC060E9496068FEF89831A8285
:10112000AE014E5F5F4FBE016F5F7F4F80E20E9456
:101130008E070E94200889810F900F90DF91CF9138
:101140000895FF920F931F93CF93DF9300D01F92C8
:10115000CDB7DEB78B838B01F42E8091FA0281111B
:1011600005C00E94280881E08093FA020E9496063A
:101170000E94240862E08CE20E94DC0640E061E00C
:10118000CE0103960E94280782E00E94C50680E0F7
:101190000E94C5068F2D0E94C5068EEE0E94C506D0
:1011A0000E94960619821A82AE014E5F5F4FBE0101
:1011B0006F5F7F4F8CE20E94D8070E9420088A81CF
:1011C000882369F08981F801808381E00F900F9076
:1011D0000F90DF91CF911F910F91FF90089580E0C4
:1011E000F5CFCF93DF9300D01F92CDB7DEB78B83BF
:1011F0008091FA02811105C00E94280881E0809345
:10120000FA020E9496060E94240861E08FE20E9482
:10121000DC0641E061E0CE0103960E9428070E94AF
:10122000960619821A82AE014E5F5F4FBE016F5F54
:101230007F4F8FE20E948E070E94200889810F90C5
:101240000F900F90DF91CF910895089521E0FC0158
:1012500084858F3F09F420E0822F0895FC01848566
:101260008F3F71F00E94F108843038F09BEF980FA7
:10127000933018F091E08A3009F490E0892F0895B6
:1012800080E00895EF92FF920F931F93CF93DF9327
:1012900000D01F92CDB7DEB7FC0194859F3F09F4C3
:1012A0004EC08F019B838091FA02811105C00E947C
:1012B000280881E08093FA020E9496060E94240882
:1012C00061E08EE20E94DC0641E061E0CE0103961F
:1012D0000E9428070E9496061A821982AE014F5F6B
:1012E0005F4FBE016E5F7F4F8EE20E948E070E94AD
:1012F0002008D8011C96EC91F0E0EE0FFF1FE050A3
:10130000FF4F8FEF9FEF9183808392E3E92EF12CC3
:10131000F80184858F3F79F00E94F108882359F005
:10132000F1E0EF1AF10839F064E670E080E090E057
:101330000E947E02EDCF8FEFD8011C968C930F9008
:101340000F900F90DF91CF911F910F91FF90EF9031
:10135000089508950F931F93CF93DF931F92CDB7F6
:10136000DEB78C01DC01ED91FC910084F185E02D6C
:101370000995892B81F041E0BE016F5F7F4FF80135
:1013800084850E94A108898190E00F90DF91CF9120
:101390001F910F9108958FEF9FEFF7CFCF92DF92BC
:1013A000EF92FF920F931F93CF93DF9300D0CDB7AF
:1013B000DEB76B017A01FC0184858A838091FA0291
:1013C000811105C00E94280881E08093FA020E94E2
:1013D00096060E94240861E085E40E94DC0641E054
:1013E00061E070E0CE0102960E94F7060E94960628
:1013F00019820E947607892B29F1CE0101960E945D
:1014000058078981853CF1F40E9467078823B1F071
:101410008FEF0E94C506E82E8FEF0E94C506FE2CB6
:10142000E82E8601CE0CDF1CC016D10639F08FEFF6
:101430000E94C506F80181938F01F6CFCE01019677
:101440000E9458070E94200881E090E0EF2811F0E8
:1014500090E080E09195819591090F900F90DF9138
:10146000CF911F910F91FF90EF90DF90CF90089553
:101470000F931F93CF93DF931F92CDB7DEB78C01ED
:10148000DC01ED91FC910084F185E02D0995892B1B
:1014900081F040E0BE016F5F7F4FF80184850E94BC
:1014A000A108898190E00F90DF91CF911F910F915A
:1014B00008958FEF9FEFF7CFCF93DF9300D000D049
:1014C000CDB7DEB7FC0184858F3F89F18C83809195
:1014D000FA02811105C00E94280881E08093FA0277
:1014E0000E9496060E94240861E08BE20E94DC06BE
:1014F00041E061E0CE0104960E9428070E94960612
:101500001B821A821982AE014D5F5F4FBE016F5F71
:101510007F4F8BE20E948E070E94200889819A816A
:101520000F900F900F900F90DF91CF91089590E062
:1015300080E0F6CFBF92CF92DF92EF92FF920F93AF
:101540001F93CF93DF9300D000D0CDB7DEB76C01EF
:101550008B017A01FC0184858430B0F081E090E059
:10156000F60193838283F12CE12CC7010F900F9039
:101570000F900F90DF91CF911F910F91FF90EF90FF
:10158000DF90CF90BF900895452B41F38C838091DD
:10159000FA02811105C00E94280881E08093FA02B6
:1015A0000E9496060E94240862E084E40E94DC0601
:1015B00040E061E070E0CE0104960E94F70641E051
:1015C000B701C8010E94F7060E9496061A82198286
:1015D000AE014F5F5F4FBE016E5F7F4F84E40E949C
:1015E000D8070E9420088981882309F4B7CF8A810F
:1015F000813009F0B3CFF60184858B831A8219827A
:1016000010E000E0BB24B3948091FA02811104C081
:101610000E942808B092FA020E9496060E942408AE
:1016200061E08AE20E94DC0641E061E0CE010396BF
:101630000E9428070E949606AE014F5F5F4FBE01D1
:101640006E5F7F4F8AE20E948E070E9420088A8187
:10165000811113C00F5F1F4F64E670E080E090E0DF
:101660000E947E028A81811103C00931110560F256
:101670000931110509F472CF78CF10E000E0F2CF04
:10168000CF93DF931F92CDB7DEB76983DC01ED9175
:10169000FC910280F381E02D41E050E0BE016F5FDC
:1016A0007F4F09950F90DF91CF9108952091D70238
:1016B000260F3327331F21323105ECF420915F03CD
:1016C000FC0190E080E0243069F082E00895A09170
:1016D000D7022191AC0149545D4FA40FB52FB11D24
:1016E0002C930196861798F38091D702680F609328
:1016F000D70280E0089581E0089510925F0381E0B1
:1017000080935E031092590361E082E00E94FA0127
:1017100061E083E00E94FA01E9EBF0E080818E7FD6
:10172000808380818D7F808388E48093B80085E406
:101730008093BC000895CF93DF9391E09093B6021D
:101740008823B9F0C091B800D091BA008091BC0054
:101750008A7B8093BC0060E082E00E94FA0160E036
:1017600083E00E94FA010E947D0BD093BA00C093DF
:10177000B800DF91CF910895E091850380918603B1
:10178000E81730F4F0E0EB59FC4F808190E00895C9
:101790008FEF9FEF089590918503809186032FEF3F
:1017A0003FEF981748F4E92FF0E0EB59FC4F208108
:1017B00030E09F5F90938503C9010895CF92DF9237
:1017C000EF92FF920F931F93CF93DF937C01CB0196
:1017D0008A0120911503222389F0EB016B01C40ECD
:1017E000D51ECC15DD0569F06991D701ED91FC910D
:1017F0000190F081E02DC7010995F3CF642F0E947D
:10180000560BC801DF91CF911F910F91FF90EF9080
:10181000DF90CF900895CF93DF931F92CDB7DEB7BF
:101820006983209115032223F9F020913803203297
:1018300058F021E030E0FC013383228390E080E027
:101840000F90DF91CF91089580911603E82FF0E07B
:10185000E95EFC4F998190838F5F8093160380939C
:10186000380381E090E0ECCF61E0CE0101960E9468
:10187000560BF7CF90E080E00895CF93DF93C091AF
:101880002B04D0912C04BE018CE791E00E947C1BBC
:101890000996C817D907E0F10E9427018823C1F1F2
:1018A0008091310490913204019679F19093320441
:1018B00080933104E0912904F0912A04809132044C
:1018C0008583E0912904F0912A0480913104868374
:1018D0006091290470912A0447E050E08CE791E080
:1018E0000E940501E0912904F0912A04E80FF91FF4
:1018F0001082AC01445051096091290470912A046E
:1019000082E8DF91CF910C94BC0281E090E0CECFD1
:1019100080E0DF91CF910895FB0101900020E9F76D
:101920003197AF01461B570BDC01ED91FC91028012
:10193000F381E02D09948F929F92AF92BF92EF9224
:10194000FF920F931F93CF93DF93CDB7DEB7A1978D
:101950000FB6F894DEBF0FBECDBF7C01FA01CB01FC
:1019600019A2223008F42AE08E010F5D1F4F822E4B
:10197000912CB12CA12CBF01A50194010E94BC1B8C
:10198000F901CA016A300CF5605DD8016E938D01D2
:10199000232B242B252B79F790E080E0109721F062
:1019A000BD01C7010E948C0CA1960FB6F894DEBF52
:1019B0000FBECDBFDF91CF911F910F91FF90EF90A0
:1019C000BF90AF909F908F900895695CDECFCF92CB
:1019D000DF92EF92FF92CF93DF93AB01BC0177FFD1
:1019E0001DC06A017C016DE283EA93E00E94DD057F
:1019F000EC0144275527BA014C195D096E097F098E
:101A00002AE083EA93E00E949B0C8C0F9D1FDF91DC
:101A1000CF91FF90EF90DF90CF9008952AE083EA76
:101A200093E0DF91CF91FF90EF90DF90CF900C94F7
:101A30009B0C8F929F92AF92BF92CF92DF92EF92C8
:101A4000FF920F931F93CF93DF937C01EB016C0107
:101A500082E0C80ED11C4701E5E08E0E911C10E01B
:101A600000E0F60141916F0150E070E060E02AE093
:101A7000CE010E949B0C5C01E881F9810190F0810C
:101A8000E02D6EE2CE0109958A0D9B1D080F191FEE
:101A9000C814D90431F7F701458150E070E060E0E7
:101AA0002AE0CE010E949B0C800F911FDF91CF9105
:101AB0001F910F91FF90EF90DF90CF90BF90AF906C
:101AC0009F908F900895009729F0BC0183EA93E0DE
:101AD0000C948C0C90E080E008950F931F93CF93AB
:101AE000DF938C01D0E0C0E06115710519F00E9410
:101AF0008C0CEC0165E871E0C8010E948C0C8C0F25
:101B00009D1FDF91CF911F910F910895CF92DF928A
:101B1000EF92FF920F931F93CF93DF93CDB7DEB772
:101B200028970FB6F894DEBF0FBECDBF8C01F42E00
:101B3000E52EE0E0F1E090E080E0219131912F3F4F
:101B40003F4F29F0019684309105B9F78FEFD80106
:101B50001C968C938F3F09F48EC0FB014281538108
:101B60006481758149835A836B837C8388871D8256
:101B70008091FA02811105C00E94280881E08093BB
:101B8000FA020E9496060E94240864E08DE20E94F8
:101B9000DC0640E064E0CE0101960E94280782E066
:101BA0000E94C5068E2D0E94C5068F2D0E94C50677
:101BB00040E061E0CE0108960E94280741E061E024
:101BC000CE0105960E9428070E9496061F821E825B
:101BD000AE014A5F5F4FBE01695F7F4F8DE20E9499
:101BE0008E070E942008D8011C968C9190E0FC0181
:101BF000EE0FFF1FE050FF4F918380830E94B002E1
:101C00006B017C01D801ED91FC910688F789E02DEC
:101C1000C8010995811112C00E94B0026C197D099A
:101C20008E099F09603177428105910538F461E0A2
:101C300070E080E090E00E947E02E4CFD801ED9158
:101C4000FC910688F789E02DC801099521E090E014
:101C5000811101C020E0822F28960FB6F894DEBFD4
:101C60000FBECDBFDF91CF911F910F91FF90EF90ED
:101C7000DF90CF90089568E871E083EA93E00E94D6
:101C80006D0D80E090E0E8CF9F92AF92BF92CF922F
:101C9000DF92EF92FF920F931F93CF93DF93CDB715
:101CA000DEB75C01F62EE72E8A01CDB6DEB68CE9F2
:101CB00091E00E94630DC5010E94630D85EB91E0E8
:101CC0000E94630DC80101962DB73EB7281B390B42
:101CD0000FB6F8943EBF0FBE2DBF4DB75EB74F5F36
:101CE0005F4FC801FA0197FF0FC080918B03EF2D62
:101CF000FE2D7A019F01200F311FDA01E217F30751
:101D000031F091919D93FACF11920197ECCF800F12
:101D100080938B03040F151FF80110828BE8A82E07
:101D200083E0B82EE016F10699F0F70191907F015B
:101D3000692D092C000C770B60537109072E000CDC
:101D4000880B990B0E94E70CF50191925F01EACF95
:101D500065E871E083EA93E00E948C0C0FB6F8947A
:101D6000DEBE0FBECDBEDF91CF911F910F91FF90D0
:101D7000EF90DF90CF90BF90AF909F9008953F92EB
:101D80004F925F926F927F928F929F92AF92BF928B
:101D9000CF92DF92EF92FF920F931F93CF93DF9337
:101DA000CDB7DEB72B970FB6F894DEBF0FBECDBF11
:101DB0007C018B016A0180910803811105C00E949A
:101DC000280881E0809308030E9496060E94240858
:101DD00061E084E30E94DC06F80101900020E9F74D
:101DE0003197BF01601B710B41E0C8010E942807B9
:101DF0000E9496061F821982AE014F5F5F4FBE019F
:101E0000695F7F4F84E30E948E07182F0E9420088D
:101E100011111AC090E080E02B960FB6F894DEBF47
:101E20000FBECDBFDF91CF911F910F91FF90EF902B
:101E3000DF90CF90BF90AF909F908F907F906F90EA
:101E40005F904F903F9008950AE01FEF3324339442
:101E50001B831C831D831E8380910803811104C092
:101E60000E942808309208030E9496060E942408C7
:101E700060E085E30E94DC060E9496061B86AE01A8
:101E8000455F5F4FBE01695F7F4F85E30E948E070C
:101E9000892B61F40E942008015009F4BBCF68EE41
:101EA00073E080E090E00E947E02D2CF4F805884A1
:101EB00069847A848B809C80AD80BE800E942008DB
:101EC00084149504A604B70439F3D701ED91FC916D
:101ED0000684F785E02D8AE791E09A8389834B8217
:101EE0005C826D827E82A601BE016F5F7F4FC7015B
:101EF000099592CF85ED8093BC008091610390910C
:101F00006203A0916303B09164030796A11DB11D04
:101F100023E0B695A795979587952A95D1F72091B7
:101F2000BC0024FD03C010925F030895409161033B
:101F3000509162036091630370916403452B462BBB
:101F4000472B69F30097A105B10541F02AE22A95D4
:101F5000F1F700C00197A109B109E1CF80916003B9
:101F60000C949B0B1F920F920FB60F9211242F937C
:101F70003F938F939F93AF93BF9380918D039091E5
:101F80008E03A0918F03B091900330918C0323E0D6
:101F9000230F2D3758F50196A11DB11D20938C03F9
:101FA00080938D0390938E03A0938F03B09390033F
:101FB0008091910390919203A0919303B091940327
:101FC0000196A11DB11D8093910390939203A0935C
:101FD0009303B0939403BF91AF919F918F913F91E1
:101FE0002F910F900FBE0F901F90189526E8230F8A
:101FF0000296A11DB11DD2CF1F920F920FB60F9264
:1020000011248F939F938091E1009091E100937F41
:102010009093E10083FF0FC01092E90091E090934C
:10202000EB001092EC0092E39093ED001092A2036B
:1020300098E09093F00082FF22C093E09093E90033
:102040009091F200992319F09AE39093E80090910F
:102050000103992341F09091010391509093010362
:10206000911101C05D9A9091A103992341F0909143
:10207000A10391509093A103911101C0289A84FF6C
:1020800018C08091E2008E7E81608093E200809192
:10209000E1008F7E8093E100809102038E7E80615B
:1020A000809302039F918F910F900FBE0F901F900E
:1020B000189580FFF7CF8091E2008E7E806180933B
:1020C000E2008091E1008E7E8093E1008091020326
:1020D0008E7E8160E5CF1F920F920FB60F92112472
:1020E000CF92DF92EF92FF920F931F932F933F9324
:1020F0004F935F936F937F938F939F93AF93BF9310
:10210000EF93FF93CF93DF93CDB7DEB76C97DEBF2E
:10211000CDBF1092E9008091E80083FF25C068E000
:10212000CE0145960E944B0582EF8093E8008D8991
:1021300087FF39C09091E80090FFFCCF982F9076F0
:1021400009F034C19E894F89588D2F89F88C9111DF
:1021500031C0803861F5809103038093F1001092C3
:10216000F1008EEF8093E8006C960FB6F894DEBF16
:102170000FBECDBFDF91CF91FF91EF91BF91AF9196
:102180009F918F917F916F915F914F913F912F918F
:102190001F910F91FF90EF90DF90CF900F900FBEA7
:1021A0000F901F9018959EEF9093E800C7CF109264
:1021B000F100D5CF913059F48111D3CF4130510581
:1021C00081F6809103038D7F80930303CACF933000
:1021D00049F48111C6CF4130510519F680910303AE
:1021E0008260F2CF953041F48091E80080FFFCCF0F
:1021F00020682093E300B5CF963009F0A9C00B8D7D
:102200001C8D22E01092E9001092FF021092FE0253
:10221000F2122EC01092FD021092FC020E941A05CA
:102220001F8299E09983FA8291E09E8390EA9887D1
:102230009AEF99872091FE023091FF02275F3F4F6E
:102240003C832B838D831092E9001092FF02109241
:10225000FE021093FD020093FC0249E050E0BE0133
:102260006F5F7F4F80E00E94F4040E941A0579CFCF
:102270001093FD020093FC020E949A01DC01129669
:102280000D911C910115110509F451C1D801ED9171
:10229000FC910480F581E02DBE016B5E7F4FC8018B
:1022A0000995009709F03EC1F80100851185EACF34
:1022B000F3E0FF120EC08F89882309F440C08230FA
:1022C00061F440E862E185E291E00E94BC13811173
:1022D00048CF81E28093EB0047CF813029F440E87A
:1022E00062E182E191E0F1CF833099F70E949A0197
:1022F000DC011296ED90FC908E010F5F1F4F68017C
:10230000E114F10479F0D701ED91FC910680F78199
:10231000E02DB801C7010995080F111DF701E084F0
:10232000F184EECFD8011C92F60101900020E9F76C
:102330003197BF016C197D0940E0C601C6CF6CEF33
:1023400070E0FB01449150E080E80E94F40409CF62
:10235000973009F4BECF983021F481E08093F100EA
:1023600000CF993009F0FDCE837009F0B2CFE2E2E0
:10237000F1E081E031E096E32191222371F0809336
:10238000E9003093EB00DF0111972C912093EC00D2
:102390009093ED008F5F873079F78EE78093EA00A6
:1023A0001092EA008F898093A203DBCE8B8D9C8DE7
:1023B0001092E9001092FF021092FE029093FD022B
:1023C0008093FC02898D811192C08E899D89913AFA
:1023D00049F4813209F07DCF47E050E06CE071E0D4
:1023E00080E0B3CF913209F074CF833269F48F89E2
:1023F000988DB0E0A0E08093080190930901A0932C
:102400000A01B0930B01ADCE803269F48091E800EF
:1024100082FFFCCF67E08CE091E00E944B058BEFE0
:102420008093E8009ECE823209F09BCE8F89809304
:102430001301EEEFFFE7859194918B3F9C4D51F195
:10244000E0E0F8E080910C0190910D01A0910E0167
:10245000B0910F01803B9440A105B105F1F480914A
:10246000130180FD1AC0EE3F8AE0F80789F587E77F
:1024700097E791838083809160008093000388E1D7
:102480009BE00FB6F894A895809360000FBE9093E0
:10249000600067CEEEEFFAE0D5CF8081918187377B
:1024A000974709F05ECEA89580916000886180937F
:1024B00060008091000380936000EE3F2AE0F20705
:1024C00089F08091FE0A9091FF0A9183808349CE22
:1024D000808191818737980751F29093FF0A80930A
:1024E000FE0AC5CF1092FF0A1092FE0A3ACE0E9451
:1024F0009A01DC0112960D911C910115110509F448
:10250000E8CED801ED91FC910190F081E02DBE0163
:102510006B5E7F4FC8010995811123CEF8010085BC
:102520001185EBCF181619060CF41BCED2CEF1E0B4
:10253000FF12BECE60E071E004CF1F920F920FB683
:102540000F9211242F933F934F935F936F937F9339
:102550008F939F93AF93BF93EF93FF938091B900B5
:10256000887F803609F44AC0F0F5883209F4A7C0A4
:1025700018F5803109F49BC0B8F4882309F4F9C038
:10258000883009F494C0FF91EF91BF91AF919F9172
:102590008F917F916F915F914F913F912F910F900C
:1025A0000FBE0F901F901895883109F488C08032B3
:1025B00051F780935D0314C0803409F49DC040F44A
:1025C0008033B9F38833F9F680935D0385ECB0C0AE
:1025D000803509F485C0883509F496C0883499F6A9
:1025E0000E947A0FD0CF883909F48CC038F588372B
:1025F00029F050F4883611F0803729F683E0809373
:102600005F031092F90257C0883809F47BC0803903
:1026100019F0803809F0B7CF8091F902803208F0C4
:1026200071C0E091F90281E08E0F8093F9028091F0
:10263000BB00F0E0E752FD4F80833DC0803B39F0A6
:10264000E0F4803A09F479C0883A09F09CCF84E03C
:1026500080935F031092D8021092D702E091060394
:10266000F091070309958091D70281110FC081E095
:102670008093D7021092B70209C0803C09F4A6CF1C
:10268000883C09F4A3CF883B09F07DCFE091D802C4
:1026900081E08E0F8093D802F0E0E954FD4F8081F5
:1026A0008093BB009091D8028091D70229C080917D
:1026B0005A038093BB0085EC8093BC0064CF90915B
:1026C0005C0380915B03981758F5E0915C0381E00F
:1026D0008E0F80935C03F0E0E75CFC4F8081E9CFD4
:1026E000E0915C0381E08E0F80935C038091BB00DE
:1026F000F0E0E75CFC4F808390915C0380915B038A
:102700009817C8F285E8D8CFE0915C0381E08E0F7E
:1027100080935C038091BB00F0E0E75CFC4F80831A
:1027200080915E0381115CCF81E08093590384EA3C
:102730008093BC0010925F0326CF85EC8093BC0091
:1027400010925F038091F902803230F4E091F90237
:10275000F0E0E752FD4F10826091F90270E0E091E5
:102760000403F091050389ED92E009951092F902B6
:102770000ACF10925D0334CFEF92FF920F931F9315
:10278000CF93DF93F82E192FE62E042F81E0860FCA
:10279000880F0E94C60483E00E94C604CF2DD12F6B
:1027A000EC0EFD2EF11CCE15DF05B9F007FF13C0AE
:1027B000FE0184910E94C604182F80E00E94C60486
:1027C000812321968111EFCFDF91CF911F910F913E
:1027D000FF90EF9008958881EDCF81E0F5CFCF9302
:1027E000DF93E3EAF3E01382128248EE53E060E005
:1027F00070E044835583668377838CE291E0918314
:1028000080832FEF3FEF35872487E3EFF3E08AE7FC
:1028100091E0918380831282138214821582E9EF02
:10282000F3E0918380831282138214821582EFEF8A
:10283000F3E0918380831282138214821582E5E093
:10284000F4E0918380831282138214821582EBE07C
:10285000F4E0918380831282138214821582E1E175
:10286000F4E0918380831282138214821582E7E15F
:10287000F4E0138212824483558366837783AEE348
:10288000B1E0B183A083EBE5F4E091838083128211
:10289000138214821582ECE4F4E0138212824483E2
:1028A0005583668377834CE551E05183408344E050
:1028B0004487C3E2D4E01B821A8240E551E0598389
:1028C00048839C8F8B8F1D8E1E8E1F8E18A238A75B
:1028D0002FA3FD83EC831EA21DA280E091E00E9445
:1028E000FE1B9F838E8380E091E0998788878FE02D
:1028F00090E09B878A879D878C87DF91CF91089591
:10290000CF93DF93CDB7DEB767970FB6F894DEBFEE
:102910000FBECDBF789484B5826084BD84B58160DC
:1029200084BD85B5826085BD85B5816085BD80919A
:102930006E00816080936E00109281008091810012
:10294000826080938100809181008160809381000A
:1029500080918000816080938000809191008260EE
:10296000809391008091910081608093910080918B
:1029700090008160809390008091C100846080937A
:10298000C1008091C10082608093C1008091C1002C
:1029900081608093C1008091C30081608093C300F7
:1029A0008091C00082608093C0008091C2008160ED
:1029B0008093C20080917A00846080937A00809135
:1029C0007A00826080937A0080917A00816080939F
:1029D0007A0080917A00806880937A001092A20336
:1029E00010920303109202038091D70081608093BC
:1029F000D70080EA8093D80089B5806189BD89B508
:102A0000826089BD89B5282F21702F8B80FFFACF76
:102A100061E070E080E090E00E947E028091D8004A
:102A20008F7C80618093D8008091E000807F8093CC
:102A3000E0008091E1008E7E8093E1008DE0809344
:102A4000E200559A209A1092850310928603109204
:102A50001603109238030E947D0B84EC94E090934F
:102A600007038093060385EC94E09093050380931D
:102A700004038FEF9FEF9093B0038093AF0361EC5B
:102A800071E083EA93E00E946D0D6AE070E080E0FF
:102A900090E00E947E0265E871E083EA93E00E9484
:102AA0008C0C87EC91E00E94630D64ED71E083EA89
:102AB00093E00E946D0D80910803811105C00E9472
:102AC000280881E0809308030E9496060E9424084B
:102AD00062E081E10E94DC0640E068E084ED91E084
:102AE0000E94280741E060E087E891E00E94280703
:102AF0000E9496061A861982BE016F5F7F4F2B01D6
:102B0000AB01675F7F4F81E10E948E07892B11F433
:102B10008FEF8A870E9420088A858F3F69F01AE02C
:102B200068E873E180E090E00E947E020E947508F0
:102B30008D7F11F41150A1F70E947508833059F070
:102B400064EF71E080E090E00E947E0287E392E013
:102B50000E94630DF1CF67E871E083EA93E00E9481
:102B60006D0D6DED71E083EA93E00E946D0D64EFF1
:102B700071E083EA93E00E946D0D8AE791E09B8704
:102B80008A871C861D861E861F8687E0D2011D92BD
:102B90008A95E9F781E193E09B838A838DE093E056
:102BA0009E838D8389E093E09987888780910803CD
:102BB000811105C00E94280881E0809308030E94CB
:102BC00096060E94240861E081E20E94DC068FEFF5
:102BD000898B41E061E0CE0141960E9428070E9466
:102BE0009606188A0E947607892BE1F1CE0140965D
:102BF0000E9458078889813AA9F50E946707282E04
:102C0000882381F18201B12CA12C682E712CA6148D
:102C1000B7040CF58FEF0E94C506F8018083F12CF4
:102C2000E12CC82ED12CEC14FD047CF4D8011196B3
:102C30008D909C908E0C9F1C8FEF0E94C506F40116
:102C40008083FFEFEF1AFF0AEECF2FEFA21AB20A2E
:102C50000D5F1F4FDCCF33E0231204C0CE0140963E
:102C60000E9458070E94200880911103909112033E
:102C7000A0911303B09114038C879D87AE87BF8703
:102C800063EA73E0CE010A960E94190D65E871E0CF
:102C900083EA93E00E948C0C82E092E090934504DA
:102CA000809344048BE597E0909347048093460417
:102CB00084E49EE090933D0480933C047CEF272EB7
:102CC00033243A9481E08093150380933703109264
:102CD0001603109238030BE813E020918B03C80110
:102CE0008B5893402817190649F044F0D8016D918C
:102CF0008D0187E194E00E940B0CEFCF1091380317
:102D0000113208F091C00E9459024B015C01809180
:102D10005F03811164C082E080935F0381E0809350
:102D20005E038FEF80935D0310925C0310935B034F
:102D3000A7E1B3E0E9E3F3E080E01813E9C0109203
:102D40005A0380915A03826080935A0380915903F9
:102D5000813009F0E1C0109259030E9459024B01E1
:102D60005C0180915A038093BB0080916103909134
:102D70006203A0916303B0916403892B8A2B8B2B90
:102D800099F00E9459020091610310916203209111
:102D9000630330916403681979098A099B0906174E
:102DA000170728073907E0F18091BC0083FDD9CFD0
:102DB00085EC8093BC000E9459024B015C0180911C
:102DC0005F03823009F4AAC080915D038F3F61F1F7
:102DD00080915D03803241F180915D0325C0809137
:102DE000610390916203A0916303B0916403892B06
:102DF0008A2B8B2B09F48BCF0E94590220916103FF
:102E0000309162034091630350916403681979091A
:102E10008A099B09261737074807590708F077CF13
:102E2000809160030E949B0B10921603109238034E
:102E30001092150310928B030E9459024B015C0102
:102E400080915F0381118CC081E080935F03809348
:102E50005E039FEF90935D0310925C0310925B03FF
:102E600080935A0380915A03826080935A03809121
:102E70005903813009F0C9C0109259030E945902C8
:102E80004B015C0180915A038093BB0080916103E8
:102E900090916203A0916303B0916403892B8A2B04
:102EA0008B2BA1F00E9459020091610310916203E3
:102EB0002091630330916403681979098A099B0999
:102EC000061717072807390708F46BC08091BC0064
:102ED00083FDD8CF85EC8093BC000E9459024B0142
:102EE0005C0180915F03813009F491C080915C03A3
:102EF0008111AFC080915C03A9E3B3E0E5E6F3E0A4
:102F000090E0981709F452C02D9121939F5FF9CF5B
:102F10009D9191938F5F11CF85EE4BCF809161038F
:102F200090916203A0916303B0916403892B8A2B73
:102F30008B2B09F444CF0E94590200916103109138
:102F400062032091630330916403681979098A0947
:102F50009B09061717072807390708F030CF60CFFD
:102F60008091610390916203A0916303B091640327
:102F7000892B8A2B8B2B09F463CF0E945902009175
:102F80006103109162032091630330916403681917
:102F900079098A099B09061717072807390708F0D6
:102FA0004FCF809160030E949B0B80E010928503BD
:102FB000809386038091860390918503891B990BEA
:102FC000181619060CF047C087E194E00E94CB0B5D
:102FD0008C011816190674F78091890390918A0361
:102FE0000817190739F3B801012E000C880B990B4B
:102FF0000E94E70C65E871E083EA93E00E948C0C84
:103000001093880300938703D5CF85EE64CF80911A
:10301000610390916203A0916303B0916403892BD3
:103020008A2B8B2B09F45DCF0E945902009161031A
:103030001091620320916303309164036819790948
:103040008A099B09061717072807390708F049CF8F
:10305000A8CF8F8951CF0E94270181116AC10E9498
:103060003D0C0E942701811164C18FE092E00E9413
:10307000630D0E94270181114FC180912704909117
:103080002804DC01ED91FC910688F789E02D099573
:10309000882309F463C0E1E0F0E0F0933204E093A8
:1030A000310487E0EAE1F1E0D20101900D928A95C6
:1030B000E1F7D20185E090E02D91E0912904F091B3
:1030C0002A04E80FF91F208301968C309105A1F79F
:1030D0000091290410912A04E2ECD8011C96EC938B
:1030E0001C9780912E041D968C931D9780912D0422
:1030F0001E968C93E0902B04F0902C04B70189E38A
:1031000092E00E947C1B4196E816F90608F05DC02B
:103110008091270490912804DC01ED91FC910488B2
:10312000F589E02D099581E692E00E94630D60919A
:103130004A0470914B04072E000C880B990B0E94D7
:10314000E70C68E772E083EA93E00E946D0D68E89F
:1031500073E180E090E00E947E0283CF609144049E
:10316000709145048091270490912804DC01ED9131
:10317000FC9140914604509147046115710571F02E
:103180000088F189E02D0995019709F484CFEEEFCD
:10319000FFEFF0934B04E0934A04C5CF0684F78514
:1031A000E02D6AE7C62E61E0D62EDA82C982009150
:1031B00040041091410420914204309143040B8358
:1031C0001C832D833E83B201DECF4FE050E0B80177
:1031D00089E392E00E9405018C01E0902B04F090BD
:1031E0002C04B70185E492E00E947C1B800F911FA4
:1031F0000296E816F90608F48BCF609129047091C5
:103200002A04A80185E492E00E9405018C01E09067
:103210002B04F0902C04B7018BE492E00E947C1BFD
:10322000800F911F0296E816F90608F471CF60919D
:10323000290470912A04A8018BE492E00E94050100
:10324000AC01455051096091290470912A0480E134
:103250000E94BC020E94B002609333047093340455
:103260008093350490933604609337047093380448
:103270008093390490933A04809127049091280414
:10328000DC01ED91FC910084F185E02D0995892BFD
:1032900011F50E94B002009137041091380420917A
:1032A000390430913A044B015C01801A910AA20A58
:1032B000B30A20912F0430913004A8EEB3E00E94AD
:1032C000E41B86169706A806B906B0F230924B04A6
:1032D00020924A041DCFCE010A960E946A036430F0
:1032E00071058105910509F013CFE0912904F09152
:1032F0002A048381811117C00E94B00260933704B1
:10330000709338048093390490933A0410923B04EC
:1033100010924B0410924A0467E572E083EA93E04E
:103320000E946D0D9CCE90E090934B0480934A04D4
:10333000EFCE0E942701882309F44BC00E94B002FF
:103340004B015C0120912D0430912E04A8EEB3E0D6
:103350000E94E41B00913704109138042091390435
:1033600030913A0475016401C01AD10AE20AF30AE5
:10337000970186016017710782079307B0F00091EB
:1033800033041091340420913504309136047501D2
:103390006401C01AD10AE20AF30A97018601601794
:1033A00071078207930708F09DC080913B04882332
:1033B00009F469C030924B0420924A04809127049A
:1033C00090912804DC01ED91FC910488F589E02DB1
:1033D00009958091870390918803181619060CF0BF
:1033E0007DC190938A03809389034AE0B2010E94D1
:1033F000871B83E992E00E94630DB20183EA93E0A8
:103400000E946D0D60912B0470912C04C2010E94EA
:103410007C1B8C010E942701882309F45BC1E0908A
:103420002B04F0902C04B7018BEA92E00E947C1BE5
:103430009801295F3F4F820F931FE816F90608F4A1
:1034400049C16091290470912A0445E050E08BEA5B
:1034500092E00E940501F201AC01441955099A015C
:103460002E0F3F1F6091290470912A04DF01A419D7
:10347000B509A017B10708F025C1F190620F731FBD
:10348000DB01FC92ECCFE0912904F0912A0480EC5E
:103490008083E0912904F0912A041182809127040D
:1034A000909128046091290470912A04DC01ED9127
:1034B000FC910280F381E02D42E050E0099580927A
:1034C000330490923404A0923504B0923604809272
:1034D000370490923804A0923904B0923A0481E003
:1034E00080933B048091270490912804DC01ED91A6
:1034F000FC910084F185E02D0995892B09F469CFB1
:10350000C2010E946A036A8B7B8B8C8B9D8B672B1D
:1035100009F4D5C08092370490923804A0923904FF
:10352000B0923A04E0912904F0912A048081807FCE
:10353000803309F0A3C080913C0490913D04892B15
:1035400009F447CF298130E0C90102968E0F9F1FF1
:10355000DF01A20FB31F11960C9110E0102F00276E
:10356000DC016C91060F111D2D5F3F4FBF01620FF3
:10357000731FA8010E94231DE98180912904909165
:103580002A04800F911FE80FF92FF11D1282E0919C
:103590002904F0912A04298130E0C90102968E0F96
:1035A0009F1F40814670D42E60903C0470903D0473
:1035B000B2E04B134FC0B801620F731FDF01A60FBB
:1035C000B71F1396EC901397F12CFE2CEE24149653
:1035D0004C91E40EF11C4BEF5FEF421B530B401B71
:1035E000510B2A893B89420F531F6B5F7F4F6E0F30
:1035F0007F1FF3010995E0912904F0912A0480E4EA
:103600008083E0912904F0912A04D182E091290479
:10361000F0912A04F282E0912904F0912A04E382D5
:1036200080912704909128046091290470912A04C4
:10363000DC01ED91FC910280F381E02D44E050E04B
:1036400009958092330490923404A0923504B0928C
:103650003604BFCE4DEF5FEF421B530B401B510BA7
:10366000CA88DB884C0D5D1D2D5F3F4F200F311F39
:10367000BF01620F731FF3010995ABCE803CC9F403
:1036800080ED8083E0912904F0912A0411828091D9
:103690002704909128046091290470912A04DC0188
:1036A000ED91FC910280F381E02D42E050E009951C
:1036B00090CE803D09F08DCE10923B048ACE0E94C0
:1036C000270187CEA80145505109480F591F80E3B3
:1036D0000E94BC02109288031092870380E090E061
:1036E000892B09F4EFCA0E940000ECCA80912904DA
:1036F00090912A040C949A1CFC0161507040019036
:103700000110D8F7809590958E0F9F1F0895BB27C5
:103710004A3031F4992322F4BDE2909581959F4F70
:103720000C94931BBB27FB015527AA27880F991FD1
:10373000AA1FA41710F0A41B83955051B9F7A05DE0
:10374000AA3308F0A95DA193009779F7B111B1935D
:103750001192CB010C94AC1BDC01FC01672F719121
:103760007723E1F7329704C07C916D937083629167
:10377000AE17BF07C8F30895A1E21A2EAA1BBB1B00
:10378000FD010DC0AA1FBB1FEE1FFF1FA217B3072D
:10379000E407F50720F0A21BB30BE40BF50B661F43
:1037A000771F881F991F1A9469F760957095809507
:1037B00090959B01AC01BD01CF010895EE0FFF1F55
:1037C0000590F491E02D0994A29FB001B39FC00130
:1037D000A39F700D811D1124911DB29F700D811D3D
:1037E0001124911D08950E94E41BA59F900DB49F84
:1037F000900DA49F800D911D112408950F931F9388
:10380000CF93DF938230910510F482E090E0E09155
:103810006304F091640430E020E0B0E0A0E0309771
:1038200099F42115310509F44AC0281B390B2430BD
:103830003105D8F58A819B816115710589F1FB01FC
:1038400093838283FE0111C04081518102811381E3
:1038500048175907E0F04817590799F4109761F095
:1038600012960C93129713961C933296CF01DF9108
:10387000CF911F910F9108950093630410936404F6
:10388000F4CF2115310551F04217530738F0A90143
:10389000DB019A01BD01DF01F801C1CFEF01F9CFD2
:1038A0009093640480936304CDCFFE01E20FF31F75
:1038B000819391932250310939832883D7CF209166
:1038C000610430916204232B41F420911601309160
:1038D0001701309362042093610420911401309108
:1038E00015012115310541F42DB73EB7409118015E
:1038F00050911901241B350BE0916104F091620491
:10390000E217F307A0F42E1B3F0B2817390778F0B6
:10391000AC014E5F5F4F2417350748F04E0F5F1F15
:103920005093620440936104819391939FCFF0E0A0
:10393000E0E09CCFCF93DF930097E9F0FC01329752
:1039400013821282A0916304B0916404ED0130E00F
:1039500020E01097A1F420813181820F931F2091E4
:103960006104309162042817390709F061C0F093AF
:103970006204E0936104DF91CF910895EA01CE17CC
:10398000DF07E8F54A815B819E0141155105B1F7DA
:10399000E901FB83EA8349915991C40FD51FEC17C4
:1039A000FD0761F4808191810296840F951FE901E2
:1039B00099838883828193819B838A83F0E0E0E00E
:1039C00012968D919C9113970097B9F52D913C918A
:1039D0001197CD010296820F931F209161043091BF
:1039E00062042817390739F6309751F510926404AC
:1039F00010926304B0936204A0936104BCCFD3839C
:103A0000C28340815181840F951FC817D90761F483
:103A10004E5F5F4F88819981480F591F51834083C2
:103A20008A819B81938382832115310509F0B0CF70
:103A3000F0936404E09363049ECFFD01DC01C0CFEA
:103A400013821282D7CF6817790768F4FB01DC0173
:103A5000E40FF51FA40FB51F02C002900E92415053
:103A60005040D8F708950C94351DFB01DC0102C0CD
:103A700001900D9241505040D8F7089510E0CAEDE2
:103A8000D0E004C0FE010E94DE1B2196CB3DD10791
:063A9000C9F7F894FFCF16
:103A9600FFFFFFFFFFFFFFFFFFFFFFFF00E100004B
:103AA6000000000000006504800000044D515454DD
:103AB6000400C1808100000000000000DD055805FB
:103AC600FE05F305440602062006000000000B0C66
:103AD600DE0B3A0CA909BD04CB0BBC0B00000000A1
:103AE6007E065E063A0C250900000000400B9A0A85
:103AF6003A0CA9095C0A380AAA09860DBF0ECE0936
:103B060042092E09260900000000190D7765623268
:103B16005A756D6F000D0A004E6F20536F636B650B
:103B26007420617661696C61626C65004D656C64D8
:103B3600696E6720616E6B6F6D6D657420746F7052
:103B460069633A20002E204D656C64696E673A20E1
:103B5600007374617274004B6F626C6572207469D5
:103B66006C3A20004E544E552D494F540057694625
:103B760069206B6F626C696E67206F707072657416
:103B86007465740049502061646472657373653AA4
:103B9600200031302E32352E31382E313338004662
:103BA6006F7273C3B86B657220C3A5206F70707295
:103BB60065747465206B6F626C696E672074696CDE
:103BC600206D7174742E2E2E004553503332636C63
:103BD60069656E74006E6A61616C0033496E736864
:103BE600616C6C61683400636F6E6E6563746564E6
:103BF600006D69736C796B6B6574206B6F626C69B1
:103C06006E672C2072633D00205072C3B8766572D1
:103C16002069676A656E206F6D20352073656B7548
:103C26006E6400566572646920736F6D20626C69FC
:103C3600722073656E64743A2020006361723243A9
:063C460068617267650071
:00000001FF
