:100000000C94DB000C9403010C9403010C94030189
:100010000C9403010C9403010C9403010C94030150
:100020000C9403010C9403010C94FB0F0C946A10C4
:100030000C9403010C9403010C9403010C94030130
:100040000C9403010C9403010C9403010C94030120
:100050000C9403010C9403010C9403010C94B10F54
:100060000C9403010C9403010C9403010C94030100
:100070000C9403010C9403010C9403010C940301F0
:100080000C9403010C9403010C9403010C940301E0
:100090000C949C120C9403010C9403010C94030126
:1000A0000C9403010C9403010C9403010000000064
:1000B0002300260029002C002F00080B000202025A
:1000C00000000904000001020200000524001001E4
:1000D0000524010101042402060524060001070588
:1000E000810310004009040100020A000000070516
:1000F00002024000000705830240000004030904D7
:1001000012010002EF020140FB1F00230001010267
:100110000301506F6C6F6C7520436F72706F72616A
:1001200074696F6E00506F6C6F6C7520412D537445
:100130006172203332553400000000002400270093
:100140002A002D00300000000000250028002B00B0
:100150002E00310004040404040304050202020218
:100160000403020202020606060606060404020250
:100170000204040408020110408040102040804026
:1001800080080204018040201002011080102040ED
:1001900040200000000200090F0000030401000CD1
:1001A000000000000000000000000000000000004F
:1001B0000000EE130A1B11241FBECFEFDAE0DEBFF2
:1001C000CDBF12E0A0E0B1E0E4E5F9E302C00590A4
:1001D0000D92A439B107D9F724E0A4E9B2E001C037
:1001E0001D92AF33B207E1F710E0CAEDD0E004C0D2
:1001F0002197FE010E943D1BC93DD107C9F70E940E
:100200007F140C949D1C0C940000CF93DF93EC01A1
:10021000FA013296E60FF71FDC019D012C1B3D0B06
:10022000CF01861B970B4D91442311F04193F5CFDD
:10023000AC01421B530B640F751FFB0132973083D7
:1002400061507109FB012083DF91CF910895809166
:10025000010490910204009711F480E02FC0DC01AA
:10026000ED91FC910688F789E02D099520912404F1
:100270003091250481111FC0232B79F78DEF9FEF5B
:1002800090932504809324048091010490910204AA
:10029000DC01ED91FC910680F781E02D09958091BC
:1002A000010490910204DC01ED91FC910488F58930
:1002B000E02D0995D2CF81E0232B79F60895FC013A
:1002C00080917C03882311F13FB7F89482E08093FA
:1002D000E9002091F200822F90E01816190614F41C
:1002E00081E090E0882339F0289844E640937B032E
:1002F0004091F1004083222339F02091F200211136
:1003000003C02BE62093E8003FBF08958FEF9FEFD7
:1003100008952FB7F89483E08093E9009091E80066
:10032000892F807295FF04C09091F20080E4891BB0
:100330002FBF08958091730381110DC082E08093D7
:100340006F0384E080937003109272031092710324
:1003500081E0809373038FE693E0089581508F309E
:1003600008F047C0E82FF0E0E854FE4F0C943D1B26
:10037000D501D901C701CD01D101F901F901F90177
:10038000DC01E201E601EA01F001F901F4018091EA
:1003900080008F77809380000895809180008F7D0A
:1003A000F9CF80918000877FF5CF84B58F7784BDAA
:1003B000089584B58F7DFBCF809190008F778093D7
:1003C00090000895809190008F7DF9CF80919000EA
:1003D000877FF5CF8091C0008F778093C00008950C
:1003E0008091C0008F7DF9CF8091C200877F80937C
:1003F000C20008951F93CF93DF93282F30E0F901B7
:10040000EE56FE4F8491F901ED58FE4FD491F9015B
:10041000EC5AFE4FC491CC23A9F0162F81110E94F3
:10042000AE01EC2FF0E0EE0FFF1FEA5BFE4FA5914F
:10043000B4918FB7F894EC91111108C0D095DE23D8
:10044000DC938FBFDF91CF911F910895DE2BF8CF02
:10045000CF93DF9390E0FC01ED58FE4F24918C5A2E
:100460009E4FFC0184918823D1F090E0880F991F62
:10047000FC01E85CFE4FA591B491FC01EA5BFE4FE4
:10048000C591D49161110EC09FB7F8948C91E22F61
:10049000E0958E238C932881E223E8839FBFDF9130
:1004A000CF9108958FB7F894EC91E22BEC938FBF26
:1004B000F6CF3FB7F89480916B0390916C03A091B5
:1004C0006D03B0916E0326B5A89B05C02F3F19F0B0
:1004D0000196A11DB11D3FBFBA2FA92F982F8827C4
:1004E000BC01CD01620F711D811D911D42E0660F9F
:1004F000771F881F991F4A95D1F708958F929F9271
:10050000AF92BF92CF92DF92EF92FF924B015C01CC
:100510000E9459026B017C010E9459026C197D09ED
:100520008E099F09683E734081059105A8F321E07B
:10053000821A9108A108B10888EEC80E83E0D81E7F
:10054000E11CF11C81149104A104B10429F7FF906E
:10055000EF90DF90CF90BF90AF909F908F900895D5
:100560002FB7F894609167037091680380916903D5
:1005700090916A032FBF0895EF92FF920F931F93FC
:10058000CF93DF9300D000D0CDB7DEB7FA0120E0E3
:100590008E010F5F1F4F9E2F9F77EE0FEF2FEE1FE5
:1005A000FF0BF195309709F09068D801A20FB11DAB
:1005B0009C932F5F309779F730E0FB01E21BF30B40
:1005C0008483FB01E21BF30B3596D801CD01801B20
:1005D000910B821793071CF48D918193F7CF2F5FB6
:1005E0003F4F80910104909102048901040F151F6F
:1005F000621B730B6B5F7F4FDC01ED91FC910280FE
:10060000F381E02DA80109957C010E94B00260935E
:100610000D0470930E0480930F049093100481E0F6
:100620000E151F0509F080E00F900F900F900F90AE
:10063000DF91CF911F910F91FF90EF9008958F92CE
:100640009F92AF92BF92CF92DF92EF92FF92CF93A1
:10065000DF93EC010E94B0024B015C018091010428
:1006600090910204DC01ED91FC910084F185E02D74
:100670000995892BB9F40E94B0026B017C01C8185E
:10068000D908EA08FB082091090430910A04A8EE71
:10069000B3E00E94431BC616D706E806F906F0F23F
:1006A00080E00DC08091010490910204DC01ED9185
:1006B000FC910284F385E02D0995888381E0DF9128
:1006C000CF91FF90EF90DF90CF90BF90AF909F9031
:1006D0008F9008952F923F924F925F926F927F92E8
:1006E0008F929F92AF92BF92CF92DF92EF92FF9242
:1006F0000F931F93CF93DF93CDB7DEB72A970FB633
:10070000F894DEBF0FBECDBF1C0180910304909111
:1007100004040E941F0381111CC060E070E0CB0143
:100720002A960FB6F894DEBF0FBECDBFDF91CF91F2
:100730001F910F91FF90EF90DF90CF90BF90AF90FF
:100740009F908F907F906F905F904F903F902F90F1
:100750000895E0910304F0910404D0801982EE24FE
:10076000E394F12C812C912C5401412C512C320119
:100770004394CE0101960E941F03882371F28701E2
:100780000F5F1F4F8981E0910304F0910404EE0D87
:10079000FF1D8083E981AE2FAF77B0E0A301920106
:1007A0000E94521B860E971EA81EB91E37E0440CED
:1007B000551C661C771C3A95D1F7E7FD3FC0BD2D4F
:1007C000B07FBE838FEF800FF1018083B03309F0DB
:1007D0004CC08091030490910404800F911F0E94EB
:1007E0001F03882309F499CF209103043091040456
:1007F000C7010296820F931F0E941F03882309F4EA
:100800008CCF0E5F1F4FE0910304F0910404D101DF
:100810008C91DF01A80FB11D11968C91119790E07A
:10082000982F882712962C91820F911D208121FDEF
:100830000296F2E0E0E030E020E01DC078010530F3
:10084000110509F096CF8FEF9FEF909325048093C9
:1008500024048091010490910204DC01ED91FC914B
:100860000488F589E02D099558CFF0E0E0E030E00C
:1008700020E090E080E070E060E0CF2EDE2EE32EFE
:10088000F22E28013B014C185D086E087F084A8251
:100890005B826C827D822C01712C612C4F82588688
:1008A00069867A864A805B806C807D804C0C5D1CFA
:1008B0006E1C7F1CC814D904EA04FB0408F046C06F
:1008C000CE0101960E941F03882309F426CF809150
:1008D000220490912304009711F12E812033F9F422
:1008E000D1012C914EEF5FEF6FEF7FEF421B51096B
:1008F00061097109440E551E661E771E2F813885C9
:1009000049855A85241535054605570540F4DC010F
:10091000ED91FC910190F081E02D69810995809124
:100920000504909106040817190750F48981E09195
:100930000304F0910404E00FF11F80830F5F1F4F49
:10094000BFEFCB1ADB0AEB0AFB0AACCF8091220483
:1009500090912304892B69F48091050490910604F9
:10096000B0E0A0E084159505A605B70510F410E0E9
:1009700000E0B80190E080E0D3CE809164039091D4
:100980006303891B990B0895089508954091DC0233
:100990005091DD022091DA023091DB0242175307B9
:1009A000B4F49091E8009570E1F39091E80092FD25
:1009B00019C08093F1008091DC029091DD020196D4
:1009C0008F739927892B19F48EEF8093E80080911B
:1009D000DC029091DD0201969093DD028093DC02AF
:1009E00081E0089580E00895DF92EF92FF920F93E7
:1009F0001F93CF93DF93D82E8A01EB017B01E40E86
:100A0000F51ECE15DF0559F0D7FE12C0FE01849108
:100A10000E94C60421968111F4CF0FEF1FEFC80189
:100A2000DF91CF911F910F91FF90EF90DF9008958C
:100A30008881EECF0F931F93CF93DF931F92CDB793
:100A4000DEB782E0898342E450E06AEB70E080E840
:100A50000E94F4040E949A01DC0112960D911C91EF
:100A60000115110589F0D801ED91FC910280F38107
:100A7000E02DBE016F5F7F4FC801099597FD04C04F
:100A8000F80100851185ECCF89810F90DF91CF911E
:100A90001F910F910895615030F02091F100FC01F9
:100AA00020830196F8CF289884E680937B030895ED
:100AB0008F929F92AF92BF92CF92DF92EF92FF926E
:100AC0000F931F93CF93DF936C017B018A01809179
:100AD0001301882309F45CC080917C03882309F406
:100AE00057C08091E00280FF05C08091E0008260E5
:100AF0008093E000E801B12C8AEFA82E93E0892EC4
:100B00002AE3922E209711F4BB20D9F10E9489018B
:100B100081110AC0AA94AA20D9F161E070E080E0B6
:100B200090E00E947E02EECF8C171D0611F00CF0B3
:100B30008C2F9FB7F8948092E9002091E80025FD62
:100B400002C09FBFDFCF282F30E0C21BD30BF701BD
:100B5000815020F041914093F100FACFE20EF31E54
:100B6000BB2021F09092E800B12CEBCF8091E800FF
:100B700085FDE7CF9092E800BB24B394209709F35A
:100B8000F3CF5D9884E68093DF02101611063CF0E7
:100B900081E090E0F6019383828310E000E0C801D9
:100BA000DF91CF911F910F91FF90EF90DF90CF9049
:100BB000BF90AF909F908F900895CF93DF931F9237
:100BC000CDB7DEB76983DC01ED91FC910280F38142
:100BD000E02D41E050E0BE016F5F7F4F09950F901F
:100BE000DF91CF91089583E08093E9008091F20036
:100BF000882319F08AE38093E80008950E94890110
:100C000090E00895CF93DF931F92CDB7DEB7FC013C
:100C10008485958597FD08C02FEF3FEF35872487A2
:100C20000F90DF91CF910895CE0101960E945F0150
:100C3000019719F4898190E0F3CF8FEF9FEFF0CF08
:100C40000F931F93CF93DF931F92CDB7DEB78C0125
:100C5000FC018485958597FF0BC0CE0101960E940B
:100C60005F01019771F4898190E0F801958784878D
:100C7000F801848595850F90DF91CF911F910F9199
:100C800008958FEF9FEFF1CFFC018485958597FD47
:100C90000BC09FB7F89482E08093E9008091F20046
:100CA0009FBF90E0019608959FB7F89482E08093EB
:100CB000E9008091F2009FBF90E00895EF92FF92CB
:100CC0000F931F93CF93DF93EC018B017A010E9466
:100CD000B002688B798B8A8B9B8B8C819D81DC0128
:100CE000ED91FC910280F381E02DA701B801DF9125
:100CF000CF911F910F91FF90EF9009941F93CF9385
:100D0000DF93EC01162F0E94B002688B798B8A8BDF
:100D10009B8B8C819D81DC01ED91FC910190F08198
:100D2000E02D612FDF91CF911F910994CF92DF9237
:100D3000EF92FF920F931F93CF93DF93C9E9D1E016
:100D40000AE711E09BE5E92E91E0F92EFE0184917E
:100D5000F801C490F701D490DD2071F081110E9458
:100D6000AE01ED2DF0E0EE0FFF1FE455FF4FA59112
:100D7000B4918C91C82251F7DF91CF911F910F91BF
:100D8000FF90EF90DF90CF900895CF93DF931F9265
:100D9000CDB7DEB7898389818EBD00000DB407FE13
:100DA000FDCF8EB52AE030E0000021503109E1F797
:100DB0000F90DF91CF910895CF93DF93D82FC62F57
:100DC00080EE0E94C50683E290E00197F1F78D2F37
:100DD0000E94C5068C2F0E94C506C11105C08EEE6B
:100DE000DF91CF910C94C506DF91CF910895DF92EA
:100DF000EF92FF920F931F93CF93DF93D82EE92E9C
:100E00008B01F42E812F0E94C506802F0E94C506FB
:100E1000CD2DDE2D0C0F1D1FC017D10721F089919C
:100E20000E94C506F9CF81E0F8120AC08EEEDF916C
:100E3000CF911F910F91FF90EF90DF900C94C5061A
:100E4000DF91CF911F910F91FF90EF90DF90089568
:100E5000DF92EF92FF920F931F93CF93DF937C016A
:100E6000C62FD42E862F0E94C5068701D0E0C80168
:100E70008E199F098C179D0734F4F80181918F0119
:100E80000E94C506F4CFF1E0DF120AC08EEEDF91BA
:100E9000CF911F910F91FF90EF90DF900C94C506BA
:100EA000DF91CF911F910F91FF90EF90DF90089508
:100EB000CF93DF93EC018FEF0E94C50688838AE011
:100EC00090E000000197E9F7DF91CF910895CF936B
:100ED000DF931F92CDB7DEB71982CE0101960E9433
:100EE000580789810F90DF91CF910895CF93DF93B9
:100EF000C9EED3E00E9467078F3E69F0219711F099
:100F0000803EC1F721E090E0803E09F020E0822F92
:100F1000DF91CF9108958FEF9FEFFACFCF92DF92BD
:100F2000EF92FF920F931F93CF93DF931F92CDB752
:100F3000DEB7182F6B017A0119820E947607892B80
:100F400061F490E080E00F90DF91CF911F910F91BD
:100F5000FF90EF90DF90CF900895CE0101960E9410
:100F60005807106889811813ECCFCE0101960E94B2
:100F700058078981813029F78FEF0E94C506F70154
:100F8000808310E000E0F70180818017110649F0AE
:100F900044F0C601800F911F0E9458070F5F1F4F3A
:100FA000F2CFCE0101960E94580781E090E0CBCFAE
:100FB000CF92DF92EF92FF920F931F93CF93DF9325
:100FC0001F92CDB7DEB7182F7B016A0119820E94EC
:100FD0007607892B61F490E080E00F90DF91CF914C
:100FE0001F910F91FF90EF90DF90CF900895CE0169
:100FF00001960E945807106889811813ECCF0E944F
:1010000067078823B1F08FEF0E94C506F601808341
:101010008701F6012081C8018E199F09281719063A
:1010200041F03CF08FEF0E94C506F80181938F01DB
:10103000F0CFCE0101960E94580781E090E0CDCF1D
:1010400061E08AE00C94FA0160E08AE00C94FA0115
:10105000CF93CFB7F8948091D902811127C0E5E6EC
:10106000F1E08491E4E8F1E09491E82FF0E0EE0FF4
:10107000FF1FE85CFE4FA591B491EC91E92321F4A8
:1010800061E081E10E94FA0161E081E10E942802B1
:101090008CB580618CBD8CB580648CBD61E08FE0C7
:1010A0000E94280261E080E10E9428028091D9021A
:1010B0008F5F8093D902CFBF61E08AE00E9428024F
:1010C00060E087E00E94280261E089E00E94280237
:1010D00061E081E10E94FA0161E08AE00E94FA0188
:1010E00060E089E0CF910C94FA01CF93DF9300D0B8
:1010F000CDB7DEB78091E602811105C00E942808B5
:1011000081E08093E6020E9496060E94240860E037
:1011100080E20E94DC060E9496068FEF89831A8285
:10112000AE014E5F5F4FBE016F5F7F4F80E20E9456
:101130008E070E94200889810F900F90DF91CF9138
:101140000895FF920F931F93CF93DF9300D01F92C8
:10115000CDB7DEB78B838B01F42E8091D80281113D
:1011600005C00E94280881E08093D8020E9496065C
:101170000E94240862E08CE20E94DC0640E061E00C
:10118000CE0103960E94280782E00E94C50680E0F7
:101190000E94C5068F2D0E94C5068EEE0E94C506D0
:1011A0000E94960619821A82AE014E5F5F4FBE0101
:1011B0006F5F7F4F8CE20E94D8070E9420088A81CF
:1011C000882369F08981F801808381E00F900F9076
:1011D0000F90DF91CF911F910F91FF90089580E0C4
:1011E000F5CFCF93DF9300D01F92CDB7DEB78B83BF
:1011F0008091D802811105C00E94280881E0809367
:10120000D8020E9496060E94240861E08FE20E94A4
:10121000DC0641E061E0CE0103960E9428070E94AF
:10122000960619821A82AE014E5F5F4FBE016F5F54
:101230007F4F8FE20E948E070E94200889810F90C5
:101240000F900F90DF91CF910895089521E0FC0158
:1012500084858F3F09F420E0822F0895FC01848566
:101260008F3F71F00E94F108843038F09BEF980FA7
:10127000933018F091E08A3009F490E0892F0895B6
:1012800080E00895EF92FF920F931F93CF93DF9327
:1012900000D01F92CDB7DEB7FC0194859F3F09F4C3
:1012A0004EC08F019B838091D802811105C00E949E
:1012B000280881E08093D8020E9496060E942408A4
:1012C00061E08EE20E94DC0641E061E0CE0103961F
:1012D0000E9428070E9496061A821982AE014F5F6B
:1012E0005F4FBE016E5F7F4F8EE20E948E070E94AD
:1012F0002008D8011C96EC91F0E0EE0FFF1FE050A3
:10130000FF4F8FEF9FEF9183808392E3E92EF12CC3
:10131000F80184858F3F79F00E94F108882359F005
:10132000F1E0EF1AF10839F064E670E080E090E057
:101330000E947E02EDCF8FEFD8011C968C930F9008
:101340000F900F90DF91CF911F910F91FF90EF9031
:10135000089508950F931F93CF93DF931F92CDB7F6
:10136000DEB78C01DC01ED91FC910084F185E02D6C
:101370000995892B81F041E0BE016F5F7F4FF80135
:1013800084850E94A108898190E00F90DF91CF9120
:101390001F910F9108958FEF9FEFF7CFCF92DF92BC
:1013A000EF92FF920F931F93CF93DF9300D0CDB7AF
:1013B000DEB76B017A01FC0184858A838091D802B3
:1013C000811105C00E94280881E08093D8020E9404
:1013D00096060E94240861E085E40E94DC0641E054
:1013E00061E070E0CE0102960E94F7060E94960628
:1013F00019820E947607892B29F1CE0101960E945D
:1014000058078981853CF1F40E9467078823B1F071
:101410008FEF0E94C506E82E8FEF0E94C506FE2CB6
:10142000E82E8601CE0CDF1CC016D10639F08FEFF6
:101430000E94C506F80181938F01F6CFCE01019677
:101440000E9458070E94200881E090E0EF2811F0E8
:1014500090E080E09195819591090F900F90DF9138
:10146000CF911F910F91FF90EF90DF90CF90089553
:101470000F931F93CF93DF931F92CDB7DEB78C01ED
:10148000DC01ED91FC910084F185E02D0995892B1B
:1014900081F040E0BE016F5F7F4FF80184850E94BC
:1014A000A108898190E00F90DF91CF911F910F915A
:1014B00008958FEF9FEFF7CFCF93DF9300D000D049
:1014C000CDB7DEB7FC0184858F3F89F18C83809195
:1014D000D802811105C00E94280881E08093D802BB
:1014E0000E9496060E94240861E08BE20E94DC06BE
:1014F00041E061E0CE0104960E9428070E94960612
:101500001B821A821982AE014D5F5F4FBE016F5F71
:101510007F4F8BE20E948E070E94200889819A816A
:101520000F900F900F900F90DF91CF91089590E062
:1015300080E0F6CFBF92CF92DF92EF92FF920F93AF
:101540001F93CF93DF9300D000D0CDB7DEB76C01EF
:101550008B017A01FC0184858430B0F081E090E059
:10156000F60193838283F12CE12CC7010F900F9039
:101570000F900F90DF91CF911F910F91FF90EF90FF
:10158000DF90CF90BF900895452B41F38C838091DD
:10159000D802811105C00E94280881E08093D802FA
:1015A0000E9496060E94240862E084E40E94DC0601
:1015B00040E061E070E0CE0104960E94F70641E051
:1015C000B701C8010E94F7060E9496061A82198286
:1015D000AE014F5F5F4FBE016E5F7F4F84E40E949C
:1015E000D8070E9420088981882309F4B7CF8A810F
:1015F000813009F0B3CFF60184858B831A8219827A
:1016000010E000E0BB24B3948091D802811104C0A3
:101610000E942808B092D8020E9496060E942408D0
:1016200061E08AE20E94DC0641E061E0CE010396BF
:101630000E9428070E949606AE014F5F5F4FBE01D1
:101640006E5F7F4F8AE20E948E070E9420088A8187
:10165000811113C00F5F1F4F64E670E080E090E0DF
:101660000E947E028A81811103C00931110560F256
:101670000931110509F472CF78CF10E000E0F2CF04
:10168000CF93DF931F92CDB7DEB76983DC01ED9175
:10169000FC910280F381E02D41E050E0BE016F5FDC
:1016A0007F4F09950F90DF91CF9108952091B5025A
:1016B000260F3327331F21323105ECF420913D03EF
:1016C000FC0190E080E0243069F082E00895A09170
:1016D000B5022191AC014B565D4FA40FB52FB11D42
:1016E0002C930196861798F38091B502680F60934A
:1016F000B50280E0089581E0089510923D0381E0F5
:1017000080933C031092370361E082E00E94FA016B
:1017100061E083E00E94FA01E9EBF0E080818E7FD6
:10172000808380818D7F808388E48093B80085E406
:101730008093BC000895CF93DF9391E0909394023F
:101740008823B9F0C091B800D091BA008091BC0054
:101750008A7B8093BC0060E082E00E94FA0160E036
:1017600083E00E94FA010E947D0BD093BA00C093DF
:10177000B800DF91CF910895E091630380916403F5
:10178000E81730F4F0E0ED5BFC4F808190E00895C5
:101790008FEF9FEF089590916303809164032FEF83
:1017A0003FEF981748F4E92FF0E0ED5BFC4F208104
:1017B00030E09F5F90936303C9010895CF92DF9259
:1017C000EF92FF920F931F93CF93DF937C01CB0196
:1017D0008A012091F302222389F0EB016B01C40EF0
:1017E000D51ECC15DD0569F06991D701ED91FC910D
:1017F0000190F081E02DC7010995F3CF642F0E947D
:10180000560BC801DF91CF911F910F91FF90EF9080
:10181000DF90CF900895CF93DF931F92CDB7DEB7BF
:1018200069832091F3022223F9F0209116032032DC
:1018300058F021E030E0FC013383228390E080E027
:101840000F90DF91CF9108958091F402E82FF0E09E
:10185000EB50FD4F998190838F5F8093F4028093CA
:10186000160381E090E0ECCF61E0CE0101960E948A
:10187000560BF7CF90E080E00895CF93DF93C091AF
:101880000504D0910604BE018CE791E00E94101B74
:101890000996C817D907E0F10E9427018823C1F1F2
:1018A00080910B0490910C04019679F190930C04B3
:1018B00080930B04E0910304F091040480910C04E4
:1018C0008583E0910304F091040480910B048683E6
:1018D000609103047091040447E050E08CE791E0CC
:1018E0000E940501E0910304F0910404E80FF91F40
:1018F0001082AC01445051096091030470910404BA
:1019000082E8DF91CF910C94BC0281E090E0CECFD1
:1019100080E0DF91CF910895FB0101900020E9F76D
:101920003197AF01461B570BDC01ED91FC91028012
:10193000F381E02D09948F929F92AF92BF92EF9224
:10194000FF920F931F93CF93DF93CDB7DEB7A1978D
:101950000FB6F894DEBF0FBECDBF7C01FA01CB01FC
:1019600019A2223008F42AE08E010F5D1F4F822E4B
:10197000912CB12CA12CBF01A50194010E941B1B2D
:10198000F901CA016A300CF5605DD8016E938D01D2
:10199000232B242B252B79F790E080E0109721F062
:1019A000BD01C7010E948C0CA1960FB6F894DEBF52
:1019B0000FBECDBFDF91CF911F910F91FF90EF90A0
:1019C000BF90AF909F908F900895695CDECFCF92CB
:1019D000DF92EF92FF92CF93DF93AB01BC0177FFD1
:1019E0001DC06A017C016DE28DE793E00E94DD0578
:1019F000EC0144275527BA014C195D096E097F098E
:101A00002AE08DE793E00E949B0C8C0F9D1FDF91D5
:101A1000CF91FF90EF90DF90CF9008952AE08DE76F
:101A200093E0DF91CF91FF90EF90DF90CF900C94F7
:101A30009B0C8F929F92AF92BF92CF92DF92EF92C8
:101A4000FF920F931F93CF93DF937C01EB016C0107
:101A500082E0C80ED11C4701E5E08E0E911C10E01B
:101A600000E0F60141916F0150E070E060E02AE093
:101A7000CE010E949B0C5C01E881F9810190F0810C
:101A8000E02D6EE2CE0109958A0D9B1D080F191FEE
:101A9000C814D90431F7F701458150E070E060E0E7
:101AA0002AE0CE010E949B0C800F911FDF91CF9105
:101AB0001F910F91FF90EF90DF90CF90BF90AF906C
:101AC0009F908F9008950F931F93CF93DF938C0176
:101AD000D0E0C0E06115710519F00E948C0CEC019A
:101AE00065E871E0C8010E948C0C8C0F9D1FDF918E
:101AF000CF911F910F910895CF92DF92EF92FF92B5
:101B00000F931F93CF93DF93CDB7DEB728970FB610
:101B1000F894DEBF0FBECDBF8C01F42EE52EE0E0C1
:101B2000F1E090E080E0219131912F3F3F4F29F08B
:101B3000019684309105B9F78FEFD8011C968C93EC
:101B40008F3F09F48EC0FB0142815381648175810E
:101B500049835A836B837C8388871D828091D80256
:101B6000811105C00E94280881E08093D8020E945C
:101B700096060E94240864E08DE20E94DC0640E0A4
:101B800064E0CE0101960E94280782E00E94C5060B
:101B90008E2D0E94C5068F2D0E94C50640E061E093
:101BA000CE0108960E94280741E061E0CE0105962B
:101BB0000E9428070E9496061F821E82AE014A5F7D
:101BC0005F4FBE01695F7F4F8DE20E948E070E94CA
:101BD0002008D8011C968C9190E0FC01EE0FFF1FAD
:101BE000E050FF4F918380830E94B0026B017C0123
:101BF000D801ED91FC910688F789E02DC80109957F
:101C0000811112C00E94B0026C197D098E099F09D2
:101C1000603177428105910538F461E070E080E041
:101C200090E00E947E02E4CFD801ED91FC910688FD
:101C3000F789E02DC801099521E090E0811101C0EC
:101C400020E0822F28960FB6F894DEBF0FBECDBFDE
:101C5000DF91CF911F910F91FF90EF90DF90CF9088
:101C6000089568E871E08DE793E00E94630D80E0DD
:101C700090E0E8CF9F92AF92BF92CF92DF92EF9227
:101C8000FF920F931F93CF93DF93CDB7DEB76C0115
:101C9000F62EE72E8A01ADB6BEB66CE971E08DE78F
:101CA00093E00E948C0CC114D10429F0B6018DE799
:101CB00093E00E948C0C65EB71E08DE793E00E944D
:101CC0008C0CC80101962DB73EB7281B390B0FB6F7
:101CD000F8943EBF0FBE2DBF8DB79EB701969801F9
:101CE000FC0137FF0FC020916503EF2DFE2D7C0115
:101CF000AF01400F511FDC014E175F0739F03191E2
:101D00003D93FACF119221503109EBCF200F209350
:101D10006503080F191FF801108285E6C82E83E0BD
:101D2000D82EE016F10699F0F70191907F01692D08
:101D3000092C000C770B60537109072E000C880BDF
:101D4000990B0E94E70CF60191926F01EACF65E8CA
:101D500071E08DE793E00E948C0C0FB6F894BEBE44
:101D60000FBEADBEDF91CF911F910F91FF90EF900D
:101D7000DF90CF90BF90AF909F9008953F924F9289
:101D80005F926F927F928F929F92AF92BF92CF920B
:101D9000DF92EF92FF920F931F93CF93DF93CDB714
:101DA000DEB72B970FB6F894DEBF0FBECDBF7C0118
:101DB0008B016A018091E602811105C00E9428080A
:101DC00081E08093E6020E9496060E94240861E06A
:101DD00084E30E94DC06F80101900020E9F73197C6
:101DE000BF01601B710B41E0C8010E9428070E94DF
:101DF00096061F821982AE014F5F5F4FBE01695F79
:101E00007F4F84E30E948E07182F0E942008111133
:101E10001AC090E080E02B960FB6F894DEBF0FBE9C
:101E2000CDBFDF91CF911F910F91FF90EF90DF9089
:101E3000CF90BF90AF909F908F907F906F905F906A
:101E40004F903F9008950AE01FEF332433941B8393
:101E50001C831D831E838091E602811104C00E94B1
:101E600028083092E6020E9496060E94240860E04C
:101E700085E30E94DC060E9496061B86AE01455F44
:101E80005F4FBE01695F7F4F85E30E948E07892BFC
:101E900061F40E942008015009F4BBCF68EE73E0A2
:101EA00080E090E00E947E02D2CF4F805884698407
:101EB0007A848B809C80AD80BE800E942008841430
:101EC0009504A604B70439F3D701ED91FC9106847B
:101ED000F785E02D8AE791E09A8389834B825C82C3
:101EE0006D827E82A601BE016F5F7F4FC70109959B
:101EF00092CF85ED8093BC0080913F039091400389
:101F0000A0914103B09142030796A11DB11D23E0AA
:101F1000B695A795979587952A95D1F72091BC00FE
:101F200024FD03C010923D03089540913F0350915A
:101F300040036091410370914203452B462B472B90
:101F400069F30097A105B10541F02AE22A95F1F75E
:101F500000C00197A109B109E1CF80913E030C9423
:101F60009B0B1F920F920FB60F9211242F933F934A
:101F70008F939F93AF93BF93809167039091680372
:101F8000A0916903B0916A033091660323E0230FA7
:101F90002D3758F50196A11DB11D2093660380933E
:101FA000670390936803A0936903B0936A038091D9
:101FB0006B0390916C03A0916D03B0916E03019639
:101FC000A11DB11D80936B0390936C03A0936D03CF
:101FD000B0936E03BF91AF919F918F913F912F91DD
:101FE0000F900FBE0F901F90189526E8230F0296B2
:101FF000A11DB11DD2CF1F920F920FB60F921124C7
:102000008F939F938091E1009091E100937F909353
:10201000E10083FF0FC01092E90091E09093EB0084
:102020001092EC0092E39093ED0010927C0398E004
:102030009093F00082FF22C093E09093E90090918A
:10204000F200992319F09AE39093E8009091DF024F
:10205000992341F09091DF0291509093DF0291110A
:1020600001C05D9A90917B03992341F090917B038D
:10207000915090937B03911101C0289A84FF18C05E
:102080008091E2008E7E81608093E2008091E10089
:102090008F7E8093E1008091E0028E7E806180934C
:1020A000E0029F918F910F900FBE0F901F90189597
:1020B00080FFF7CF8091E2008E7E80618093E20006
:1020C0008091E1008E7E8093E1008091E0028E7E1F
:1020D0008160E5CF1F920F920FB60F921124CF921D
:1020E000DF92EF92FF920F931F932F933F934F93A3
:1020F0005F936F937F938F939F93AF93BF93EF9370
:10210000FF93CF93DF93CDB7DEB76C97DEBFCDBF24
:102110001092E9008091E80083FF25C068E0CE01BD
:1021200045960E944B0582EF8093E8008D8987FFDA
:1021300039C09091E80090FFFCCF982F907609F07D
:1021400034C19E894F89588D2F89F88C911131C0E7
:10215000803861F58091E1028093F1001092F100E6
:102160008EEF8093E8006C960FB6F894DEBF0FBE3A
:10217000CDBFDF91CF91FF91EF91BF91AF919F9133
:102180008F917F916F915F914F913F912F911F910F
:102190000F91FF90EF90DF90CF900F900FBE0F90B8
:1021A0001F9018959EEF9093E800C7CF1092F10012
:1021B000D5CF913059F48111D3CF4130510581F6FB
:1021C0008091E1028D7F8093E102CACF933049F480
:1021D0008111C6CF4130510519F68091E10282602C
:1021E000F2CF953041F48091E80080FFFCCF206869
:1021F0002093E300B5CF963009F0A9C00B8D1C8D5C
:1022000022E01092E9001092DD021092DC02F2123C
:102210002EC01092DB021092DA020E941A051F8271
:1022200099E09983FA8291E09E8390EA98879AEFE9
:1022300099872091DC023091DD02275F3F4F3C837C
:102240002B838D831092E9001092DD021092DC0244
:102250001093DB020093DA0249E050E0BE016F5FA9
:102260007F4F80E00E94F4040E941A0579CF1093FA
:10227000DB020093DA020E949A01DC0112960D91B2
:102280001C910115110509F451C1D801ED91FC9182
:102290000480F581E02DBE016B5E7F4FC80109957A
:1022A000009709F03EC1F80100851185EACFF3E0FF
:1022B000FF120EC08F89882309F440C0823061F478
:1022C00040E862E185E291E00E94BB13811148CFB2
:1022D00081E28093EB0047CF813029F440E862E14E
:1022E00082E191E0F1CF833099F70E949A01DC01FD
:1022F0001296ED90FC908E010F5F1F4F6801E11464
:10230000F10479F0D701ED91FC910680F781E02D81
:10231000B801C7010995080F111DF701E084F18488
:10232000EECFD8011C92F60101900020E9F7319719
:10233000BF016C197D0940E0C601C6CF6CEF70E0AB
:10234000FB01449150E080E80E94F40409CF9730EB
:1023500009F4BECF983021F481E08093F10000CFE2
:10236000993009F0FDCE837009F0B2CFE2E2F1E0DE
:1023700081E031E096E32191222371F08093E9001E
:102380003093EB00DF0111972C912093EC00909398
:10239000ED008F5F873079F78EE78093EA00109227
:1023A000EA008F8980937C03DBCE8B8D9C8D10920D
:1023B000E9001092DD021092DC029093DB02809320
:1023C000DA02898D811192C08E899D89913A49F4F2
:1023D000813209F07DCF47E050E06CE071E080E0B1
:1023E000B3CF913209F074CF833269F48F89988D1D
:1023F000B0E0A0E08093080190930901A0930A0146
:10240000B0930B01ADCE803269F48091E80082FF79
:10241000FCCF67E08CE091E00E944B058BEF80934E
:10242000E8009ECE823209F09BCE8F898093130103
:10243000EEEFFFE7859194918B3F9C4D51F1E0E0E9
:10244000F8E080910C0190910D01A0910E01B091E6
:102450000F01803B9440A105B105F1F48091130177
:1024600080FD1AC0EE3F8AE0F80789F587E797E715
:1024700091838083809160008093DE0288E19BE0FD
:102480000FB6F894A895809360000FBE90936000FB
:1024900067CEEEEFFAE0D5CF8081918187379747FD
:1024A00009F05ECEA89580916000886180936000FD
:1024B0008091DE0280936000EE3F2AE0F20789F00F
:1024C0008091FE0A9091FF0A9183808349CE80819A
:1024D00091818737980751F29093FF0A8093FE0A03
:1024E000C5CF1092FF0A1092FE0A3ACE0E949A01BE
:1024F000DC0112960D911C910115110509F4E8CE2D
:10250000D801ED91FC910190F081E02DBE016B5E50
:102510007F4FC8010995811123CEF80100851185EF
:10252000EBCF181619060CF41BCED2CEF1E0FF1239
:10253000BECE60E071E004CF1F920F920FB60F92F3
:1025400011242F933F934F935F936F937F938F93B8
:102550009F93AF93BF93EF93FF938091B900887FD0
:10256000803609F44AC0F0F5883209F4A7C018F59E
:10257000803109F49BC0B8F4882309F4F9C088308D
:1025800009F494C0FF91EF91BF91AF919F918F910A
:102590007F916F915F914F913F912F910F900FBE5F
:1025A0000F901F901895883109F488C0803251F738
:1025B00080933B0314C0803409F49DC040F4803301
:1025C000B9F38833F9F680933B0385ECB0C08035CE
:1025D00009F485C0883509F496C0883499F60E94BC
:1025E000790FD0CF883909F48CC038F5883729F0B5
:1025F00050F4883611F0803729F683E080933D034C
:102600001092D70257C0883809F47BC0803919F07E
:10261000803809F0B7CF8091D702803208F071C0BE
:10262000E091D70281E08E0F8093D7028091BB00AA
:10263000F0E0E954FD4F80833DC0803B39F0E0F489
:10264000803A09F479C0883A09F09CCF84E08093FD
:102650003D031092B6021092B502E091E402F091AF
:10266000E50209958091B50281110FC081E0809348
:10267000B5021092950209C0803C09F4A6CF883CAF
:1026800009F4A3CF883B09F07DCFE091B60281E049
:102690008E0F8093B602F0E0EB56FD4F8081809361
:1026A000BB009091B6028091B50229C08091380399
:1026B0008093BB0085EC8093BC0064CF90913A037B
:1026C00080913903981758F5E0913A0381E08E0F15
:1026D00080933A03F0E0E95EFC4F8081E9CFE0911E
:1026E0003A0381E08E0F80933A038091BB00F0E0C3
:1026F000E95EFC4F808390913A03809139039817EB
:10270000C8F285E8D8CFE0913A0381E08E0F80933C
:102710003A038091BB00F0E0E95EFC4F808380913A
:102720003C0381115CCF81E08093370384EA80937E
:10273000BC0010923D0326CF85EC8093BC00109224
:102740003D038091D702803230F4E091D702F0E06F
:10275000E954FD4F10826091D70270E0E091E202EF
:10276000F091E30287EB92E009951092D7020ACF2D
:1027700010923B0334CFEF92FF920F931F93CF93AE
:10278000DF93F82E192FE62E042F81E0860F880F95
:102790000E94C60483E00E94C604CF2DD12FEC0E08
:1027A000FD2EF11CCE15DF05B9F007FF13C0FE01A9
:1027B00084910E94C604182F80E00E94C6048123E1
:1027C00021968111EFCFDF91CF911F910F91FF9053
:1027D000EF9008958881EDCF81E0F5CFCF93DF931F
:1027E000EDE7F3E01382128248EE53E060E070E020
:1027F00044835583668377838CE291E09183808361
:102800002FEF3FEF35872487EDECF3E08AE791E087
:10281000918380831282138214821582E3EDF3E0A8
:10282000918380831282138214821582E9EDF3E092
:10283000918380831282138214821582EFEDF3E07C
:10284000918380831282138214821582E5EEF3E075
:10285000918380831282138214821582EBEEF3E05F
:10286000918380831282138214821582E1EFF3E058
:10287000138212824483558366837783AEE3B1E08B
:10288000B183A083E5E3F4E0918380831282138215
:1028900014821582E6E2F4E01382128244835583A7
:1028A000668377834CE551E05183408344E044875D
:1028B000CDEFD3E01B821A8240E551E05983488373
:1028C0009C8F8B8F1D8E1E8E1F8E18A238A72FA354
:1028D000FD83EC831EA21DA280E091E00E945D1B9F
:1028E0009F838E8380E091E0998788878FE090E0D6
:1028F0009B878A879D878C87DF91CF910895CF939F
:10290000DF93CDB7DEB767970FB6F894DEBF0FBE83
:10291000CDBF789484B5826084BD84B5816084BD68
:1029200085B5826085BD85B5816085BD80916E006D
:10293000816080936E00109281008091810082609E
:1029400080938100809181008160809381008091DB
:1029500080008160809380008091910082608093EC
:10296000910080919100816080939100809190000E
:102970008160809390008091C10084608093C10049
:102980008091C10082608093C1008091C10081600C
:102990008093C1008091C30081608093C3008091C7
:1029A000C00082608093C0008091C20081608093EB
:1029B000C20080917A00846080937A0080917A00CE
:1029C000826080937A0080917A00816080937A009F
:1029D00080917A00806880937A0010927C03109234
:1029E000E1021092E0028091D70081608093D700CD
:1029F00080EA8093D80089B5806189BD89B58260FD
:102A000089BD89B5282F21702F8B80FFFACF61E017
:102A100070E080E090E00E947E028091D8008F7C80
:102A200080618093D8008091E000807F8093E000F7
:102A30008091E1008E7E8093E1008DE08093E20042
:102A4000559A209A10926303109264031092F40234
:102A5000109216030E947D0B84EC94E09093E502A3
:102A60008093E40285EC94E09093E3028093E20289
:102A70008FEF9FEF90938A038093890361EC71E05D
:102A80008DE793E00E94630D6AE070E080E090E0E3
:102A90000E947E0265E871E08DE793E00E948C0C55
:102AA00067EC71E08DE793E00E948C0C64ED71E0BF
:102AB0008DE793E00E94630D8091E602811105C0CD
:102AC0000E94280881E08093E6020E9496060E94F8
:102AD000240862E081E10E94DC0640E068E084EDC9
:102AE00091E00E94280741E060E087E891E00E94C1
:102AF00028070E9496061A861982BE016F5F7F4FD3
:102B00002B01AB01675F7F4F81E10E948E07892B0C
:102B100011F48FEF8A870E9420088A858F3F69F021
:102B20001AE068E873E180E090E00E947E020E9473
:102B300075088D7F11F41150A1F70E94750883303C
:102B400069F064EF71E080E090E00E947E0267E34C
:102B500072E08DE793E00E948C0CEFCF67E871E0A4
:102B60008DE793E00E94630D6DED71E08DE793E0DA
:102B70000E94630D64EF71E08DE793E00E94630DA6
:102B80008AE791E09B878A871C861D861E861F86A2
:102B900087E0D2011D928A95E9F78FEE92E09B8340
:102BA0008A838BEE92E09E838D8387EE92E09987F5
:102BB00088878091E602811105C00E94280881E083
:102BC0008093E6020E9496060E94240861E081E25A
:102BD0000E94DC068FEF898B41E061E0CE014196D7
:102BE0000E9428070E949606188A0E947607892B61
:102BF000E1F1CE0140960E9458078889813AA9F5F3
:102C00000E946707282E882381F18201B12CA12C14
:102C1000682E712CA614B7040CF58FEF0E94C50620
:102C2000F8018083F12CE12CC82ED12CEC14FD048A
:102C30007CF4D80111968D909C908E0C9F1C8FEF88
:102C40000E94C506F4018083FFEFEF1AFF0AEECF62
:102C50002FEFA21AB20A0D5F1F4FDCCF33E0231211
:102C600004C0CE0140960E9458070E94200880911F
:102C7000EF029091F002A091F102B091F2028C87E4
:102C80009D87AE87BF876DE773E0CE010A960E94ED
:102C9000190D65E871E08DE793E00E948C0C82E0ED
:102CA00092E090931F0480931E048BE597E090932D
:102CB0002104809320048AE39EE09093170480937C
:102CC00016047CEF272E33243A9481E08093F3029C
:102CD000809315031092F4021092160305E613E098
:102CE00020916503C801855693402817190649F0BD
:102CF00044F0D8016D918D0181EF93E00E940B0C9F
:102D0000EFCF10911603113208F091C00E945902C2
:102D10004B015C0180913D03811164C082E080938E
:102D20003D0381E080933C038FEF80933B0310923F
:102D30003A0310933903A5EFB2E0E7E1F3E080E056
:102D40001813E9C010923803809138038260809391
:102D5000380380913703813009F0E1C010923703C6
:102D60000E9459024B015C01809138038093BB00A3
:102D700080913F0390914003A0914103B0914203A1
:102D8000892B8A2B8B2B99F00E94590200913F03CB
:102D90001091400320914103309142036819790951
:102DA0008A099B090617170728073907E0F1809160
:102DB000BC0083FDD9CF85EC8093BC000E945902F2
:102DC0004B015C0180913D03823009F4AAC08091DF
:102DD0003B038F3F61F180913B03803241F1809151
:102DE0003B0325C080913F0390914003A091410394
:102DF000B0914203892B8A2B8B2B09F48BCF0E9435
:102E0000590220913F03309140034091410350917A
:102E10004203681979098A099B0926173707480769
:102E2000590708F077CF80913E030E949B0B1092C8
:102E3000F402109216031092F302109265030E949E
:102E400059024B015C0180913D0381118CC081E0EE
:102E500080933D0380933C039FEF90933B0310923C
:102E60003A031092390380933803809138038260CB
:102E70008093380380913703813009F0BBC01092F2
:102E800037030E9459024B015C0180913803809303
:102E9000BB0080913F0390914003A0914103B0910A
:102EA0004203892B8A2B8B2BA1F00E94590200919F
:102EB0003F03109140032091410330914203681970
:102EC00079098A099B09061717072807390708F4A3
:102ED0006BC08091BC0083FDD8CF85EC8093BC0093
:102EE0000E9459024B015C0180913D03813009F43D
:102EF00083C080913A038111A1C080913A03E7E138
:102F0000F3E0A3E4B3E090E0981709F452C02191F4
:102F10002D939F5FF9CF9D9191938F5F11CF85EE98
:102F20004BCF80913F0390914003A0914103B0911A
:102F30004203892B8A2B8B2B09F444CF0E94590220
:102F400000913F03109140032091410330914203CF
:102F5000681979098A099B0906171707280739078D
:102F600008F030CF60CF80913F0390914003A09153
:102F70004103B0914203892B8A2B8B2B09F463CF39
:102F80000E94590200913F03109140032091410398
:102F900030914203681979098A099B0906171707B6
:102FA0002807390708F04FCF80913E030E949B0B02
:102FB00080E0109263038093640380916403909196
:102FC0006303891B990B18161906D4F581EF93E05A
:102FD0000E94CB0B1816190684F7BC01990F880BB9
:102FE000990B0E94E70C65E871E08DE793E00E9481
:102FF0008C0CE3CF85EE72CF80913F03909140031C
:10300000A0914103B0914203892B8A2B8B2B09F4A9
:103010006BCF0E94590200913F0310914003209111
:10302000410330914203681979098A099B090617FF
:1030300017072807390708F057CFB6CF8F895FCF1A
:103040000E94270181116EC10E943D0C0E94270140
:10305000811168C16FE072E08DE793E00E948C0CF3
:103060000E942701811151C18091010490910204B5
:10307000DC01ED91FC910688F789E02D0995882304
:1030800009F465C0E1E0F0E0F0930C04E0930B0478
:1030900087E0EAE1F1E0D20101900D928A95E1F733
:1030A000D20185E090E02D91E0910304F0910404B9
:1030B000E80FF91F208301968C309105A1F700914C
:1030C000030410910404E2ECD8011C96EC931C97C5
:1030D000809108041D968C931D97809107041E967D
:1030E0008C93E0900504F0900604B70189E392E028
:1030F0000E94101B4196E816F90608F05FC0809107
:10310000010490910204DC01ED91FC910488F589A1
:10311000E02D099561E672E08DE793E00E948C0C4A
:103120006091240470912504072E000C880B990BE4
:103130000E94E70C68E772E08DE793E00E94630D60
:1031400068E873E180E090E00E947E027FCF6091AA
:103150001E0470911F048091010490910204DC010F
:10316000ED91FC914091200450912104611571056D
:1031700071F00088F189E02D0995019709F482CF5B
:10318000EEEFFFEFF0932504E0932404C3CF068411
:10319000F785E02D6AE7C62E61E0D62EDA82C98275
:1031A00000911A0410911B0420911C0430911D04FD
:1031B0000B831C832D833E83B201DECF4FE050E0B2
:1031C000B80189E392E00E9405018C01E0900504BA
:1031D000F0900604B70185E492E00E94101B800F76
:1031E000911F0296E816F90608F489CF609103044E
:1031F00070910404A80185E492E00E9405018C010D
:10320000E0900504F0900604B7018BE492E00E9480
:10321000101B800F911F0296E816F90608F46FCF75
:103220006091030470910404A8018BE492E00E9471
:103230000501AC01455051096091030470910404EB
:1032400080E10E94BC020E94B00260930D04709362
:103250000E0480930F0490931004609311047093F4
:1032600012048093130490931404809101049091AC
:103270000204DC01ED91FC910084F185E02D0995BB
:10328000892B11F50E94B0020091110410911204D3
:1032900020911304309114044B015C01801A910AAF
:1032A000A20AB30A2091090430910A04A8EEB3E0FF
:1032B0000E94431B86169706A806B906B0F2309204
:1032C0002504209224041BCFCE010A960E946A0393
:1032D000643071058105910509F011CFE091030477
:1032E000F09104048381811117C00E94B0026093A1
:1032F0001104709312048093130490931404109299
:103300001504109225041092240467E572E08DE7FD
:1033100093E00E94630D98CE90E0909325048093F3
:103320002404EDCE0E942701882309F44AC00E949C
:10333000B0024B015C012091070430910804A8EE13
:10334000B3E00E94431B00911104109112042091DC
:1033500013043091140475016401C01AD10AE20A01
:10336000F30A970186016017710782079307B0F08F
:1033700000910D0410910E0420910F04309110045F
:1033800075016401C01AD10AE20AF30A97018601A5
:10339000601771078207930708F04CC080911504ED
:1033A0008823C9F0309225042092240480910104DE
:1033B00090910204DC01ED91FC910488F589E02DE7
:1033C00009950E94B00280E090E0892B09F47DCC41
:1033D0000E9400007ACCE0910304F091040480EC98
:1033E0008083E0910304F091040411828091010430
:1033F000909102046091030470910404DC01ED914A
:10340000FC910280F381E02D42E050E0099580922A
:103410000D0490920E04A0920F04B09210048092BA
:10342000110490921204A0921304B092140481E04B
:10343000809315048091010490910204DC01ED91C8
:10344000FC910084F185E02D0995892B09F4B9CF11
:10345000C2010E946A036A8B7B8B8C8B9D8B672BCE
:1034600009F4D5C08092110490921204A092130422
:10347000B0921404E0910304F09104048081807FF1
:10348000803309F0A3C08091160490911704892B12
:1034900009F497CF298130E0C90102968E0F9F1F52
:1034A000DF01A20FB31F11960C9110E0102F00271F
:1034B000DC016C91060F111D2D5F3F4FBF01620FA4
:1034C000731FA8010E94821CE981809103049091DE
:1034D0000404800F911FE80FF92FF11D1282E09173
:1034E0000304F0910404298130E0C90102968E0F93
:1034F0009F1F40814670D42E609016047090170470
:10350000B2E04B134FC0B801620F731FDF01A60F6B
:10351000B71F1396EC901397F12CFE2CEE24149603
:103520004C91E40EF11C4BEF5FEF421B530B401B21
:10353000510B2A893B89420F531F6B5F7F4F6E0FE0
:103540007F1FF3010995E0910304F091040480E4E6
:103550008083E0910304F0910404D182E09103049C
:10356000F0910404F282E0910304F0910404E382F8
:10357000809101049091020460910304709104040D
:10358000DC01ED91FC910280F381E02D44E050E0FC
:10359000099580920D0490920E04A0920F04B092AF
:1035A00010040FCF4DEF5FEF421B530B401B510B2D
:1035B000CA88DB884C0D5D1D2D5F3F4F200F311FEA
:1035C000BF01620F731FF3010995FBCE803CC9F464
:1035D00080ED8083E0910304F091040411828091D6
:1035E0000104909102046091030470910404DC01D1
:1035F000ED91FC910280F381E02D42E050E00995CD
:10360000E0CE803D09F0DDCE10921504DACE0E94A6
:103610002701D7CE80910304909104040C94F91BE8
:10362000FC016150704001900110D8F78095909591
:103630008E0F9F1F0895A1E21A2EAA1BBB1BFD012E
:103640000DC0AA1FBB1FEE1FFF1FA217B307E40781
:10365000F50720F0A21BB30BE40BF50B661F771FD9
:10366000881F991F1A9469F76095709580959095B9
:103670009B01AC01BD01CF010895EE0FFF1F059026
:10368000F491E02D0994A29FB001B39FC001A39FC4
:10369000700D811D1124911DB29F700D811D11248B
:1036A000911D08950E94431BA59F900DB49F900DFE
:1036B000A49F800D911D112408950F931F93CF9304
:1036C000DF938230910510F482E090E0E0913D04B8
:1036D000F0913E0430E020E0B0E0A0E0309799F4B3
:1036E0002115310509F44AC0281B390B2430310556
:1036F000D8F58A819B816115710589F1FB0193835E
:103700008283FE0111C040815181028113814817DB
:103710005907E0F04817590799F4109761F012968D
:103720000C93129713961C933296CF01DF91CF9191
:103730001F910F91089500933D0410933E04F4CF20
:103740002115310551F04217530738F0A901DB016B
:103750009A01BD01DF01F801C1CFEF01F9CF9093CC
:103760003E0480933D04CDCFFE01E20FF31F819311
:1037700091932250310939832883D7CF20913B047C
:1037800030913C04232B41F4209116013091170114
:1037900030933C0420933B04209114013091150197
:1037A0002115310541F42DB73EB7409118015091D4
:1037B0001901241B350BE0913B04F0913C04E21706
:1037C000F307A0F42E1B3F0B2817390778F0AC0144
:1037D0004E5F5F4F2417350748F04E0F5F1F509321
:1037E0003C0440933B04819391939FCFF0E0E0E051
:1037F0009CCFCF93DF930097E9F0FC0132971382BF
:103800001282A0913D04B0913E04ED0130E020E031
:103810001097A1F420813181820F931F20913B04E6
:1038200030913C042817390709F061C0F0933C043B
:10383000E0933B04DF91CF910895EA01CE17DF07B3
:10384000E8F54A815B819E0141155105B1F7E90117
:10385000FB83EA8349915991C40FD51FEC17FD07EB
:1038600061F4808191810296840F951FE90199830B
:103870008883828193819B838A83F0E0E0E01296C3
:103880008D919C9113970097B9F52D913C911197CB
:10389000CD010296820F931F20913B0430913C048E
:1038A0002817390739F6309751F510923E041092D7
:1038B0003D04B0933C04A0933B04BCCFD383C283AC
:1038C00040815181840F951FC817D90761F44E5F5D
:1038D0005F4F88819981480F591F518340838A81A6
:1038E0009B81938382832115310509F0B0CFF0933A
:1038F0003E04E0933D049ECFFD01DC01C0CF138266
:103900001282D7CF6817790768F4FB01DC01E40F56
:10391000F51FA40FB51F02C002900E9241505040F7
:10392000D8F708950C94941CFB01DC0102C00190AF
:103930000D9241505040D8F7089510E0CAEDD0E004
:1039400004C0FE010E943D1B2196CB3DD107C9F763
:04395000F894FFCF19
:10395400FFFFFFFFFFFFFFFFFFFFFFFF00E100008E
:103964000000000000003F04800000044D51545446
:103974000400C1808100000000000000DD0558053E
:10398400FE05F305440602062006000000000B0CA9
:10399400DE0B3A0CA909BD04CB0BBC0B00000000E4
:1039A4007E065E063A0C250900000000400B9A0AC8
:1039B4003A0CA9095C0A380AAA097C0DBE0ECE0984
:1039C40042092E09260900000000190D77656232AC
:1039D4005A756D6F000D0A004E6F20536F636B654F
:1039E4007420617661696C61626C65004D656C641C
:1039F400696E6720616E6B6F6D6D657420746F7096
:103A040069633A20002E204D656C64696E673A2024
:103A1400007374617274004B6F626C657220746918
:103A24006C3A20004E544E552D494F540057694668
:103A340069206B6F626C696E67206F707072657459
:103A44007465740049502061646472657373653AE7
:103A5400200031302E32352E31382E3133380046A5
:103A64006F7273C3B86B657220C3A5206F707072D8
:103A740065747465206B6F626C696E672074696C21
:103A8400206D7174742E2E2E004553503332636CA6
:103A940069656E74006E6A61616C0033496E7368A7
:103AA400616C6C61683400636F6E6E656374656429
:103AB400006D69736C796B6B6574206B6F626C69F4
:103AC4006E672C2072633D00205072C3B876657215
:103AD4002069676A656E206F6D20352073656B758C
:043AE4006E6400000C
:00000001FF
