:100000000C9458010C9480010C9480010C94800194
:100010000C9480010C9480010C9480010C9480015C
:100020000C9480010C9480010C94D3100C94421118
:100030000C9480010C9480010C9480010C9480013C
:100040000C9480010C9480010C9480010C9480012C
:100050000C9480010C9480010C9480010C94891004
:100060000C9480010C9480010C9480010C9480010C
:100070000C9480010C9480010C9480010C948001FC
:100080000C9480010C9480010C9480010C948001EC
:100090000C9474130C9480010C9480010C948001D6
:1000A0000C9480010C9480010C94800100407A1023
:1000B000F35A00A0724E18090010A5D4E80000E819
:1000C0007648170000E40B54020000CA9A3B000077
:1000D00000E1F505000080969800000040420F0006
:1000E0000000A08601000000102700000000E803C7
:1000F000000000006400000000000A000000000092
:100100000100000000002C76D888DC674F0823DF50
:10011000C1DFAE59E1B1B796E5E3E453C63AE65123
:10012000997696E8E6C28426EB898C9B62ED407C4A
:100130006FFCEFBC9C9F40F2BAA56FA5F490055AE6
:100140002AF75C936B6CF9676DC11BFCE0E40D470B
:10015000FEF520E6B500D0ED902E0300943577052E
:100160000080841E080000204E0A000000C80C33E6
:100170003333330F986E12831141EF8D2114893B75
:10018000E65516CFFEE6DB18D1844B381BF77C1DF5
:10019000901DA4BBE424203284725E228100C9F148
:1001A00024ECA1E53D2700000000230026002900E3
:1001B0002C002F00080B00020202000009040000BE
:1001C00001020200000524001001052401010104C0
:1001D00024020605240600010705810310004009DA
:1001E000040100020A0000000705020240000007A7
:1001F0000583024000000403090412010002EF021B
:100200000140FB1F0023000101020301506F6C6FCE
:100210006C7520436F72706F726174696F6E0050FD
:100220006F6C6F6C7520412D5374617220333255A1
:10023000340000000000240027002A002D003000B8
:1002400000000000250028002B002E0031000404CF
:10025000040404030405020202020403020202026F
:100260000606060606060404020202040404080246
:10027000011040804010204080408008020401802E
:100280004020100201108010204040200000000299
:1002900000090F0000030401000C00000000000032
:1002A000000000000000000000000000C214661AF8
:1002B00011241FBECFEFDAE0DEBFCDBF24E0A2ECF9
:1002C000B2E001C01D92AB31B207E1F712E0A0E04D
:1002D000B1E0EEEBFEE302C005900D92A23CB10747
:1002E000D9F711E0C7E5D1E004C02197FE010E94D3
:1002F0003F1DC635D107C9F70E9447150C94521F00
:100300000C940000CF93DF93EC01FA013296E60FD4
:10031000F71FDC019D012C1B3D0BCF01861B970BAA
:100320004D91442311F04193F5CFAC01421B530B87
:10033000640F751FFB013297308361507109FB0117
:100340002083DF91CF9108958091DD039091DE03AA
:10035000009711F480E02FC0DC01ED91FC9106883C
:10036000F789E02D09952091000430910104811155
:100370001FC0232B79F78DEF9FEF9093010480939B
:1003800000048091DD039091DE03DC01ED91FC918E
:100390000680F781E02D09958091DD039091DE03C1
:1003A000DC01ED91FC910488F589E02D0995D2CF0F
:1003B00081E0232B79F60895FC0180916403882362
:1003C00011F13FB7F89482E08093E9002091F200A8
:1003D000822F90E01816190614F481E090E088232B
:1003E00039F0289844E6409363034091F10040833C
:1003F000222339F02091F200211103C02BE6209333
:10040000E8003FBF08958FEF9FEF08952FB7F8944E
:1004100083E08093E9009091E800892F807295FF36
:1004200004C09091F20080E4891B2FBF0895809151
:100430005B0381110DC082E08093570384E08093B9
:10044000580310925A031092590381E080935B0382
:1004500087E593E0089581508F3008F047C0E82F7A
:10046000F0E0EB5CFD4F0C943F1D5202560244023B
:100470004A024E0276027602760259025F02630257
:1004800067026D0276027102809180008F778093FF
:1004900080000895809180008F7DF9CF8091800049
:1004A000877FF5CF84B58F7784BD089584B58F7D20
:1004B000FBCF809190008F7780939000089580917A
:1004C00090008F7DF9CF80919000877FF5CF80914C
:1004D000C0008F778093C00008958091C0008F7D09
:1004E000F9CF8091C200877F8093C20008951F9347
:1004F000CF93DF93282F30E0F901E457FD4F84912B
:10050000F901E359FD4FD491F901E25BFD4FC4912C
:10051000CC23A9F0162F81110E942B02EC2FF0E0C2
:10052000EE0FFF1FE05CFD4FA591B4918FB7F894DB
:10053000EC91111108C0D095DE23DC938FBFDF91C1
:10054000CF911F910895DE2BF8CFCF93DF9390E0EA
:10055000FC01E359FD4F2491825B9D4FFC01849186
:100560008823D1F090E0880F991FFC01EE5CFD4FCD
:10057000A591B491FC01E05CFD4FC591D49161114E
:100580000EC09FB7F8948C91E22FE0958E238C9348
:100590002881E223E8839FBFDF91CF9108958FB731
:1005A000F894EC91E22BEC938FBFF6CF3FB7F89421
:1005B0008091530390915403A0915503B091560339
:1005C00026B5A89B05C02F3F19F00196A11DB11DAE
:1005D0003FBFBA2FA92F982F8827BC01CD01620FEA
:1005E000711D811D911D42E0660F771F881F991FA5
:1005F0004A95D1F708958F929F92AF92BF92CF9272
:10060000DF92EF92FF924B015C010E94D6026B01D8
:100610007C010E94D6026C197D098E099F09683EF3
:10062000734081059105A8F321E0821A9108A10881
:10063000B10888EEC80E83E0D81EE11CF11C8114BD
:100640009104A104B10429F7FF90EF90DF90CF90BF
:10065000BF90AF909F908F9008952FB7F8946091BE
:100660004F037091500380915103909152032FBF1B
:100670000895EF92FF920F931F93CF93DF9300D0D3
:1006800000D0CDB7DEB7FA0120E08E010F5F1F4F1B
:100690009E2F9F77EE0FEF2FEE1FFF0BF1953097F8
:1006A00009F09068D801A20FB11D9C932F5F30977D
:1006B00079F730E0FB01E21BF30B8483FB01E21BC3
:1006C000F30B3596D801CD01801B910B8217930750
:1006D0001CF48D918193F7CF2F5F3F4F8091DD0305
:1006E0009091DE038901040F151F621B730B6B5F72
:1006F0007F4FDC01ED91FC910280F381E02DA80198
:1007000009957C010E942D036093E9037093EA032D
:100710008093EB039093EC0381E00E151F0509F025
:1007200080E00F900F900F900F90DF91CF911F916D
:100730000F91FF90EF9008958F929F92AF92BF928A
:10074000CF92DF92EF92FF92CF93DF93EC010E9462
:100750002D034B015C018091DD039091DE03DC01F0
:10076000ED91FC910084F185E02D0995892BB9F478
:100770000E942D036B017C01C818D908EA08FB0808
:100780002091E5033091E603A8EEB3E00E940E1D30
:10079000C616D706E806F906F0F280E00DC0809193
:1007A000DD039091DE03DC01ED91FC910284F38581
:1007B000E02D0995888381E0DF91CF91FF90EF9044
:1007C000DF90CF90BF90AF909F908F9008952F9221
:1007D0003F924F925F926F927F928F929F92AF92D1
:1007E000BF92CF92DF92EF92FF920F931F93CF931E
:1007F000DF93CDB7DEB72A970FB6F894DEBF0FBEF2
:10080000CDBF1C018091DF039091E0030E949C0307
:1008100081111CC060E070E0CB012A960FB6F894FD
:10082000DEBF0FBECDBFDF91CF911F910F91FF9023
:10083000EF90DF90CF90BF90AF909F908F907F9080
:100840006F905F904F903F902F900895E091DF035D
:10085000F091E003D0801982EE24E394F12C812CF6
:10086000912C5401412C512C32014394CE0101961C
:100870000E949C03882371F287010F5F1F4F8981BB
:10088000E091DF03F091E003EE0DFF1D8083E9812D
:10089000AE2FAF77B0E0A30192010E94CC1C860E70
:1008A000971EA81EB91E37E0440C551C661C771C09
:1008B0003A95D1F7E7FD3FC0BD2DB07FBE838FEFE6
:1008C000800FF1018083B03309F04CC08091DF03C9
:1008D0009091E003800F911F0E949C03882309F4EC
:1008E00099CF2091DF033091E003C7010296820F78
:1008F000931F0E949C03882309F48CCF0E5F1F4F27
:10090000E091DF03F091E003D1018C91DF01A80FAA
:10091000B11D11968C91119790E0982F882712960F
:100920002C91820F911D208121FD0296F2E0E0E0E2
:1009300030E020E01DC078010530110509F096CFA8
:100940008FEF9FEF90930104809300048091DD036B
:100950009091DE03DC01ED91FC910488F589E02D96
:10096000099558CFF0E0E0E030E020E090E080E052
:1009700070E060E0CF2EDE2EE32EF22E28013B0148
:100980004C185D086E087F084A825B826C827D820B
:100990002C01712C612C4F82588669867A864A8098
:1009A0005B806C807D804C0C5D1C6E1C7F1CC814B1
:1009B000D904EA04FB0408F046C0CE0101960E9467
:1009C0009C03882309F426CF8091FE039091FF03B6
:1009D000009711F12E812033F9F4D1012C914EEFC3
:1009E0005FEF6FEF7FEF421B510961097109440E00
:1009F000551E661E771E2F81388549855A85241518
:100A000035054605570540F4DC01ED91FC91019058
:100A1000F081E02D698109958091E1039091E203D5
:100A20000817190750F48981E091DF03F091E00382
:100A3000E00FF11F80830F5F1F4FBFEFCB1ADB0A60
:100A4000EB0AFB0AACCF8091FE039091FF03892B48
:100A500069F48091E1039091E203B0E0A0E0841595
:100A60009505A605B70510F410E000E0B80190E088
:100A700080E0D3CE40913703509138032091350365
:100A80003091360342175307B4F49091E800957003
:100A9000E1F39091E80092FD19C08093F1008091FC
:100AA00037039091380301968F739927892B19F496
:100AB0008EEF8093E8008091370390913803019680
:100AC000909338038093370381E0089580E0089580
:100AD000DF92EF92FF920F931F93CF93DF93D82E65
:100AE0008A01EB017B01E40EF51ECE15DF0559F0FE
:100AF000D7FE12C0FE0184910E943A052196811111
:100B0000F4CF0FEF1FEFC801DF91CF911F910F912D
:100B1000FF90EF90DF9008958881EECF0F931F93A1
:100B2000CF93DF931F92CDB7DEB782E0898342E493
:100B300050E064EB71E080E80E9468050E941702B3
:100B4000DC0112960D911C910115110589F0D80157
:100B5000ED91FC910280F381E02DBE016F5F7F4F2C
:100B6000C801099597FD04C0F80100851185ECCFF7
:100B700089810F90DF91CF911F910F91089561505E
:100B800030F02091F100FC0120830196F8CF2898E5
:100B900084E68093630308958F929F92AF92BF92F1
:100BA000CF92DF92EF92FF920F931F93CF93DF9339
:100BB0006C017B018A0180911301882309F45CC0D8
:100BC00080916403882309F457C080913B0380FF20
:100BD00005C08091E00082608093E000E801B12CC4
:100BE0008AEFA82E93E0892E2AE3922E209711F403
:100BF000BB20D9F10E94060281110AC0AA94AA2042
:100C0000D9F161E070E080E090E00E94FB02EECF5D
:100C10008C171D0611F00CF08C2F9FB7F894809262
:100C2000E9002091E80025FD02C09FBFDFCF282FFB
:100C300030E0C21BD30BF701815020F0419140936B
:100C4000F100FACFE20EF31EBB2021F09092E800F3
:100C5000B12CEBCF8091E80085FDE7CF9092E800C2
:100C6000BB24B394209709F3F3CF5D9884E6809377
:100C70003A03101611063CF081E090E0F6019383F0
:100C8000828310E000E0C801DF91CF911F910F91A6
:100C9000FF90EF90DF90CF90BF90AF909F908F909C
:100CA0000895CF93DF931F92CDB7DEB76983DC0140
:100CB000ED91FC910280F381E02D41E050E0BE0116
:100CC0006F5F7F4F09950F90DF91CF91089583E07B
:100CD0008093E9008091F200882319F08AE38093E1
:100CE000E80008950E94060290E00895CF93DF93F4
:100CF0001F92CDB7DEB7FC018485958597FD08C0AE
:100D00002FEF3FEF358724870F90DF91CF91089524
:100D1000CE0101960E94DC01019719F4898190E0CF
:100D2000F3CF8FEF9FEFF0CF0F931F93CF93DF930E
:100D30001F92CDB7DEB78C01FC018485958597FFA6
:100D40000BC0CE0101960E94DC01019771F48981EC
:100D500090E0F80195878487F801848595850F9048
:100D6000DF91CF911F910F9108958FEF9FEFF1CFFA
:100D7000FC018485958597FD0BC09FB7F89482E0B0
:100D80008093E9008091F2009FBF90E00196089562
:100D90009FB7F89482E08093E9008091F2009FBFB2
:100DA00090E008952091EB02260F3327331F213264
:100DB0003105ECF420910F03FC0190E080E0243039
:100DC00069F082E00895A091EB022191AC014553B6
:100DD0005D4FA40FB52FB11D2C930196861798F384
:100DE0008091EB02680F6093EB0280E0089581E050
:100DF000089508958FEF9FEF08958FEF9FEF089567
:100E00008091C40290E09195819591090895CF93C6
:100E1000DF93CB01EA01642F0E94D206CE01DF915D
:100E2000CF910895CF93DF931F92CDB7DEB769833B
:100E300061E0CE0101960E94D20681E090E00F9021
:100E4000DF91CF910895EF92FF920F931F93CF936D
:100E5000DF93EC018B017A010E942D03688B798B63
:100E60008A8B9B8B8C819D81DC01ED91FC910280B2
:100E7000F381E02DA701B801DF91CF911F910F9170
:100E8000FF90EF9009941F93CF93DF93EC01162FFF
:100E90000E942D03688B798B8A8B9B8B8C819D8123
:100EA000DC01ED91FC910190F081E02D612FDF914B
:100EB000CF911F910994CF92DF92EF92FF920F93FF
:100EC0001F93CF93DF93C3E9D2E004E712E095E5E7
:100ED000E92E92E0F92EFE018491F801C490F70109
:100EE000D490DD2071F081110E942B02ED2DF0E0F5
:100EF000EE0FFF1FEA55FE4FA591B4918C91C822C9
:100F000051F7DF91CF911F910F91FF90EF90DF90FC
:100F1000CF900895CF93DF931F92CDB7DEB789832B
:100F200089818EBD00000DB407FEFDCF8EB52AE08D
:100F300030E0000021503109E1F70F90DF91CF91AF
:100F40000895CF93DF93D82FC62F80EE0E948A0793
:100F500083E290E00197F1F78D2F0E948A078C2F92
:100F60000E948A07C11105C08EEEDF91CF910C94CB
:100F70008A07DF91CF910895DF92EF92FF920F934E
:100F80001F93CF93DF93D82EE92E8B01F42E812F60
:100F90000E948A07802F0E948A07CD2DDE2D0C0F1C
:100FA0001D1FC017D10721F089910E948A07F9CF30
:100FB00081E0F8120AC08EEEDF91CF911F910F9160
:100FC000FF90EF90DF900C948A07DF91CF911F91F3
:100FD0000F91FF90EF90DF900895DF92EF92FF92D4
:100FE0000F931F93CF93DF937C01C62FD42E862FB0
:100FF0000E948A078701D0E0C8018E199F098C17CB
:101000009D0734F4F80181918F010E948A07F4CF83
:10101000F1E0DF120AC08EEEDF91CF911F910F91A8
:10102000FF90EF90DF900C948A07DF91CF911F9192
:101030000F91FF90EF90DF900895CF93DF93EC0135
:101040008FEF0E948A0788838AE090E00000019772
:10105000E9F7DF91CF910895CF93DF931F92CDB73A
:10106000DEB71982CE0101960E941D0889810F907A
:10107000DF91CF910895CF93DF93C9EED3E00E9423
:101080002C088F3E69F0219711F0803EC1F721E0D6
:1010900090E0803E09F020E0822FDF91CF9108950B
:1010A0008FEF9FEFFACFCF92DF92EF92FF920F93E5
:1010B0001F93CF93DF931F92CDB7DEB7182F6B012D
:1010C0007A0119820E943B08892B61F490E080E04C
:1010D0000F90DF91CF911F910F91FF90EF90DF90D4
:1010E000CF900895CE0101960E941D081068898155
:1010F0001813ECCFCE0101960E941D088981813022
:1011000029F78FEF0E948A07F701808310E000E043
:10111000F70180818017110649F044F0C601800F65
:10112000911F0E941D080F5F1F4FF2CFCE01019645
:101130000E941D0881E090E0CBCFCF92DF92EF922A
:10114000FF920F931F93CF93DF931F92CDB7DEB71C
:10115000182F7B016A0119820E943B08892B61F4D8
:1011600090E080E00F90DF91CF911F910F91FF9061
:10117000EF90DF90CF900895CE0101960E941D0858
:10118000106889811813ECCF0E942C088823B1F0D5
:101190008FEF0E948A07F60180838701F601208184
:1011A000C8018E199F092817190641F03CF08FEFEE
:1011B0000E948A07F80181938F01F0CFCE0101963A
:1011C0000E941D0881E090E0CDCF61E08AE00C94A0
:1011D000770260E08AE00C947702CF93CFB7F8945F
:1011E0008091C302811127C0EFE5F2E08491EEE720
:1011F000F2E09491E82FF0E0EE0FFF1FEE5CFD4F60
:10120000A591B491EC91E92321F461E081E10E9480
:10121000770261E081E10E94A5028CB580618CBDFE
:101220008CB580648CBD61E08FE00E94A50261E016
:1012300080E10E94A5028091C3028F5F8093C30268
:10124000CFBF61E08AE00E94A50260E087E00E94D3
:10125000A50261E089E00E94A50261E081E10E94AF
:10126000770261E08AE00E94770260E089E0CF9136
:101270000C947702CF93DF9300D0CDB7DEB7809187
:101280003D03811105C00E94ED0881E080933D037C
:101290000E945B070E94E90860E080E20E94A107CB
:1012A0000E945B078FEF89831A82AE014E5F5F4F0A
:1012B000BE016F5F7F4F80E20E9453080E94E508E5
:1012C00089810F900F90DF91CF910895FF920F9336
:1012D0001F93CF93DF9300D01F92CDB7DEB78B83E0
:1012E0008B01F42E8091C202811105C00E94ED088D
:1012F00081E08093C2020E945B070E94E90862E0DD
:101300008CE20E94A10740E061E0CE0103960E94BA
:10131000ED0782E00E948A0780E00E948A078F2DF5
:101320000E948A078EEE0E948A070E945B0719823C
:101330001A82AE014E5F5F4FBE016F5F7F4F8CE23E
:101340000E949D080E94E5088A81882369F08981AE
:10135000F801808381E00F900F900F90DF91CF9183
:101360001F910F91FF90089580E0F5CFCF93DF9309
:1013700000D01F92CDB7DEB78B838091C20281115E
:1013800005C00E94ED0881E08093C2020E945B07C5
:101390000E94E90861E08FE20E94A10741E061E05C
:1013A000CE0103960E94ED070E945B0719821A8204
:1013B000AE014E5F5F4FBE016F5F7F4F8FE20E94B5
:1013C00053080E94E50889810F900F900F90DF91DC
:1013D000CF910895089521E0FC0184858F3F09F4A1
:1013E00020E0822F0895FC0184858F3F71F00E94D8
:1013F000B609843038F09BEF980F933018F091E0E5
:101400008A3009F490E0892F089580E00895EF92E2
:10141000FF920F931F93CF93DF9300D01F92CDB70E
:10142000DEB7FC0194859F3F09F44EC08F019B837A
:101430008091C202811105C00E94ED0881E0809375
:10144000C2020E945B070E94E90861E08EE20E94EE
:10145000A10741E061E0CE0103960E94ED070E94E2
:101460005B071A821982AE014F5F5F4FBE016E5F4C
:101470007F4F8EE20E9453080E94E508D8011C9617
:10148000EC91F0E0EE0FFF1FE050FF4F8FEF9FEF6A
:101490009183808392E3E92EF12CF80184858F3FBC
:1014A00079F00E94B609882359F0F1E0EF1AF108AB
:1014B00039F064E670E080E090E00E94FB02EDCF3E
:1014C0008FEFD8011C968C930F900F900F90DF91A7
:1014D000CF911F910F91FF90EF9008950F931F935D
:1014E000CF93DF931F92CDB7DEB78C01DC01ED9176
:1014F000FC910084F185E02D0995892B81F041E074
:10150000BE016F5F7F4FF80184850E946609898163
:1015100090E00F90DF91CF911F910F9108958FEF81
:101520009FEFF7CFCF92DF92EF92FF920F931F932F
:10153000CF93DF9300D0CDB7DEB76B017A01FC010A
:1015400084858A838091C202811105C00E94ED08C2
:1015500081E08093C2020E945B070E94E90861E07B
:1015600085E40E94A10741E061E070E0CE010296AF
:101570000E94BC070E945B0719820E943B08892BCE
:1015800029F1CE0101960E941D088981853CF1F464
:101590000E942C088823B1F08FEF0E948A07E82E62
:1015A0008FEF0E948A07FE2CE82E8601CE0CDF1CEE
:1015B000C016D10639F08FEF0E948A07F801819397
:1015C0008F01F6CFCE0101960E941D080E94E5080A
:1015D00081E090E0EF2811F090E080E09195819516
:1015E00091090F900F90DF91CF911F910F91FF9074
:1015F000EF90DF90CF9008950F931F93CF93DF93D9
:101600001F92CDB7DEB78C01DC01ED91FC91008417
:10161000F185E02D0995892B81F040E0BE016F5FD7
:101620007F4FF80184850E946609898190E00F90C0
:10163000DF91CF911F910F9108958FEF9FEFF7CF1B
:10164000CF93DF9300D000D0CDB7DEB7FC01848507
:101650008F3F89F18C838091C202811105C00E9465
:10166000ED0881E08093C2020E945B070E94E908B6
:1016700061E08BE20E94A10741E061E0CE010496A7
:101680000E94ED070E945B071B821A821982AE013D
:101690004D5F5F4FBE016F5F7F4F8BE20E9453082B
:1016A0000E94E50889819A810F900F900F900F900A
:1016B000DF91CF91089590E080E0F6CFBF92CF9276
:1016C000DF92EF92FF920F931F93CF93DF9300D09F
:1016D00000D0CDB7DEB76C018B017A01FC018485A7
:1016E0008430B0F081E090E0F60193838283F12CA6
:1016F000E12CC7010F900F900F900F90DF91CF91C9
:101700001F910F91FF90EF90DF90CF90BF900895C1
:10171000452B41F38C838091C202811105C00E9448
:10172000ED0881E08093C2020E945B070E94E908F5
:1017300062E084E40E94A10740E061E070E0CE0135
:1017400004960E94BC0741E0B701C8010E94BC0793
:101750000E945B071A821982AE014F5F5F4FBE0184
:101760006E5F7F4F84E40E949D080E94E508898196
:10177000882309F4B7CF8A81813009F0B3CFF6010D
:1017800084858B831A82198210E000E0BB24B39415
:101790008091C202811104C00E94ED08B092C20281
:1017A0000E945B070E94E90861E08AE20E94A107AB
:1017B00041E061E0CE0103960E94ED070E945B07C5
:1017C000AE014F5F5F4FBE016E5F7F4F8AE20E94A6
:1017D00053080E94E5088A81811113C00F5F1F4FD3
:1017E00064E670E080E090E00E94FB028A81811153
:1017F00003C00931110560F20931110509F472CFF6
:1018000078CF10E000E0F2CFCF93DF931F92CDB7F7
:10181000DEB76983DC01ED91FC910280F381E02D5C
:1018200041E050E0BE016F5F7F4F09950F90DF915F
:10183000CF91089590E080E00895CF93DF93C09119
:10184000E103D091E203BE018AE691E00E948A1A88
:101850000996C817D907E0F10E94A4018823C1F1B5
:101860008091E7039091E803019679F19093E80362
:101870008093E703E091DF03F091E0038091E803B8
:101880008583E091DF03F091E0038091E703868395
:101890006091DF037091E00347E050E08AE691E059
:1018A0000E948201E091DF03F091E003E80FF91F4D
:1018B0001082AC01445051096091DF037091E00344
:1018C00082E8DF91CF910C94390381E090E0CECF94
:1018D00080E0DF91CF910895EF92FF920F931F93D5
:1018E000CF93DF93EC018B010E94A401882309F4BC
:1018F00040C0E090E103F090E203B7018AE691E096
:101900000E948A1A9801295F3F4F820F931FE816A1
:10191000F90678F16091DF037091E00345E050E053
:101920008AE691E00E9482017E01E00EF11EFE0136
:10193000EC01CE1BDF0BAE014E0F5F1F6091DF038A
:101940007091E003EE16FF0631F02191640F751FD0
:10195000DB012C93F0CF05501109A801480F591F46
:1019600080E3DF91CF911F910F91FF90EF900C9446
:10197000390380E0DF91CF911F910F91FF90EF909D
:101980000895FB0101900020E9F73197AF01461B54
:10199000570BDC01ED91FC910280F381E02D09945D
:1019A0008F929F92AF92BF92EF92FF920F931F93ED
:1019B000CF93DF93CDB7DEB7A1970FB6F894DEBF14
:1019C0000FBECDBF7C01FA01CB0119A2223008F471
:1019D0002AE08E010F5D1F4F822E912CB12CA12C7D
:1019E000BF01A50194010E941D1DF901CA016A30C1
:1019F0000CF5605DD8016E938D01232B242B252BD4
:101A000079F790E080E0109721F0BD01C7010E94B6
:101A1000C10CA1960FB6F894DEBF0FBECDBFDF910B
:101A2000CF911F910F91FF90EF90BF90AF909F903B
:101A30008F900895695CDECF8F929F92AF92BF9294
:101A4000CF92DF92EF92FF920F931F93CF93DF938A
:101A50007C01EB016C0182E0C80ED11C4701E5E07E
:101A60008E0E911C10E000E0F60141916F0150E0F4
:101A700070E060E02AE0CE010E94D00C5C01E881B9
:101A8000F9810190F081E02D6EE2CE0109958A0D79
:101A90009B1D080F191FC814D90431F7F7014581A0
:101AA00050E070E060E02AE0CE010E94D00C800F90
:101AB000911FDF91CF911F910F91FF90EF90DF90D9
:101AC000CF90BF90AF909F908F900895009729F08E
:101AD000BC0185E693E00C94C10C90E080E0089591
:101AE0000F931F93CF93DF938C01D0E0C0E061157B
:101AF000710519F00E94C10CEC0167E771E0C801A3
:101B00000E94C10C8C0F9D1FDF91CF911F910F91EF
:101B10000895CF92DF92EF92FF920F931F93CF938E
:101B2000DF93CDB7DEB728970FB6F894DEBF0FBEB0
:101B3000CDBF8C01F42EE52EE0E0F1E090E080E0F6
:101B4000219131912F3F3F4F29F00196843091052B
:101B5000B9F78FEFD8011C968C938F3F09F48EC094
:101B6000FB01428153816481758149835A836B8370
:101B70007C8388871D828091C202811105C00E94EA
:101B8000ED0881E08093C2020E945B070E94E90891
:101B900064E08DE20E94A10740E064E0CE0101967E
:101BA0000E94ED0782E00E948A078E2D0E948A071C
:101BB0008F2D0E948A0740E061E0CE0108960E94C6
:101BC000ED0741E061E0CE0105960E94ED070E941D
:101BD0005B071F821E82AE014A5F5F4FBE01695FD5
:101BE0007F4F8DE20E9453080E94E508D8011C96A1
:101BF0008C9190E0FC01EE0FFF1FE050FF4F9183AE
:101C000080830E942D036B017C01D801ED91FC9132
:101C10000688F789E02DC8010995811112C00E943C
:101C20002D036C197D098E099F096031774281056A
:101C3000910538F461E070E080E090E00E94FB02E2
:101C4000E4CFD801ED91FC910688F789E02DC80119
:101C5000099521E090E0811101C020E0822F2896B3
:101C60000FB6F894DEBF0FBECDBFDF91CF911F91AD
:101C70000F91FF90EF90DF90CF9008956AE771E0A9
:101C800085E693E00E94700D80E090E0E8CF3F92FF
:101C90004F925F926F927F928F929F92AF92BF927C
:101CA000CF92DF92EF92FF920F931F93CF93DF9328
:101CB000CDB7DEB72B970FB6F894DEBF0FBECDBF02
:101CC0007C018B016A0180913D03811105C00E9456
:101CD000ED0881E080933D030E945B070E94E908C4
:101CE00061E084E30E94A107F80101900020E9F778
:101CF0003197BF01601B710B41E0C8010E94ED07E5
:101D00000E945B071F821982AE014F5F5F4FBE01C9
:101D1000695F7F4F84E30E945308182F0E94E508F3
:101D200011111AC090E080E02B960FB6F894DEBF38
:101D30000FBECDBFDF91CF911F910F91FF90EF901C
:101D4000DF90CF90BF90AF909F908F907F906F90DB
:101D50005F904F903F9008950AE01FEF3324339433
:101D60001B831C831D831E8380913D03811104C04E
:101D70000E94ED0830923D030E945B070E94E90833
:101D800060E085E30E94A1070E945B071B86AE010D
:101D9000455F5F4FBE01695F7F4F85E30E94530837
:101DA000892B61F40E94E508015009F4BBCF68EE6D
:101DB00073E080E090E00E94FB02D2CF4F80588415
:101DC00069847A848B809C80AD80BE800E94E50807
:101DD00084149504A604B70439F3D701ED91FC915E
:101DE0000684F785E02D88E691E09A8389834B820B
:101DF0005C826D827E82A601BE016F5F7F4FC7014C
:101E0000099592CF0F931F93CF93DF93EC018881B5
:101E10009981009759F02A813B812617370730F0C6
:101E200081E0DF91CF911F910F9108958B016F5F3A
:101E30007F4F0E946A1E009759F0998388831B8305
:101E40000A832C813D81232B59F7FC011082E8CFB6
:101E500080E0E7CFEF92FF920F931F93CF93DF9332
:101E6000EC01198218821B821A821D821C82611564
:101E70007105E1F08B01FB0101900020E9F731973A
:101E80007F01E61AF70AB7010E94020F2881398103
:101E9000811113C02115310519F0C9010E94E11DFE
:101EA000198218821D821C821B821A82DF91CF91B7
:101EB0001F910F91FF90EF900895FD82EC82B80181
:101EC000C901DF91CF911F910F91FF90EF900C947A
:101ED0004B1F1F93CF93DF9385ED8093BC008091C0
:101EE000C7029091C802A091C902B091CA02079698
:101EF000A11DB11D23E0B695A795979587952A95C5
:101F0000D1F72091BC0024FD03C010920F0352C0F2
:101F10004091C7025091C8026091C9027091CA02F3
:101F2000452B462B472B69F30097A105B10541F0DE
:101F30002AE22A95F1F700C00197A109B109E1CF82
:101F40008091C602C1E0C093C502882399F1D09167
:101F5000B8001091BA008091BC008A7B8093BC00CD
:101F600060E082E00E94770260E083E00E947702F6
:101F700010920F03C09311031092100361E082E0EE
:101F80000E94770261E083E00E9477028091B900AD
:101F90008E7F8093B9008091B9008D7F8093B900C6
:101FA00088E48093B80085E48093BC001093BA0065
:101FB000D093B800DF91CF911F910895AF92BF9257
:101FC000CF92DF92EF92FF920F931F93CF93DF9305
:101FD000CDB7DEB72C970FB6F894DEBF0FBECDBFDE
:101FE0005C017B016A018EE891E00E94660DC501EB
:101FF0000E94660D87EA91E00E94660D69E771E034
:10200000CE0107960E942A0F8701CE0CDF1C0C150B
:102010001D0531F1F80161918F0185E693E00E9481
:102020005106F8013197808189831A82EB84FC8400
:10203000FFEFEF1AFF0AB701CE0107960E94020FC9
:10204000882329F32F8138858B859C85BE016F5F9E
:102050007F4F820F931F0E944B1FFC86EB86D7CFCA
:1020600067E771E085E693E00E94C10CB501CE01FF
:1020700001960E942A0F8D819E81E980FA80892B2A
:1020800041F06AE671E0C7010E94421F11E0892B0E
:1020900009F010E0E114F10419F0C7010E94E11DFC
:1020A000112301F183EB91E00E94660D8B859C85E5
:1020B000892BC1F00F81188567EC71E0C8010E947F
:1020C000421F6AEC71E0892B49F06EEC71E0C801A7
:1020D0000E94421F892B31F462ED71E085E693E0A6
:1020E0000E94700D8F819885009711F00E94E11D6C
:1020F0002C960FB6F894DEBF0FBECDBFDF91CF9107
:102100001F910F91FF90EF90DF90CF90BF90AF9015
:1021100008951F920F920FB60F9211242F933F93A1
:102120008F939F93AF93BF9380914F0390915003F0
:10213000A0915103B091520330914E0323E0230F3D
:102140002D3758F50196A11DB11D20934E038093A4
:102150004F0390935003A0935103B0935203809187
:10216000530390915403A0915503B09156030196E7
:10217000A11DB11D8093530390935403A093550365
:10218000B0935603BF91AF919F918F913F912F9143
:102190000F900FBE0F901F90189526E8230F029600
:1021A000A11DB11DD2CF1F920F920FB60F92112415
:1021B0008F939F938091E1009091E100937F9093A2
:1021C000E10083FF0FC01092E90091E09093EB00D3
:1021D0001092EC0092E39093ED001092640398E06B
:1021E0009093F00082FF22C093E09093E9009091D9
:1021F000F200992319F09AE39093E80090913A0342
:10220000992341F090913A03915090933A039111A0
:1022100001C05D9A90916303992341F0909163030B
:10222000915090936303911101C0289A84FF18C0C4
:102230008091E2008E7E81608093E2008091E100D7
:102240008F7E8093E10080913B038E7E806180933E
:102250003B039F918F910F900FBE0F901F90189589
:1022600080FFF7CF8091E2008E7E80618093E20054
:102270008091E1008E7E8093E10080913B038E7E11
:102280008160E5CF1F920F920FB60F921124CF926B
:10229000DF92EF92FF920F931F932F933F934F93F1
:1022A0005F936F937F938F939F93AF93BF93EF93BE
:1022B000FF93CF93DF93CDB7DEB76C97DEBFCDBF73
:1022C0001092E9008091E80083FF25C068E0CE010C
:1022D00045960E94BF0582EF8093E8008D8987FFB5
:1022E00039C09091E80090FFFCCF982F907609F0CC
:1022F00034C19E894F89588D2F89F88C911131C036
:10230000803861F580913C038093F1001092F100D8
:102310008EEF8093E8006C960FB6F894DEBF0FBE88
:10232000CDBFDF91CF91FF91EF91BF91AF919F9181
:102330008F917F916F915F914F913F912F911F915D
:102340000F91FF90EF90DF90CF900F900FBE0F9006
:102350001F9018959EEF9093E800C7CF1092F10060
:10236000D5CF913059F48111D3CF4130510581F649
:1023700080913C038D7F80933C03CACF933049F416
:102380008111C6CF4130510519F680913C0382601E
:10239000F2CF953041F48091E80080FFFCCF2068B7
:1023A0002093E300B5CF963009F0A9C00B8D1C8DAA
:1023B00022E01092E9001092380310923703F212D3
:1023C0002EC010923603109235030E948E051F8294
:1023D00099E09983FA8291E09E8390EA98879AEF38
:1023E00099872091370330913803275F3F4F3C8313
:1023F0002B838D831092E9001092380310923703DB
:10240000109336030093350349E050E0BE016F5F3F
:102410007F4F80E00E9468050E948E0579CF10935F
:102420003603009335030E941702DC0112960D91CA
:102430001C910115110509F451C1D801ED91FC91D0
:102440000480F581E02DBE016B5E7F4FC8010995C8
:10245000009709F03EC1F80100851185EACFF3E04D
:10246000FF120EC08F89882309F440C0823061F4C6
:1024700040E862E18FE192E00E948F14811148CF21
:1024800081E28093EB0047CF813029F440E862E19C
:102490008CE092E0F1CF833099F70E941702DC01C3
:1024A0001296ED90FC908E010F5F1F4F6801E114B2
:1024B000F10479F0D701ED91FC910680F781E02DD0
:1024C000B801C7010995080F111DF701E084F184D7
:1024D000EECFD8011C92F60101900020E9F7319768
:1024E000BF016C197D0940E0C601C6CF66EF71E0FF
:1024F000FB01449150E080E80E94680509CF9730C5
:1025000009F4BECF983021F481E08093F10000CF30
:10251000993009F0FDCE837009F0B2CFE2E2F1E02C
:1025200081E031E096E32191222371F08093E9006C
:102530003093EB00DF0111972C912093EC009093E6
:10254000ED008F5F873079F78EE78093EA00109275
:10255000EA008F8980936403DBCE8B8D9C8D109273
:10256000E90010923803109237039093360380935A
:102570003503898D811192C08E899D89913A49F4E4
:10258000813209F07DCF47E050E06CE071E080E0FF
:10259000B3CF913209F074CF833269F48F89988D6B
:1025A000B0E0A0E08093080190930901A0930A0194
:1025B000B0930B01ADCE803269F48091E80082FFC8
:1025C000FCCF67E08CE091E00E94BF058BEF809329
:1025D000E8009ECE823209F09BCE8F898093130152
:1025E000EEEFFFE7859194918B3F9C4D51F1E0E038
:1025F000F8E080910C0190910D01A0910E01B09135
:102600000F01803B9440A105B105F1F480911301C5
:1026100080FD1AC0EE3F8AE0F80789F587E797E763
:1026200091838083809160008093390388E19BE0EF
:102630000FB6F894A895809360000FBE9093600049
:1026400067CEEEEFFAE0D5CF80819181873797474B
:1026500009F05ECEA895809160008861809360004B
:102660008091390380936000EE3F2AE0F20789F001
:102670008091FE0A9091FF0A9183808349CE8081E8
:1026800091818737980751F29093FF0A8093FE0A51
:10269000C5CF1092FF0A1092FE0A3ACE0E9417028E
:1026A000DC0112960D911C910115110509F4E8CE7B
:1026B000D801ED91FC910190F081E02DBE016B5E9F
:1026C0007F4FC8010995811123CEF801008511853E
:1026D000EBCF181619060CF41BCED2CEF1E0FF1288
:1026E000BECE6AEF71E004CF1F920F920FB60F9229
:1026F00011242F933F934F935F936F937F938F9307
:102700009F93AF93BF93EF93FF938091B900887F1E
:10271000803609F44AC0F0F5883209F4A5C018F5EE
:10272000803109F499C0B8F4882309F4F5C08830E1
:1027300009F492C0FF91EF91BF91AF919F918F915A
:102740007F916F915F914F913F912F910F900FBEAD
:102750000F901F901895883109F486C0803251F788
:1027600080930E0314C0803409F49BC040F480337E
:10277000B9F38833F9F680930E0385ECAEC080354B
:1027800009F483C0883509F494C0883499F60E940E
:10279000690FD0CF883909F48AC038F5883729F015
:1027A00050F4883611F0803729F683E080930F03C8
:1027B00010920D0355C0883809F479C0803919F09A
:1027C000803809F0B7CF80910D03803208F06FC0D8
:1027D000E0910D0381E08E0F80930D038091BB008B
:1027E000F0E0E351FD4F80833BC0803B39F0D0F4F3
:1027F000803A09F477C0883A09F09CCF84E080934E
:102800000F031092EC021092EB02F0E0E0E0099569
:102810008091EB0281110FC081E08093EB02109256
:10282000CB0209C0803C09F4A8CF883C09F4A5CFAD
:10283000883B09F07FCFE091EC0281E08E0F80931E
:10284000EC02F0E0E553FD4F80818093BB00909156
:10285000EC028091EB0229C0809134038093BB008D
:1028600085EC8093BC0066CF909133038091320356
:10287000981758F5E091330381E08E0F809333036E
:10288000F0E0EE5EFC4F8081E9CFE091330381E020
:102890008E0F809333038091BB00F0E0EE5EFC4F1F
:1028A000808390913303809132039817C8F285E8B2
:1028B000D8CFE091330381E08E0F80933303809172
:1028C000BB00F0E0EE5EFC4F80838091110381112C
:1028D0005ECF81E08093100384EA8093BC00109265
:1028E0000F0328CF85EC8093BC0010920F038091DA
:1028F0000D03803230F4E0910D03F0E0E351FD4F21
:10290000108260910D0370E08DEE92E0F0E0E0E067
:10291000099510920D030ECF10920E0338CFEF924F
:10292000FF920F931F93CF93DF93F82E192FE62E6C
:10293000042F81E0860F880F0E943A0583E00E94F1
:102940003A05CF2DD12FEC0EFD2EF11CCE15DF0553
:10295000B9F007FF13C0FE0184910E943A05182FB9
:1029600080E00E943A05812321968111EFCFDF910B
:10297000CF911F910F91FF90EF9008958881EDCF37
:1029800081E0F5CFCF93DF93E5E6F3E01382128287
:1029900048EE53E060E070E04483558366837783BC
:1029A0008CE291E0918380832FEF3FEF358724877E
:1029B000E5EBF3E088E691E0918380831282138255
:1029C00014821582EBEBF3E09183808312821382F1
:1029D00014821582E1ECF3E09183808312821382EA
:1029E00014821582E7ECF3E09183808312821382D4
:1029F00014821582EDECF3E09183808312821382BE
:102A000014821582E3EDF3E09183808312821382B6
:102A100014821582E1E1F4E09183808312821382B3
:102A200014821582E2E0F4E013821282448355831B
:102A3000668377834AE451E05183408344E04487CE
:102A4000C9EDD3E01B821A824EE351E059834883DB
:102A50009C8F8B8F1D8E1E8E1F8E18A238A72FA3C2
:102A6000FD83EC831EA21DA280E091E00E94451D23
:102A70009F838E8380E091E0998788878FE090E044
:102A80009B878A879D878C87DF91CF910895CF930D
:102A9000DF93CDB7DEB768970FB6F894DEBF0FBEF1
:102AA000CDBF789484B5826084BD84B5816084BDD7
:102AB00085B5826085BD85B5816085BD80916E00DC
:102AC000816080936E00109281008091810082600D
:102AD000809381008091810081608093810080914A
:102AE000800081608093800080919100826080935B
:102AF000910080919100816080939100809190007D
:102B00008160809390008091C10084608093C100B7
:102B10008091C10082608093C1008091C10081607A
:102B20008093C1008091C30081608093C300809135
:102B3000C00082608093C0008091C2008160809359
:102B4000C20080917A00846080937A0080917A003C
:102B5000826080937A0080917A00816080937A000D
:102B600080917A00806880937A00109264031092BA
:102B70003C0310923B038091D70081608093D70083
:102B800080EA8093D80089B5806189BD89B582606B
:102B900089BD09B400FEFDCF61E070E080E090E007
:102BA0000E94FB028091D8008F7C80618093D800C6
:102BB0008091E000807F8093E0008091E1008E7E34
:102BC0008093E1008DE08093E200559A209A8FEF88
:102BD0009FEF909372038093710365ED71E085E63A
:102BE00093E00E94700D6AE070E080E090E00E9447
:102BF000FB0267E771E085E693E00E94C10C8BED74
:102C000091E00E94660D68EE71E085E693E00E9417
:102C1000700D80913D03811105C00E94ED0881E097
:102C200080933D030E945B070E94E90862E081E116
:102C30000E94A10740E068E088EE91E00E94ED0765
:102C400041E060E089E791E00E94ED070E945B07A8
:102C50001A8619829E012F5F3F4F2901A901BE01EB
:102C6000665F7F4F81E10E945308892B11F48FEF3B
:102C70008A870E94E5088A858F3F69F01AE068E834
:102C800073E180E090E00E94FB020E943A098D7F90
:102C900011F41150A1F70E943A09833059F064EF02
:102CA00071E080E090E00E94FB028BE492E00E94E1
:102CB000660DF1CF69E771E085E693E00E94700D43
:102CC00061EF71E085E693E00E94700D68E072E0CC
:102CD00085E693E00E94700D88E691E09B878A87E5
:102CE0001C861D861E861F8687E0D2011D928A954E
:102CF000E9F786E493E09B838A8382E493E09E83F2
:102D00008D838EE393E09987888780913D038111BD
:102D100005C00E94ED0881E080933D030E945B079F
:102D20000E94E90861E081E20E94A1078FEF8B8B8E
:102D300041E061E0CE0143960E94ED070E945B07EF
:102D40001A8A0E943B08892BE1F1CE0142960E942B
:102D50001D088A89813AA9F50E942C08382E8823FB
:102D600081F18201B12CA12C682E712CA614B7041C
:102D70000CF58FEF0E948A07F8018083F12CE12C7B
:102D8000C82ED12CEC14FD047CF4D80111968D9042
:102D90009C908E0C9F1C8FEF0E948A07F401808309
:102DA000FFEFEF1AFF0AEECF2FEFA21AB20A0D5F64
:102DB0001F4FDCCF33E0331204C0CE0142960E9495
:102DC0001D080E94E5088091460390914703A09159
:102DD0004803B09149038C879D87AE87BF8765E61E
:102DE00073E0CE010A960E941C0D67E771E085E64C
:102DF00093E00E94C10C86E192E09093FB038093E4
:102E0000FA038BE597E09093FD038093FC038EED2E
:102E10009FE09093F3038093F2037CEF272E3324FB
:102E20003A940E94A40181117EC10E941D0C0E944F
:102E3000A401811178C183E292E00E94660D0E9494
:102E4000A401811163C18091DD039091DE03DC0157
:102E5000ED91FC910688F789E02D0995882309F406
:102E600077C0E1E0F0E0F093E803E093E70387E068
:102E7000EAE1F1E0D20101900D928A95E1F7D201E9
:102E800085E090E02D91E091DF03F091E003E80F01
:102E9000F91F208301968C309105A1F70091DF0383
:102EA0001091E003E2ECD8011C96EC931C97809102
:102EB000E4031D968C931D978091E3031E968C93DB
:102EC000E090E103F090E203B7018DE492E00E940C
:102ED0008A1A4196E816F90608F071C08091DD0360
:102EE0009091DE03DC01ED91FC910488F589E02DE1
:102EF00009958CE792E00E94660D80900004909006
:102F00000104092C000CAA08BB082AE0B501A401A1
:102F1000B7FE0DC06DE285E693E00E94510644279E
:102F20005527BA01481959096A097B092AE085E63B
:102F300093E00E94D00C63E972E085E693E00E9482
:102F4000700D68E873E180E090E00E94FB026FCFB3
:102F50006091FA037091FB038091DD039091DE0391
:102F6000DC01ED91FC914091FC035091FD03611552
:102F7000710571F00088F189E02D0995019709F438
:102F800070CFEEEFFFEFF0930104E0930004B1CFB8
:102F90000684F785E02D68E6C62E61E0D62EDA823B
:102FA000C9820091F6031091F7032091F803309144
:102FB000F9030B831C832D833E83B201DECF4FE0E8
:102FC00050E0B8018DE492E00E9482018C01E09013
:102FD000E103F090E203B70180E692E00E948A1AD2
:102FE000800F911F0296E816F90608F477CF6091DA
:102FF000DF037091E003A80180E692E00E94820165
:103000008C01E090E103F090E203B70186E692E0E4
:103010000E948A1A800F911F0296E816F90608F49A
:103020005DCF6091DF037091E003A80186E692E036
:103030000E948201AC01455051096091DF037091FB
:10304000E00380E10E9439030E942D036093E903AD
:103050007093EA038093EB039093EC036093ED038A
:103060007093EE038093EF039093F0038091DD0360
:103070009091DE03DC01ED91FC910084F185E02D5F
:103080000995892B11F50E942D030091ED031091F4
:10309000EE032091EF033091F0034B015C01801AA5
:1030A000910AA20AB30A2091E5033091E603A8EE43
:1030B000B3E00E940E1D86169706A806B906B0F268
:1030C000309201042092000409CFCE010A960E949A
:1030D000E703643071058105910509F0FFCEE091A9
:1030E000DF03F091E0038381811117C00E942D035B
:1030F0006093ED037093EE038093EF039093F003DE
:103100001092F103109201041092000462E772E041
:1031100085E693E00E94700D88CE90E090930104C4
:1031200080930004DBCE0E94A401882309F44BC0E5
:103130000E942D034B015C012091E3033091E403D5
:10314000A8EEB3E00E940E1D0091ED031091EE0376
:103150002091EF033091F00375016401C01AD10A88
:10316000E20AF30A97018601601771078207930745
:10317000B0F00091E9031091EA032091EB03309144
:10318000EC0375016401C01AD10AE20AF30A97013F
:103190008601601771078207930708F0A7C0809126
:1031A000F103882309F473C03092010420920004D3
:1031B0008091DD039091DE03DC01ED91FC910488A8
:1031C000F589E02D09950E942D0300914A03109185
:1031D0004B0320914C0330914D036B017C01C01ACD
:1031E000D10AE20AF30A9701860109381341210541
:1031F00031050CF444C060934A0370934B038093F1
:103200004C0390934D038E01065F1F4F22E041E077
:1032100060E074E583E696E40E946C1A8EEA92E020
:103220000E94660DB80185E693E00E94700D6091E2
:10323000E1037091E203C8010E948A1ABC01C8012F
:103240000E946C0C820122E041E060E070E08AE8BC
:1032500092E40E946C1A88EB92E00E94660DB20123
:1032600085E693E00E94700D6091E1037091E203A6
:10327000C2010E948A1ABC01C2010E946C0C80E04B
:1032800090E0892B09F4CDCD0E940000CACDE091D9
:10329000DF03F091E00380EC8083E091DF03F091A5
:1032A000E00311828091DD039091DE036091DF03E2
:1032B0007091E003DC01ED91FC910280F381E02D3F
:1032C00042E050E009958092E9039092EA03A092CF
:1032D000EB03B092EC038092ED039092EE03A09288
:1032E000EF03B092F00381E08093F1038091DD035E
:1032F0009091DE03DC01ED91FC910084F185E02DDD
:103300000995892B09F45FCFC2010E94E7036C8BFA
:103310007D8B8E8B9F8B672B09F4D5C08092ED033C
:103320009092EE03A092EF03B092F003E091DF03DE
:10333000F091E0038081807F803309F0A3C0809109
:10334000F2039091F303892B09F43DCF298130E0FA
:10335000C90102968E0F9F1FDF01A20FB31F1196A6
:103360000C9110E0102F0027DC016C91060F111D4D
:103370002D5F3F4FBF01620F731FA8010E94301FD6
:10338000E9818091DF039091E003800F911FE80FA6
:10339000F92FF11D1282E091DF03F091E003298102
:1033A00030E0C90102968E0F9F1F40814670D42ED7
:1033B0006090F2037090F303B2E04B134FC0B8017A
:1033C000620F731FDF01A60FB71F1396EC901397C0
:1033D000F12CFE2CEE2414964C91E40EF11C4BEFD4
:1033E0005FEF421B530B401B510B2C893D89420F51
:1033F000531F6B5F7F4F6E0F7F1FF3010995E091A5
:10340000DF03F091E00380E48083E091DF03F0913B
:10341000E003D182E091DF03F091E003F282E091DA
:10342000DF03F091E003E3828091DD039091DE03FE
:103430006091DF037091E003DC01ED91FC9102806B
:10344000F381E02D44E050E009958092E9039092E9
:10345000EA03A092EB03B092EC03B5CE4DEF5FEF21
:10346000421B530B401B510BCC88DD884C0D5D1D5E
:103470002D5F3F4F200F311FBF01620F731FF301FC
:103480000995A1CE803CC9F480ED8083E091DF03F3
:10349000F091E00311828091DD039091DE03609151
:1034A000DF037091E003DC01ED91FC910280F38178
:1034B000E02D42E050E0099586CE803D09F083CEB4
:1034C0001092F10380CE0E94A4017DCE8091DF0393
:1034D0009091E0030C94E11DEF920F931F93CF9313
:1034E000DF93E80134E047FD34E1042E000C550B76
:1034F00057FF03C0519541955109E32E022F242F08
:10350000AE010E94951ACE01DF91CF911F910F91CC
:10351000EF900895FC016150704001900110D8F7C0
:10352000809590958E0F9F1F0895A9E0B0E0EBE97C
:10353000FAE10C94DD1C6A01F22EB02E102FFBE391
:10354000AF2EA01608F41BE31F5F012F27E0AE018A
:103550004F5F5F4F0E94F41BBC018981982F9970C7
:10356000913009F43FC09BE2E1FC04C09E2D9170B4
:10357000E0FC3AC05E2D5071E82FE87083FF46C032
:1035800084E0911101C083E0EF2DE81B8F1508F056
:10359000E0E0D6018E2F20E2552351F1992329F046
:1035A000D6019C93C60101966C0196012D5F3F4F99
:1035B000E2FE24C08EE4D6018C9391E411969C9394
:1035C000119712968C93D9018E2F90E281111BC016
:1035D000E20FF32FF11D10828EEF9FEF2996ECE0A2
:1035E0000C94F91C9DE2C6CF90E2C4CF2D9381507C
:1035F0008111FCCFCE0ED11CE0E0D0CF8EE6D601FB
:103600008C9391E6DBCF9D938150E0CF482F44709F
:1036100082FF3DC084E0911101C083E08F1510F45A
:10362000EF2DE81BD6018E2F20E2552309F19923B7
:1036300029F0D6019C93C60101966C0196012D5F7D
:103640003F4FE2FE1BC089E4D6018C938EE41196B5
:103650008C93119786E412968C93D9018E2F90E269
:10366000882309F4B5CF9D938150FACF2D938150D3
:103670008111FCCFCE0ED11CE0E0D9CF89E6D60176
:103680008C938EE611968C93119786E6E4CF9B017E
:1036900077FF02C030E020E0A1E0B0E0911102C06D
:1036A000B0E0A0E0F9013196AE0FBF1F8B2C912C3A
:1036B000BB2009F461C05401EFEFAE1ABE0AAA0D97
:1036C000BB1DFA161B0619F014F04F2D4A1B5111A1
:1036D00088C0E3FC59C07601A42FB0E2A1114FC00D
:1036E000C40ED11C992309F45BC040E0D6011196A9
:1036F000F60190836D01552309F448C0012F060F90
:103700009A81582F507184FF03C0913309F40150FE
:1037100010160CF047C0093008F008E0EEE2FE2E6B
:103720005B01A01AB10885019194819491082F3F03
:10373000320729F4D601FC92F60131966F01621727
:10374000730794F1021713077CF5DB01A21BB30B7F
:10375000AA24A394B12CAC0EBD1EAA0DBB1D1196BC
:103760008C9121503109D601119628153905F4F0B4
:10377000F60180836D01DBCFB12CA12CA0CFF70126
:10378000B1937F01A150AACF9111B0CFD601942F50
:1037900050E302C05D9391509111FCCFC40ED11C37
:1037A00040E0ACCF01E0BACF80E3DBCF6217730714
:1037B00031F4963388F4953311F4552369F0F6010A
:1037C0008083FD01842F90E2811108C0A40FB11DF8
:1037D0001C9290E080E002CF81E3F1CF9193815081
:1037E000F3CF911183CF8ACF283008F027E0332719
:1037F000DA01990F311D87FD916000966105710511
:1038000039F432602E5F3D9330E32A95E1F7089555
:103810009F3F30F080387105610509F03C5F3C5FE7
:103820003D93913008F08068911DDF93CF931F93F3
:103830000F93FF92EF92192F987F9695E92F969507
:103840009695E90FFF27EA5FFE4F99273327EE246D
:10385000FF24A701E70105900894079428F4360F88
:10386000E71EF81E491F511D660F771F881F991FFD
:103870000694A1F70590079428F4E70EF81E491F57
:10388000561FC11D770F881F991F661F0694A1F749
:103890000590079428F4F80E491F561FC71FD11D25
:1038A000880F991F661F771F0694A1F7059007944C
:1038B00020F4490F561FC71FD81F990F661F771F87
:1038C000881F0694A9F784911095177041F0D6953A
:1038D000C79557954795F794E7941A95C1F7ECEA81
:1038E000F0E068941590159135916591959105904A
:1038F0007FE27395E118F10A430B560BC90BD0090F
:10390000C0F7E10CF11E431F561FC91FD01D7EF4E6
:10391000703311F48A95E6CFE894015030F0080F27
:103920000AF40027021708F4202F2395022F7A3378
:1039300028F079E37D932A95E9F710C07D932A95C5
:1039400089F6069497956795379517951794E1181A
:10395000F10A430B560BC90BD00998F023957E91C1
:1039600073957A3308F070E37C932013B8F77E9157
:1039700070617D9330F0839571E37D9370E32A95B8
:10398000E1F71124EF90FF900F911F91CF91DF91FC
:10399000992787FD909508950E940E1DA59F900D73
:1039A000B49F900DA49F800D911D112408952F9216
:1039B0003F924F925F926F927F928F929F92AF92BF
:1039C000BF92CF92DF92EF92FF920F931F93CF930C
:1039D000DF93CDB7DEB7CA1BDB0B0FB6F894DEBFA3
:1039E0000FBECDBF09942A88398848885F846E84C9
:1039F0007D848C849B84AA84B984C884DF80EE8013
:103A0000FD800C811B81AA81B981CE0FD11D0FB61B
:103A1000F894DEBF0FBECDBFED010895A29FB001A7
:103A2000B39FC001A39F700D811D1124911DB29FF2
:103A3000700D811D1124911D0895A1E21A2EAA1B5B
:103A4000BB1BFD010DC0AA1FBB1FEE1FFF1FA2174E
:103A5000B307E407F50720F0A21BB30BE40BF50B4B
:103A6000661F771F881F991F1A9469F760957095D4
:103A7000809590959B01AC01BD01CF010895EE0F9B
:103A8000FF1F0590F491E02D09940F931F93CF939E
:103A9000DF938230910510F482E090E0E091190408
:103AA000F0911A0430E020E0B0E0A0E0309799F403
:103AB0002115310509F44AC0281B390B2430310582
:103AC000D8F58A819B816115710589F1FB0193838A
:103AD0008283FE0111C04081518102811381481708
:103AE0005907E0F04817590799F4109761F01296BA
:103AF0000C93129713961C933296CF01DF91CF91BE
:103B00001F910F9108950093190410931A04F4CF94
:103B10002115310551F04217530738F0A901DB0197
:103B20009A01BD01DF01F801C1CFEF01F9CF9093F8
:103B30001A0480931904CDCFFE01E20FF31F819385
:103B400091932250310939832883D7CF20911704CC
:103B500030911804232B41F4209116013091170164
:103B6000309318042093170420911401309115010B
:103B70002115310541F42DB73EB740911801509100
:103B80001901241B350BE0911704F0911804E2177A
:103B9000F307A0F42E1B3F0B2817390778F0AC0170
:103BA0004E5F5F4F2417350748F04E0F5F1F50934D
:103BB000180440931704819391939FCFF0E0E0E0C5
:103BC0009CCFCF93DF930097E9F0FC0132971382EB
:103BD0001282A0911904B0911A04ED0130E020E0A6
:103BE0001097A1F420813181820F931F2091170437
:103BF000309118042817390709F061C0F0931804B0
:103C0000E0931704DF91CF910895EA01CE17DF0703
:103C1000E8F54A815B819E0141155105B1F7E90143
:103C2000FB83EA8349915991C40FD51FEC17FD0717
:103C300061F4808191810296840F951FE901998337
:103C40008883828193819B838A83F0E0E0E01296EF
:103C50008D919C9113970097B9F52D913C911197F7
:103C6000CD010296820F931F209117043091180402
:103C70002817390739F6309751F510921A04109227
:103C80001904B0931804A0931704BCCFD383C28344
:103C900040815181840F951FC817D90761F44E5F89
:103CA0005F4F88819981480F591F518340838A81D2
:103CB0009B81938382832115310509F0B0CFF09366
:103CC0001A04E09319049ECFFD01DC01C0CF1382DA
:103CD0001282D7CFB0E0A0E0E0E7FEE10C94D91C5F
:103CE0008C01009751F4CB010E94451D8C01C80145
:103CF000CDB7DEB7E0E10C94F51CFC01E60FF71F31
:103D00009C0122503109E217F30708F49DC0D90144
:103D1000CD91DC911197C617D70798F0C530D10522
:103D200030F3CE0104978617970708F3C61BD70B0D
:103D30002297C193D1936D937C93CF010E94E11D93
:103D4000D6CF5B01AC1ABD0A4C018C0E9D1EA09112
:103D50001904B0911A04512C412CF12CE12C10972C
:103D600031F580911704909118048815990509F090
:103D70005CC04616570608F058C080911401909117
:103D80001501009741F48DB79EB7409118015091ED
:103D90001901841B950BE817F90708F055C0F0933B
:103DA0001804E0931704F90171836083A0CF8D910B
:103DB0009C91119712966C90129713967C90139782
:103DC000A815B90559F56C0142E0C40ED11CCA14FE
:103DD000DB0420F1AC014A195B09DA011296159750
:103DE00080F06282738251834083D9016D937C930A
:103DF000E114F10471F0D7011396FC93EE9312973E
:103E000076CF22968C0F9D1FF90191838083F30159
:103E1000EFCFF0931A04E093190469CF48165906BE
:103E200008F42C017D01D3019ACFCB010E94451DDE
:103E30007C01009749F0AE01B8010E94271FC8011C
:103E40000E94E11D870153CF10E000E050CFFB013D
:103E5000DC0102C001900D9241505040D8F7089506
:103E60006817790768F4FB01DC01E40FF51FA40F64
:103E7000B51F02C002900E9241505040D8F70895ED
:103E80000C94271FFB01DC018D910190801901101A
:103E9000D9F3990B0895FB01DC0101900D920020EC
:103EA000E1F7089511E0C7E5D1E004C0FE010E94EA
:0E3EB0003F1D2196C835D107C9F7F894FFCF02
:103EBE00FFFFFFFFFFFFFFFFFFFFFFFF00E100001F
:103ECE000000000000001B04800000044D515454FB
:103EDE000400C18081000000000000005106CC05E6
:103EEE0072066706B80676069406000000004307C1
:103EFE0023071A0CEA0900000000040C5E0B1A0CD2
:103F0E00F906200BFC0A6E0A890D470E920A070A63
:103F1E00F309EB09000000001C0D65737033322F9E
:103F2E006F7574707574000D0A004E6F20536F63B9
:103F3E006B657420617661696C61626C65004D65BC
:103F4E006C64696E6720616E6B6F6D6D6574207445
:103F5E006F7069633A20002E204D656C64696E6740
:103F6E003A2000456E64726572206F7574707574B8
:103F7E002074696C3A20006F6E0070C3A5006F66E6
:103F8E0066006176007374617274004B6F626C65CB
:103F9E00722074696C3A20004E544E552D494F5480
:103FAE000057694669206B6F626C696E67206F708F
:103FBE007072657474657400495020616464726532
:103FCE007373653A200031302E32352E31382E3152
:103FDE00333800466F7273C3B86B657220C3A52069
:103FEE006F70707265747465206B6F626C696E674A
:103FFE002074696C206D7174742E2E2E00517561B3
:10400E00676D6972655F7075626C69736865720061
:10401E006E6A61616C0033496E7368616C6C6168C5
:10402E003400636F6E6E6563746564006D69736CE6
:10403E00796B6B6574206B6F626C696E672C207286
:10404E00633D00205072C3B87665722069676A6559
:10405E006E206F6D20352073656B756E640056652E
:10406E0072646920313A2000566572646920323AD2
:02407E00200020
:00000001FF
